8=FIX.4.4|9=79|35=A|34=1|49=nest_umdf_bov|52=20120808-17:40:49.590|56=XPBSP|98=0|108=30|141=Y|10=055|8=FIX.4.4|9=61|35=5|34=2|49=nest_umdf_bov|52=20120808-17:41:10.574|56=XPBSP|10=212|