8=FIX.4.2|9=72|35=A|34=1|49=NESTQ2|52=20120820-19:24:38.511|56=XPBOV|98=0|108=30|141=Y|10=119|8=FIX.4.2|9=54|35=0|34=2|49=NESTQ2|52=20120820-19:25:08.528|56=XPBOV|10=039|8=FIX.4.2|9=54|35=0|34=3|49=NESTQ2|52=20120820-19:25:38.546|56=XPBOV|10=043|8=FIX.4.2|9=54|35=0|34=4|49=NESTQ2|52=20120820-19:26:08.549|56=XPBOV|10=045|8=FIX.4.2|9=54|35=0|34=5|49=NESTQ2|52=20120820-19:26:38.566|56=XPBOV|10=048|8=FIX.4.2|9=54|35=0|34=6|49=NESTQ2|52=20120820-19:27:08.569|56=XPBOV|10=050|8=FIX.4.2|9=54|35=0|34=7|49=NESTQ2|52=20120820-19:27:38.571|56=XPBOV|10=047|8=FIX.4.2|9=54|35=0|34=8|49=NESTQ2|52=20120820-19:28:08.588|56=XPBOV|10=054|8=FIX.4.2|9=54|35=0|34=9|49=NESTQ2|52=20120820-19:28:38.588|56=XPBOV|10=058|8=FIX.4.2|9=55|35=0|34=10|49=NESTQ2|52=20120820-19:29:08.589|56=XPBOV|10=098|8=FIX.4.2|9=55|35=0|34=11|49=NESTQ2|52=20120820-19:29:38.605|56=XPBOV|10=091|8=FIX.4.2|9=55|35=0|34=12|49=NESTQ2|52=20120820-19:30:08.606|56=XPBOV|10=082|8=FIX.4.2|9=55|35=0|34=13|49=NESTQ2|52=20120820-19:30:38.622|56=XPBOV|10=084|8=FIX.4.2|9=55|35=0|34=14|49=NESTQ2|52=20120820-19:31:08.623|56=XPBOV|10=084|8=FIX.4.2|9=55|35=0|34=15|49=NESTQ2|52=20120820-19:31:38.624|56=XPBOV|10=089|8=FIX.4.2|9=55|35=0|34=16|49=NESTQ2|52=20120820-19:32:08.640|56=XPBOV|10=086|8=FIX.4.2|9=55|35=0|34=17|49=NESTQ2|52=20120820-19:32:38.641|56=XPBOV|10=091|8=FIX.4.2|9=55|35=0|34=18|49=NESTQ2|52=20120820-19:33:08.657|56=XPBOV|10=097|8=FIX.4.2|9=55|35=0|34=19|49=NESTQ2|52=20120820-19:33:38.657|56=XPBOV|10=101|8=FIX.4.2|9=55|35=0|34=20|49=NESTQ2|52=20120820-19:34:08.658|56=XPBOV|10=092|8=FIX.4.2|9=55|35=0|34=21|49=NESTQ2|52=20120820-19:34:38.674|56=XPBOV|10=094|8=FIX.4.2|9=55|35=0|34=22|49=NESTQ2|52=20120820-19:35:08.674|56=XPBOV|10=093|8=FIX.4.2|9=55|35=0|34=23|49=NESTQ2|52=20120820-19:35:38.690|56=XPBOV|10=095|8=FIX.4.2|9=55|35=0|34=24|49=NESTQ2|52=20120820-19:36:08.690|56=XPBOV|10=094|8=FIX.4.2|9=55|35=0|34=25|49=NESTQ2|52=20120820-19:36:38.691|56=XPBOV|10=099|8=FIX.4.2|9=55|35=0|34=26|49=NESTQ2|52=20120820-19:37:08.706|56=XPBOV|10=095|8=FIX.4.2|9=55|35=0|34=27|49=NESTQ2|52=20120820-19:37:38.707|56=XPBOV|10=100|8=FIX.4.2|9=55|35=0|34=28|49=NESTQ2|52=20120820-19:38:08.722|56=XPBOV|10=096|8=FIX.4.2|9=55|35=0|34=29|49=NESTQ2|52=20120820-19:38:38.722|56=XPBOV|10=100|8=FIX.4.2|9=55|35=0|34=30|49=NESTQ2|52=20120820-19:39:08.722|56=XPBOV|10=090|8=FIX.4.2|9=55|35=0|34=31|49=NESTQ2|52=20120820-19:39:38.738|56=XPBOV|10=101|8=FIX.4.2|9=55|35=0|34=32|49=NESTQ2|52=20120820-19:40:08.739|56=XPBOV|10=092|8=FIX.4.2|9=55|35=0|34=33|49=NESTQ2|52=20120820-19:40:38.741|56=XPBOV|10=089|8=FIX.4.2|9=55|35=0|34=34|49=NESTQ2|52=20120820-19:41:08.758|56=XPBOV|10=096|8=FIX.4.2|9=55|35=0|34=35|49=NESTQ2|52=20120820-19:41:38.760|56=XPBOV|10=093|8=FIX.4.2|9=55|35=0|34=36|49=NESTQ2|52=20120820-19:42:08.762|56=XPBOV|10=094|8=FIX.4.2|9=55|35=0|34=37|49=NESTQ2|52=20120820-19:42:38.764|56=XPBOV|10=100|8=FIX.4.2|9=55|35=0|34=38|49=NESTQ2|52=20120820-19:43:08.766|56=XPBOV|10=101|8=FIX.4.2|9=55|35=0|34=39|49=NESTQ2|52=20120820-19:43:38.783|56=XPBOV|10=104|8=FIX.4.2|9=55|35=0|34=40|49=NESTQ2|52=20120820-19:44:08.785|56=XPBOV|10=096|8=FIX.4.2|9=55|35=0|34=41|49=NESTQ2|52=20120820-19:44:38.787|56=XPBOV|10=102|8=FIX.4.2|9=55|35=0|34=42|49=NESTQ2|52=20120820-19:45:08.788|56=XPBOV|10=102|8=FIX.4.2|9=55|35=0|34=43|49=NESTQ2|52=20120820-19:45:38.789|56=XPBOV|10=107|8=FIX.4.2|9=55|35=0|34=44|49=NESTQ2|52=20120820-19:46:08.790|56=XPBOV|10=098|8=FIX.4.2|9=55|35=0|34=45|49=NESTQ2|52=20120820-19:46:38.791|56=XPBOV|10=103|8=FIX.4.2|9=55|35=0|34=46|49=NESTQ2|52=20120820-19:47:08.792|56=XPBOV|10=103|8=FIX.4.2|9=55|35=0|34=47|49=NESTQ2|52=20120820-19:47:38.793|56=XPBOV|10=108|8=FIX.4.2|9=55|35=0|34=48|49=NESTQ2|52=20120820-19:48:08.794|56=XPBOV|10=108|8=FIX.4.2|9=55|35=0|34=49|49=NESTQ2|52=20120820-19:48:38.795|56=XPBOV|10=113|8=FIX.4.2|9=55|35=0|34=50|49=NESTQ2|52=20120820-19:49:08.811|56=XPBOV|10=092|8=FIX.4.2|9=55|35=0|34=51|49=NESTQ2|52=20120820-19:49:38.812|56=XPBOV|10=097|8=FIX.4.2|9=55|35=0|34=52|49=NESTQ2|52=20120820-19:50:08.813|56=XPBOV|10=088|8=FIX.4.2|9=55|35=0|34=53|49=NESTQ2|52=20120820-19:50:38.813|56=XPBOV|10=092|8=FIX.4.2|9=55|35=0|34=54|49=NESTQ2|52=20120820-19:51:08.814|56=XPBOV|10=092|8=FIX.4.2|9=55|35=0|34=55|49=NESTQ2|52=20120820-19:51:38.814|56=XPBOV|10=096|8=FIX.4.2|9=55|35=0|34=56|49=NESTQ2|52=20120820-19:52:08.814|56=XPBOV|10=095|8=FIX.4.2|9=55|35=0|34=57|49=NESTQ2|52=20120820-19:52:38.815|56=XPBOV|10=100|8=FIX.4.2|9=55|35=0|34=58|49=NESTQ2|52=20120820-19:53:08.815|56=XPBOV|10=099|8=FIX.4.2|9=55|35=0|34=59|49=NESTQ2|52=20120820-19:53:38.815|56=XPBOV|10=103|8=FIX.4.2|9=55|35=0|34=60|49=NESTQ2|52=20120820-19:54:08.831|56=XPBOV|10=091|8=FIX.4.2|9=55|35=0|34=61|49=NESTQ2|52=20120820-19:54:38.832|56=XPBOV|10=096|8=FIX.4.2|9=149|35=D|34=62|49=NESTQ2|52=20120820-19:55:06.757|56=XPBOV|1=8007686|11=18_11_231_001|21=1|38=1500|40=A|44=0|54=2|55=AMBV4|59=0|60=20120820-22:55:06.757|10=198|8=FIX.4.2|9=149|35=D|34=63|49=NESTQ2|52=20120820-19:55:07.006|56=XPBOV|1=8007686|11=18_11_231_002|21=1|38=3300|40=A|44=0|54=1|55=BBDC4|59=0|60=20120820-22:55:07.006|10=148|8=FIX.4.2|9=149|35=D|34=64|49=NESTQ2|52=20120820-19:55:07.178|56=XPBOV|1=8007686|11=18_11_231_003|21=1|38=4500|40=A|44=0|54=1|55=BRML3|59=0|60=20120820-22:55:07.178|10=206|8=FIX.4.2|9=150|35=D|34=65|49=NESTQ2|52=20120820-19:55:07.334|56=XPBOV|1=8007686|11=18_11_231_004|21=1|38=16300|40=A|44=0|54=1|55=BTOW3|59=0|60=20120820-22:55:07.334|10=252|8=FIX.4.2|9=149|35=D|34=66|49=NESTQ2|52=20120820-19:55:07.552|56=XPBOV|1=8007686|11=18_11_231_005|21=1|38=8400|40=A|44=0|54=1|55=EMBR3|59=0|60=20120820-22:55:07.552|10=198|8=FIX.4.2|9=150|35=D|34=67|49=NESTQ2|52=20120820-19:55:07.771|56=XPBOV|1=8007686|11=18_11_231_006|21=1|38=11800|40=A|44=0|54=2|55=GOLL4|59=0|60=20120820-22:55:07.771|10=254|8=FIX.4.2|9=149|35=D|34=68|49=NESTQ2|52=20120820-19:55:07.942|56=XPBOV|1=8007686|11=18_11_231_007|21=1|38=8300|40=A|44=0|54=2|55=LAME4|59=0|60=20120820-22:55:07.927|10=205|8=FIX.4.2|9=148|35=D|34=69|49=NESTQ2|52=20120820-19:55:08.083|56=XPBOV|1=8007686|11=18_11_231_008|21=1|38=200|40=A|44=0|54=2|55=MPLU3|59=0|60=20120820-22:55:08.083|10=170|8=FIX.4.2|9=149|35=D|34=70|49=NESTQ2|52=20120820-19:55:08.223|56=XPBOV|1=8007686|11=18_11_231_009|21=1|38=5400|40=A|44=0|54=1|55=PETR4|59=0|60=20120820-22:55:08.223|10=208|8=FIX.4.2|9=150|35=D|34=71|49=NESTQ2|52=20120820-19:55:08.442|56=XPBOV|1=8007686|11=18_11_231_0010|21=1|38=1700|40=A|44=0|54=1|55=QGEP3|59=0|60=20120820-22:55:08.442|10=231|8=FIX.4.2|9=151|35=D|34=72|49=NESTQ2|52=20120820-19:55:08.629|56=XPBOV|1=8007686|11=18_11_231_0011|21=1|38=7000|40=A|44=0|54=1|55=SANB11|59=0|60=20120820-22:55:08.629|10=029|8=FIX.4.2|9=150|35=D|34=73|49=NESTQ2|52=20120820-19:55:08.863|56=XPBOV|1=8007686|11=18_11_231_0012|21=1|38=2300|40=A|44=0|54=2|55=VIVT4|59=0|60=20120820-22:55:08.863|10=020|8=FIX.4.2|9=55|35=0|34=74|49=NESTQ2|52=20120820-19:55:38.879|56=XPBOV|10=112|8=FIX.4.2|9=55|35=0|34=75|49=NESTQ2|52=20120820-19:56:08.879|56=XPBOV|10=111|8=FIX.4.2|9=55|35=0|34=76|49=NESTQ2|52=20120820-19:56:38.879|56=XPBOV|10=115|8=FIX.4.2|9=55|35=0|34=77|49=NESTQ2|52=20120820-19:57:08.895|56=XPBOV|10=112|8=FIX.4.2|9=55|35=0|34=78|49=NESTQ2|52=20120820-19:57:38.895|56=XPBOV|10=116|8=FIX.4.2|9=55|35=0|34=79|49=NESTQ2|52=20120820-19:58:08.896|56=XPBOV|10=116|8=FIX.4.2|9=55|35=0|34=80|49=NESTQ2|52=20120820-19:58:38.912|56=XPBOV|10=100|8=FIX.4.2|9=55|35=0|34=81|49=NESTQ2|52=20120820-19:59:08.913|56=XPBOV|10=100|8=FIX.4.2|9=55|35=0|34=82|49=NESTQ2|52=20120820-19:59:38.913|56=XPBOV|10=104|8=FIX.4.2|9=153|35=D|34=83|49=NESTQ2|52=20120820-19:59:43.375|56=XPBOV|1=8007686|11=18_13_186_001_AUCB|21=1|38=100|40=A|44=0|54=1|55=BBDC4|59=0|60=20120820-22:59:43.375|10=250|8=FIX.4.2|9=153|35=D|34=84|49=NESTQ2|52=20120820-19:59:43.749|56=XPBOV|1=8007686|11=18_13_186_002_AUCB|21=1|38=100|40=A|44=0|54=1|55=BBAS3|59=0|60=20120820-22:59:43.749|10=018|8=FIX.4.2|9=153|35=D|34=85|49=NESTQ2|52=20120820-19:59:43.937|56=XPBOV|1=8007686|11=18_13_186_003_AUCB|21=1|38=100|40=A|44=0|54=1|55=ITUB4|59=0|60=20120820-22:59:43.937|10=047|8=FIX.4.2|9=154|35=D|34=86|49=NESTQ2|52=20120820-19:59:44.108|56=XPBOV|1=8007686|11=18_13_186_004_AUCB|21=1|38=100|40=A|44=0|54=1|55=SANB11|59=0|60=20120820-22:59:44.108|10=062|8=FIX.4.2|9=153|35=D|34=87|49=NESTQ2|52=20120820-19:59:44.280|56=XPBOV|1=8007686|11=18_13_192_005_AUCB|21=1|38=100|40=A|44=0|54=1|55=GETI4|59=0|60=20120820-22:59:44.280|10=021|8=FIX.4.2|9=153|35=D|34=88|49=NESTQ2|52=20120820-19:59:44.467|56=XPBOV|1=8007686|11=18_13_192_006_AUCB|21=1|38=100|40=A|44=0|54=1|55=CMIG4|59=0|60=20120820-22:59:44.451|10=021|8=FIX.4.2|9=153|35=D|34=89|49=NESTQ2|52=20120820-19:59:44.685|56=XPBOV|1=8007686|11=18_13_192_007_AUCB|21=1|38=100|40=A|44=0|54=1|55=CESP6|59=0|60=20120820-22:59:44.685|10=047|8=FIX.4.2|9=153|35=D|34=90|49=NESTQ2|52=20120820-19:59:44.841|56=XPBOV|1=8007686|11=18_13_192_008_AUCB|21=1|38=100|40=A|44=0|54=1|55=CPFE3|59=0|60=20120820-22:59:44.841|10=012|8=FIX.4.2|9=153|35=D|34=91|49=NESTQ2|52=20120820-19:59:44.998|56=XPBOV|1=8007686|11=18_13_192_009_AUCB|21=1|38=100|40=A|44=0|54=1|55=ELET6|59=0|60=20120820-22:59:44.998|10=055|8=FIX.4.2|9=154|35=D|34=92|49=NESTQ2|52=20120820-19:59:45.216|56=XPBOV|1=8007686|11=18_13_192_0010_AUCB|21=1|38=100|40=A|44=0|54=1|55=ELPL4|59=0|60=20120820-22:59:45.216|10=066|8=FIX.4.2|9=154|35=D|34=93|49=NESTQ2|52=20120820-19:59:45.356|56=XPBOV|1=8007686|11=18_13_192_0011_AUCB|21=1|38=100|40=A|44=0|54=1|55=ENBR3|59=0|60=20120820-22:59:45.356|10=071|8=FIX.4.2|9=154|35=D|34=94|49=NESTQ2|52=20120820-19:59:45.575|56=XPBOV|1=8007686|11=18_13_192_0012_AUCB|21=1|38=100|40=A|44=0|54=1|55=LIGT3|59=0|60=20120820-22:59:45.575|10=088|8=FIX.4.2|9=154|35=D|34=95|49=NESTQ2|52=20120820-19:59:45.700|56=XPBOV|1=8007686|11=18_13_192_0013_AUCB|21=1|38=100|40=A|44=0|54=1|55=CPLE6|59=0|60=20120820-22:59:45.700|10=061|8=FIX.4.2|9=154|35=D|34=96|49=NESTQ2|52=20120820-19:59:45.887|56=XPBOV|1=8007686|11=18_13_189_0014_AUCB|21=1|38=100|40=A|44=0|54=1|55=BISA3|59=0|60=20120820-22:59:45.887|10=093|8=FIX.4.2|9=154|35=D|34=97|49=NESTQ2|52=20120820-19:59:46.012|56=XPBOV|1=8007686|11=18_13_189_0015_AUCB|21=1|38=100|40=A|44=0|54=1|55=CYRE3|59=0|60=20120820-22:59:46.012|10=077|8=FIX.4.2|9=154|35=D|34=98|49=NESTQ2|52=20120820-19:59:46.152|56=XPBOV|1=8007686|11=18_13_189_0016_AUCB|21=1|38=100|40=A|44=0|54=1|55=EVEN3|59=0|60=20120820-22:59:46.152|10=084|8=FIX.4.2|9=154|35=D|34=99|49=NESTQ2|52=20120820-19:59:46.277|56=XPBOV|1=8007686|11=18_13_189_0017_AUCB|21=1|38=100|40=A|44=0|54=1|55=EZTC3|59=0|60=20120820-22:59:46.277|10=110|8=FIX.4.2|9=155|35=D|34=100|49=NESTQ2|52=20120820-19:59:46.464|56=XPBOV|1=8007686|11=18_13_189_0018_AUCB|21=1|38=100|40=A|44=0|54=1|55=GFSA3|59=0|60=20120820-22:59:46.464|10=118|8=FIX.4.2|9=155|35=D|34=101|49=NESTQ2|52=20120820-19:59:46.620|56=XPBOV|1=8007686|11=18_13_189_0019_AUCB|21=1|38=100|40=A|44=0|54=1|55=MRVE3|59=0|60=20120820-22:59:46.620|10=133|8=FIX.4.2|9=155|35=D|34=102|49=NESTQ2|52=20120820-19:59:46.807|56=XPBOV|1=8007686|11=18_13_189_0020_AUCB|21=1|38=100|40=A|44=0|54=1|55=PDGR3|59=0|60=20120820-22:59:46.807|10=127|8=FIX.4.2|9=155|35=D|34=103|49=NESTQ2|52=20120820-19:59:46.994|56=XPBOV|1=8007686|11=18_13_189_0021_AUCB|21=1|38=100|40=A|44=0|54=1|55=RSID3|59=0|60=20120820-22:59:46.994|10=148|8=FIX.4.2|9=155|35=D|34=104|49=NESTQ2|52=20120820-19:59:47.213|56=XPBOV|1=8007686|11=18_13_189_0022_AUCB|21=1|38=100|40=A|44=0|54=1|55=TCSA3|59=0|60=20120820-22:59:47.213|10=113|8=FIX.4.2|9=155|35=D|34=105|49=NESTQ2|52=20120820-19:59:47.400|56=XPBOV|1=8007686|11=18_13_190_0023_AUCB|21=1|38=100|40=A|44=0|54=1|55=SUZB5|59=0|60=20120820-22:59:47.400|10=130|8=FIX.4.2|9=155|35=D|34=106|49=NESTQ2|52=20120820-19:59:47.681|56=XPBOV|1=8007686|11=18_13_190_0024_AUCB|21=1|38=100|40=A|44=0|54=1|55=KLBN4|59=0|60=20120820-22:59:47.681|10=124|8=FIX.4.2|9=155|35=D|34=107|49=NESTQ2|52=20120820-19:59:47.899|56=XPBOV|1=8007686|11=18_13_190_0025_AUCB|21=1|38=100|40=A|44=0|54=1|55=FIBR3|59=0|60=20120820-22:59:47.899|10=143|8=FIX.4.2|9=155|35=D|34=108|49=NESTQ2|52=20120820-19:59:48.071|56=XPBOV|1=8007686|11=18_13_188_0026_AUCB|21=1|38=100|40=A|44=0|54=1|55=ALSC3|59=0|60=20120820-22:59:48.071|10=118|8=FIX.4.2|9=155|35=D|34=109|49=NESTQ2|52=20120820-19:59:48.211|56=XPBOV|1=8007686|11=18_13_188_0027_AUCB|21=1|38=100|40=A|44=0|54=1|55=BRML3|59=0|60=20120820-22:59:48.211|10=122|8=FIX.4.2|9=155|35=D|34=110|49=NESTQ2|52=20120820-19:59:48.352|56=XPBOV|1=8007686|11=18_13_188_0028_AUCB|21=1|38=100|40=A|44=0|54=1|55=IGTA3|59=0|60=20120820-22:59:48.352|10=119|8=FIX.4.2|9=155|35=D|34=111|49=NESTQ2|52=20120820-19:59:48.508|56=XPBOV|1=8007686|11=18_13_188_0029_AUCB|21=1|38=100|40=A|44=0|54=1|55=MULT3|59=0|60=20120820-22:59:48.508|10=156|8=FIX.4.2|9=155|35=D|34=112|49=NESTQ2|52=20120820-19:59:48.648|56=XPBOV|1=8007686|11=18_13_188_0030_AUCB|21=1|38=100|40=A|44=0|54=1|55=BRPR3|59=0|60=20120820-22:59:48.648|10=147|8=FIX.4.2|9=155|35=D|34=113|49=NESTQ2|52=20120820-19:59:48.789|56=XPBOV|1=8007686|11=18_13_191_0031_AUCB|21=1|38=100|40=A|44=0|54=1|55=CSNA3|59=0|60=20120820-22:59:48.789|10=138|8=FIX.4.2|9=155|35=D|34=114|49=NESTQ2|52=20120820-19:59:48.929|56=XPBOV|1=8007686|11=18_13_191_0032_AUCB|21=1|38=100|40=A|44=0|54=1|55=GGBR4|59=0|60=20120820-22:59:48.929|10=130|8=FIX.4.2|9=155|35=D|34=115|49=NESTQ2|52=20120820-19:59:49.101|56=XPBOV|1=8007686|11=18_13_191_0033_AUCB|21=1|38=100|40=A|44=0|54=1|55=USIM5|59=0|60=20120820-22:59:49.101|10=127|8=FIX.4.2|9=155|35=D|34=116|49=NESTQ2|52=20120820-19:59:49.257|56=XPBOV|1=8007686|11=18_13_304_0034_AUCB|21=1|38=100|40=A|44=0|54=1|55=VIVT4|59=0|60=20120820-22:59:49.257|10=159|8=FIX.4.2|9=155|35=D|34=117|49=NESTQ2|52=20120820-19:59:49.459|56=XPBOV|1=8007686|11=18_13_304_0035_AUCB|21=1|38=100|40=A|44=0|54=1|55=OIBR4|59=0|60=20120820-22:59:49.459|10=140|8=FIX.4.2|9=155|35=D|34=118|49=NESTQ2|52=20120820-19:59:49.662|56=XPBOV|1=8007686|11=18_13_304_0036_AUCB|21=1|38=100|40=A|44=0|54=1|55=TIMP3|59=0|60=20120820-22:59:49.662|10=147|8=FIX.4.2|9=56|35=0|34=119|49=NESTQ2|52=20120820-20:00:19.850|56=XPBOV|10=131|8=FIX.4.2|9=56|35=0|34=120|49=NESTQ2|52=20120820-20:00:49.850|56=XPBOV|10=126|8=FIX.4.2|9=56|35=0|34=121|49=NESTQ2|52=20120820-20:01:19.851|56=XPBOV|10=126|8=FIX.4.2|9=56|35=0|34=122|49=NESTQ2|52=20120820-20:01:49.852|56=XPBOV|10=131|8=FIX.4.2|9=56|35=0|34=123|49=NESTQ2|52=20120820-20:02:19.852|56=XPBOV|10=130|8=FIX.4.2|9=56|35=0|34=124|49=NESTQ2|52=20120820-20:02:49.868|56=XPBOV|10=141|8=FIX.4.2|9=56|35=0|34=125|49=NESTQ2|52=20120820-20:03:19.868|56=XPBOV|10=140|8=FIX.4.2|9=56|35=0|34=126|49=NESTQ2|52=20120820-20:03:49.868|56=XPBOV|10=144|8=FIX.4.2|9=56|35=0|34=127|49=NESTQ2|52=20120820-20:04:19.869|56=XPBOV|10=144|8=FIX.4.2|9=154|35=D|34=128|49=NESTQ2|52=20120820-20:04:45.735|56=XPBOV|1=8007686|11=18_13_186_001_AUCS|21=1|38=100|40=A|44=0|54=2|55=BBDC4|59=0|60=20120820-23:04:45.735|10=038|8=FIX.4.2|9=154|35=D|34=129|49=NESTQ2|52=20120820-20:04:45.969|56=XPBOV|1=8007686|11=18_13_186_002_AUCS|21=1|38=100|40=A|44=0|54=2|55=BBAS3|59=0|60=20120820-23:04:45.953|10=063|8=FIX.4.2|9=154|35=D|34=130|49=NESTQ2|52=20120820-20:04:46.125|56=XPBOV|1=8007686|11=18_13_186_003_AUCS|21=1|38=100|40=A|44=0|54=2|55=ITUB4|59=0|60=20120820-23:04:46.125|10=062|8=FIX.4.2|9=155|35=D|34=131|49=NESTQ2|52=20120820-20:04:46.281|56=XPBOV|1=8007686|11=18_13_186_004_AUCS|21=1|38=100|40=A|44=0|54=2|55=SANB11|59=0|60=20120820-23:04:46.281|10=101|8=FIX.4.2|9=154|35=D|34=132|49=NESTQ2|52=20120820-20:04:46.421|56=XPBOV|1=8007686|11=18_13_192_005_AUCS|21=1|38=100|40=A|44=0|54=2|55=GETI4|59=0|60=20120820-23:04:46.421|10=050|8=FIX.4.2|9=154|35=D|34=133|49=NESTQ2|52=20120820-20:04:46.687|56=XPBOV|1=8007686|11=18_13_192_006_AUCS|21=1|38=100|40=A|44=0|54=2|55=CMIG4|59=0|60=20120820-23:04:46.687|10=071|8=FIX.4.2|9=154|35=D|34=134|49=NESTQ2|52=20120820-20:04:46.858|56=XPBOV|1=8007686|11=18_13_192_007_AUCS|21=1|38=100|40=A|44=0|54=2|55=CESP6|59=0|60=20120820-23:04:46.858|10=086|8=FIX.4.2|9=154|35=D|34=135|49=NESTQ2|52=20120820-20:04:47.014|56=XPBOV|1=8007686|11=18_13_192_008_AUCS|21=1|38=100|40=A|44=0|54=2|55=CPFE3|59=0|60=20120820-23:04:47.014|10=042|8=FIX.4.2|9=154|35=D|34=136|49=NESTQ2|52=20120820-20:04:47.186|56=XPBOV|1=8007686|11=18_13_192_009_AUCS|21=1|38=100|40=A|44=0|54=2|55=ELET6|59=0|60=20120820-23:04:47.186|10=079|8=FIX.4.2|9=155|35=D|34=137|49=NESTQ2|52=20120820-20:04:47.389|56=XPBOV|1=8007686|11=18_13_192_0010_AUCS|21=1|38=100|40=A|44=0|54=2|55=ELPL4|59=0|60=20120820-23:04:47.389|10=132|8=FIX.4.2|9=155|35=D|34=138|49=NESTQ2|52=20120820-20:04:47.591|56=XPBOV|1=8007686|11=18_13_192_0011_AUCS|21=1|38=100|40=A|44=0|54=2|55=ENBR3|59=0|60=20120820-23:04:47.591|10=117|8=FIX.4.2|9=155|35=D|34=139|49=NESTQ2|52=20120820-20:04:47.857|56=XPBOV|1=8007686|11=18_13_192_0012_AUCS|21=1|38=100|40=A|44=0|54=2|55=LIGT3|59=0|60=20120820-23:04:47.857|10=138|8=FIX.4.2|9=155|35=D|34=140|49=NESTQ2|52=20120820-20:04:48.075|56=XPBOV|1=8007686|11=18_13_192_0013_AUCS|21=1|38=100|40=A|44=0|54=2|55=CPLE6|59=0|60=20120820-23:04:48.075|10=108|8=FIX.4.2|9=155|35=D|34=141|49=NESTQ2|52=20120820-20:04:48.262|56=XPBOV|1=8007686|11=18_13_189_0014_AUCS|21=1|38=100|40=A|44=0|54=2|55=BISA3|59=0|60=20120820-23:04:48.262|10=104|8=FIX.4.2|9=155|35=D|34=142|49=NESTQ2|52=20120820-20:04:48.559|56=XPBOV|1=8007686|11=18_13_189_0015_AUCS|21=1|38=100|40=A|44=0|54=2|55=CYRE3|59=0|60=20120820-23:04:48.559|10=144|8=FIX.4.2|9=155|35=D|34=143|49=NESTQ2|52=20120820-20:04:48.715|56=XPBOV|1=8007686|11=18_13_189_0016_AUCS|21=1|38=100|40=A|44=0|54=2|55=EVEN3|59=0|60=20120820-23:04:48.715|10=129|8=FIX.4.2|9=155|35=D|34=144|49=NESTQ2|52=20120820-20:04:48.918|56=XPBOV|1=8007686|11=18_13_189_0017_AUCS|21=1|38=100|40=A|44=0|54=2|55=EZTC3|59=0|60=20120820-23:04:48.918|10=149|8=FIX.4.2|9=155|35=D|34=145|49=NESTQ2|52=20120820-20:04:49.214|56=XPBOV|1=8007686|11=18_13_189_0018_AUCS|21=1|38=100|40=A|44=0|54=2|55=GFSA3|59=0|60=20120820-23:04:49.214|10=110|8=FIX.4.2|9=155|35=D|34=146|49=NESTQ2|52=20120820-20:04:49.588|56=XPBOV|1=8007686|11=18_13_189_0019_AUCS|21=1|38=100|40=A|44=0|54=2|55=MRVE3|59=0|60=20120820-23:04:49.588|10=165|8=FIX.4.2|9=155|35=D|34=147|49=NESTQ2|52=20120820-20:04:49.963|56=XPBOV|1=8007686|11=18_13_189_0020_AUCS|21=1|38=100|40=A|44=0|54=2|55=PDGR3|59=0|60=20120820-23:04:49.947|10=141|8=FIX.4.2|9=155|35=D|34=148|49=NESTQ2|52=20120820-20:04:50.212|56=XPBOV|1=8007686|11=18_13_189_0021_AUCS|21=1|38=100|40=A|44=0|54=2|55=RSID3|59=0|60=20120820-23:04:50.212|10=104|8=FIX.4.2|9=155|35=D|34=149|49=NESTQ2|52=20120820-20:04:50.415|56=XPBOV|1=8007686|11=18_13_189_0022_AUCS|21=1|38=100|40=A|44=0|54=2|55=TCSA3|59=0|60=20120820-23:04:50.415|10=109|8=FIX.4.2|9=155|35=D|34=150|49=NESTQ2|52=20120820-20:04:50.618|56=XPBOV|1=8007686|11=18_13_190_0023_AUCS|21=1|38=100|40=A|44=0|54=2|55=SUZB5|59=0|60=20120820-23:04:50.618|10=131|8=FIX.4.2|9=155|35=D|34=151|49=NESTQ2|52=20120820-20:04:50.836|56=XPBOV|1=8007686|11=18_13_190_0024_AUCS|21=1|38=100|40=A|44=0|54=2|55=KLBN4|59=0|60=20120820-23:04:50.821|10=101|8=FIX.4.2|9=155|35=D|34=152|49=NESTQ2|52=20120820-20:04:51.133|56=XPBOV|1=8007686|11=18_13_190_0025_AUCS|21=1|38=100|40=A|44=0|54=2|55=FIBR3|59=0|60=20120820-23:04:51.117|10=088|8=FIX.4.2|9=155|35=D|34=153|49=NESTQ2|52=20120820-20:04:51.414|56=XPBOV|1=8007686|11=18_13_188_0026_AUCS|21=1|38=100|40=A|44=0|54=2|55=ALSC3|59=0|60=20120820-23:04:51.414|10=099|8=FIX.4.2|9=155|35=D|34=154|49=NESTQ2|52=20120820-20:04:51.616|56=XPBOV|1=8007686|11=18_13_188_0027_AUCS|21=1|38=100|40=A|44=0|54=2|55=BRML3|59=0|60=20120820-23:04:51.616|10=119|8=FIX.4.2|9=155|35=D|34=155|49=NESTQ2|52=20120820-20:04:51.991|56=XPBOV|1=8007686|11=18_13_188_0028_AUCS|21=1|38=100|40=A|44=0|54=2|55=IGTA3|59=0|60=20120820-23:04:51.991|10=125|8=FIX.4.2|9=155|35=D|34=156|49=NESTQ2|52=20120820-20:04:52.147|56=XPBOV|1=8007686|11=18_13_188_0029_AUCS|21=1|38=100|40=A|44=0|54=2|55=MULT3|59=0|60=20120820-23:04:52.147|10=144|8=FIX.4.2|9=155|35=D|34=157|49=NESTQ2|52=20120820-20:04:52.365|56=XPBOV|1=8007686|11=18_13_188_0030_AUCS|21=1|38=100|40=A|44=0|54=2|55=BRPR3|59=0|60=20120820-23:04:52.365|10=129|8=FIX.4.2|9=155|35=D|34=158|49=NESTQ2|52=20120820-20:04:52.568|56=XPBOV|1=8007686|11=18_13_191_0031_AUCS|21=1|38=100|40=A|44=0|54=2|55=CSNA3|59=0|60=20120820-23:04:52.568|10=118|8=FIX.4.2|9=155|35=D|34=159|49=NESTQ2|52=20120820-20:04:52.865|56=XPBOV|1=8007686|11=18_13_191_0032_AUCS|21=1|38=100|40=A|44=0|54=2|55=GGBR4|59=0|60=20120820-23:04:52.865|10=118|8=FIX.4.2|9=155|35=D|34=160|49=NESTQ2|52=20120820-20:04:53.052|56=XPBOV|1=8007686|11=18_13_191_0033_AUCS|21=1|38=100|40=A|44=0|54=2|55=USIM5|59=0|60=20120820-23:04:53.052|10=118|8=FIX.4.2|9=155|35=D|34=161|49=NESTQ2|52=20120820-20:04:53.411|56=XPBOV|1=8007686|11=18_13_304_0034_AUCS|21=1|38=100|40=A|44=0|54=2|55=VIVT4|59=0|60=20120820-23:04:53.411|10=124|8=FIX.4.2|9=155|35=D|34=162|49=NESTQ2|52=20120820-20:04:53.582|56=XPBOV|1=8007686|11=18_13_304_0035_AUCS|21=1|38=100|40=A|44=0|54=2|55=OIBR4|59=0|60=20120820-23:04:53.582|10=115|8=FIX.4.2|9=155|35=D|34=163|49=NESTQ2|52=20120820-20:04:53.785|56=XPBOV|1=8007686|11=18_13_304_0036_AUCS|21=1|38=100|40=A|44=0|54=2|55=TIMP3|59=0|60=20120820-23:04:53.785|10=140|8=FIX.4.2|9=150|35=D|34=164|49=NESTQ2|52=20120820-20:05:04.721|56=XPBOV|1=8007686|11=18_13_188_001|21=1|38=8500|40=A|44=0|54=2|55=ALSC3|59=0|60=20120820-23:05:04.721|10=218|8=FIX.4.2|9=150|35=D|34=165|49=NESTQ2|52=20120820-20:05:04.908|56=XPBOV|1=8007686|11=18_13_188_002|21=1|38=5900|40=A|44=0|54=1|55=BRML3|59=0|60=20120820-23:05:04.908|10=244|8=FIX.4.2|9=150|35=D|34=166|49=NESTQ2|52=20120820-20:05:05.205|56=XPBOV|1=8007686|11=18_13_188_003|21=1|38=2700|40=A|44=0|54=2|55=IGTA3|59=0|60=20120820-23:05:05.205|10=216|8=FIX.4.2|9=150|35=D|34=167|49=NESTQ2|52=20120820-20:05:05.376|56=XPBOV|1=8007686|11=18_13_188_004|21=1|38=1000|40=A|44=0|54=1|55=MULT3|59=0|60=20120820-23:05:05.376|10=000|8=FIX.4.2|9=150|35=D|34=168|49=NESTQ2|52=20120820-20:05:05.564|56=XPBOV|1=8007686|11=18_13_188_005|21=1|38=3600|40=A|44=0|54=1|55=BRPR3|59=0|60=20120820-23:05:05.564|10=252|8=FIX.4.2|9=151|35=D|34=169|49=NESTQ2|52=20120820-20:05:08.621|56=XPBOV|1=8007686|11=18_13_190_001|21=1|38=25200|40=A|44=0|54=2|55=SUZB5|59=0|60=20120820-23:05:08.606|10=049|8=FIX.4.2|9=150|35=D|34=170|49=NESTQ2|52=20120820-20:05:08.887|56=XPBOV|1=8007686|11=18_13_190_002|21=1|38=6000|40=A|44=0|54=1|55=KLBN4|59=0|60=20120820-23:05:08.887|10=240|8=FIX.4.2|9=150|35=D|34=171|49=NESTQ2|52=20120820-20:05:09.043|56=XPBOV|1=8007686|11=18_13_190_003|21=1|38=2900|40=A|44=0|54=1|55=FIBR3|59=0|60=20120820-23:05:09.043|10=212|8=FIX.4.2|9=149|35=D|34=172|49=NESTQ2|52=20120820-20:05:12.490|56=XPBOV|1=8007686|11=18_13_304_001|21=1|38=600|40=A|44=0|54=2|55=VIVT4|59=0|60=20120820-23:05:12.475|10=206|8=FIX.4.2|9=150|35=D|34=173|49=NESTQ2|52=20120820-20:05:13.099|56=XPBOV|1=8007686|11=18_13_304_002|21=1|38=2300|40=A|44=0|54=2|55=OIBR4|59=0|60=20120820-23:05:13.099|10=227|8=FIX.4.2|9=150|35=D|34=174|49=NESTQ2|52=20120820-20:05:13.692|56=XPBOV|1=8007686|11=18_13_304_003|21=1|38=5400|40=A|44=0|54=1|55=TIMP3|59=0|60=20120820-23:05:13.692|10=243|8=FIX.4.2|9=150|35=D|34=175|49=NESTQ2|52=20120820-20:05:16.718|56=XPBOV|1=8007686|11=18_13_191_001|21=1|38=2500|40=A|44=0|54=2|55=CSNA3|59=0|60=20120820-23:05:16.718|10=228|8=FIX.4.2|9=150|35=D|34=176|49=NESTQ2|52=20120820-20:05:17.124|56=XPBOV|1=8007686|11=18_13_191_002|21=1|38=3100|40=A|44=0|54=1|55=GGBR4|59=0|60=20120820-23:05:17.124|10=208|8=FIX.4.2|9=150|35=D|34=177|49=NESTQ2|52=20120820-20:05:17.514|56=XPBOV|1=8007686|11=18_13_191_003|21=1|38=2300|40=A|44=0|54=2|55=USIM5|59=0|60=20120820-23:05:17.514|10=247|8=FIX.4.2|9=150|35=D|34=178|49=NESTQ2|52=20120820-20:05:33.926|56=XPBOV|1=8007686|11=18_13_188_006|21=1|38=2100|40=A|44=0|54=2|55=BRML3|59=0|60=20120820-23:05:33.926|10=246|8=FIX.4.2|9=150|35=D|34=179|49=NESTQ2|52=20120820-20:05:34.160|56=XPBOV|1=8007686|11=18_13_188_007|21=1|38=1000|40=A|44=0|54=1|55=MULT3|59=0|60=20120820-23:05:34.160|10=248|8=FIX.4.2|9=150|35=D|34=180|49=NESTQ2|52=20120820-20:05:38.310|56=XPBOV|1=8007686|11=18_13_189_001|21=1|38=7000|40=A|44=0|54=2|55=BISA3|59=0|60=20120820-23:05:38.310|10=209|8=FIX.4.2|9=151|35=D|34=181|49=NESTQ2|52=20120820-20:05:38.653|56=XPBOV|1=8007686|11=18_13_189_002|21=1|38=26200|40=A|44=0|54=1|55=EVEN3|59=0|60=20120820-23:05:38.653|10=041|8=FIX.4.2|9=150|35=D|34=182|49=NESTQ2|52=20120820-20:05:38.824|56=XPBOV|1=8007686|11=18_13_189_003|21=1|38=2400|40=A|44=0|54=2|55=GFSA3|59=0|60=20120820-23:05:38.824|10=234|8=FIX.4.2|9=150|35=D|34=183|49=NESTQ2|52=20120820-20:05:38.996|56=XPBOV|1=8007686|11=18_13_189_004|21=1|38=2000|40=A|44=0|54=2|55=MRVE3|59=0|60=20120820-23:05:38.980|10=014|8=FIX.4.2|9=150|35=D|34=184|49=NESTQ2|52=20120820-20:05:39.121|56=XPBOV|1=8007686|11=18_13_189_005|21=1|38=5900|40=A|44=0|54=2|55=PDGR3|59=0|60=20120820-23:05:39.121|10=240|8=FIX.4.2|9=150|35=D|34=185|49=NESTQ2|52=20120820-20:05:39.292|56=XPBOV|1=8007686|11=18_13_189_006|21=1|38=3800|40=A|44=0|54=2|55=RSID3|59=0|60=20120820-23:05:39.292|10=006|8=FIX.4.2|9=150|35=D|34=186|49=NESTQ2|52=20120820-20:05:39.589|56=XPBOV|1=8007686|11=18_13_189_007|21=1|38=5000|40=A|44=0|54=2|55=TCSA3|59=0|60=20120820-23:05:39.589|10=013|8=FIX.4.2|9=150|35=D|34=187|49=NESTQ2|52=20120820-20:05:46.250|56=XPBOV|1=8007686|11=18_13_192_001|21=1|38=1600|40=A|44=0|54=2|55=CMIG4|59=0|60=20120820-23:05:46.250|10=216|8=FIX.4.2|9=150|35=D|34=188|49=NESTQ2|52=20120820-20:05:46.531|56=XPBOV|1=8007686|11=18_13_192_002|21=1|38=2600|40=A|44=0|54=2|55=CESP6|59=0|60=20120820-23:05:46.531|10=236|8=FIX.4.2|9=149|35=D|34=189|49=NESTQ2|52=20120820-20:05:46.703|56=XPBOV|1=8007686|11=18_13_192_003|21=1|38=200|40=A|44=0|54=1|55=CPFE3|59=0|60=20120820-23:05:46.703|10=177|8=FIX.4.2|9=150|35=D|34=190|49=NESTQ2|52=20120820-20:05:46.890|56=XPBOV|1=8007686|11=18_13_192_004|21=1|38=4900|40=A|44=0|54=2|55=ELET6|59=0|60=20120820-23:05:46.890|10=251|8=FIX.4.2|9=150|35=D|34=191|49=NESTQ2|52=20120820-20:05:47.046|56=XPBOV|1=8007686|11=18_13_192_005|21=1|38=2300|40=A|44=0|54=1|55=ELPL4|59=0|60=20120820-23:05:47.046|10=233|8=FIX.4.2|9=151|35=D|34=192|49=NESTQ2|52=20120820-20:05:47.218|56=XPBOV|1=8007686|11=18_13_192_006|21=1|38=19200|40=A|44=0|54=1|55=ENBR3|59=0|60=20120820-23:05:47.218|10=030|8=FIX.4.2|9=149|35=D|34=193|49=NESTQ2|52=20120820-20:05:47.405|56=XPBOV|1=8007686|11=18_13_192_007|21=1|38=100|40=A|44=0|54=1|55=LIGT3|59=0|60=20120820-23:05:47.405|10=193|8=FIX.4.2|9=150|35=D|34=194|49=NESTQ2|52=20120820-20:05:47.577|56=XPBOV|1=8007686|11=18_13_192_008|21=1|38=1000|40=A|44=0|54=2|55=CPLE6|59=0|60=20120820-23:05:47.577|10=247|8=FIX.4.2|9=149|35=D|34=195|49=NESTQ2|52=20120820-20:05:59.480|56=XPBOV|1=8007686|11=18_13_189_008|21=1|38=100|40=A|44=0|54=2|55=EVEN3|59=0|60=20120820-23:05:59.480|10=213|8=FIX.4.2|9=56|35=0|34=196|49=NESTQ2|52=20120820-20:06:29.870|56=XPBOV|10=145|8=FIX.4.2|9=150|35=D|34=197|49=NESTQ2|52=20120820-20:06:48.420|56=XPBOV|1=8007686|11=18_13_190_004|21=1|38=4700|40=A|44=0|54=1|55=KLBN4|59=0|60=20120820-23:06:48.420|10=232|8=FIX.4.2|9=150|35=D|34=198|49=NESTQ2|52=20120820-20:06:48.560|56=XPBOV|1=8007686|11=18_13_190_005|21=1|38=2600|40=A|44=0|54=2|55=FIBR3|59=0|60=20120820-23:06:48.560|10=237|8=FIX.4.2|9=56|35=0|34=199|49=NESTQ2|52=20120820-20:07:18.872|56=XPBOV|10=149|8=FIX.4.2|9=56|35=0|34=200|49=NESTQ2|52=20120820-20:07:48.872|56=XPBOV|10=135|8=FIX.4.2|9=56|35=0|34=201|49=NESTQ2|52=20120820-20:08:18.873|56=XPBOV|10=135|8=FIX.4.2|9=56|35=0|34=202|49=NESTQ2|52=20120820-20:08:48.888|56=XPBOV|10=145|8=FIX.4.2|9=56|35=0|34=203|49=NESTQ2|52=20120820-20:09:18.888|56=XPBOV|10=144|8=FIX.4.2|9=56|35=0|34=204|49=NESTQ2|52=20120820-20:09:48.889|56=XPBOV|10=149|8=FIX.4.2|9=56|35=0|34=205|49=NESTQ2|52=20120820-20:10:18.889|56=XPBOV|10=139|8=FIX.4.2|9=56|35=0|34=206|49=NESTQ2|52=20120820-20:10:48.889|56=XPBOV|10=143|8=FIX.4.2|9=56|35=0|34=207|49=NESTQ2|52=20120820-20:11:18.889|56=XPBOV|10=142|8=FIX.4.2|9=56|35=0|34=208|49=NESTQ2|52=20120820-20:11:48.889|56=XPBOV|10=146|8=FIX.4.2|9=56|35=0|34=209|49=NESTQ2|52=20120820-20:12:18.889|56=XPBOV|10=145|8=FIX.4.2|9=56|35=0|34=210|49=NESTQ2|52=20120820-20:12:48.889|56=XPBOV|10=140|8=FIX.4.2|9=56|35=0|34=211|49=NESTQ2|52=20120820-20:13:18.890|56=XPBOV|10=131|8=FIX.4.2|9=56|35=0|34=212|49=NESTQ2|52=20120820-20:13:48.905|56=XPBOV|10=132|8=FIX.4.2|9=56|35=0|34=213|49=NESTQ2|52=20120820-20:14:19.903|56=XPBOV|10=130|8=FIX.4.2|9=56|35=0|34=214|49=NESTQ2|52=20120820-20:14:50.900|56=XPBOV|10=123|8=FIX.4.2|9=56|35=0|34=215|49=NESTQ2|52=20120820-20:15:21.897|56=XPBOV|10=138|8=FIX.4.2|9=56|35=0|34=216|49=NESTQ2|52=20120820-20:15:52.894|56=XPBOV|10=140|8=FIX.4.2|9=56|35=0|34=217|49=NESTQ2|52=20120820-20:16:23.906|56=XPBOV|10=134|8=FIX.4.2|9=56|35=0|34=218|49=NESTQ2|52=20120820-20:16:54.903|56=XPBOV|10=136|8=FIX.4.2|9=56|35=0|34=219|49=NESTQ2|52=20120820-20:17:25.900|56=XPBOV|10=133|8=FIX.4.2|9=56|35=0|34=220|49=NESTQ2|52=20120820-20:17:56.897|56=XPBOV|10=144|8=FIX.4.2|9=56|35=0|34=221|49=NESTQ2|52=20120820-20:18:27.894|56=XPBOV|10=141|8=FIX.4.2|9=56|35=0|34=222|49=NESTQ2|52=20120820-20:18:58.907|56=XPBOV|10=141|8=FIX.4.2|9=56|35=0|34=223|49=NESTQ2|52=20120820-20:19:28.907|56=XPBOV|10=140|8=FIX.4.2|9=56|35=0|34=224|49=NESTQ2|52=20120820-20:19:59.905|56=XPBOV|10=143|8=FIX.4.2|9=56|35=0|34=225|49=NESTQ2|52=20120820-20:20:30.903|56=XPBOV|10=123|8=FIX.4.2|9=56|35=0|34=226|49=NESTQ2|52=20120820-20:21:01.901|56=XPBOV|10=121|8=FIX.4.2|9=56|35=0|34=227|49=NESTQ2|52=20120820-20:21:32.899|56=XPBOV|10=142|8=FIX.4.2|9=56|35=0|34=228|49=NESTQ2|52=20120820-20:22:02.914|56=XPBOV|10=129|8=FIX.4.2|9=56|35=0|34=229|49=NESTQ2|52=20120820-20:22:33.912|56=XPBOV|10=132|8=FIX.4.2|9=56|35=0|34=230|49=NESTQ2|52=20120820-20:23:04.910|56=XPBOV|10=121|8=FIX.4.2|9=56|35=0|34=231|49=NESTQ2|52=20120820-20:23:35.908|56=XPBOV|10=133|8=FIX.4.2|9=56|35=0|34=232|49=NESTQ2|52=20120820-20:24:06.906|56=XPBOV|10=131|8=FIX.4.2|9=56|35=0|34=233|49=NESTQ2|52=20120820-20:24:36.906|56=XPBOV|10=135|8=FIX.4.2|9=56|35=0|34=234|49=NESTQ2|52=20120820-20:25:06.921|56=XPBOV|10=131|8=FIX.4.2|9=56|35=0|34=235|49=NESTQ2|52=20120820-20:25:36.921|56=XPBOV|10=135|8=FIX.4.2|9=56|35=0|34=236|49=NESTQ2|52=20120820-20:26:07.919|56=XPBOV|10=142|8=FIX.4.2|9=56|35=0|34=237|49=NESTQ2|52=20120820-20:26:37.919|56=XPBOV|10=146|8=FIX.4.2|9=56|35=0|34=238|49=NESTQ2|52=20120820-20:27:08.917|56=XPBOV|10=144|8=FIX.4.2|9=56|35=0|34=239|49=NESTQ2|52=20120820-20:27:38.917|56=XPBOV|10=148|8=FIX.4.2|9=56|35=0|34=240|49=NESTQ2|52=20120820-20:28:09.915|56=XPBOV|10=137|8=FIX.4.2|9=56|35=0|34=241|49=NESTQ2|52=20120820-20:28:39.930|56=XPBOV|10=138|8=FIX.4.2|9=56|35=0|34=242|49=NESTQ2|52=20120820-20:29:09.930|56=XPBOV|10=137|8=FIX.4.2|9=56|35=0|34=243|49=NESTQ2|52=20120820-20:29:39.930|56=XPBOV|10=141|8=FIX.4.2|9=56|35=0|34=244|49=NESTQ2|52=20120820-20:30:10.928|56=XPBOV|10=130|8=FIX.4.2|9=56|35=0|34=245|49=NESTQ2|52=20120820-20:30:40.928|56=XPBOV|10=134|8=FIX.4.2|9=56|35=5|34=246|49=NESTQ2|52=20120820-20:30:59.929|56=XPBOV|10=151|