8=FIX.4.2|9=70|35=A|34=1|49=RAFATEST|52=20100326-17:16:44.419|56=NESTFIX|98=0|108=60|10=124|8=FIX.4.2|9=122|35=D|34=2|49=RAFATEST|52=20100326-17:16:50.278|56=NESTFIX|11=IAA0001|21=1|38=1|40=1|54=1|55=PETR4.SA|60=20100326-14:16:50|10=242|8=FIX.4.2|9=58|35=0|34=3|49=RAFATEST|52=20100326-17:17:50.449|56=NESTFIX|10=088|8=FIX.4.2|9=58|35=0|34=4|49=RAFATEST|52=20100326-17:18:50.479|56=NESTFIX|10=093|8=FIX.4.2|9=58|35=0|34=5|49=RAFATEST|52=20100326-17:19:50.493|56=NESTFIX|10=091|8=FIX.4.2|9=58|35=0|34=6|49=RAFATEST|52=20100326-17:20:50.523|56=NESTFIX|10=078|8=FIX.4.2|9=58|35=0|34=7|49=RAFATEST|52=20100326-17:21:50.554|56=NESTFIX|10=084|8=FIX.4.2|9=58|35=0|34=8|49=RAFATEST|52=20100326-17:22:50.584|56=NESTFIX|10=089|8=FIX.4.2|9=58|35=0|34=9|49=RAFATEST|52=20100326-17:23:50.614|56=NESTFIX|10=085|8=FIX.4.2|9=59|35=0|34=10|49=RAFATEST|52=20100326-17:24:50.644|56=NESTFIX|10=130|8=FIX.4.2|9=59|35=0|34=11|49=RAFATEST|52=20100326-17:25:50.658|56=NESTFIX|10=137|8=FIX.4.2|9=59|35=0|34=12|49=RAFATEST|52=20100326-17:26:50.704|56=NESTFIX|10=131|8=FIX.4.2|9=59|35=0|34=13|49=RAFATEST|52=20100326-17:27:50.750|56=NESTFIX|10=134|8=FIX.4.2|9=59|35=0|34=14|49=RAFATEST|52=20100326-17:28:50.780|56=NESTFIX|10=139|8=FIX.4.2|9=59|35=0|34=15|49=RAFATEST|52=20100326-17:29:50.794|56=NESTFIX|10=146|8=FIX.4.2|9=59|35=0|34=16|49=RAFATEST|52=20100326-17:30:50.824|56=NESTFIX|10=133|8=FIX.4.2|9=123|35=D|34=17|49=RAFATEST|52=20100326-17:31:16.918|56=NESTFIX|11=IAA0002|21=1|38=1|40=1|54=1|55=VALE5.SA|60=20100326-14:31:16|10=023|8=FIX.4.2|9=59|35=0|34=18|49=RAFATEST|52=20100326-17:32:16.854|56=NESTFIX|10=142|8=FIX.4.2|9=68|35=0|34=19|49=RAFATEST|52=20100326-17:32:35.979|56=NESTFIX|112=TEST|10=170|8=FIX.4.2|9=71|35=A|34=20|49=RAFATEST|52=20100326-17:32:45.885|56=NESTFIX|98=0|108=60|10=180|8=FIX.4.2|9=123|35=D|34=21|49=RAFATEST|52=20100326-17:32:59.775|56=NESTFIX|11=IAA0003|21=1|38=1|40=1|54=1|55=VALE5.SA|60=20100326-14:32:59|10=036|8=FIX.4.2|9=59|35=0|34=22|49=RAFATEST|52=20100326-17:33:59.915|56=NESTFIX|10=143|8=FIX.4.2|9=59|35=0|34=23|49=RAFATEST|52=20100326-17:34:59.945|56=NESTFIX|10=148|8=FIX.4.2|9=71|35=A|34=24|49=RAFATEST|52=20100326-17:35:53.147|56=NESTFIX|98=0|108=60|10=177|8=FIX.4.2|9=123|35=D|34=25|49=RAFATEST|52=20100326-17:36:31.802|56=NESTFIX|11=IAA0004|21=1|38=1|40=1|54=1|55=PETR4.SA|60=20100326-14:36:31|10=038|8=FIX.4.2|9=121|35=D|34=26|49=RAFATEST|52=20100326-17:36:47.974|56=NESTFIX|11=IAA0005|21=1|38=1|40=1|54=1|55=2DIJF1|60=20100326-14:36:47|10=141|8=FIX.4.2|9=59|35=0|34=27|49=RAFATEST|52=20100326-17:37:47.379|56=NESTFIX|10=153|8=FIX.4.2|9=118|35=D|34=28|49=RAFATEST|52=20100326-17:38:43.175|56=NESTFIX|11=IAA0006|21=1|38=1|40=1|54=1|55=XLK|60=20100326-14:38:43|10=250|