8=FIX.4.2|9=65|35=A|34=1|49=QUANT|52=20100311-16:02:27.698|56=NESTI|98=0|108=60|10=015|8=FIX.4.2|9=75|35=0|34=2|49=QUANT|52=20100311-16:02:27.823|56=NESTI|112=1268323335.595986|10=040|8=FIX.4.2|9=124|35=D|34=3|49=QUANT|52=20100311-16:02:34.573|56=NESTI|11=IAA0001|21=1|38=10|40=1|50=UA|54=1|55=PETR4.SA|60=20100311-13:02:34|10=217|8=FIX.4.2|9=53|35=0|34=4|49=QUANT|52=20100311-16:03:34.713|56=NESTI|10=213|8=FIX.4.2|9=53|35=0|34=5|49=QUANT|52=20100311-16:04:34.743|56=NESTI|10=218|8=FIX.4.2|9=124|35=D|34=6|49=QUANT|52=20100311-16:05:13.054|56=NESTI|11=IAA0002|21=1|38=10|40=1|50=UA|54=1|55=VALE5.SA|60=20100311-13:05:13|10=197|8=FIX.4.2|9=53|35=0|34=7|49=QUANT|52=20100311-16:06:13.788|56=NESTI|10=228|8=FIX.4.2|9=123|35=D|34=8|49=QUANT|52=20100311-16:06:27.194|56=NESTI|11=IAA0003|21=1|38=5|40=1|50=UA|54=1|55=VALE5.SA|60=20100311-13:06:27|10=172|8=FIX.4.2|9=123|35=D|34=9|49=QUANT|52=20100311-16:07:16.115|56=NESTI|11=IAA0004|21=1|38=5|40=1|50=UA|54=1|55=VALE5.SA|60=20100311-13:07:16|10=165|8=FIX.4.2|9=126|35=F|34=10|49=QUANT|52=20100311-16:07:42.411|56=NESTI|11=IAA0005|38=10|41=IAA0002|50=UA|54=1|55=VALE5.SA|60=20100311-13:07:42|10=135|8=FIX.4.2|9=125|35=F|34=11|49=QUANT|52=20100311-16:07:42.411|56=NESTI|11=IAA0006|38=5|41=IAA0003|50=UA|54=1|55=VALE5.SA|60=20100311-13:07:42|10=093|8=FIX.4.2|9=125|35=F|34=12|49=QUANT|52=20100311-16:07:42.411|56=NESTI|11=IAA0007|38=5|41=IAA0004|50=UA|54=1|55=VALE5.SA|60=20100311-13:07:42|10=096|8=FIX.4.2|9=126|35=F|34=13|49=QUANT|52=20100311-16:07:51.348|56=NESTI|11=IAA0008|38=10|41=IAA0001|50=UA|54=1|55=PETR4.SA|60=20100311-13:07:51|10=167|8=FIX.4.2|9=126|35=F|34=14|49=QUANT|52=20100311-16:08:11.926|56=NESTI|11=IAA0009|38=10|41=IAA0001|50=UA|54=1|55=PETR4.SA|60=20100311-13:08:11|10=165|8=FIX.4.2|9=54|35=0|34=15|49=QUANT|52=20100311-16:09:11.894|56=NESTI|10=019|8=FIX.4.2|9=54|35=5|34=16|49=QUANT|52=20100311-16:09:14.894|56=NESTI|10=028|8=FIX.4.2|9=66|35=A|34=17|49=QUANT|52=20100311-18:27:52.967|56=NESTI|98=0|108=60|10=077|8=FIX.4.2|9=76|35=0|34=18|49=QUANT|52=20100311-18:27:53.249|56=NESTI|112=1268332059.721615|10=089|8=FIX.4.2|9=125|35=D|34=19|49=QUANT|52=20100311-18:28:06.748|56=NESTI|11=IAA0008|21=1|38=10|40=1|50=UA|54=1|55=PETR4.SA|60=20100311-15:28:06|10=046|8=FIX.4.2|9=125|35=D|34=20|49=QUANT|52=20100311-18:28:39.295|56=NESTI|11=IAA0011|21=1|38=10|40=1|50=UA|54=1|55=PETR4.SA|60=20100311-15:28:39|10=041|8=FIX.4.2|9=54|35=0|34=21|49=QUANT|52=20100311-18:29:39.028|56=NESTI|10=019|8=FIX.4.2|9=54|35=0|34=22|49=QUANT|52=20100311-18:30:39.058|56=NESTI|10=015|8=FIX.4.2|9=54|35=0|34=23|49=QUANT|52=20100311-18:31:39.088|56=NESTI|10=020|8=FIX.4.2|9=54|35=0|34=24|49=QUANT|52=20100311-18:32:39.118|56=NESTI|10=016|8=FIX.4.2|9=54|35=0|34=25|49=QUANT|52=20100311-18:33:39.148|56=NESTI|10=021|8=FIX.4.2|9=125|35=D|34=26|49=QUANT|52=20100311-18:34:24.007|56=NESTI|11=IAA0012|21=1|38=10|40=1|50=UA|54=1|55=VALE5.SA|60=20100311-15:34:24|10=003|8=FIX.4.2|9=54|35=0|34=27|49=QUANT|52=20100311-18:35:24.193|56=NESTI|10=019|8=FIX.4.2|9=54|35=0|34=28|49=QUANT|52=20100311-18:36:24.223|56=NESTI|10=015|8=FIX.4.2|9=54|35=0|34=29|49=QUANT|52=20100311-18:37:24.253|56=NESTI|10=020|8=FIX.4.2|9=54|35=0|34=30|49=QUANT|52=20100311-18:38:24.268|56=NESTI|10=019|8=FIX.4.2|9=125|35=D|34=31|49=QUANT|52=20100311-18:39:13.142|56=NESTI|11=IAA0013|21=1|38=10|40=1|50=UA|54=1|55=VALE5.SA|60=20100311-15:39:13|10=006|8=FIX.4.2|9=54|35=0|34=32|49=QUANT|52=20100311-18:40:13.375|56=NESTI|10=011|8=FIX.4.2|9=54|35=0|34=33|49=QUANT|52=20100311-18:41:13.405|56=NESTI|10=007|8=FIX.4.2|9=54|35=0|34=34|49=QUANT|52=20100311-18:42:13.435|56=NESTI|10=012|8=FIX.4.2|9=125|35=D|34=35|49=QUANT|52=20100311-18:43:06.981|56=NESTI|11=IAA0014|21=1|38=10|40=1|50=UA|54=1|55=VALE5.SA|60=20100311-15:43:06|10=016|8=FIX.4.2|9=54|35=0|34=36|49=QUANT|52=20100311-18:44:06.480|56=NESTI|10=018|8=FIX.4.2|9=54|35=0|34=37|49=QUANT|52=20100311-18:45:06.541|56=NESTI|10=018|8=FIX.4.2|9=125|35=D|34=38|49=QUANT|52=20100311-18:45:15.135|56=NESTI|11=IAA0015|21=1|38=10|40=1|50=UA|54=1|55=VALE5.SA|60=20100311-15:45:15|10=015|8=FIX.4.2|9=125|35=D|34=39|49=QUANT|52=20100311-18:45:40.009|56=NESTI|11=IAA0016|21=1|38=10|40=1|50=UA|54=1|55=VALE5.SA|60=20100311-15:45:40|10=013|8=FIX.4.2|9=54|35=0|34=40|49=QUANT|52=20100311-18:46:40.602|56=NESTI|10=009|8=FIX.4.2|9=124|35=D|34=41|49=QUANT|52=20100311-18:46:43.274|56=NESTI|11=IAA0017|21=1|38=1|40=1|50=UA|54=1|55=VALE5.SA|60=20100311-15:46:43|10=226|8=FIX.4.2|9=54|35=0|34=42|49=QUANT|52=20100311-18:47:43.632|56=NESTI|10=018|8=FIX.4.2|9=54|35=0|34=43|49=QUANT|52=20100311-18:48:43.662|56=NESTI|10=023|8=FIX.4.2|9=54|35=0|34=44|49=QUANT|52=20100311-18:49:43.661|56=NESTI|10=024|8=FIX.4.2|9=54|35=0|34=45|49=QUANT|52=20100311-18:50:43.722|56=NESTI|10=015|8=FIX.4.2|9=54|35=0|34=46|49=QUANT|52=20100311-18:51:43.737|56=NESTI|10=023|8=FIX.4.2|9=54|35=0|34=47|49=QUANT|52=20100311-18:52:43.767|56=NESTI|10=028|8=FIX.4.2|9=54|35=0|34=48|49=QUANT|52=20100311-18:53:43.797|56=NESTI|10=033|8=FIX.4.2|9=54|35=0|34=49|49=QUANT|52=20100311-18:54:43.827|56=NESTI|10=029|8=FIX.4.2|9=54|35=0|34=50|49=QUANT|52=20100311-18:55:43.857|56=NESTI|10=025|8=FIX.4.2|9=54|35=0|34=51|49=QUANT|52=20100311-18:56:43.887|56=NESTI|10=030|8=FIX.4.2|9=54|35=0|34=52|49=QUANT|52=20100311-18:57:43.902|56=NESTI|10=020|8=FIX.4.2|9=54|35=0|34=53|49=QUANT|52=20100311-18:58:43.963|56=NESTI|10=029|8=FIX.4.2|9=54|35=0|34=54|49=QUANT|52=20100311-18:59:43.993|56=NESTI|10=034|8=FIX.4.2|9=54|35=0|34=55|49=QUANT|52=20100311-19:00:43.023|56=NESTI|10=006|8=FIX.4.2|9=54|35=0|34=56|49=QUANT|52=20100311-19:01:43.038|56=NESTI|10=014|8=FIX.4.2|9=54|35=0|34=57|49=QUANT|52=20100311-19:02:43.099|56=NESTI|10=023|8=FIX.4.2|9=54|35=0|34=58|49=QUANT|52=20100311-19:03:43.129|56=NESTI|10=019|8=FIX.4.2|9=54|35=0|34=59|49=QUANT|52=20100311-19:04:43.159|56=NESTI|10=024|8=FIX.4.2|9=54|35=0|34=60|49=QUANT|52=20100311-19:05:43.174|56=NESTI|10=014|8=FIX.4.2|9=54|35=0|34=61|49=QUANT|52=20100311-19:06:43.204|56=NESTI|10=010|8=FIX.4.2|9=54|35=0|34=62|49=QUANT|52=20100311-19:07:43.265|56=NESTI|10=019|8=FIX.4.2|9=54|35=0|34=63|49=QUANT|52=20100311-19:08:43.295|56=NESTI|10=024|8=FIX.4.2|9=54|35=0|34=64|49=QUANT|52=20100311-19:09:43.310|56=NESTI|10=014|8=FIX.4.2|9=54|35=0|34=65|49=QUANT|52=20100311-19:10:43.340|56=NESTI|10=010|8=FIX.4.2|9=54|35=0|34=66|49=QUANT|52=20100311-19:11:43.370|56=NESTI|10=015|8=FIX.4.2|9=54|35=0|34=67|49=QUANT|52=20100311-19:12:43.431|56=NESTI|10=015|8=FIX.4.2|9=54|35=0|34=68|49=QUANT|52=20100311-19:13:43.446|56=NESTI|10=023|8=FIX.4.2|9=54|35=0|34=69|49=QUANT|52=20100311-19:14:43.476|56=NESTI|10=028|8=FIX.4.2|9=54|35=0|34=70|49=QUANT|52=20100311-19:15:43.506|56=NESTI|10=015|8=FIX.4.2|9=54|35=0|34=71|49=QUANT|52=20100311-19:16:43.536|56=NESTI|10=020|8=FIX.4.2|9=54|35=0|34=72|49=QUANT|52=20100311-19:17:43.582|56=NESTI|10=023|8=FIX.4.2|9=54|35=0|34=73|49=QUANT|52=20100311-19:18:43.612|56=NESTI|10=019|8=FIX.4.2|9=54|35=0|34=74|49=QUANT|52=20100311-19:19:43.642|56=NESTI|10=024|8=FIX.4.2|9=54|35=0|34=75|49=QUANT|52=20100311-19:20:43.672|56=NESTI|10=020|8=FIX.4.2|9=54|35=0|34=76|49=QUANT|52=20100311-19:21:43.718|56=NESTI|10=023|8=FIX.4.2|9=54|35=0|34=77|49=QUANT|52=20100311-19:22:43.748|56=NESTI|10=028|8=FIX.4.2|9=54|35=0|34=78|49=QUANT|52=20100311-19:23:43.778|56=NESTI|10=033|8=FIX.4.2|9=54|35=0|34=79|49=QUANT|52=20100311-19:24:43.808|56=NESTI|10=029|8=FIX.4.2|9=54|35=0|34=80|49=QUANT|52=20100311-19:25:43.838|56=NESTI|10=025|8=FIX.4.2|9=54|35=0|34=81|49=QUANT|52=20100311-19:26:43.884|56=NESTI|10=028|8=FIX.4.2|9=54|35=0|34=82|49=QUANT|52=20100311-19:27:43.914|56=NESTI|10=024|8=FIX.4.2|9=54|35=0|34=83|49=QUANT|52=20100311-19:28:43.944|56=NESTI|10=029|8=FIX.4.2|9=54|35=0|34=84|49=QUANT|52=20100311-19:29:43.974|56=NESTI|10=034|8=FIX.4.2|9=54|35=0|34=85|49=QUANT|52=20100311-19:30:43.004|56=NESTI|10=011|8=FIX.4.2|9=54|35=0|34=86|49=QUANT|52=20100311-19:31:43.050|56=NESTI|10=014|8=FIX.4.2|9=54|35=0|34=87|49=QUANT|52=20100311-19:32:43.080|56=NESTI|10=019|8=FIX.4.2|9=54|35=0|34=88|49=QUANT|52=20100311-19:33:43.110|56=NESTI|10=015|8=FIX.4.2|9=54|35=0|34=89|49=QUANT|52=20100311-19:34:43.140|56=NESTI|10=020|8=FIX.4.2|9=54|35=0|34=90|49=QUANT|52=20100311-19:35:43.170|56=NESTI|10=016|8=FIX.4.2|9=124|35=D|34=91|49=QUANT|52=20100311-19:35:48.998|56=NESTI|11=IAA0018|21=1|38=1|40=1|50=UA|54=2|55=VALE5.SA|60=20100311-16:35:48|10=254|8=FIX.4.2|9=124|35=D|34=92|49=QUANT|52=20100311-19:36:21.998|56=NESTI|11=IAA0019|21=1|38=1|40=1|50=UA|54=2|55=VALE5.SA|60=20100311-16:36:21|10=240|8=FIX.4.2|9=124|35=D|34=93|49=QUANT|52=20100311-19:36:48.544|56=NESTI|11=IAA0020|21=1|38=1|40=1|50=UA|54=2|55=VALE5.SA|60=20100311-16:36:48|10=238|8=FIX.4.2|9=54|35=0|34=94|49=QUANT|52=20100311-19:37:48.246|56=NESTI|10=031|8=FIX.4.2|9=54|35=0|34=95|49=QUANT|52=20100311-19:38:48.292|56=NESTI|10=034|8=FIX.4.2|9=54|35=0|34=96|49=QUANT|52=20100311-19:39:48.322|56=NESTI|10=030|8=FIX.4.2|9=54|35=0|34=97|49=QUANT|52=20100311-19:40:48.352|56=NESTI|10=026|8=FIX.4.2|9=54|35=0|34=98|49=QUANT|52=20100311-19:41:48.382|56=NESTI|10=031|8=FIX.4.2|9=54|35=0|34=99|49=QUANT|52=20100311-19:42:48.412|56=NESTI|10=027|8=FIX.4.2|9=55|35=0|34=100|49=QUANT|52=20100311-19:43:48.458|56=NESTI|10=070|8=FIX.4.2|9=55|35=0|34=101|49=QUANT|52=20100311-19:44:48.488|56=NESTI|10=075|8=FIX.4.2|9=55|35=0|34=102|49=QUANT|52=20100311-19:45:48.518|56=NESTI|10=071|8=FIX.4.2|9=55|35=0|34=103|49=QUANT|52=20100311-19:46:48.548|56=NESTI|10=076|8=FIX.4.2|9=127|35=F|34=104|49=QUANT|52=20100311-19:46:53.439|56=NESTI|11=IAA0021|38=10|41=IAA0012|50=UA|54=1|55=VALE5.SA|60=20100311-16:46:53|10=213|8=FIX.4.2|9=55|35=0|34=105|49=QUANT|52=20100311-19:47:53.625|56=NESTI|10=071|8=FIX.4.2|9=55|35=0|34=106|49=QUANT|52=20100311-19:48:53.655|56=NESTI|10=076|8=FIX.4.2|9=127|35=F|34=107|49=QUANT|52=20100311-19:49:27.186|56=NESTI|11=IAA0022|38=10|41=IAA0011|50=UA|54=1|55=PETR4.SA|60=20100311-16:49:27|10=241|8=FIX.4.2|9=127|35=F|34=108|49=QUANT|52=20100311-19:49:45.654|56=NESTI|11=IAA0023|38=10|41=IAA0011|50=UA|54=1|55=PETR4.SA|60=20100311-16:49:45|10=243|8=FIX.4.2|9=125|35=D|34=109|49=QUANT|52=20100311-19:50:19.810|56=NESTI|11=IAA0024|21=1|38=1|40=1|50=UA|54=2|55=PETR4.SA|60=20100311-16:50:19|10=035|8=FIX.4.2|9=55|35=0|34=110|49=QUANT|52=20100311-19:51:19.715|56=NESTI|10=064|8=FIX.4.2|9=55|35=0|34=111|49=QUANT|52=20100311-19:52:19.745|56=NESTI|10=069|8=FIX.4.2|9=55|35=0|34=112|49=QUANT|52=20100311-19:53:19.775|56=NESTI|10=074|8=FIX.4.2|9=55|35=0|34=113|49=QUANT|52=20100311-19:54:19.805|56=NESTI|10=070|8=FIX.4.2|9=55|35=0|34=114|49=QUANT|52=20100311-19:55:19.820|56=NESTI|10=069|8=FIX.4.2|9=125|35=D|34=115|49=QUANT|52=20100311-19:55:25.851|56=NESTI|11=IAA0025|21=1|38=1|40=1|50=UA|54=1|55=PETR4.SA|60=20100311-16:55:25|10=041|8=FIX.4.2|9=125|35=D|34=116|49=QUANT|52=20100311-19:56:17.803|56=NESTI|11=IAA0026|21=1|38=1|40=1|50=UA|54=1|55=PETR4.SA|60=20100311-16:56:17|10=044|8=FIX.4.2|9=127|35=F|34=117|49=QUANT|52=20100311-19:56:33.271|56=NESTI|11=IAA0027|38=10|41=IAA0011|50=UA|54=1|55=PETR4.SA|60=20100311-16:56:33|10=232|8=FIX.4.2|9=126|35=F|34=118|49=QUANT|52=20100311-19:56:33.271|56=NESTI|11=IAA0028|38=1|41=IAA0026|50=UA|54=1|55=PETR4.SA|60=20100311-16:56:33|10=191|8=FIX.4.2|9=125|35=D|34=119|49=QUANT|52=20100311-19:57:01.287|56=NESTI|11=IAA0029|21=1|38=1|40=1|50=UA|54=1|55=PETR4.SA|60=20100311-16:57:01|10=044|8=FIX.4.2|9=125|35=D|34=120|49=QUANT|52=20100311-19:57:36.020|56=NESTI|11=IAA0030|21=1|38=1|40=1|50=UA|54=1|55=PETR4.SA|60=20100311-16:57:36|10=029|8=FIX.4.2|9=127|35=F|34=121|49=QUANT|52=20100311-19:57:38.692|56=NESTI|11=IAA0031|38=10|41=IAA0011|50=UA|54=1|55=PETR4.SA|60=20100311-16:57:38|10=241|8=FIX.4.2|9=126|35=F|34=122|49=QUANT|52=20100311-19:57:38.692|56=NESTI|11=IAA0032|38=1|41=IAA0026|50=UA|54=1|55=PETR4.SA|60=20100311-16:57:38|10=200|8=FIX.4.2|9=126|35=F|34=123|49=QUANT|52=20100311-19:57:38.692|56=NESTI|11=IAA0033|38=1|41=IAA0030|50=UA|54=1|55=PETR4.SA|60=20100311-16:57:38|10=197|8=FIX.4.2|9=55|35=0|34=124|49=QUANT|52=20100311-19:58:38.988|56=NESTI|10=089|8=FIX.4.2|9=55|35=0|34=125|49=QUANT|52=20100311-19:59:38.018|56=NESTI|10=075|8=FIX.4.2|9=55|35=0|34=126|49=QUANT|52=20100311-20:00:38.048|56=NESTI|10=057|8=FIX.4.2|9=55|35=0|34=127|49=QUANT|52=20100311-20:01:38.078|56=NESTI|10=062|8=FIX.4.2|9=55|35=0|34=128|49=QUANT|52=20100311-20:02:38.108|56=NESTI|10=058|8=FIX.4.2|9=55|35=0|34=129|49=QUANT|52=20100311-20:03:38.138|56=NESTI|10=063|8=FIX.4.2|9=55|35=0|34=130|49=QUANT|52=20100311-20:04:38.153|56=NESTI|10=053|8=FIX.4.2|9=55|35=0|34=131|49=QUANT|52=20100311-20:05:38.214|56=NESTI|10=053|8=FIX.4.2|9=55|35=0|34=132|49=QUANT|52=20100311-20:06:38.244|56=NESTI|10=058|8=FIX.4.2|9=55|35=0|34=133|49=QUANT|52=20100311-20:07:38.274|56=NESTI|10=063|8=FIX.4.2|9=125|35=D|34=134|49=QUANT|52=20100311-20:08:28.180|56=NESTI|11=IAA0034|21=1|38=1|40=1|50=UA|54=1|55=PETR4.SA|60=20100311-17:08:28|10=032|8=FIX.4.2|9=127|35=F|34=135|49=QUANT|52=20100311-20:08:47.351|56=NESTI|11=IAA0035|38=10|41=IAA0011|50=UA|54=1|55=PETR4.SA|60=20100311-17:08:47|10=227|8=FIX.4.2|9=126|35=F|34=136|49=QUANT|52=20100311-20:08:47.351|56=NESTI|11=IAA0036|38=1|41=IAA0026|50=UA|54=1|55=PETR4.SA|60=20100311-17:08:47|10=186|8=FIX.4.2|9=126|35=F|34=137|49=QUANT|52=20100311-20:08:47.351|56=NESTI|11=IAA0037|38=1|41=IAA0030|50=UA|54=1|55=PETR4.SA|60=20100311-17:08:47|10=183|8=FIX.4.2|9=126|35=F|34=138|49=QUANT|52=20100311-20:08:47.351|56=NESTI|11=IAA0038|38=1|41=IAA0034|50=UA|54=1|55=PETR4.SA|60=20100311-17:08:47|10=189|8=FIX.4.2|9=55|35=0|34=139|49=QUANT|52=20100311-20:09:47.334|56=NESTI|10=068|8=FIX.4.2|9=125|35=D|34=140|49=QUANT|52=20100311-20:10:19.818|56=NESTI|11=IAA0039|21=1|38=1|40=1|50=UA|54=2|55=PETR4.SA|60=20100311-17:10:19|10=029|8=FIX.4.2|9=55|35=0|34=141|49=QUANT|52=20100311-20:11:19.395|56=NESTI|10=060|8=FIX.4.2|9=125|35=D|34=142|49=QUANT|52=20100311-20:11:22.973|56=NESTI|11=IAA0040|21=1|38=1|40=1|50=UA|54=2|55=PETR4.SA|60=20100311-17:11:22|10=015|8=FIX.4.2|9=55|35=0|34=143|49=QUANT|52=20100311-20:12:22.441|56=NESTI|10=049|8=FIX.4.2|9=55|35=0|34=144|49=QUANT|52=20100311-20:13:22.471|56=NESTI|10=054|8=FIX.4.2|9=127|35=F|34=145|49=QUANT|52=20100311-20:14:03.283|56=NESTI|11=IAA0041|38=10|41=IAA0011|50=UA|54=1|55=PETR4.SA|60=20100311-17:14:03|10=207|8=FIX.4.2|9=126|35=F|34=146|49=QUANT|52=20100311-20:14:03.283|56=NESTI|11=IAA0042|38=1|41=IAA0026|50=UA|54=1|55=PETR4.SA|60=20100311-17:14:03|10=166|8=FIX.4.2|9=126|35=F|34=147|49=QUANT|52=20100311-20:14:03.283|56=NESTI|11=IAA0043|38=1|41=IAA0030|50=UA|54=1|55=PETR4.SA|60=20100311-17:14:03|10=163|8=FIX.4.2|9=126|35=F|34=148|49=QUANT|52=20100311-20:14:03.283|56=NESTI|11=IAA0044|38=1|41=IAA0040|50=UA|54=2|55=PETR4.SA|60=20100311-17:14:03|10=167|8=FIX.4.2|9=125|35=D|34=149|49=QUANT|52=20100311-20:14:26.501|56=NESTI|11=IAA0045|21=1|38=1|40=1|50=UA|54=2|55=PETR4.SA|60=20100311-17:14:26|10=028|8=FIX.4.2|9=125|35=D|34=150|49=QUANT|52=20100311-20:14:48.329|56=NESTI|11=IAA0046|21=1|38=1|40=1|50=UA|54=1|55=PETR4.SA|60=20100311-17:14:48|10=036|8=FIX.4.2|9=55|35=0|34=151|49=QUANT|52=20100311-20:15:48.593|56=NESTI|10=067|8=FIX.4.2|9=55|35=0|34=152|49=QUANT|52=20100311-20:16:48.623|56=NESTI|10=063|8=FIX.4.2|9=55|35=5|34=153|49=QUANT|52=20100311-20:17:29.622|56=NESTI|10=068|8=FIX.4.2|9=67|35=A|34=154|49=QUANT|52=20100311-20:30:59.935|56=NESTI|98=0|108=60|10=117|8=FIX.4.2|9=77|35=0|34=155|49=QUANT|52=20100311-20:31:00.279|56=NESTI|112=1268339445.846031|10=129|8=FIX.4.2|9=125|35=D|34=156|49=QUANT|52=20100311-20:31:15.981|56=NESTI|11=IAA0031|21=1|38=1|40=1|50=UA|54=1|55=PETR4.SA|60=20100311-17:31:15|10=026|8=FIX.4.2|9=55|35=0|34=157|49=QUANT|52=20100311-20:32:15.949|56=NESTI|10=071|8=FIX.4.2|9=125|35=D|34=158|49=QUANT|52=20100311-20:32:38.074|56=NESTI|11=IAA0041|21=1|38=1|40=1|50=UA|54=1|55=PETR4.SA|60=20100311-17:32:38|10=034|8=FIX.4.2|9=125|35=D|34=159|49=QUANT|52=20100311-20:32:44.964|56=NESTI|11=IAA0051|21=1|38=1|40=1|50=UA|54=1|55=PETR4.SA|60=20100311-17:32:44|10=038|8=FIX.4.2|9=126|35=F|34=160|49=QUANT|52=20100311-20:32:49.964|56=NESTI|11=IAA0052|38=1|41=IAA0051|50=UA|54=1|55=PETR4.SA|60=20100311-17:32:49|10=187|8=FIX.4.2|9=55|35=0|34=161|49=QUANT|52=20100311-20:33:49.994|56=NESTI|10=074|8=FIX.4.2|9=125|35=D|34=162|49=QUANT|52=20100311-20:34:27.650|56=NESTI|11=IAA0053|21=1|38=1|40=1|50=UA|54=1|55=PETR4.SA|60=20100311-17:34:27|10=032|8=FIX.4.2|9=126|35=F|34=163|49=QUANT|52=20100311-20:34:59.462|56=NESTI|11=IAA0054|38=1|41=IAA0053|50=UA|54=1|55=PETR4.SA|60=20100311-17:34:59|10=193|8=FIX.4.2|9=55|35=0|34=164|49=QUANT|52=20100311-20:35:59.085|56=NESTI|10=071|8=FIX.4.2|9=55|35=0|34=165|49=QUANT|52=20100311-20:36:59.115|56=NESTI|10=067|8=FIX.4.2|9=125|35=D|34=166|49=QUANT|52=20100311-20:37:27.615|56=NESTI|11=IAA0055|21=1|38=1|40=1|50=UA|54=1|55=PETR4.SA|60=20100311-17:37:27|10=045|8=FIX.4.2|9=126|35=F|34=167|49=QUANT|52=20100311-20:37:31.537|56=NESTI|11=IAA0056|38=1|41=IAA0055|50=UA|54=1|55=PETR4.SA|60=20100311-17:37:31|10=190|8=FIX.4.2|9=55|35=0|34=168|49=QUANT|52=20100311-20:38:31.176|56=NESTI|10=069|8=FIX.4.2|9=55|35=0|34=169|49=QUANT|52=20100311-20:39:31.206|56=NESTI|10=065|8=FIX.4.2|9=125|35=D|34=170|49=QUANT|52=20100311-20:39:32.269|56=NESTI|11=IAA0057|21=1|38=1|40=1|50=UA|54=1|55=PETR4.SA|60=20100311-17:39:32|10=043|8=FIX.4.2|9=126|35=F|34=171|49=QUANT|52=20100311-20:39:42.394|56=NESTI|11=IAA0058|38=1|41=IAA0057|50=UA|54=1|55=PETR4.SA|60=20100311-17:39:42|10=198|8=FIX.4.2|9=55|35=0|34=172|49=QUANT|52=20100311-20:40:42.236|56=NESTI|10=056|8=FIX.4.2|9=55|35=0|34=173|49=QUANT|52=20100311-20:41:42.266|56=NESTI|10=061|8=FIX.4.2|9=125|35=D|34=174|49=QUANT|52=20100311-20:42:28.047|56=NESTI|11=IAA0059|21=1|38=1|40=1|50=UA|54=1|55=PETR4.SA|60=20100311-17:42:28|10=041|8=FIX.4.2|9=126|35=F|34=175|49=QUANT|52=20100311-20:42:53.062|56=NESTI|11=IAA0060|38=1|41=IAA0059|50=UA|54=1|55=PETR4.SA|60=20100311-17:42:53|10=181|8=FIX.4.2|9=125|35=D|34=176|49=QUANT|52=20100311-20:43:16.593|56=NESTI|11=IAA0061|21=1|38=1|40=1|50=UA|54=1|55=PETR4.SA|60=20100311-17:43:16|10=038|8=FIX.4.2|9=126|35=F|34=177|49=QUANT|52=20100311-20:43:25.436|56=NESTI|11=IAA0062|38=1|41=IAA0061|50=UA|54=1|55=PETR4.SA|60=20100311-17:43:25|10=183|8=FIX.4.2|9=55|35=0|34=178|49=QUANT|52=20100311-20:44:25.373|56=NESTI|10=069|8=FIX.4.2|9=55|35=0|34=179|49=QUANT|52=20100311-20:45:25.387|56=NESTI|10=076|8=FIX.4.2|9=55|35=0|34=180|49=QUANT|52=20100311-20:46:25.448|56=NESTI|10=067|8=FIX.4.2|9=55|35=0|34=181|49=QUANT|52=20100311-20:47:25.478|56=NESTI|10=072|8=FIX.4.2|9=55|35=0|34=182|49=QUANT|52=20100311-20:48:25.493|56=NESTI|10=071|8=FIX.4.2|9=55|35=0|34=183|49=QUANT|52=20100311-20:49:25.523|56=NESTI|10=067|8=FIX.4.2|9=55|35=0|34=184|49=QUANT|52=20100311-20:50:25.553|56=NESTI|10=063|8=FIX.4.2|9=55|35=0|34=185|49=QUANT|52=20100311-20:51:25.614|56=NESTI|10=063|8=FIX.4.2|9=55|35=0|34=186|49=QUANT|52=20100311-20:52:25.629|56=NESTI|10=071|8=FIX.4.2|9=55|35=0|34=187|49=QUANT|52=20100311-20:53:25.659|56=NESTI|10=076|8=FIX.4.2|9=55|35=0|34=188|49=QUANT|52=20100311-20:54:25.689|56=NESTI|10=081|8=FIX.4.2|9=55|35=0|34=189|49=QUANT|52=20100311-20:55:25.719|56=NESTI|10=077|8=FIX.4.2|9=55|35=0|34=190|49=QUANT|52=20100311-20:56:25.749|56=NESTI|10=073|8=FIX.4.2|9=55|35=0|34=191|49=QUANT|52=20100311-20:57:25.779|56=NESTI|10=078|8=FIX.4.2|9=55|35=0|34=192|49=QUANT|52=20100311-20:58:25.810|56=NESTI|10=066|8=FIX.4.2|9=55|35=0|34=193|49=QUANT|52=20100311-20:59:25.824|56=NESTI|10=073|8=FIX.4.2|9=55|35=0|34=194|49=QUANT|52=20100311-21:00:25.854|56=NESTI|10=064|8=FIX.4.2|9=55|35=0|34=195|49=QUANT|52=20100311-21:01:25.884|56=NESTI|10=069|8=FIX.4.2|9=55|35=0|34=196|49=QUANT|52=20100311-21:02:25.914|56=NESTI|10=065|8=FIX.4.2|9=55|35=0|34=197|49=QUANT|52=20100311-21:03:25.944|56=NESTI|10=070|8=FIX.4.2|9=55|35=0|34=198|49=QUANT|52=20100311-21:04:25.974|56=NESTI|10=075|8=FIX.4.2|9=55|35=0|34=199|49=QUANT|52=20100311-21:05:25.989|56=NESTI|10=083|8=FIX.4.2|9=55|35=0|34=200|49=QUANT|52=20100311-21:06:25.019|56=NESTI|10=051|8=FIX.4.2|9=55|35=0|34=201|49=QUANT|52=20100311-21:07:25.049|56=NESTI|10=056|8=FIX.4.2|9=55|35=0|34=202|49=QUANT|52=20100311-21:08:25.079|56=NESTI|10=061|8=FIX.4.2|9=55|35=0|34=203|49=QUANT|52=20100311-21:09:25.109|56=NESTI|10=057|8=FIX.4.2|9=55|35=0|34=204|49=QUANT|52=20100311-21:10:25.139|56=NESTI|10=053|8=FIX.4.2|9=55|35=0|34=205|49=QUANT|52=20100311-21:11:25.154|56=NESTI|10=052|8=FIX.4.2|9=55|35=0|34=206|49=QUANT|52=20100311-21:12:25.184|56=NESTI|10=057|8=FIX.4.2|9=55|35=0|34=207|49=QUANT|52=20100311-21:13:25.214|56=NESTI|10=053|8=FIX.4.2|9=55|35=0|34=208|49=QUANT|52=20100311-21:14:25.244|56=NESTI|10=058|8=FIX.4.2|9=55|35=0|34=209|49=QUANT|52=20100311-21:15:25.290|56=NESTI|10=061|8=FIX.4.2|9=55|35=0|34=210|49=QUANT|52=20100311-21:16:25.320|56=NESTI|10=048|8=FIX.4.2|9=55|35=0|34=211|49=QUANT|52=20100311-21:17:25.350|56=NESTI|10=053|8=FIX.4.2|9=55|35=0|34=212|49=QUANT|52=20100311-21:18:25.380|56=NESTI|10=058|8=FIX.4.2|9=55|35=0|34=213|49=QUANT|52=20100311-21:19:25.410|56=NESTI|10=054|8=FIX.4.2|9=55|35=0|34=214|49=QUANT|52=20100311-21:20:25.440|56=NESTI|10=050|8=FIX.4.2|9=55|35=0|34=215|49=QUANT|52=20100311-21:21:25.471|56=NESTI|10=056|8=FIX.4.2|9=55|35=0|34=216|49=QUANT|52=20100311-21:22:25.501|56=NESTI|10=052|8=FIX.4.2|9=55|35=0|34=217|49=QUANT|52=20100311-21:23:25.531|56=NESTI|10=057|8=FIX.4.2|9=55|35=0|34=218|49=QUANT|52=20100311-21:24:25.561|56=NESTI|10=062|8=FIX.4.2|9=55|35=0|34=219|49=QUANT|52=20100311-21:25:25.591|56=NESTI|10=067|8=FIX.4.2|9=55|35=0|34=220|49=QUANT|52=20100311-21:26:25.637|56=NESTI|10=061|8=FIX.4.2|9=55|35=0|34=221|49=QUANT|52=20100311-21:27:25.667|56=NESTI|10=066|8=FIX.4.2|9=55|35=0|34=222|49=QUANT|52=20100311-21:28:25.697|56=NESTI|10=071|8=FIX.4.2|9=55|35=0|34=223|49=QUANT|52=20100311-21:29:25.727|56=NESTI|10=067|8=FIX.4.2|9=55|35=0|34=224|49=QUANT|52=20100311-21:30:25.726|56=NESTI|10=059|8=FIX.4.2|9=55|35=0|34=225|49=QUANT|52=20100311-21:31:25.787|56=NESTI|10=068|8=FIX.4.2|9=55|35=0|34=226|49=QUANT|52=20100311-21:32:25.817|56=NESTI|10=064|8=FIX.4.2|9=55|35=0|34=227|49=QUANT|52=20100311-21:33:25.847|56=NESTI|10=069|8=FIX.4.2|9=55|35=0|34=228|49=QUANT|52=20100311-21:34:25.877|56=NESTI|10=074|8=FIX.4.2|9=55|35=0|34=229|49=QUANT|52=20100311-21:35:25.908|56=NESTI|10=071|8=FIX.4.2|9=55|35=0|34=230|49=QUANT|52=20100311-21:36:25.922|56=NESTI|10=060|8=FIX.4.2|9=55|35=0|34=231|49=QUANT|52=20100311-21:37:25.983|56=NESTI|10=069|8=FIX.4.2|9=55|35=0|34=232|49=QUANT|52=20100311-21:38:25.013|56=NESTI|10=055|8=FIX.4.2|9=55|35=0|34=233|49=QUANT|52=20100311-21:39:25.028|56=NESTI|10=063|8=FIX.4.2|9=55|35=0|34=234|49=QUANT|52=20100311-21:40:25.089|56=NESTI|10=063|8=FIX.4.2|9=55|35=0|34=235|49=QUANT|52=20100311-21:41:25.135|56=NESTI|10=057|8=FIX.4.2|9=55|35=0|34=236|49=QUANT|52=20100311-21:42:25.212|56=NESTI|10=055|8=FIX.4.2|9=55|35=0|34=237|49=QUANT|52=20100311-21:43:25.273|56=NESTI|10=064|8=FIX.4.2|9=55|35=0|34=238|49=QUANT|52=20100311-21:44:25.303|56=NESTI|10=060|8=FIX.4.2|9=55|35=0|34=239|49=QUANT|52=20100311-21:45:25.334|56=NESTI|10=066|8=FIX.4.2|9=55|35=0|34=240|49=QUANT|52=20100311-21:46:25.348|56=NESTI|10=064|8=FIX.4.2|9=125|35=D|34=241|49=QUANT|52=20100311-21:46:45.582|56=NESTI|11=IAA0063|21=1|38=1|40=1|50=UA|54=1|55=VALE5.SA|60=20100311-18:46:45|10=025|8=FIX.4.2|9=126|35=F|34=242|49=QUANT|52=20100311-21:47:15.597|56=NESTI|11=IAA0064|38=1|41=IAA0063|50=UA|54=1|55=VALE5.SA|60=20100311-18:47:15|10=178|8=FIX.4.2|9=55|35=0|34=243|49=QUANT|52=20100311-21:48:15.408|56=NESTI|10=065|8=FIX.4.2|9=55|35=0|34=244|49=QUANT|52=20100311-21:49:15.438|56=NESTI|10=070|8=FIX.4.2|9=55|35=0|34=245|49=QUANT|52=20100311-21:50:15.453|56=NESTI|10=060|8=FIX.4.2|9=55|35=0|34=246|49=QUANT|52=20100311-21:51:15.483|56=NESTI|10=065|8=FIX.4.2|9=55|35=0|34=247|49=QUANT|52=20100311-21:52:15.513|56=NESTI|10=061|8=FIX.4.2|9=55|35=0|34=248|49=QUANT|52=20100311-21:53:15.543|56=NESTI|10=066|8=FIX.4.2|9=55|35=0|34=249|49=QUANT|52=20100311-21:54:15.573|56=NESTI|10=071|8=FIX.4.2|9=125|35=D|34=250|49=QUANT|52=20100311-21:54:40.776|56=NESTI|11=IAA0065|21=1|38=1|40=1|50=UA|54=1|55=VALE5.SA|60=20100311-18:54:40|10=020|8=FIX.4.2|9=126|35=F|34=251|49=QUANT|52=20100311-21:54:45.854|56=NESTI|11=IAA0066|38=1|41=IAA0063|50=UA|54=1|55=VALE5.SA|60=20100311-18:54:45|10=178|8=FIX.4.2|9=126|35=F|34=252|49=QUANT|52=20100311-21:54:45.854|56=NESTI|11=IAA0067|38=1|41=IAA0065|50=UA|54=1|55=VALE5.SA|60=20100311-18:54:45|10=182|8=FIX.4.2|9=125|35=D|34=253|49=QUANT|52=20100311-21:55:00.322|56=NESTI|11=IAA0068|21=1|38=1|40=1|50=UA|54=1|55=VALE5.SA|60=20100311-18:55:00|10=007|8=FIX.4.2|9=126|35=F|34=254|49=QUANT|52=20100311-21:55:01.229|56=NESTI|11=IAA0069|38=1|41=IAA0063|50=UA|54=1|55=VALE5.SA|60=20100311-18:55:01|10=166|8=FIX.4.2|9=126|35=F|34=255|49=QUANT|52=20100311-21:55:01.229|56=NESTI|11=IAA0070|38=1|41=IAA0068|50=UA|54=1|55=VALE5.SA|60=20100311-18:55:01|10=164|8=FIX.4.2|9=55|35=0|34=256|49=QUANT|52=20100311-21:56:01.618|56=NESTI|10=066|8=FIX.4.2|9=55|35=0|34=257|49=QUANT|52=20100311-21:57:01.648|56=NESTI|10=071|8=FIX.4.2|9=55|35=0|34=258|49=QUANT|52=20100311-21:58:01.678|56=NESTI|10=076|8=FIX.4.2|9=55|35=0|34=259|49=QUANT|52=20100311-21:59:01.708|56=NESTI|10=072|8=FIX.4.2|9=130|35=D|34=260|49=QUANT|52=20100311-21:59:53.801|56=NESTI|11=IAA0071|21=1|38=1|40=2|44=5|50=UA|54=1|55=VALE5.SA|60=20100311-18:59:53|10=241|8=FIX.4.2|9=55|35=0|34=261|49=QUANT|52=20100311-22:00:53.753|56=NESTI|10=059|8=FIX.4.2|9=55|35=0|34=262|49=QUANT|52=20100311-22:01:53.783|56=NESTI|10=064|8=FIX.4.2|9=55|35=0|34=263|49=QUANT|52=20100311-22:02:53.813|56=NESTI|10=060|8=FIX.4.2|9=125|35=D|34=264|49=QUANT|52=20100311-22:03:15.516|56=NESTI|11=IAA0072|21=1|38=1|40=1|50=UA|54=1|55=VALE5.SA|60=20100311-19:03:15|10=009|8=FIX.4.2|9=130|35=D|34=265|49=QUANT|52=20100311-22:03:29.531|56=NESTI|11=IAA0073|21=1|38=1|40=2|44=5|50=UA|54=1|55=VALE5.SA|60=20100311-19:03:29|10=234|8=FIX.4.2|9=55|35=0|34=266|49=QUANT|52=20100311-22:04:29.858|56=NESTI|10=077|8=FIX.4.2|9=55|35=0|34=267|49=QUANT|52=20100311-22:05:29.889|56=NESTI|10=083|8=FIX.4.2|9=55|35=0|34=268|49=QUANT|52=20100311-22:06:29.903|56=NESTI|10=072|8=FIX.4.2|9=55|35=0|34=269|49=QUANT|52=20100311-22:07:29.933|56=NESTI|10=077|8=FIX.4.2|9=55|35=0|34=270|49=QUANT|52=20100311-22:08:29.963|56=NESTI|10=073|8=FIX.4.2|9=55|35=0|34=271|49=QUANT|52=20100311-22:09:29.993|56=NESTI|10=078|8=FIX.4.2|9=55|35=0|34=272|49=QUANT|52=20100311-22:10:29.023|56=NESTI|10=055|8=FIX.4.2|9=55|35=0|34=273|49=QUANT|52=20100311-22:11:29.053|56=NESTI|10=060|8=FIX.4.2|9=55|35=0|34=274|49=QUANT|52=20100311-22:12:29.068|56=NESTI|10=068|8=FIX.4.2|9=55|35=0|34=275|49=QUANT|52=20100311-22:13:29.098|56=NESTI|10=073|8=FIX.4.2|9=55|35=0|34=276|49=QUANT|52=20100311-22:14:29.128|56=NESTI|10=069|8=FIX.4.2|9=55|35=0|34=277|49=QUANT|52=20100311-22:15:29.158|56=NESTI|10=074|8=FIX.4.2|9=55|35=0|34=278|49=QUANT|52=20100311-22:16:29.188|56=NESTI|10=079|8=FIX.4.2|9=55|35=0|34=279|49=QUANT|52=20100311-22:17:29.218|56=NESTI|10=075|8=FIX.4.2|9=55|35=0|34=280|49=QUANT|52=20100311-22:18:29.249|56=NESTI|10=072|8=FIX.4.2|9=55|35=0|34=281|49=QUANT|52=20100311-22:19:29.263|56=NESTI|10=070|8=FIX.4.2|9=126|35=F|34=282|49=QUANT|52=20100311-22:19:37.325|56=NESTI|11=IAA0074|38=1|41=IAA0063|50=UA|54=1|55=VALE5.SA|60=20100311-19:19:37|10=180|8=FIX.4.2|9=126|35=F|34=283|49=QUANT|52=20100311-22:19:37.325|56=NESTI|11=IAA0075|38=1|41=IAA0071|50=UA|54=1|55=VALE5.SA|60=20100311-19:19:37|10=181|8=FIX.4.2|9=126|35=F|34=284|49=QUANT|52=20100311-22:19:37.325|56=NESTI|11=IAA0076|38=1|41=IAA0073|50=UA|54=1|55=VALE5.SA|60=20100311-19:19:37|10=185|