8=FIX.4.2|9=68|35=A|34=1|49=QUANT1|52=20100315-13:42:01.836|56=NESTFIX|98=0|108=60|10=216|8=FIX.4.2|9=126|35=D|34=2|49=QUANT1|52=20100315-13:42:45.008|56=NESTFIX|11=IAA0001|21=1|38=1|40=1|50=UA|54=1|55=PETR4.SA|60=20100315-10:42:45|10=128|8=FIX.4.2|9=65|35=0|34=3|49=QUANT1|52=20100315-13:43:13.320|56=NESTFIX|112=TEST|10=180|8=FIX.4.2|9=56|35=5|34=4|49=QUANT1|52=20100315-13:43:32.866|56=NESTFIX|10=184|8=FIX.4.2|9=68|35=A|34=5|49=QUANT1|52=20100315-13:46:31.442|56=NESTFIX|98=0|108=60|10=220|8=FIX.4.2|9=126|35=D|34=6|49=QUANT1|52=20100315-13:46:36.692|56=NESTFIX|11=IAA0001|21=1|38=1|40=1|50=UA|54=1|55=PETR4.SA|60=20100315-10:46:36|10=149|8=FIX.4.2|9=56|35=5|34=7|49=QUANT1|52=20100315-13:47:00.442|56=NESTFIX|10=176|8=FIX.4.2|9=68|35=A|34=8|49=QUANT1|52=20100315-13:47:26.551|56=NESTFIX|98=0|108=60|10=229|8=FIX.4.2|9=120|35=D|34=9|49=QUANT1|52=20100315-13:47:28.895|56=NESTFIX|11=IAA0001|21=1|38=1|40=1|54=1|55=PETR4.SA|60=20100315-10:47:28|10=098|8=FIX.4.2|9=69|35=A|34=10|49=QUANT1|52=20100315-13:50:17.502|56=NESTFIX|98=0|108=60|10=005|8=FIX.4.2|9=121|35=D|34=11|49=QUANT1|52=20100315-13:50:19.783|56=NESTFIX|11=IAA0001|21=1|38=1|40=1|54=1|55=PETR4.SA|60=20100315-10:50:19|10=124|8=FIX.4.2|9=69|35=A|34=12|49=QUANT1|52=20100315-14:18:45.277|56=NESTFIX|98=0|108=60|10=022|8=FIX.4.2|9=126|35=D|34=13|49=QUANT1|52=20100315-14:19:01.308|56=NESTFIX|11=IAA0001|21=1|38=1|40=2|44=1|54=1|55=PETR4.SA|60=20100315-11:19:01|10=078|8=FIX.4.2|9=66|35=1|34=14|49=QUANT1|52=20100315-14:19:57.276|56=NESTFIX|112=TEST|10=254|8=FIX.4.2|9=57|35=0|34=15|49=QUANT1|52=20100315-14:20:57.291|56=NESTFIX|10=225|8=FIX.4.2|9=66|35=1|34=16|49=QUANT1|52=20100315-14:21:31.306|56=NESTFIX|112=TEST|10=235|8=FIX.4.2|9=69|35=A|34=17|49=QUANT1|52=20100315-14:22:46.321|56=NESTFIX|98=0|108=60|10=013|8=FIX.4.2|9=69|35=A|34=18|49=QUANT1|52=20100315-14:23:16.336|56=NESTFIX|98=0|108=60|10=018|8=FIX.4.2|9=69|35=A|34=19|49=QUANT1|52=20100315-14:23:46.335|56=NESTFIX|98=0|108=60|10=021|8=FIX.4.2|9=69|35=A|34=20|49=QUANT1|52=20100315-14:24:16.351|56=NESTFIX|98=0|108=60|10=009|8=FIX.4.2|9=69|35=A|34=21|49=QUANT1|52=20100315-14:24:46.366|56=NESTFIX|98=0|108=60|10=019|8=FIX.4.2|9=69|35=A|34=22|49=QUANT1|52=20100315-14:25:16.366|56=NESTFIX|98=0|108=60|10=018|8=FIX.4.2|9=67|35=2|34=23|49=QUANT1|52=20100315-14:25:17.756|56=NESTFIX|7=13|16=0|10=152|8=FIX.4.2|9=69|35=A|34=24|49=QUANT1|52=20100315-14:28:06.160|56=NESTFIX|98=0|108=60|10=014|8=FIX.4.2|9=67|35=2|34=25|49=QUANT1|52=20100315-14:28:06.192|56=NESTFIX|7=22|16=0|10=149|8=FIX.4.2|9=121|35=D|34=26|49=QUANT1|52=20100315-14:28:30.394|56=NESTFIX|11=IAA0002|21=1|38=1|40=1|54=1|55=PETR4.SA|60=20100315-11:28:30|10=127|8=FIX.4.2|9=122|35=F|34=27|49=QUANT1|52=20100315-14:28:55.253|56=NESTFIX|11=IAA0003|38=1|41=IAA0002|54=1|55=PETR4.SA|60=20100315-11:28:55|10=023|8=FIX.4.2|9=57|35=0|34=28|49=QUANT1|52=20100315-14:29:55.190|56=NESTFIX|10=234|8=FIX.4.2|9=66|35=1|34=29|49=QUANT1|52=20100315-14:30:00.190|56=NESTFIX|112=TEST|10=236|8=FIX.4.2|9=66|35=0|34=30|49=QUANT1|52=20100315-14:30:31.330|56=NESTFIX|112=TEST|10=227|8=FIX.4.2|9=57|35=0|34=31|49=QUANT1|52=20100315-14:31:31.220|56=NESTFIX|10=209|8=FIX.4.2|9=57|35=0|34=32|49=QUANT1|52=20100315-14:32:31.266|56=NESTFIX|10=221|8=FIX.4.2|9=121|35=D|34=33|49=QUANT1|52=20100315-14:33:15.750|56=NESTFIX|11=IAA0004|21=1|38=1|40=1|54=1|55=VALE5.SA|60=20100315-11:33:15|10=103|8=FIX.4.2|9=121|35=D|34=34|49=QUANT1|52=20100315-14:33:38.531|56=NESTFIX|11=IAA0005|21=1|38=5|40=1|54=1|55=VALE5.SA|60=20100315-11:33:38|10=116|8=FIX.4.2|9=126|35=D|34=35|49=QUANT1|52=20100315-14:34:01.093|56=NESTFIX|11=IAA0006|21=1|38=5|40=2|44=1|54=1|55=VALE5.SA|60=20100315-11:34:01|10=068|8=FIX.4.2|9=122|35=F|34=36|49=QUANT1|52=20100315-14:34:04.828|56=NESTFIX|11=IAA0007|38=5|41=IAA0006|54=1|55=VALE5.SA|60=20100315-11:34:04|10=007|8=FIX.4.2|9=57|35=0|34=37|49=QUANT1|52=20100315-14:35:04.311|56=NESTFIX|10=220|8=FIX.4.2|9=57|35=5|34=38|49=QUANT1|52=20100315-14:35:08.311|56=NESTFIX|10=230|8=FIX.4.2|9=69|35=A|34=39|49=QUANT1|52=20100315-16:12:27.971|56=NESTFIX|98=0|108=60|10=028|8=FIX.4.2|9=121|35=D|34=40|49=QUANT1|52=20100315-16:12:31.424|56=NESTFIX|11=IAA0001|21=1|38=1|40=1|54=1|55=PETR4.SA|60=20100315-13:12:31|10=108|8=FIX.4.2|9=57|35=0|34=41|49=QUANT1|52=20100315-16:13:31.986|56=NESTFIX|10=231|8=FIX.4.2|9=66|35=1|34=42|49=QUANT1|52=20100315-16:13:40.985|56=NESTFIX|112=TEST|10=250|8=FIX.4.2|9=66|35=0|34=43|49=QUANT1|52=20100315-16:13:50.548|56=NESTFIX|112=TEST|10=246|8=FIX.4.2|9=57|35=5|34=44|49=QUANT1|52=20100315-16:14:46.016|56=NESTFIX|10=230|8=FIX.4.2|9=69|35=A|34=45|49=QUANT1|52=20100315-16:16:02.515|56=NESTFIX|98=0|108=60|10=016|8=FIX.4.2|9=121|35=D|34=46|49=QUANT1|52=20100315-16:16:11.609|56=NESTFIX|11=IAA0001|21=1|38=1|40=1|54=1|55=PETR4.SA|60=20100315-13:16:11|10=123|8=FIX.4.2|9=69|35=A|34=47|49=QUANT1|52=20100315-16:26:28.866|56=NESTFIX|98=0|108=60|10=036|8=FIX.4.2|9=67|35=2|34=48|49=QUANT1|52=20100315-16:26:28.913|56=NESTFIX|7=49|16=0|10=168|8=FIX.4.2|9=121|35=D|34=49|49=QUANT1|52=20100315-16:26:37.710|56=NESTFIX|11=IAA0001|21=1|38=1|40=1|54=1|55=ARCZ6.SA|60=20100315-13:26:37|10=128|8=FIX.4.2|9=121|35=D|34=50|49=QUANT1|52=20100315-16:27:22.569|56=NESTFIX|11=IAA0002|21=1|38=1|40=1|54=1|55=PETR4.SA|60=20100315-13:27:22|10=132|8=FIX.4.2|9=121|35=D|34=51|49=QUANT1|52=20100315-16:27:46.397|56=NESTFIX|11=IAA0003|21=1|38=1|40=1|54=1|55=LAME3.SA|60=20100315-13:27:46|10=116|8=FIX.4.2|9=57|35=0|34=52|49=QUANT1|52=20100315-16:28:46.771|56=NESTFIX|10=237|8=FIX.4.2|9=57|35=5|34=53|49=QUANT1|52=20100315-16:28:51.911|56=NESTFIX|10=235|8=FIX.4.2|9=69|35=A|34=54|49=QUANT1|52=20100315-16:29:58.770|56=NESTFIX|98=0|108=60|10=034|8=FIX.4.2|9=121|35=D|34=55|49=QUANT1|52=20100315-16:30:13.035|56=NESTFIX|11=IAA0004|21=1|38=1|40=1|54=1|55=LAME3.SA|60=20100315-13:30:13|10=086|8=FIX.4.2|9=66|35=1|34=56|49=QUANT1|52=20100315-16:31:10.769|56=NESTFIX|112=TEST|10=252|8=FIX.4.2|9=57|35=0|34=57|49=QUANT1|52=20100315-16:32:10.784|56=NESTFIX|10=232|8=FIX.4.2|9=57|35=5|34=58|49=QUANT1|52=20100315-16:32:51.799|56=NESTFIX|10=249|