8=FIX.4.4|9=76|35=A|34=1|49=ATVNEST|52=20120706-11:57:13.712|56=ATVANEST|98=0|108=30|141=Y|10=185|8=FIX.4.4|9=58|35=0|34=2|49=ATVNEST|52=20120706-11:57:43.822|56=ATVANEST|10=104|8=FIX.4.4|9=58|35=0|34=3|49=ATVNEST|52=20120706-11:58:13.822|56=ATVANEST|10=103|8=FIX.4.4|9=58|35=0|34=4|49=ATVNEST|52=20120706-11:58:43.822|56=ATVANEST|10=107|8=FIX.4.4|9=58|35=0|34=5|49=ATVNEST|52=20120706-11:59:13.822|56=ATVANEST|10=106|8=FIX.4.4|9=58|35=0|34=6|49=ATVNEST|52=20120706-11:59:44.681|56=ATVANEST|10=114|8=FIX.4.4|9=58|35=0|34=7|49=ATVNEST|52=20120706-12:00:14.681|56=ATVANEST|10=099|8=FIX.4.4|9=58|35=0|34=8|49=ATVNEST|52=20120706-12:00:44.681|56=ATVANEST|10=103|8=FIX.4.4|9=58|35=0|34=9|49=ATVNEST|52=20120706-12:01:14.697|56=ATVANEST|10=109|8=FIX.4.4|9=59|35=0|34=10|49=ATVNEST|52=20120706-12:01:44.697|56=ATVANEST|10=153|8=FIX.4.4|9=59|35=0|34=11|49=ATVNEST|52=20120706-12:02:14.697|56=ATVANEST|10=152|8=FIX.4.4|9=59|35=0|34=12|49=ATVNEST|52=20120706-12:02:44.697|56=ATVANEST|10=156|8=FIX.4.4|9=59|35=0|34=13|49=ATVNEST|52=20120706-12:03:14.697|56=ATVANEST|10=155|8=FIX.4.4|9=59|35=0|34=14|49=ATVNEST|52=20120706-12:03:44.697|56=ATVANEST|10=159|8=FIX.4.4|9=59|35=0|34=15|49=ATVNEST|52=20120706-12:04:14.697|56=ATVANEST|10=158|8=FIX.4.4|9=59|35=0|34=16|49=ATVNEST|52=20120706-12:04:44.697|56=ATVANEST|10=162|8=FIX.4.4|9=59|35=0|34=17|49=ATVNEST|52=20120706-12:05:14.697|56=ATVANEST|10=161|8=FIX.4.4|9=59|35=0|34=18|49=ATVNEST|52=20120706-12:05:44.697|56=ATVANEST|10=165|8=FIX.4.4|9=59|35=0|34=19|49=ATVNEST|52=20120706-12:06:14.713|56=ATVANEST|10=153|8=FIX.4.4|9=59|35=0|34=20|49=ATVNEST|52=20120706-12:06:45.698|56=ATVANEST|10=161|8=FIX.4.4|9=59|35=0|34=21|49=ATVNEST|52=20120706-12:07:15.698|56=ATVANEST|10=160|8=FIX.4.4|9=59|35=0|34=22|49=ATVNEST|52=20120706-12:07:45.713|56=ATVANEST|10=152|8=FIX.4.4|9=59|35=0|34=23|49=ATVNEST|52=20120706-12:08:16.698|56=ATVANEST|10=164|8=FIX.4.4|9=59|35=0|34=24|49=ATVNEST|52=20120706-12:08:46.698|56=ATVANEST|10=168|8=FIX.4.4|9=59|35=0|34=25|49=ATVNEST|52=20120706-12:09:16.713|56=ATVANEST|10=155|8=FIX.4.4|9=59|35=0|34=26|49=ATVNEST|52=20120706-12:09:46.713|56=ATVANEST|10=159|8=FIX.4.4|9=59|35=0|34=27|49=ATVNEST|52=20120706-12:10:17.713|56=ATVANEST|10=150|8=FIX.4.4|9=59|35=0|34=28|49=ATVNEST|52=20120706-12:10:47.714|56=ATVANEST|10=155|8=FIX.4.4|9=59|35=0|34=29|49=ATVNEST|52=20120706-12:11:17.714|56=ATVANEST|10=154|8=FIX.4.4|9=59|35=0|34=30|49=ATVNEST|52=20120706-12:11:47.714|56=ATVANEST|10=149|8=FIX.4.4|9=59|35=0|34=31|49=ATVNEST|52=20120706-12:12:17.714|56=ATVANEST|10=148|8=FIX.4.4|9=59|35=0|34=32|49=ATVNEST|52=20120706-12:12:47.714|56=ATVANEST|10=152|8=FIX.4.4|9=59|35=0|34=33|49=ATVNEST|52=20120706-12:13:17.714|56=ATVANEST|10=151|8=FIX.4.4|9=59|35=0|34=34|49=ATVNEST|52=20120706-12:13:47.714|56=ATVANEST|10=155|8=FIX.4.4|9=59|35=0|34=35|49=ATVNEST|52=20120706-12:14:17.729|56=ATVANEST|10=160|8=FIX.4.4|9=59|35=0|34=36|49=ATVNEST|52=20120706-12:14:48.714|56=ATVANEST|10=159|8=FIX.4.4|9=59|35=0|34=37|49=ATVNEST|52=20120706-12:15:18.714|56=ATVANEST|10=158|8=FIX.4.4|9=59|35=0|34=38|49=ATVNEST|52=20120706-12:15:48.714|56=ATVANEST|10=162|8=FIX.4.4|9=59|35=0|34=39|49=ATVNEST|52=20120706-12:16:18.714|56=ATVANEST|10=161|8=FIX.4.4|9=59|35=0|34=40|49=ATVNEST|52=20120706-12:16:48.714|56=ATVANEST|10=156|8=FIX.4.4|9=59|35=0|34=41|49=ATVNEST|52=20120706-12:17:18.714|56=ATVANEST|10=155|8=FIX.4.4|9=59|35=0|34=42|49=ATVNEST|52=20120706-12:17:48.714|56=ATVANEST|10=159|8=FIX.4.4|9=59|35=0|34=43|49=ATVNEST|52=20120706-12:18:18.714|56=ATVANEST|10=158|8=FIX.4.4|9=59|35=0|34=44|49=ATVNEST|52=20120706-12:18:48.714|56=ATVANEST|10=162|8=FIX.4.4|9=59|35=0|34=45|49=ATVNEST|52=20120706-12:19:18.714|56=ATVANEST|10=161|8=FIX.4.4|9=59|35=0|34=46|49=ATVNEST|52=20120706-12:19:48.714|56=ATVANEST|10=165|8=FIX.4.4|9=59|35=0|34=47|49=ATVNEST|52=20120706-12:20:18.714|56=ATVANEST|10=155|8=FIX.4.4|9=59|35=0|34=48|49=ATVNEST|52=20120706-12:20:48.714|56=ATVANEST|10=159|8=FIX.4.4|9=59|35=0|34=49|49=ATVNEST|52=20120706-12:21:18.714|56=ATVANEST|10=158|8=FIX.4.4|9=59|35=0|34=50|49=ATVNEST|52=20120706-12:21:48.715|56=ATVANEST|10=154|8=FIX.4.4|9=59|35=0|34=51|49=ATVNEST|52=20120706-12:22:18.730|56=ATVANEST|10=150|8=FIX.4.4|9=59|35=0|34=52|49=ATVNEST|52=20120706-12:22:48.730|56=ATVANEST|10=154|8=FIX.4.4|9=59|35=0|34=53|49=ATVNEST|52=20120706-12:23:18.730|56=ATVANEST|10=153|8=FIX.4.4|9=59|35=0|34=54|49=ATVNEST|52=20120706-12:23:48.730|56=ATVANEST|10=157|8=FIX.4.4|9=59|35=0|34=55|49=ATVNEST|52=20120706-12:24:18.730|56=ATVANEST|10=156|8=FIX.4.4|9=59|35=0|34=56|49=ATVNEST|52=20120706-12:24:48.730|56=ATVANEST|10=160|8=FIX.4.4|9=59|35=0|34=57|49=ATVNEST|52=20120706-12:25:18.730|56=ATVANEST|10=159|8=FIX.4.4|9=59|35=0|34=58|49=ATVNEST|52=20120706-12:25:48.731|56=ATVANEST|10=164|8=FIX.4.4|9=59|35=0|34=59|49=ATVNEST|52=20120706-12:26:18.731|56=ATVANEST|10=163|8=FIX.4.4|9=59|35=0|34=60|49=ATVNEST|52=20120706-12:26:48.731|56=ATVANEST|10=158|8=FIX.4.4|9=59|35=0|34=61|49=ATVNEST|52=20120706-12:27:18.731|56=ATVANEST|10=157|8=FIX.4.4|9=59|35=0|34=62|49=ATVNEST|52=20120706-12:27:48.731|56=ATVANEST|10=161|8=FIX.4.4|9=59|35=0|34=63|49=ATVNEST|52=20120706-12:28:18.731|56=ATVANEST|10=160|8=FIX.4.4|9=59|35=0|34=64|49=ATVNEST|52=20120706-12:28:48.731|56=ATVANEST|10=164|8=FIX.4.4|9=59|35=0|34=65|49=ATVNEST|52=20120706-12:29:18.746|56=ATVANEST|10=169|8=FIX.4.4|9=59|35=0|34=66|49=ATVNEST|52=20120706-12:29:49.778|56=ATVANEST|10=179|8=FIX.4.4|9=59|35=0|34=67|49=ATVNEST|52=20120706-12:30:20.731|56=ATVANEST|10=150|8=FIX.4.4|9=59|35=0|34=68|49=ATVNEST|52=20120706-12:30:50.731|56=ATVANEST|10=154|8=FIX.4.4|9=59|35=0|34=69|49=ATVNEST|52=20120706-12:31:20.731|56=ATVANEST|10=153|8=FIX.4.4|9=59|35=0|34=70|49=ATVNEST|52=20120706-12:31:50.731|56=ATVANEST|10=148|8=FIX.4.4|9=59|35=0|34=71|49=ATVNEST|52=20120706-12:32:20.731|56=ATVANEST|10=147|8=FIX.4.4|9=59|35=0|34=72|49=ATVNEST|52=20120706-12:32:50.747|56=ATVANEST|10=158|8=FIX.4.4|9=59|35=0|34=73|49=ATVNEST|52=20120706-12:33:20.747|56=ATVANEST|10=157|8=FIX.4.4|9=59|35=0|34=74|49=ATVNEST|52=20120706-12:33:50.747|56=ATVANEST|10=161|8=FIX.4.4|9=59|35=0|34=75|49=ATVNEST|52=20120706-12:34:20.747|56=ATVANEST|10=160|8=FIX.4.4|9=59|35=0|34=76|49=ATVNEST|52=20120706-12:34:50.747|56=ATVANEST|10=164|8=FIX.4.4|9=59|35=0|34=77|49=ATVNEST|52=20120706-12:35:20.747|56=ATVANEST|10=163|8=FIX.4.4|9=59|35=0|34=78|49=ATVNEST|52=20120706-12:35:50.747|56=ATVANEST|10=167|8=FIX.4.4|9=59|35=0|34=79|49=ATVNEST|52=20120706-12:36:20.747|56=ATVANEST|10=166|8=FIX.4.4|9=59|35=0|34=80|49=ATVNEST|52=20120706-12:36:50.747|56=ATVANEST|10=161|8=FIX.4.4|9=59|35=5|34=81|49=ATVNEST|52=20120706-12:36:52.747|56=ATVANEST|10=169|