8=FIX.4.2|9=71|35=A|34=1|49=ATVNEST|52=20120703-18:12:01.416|56=ATIVANEST|98=0|108=30|10=199|8=FIX.4.2|9=71|35=A|34=2|49=ATVNEST|52=20120703-18:12:31.416|56=ATIVANEST|98=0|108=30|10=203|8=FIX.4.2|9=71|35=A|34=3|49=ATVNEST|52=20120703-18:13:50.635|56=ATIVANEST|98=0|108=30|10=209|8=FIX.4.2|9=71|35=A|34=4|49=ATVNEST|52=20120703-18:14:20.619|56=ATIVANEST|98=0|108=30|10=210|8=FIX.4.2|9=71|35=A|34=5|49=ATVNEST|52=20120703-18:14:50.619|56=ATIVANEST|98=0|108=30|10=214|8=FIX.4.2|9=71|35=A|34=6|49=ATVNEST|52=20120703-18:15:20.619|56=ATIVANEST|98=0|108=30|10=213|8=FIX.4.2|9=71|35=A|34=7|49=ATVNEST|52=20120703-18:15:50.619|56=ATIVANEST|98=0|108=30|10=217|8=FIX.4.2|9=71|35=A|34=8|49=ATVNEST|52=20120703-18:16:20.635|56=ATIVANEST|98=0|108=30|10=214|8=FIX.4.2|9=71|35=A|34=9|49=ATVNEST|52=20120703-18:16:50.635|56=ATIVANEST|98=0|108=30|10=218|8=FIX.4.2|9=72|35=A|34=10|49=ATVNEST|52=20120703-18:17:20.635|56=ATIVANEST|98=0|108=30|10=001|8=FIX.4.2|9=72|35=A|34=11|49=ATVNEST|52=20120703-18:17:51.635|56=ATIVANEST|98=0|108=30|10=006|8=FIX.4.2|9=72|35=A|34=12|49=ATVNEST|52=20120703-18:18:21.635|56=ATIVANEST|98=0|108=30|10=005|8=FIX.4.2|9=72|35=A|34=13|49=ATVNEST|52=20120703-18:18:51.635|56=ATIVANEST|98=0|108=30|10=009|8=FIX.4.2|9=72|35=A|34=14|49=ATVNEST|52=20120703-18:19:21.635|56=ATIVANEST|98=0|108=30|10=008|8=FIX.4.2|9=72|35=A|34=15|49=ATVNEST|52=20120703-18:19:51.635|56=ATIVANEST|98=0|108=30|10=012|8=FIX.4.2|9=72|35=A|34=16|49=ATVNEST|52=20120703-18:20:21.635|56=ATIVANEST|98=0|108=30|10=002|8=FIX.4.2|9=72|35=A|34=17|49=ATVNEST|52=20120703-18:20:51.635|56=ATIVANEST|98=0|108=30|10=006|8=FIX.4.2|9=72|35=A|34=18|49=ATVNEST|52=20120703-18:21:21.635|56=ATIVANEST|98=0|108=30|10=005|8=FIX.4.2|9=72|35=A|34=19|49=ATVNEST|52=20120703-18:21:51.635|56=ATIVANEST|98=0|108=30|10=009|8=FIX.4.2|9=72|35=A|34=20|49=ATVNEST|52=20120703-18:22:22.635|56=ATIVANEST|98=0|108=30|10=000|