8=FIX.4.2|9=76|35=A|34=1|49=ATVNEST|52=20120705-22:18:00.138|56=ATVANEST|98=0|108=30|141=Y|10=179|8=FIX.4.2|9=83|35=5|34=2|49=ATVNEST|52=20120705-22:18:01.060|56=ATVANEST|58=Incorrect BeginString|10=043|