8=FIX.4.2|9=67|35=A|34=1|49=ALPHA|52=20120514-18:40:39.480|56=BOVESPA|98=0|108=30|10=123|8=FIX.4.2|9=55|35=0|34=2|49=ALPHA|52=20120514-18:41:10.121|56=BOVESPA|10=061|8=FIX.4.2|9=55|35=0|34=3|49=ALPHA|52=20120514-18:41:40.464|56=BOVESPA|10=075|8=FIX.4.2|9=141|35=D|34=4|49=ALPHA|52=20120514-18:42:07.511|56=BOVESPA|1=012345|11=00001|21=1|38=1000|40=2|44=25|54=1|55=PETR4|59=0|60=20120514-21:42:07.511|10=105|8=FIX.4.2|9=142|35=D|34=5|49=ALPHA|52=20120514-18:42:07.605|56=BOVESPA|1=ABCDE|11=00002|21=1|38=500|40=2|44=34.23|54=2|55=VALE5|59=0|60=20120514-21:42:07.589|10=245|8=FIX.4.2|9=142|35=D|34=6|49=ALPHA|52=20120514-18:42:07.605|56=BOVESPA|1=ABCDE|11=00003|21=1|38=500|40=2|44=34.23|54=2|55=VALE5|59=0|60=20120514-21:42:07.589|10=247|8=FIX.4.2|9=143|35=D|34=7|49=ALPHA|52=20120514-18:42:07.605|56=BOVESPA|1=012345|11=00004|21=1|38=100|40=2|44=21.34|54=1|55=PETR3|59=0|60=20120514-21:42:07.589|10=228|8=FIX.4.2|9=143|35=D|34=8|49=ALPHA|52=20120514-18:42:07.605|56=BOVESPA|1=012346|11=00005|21=1|38=300|40=2|44=32.12|54=2|55=PDGR3|59=0|60=20120514-21:42:07.589|10=218|8=FIX.4.2|9=143|35=D|34=9|49=ALPHA|52=20120514-18:42:07.605|56=BOVESPA|1=012347|11=00006|21=1|38=500|40=2|44=32.12|54=2|55=PDGR3|59=0|60=20120514-21:42:07.589|10=223|8=FIX.4.2|9=144|35=D|34=10|49=ALPHA|52=20120514-18:42:07.605|56=BOVESPA|1=012348|11=00007|21=1|38=500|40=2|44=32.15|54=2|55=PDGR3|59=0|60=20120514-21:42:07.589|10=013|8=FIX.4.2|9=144|35=D|34=11|49=ALPHA|52=20120514-18:42:07.605|56=BOVESPA|1=012349|11=00008|21=1|38=100|40=2|44=12.33|54=1|55=RSID3|59=0|60=20120514-21:42:07.589|10=014|8=FIX.4.2|9=144|35=D|34=12|49=ALPHA|52=20120514-18:42:07.605|56=BOVESPA|1=012350|11=00009|21=1|38=4500|40=2|44=12.4|54=2|55=RSID3|59=0|60=20120514-21:42:07.589|10=015|8=FIX.4.2|9=145|35=D|34=13|49=ALPHA|52=20120514-18:42:07.605|56=BOVESPA|1=012351|11=00010|21=1|38=1100|40=2|44=23.45|54=1|55=BBDC4|59=0|60=20120514-21:42:07.589|10=019|8=FIX.4.2|9=142|35=D|34=14|49=ALPHA|52=20120514-18:42:07.605|56=BOVESPA|1=012345|11=00011|21=1|38=1000|40=2|44=25|54=1|55=PETR4|59=0|60=20120514-21:42:07.589|10=175|8=FIX.4.2|9=143|35=D|34=15|49=ALPHA|52=20120514-18:42:07.605|56=BOVESPA|1=ABCDE|11=00012|21=1|38=500|40=2|44=34.23|54=2|55=VALE5|59=0|60=20120514-21:42:07.589|10=040|8=FIX.4.2|9=143|35=D|34=16|49=ALPHA|52=20120514-18:42:07.605|56=BOVESPA|1=ABCDE|11=00013|21=1|38=500|40=2|44=34.23|54=2|55=VALE5|59=0|60=20120514-21:42:07.589|10=042|8=FIX.4.2|9=144|35=D|34=17|49=ALPHA|52=20120514-18:42:07.605|56=BOVESPA|1=012345|11=00014|21=1|38=100|40=2|44=21.34|54=1|55=PETR3|59=0|60=20120514-21:42:07.589|10=023|8=FIX.4.2|9=144|35=D|34=18|49=ALPHA|52=20120514-18:42:07.621|56=BOVESPA|1=012346|11=00015|21=1|38=300|40=2|44=32.12|54=2|55=PDGR3|59=0|60=20120514-21:42:07.589|10=011|8=FIX.4.2|9=144|35=D|34=19|49=ALPHA|52=20120514-18:42:07.621|56=BOVESPA|1=012347|11=00016|21=1|38=500|40=2|44=32.12|54=2|55=PDGR3|59=0|60=20120514-21:42:07.589|10=016|8=FIX.4.2|9=144|35=D|34=20|49=ALPHA|52=20120514-18:42:07.621|56=BOVESPA|1=012348|11=00017|21=1|38=500|40=2|44=32.15|54=2|55=PDGR3|59=0|60=20120514-21:42:07.589|10=013|8=FIX.4.2|9=144|35=D|34=21|49=ALPHA|52=20120514-18:42:07.621|56=BOVESPA|1=012349|11=00018|21=1|38=100|40=2|44=12.33|54=1|55=RSID3|59=0|60=20120514-21:42:07.589|10=014|8=FIX.4.2|9=144|35=D|34=22|49=ALPHA|52=20120514-18:42:07.621|56=BOVESPA|1=012350|11=00019|21=1|38=4500|40=2|44=12.4|54=2|55=RSID3|59=0|60=20120514-21:42:07.589|10=015|8=FIX.4.2|9=145|35=D|34=23|49=ALPHA|52=20120514-18:42:07.636|56=BOVESPA|1=012351|11=00020|21=1|38=1100|40=2|44=23.45|54=1|55=BBDC4|59=0|60=20120514-21:42:07.589|10=025|8=FIX.4.2|9=142|35=D|34=24|49=ALPHA|52=20120514-18:42:07.636|56=BOVESPA|1=012345|11=00021|21=1|38=1000|40=2|44=25|54=1|55=GOLL4|59=0|60=20120514-21:42:07.589|10=168|8=FIX.4.2|9=143|35=D|34=25|49=ALPHA|52=20120514-18:42:07.636|56=BOVESPA|1=ABCDE|11=00022|21=1|38=500|40=2|44=34.23|54=1|55=TAMM4|59=0|60=20120514-21:42:07.589|10=051|8=FIX.4.2|9=143|35=D|34=26|49=ALPHA|52=20120514-18:42:07.636|56=BOVESPA|1=ABCDE|11=00023|21=1|38=500|40=2|44=34.23|54=2|55=VALE3|59=0|60=20120514-21:42:07.589|10=046|8=FIX.4.2|9=144|35=D|34=27|49=ALPHA|52=20120514-18:42:07.636|56=BOVESPA|1=012345|11=00024|21=1|38=100|40=2|44=21.34|54=2|55=VALE5|59=0|60=20120514-21:42:07.589|10=013|8=FIX.4.2|9=144|35=D|34=28|49=ALPHA|52=20120514-18:42:07.636|56=BOVESPA|1=012346|11=00025|21=1|38=300|40=2|44=32.12|54=1|55=ELET3|59=0|60=20120514-21:42:07.605|10=004|8=FIX.4.2|9=144|35=D|34=29|49=ALPHA|52=20120514-18:42:07.652|56=BOVESPA|1=012347|11=00026|21=1|38=500|40=2|44=32.12|54=2|55=TNLP4|59=0|60=20120514-21:42:07.605|10=029|8=FIX.4.2|9=144|35=D|34=30|49=ALPHA|52=20120514-18:42:07.668|56=BOVESPA|1=012348|11=00027|21=1|38=500|40=2|44=32.15|54=2|55=PETR4|59=0|60=20120514-21:42:07.605|10=030|8=FIX.4.2|9=144|35=D|34=31|49=ALPHA|52=20120514-18:42:07.683|56=BOVESPA|1=012349|11=00028|21=1|38=100|40=2|44=12.33|54=2|55=VALE5|59=0|60=20120514-21:42:07.652|10=008|8=FIX.4.2|9=144|35=D|34=32|49=ALPHA|52=20120514-18:42:07.699|56=BOVESPA|1=012350|11=00029|21=1|38=4500|40=2|44=12.4|54=1|55=VALE5|59=0|60=20120514-21:42:07.668|10=021|8=FIX.4.2|9=145|35=D|34=33|49=ALPHA|52=20120514-18:42:07.714|56=BOVESPA|1=012351|11=00030|21=1|38=1100|40=2|44=23.45|54=1|55=PETR3|59=0|60=20120514-21:42:07.668|10=069|8=FIX.4.2|9=142|35=D|34=34|49=ALPHA|52=20120514-18:42:07.714|56=BOVESPA|1=012345|11=00031|21=1|38=1000|40=2|44=25|54=1|55=PDGR3|59=0|60=20120514-21:42:07.668|10=163|8=FIX.4.2|9=143|35=D|34=35|49=ALPHA|52=20120514-18:42:07.730|56=BOVESPA|1=ABCDE|11=00032|21=1|38=500|40=2|44=34.23|54=2|55=PDGR3|59=0|60=20120514-21:42:07.668|10=044|8=FIX.4.2|9=143|35=D|34=36|49=ALPHA|52=20120514-18:42:07.746|56=BOVESPA|1=ABCDE|11=00033|21=1|38=500|40=2|44=34.23|54=2|55=PDGR3|59=0|60=20120514-21:42:07.668|10=053|8=FIX.4.2|9=144|35=D|34=37|49=ALPHA|52=20120514-18:42:07.746|56=BOVESPA|1=012345|11=00034|21=1|38=100|40=2|44=21.34|54=1|55=RSID3|59=0|60=20120514-21:42:07.668|10=022|8=FIX.4.2|9=144|35=D|34=38|49=ALPHA|52=20120514-18:42:07.746|56=BOVESPA|1=012346|11=00035|21=1|38=300|40=2|44=32.12|54=1|55=RSID3|59=0|60=20120514-21:42:07.668|10=025|8=FIX.4.2|9=144|35=D|34=39|49=ALPHA|52=20120514-18:42:07.746|56=BOVESPA|1=012347|11=00036|21=1|38=500|40=2|44=32.12|54=1|55=BBDC4|59=0|60=20120514-21:42:07.668|10=248|8=FIX.4.2|9=144|35=D|34=40|49=ALPHA|52=20120514-18:42:07.746|56=BOVESPA|1=012348|11=00037|21=1|38=500|40=2|44=32.15|54=2|55=PETR4|59=0|60=20120514-21:42:07.668|10=038|8=FIX.4.2|9=144|35=D|34=41|49=ALPHA|52=20120514-18:42:07.746|56=BOVESPA|1=012349|11=00038|21=1|38=100|40=2|44=12.33|54=2|55=VALE5|59=0|60=20120514-21:42:07.668|10=017|8=FIX.4.2|9=144|35=D|34=42|49=ALPHA|52=20120514-18:42:07.746|56=BOVESPA|1=012350|11=00039|21=1|38=4500|40=2|44=12.4|54=1|55=VALE5|59=0|60=20120514-21:42:07.668|10=016|8=FIX.4.2|9=145|35=D|34=43|49=ALPHA|52=20120514-18:42:07.746|56=BOVESPA|1=012351|11=00040|21=1|38=1100|40=2|44=23.45|54=2|55=PETR3|59=0|60=20120514-21:42:07.668|10=077|8=FIX.4.2|9=142|35=D|34=44|49=ALPHA|52=20120514-18:42:07.746|56=BOVESPA|1=012345|11=00041|21=1|38=1000|40=2|44=25|54=2|55=PDGR3|59=0|60=20120514-21:42:07.668|10=171|8=FIX.4.2|9=143|35=D|34=45|49=ALPHA|52=20120514-18:42:07.761|56=BOVESPA|1=ABCDE|11=00042|21=1|38=500|40=2|44=34.23|54=2|55=PDGR3|59=0|60=20120514-21:42:07.668|10=050|8=FIX.4.2|9=143|35=D|34=46|49=ALPHA|52=20120514-18:42:07.761|56=BOVESPA|1=ABCDE|11=00043|21=1|38=500|40=2|44=34.23|54=1|55=PDGR3|59=0|60=20120514-21:42:07.668|10=051|8=FIX.4.2|9=144|35=D|34=47|49=ALPHA|52=20120514-18:42:07.761|56=BOVESPA|1=012345|11=00044|21=1|38=100|40=2|44=21.34|54=2|55=RSID3|59=0|60=20120514-21:42:07.668|10=022|8=FIX.4.2|9=144|35=D|34=48|49=ALPHA|52=20120514-18:42:07.777|56=BOVESPA|1=012346|11=00045|21=1|38=300|40=2|44=32.12|54=1|55=RSID3|59=0|60=20120514-21:42:07.668|10=031|8=FIX.4.2|9=144|35=D|34=49|49=ALPHA|52=20120514-18:42:07.777|56=BOVESPA|1=012347|11=00046|21=1|38=500|40=2|44=32.12|54=1|55=BBDC4|59=0|60=20120514-21:42:07.668|10=254|8=FIX.4.2|9=144|35=D|34=50|49=ALPHA|52=20120514-18:42:07.777|56=BOVESPA|1=012348|11=00047|21=1|38=500|40=2|44=32.15|54=2|55=GOLL4|59=0|60=20120514-21:42:07.668|10=031|8=FIX.4.2|9=144|35=D|34=51|49=ALPHA|52=20120514-18:42:07.808|56=BOVESPA|1=012349|11=00048|21=1|38=100|40=2|44=12.33|54=2|55=TAMM4|59=0|60=20120514-21:42:07.668|10=024|8=FIX.4.2|9=144|35=D|34=52|49=ALPHA|52=20120514-18:42:07.808|56=BOVESPA|1=012350|11=00049|21=1|38=4500|40=2|44=12.4|54=1|55=VALE3|59=0|60=20120514-21:42:07.668|10=015|8=FIX.4.2|9=145|35=D|34=53|49=ALPHA|52=20120514-18:42:07.808|56=BOVESPA|1=012351|11=00050|21=1|38=1100|40=2|44=23.45|54=2|55=VALE5|59=0|60=20120514-21:42:07.668|10=061|8=FIX.4.2|9=142|35=D|34=54|49=ALPHA|52=20120514-18:42:07.808|56=BOVESPA|1=012345|11=00051|21=1|38=1000|40=2|44=25|54=2|55=ELET3|59=0|60=20120514-21:42:07.668|10=169|8=FIX.4.2|9=143|35=D|34=55|49=ALPHA|52=20120514-18:42:07.808|56=BOVESPA|1=ABCDE|11=00052|21=1|38=500|40=2|44=34.23|54=2|55=TNLP4|59=0|60=20120514-21:42:07.683|10=069|8=FIX.4.2|9=143|35=D|34=56|49=ALPHA|52=20120514-18:42:07.808|56=BOVESPA|1=ABCDE|11=00053|21=1|38=500|40=2|44=34.23|54=1|55=PETR4|59=0|60=20120514-21:42:07.683|10=067|8=FIX.4.2|9=145|35=D|34=57|49=ALPHA|52=20120514-18:42:07.808|56=BOVESPA|1=012345|11=00054|21=1|38=1000|40=2|44=21.34|54=2|55=VALE5|59=0|60=20120514-21:42:07.683|10=064|8=FIX.4.2|9=144|35=D|34=58|49=ALPHA|52=20120514-18:42:07.824|56=BOVESPA|1=012346|11=00055|21=1|38=500|40=2|44=32.12|54=1|55=VALE5|59=0|60=20120514-21:42:07.683|10=017|8=FIX.4.2|9=144|35=D|34=59|49=ALPHA|52=20120514-18:42:07.824|56=BOVESPA|1=012347|11=00056|21=1|38=500|40=2|44=32.12|54=1|55=PETR3|59=0|60=20120514-21:42:07.683|10=037|8=FIX.4.2|9=144|35=D|34=60|49=ALPHA|52=20120514-18:42:07.824|56=BOVESPA|1=012348|11=00057|21=1|38=100|40=2|44=32.15|54=1|55=PDGR3|59=0|60=20120514-21:42:07.683|10=016|8=FIX.4.2|9=144|35=D|34=61|49=ALPHA|52=20120514-18:42:07.824|56=BOVESPA|1=012349|11=00058|21=1|38=300|40=2|44=12.33|54=2|55=PDGR3|59=0|60=20120514-21:42:07.683|10=020|8=FIX.4.2|9=141|35=D|34=62|49=ALPHA|52=20120514-18:42:07.824|56=BOVESPA|1=012345|11=00059|21=1|38=500|40=2|44=25|54=2|55=PDGR3|59=0|60=20120514-21:42:07.683|10=129|8=FIX.4.2|9=143|35=D|34=63|49=ALPHA|52=20120514-18:42:07.824|56=BOVESPA|1=ABCDE|11=00060|21=1|38=500|40=2|44=34.23|54=1|55=RSID3|59=0|60=20120514-21:42:07.683|10=051|8=FIX.4.2|9=143|35=D|34=64|49=ALPHA|52=20120514-18:42:07.824|56=BOVESPA|1=ABCDE|11=00061|21=1|38=100|40=2|44=34.23|54=2|55=RSID3|59=0|60=20120514-21:42:07.683|10=050|8=FIX.4.2|9=145|35=D|34=65|49=ALPHA|52=20120514-18:42:07.839|56=BOVESPA|1=012345|11=00062|21=1|38=4500|40=2|44=21.34|54=1|55=BBDC4|59=0|60=20120514-21:42:07.683|10=043|8=FIX.4.2|9=145|35=D|34=66|49=ALPHA|52=20120514-18:42:07.839|56=BOVESPA|1=012346|11=00063|21=1|38=1100|40=2|44=32.12|54=1|55=PETR4|59=0|60=20120514-21:42:07.683|10=085|8=FIX.4.2|9=145|35=D|34=67|49=ALPHA|52=20120514-18:42:07.839|56=BOVESPA|1=012347|11=00064|21=1|38=1000|40=2|44=32.12|54=2|55=VALE5|59=0|60=20120514-21:42:07.683|10=070|8=FIX.4.2|9=144|35=D|34=68|49=ALPHA|52=20120514-18:42:07.839|56=BOVESPA|1=012348|11=00065|21=1|38=500|40=2|44=32.15|54=2|55=VALE5|59=0|60=20120514-21:42:07.683|10=031|8=FIX.4.2|9=144|35=D|34=69|49=ALPHA|52=20120514-18:42:07.839|56=BOVESPA|1=012349|11=00066|21=1|38=500|40=2|44=12.33|54=1|55=PETR3|59=0|60=20120514-21:42:07.683|10=048|8=FIX.4.2|9=143|35=D|34=70|49=ALPHA|52=20120514-18:42:07.839|56=BOVESPA|1=012350|11=00067|21=1|38=100|40=2|44=12.4|54=2|55=PDGR3|59=0|60=20120514-21:42:07.683|10=221|8=FIX.4.2|9=144|35=D|34=71|49=ALPHA|52=20120514-18:42:07.839|56=BOVESPA|1=012351|11=00068|21=1|38=300|40=2|44=23.45|54=2|55=PDGR3|59=0|60=20120514-21:42:07.683|10=026|8=FIX.4.2|9=141|35=D|34=72|49=ALPHA|52=20120514-18:42:07.839|56=BOVESPA|1=012345|11=00069|21=1|38=500|40=2|44=25|54=2|55=PDGR3|59=0|60=20120514-21:42:07.683|10=137|8=FIX.4.2|9=143|35=D|34=73|49=ALPHA|52=20120514-18:42:07.839|56=BOVESPA|1=ABCDE|11=00070|21=1|38=500|40=2|44=34.23|54=1|55=RSID3|59=0|60=20120514-21:42:07.683|10=059|8=FIX.4.2|9=144|35=D|34=74|49=ALPHA|52=20120514-18:42:07.855|56=BOVESPA|1=ABCDE|11=00071|21=1|38=1000|40=2|44=34.23|54=1|55=RSID3|59=0|60=20120514-21:42:07.683|10=104|8=FIX.4.2|9=144|35=D|34=75|49=ALPHA|52=20120514-18:42:07.855|56=BOVESPA|1=012345|11=00072|21=1|38=500|40=2|44=21.34|54=2|55=BBDC4|59=0|60=20120514-21:42:07.683|10=247|8=FIX.4.2|9=141|35=D|34=76|49=ALPHA|52=20120514-18:42:07.855|56=BOVESPA|1=012345|11=00073|21=1|38=500|40=2|44=25|54=2|55=GOLL4|59=0|60=20120514-21:42:07.683|10=136|8=FIX.4.2|9=143|35=D|34=77|49=ALPHA|52=20120514-18:42:07.855|56=BOVESPA|1=ABCDE|11=00074|21=1|38=100|40=2|44=34.23|54=1|55=TAMM4|59=0|60=20120514-21:42:07.683|10=059|8=FIX.4.2|9=143|35=D|34=78|49=ALPHA|52=20120514-18:42:07.855|56=BOVESPA|1=ABCDE|11=00075|21=1|38=300|40=2|44=34.23|54=1|55=VALE3|59=0|60=20120514-21:42:07.683|10=055|8=FIX.4.2|9=144|35=D|34=79|49=ALPHA|52=20120514-18:42:07.855|56=BOVESPA|1=012345|11=00076|21=1|38=500|40=2|44=21.34|54=2|55=VALE5|59=0|60=20120514-21:42:07.714|10=024|8=FIX.4.2|9=144|35=D|34=80|49=ALPHA|52=20120514-18:42:07.855|56=BOVESPA|1=012346|11=00077|21=1|38=500|40=2|44=32.12|54=2|55=ELET3|59=0|60=20120514-21:42:07.714|10=016|8=FIX.4.2|9=144|35=D|34=81|49=ALPHA|52=20120514-18:42:07.855|56=BOVESPA|1=012347|11=00078|21=1|38=100|40=2|44=32.12|54=1|55=TNLP4|59=0|60=20120514-21:42:07.714|10=035|8=FIX.4.2|9=145|35=D|34=82|49=ALPHA|52=20120514-18:42:07.855|56=BOVESPA|1=012348|11=00079|21=1|38=4500|40=2|44=32.15|54=2|55=PETR4|59=0|60=20120514-21:42:07.714|10=096|8=FIX.4.2|9=145|35=D|34=83|49=ALPHA|52=20120514-18:42:07.855|56=BOVESPA|1=012349|11=00080|21=1|38=1100|40=2|44=12.33|54=2|55=VALE5|59=0|60=20120514-21:42:07.714|10=063|8=FIX.4.2|9=144|35=D|34=84|49=ALPHA|52=20120514-18:42:07.855|56=BOVESPA|1=012350|11=00081|21=1|38=1000|40=2|44=12.4|54=2|55=VALE5|59=0|60=20120514-21:42:07.714|10=005|8=FIX.4.2|9=141|35=D|34=85|49=ALPHA|52=20120514-18:42:07.855|56=BOVESPA|1=012345|11=00082|21=1|38=500|40=2|44=25|54=1|55=PETR3|59=0|60=20120514-21:42:07.714|10=142|8=FIX.4.2|9=143|35=D|34=86|49=ALPHA|52=20120514-18:42:07.855|56=BOVESPA|1=ABCDE|11=00083|21=1|38=500|40=2|44=34.23|54=2|55=PDGR3|59=0|60=20120514-21:42:07.714|10=056|8=FIX.4.2|9=143|35=D|34=87|49=ALPHA|52=20120514-18:42:07.855|56=BOVESPA|1=ABCDE|11=00084|21=1|38=100|40=2|44=34.23|54=1|55=PDGR3|59=0|60=20120514-21:42:07.714|10=053|8=FIX.4.2|9=144|35=D|34=88|49=ALPHA|52=20120514-18:42:07.855|56=BOVESPA|1=012345|11=00085|21=1|38=300|40=2|44=21.34|54=1|55=PDGR3|59=0|60=20120514-21:42:07.714|10=024|8=FIX.4.2|9=144|35=D|34=89|49=ALPHA|52=20120514-18:42:07.855|56=BOVESPA|1=012346|11=00086|21=1|38=500|40=2|44=32.12|54=1|55=RSID3|59=0|60=20120514-21:42:07.714|10=032|8=FIX.4.2|9=144|35=D|34=90|49=ALPHA|52=20120514-18:42:07.855|56=BOVESPA|1=012347|11=00087|21=1|38=500|40=2|44=32.12|54=2|55=RSID3|59=0|60=20120514-21:42:07.714|10=027|8=FIX.4.2|9=144|35=D|34=91|49=ALPHA|52=20120514-18:42:07.871|56=BOVESPA|1=012348|11=00088|21=1|38=100|40=2|44=32.15|54=2|55=BBDC4|59=0|60=20120514-21:42:07.714|10=245|8=FIX.4.2|9=145|35=D|34=92|49=ALPHA|52=20120514-18:42:07.871|56=BOVESPA|1=012349|11=00089|21=1|38=4500|40=2|44=12.33|54=1|55=PETR4|59=0|60=20120514-21:42:07.714|10=094|8=FIX.4.2|9=144|35=D|34=93|49=ALPHA|52=20120514-18:42:07.871|56=BOVESPA|1=012350|11=00090|21=1|38=1100|40=2|44=12.4|54=2|55=VALE5|59=0|60=20120514-21:42:07.714|10=004|8=FIX.4.2|9=145|35=D|34=94|49=ALPHA|52=20120514-18:42:07.871|56=BOVESPA|1=012351|11=00091|21=1|38=1000|40=2|44=23.45|54=2|55=VALE5|59=0|60=20120514-21:42:07.714|10=062|8=FIX.4.2|9=141|35=D|34=95|49=ALPHA|52=20120514-18:42:07.871|56=BOVESPA|1=012345|11=00092|21=1|38=500|40=2|44=25|54=2|55=PETR3|59=0|60=20120514-21:42:07.714|10=143|8=FIX.4.2|9=143|35=D|34=96|49=ALPHA|52=20120514-18:42:07.871|56=BOVESPA|1=ABCDE|11=00093|21=1|38=500|40=2|44=34.23|54=1|55=PDGR3|59=0|60=20120514-21:42:07.714|10=055|8=FIX.4.2|9=143|35=D|34=97|49=ALPHA|52=20120514-18:42:07.871|56=BOVESPA|1=ABCDE|11=00094|21=1|38=100|40=2|44=34.23|54=2|55=PDGR3|59=0|60=20120514-21:42:07.714|10=054|8=FIX.4.2|9=144|35=D|34=98|49=ALPHA|52=20120514-18:42:07.871|56=BOVESPA|1=012345|11=00095|21=1|38=300|40=2|44=21.34|54=1|55=PDGR3|59=0|60=20120514-21:42:07.714|10=024|8=FIX.4.2|9=144|35=D|34=99|49=ALPHA|52=20120514-18:42:07.871|56=BOVESPA|1=012346|11=00096|21=1|38=500|40=2|44=32.12|54=1|55=RSID3|59=0|60=20120514-21:42:07.714|10=032|8=FIX.4.2|9=145|35=D|34=100|49=ALPHA|52=20120514-18:42:07.871|56=BOVESPA|1=012347|11=00097|21=1|38=500|40=2|44=32.12|54=1|55=RSID3|59=0|60=20120514-21:42:07.761|10=068|8=FIX.4.2|9=145|35=D|34=101|49=ALPHA|52=20120514-18:42:07.871|56=BOVESPA|1=012348|11=00098|21=1|38=100|40=2|44=32.15|54=2|55=BBDC4|59=0|60=20120514-21:42:07.761|10=033|8=FIX.4.2|9=143|35=D|34=102|49=ALPHA|52=20120514-18:42:07.871|56=BOVESPA|1=012345|11=00099|21=1|38=4500|40=2|44=25|54=2|55=GOLL4|59=0|60=20120514-21:42:07.761|10=231|8=FIX.4.2|9=145|35=D|34=103|49=ALPHA|52=20120514-18:42:07.871|56=BOVESPA|1=ABCDE|11=00100|21=1|38=1100|40=2|44=34.23|54=1|55=TAMM4|59=0|60=20120514-21:42:07.761|10=133|8=FIX.4.2|9=145|35=D|34=104|49=ALPHA|52=20120514-18:42:07.871|56=BOVESPA|1=ABCDE|11=00101|21=1|38=1000|40=2|44=34.23|54=2|55=VALE3|59=0|60=20120514-21:42:07.761|10=127|8=FIX.4.2|9=145|35=D|34=105|49=ALPHA|52=20120514-18:42:07.871|56=BOVESPA|1=012345|11=00102|21=1|38=500|40=2|44=21.34|54=2|55=VALE5|59=0|60=20120514-21:42:07.761|10=053|8=FIX.4.2|9=145|35=D|34=106|49=ALPHA|52=20120514-18:42:07.871|56=BOVESPA|1=012346|11=00103|21=1|38=500|40=2|44=32.12|54=2|55=ELET3|59=0|60=20120514-21:42:07.761|10=054|8=FIX.4.2|9=145|35=D|34=107|49=ALPHA|52=20120514-18:42:07.871|56=BOVESPA|1=012347|11=00104|21=1|38=100|40=2|44=32.12|54=1|55=TNLP4|59=0|60=20120514-21:42:07.761|10=073|8=FIX.4.2|9=145|35=D|34=108|49=ALPHA|52=20120514-18:42:07.871|56=BOVESPA|1=012348|11=00105|21=1|38=300|40=2|44=32.15|54=2|55=PETR4|59=0|60=20120514-21:42:07.761|10=079|8=FIX.4.2|9=142|35=D|34=109|49=ALPHA|52=20120514-18:42:07.886|56=BOVESPA|1=012345|11=00106|21=1|38=500|40=2|44=25|54=1|55=VALE5|59=0|60=20120514-21:42:07.761|10=174|8=FIX.4.2|9=145|35=D|34=110|49=ALPHA|52=20120514-18:42:07.886|56=BOVESPA|1=ABCDE|11=00107|21=1|38=1000|40=2|44=34.23|54=1|55=VALE5|59=0|60=20120514-21:42:07.777|10=144|8=FIX.4.2|9=144|35=D|34=111|49=ALPHA|52=20120514-18:42:07.886|56=BOVESPA|1=ABCDE|11=00108|21=1|38=500|40=2|44=34.23|54=2|55=PETR3|59=0|60=20120514-21:42:07.777|10=119|8=FIX.4.2|9=145|35=D|34=112|49=ALPHA|52=20120514-18:42:07.886|56=BOVESPA|1=012345|11=00109|21=1|38=500|40=2|44=21.34|54=2|55=PDGR3|59=0|60=20120514-21:42:07.777|10=074|8=FIX.4.2|9=145|35=D|34=113|49=ALPHA|52=20120514-18:42:07.886|56=BOVESPA|1=012346|11=00110|21=1|38=100|40=2|44=32.12|54=2|55=PDGR3|59=0|60=20120514-21:42:07.777|10=062|8=FIX.4.2|9=145|35=D|34=114|49=ALPHA|52=20120514-18:42:07.886|56=BOVESPA|1=012347|11=00111|21=1|38=300|40=2|44=32.12|54=1|55=PDGR3|59=0|60=20120514-21:42:07.777|10=066|8=FIX.4.2|9=145|35=D|34=115|49=ALPHA|52=20120514-18:42:07.886|56=BOVESPA|1=012348|11=00112|21=1|38=500|40=2|44=32.15|54=2|55=RSID3|59=0|60=20120514-21:42:07.777|10=080|8=FIX.4.2|9=146|35=D|34=116|49=ALPHA|52=20120514-18:42:07.886|56=BOVESPA|1=012349|11=00113|21=1|38=1000|40=2|44=12.33|54=1|55=RSID3|59=0|60=20120514-21:42:07.777|10=125|8=FIX.4.2|9=142|35=D|34=117|49=ALPHA|52=20120514-18:42:07.886|56=BOVESPA|1=012345|11=00114|21=1|38=500|40=2|44=25|54=1|55=BBDC4|59=0|60=20120514-21:42:07.777|10=149|8=FIX.4.2|9=144|35=D|34=118|49=ALPHA|52=20120514-18:42:07.886|56=BOVESPA|1=ABCDE|11=00115|21=1|38=500|40=2|44=34.23|54=1|55=PETR4|59=0|60=20120514-21:42:07.808|10=119|8=FIX.4.2|9=144|35=D|34=119|49=ALPHA|52=20120514-18:42:07.902|56=BOVESPA|1=ABCDE|11=00116|21=1|38=100|40=2|44=34.23|54=2|55=VALE5|59=0|60=20120514-21:42:07.808|10=089|8=FIX.4.2|9=145|35=D|34=120|49=ALPHA|52=20120514-18:42:07.902|56=BOVESPA|1=012345|11=00117|21=1|38=300|40=2|44=21.34|54=2|55=VALE5|59=0|60=20120514-21:42:07.808|10=051|8=FIX.4.2|9=145|35=D|34=121|49=ALPHA|52=20120514-18:42:07.918|56=BOVESPA|1=012346|11=00118|21=1|38=500|40=2|44=32.12|54=1|55=PETR3|59=0|60=20120514-21:42:07.808|10=077|8=FIX.4.2|9=145|35=D|34=122|49=ALPHA|52=20120514-18:42:07.918|56=BOVESPA|1=012347|11=00119|21=1|38=500|40=2|44=32.12|54=2|55=PDGR3|59=0|60=20120514-21:42:07.808|10=067|8=FIX.4.2|9=145|35=D|34=123|49=ALPHA|52=20120514-18:42:07.918|56=BOVESPA|1=012348|11=00120|21=1|38=100|40=2|44=32.15|54=2|55=PDGR3|59=0|60=20120514-21:42:07.808|10=060|8=FIX.4.2|9=146|35=D|34=124|49=ALPHA|52=20120514-18:42:07.918|56=BOVESPA|1=012349|11=00121|21=1|38=4500|40=2|44=12.33|54=2|55=PDGR3|59=0|60=20120514-21:42:07.808|10=118|8=FIX.4.2|9=145|35=D|34=125|49=ALPHA|52=20120514-18:42:07.918|56=BOVESPA|1=012350|11=00122|21=1|38=1100|40=2|44=12.4|54=1|55=RSID3|59=0|60=20120514-21:42:07.808|10=058|8=FIX.4.2|9=146|35=D|34=126|49=ALPHA|52=20120514-18:42:07.918|56=BOVESPA|1=012351|11=00123|21=1|38=1000|40=2|44=23.45|54=2|55=RSID3|59=0|60=20120514-21:42:07.808|10=117|8=FIX.4.2|9=142|35=D|34=127|49=ALPHA|52=20120514-18:42:07.918|56=BOVESPA|1=012345|11=00124|21=1|38=500|40=2|44=25|54=1|55=BBDC4|59=0|60=20120514-21:42:07.808|10=142|8=FIX.4.2|9=144|35=D|34=128|49=ALPHA|52=20120514-18:42:07.918|56=BOVESPA|1=ABCDE|11=00125|21=1|38=500|40=2|44=34.23|54=1|55=GOLL4|59=0|60=20120514-21:42:07.808|10=104|8=FIX.4.2|9=144|35=D|34=129|49=ALPHA|52=20120514-18:42:07.918|56=BOVESPA|1=ABCDE|11=00126|21=1|38=100|40=2|44=34.23|54=2|55=TAMM4|59=0|60=20120514-21:42:07.808|10=104|8=FIX.4.2|9=145|35=D|34=130|49=ALPHA|52=20120514-18:42:07.918|56=BOVESPA|1=012345|11=00127|21=1|38=300|40=2|44=21.34|54=2|55=VALE3|59=0|60=20120514-21:42:07.808|10=058|8=FIX.4.2|9=145|35=D|34=131|49=ALPHA|52=20120514-18:42:07.918|56=BOVESPA|1=012346|11=00128|21=1|38=500|40=2|44=32.12|54=2|55=VALE5|59=0|60=20120514-21:42:07.808|10=063|8=FIX.4.2|9=145|35=D|34=132|49=ALPHA|52=20120514-18:42:07.918|56=BOVESPA|1=012347|11=00129|21=1|38=500|40=2|44=32.12|54=1|55=ELET3|59=0|60=20120514-21:42:07.808|10=065|8=FIX.4.2|9=57|35=0|34=133|49=ALPHA|52=20120514-18:42:38.464|56=BOVESPA|10=185|8=FIX.4.2|9=57|35=0|34=134|49=ALPHA|52=20120514-18:43:08.465|56=BOVESPA|10=185|8=FIX.4.2|9=57|35=0|34=135|49=ALPHA|52=20120514-18:43:38.465|56=BOVESPA|10=189|8=FIX.4.2|9=57|35=0|34=136|49=ALPHA|52=20120514-18:44:08.465|56=BOVESPA|10=188|8=FIX.4.2|9=57|35=0|34=137|49=ALPHA|52=20120514-18:44:38.480|56=BOVESPA|10=189|8=FIX.4.2|9=57|35=0|34=138|49=ALPHA|52=20120514-18:45:08.480|56=BOVESPA|10=188|8=FIX.4.2|9=57|35=5|34=139|49=ALPHA|52=20120514-18:45:13.480|56=BOVESPA|10=190|8=FIX.4.2|9=69|35=A|34=140|49=ALPHA|52=20120514-18:55:57.857|56=BOVESPA|98=0|108=30|10=239|8=FIX.4.2|9=57|35=0|34=141|49=ALPHA|52=20120514-18:56:27.857|56=BOVESPA|10=193|8=FIX.4.2|9=57|35=0|34=142|49=ALPHA|52=20120514-18:56:57.857|56=BOVESPA|10=197|8=FIX.4.2|9=57|35=0|34=143|49=ALPHA|52=20120514-18:57:27.857|56=BOVESPA|10=196|8=FIX.4.2|9=57|35=0|34=144|49=ALPHA|52=20120514-18:57:57.857|56=BOVESPA|10=200|8=FIX.4.2|9=57|35=0|34=145|49=ALPHA|52=20120514-18:58:27.857|56=BOVESPA|10=199|8=FIX.4.2|9=57|35=0|34=146|49=ALPHA|52=20120514-18:58:57.857|56=BOVESPA|10=203|8=FIX.4.2|9=57|35=0|34=147|49=ALPHA|52=20120514-18:59:27.857|56=BOVESPA|10=202|8=FIX.4.2|9=57|35=0|34=148|49=ALPHA|52=20120514-18:59:57.857|56=BOVESPA|10=206|8=FIX.4.2|9=57|35=0|34=149|49=ALPHA|52=20120514-19:00:27.857|56=BOVESPA|10=191|8=FIX.4.2|9=57|35=0|34=150|49=ALPHA|52=20120514-19:00:57.857|56=BOVESPA|10=186|8=FIX.4.2|9=145|35=D|34=151|49=ALPHA|52=20120514-19:01:19.576|56=BOVESPA|1=012348|11=00007|21=1|38=500|40=2|44=32.15|54=2|55=PDGR3|59=0|60=20120514-22:01:19.561|10=063|8=FIX.4.2|9=145|35=D|34=152|49=ALPHA|52=20120514-19:01:19.654|56=BOVESPA|1=012349|11=00008|21=1|38=100|40=2|44=12.33|54=1|55=RSID3|59=0|60=20120514-22:01:19.654|10=064|8=FIX.4.2|9=145|35=D|34=153|49=ALPHA|52=20120514-19:01:19.654|56=BOVESPA|1=012350|11=00009|21=1|38=4500|40=2|44=12.4|54=2|55=RSID3|59=0|60=20120514-22:01:19.654|10=065|8=FIX.4.2|9=146|35=D|34=154|49=ALPHA|52=20120514-19:01:19.654|56=BOVESPA|1=012351|11=00010|21=1|38=1100|40=2|44=23.45|54=1|55=BBDC4|59=0|60=20120514-22:01:19.654|10=069|8=FIX.4.2|9=143|35=D|34=155|49=ALPHA|52=20120514-19:01:19.670|56=BOVESPA|1=012345|11=00011|21=1|38=1000|40=2|44=25|54=1|55=PETR4|59=0|60=20120514-22:01:19.654|10=223|8=FIX.4.2|9=144|35=D|34=156|49=ALPHA|52=20120514-19:01:19.670|56=BOVESPA|1=ABCDE|11=00012|21=1|38=500|40=2|44=34.23|54=2|55=VALE5|59=0|60=20120514-22:01:19.654|10=088|8=FIX.4.2|9=144|35=D|34=157|49=ALPHA|52=20120514-19:01:19.670|56=BOVESPA|1=ABCDE|11=00013|21=1|38=500|40=2|44=34.23|54=2|55=VALE5|59=0|60=20120514-22:01:19.654|10=090|8=FIX.4.2|9=145|35=D|34=158|49=ALPHA|52=20120514-19:01:19.670|56=BOVESPA|1=012345|11=00014|21=1|38=100|40=2|44=21.34|54=1|55=PETR3|59=0|60=20120514-22:01:19.654|10=071|8=FIX.4.2|9=145|35=D|34=159|49=ALPHA|52=20120514-19:01:19.670|56=BOVESPA|1=012346|11=00015|21=1|38=300|40=2|44=32.12|54=2|55=PDGR3|59=0|60=20120514-22:01:19.654|10=061|8=FIX.4.2|9=145|35=D|34=160|49=ALPHA|52=20120514-19:01:19.670|56=BOVESPA|1=012347|11=00016|21=1|38=500|40=2|44=32.12|54=2|55=PDGR3|59=0|60=20120514-22:01:19.654|10=057|8=FIX.4.2|9=145|35=D|34=161|49=ALPHA|52=20120514-19:01:19.670|56=BOVESPA|1=012348|11=00017|21=1|38=500|40=2|44=32.15|54=2|55=PDGR3|59=0|60=20120514-22:01:19.654|10=063|8=FIX.4.2|9=145|35=D|34=162|49=ALPHA|52=20120514-19:01:19.686|56=BOVESPA|1=012349|11=00018|21=1|38=100|40=2|44=12.33|54=1|55=RSID3|59=0|60=20120514-22:01:19.654|10=071|8=FIX.4.2|9=145|35=D|34=163|49=ALPHA|52=20120514-19:01:19.686|56=BOVESPA|1=012350|11=00019|21=1|38=4500|40=2|44=12.4|54=2|55=RSID3|59=0|60=20120514-22:01:19.654|10=072|8=FIX.4.2|9=146|35=D|34=164|49=ALPHA|52=20120514-19:01:19.717|56=BOVESPA|1=012351|11=00020|21=1|38=1100|40=2|44=23.45|54=1|55=BBDC4|59=0|60=20120514-22:01:19.654|10=071|8=FIX.4.2|9=143|35=D|34=165|49=ALPHA|52=20120514-19:01:19.717|56=BOVESPA|1=012345|11=00021|21=1|38=1000|40=2|44=25|54=1|55=GOLL4|59=0|60=20120514-22:01:19.654|10=214|8=FIX.4.2|9=144|35=D|34=166|49=ALPHA|52=20120514-19:01:19.733|56=BOVESPA|1=ABCDE|11=00022|21=1|38=500|40=2|44=34.23|54=1|55=TAMM4|59=0|60=20120514-22:01:19.654|10=095|8=FIX.4.2|9=144|35=D|34=167|49=ALPHA|52=20120514-19:01:19.733|56=BOVESPA|1=ABCDE|11=00023|21=1|38=500|40=2|44=34.23|54=2|55=VALE3|59=0|60=20120514-22:01:19.654|10=090|8=FIX.4.2|9=145|35=D|34=168|49=ALPHA|52=20120514-19:01:19.733|56=BOVESPA|1=012345|11=00024|21=1|38=100|40=2|44=21.34|54=2|55=VALE5|59=0|60=20120514-22:01:19.654|10=057|8=FIX.4.2|9=145|35=D|34=169|49=ALPHA|52=20120514-19:01:19.733|56=BOVESPA|1=012346|11=00025|21=1|38=300|40=2|44=32.12|54=1|55=ELET3|59=0|60=20120514-22:01:19.654|10=059|8=FIX.4.2|9=145|35=D|34=170|49=ALPHA|52=20120514-19:01:19.733|56=BOVESPA|1=012347|11=00026|21=1|38=500|40=2|44=32.12|54=2|55=TNLP4|59=0|60=20120514-22:01:19.654|10=077|8=FIX.4.2|9=145|35=D|34=171|49=ALPHA|52=20120514-19:01:19.748|56=BOVESPA|1=012348|11=00027|21=1|38=500|40=2|44=32.15|54=2|55=PETR4|59=0|60=20120514-22:01:19.654|10=086|8=FIX.4.2|9=145|35=D|34=172|49=ALPHA|52=20120514-19:01:19.748|56=BOVESPA|1=012349|11=00028|21=1|38=100|40=2|44=12.33|54=2|55=VALE5|59=0|60=20120514-22:01:19.654|10=065|8=FIX.4.2|9=145|35=D|34=173|49=ALPHA|52=20120514-19:01:19.748|56=BOVESPA|1=012350|11=00029|21=1|38=4500|40=2|44=12.4|54=1|55=VALE5|59=0|60=20120514-22:01:19.654|10=064|8=FIX.4.2|9=146|35=D|34=174|49=ALPHA|52=20120514-19:01:19.748|56=BOVESPA|1=012351|11=00030|21=1|38=1100|40=2|44=23.45|54=1|55=PETR3|59=0|60=20120514-22:01:19.654|10=124|8=FIX.4.2|9=143|35=D|34=175|49=ALPHA|52=20120514-19:01:19.748|56=BOVESPA|1=012345|11=00031|21=1|38=1000|40=2|44=25|54=1|55=PDGR3|59=0|60=20120514-22:01:19.654|10=218|8=FIX.4.2|9=144|35=D|34=176|49=ALPHA|52=20120514-19:01:19.748|56=BOVESPA|1=ABCDE|11=00032|21=1|38=500|40=2|44=34.23|54=2|55=PDGR3|59=0|60=20120514-22:01:19.654|10=101|8=FIX.4.2|9=144|35=D|34=177|49=ALPHA|52=20120514-19:01:19.748|56=BOVESPA|1=ABCDE|11=00033|21=1|38=500|40=2|44=34.23|54=2|55=PDGR3|59=0|60=20120514-22:01:19.654|10=103|8=FIX.4.2|9=145|35=D|34=178|49=ALPHA|52=20120514-19:01:19.748|56=BOVESPA|1=012345|11=00034|21=1|38=100|40=2|44=21.34|54=1|55=RSID3|59=0|60=20120514-22:01:19.670|10=070|8=FIX.4.2|9=145|35=D|34=179|49=ALPHA|52=20120514-19:01:19.748|56=BOVESPA|1=012346|11=00035|21=1|38=300|40=2|44=32.12|54=1|55=RSID3|59=0|60=20120514-22:01:19.670|10=073|8=FIX.4.2|9=145|35=D|34=180|49=ALPHA|52=20120514-19:01:19.748|56=BOVESPA|1=012347|11=00036|21=1|38=500|40=2|44=32.12|54=1|55=BBDC4|59=0|60=20120514-22:01:19.670|10=031|8=FIX.4.2|9=145|35=D|34=181|49=ALPHA|52=20120514-19:01:19.748|56=BOVESPA|1=012348|11=00037|21=1|38=500|40=2|44=32.15|54=2|55=PETR4|59=0|60=20120514-22:01:19.670|10=086|8=FIX.4.2|9=145|35=D|34=182|49=ALPHA|52=20120514-19:01:19.748|56=BOVESPA|1=012349|11=00038|21=1|38=100|40=2|44=12.33|54=2|55=VALE5|59=0|60=20120514-22:01:19.670|10=065|8=FIX.4.2|9=145|35=D|34=183|49=ALPHA|52=20120514-19:01:19.748|56=BOVESPA|1=012350|11=00039|21=1|38=4500|40=2|44=12.4|54=1|55=VALE5|59=0|60=20120514-22:01:19.670|10=064|8=FIX.4.2|9=146|35=D|34=184|49=ALPHA|52=20120514-19:01:19.748|56=BOVESPA|1=012351|11=00040|21=1|38=1100|40=2|44=23.45|54=2|55=PETR3|59=0|60=20120514-22:01:19.670|10=125|8=FIX.4.2|9=143|35=D|34=185|49=ALPHA|52=20120514-19:01:19.764|56=BOVESPA|1=012345|11=00041|21=1|38=1000|40=2|44=25|54=2|55=PDGR3|59=0|60=20120514-22:01:19.670|10=217|8=FIX.4.2|9=144|35=D|34=186|49=ALPHA|52=20120514-19:01:19.764|56=BOVESPA|1=ABCDE|11=00042|21=1|38=500|40=2|44=34.23|54=2|55=PDGR3|59=0|60=20120514-22:01:19.670|10=099|8=FIX.4.2|9=144|35=D|34=187|49=ALPHA|52=20120514-19:01:19.764|56=BOVESPA|1=ABCDE|11=00043|21=1|38=500|40=2|44=34.23|54=1|55=PDGR3|59=0|60=20120514-22:01:19.670|10=100|8=FIX.4.2|9=145|35=D|34=188|49=ALPHA|52=20120514-19:01:19.764|56=BOVESPA|1=012345|11=00044|21=1|38=100|40=2|44=21.34|54=2|55=RSID3|59=0|60=20120514-22:01:19.670|10=071|8=FIX.4.2|9=145|35=D|34=189|49=ALPHA|52=20120514-19:01:19.764|56=BOVESPA|1=012346|11=00045|21=1|38=300|40=2|44=32.12|54=1|55=RSID3|59=0|60=20120514-22:01:19.670|10=073|8=FIX.4.2|9=145|35=D|34=190|49=ALPHA|52=20120514-19:01:19.764|56=BOVESPA|1=012347|11=00046|21=1|38=500|40=2|44=32.12|54=1|55=BBDC4|59=0|60=20120514-22:01:19.670|10=031|8=FIX.4.2|9=145|35=D|34=191|49=ALPHA|52=20120514-19:01:19.764|56=BOVESPA|1=012348|11=00047|21=1|38=500|40=2|44=32.15|54=2|55=GOLL4|59=0|60=20120514-22:01:19.670|10=073|8=FIX.4.2|9=145|35=D|34=192|49=ALPHA|52=20120514-19:01:19.779|56=BOVESPA|1=012349|11=00048|21=1|38=100|40=2|44=12.33|54=2|55=TAMM4|59=0|60=20120514-22:01:19.670|10=077|8=FIX.4.2|9=145|35=D|34=193|49=ALPHA|52=20120514-19:01:19.779|56=BOVESPA|1=012350|11=00049|21=1|38=4500|40=2|44=12.4|54=1|55=VALE3|59=0|60=20120514-22:01:19.670|10=068|8=FIX.4.2|9=146|35=D|34=194|49=ALPHA|52=20120514-19:01:19.779|56=BOVESPA|1=012351|11=00050|21=1|38=1100|40=2|44=23.45|54=2|55=VALE5|59=0|60=20120514-22:01:19.670|10=114|8=FIX.4.2|9=143|35=D|34=195|49=ALPHA|52=20120514-19:01:19.779|56=BOVESPA|1=012345|11=00051|21=1|38=1000|40=2|44=25|54=2|55=ELET3|59=0|60=20120514-22:01:19.686|10=229|8=FIX.4.2|9=144|35=D|34=196|49=ALPHA|52=20120514-19:01:19.779|56=BOVESPA|1=ABCDE|11=00052|21=1|38=500|40=2|44=34.23|54=2|55=TNLP4|59=0|60=20120514-22:01:19.686|10=132|8=FIX.4.2|9=144|35=D|34=197|49=ALPHA|52=20120514-19:01:19.779|56=BOVESPA|1=ABCDE|11=00053|21=1|38=500|40=2|44=34.23|54=1|55=PETR4|59=0|60=20120514-22:01:19.686|10=130|8=FIX.4.2|9=146|35=D|34=198|49=ALPHA|52=20120514-19:01:19.779|56=BOVESPA|1=012345|11=00054|21=1|38=1000|40=2|44=21.34|54=2|55=VALE5|59=0|60=20120514-22:01:19.686|10=127|8=FIX.4.2|9=145|35=D|34=199|49=ALPHA|52=20120514-19:01:19.779|56=BOVESPA|1=012346|11=00055|21=1|38=500|40=2|44=32.12|54=1|55=VALE5|59=0|60=20120514-22:01:19.686|10=082|8=FIX.4.2|9=145|35=D|34=200|49=ALPHA|52=20120514-19:01:19.779|56=BOVESPA|1=012347|11=00056|21=1|38=500|40=2|44=32.12|54=1|55=PETR3|59=0|60=20120514-22:01:19.686|10=084|8=FIX.4.2|9=145|35=D|34=201|49=ALPHA|52=20120514-19:01:19.779|56=BOVESPA|1=012348|11=00057|21=1|38=100|40=2|44=32.15|54=1|55=PDGR3|59=0|60=20120514-22:01:19.686|10=072|8=FIX.4.2|9=145|35=D|34=202|49=ALPHA|52=20120514-19:01:19.779|56=BOVESPA|1=012349|11=00058|21=1|38=300|40=2|44=12.33|54=2|55=PDGR3|59=0|60=20120514-22:01:19.717|10=071|8=FIX.4.2|9=142|35=D|34=203|49=ALPHA|52=20120514-19:01:19.779|56=BOVESPA|1=012345|11=00059|21=1|38=500|40=2|44=25|54=2|55=PDGR3|59=0|60=20120514-22:01:19.717|10=180|8=FIX.4.2|9=144|35=D|34=204|49=ALPHA|52=20120514-19:01:19.779|56=BOVESPA|1=ABCDE|11=00060|21=1|38=500|40=2|44=34.23|54=1|55=RSID3|59=0|60=20120514-22:01:19.717|10=102|8=FIX.4.2|9=144|35=D|34=205|49=ALPHA|52=20120514-19:01:19.779|56=BOVESPA|1=ABCDE|11=00061|21=1|38=100|40=2|44=34.23|54=2|55=RSID3|59=0|60=20120514-22:01:19.717|10=101|8=FIX.4.2|9=146|35=D|34=206|49=ALPHA|52=20120514-19:01:19.795|56=BOVESPA|1=012345|11=00062|21=1|38=4500|40=2|44=21.34|54=1|55=BBDC4|59=0|60=20120514-22:01:19.717|10=086|8=FIX.4.2|9=146|35=D|34=207|49=ALPHA|52=20120514-19:01:19.795|56=BOVESPA|1=012346|11=00063|21=1|38=1100|40=2|44=32.12|54=1|55=PETR4|59=0|60=20120514-22:01:19.717|10=128|8=FIX.4.2|9=146|35=D|34=208|49=ALPHA|52=20120514-19:01:19.795|56=BOVESPA|1=012347|11=00064|21=1|38=1000|40=2|44=32.12|54=2|55=VALE5|59=0|60=20120514-22:01:19.717|10=113|8=FIX.4.2|9=145|35=D|34=209|49=ALPHA|52=20120514-19:01:19.795|56=BOVESPA|1=012348|11=00065|21=1|38=500|40=2|44=32.15|54=2|55=VALE5|59=0|60=20120514-22:01:19.717|10=074|8=FIX.4.2|9=145|35=D|34=210|49=ALPHA|52=20120514-19:01:19.795|56=BOVESPA|1=012349|11=00066|21=1|38=500|40=2|44=12.33|54=1|55=PETR3|59=0|60=20120514-22:01:19.717|10=082|8=FIX.4.2|9=144|35=D|34=211|49=ALPHA|52=20120514-19:01:19.795|56=BOVESPA|1=012350|11=00067|21=1|38=100|40=2|44=12.4|54=2|55=PDGR3|59=0|60=20120514-22:01:19.717|10=008|8=FIX.4.2|9=145|35=D|34=212|49=ALPHA|52=20120514-19:01:19.795|56=BOVESPA|1=012351|11=00068|21=1|38=300|40=2|44=23.45|54=2|55=PDGR3|59=0|60=20120514-22:01:19.717|10=069|8=FIX.4.2|9=142|35=D|34=213|49=ALPHA|52=20120514-19:01:19.795|56=BOVESPA|1=012345|11=00069|21=1|38=500|40=2|44=25|54=2|55=PDGR3|59=0|60=20120514-22:01:19.733|10=178|8=FIX.4.2|9=144|35=D|34=214|49=ALPHA|52=20120514-19:01:19.811|56=BOVESPA|1=ABCDE|11=00070|21=1|38=500|40=2|44=34.23|54=1|55=RSID3|59=0|60=20120514-22:01:19.733|10=089|8=FIX.4.2|9=145|35=D|34=215|49=ALPHA|52=20120514-19:01:19.811|56=BOVESPA|1=ABCDE|11=00071|21=1|38=1000|40=2|44=34.23|54=1|55=RSID3|59=0|60=20120514-22:01:19.733|10=136|8=FIX.4.2|9=145|35=D|34=216|49=ALPHA|52=20120514-19:01:19.811|56=BOVESPA|1=012345|11=00072|21=1|38=500|40=2|44=21.34|54=2|55=BBDC4|59=0|60=20120514-22:01:19.733|10=023|8=FIX.4.2|9=142|35=D|34=217|49=ALPHA|52=20120514-19:01:19.811|56=BOVESPA|1=012345|11=00073|21=1|38=500|40=2|44=25|54=2|55=GOLL4|59=0|60=20120514-22:01:19.733|10=168|8=FIX.4.2|9=144|35=D|34=218|49=ALPHA|52=20120514-19:01:19.811|56=BOVESPA|1=ABCDE|11=00074|21=1|38=100|40=2|44=34.23|54=1|55=TAMM4|59=0|60=20120514-22:01:19.733|10=091|8=FIX.4.2|9=144|35=D|34=219|49=ALPHA|52=20120514-19:01:19.811|56=BOVESPA|1=ABCDE|11=00075|21=1|38=300|40=2|44=34.23|54=1|55=VALE3|59=0|60=20120514-22:01:19.733|10=087|8=FIX.4.2|9=145|35=D|34=220|49=ALPHA|52=20120514-19:01:19.811|56=BOVESPA|1=012345|11=00076|21=1|38=500|40=2|44=21.34|54=2|55=VALE5|59=0|60=20120514-22:01:19.733|10=052|8=FIX.4.2|9=145|35=D|34=221|49=ALPHA|52=20120514-19:01:19.811|56=BOVESPA|1=012346|11=00077|21=1|38=500|40=2|44=32.12|54=2|55=ELET3|59=0|60=20120514-22:01:19.733|10=053|8=FIX.4.2|9=145|35=D|34=222|49=ALPHA|52=20120514-19:01:19.811|56=BOVESPA|1=012347|11=00078|21=1|38=100|40=2|44=32.12|54=1|55=TNLP4|59=0|60=20120514-22:01:19.733|10=072|8=FIX.4.2|9=146|35=D|34=223|49=ALPHA|52=20120514-19:01:19.811|56=BOVESPA|1=012348|11=00079|21=1|38=4500|40=2|44=32.15|54=2|55=PETR4|59=0|60=20120514-22:01:19.733|10=133|8=FIX.4.2|9=146|35=D|34=224|49=ALPHA|52=20120514-19:01:19.811|56=BOVESPA|1=012349|11=00080|21=1|38=1100|40=2|44=12.33|54=2|55=VALE5|59=0|60=20120514-22:01:19.733|10=100|8=FIX.4.2|9=145|35=D|34=225|49=ALPHA|52=20120514-19:01:19.811|56=BOVESPA|1=012350|11=00081|21=1|38=1000|40=2|44=12.4|54=2|55=VALE5|59=0|60=20120514-22:01:19.733|10=042|8=FIX.4.2|9=142|35=D|34=226|49=ALPHA|52=20120514-19:01:19.811|56=BOVESPA|1=012345|11=00082|21=1|38=500|40=2|44=25|54=1|55=PETR3|59=0|60=20120514-22:01:19.733|10=179|8=FIX.4.2|9=144|35=D|34=227|49=ALPHA|52=20120514-19:01:19.811|56=BOVESPA|1=ABCDE|11=00083|21=1|38=500|40=2|44=34.23|54=2|55=PDGR3|59=0|60=20120514-22:01:19.733|10=093|8=FIX.4.2|9=144|35=D|34=228|49=ALPHA|52=20120514-19:01:19.826|56=BOVESPA|1=ABCDE|11=00084|21=1|38=100|40=2|44=34.23|54=1|55=PDGR3|59=0|60=20120514-22:01:19.733|10=096|8=FIX.4.2|9=145|35=D|34=229|49=ALPHA|52=20120514-19:01:19.826|56=BOVESPA|1=012345|11=00085|21=1|38=300|40=2|44=21.34|54=1|55=PDGR3|59=0|60=20120514-22:01:19.733|10=067|8=FIX.4.2|9=145|35=D|34=230|49=ALPHA|52=20120514-19:01:19.826|56=BOVESPA|1=012346|11=00086|21=1|38=500|40=2|44=32.12|54=1|55=RSID3|59=0|60=20120514-22:01:19.733|10=066|8=FIX.4.2|9=145|35=D|34=231|49=ALPHA|52=20120514-19:01:19.826|56=BOVESPA|1=012347|11=00087|21=1|38=500|40=2|44=32.12|54=2|55=RSID3|59=0|60=20120514-22:01:19.733|10=070|8=FIX.4.2|9=145|35=D|34=232|49=ALPHA|52=20120514-19:01:19.826|56=BOVESPA|1=012348|11=00088|21=1|38=100|40=2|44=32.15|54=2|55=BBDC4|59=0|60=20120514-22:01:19.733|10=034|8=FIX.4.2|9=146|35=D|34=233|49=ALPHA|52=20120514-19:01:19.826|56=BOVESPA|1=012349|11=00089|21=1|38=4500|40=2|44=12.33|54=1|55=PETR4|59=0|60=20120514-22:01:19.733|10=139|8=FIX.4.2|9=145|35=D|34=234|49=ALPHA|52=20120514-19:01:19.826|56=BOVESPA|1=012350|11=00090|21=1|38=1100|40=2|44=12.4|54=2|55=VALE5|59=0|60=20120514-22:01:19.733|10=049|8=FIX.4.2|9=146|35=D|34=235|49=ALPHA|52=20120514-19:01:19.826|56=BOVESPA|1=012351|11=00091|21=1|38=1000|40=2|44=23.45|54=2|55=VALE5|59=0|60=20120514-22:01:19.733|10=107|8=FIX.4.2|9=142|35=D|34=236|49=ALPHA|52=20120514-19:01:19.826|56=BOVESPA|1=012345|11=00092|21=1|38=500|40=2|44=25|54=2|55=PETR3|59=0|60=20120514-22:01:19.733|10=188|8=FIX.4.2|9=144|35=D|34=237|49=ALPHA|52=20120514-19:01:19.826|56=BOVESPA|1=ABCDE|11=00093|21=1|38=500|40=2|44=34.23|54=1|55=PDGR3|59=0|60=20120514-22:01:19.733|10=100|8=FIX.4.2|9=144|35=D|34=238|49=ALPHA|52=20120514-19:01:19.826|56=BOVESPA|1=ABCDE|11=00094|21=1|38=100|40=2|44=34.23|54=2|55=PDGR3|59=0|60=20120514-22:01:19.733|10=099|8=FIX.4.2|9=145|35=D|34=239|49=ALPHA|52=20120514-19:01:19.826|56=BOVESPA|1=012345|11=00095|21=1|38=300|40=2|44=21.34|54=1|55=PDGR3|59=0|60=20120514-22:01:19.733|10=069|8=FIX.4.2|9=145|35=D|34=240|49=ALPHA|52=20120514-19:01:19.826|56=BOVESPA|1=012346|11=00096|21=1|38=500|40=2|44=32.12|54=1|55=RSID3|59=0|60=20120514-22:01:19.733|10=068|8=FIX.4.2|9=145|35=D|34=241|49=ALPHA|52=20120514-19:01:19.826|56=BOVESPA|1=012347|11=00097|21=1|38=500|40=2|44=32.12|54=1|55=RSID3|59=0|60=20120514-22:01:19.748|10=077|8=FIX.4.2|9=145|35=D|34=242|49=ALPHA|52=20120514-19:01:19.826|56=BOVESPA|1=012348|11=00098|21=1|38=100|40=2|44=32.15|54=2|55=BBDC4|59=0|60=20120514-22:01:19.748|10=042|8=FIX.4.2|9=143|35=D|34=243|49=ALPHA|52=20120514-19:01:19.826|56=BOVESPA|1=012345|11=00099|21=1|38=4500|40=2|44=25|54=2|55=GOLL4|59=0|60=20120514-22:01:19.748|10=240|8=FIX.4.2|9=145|35=D|34=244|49=ALPHA|52=20120514-19:01:19.842|56=BOVESPA|1=ABCDE|11=00100|21=1|38=1100|40=2|44=34.23|54=1|55=TAMM4|59=0|60=20120514-22:01:19.748|10=140|8=FIX.4.2|9=145|35=D|34=245|49=ALPHA|52=20120514-19:01:19.842|56=BOVESPA|1=ABCDE|11=00101|21=1|38=1000|40=2|44=34.23|54=2|55=VALE3|59=0|60=20120514-22:01:19.748|10=134|8=FIX.4.2|9=145|35=D|34=246|49=ALPHA|52=20120514-19:01:19.842|56=BOVESPA|1=012345|11=00102|21=1|38=500|40=2|44=21.34|54=2|55=VALE5|59=0|60=20120514-22:01:19.748|10=060|8=FIX.4.2|9=145|35=D|34=247|49=ALPHA|52=20120514-19:01:19.842|56=BOVESPA|1=012346|11=00103|21=1|38=500|40=2|44=32.12|54=2|55=ELET3|59=0|60=20120514-22:01:19.748|10=061|8=FIX.4.2|9=145|35=D|34=248|49=ALPHA|52=20120514-19:01:19.842|56=BOVESPA|1=012347|11=00104|21=1|38=100|40=2|44=32.12|54=1|55=TNLP4|59=0|60=20120514-22:01:19.748|10=080|8=FIX.4.2|9=145|35=D|34=249|49=ALPHA|52=20120514-19:01:19.842|56=BOVESPA|1=012348|11=00105|21=1|38=300|40=2|44=32.15|54=2|55=PETR4|59=0|60=20120514-22:01:19.748|10=086|8=FIX.4.2|9=142|35=D|34=250|49=ALPHA|52=20120514-19:01:19.842|56=BOVESPA|1=012345|11=00106|21=1|38=500|40=2|44=25|54=1|55=VALE5|59=0|60=20120514-22:01:19.748|10=166|8=FIX.4.2|9=145|35=D|34=251|49=ALPHA|52=20120514-19:01:19.842|56=BOVESPA|1=ABCDE|11=00107|21=1|38=1000|40=2|44=34.23|54=1|55=VALE5|59=0|60=20120514-22:01:19.748|10=138|8=FIX.4.2|9=144|35=D|34=252|49=ALPHA|52=20120514-19:01:19.842|56=BOVESPA|1=ABCDE|11=00108|21=1|38=500|40=2|44=34.23|54=2|55=PETR3|59=0|60=20120514-22:01:19.748|10=113|8=FIX.4.2|9=145|35=D|34=253|49=ALPHA|52=20120514-19:01:19.842|56=BOVESPA|1=012345|11=00109|21=1|38=500|40=2|44=21.34|54=2|55=PDGR3|59=0|60=20120514-22:01:19.748|10=068|8=FIX.4.2|9=145|35=D|34=254|49=ALPHA|52=20120514-19:01:19.842|56=BOVESPA|1=012346|11=00110|21=1|38=100|40=2|44=32.12|54=2|55=PDGR3|59=0|60=20120514-22:01:19.748|10=056|8=FIX.4.2|9=145|35=D|34=255|49=ALPHA|52=20120514-19:01:19.842|56=BOVESPA|1=012347|11=00111|21=1|38=300|40=2|44=32.12|54=1|55=PDGR3|59=0|60=20120514-22:01:19.748|10=060|8=FIX.4.2|9=145|35=D|34=256|49=ALPHA|52=20120514-19:01:19.842|56=BOVESPA|1=012348|11=00112|21=1|38=500|40=2|44=32.15|54=2|55=RSID3|59=0|60=20120514-22:01:19.748|10=074|8=FIX.4.2|9=146|35=D|34=257|49=ALPHA|52=20120514-19:01:19.842|56=BOVESPA|1=012349|11=00113|21=1|38=1000|40=2|44=12.33|54=1|55=RSID3|59=0|60=20120514-22:01:19.764|10=117|8=FIX.4.2|9=142|35=D|34=258|49=ALPHA|52=20120514-19:01:19.842|56=BOVESPA|1=012345|11=00114|21=1|38=500|40=2|44=25|54=1|55=BBDC4|59=0|60=20120514-22:01:19.764|10=141|8=FIX.4.2|9=144|35=D|34=259|49=ALPHA|52=20120514-19:01:19.842|56=BOVESPA|1=ABCDE|11=00115|21=1|38=500|40=2|44=34.23|54=1|55=PETR4|59=0|60=20120514-22:01:19.764|10=116|8=FIX.4.2|9=144|35=D|34=260|49=ALPHA|52=20120514-19:01:19.842|56=BOVESPA|1=ABCDE|11=00116|21=1|38=100|40=2|44=34.23|54=2|55=VALE5|59=0|60=20120514-22:01:19.764|10=088|8=FIX.4.2|9=145|35=D|34=261|49=ALPHA|52=20120514-19:01:19.842|56=BOVESPA|1=012345|11=00117|21=1|38=300|40=2|44=21.34|54=2|55=VALE5|59=0|60=20120514-22:01:19.764|10=059|8=FIX.4.2|9=145|35=D|34=262|49=ALPHA|52=20120514-19:01:19.842|56=BOVESPA|1=012346|11=00118|21=1|38=500|40=2|44=32.12|54=1|55=PETR3|59=0|60=20120514-22:01:19.764|10=078|8=FIX.4.2|9=145|35=D|34=263|49=ALPHA|52=20120514-19:01:19.842|56=BOVESPA|1=012347|11=00119|21=1|38=500|40=2|44=32.12|54=2|55=PDGR3|59=0|60=20120514-22:01:19.764|10=068|8=FIX.4.2|9=145|35=D|34=264|49=ALPHA|52=20120514-19:01:19.842|56=BOVESPA|1=012348|11=00120|21=1|38=100|40=2|44=32.15|54=2|55=PDGR3|59=0|60=20120514-22:01:19.764|10=061|8=FIX.4.2|9=146|35=D|34=265|49=ALPHA|52=20120514-19:01:19.842|56=BOVESPA|1=012349|11=00121|21=1|38=4500|40=2|44=12.33|54=2|55=PDGR3|59=0|60=20120514-22:01:19.764|10=119|8=FIX.4.2|9=145|35=D|34=266|49=ALPHA|52=20120514-19:01:19.858|56=BOVESPA|1=012350|11=00122|21=1|38=1100|40=2|44=12.4|54=1|55=RSID3|59=0|60=20120514-22:01:19.764|10=066|8=FIX.4.2|9=146|35=D|34=267|49=ALPHA|52=20120514-19:01:19.858|56=BOVESPA|1=012351|11=00123|21=1|38=1000|40=2|44=23.45|54=2|55=RSID3|59=0|60=20120514-22:01:19.779|10=131|8=FIX.4.2|9=142|35=D|34=268|49=ALPHA|52=20120514-19:01:19.858|56=BOVESPA|1=012345|11=00124|21=1|38=500|40=2|44=25|54=1|55=BBDC4|59=0|60=20120514-22:01:19.779|10=156|8=FIX.4.2|9=144|35=D|34=269|49=ALPHA|52=20120514-19:01:19.858|56=BOVESPA|1=ABCDE|11=00125|21=1|38=500|40=2|44=34.23|54=1|55=GOLL4|59=0|60=20120514-22:01:19.779|10=118|8=FIX.4.2|9=144|35=D|34=270|49=ALPHA|52=20120514-19:01:19.858|56=BOVESPA|1=ABCDE|11=00126|21=1|38=100|40=2|44=34.23|54=2|55=TAMM4|59=0|60=20120514-22:01:19.779|10=109|8=FIX.4.2|9=145|35=D|34=271|49=ALPHA|52=20120514-19:01:19.858|56=BOVESPA|1=012345|11=00127|21=1|38=300|40=2|44=21.34|54=2|55=VALE3|59=0|60=20120514-22:01:19.779|10=072|8=FIX.4.2|9=145|35=D|34=272|49=ALPHA|52=20120514-19:01:19.858|56=BOVESPA|1=012346|11=00128|21=1|38=500|40=2|44=32.12|54=2|55=VALE5|59=0|60=20120514-22:01:19.779|10=077|8=FIX.4.2|9=145|35=D|34=273|49=ALPHA|52=20120514-19:01:19.858|56=BOVESPA|1=012347|11=00129|21=1|38=500|40=2|44=32.12|54=1|55=ELET3|59=0|60=20120514-22:01:19.779|10=079|8=FIX.4.2|9=57|35=0|34=274|49=ALPHA|52=20120514-19:01:49.858|56=BOVESPA|10=196|8=FIX.4.2|9=57|35=0|34=275|49=ALPHA|52=20120514-19:02:19.858|56=BOVESPA|10=195|8=FIX.4.2|9=57|35=0|34=276|49=ALPHA|52=20120514-19:02:49.858|56=BOVESPA|10=199|8=FIX.4.2|9=57|35=0|34=277|49=ALPHA|52=20120514-19:03:19.858|56=BOVESPA|10=198|8=FIX.4.2|9=57|35=0|34=278|49=ALPHA|52=20120514-19:03:49.858|56=BOVESPA|10=202|8=FIX.4.2|9=57|35=0|34=279|49=ALPHA|52=20120514-19:04:19.858|56=BOVESPA|10=201|8=FIX.4.2|9=57|35=5|34=280|49=ALPHA|52=20120514-19:04:33.858|56=BOVESPA|10=194|