8=FIX.4.2|9=67|35=A|34=1|49=NEST|52=20120619-19:58:02.697|56=XP|98=0|108=30|141=Y|10=036|
8=FIX.4.2|9=67|35=A|34=1|49=NEST|52=20120619-19:58:32.683|56=XP|98=0|108=30|141=Y|10=034|
8=FIX.4.2|9=67|35=A|34=1|49=NEST|52=20120619-19:59:03.683|56=XP|98=0|108=30|141=Y|10=033|
8=FIX.4.2|9=67|35=A|34=1|49=NEST|52=20120619-19:59:33.685|56=XP|98=0|108=30|141=Y|10=038|
8=FIX.4.2|9=67|35=A|34=1|49=NEST|52=20120619-20:00:04.685|56=XP|98=0|108=30|141=Y|10=014|
8=FIX.4.2|9=67|35=A|34=1|49=NEST|52=20120619-20:00:34.687|56=XP|98=0|108=30|141=Y|10=019|
8=FIX.4.2|9=67|35=A|34=1|49=XP|52=20120619-20:00:34.973|56=NEST|98=0|108=30|141=Y|10=017|
8=FIX.4.2|9=49|35=0|34=2|49=XP|52=20120619-20:01:04.990|56=NEST|10=184|
8=FIX.4.2|9=49|35=0|34=2|49=NEST|52=20120619-20:01:04.718|56=XP|10=182|
8=FIX.4.2|9=49|35=0|34=3|49=XP|52=20120619-20:01:34.008|56=NEST|10=178|
8=FIX.4.2|9=49|35=0|34=3|49=NEST|52=20120619-20:01:35.685|56=XP|10=190|
8=FIX.4.2|9=49|35=0|34=4|49=XP|52=20120619-20:02:04.967|56=NEST|10=191|
8=FIX.4.2|9=49|35=0|34=4|49=NEST|52=20120619-20:02:06.683|56=XP|10=188|
8=FIX.4.2|9=49|35=0|34=5|49=XP|52=20120619-20:02:34.965|56=NEST|10=193|
8=FIX.4.2|9=49|35=0|34=5|49=NEST|52=20120619-20:02:36.683|56=XP|10=192|
8=FIX.4.2|9=49|35=0|34=6|49=XP|52=20120619-20:03:04.965|56=NEST|10=192|
8=FIX.4.2|9=49|35=0|34=6|49=NEST|52=20120619-20:03:07.681|56=XP|10=190|
8=FIX.4.2|9=49|35=0|34=7|49=XP|52=20120619-20:03:34.963|56=NEST|10=194|
8=FIX.4.2|9=49|35=0|34=7|49=NEST|52=20120619-20:03:37.696|56=XP|10=200|
8=FIX.4.2|9=128|35=D|34=8|49=NEST|52=20120619-20:03:49.819|56=XP|1=10|11=001|21=1|38=100|40=2|44=30|54=1|55=PETR4|59=0|60=20120619-23:03:49.819|10=159|
8=FIX.4.2|9=205|35=8|34=8|49=XP|52=20120619-20:03:50.174|56=NEST|142=BR|1=10|6=0|11=001|14=0|17=050350175123|20=0|37=007556270|38=100|39=0|40=2|44=000030.000|54=1|55=PETR4|59=0|60=20120619-20:03:50|150=0|151=000000000100|10=116|
8=FIX.4.2|9=224|35=8|34=9|49=XP|52=20120619-20:03:50.177|56=NEST|1=10|6=26|11=001|14=100|17=050350175124|20=0|31=000026.000|32=100|37=007556270|38=100|39=2|40=2|44=000030.000|54=1|55=PETR4|59=0|60=20120619-20:03:50|150=2|151=0|6032=0002800|10=188|
8=FIX.4.2|9=50|35=0|34=10|49=XP|52=20120619-20:04:20.129|56=NEST|10=218|
8=FIX.4.2|9=49|35=0|34=9|49=NEST|52=20120619-20:04:19.850|56=XP|10=195|
8=FIX.4.2|9=50|35=0|34=11|49=XP|52=20120619-20:04:50.145|56=NEST|10=220|
8=FIX.4.2|9=50|35=0|34=10|49=NEST|52=20120619-20:04:49.865|56=XP|10=236|
8=FIX.4.2|9=50|35=0|34=12|49=XP|52=20120619-20:05:20.161|56=NEST|10=217|
8=FIX.4.2|9=50|35=0|34=11|49=NEST|52=20120619-20:05:19.880|56=XP|10=232|
8=FIX.4.2|9=50|35=0|34=13|49=XP|52=20120619-20:05:50.177|56=NEST|10=228|
8=FIX.4.2|9=50|35=0|34=12|49=NEST|52=20120619-20:05:49.896|56=XP|10=243|
8=FIX.4.2|9=50|35=0|34=14|49=XP|52=20120619-20:06:20.194|56=NEST|10=226|
8=FIX.4.2|9=50|35=0|34=13|49=NEST|52=20120619-20:06:19.911|56=XP|10=230|
8=FIX.4.2|9=50|35=0|34=15|49=XP|52=20120619-20:06:50.210|56=NEST|10=219|
8=FIX.4.2|9=50|35=0|34=14|49=NEST|52=20120619-20:06:49.926|56=XP|10=240|
8=FIX.4.2|9=50|35=0|34=16|49=XP|52=20120619-20:07:20.226|56=NEST|10=225|
8=FIX.4.2|9=50|35=0|34=15|49=NEST|52=20120619-20:07:19.942|56=XP|10=237|
8=FIX.4.2|9=50|35=0|34=17|49=XP|52=20120619-20:07:50.242|56=NEST|10=227|
8=FIX.4.2|9=50|35=0|34=16|49=NEST|52=20120619-20:07:49.957|56=XP|10=247|
8=FIX.4.2|9=50|35=0|34=18|49=XP|52=20120619-20:08:20.258|56=NEST|10=233|
8=FIX.4.2|9=50|35=0|34=17|49=NEST|52=20120619-20:08:19.973|56=XP|10=244|
8=FIX.4.2|9=50|35=0|34=19|49=XP|52=20120619-20:08:50.274|56=NEST|10=235|
8=FIX.4.2|9=50|35=0|34=18|49=NEST|52=20120619-20:08:49.988|56=XP|10=254|
8=FIX.4.2|9=50|35=0|34=20|49=XP|52=20120619-20:09:20.290|56=NEST|10=223|
8=FIX.4.2|9=50|35=0|34=19|49=NEST|52=20120619-20:09:20.003|56=XP|10=223|
8=FIX.4.2|9=50|35=0|34=21|49=XP|52=20120619-20:09:50.306|56=NEST|10=225|
8=FIX.4.2|9=50|35=0|34=20|49=NEST|52=20120619-20:09:50.034|56=XP|10=222|
8=FIX.4.2|9=50|35=0|34=22|49=XP|52=20120619-20:10:20.322|56=NEST|10=213|
8=FIX.4.2|9=50|35=0|34=21|49=NEST|52=20120619-20:10:20.050|56=XP|10=210|
8=FIX.4.2|9=137|35=D|34=22|49=NEST|52=20120619-20:10:48.631|56=XP|1=10|11=48_2_224_001|21=1|38=100|40=A|44=0|54=1|55=UNIP6|59=0|60=20120619-23:10:48.631|10=231|
8=FIX.4.2|9=201|35=8|34=23|49=XP|52=20120619-20:10:48.971|56=NEST|142=BR|1=10|6=0|11=48_2_224_001|14=0|17=051048967126|20=0|37=007556271|38=100|39=0|40=A|54=1|55=UNIP6|59=0|60=20120619-20:10:48|150=0|151=000000000100|10=156|
8=FIX.4.2|9=50|35=0|34=24|49=XP|52=20120619-20:11:18.925|56=NEST|10=232|
8=FIX.4.2|9=50|35=0|34=23|49=NEST|52=20120619-20:11:18.646|56=XP|10=231|
8=FIX.4.2|9=50|35=0|34=25|49=XP|52=20120619-20:11:48.942|56=NEST|10=235|
8=FIX.4.2|9=50|35=0|34=24|49=NEST|52=20120619-20:11:48.661|56=XP|10=232|
8=FIX.4.2|9=50|35=0|34=26|49=XP|52=20120619-20:12:18.958|56=NEST|10=241|
8=FIX.4.2|9=50|35=0|34=25|49=NEST|52=20120619-20:12:18.677|56=XP|10=238|
8=FIX.4.2|9=50|35=0|34=27|49=XP|52=20120619-20:12:48.974|56=NEST|10=243|
8=FIX.4.2|9=50|35=0|34=26|49=NEST|52=20120619-20:12:48.692|56=XP|10=239|
8=FIX.4.2|9=50|35=0|34=27|49=NEST|52=20120619-20:13:18.708|56=XP|10=236|
8=FIX.4.2|9=50|35=0|34=28|49=XP|52=20120619-20:13:18.990|56=NEST|10=240|
8=FIX.4.2|9=50|35=0|34=29|49=XP|52=20120619-20:13:48.999|56=NEST|10=253|
8=FIX.4.2|9=50|35=0|34=28|49=NEST|52=20120619-20:13:48.723|56=XP|10=237|
8=FIX.4.2|9=50|35=0|34=30|49=XP|52=20120619-20:14:18.015|56=NEST|10=222|
8=FIX.4.2|9=50|35=0|34=29|49=NEST|52=20120619-20:14:18.723|56=XP|10=236|
8=FIX.4.2|9=50|35=0|34=31|49=XP|52=20120619-20:14:48.015|56=NEST|10=226|
8=FIX.4.2|9=50|35=0|34=30|49=NEST|52=20120619-20:14:49.721|56=XP|10=230|
8=FIX.4.2|9=50|35=0|34=32|49=XP|52=20120619-20:15:18.013|56=NEST|10=223|
8=FIX.4.2|9=50|35=0|34=31|49=NEST|52=20120619-20:15:19.721|56=XP|10=229|
8=FIX.4.2|9=50|35=0|34=33|49=XP|52=20120619-20:15:48.013|56=NEST|10=227|
8=FIX.4.2|9=50|35=0|34=32|49=NEST|52=20120619-20:15:50.719|56=XP|10=232|
8=FIX.4.2|9=50|35=0|34=34|49=XP|52=20120619-20:16:18.012|56=NEST|10=225|
8=FIX.4.2|9=50|35=0|34=33|49=NEST|52=20120619-20:16:20.719|56=XP|10=231|
8=FIX.4.2|9=50|35=0|34=35|49=XP|52=20120619-20:16:48.013|56=NEST|10=230|
8=FIX.4.2|9=50|35=0|34=34|49=NEST|52=20120619-20:16:51.717|56=XP|10=234|
8=FIX.4.2|9=50|35=0|34=36|49=XP|52=20120619-20:17:18.012|56=NEST|10=228|
8=FIX.4.2|9=50|35=0|34=35|49=NEST|52=20120619-20:17:22.731|56=XP|10=230|
8=FIX.4.2|9=50|35=0|34=37|49=XP|52=20120619-20:17:48.025|56=NEST|10=236|
8=FIX.4.2|9=50|35=0|34=36|49=NEST|52=20120619-20:17:53.729|56=XP|10=242|
8=FIX.4.2|9=50|35=0|34=38|49=XP|52=20120619-20:18:18.024|56=NEST|10=234|
8=FIX.4.2|9=50|35=0|34=37|49=NEST|52=20120619-20:18:24.727|56=XP|10=240|
8=FIX.4.2|9=137|35=D|34=38|49=NEST|52=20120619-20:18:27.396|56=XP|1=10|11=48_2_224_002|21=1|38=200|40=A|44=0|54=1|55=UNIP6|59=0|60=20120619-23:18:27.396|10=010|
8=FIX.4.2|9=201|35=8|34=39|49=XP|52=20120619-20:18:27.744|56=NEST|142=BR|1=10|6=0|11=48_2_224_002|14=0|17=051827744129|20=0|37=007556272|38=200|39=0|40=A|54=1|55=UNIP6|59=0|60=20120619-20:18:27|150=0|151=000000000200|10=176|
8=FIX.4.2|9=50|35=0|34=40|49=XP|52=20120619-20:18:57.699|56=NEST|10=248|
8=FIX.4.2|9=50|35=0|34=39|49=NEST|52=20120619-20:18:57.411|56=XP|10=238|
8=FIX.4.2|9=50|35=0|34=41|49=XP|52=20120619-20:19:27.715|56=NEST|10=236|
8=FIX.4.2|9=50|35=0|34=40|49=NEST|52=20120619-20:19:27.426|56=XP|10=234|
8=FIX.4.2|9=50|35=0|34=42|49=XP|52=20120619-20:19:57.731|56=NEST|10=238|
8=FIX.4.2|9=50|35=0|34=41|49=NEST|52=20120619-20:19:57.442|56=XP|10=236|
8=FIX.4.2|9=50|35=0|34=43|49=XP|52=20120619-20:20:27.747|56=NEST|10=235|
8=FIX.4.2|9=50|35=0|34=42|49=NEST|52=20120619-20:20:27.457|56=XP|10=232|
8=FIX.4.2|9=50|35=0|34=44|49=XP|52=20120619-20:20:57.763|56=NEST|10=237|
8=FIX.4.2|9=50|35=0|34=43|49=NEST|52=20120619-20:20:57.472|56=XP|10=233|
8=FIX.4.2|9=50|35=0|34=45|49=XP|52=20120619-20:21:27.779|56=NEST|10=243|
8=FIX.4.2|9=50|35=0|34=44|49=NEST|52=20120619-20:21:27.488|56=XP|10=239|
8=FIX.4.2|9=50|35=0|34=46|49=XP|52=20120619-20:21:57.795|56=NEST|10=245|
8=FIX.4.2|9=50|35=0|34=45|49=NEST|52=20120619-20:21:57.503|56=XP|10=231|
8=FIX.4.2|9=50|35=0|34=47|49=XP|52=20120619-20:22:27.811|56=NEST|10=233|
8=FIX.4.2|9=50|35=0|34=46|49=NEST|52=20120619-20:22:27.518|56=XP|10=236|
8=FIX.4.2|9=50|35=0|34=48|49=XP|52=20120619-20:22:57.827|56=NEST|10=244|
8=FIX.4.2|9=50|35=0|34=47|49=NEST|52=20120619-20:22:57.534|56=XP|10=238|
8=FIX.4.2|9=50|35=0|34=49|49=XP|52=20120619-20:23:27.844|56=NEST|10=242|
8=FIX.4.2|9=50|35=0|34=48|49=NEST|52=20120619-20:23:27.549|56=XP|10=243|
8=FIX.4.2|9=50|35=0|34=50|49=XP|52=20120619-20:23:57.860|56=NEST|10=235|
8=FIX.4.2|9=50|35=0|34=49|49=NEST|52=20120619-20:23:57.565|56=XP|10=245|
8=FIX.4.2|9=50|35=0|34=51|49=XP|52=20120619-20:24:27.875|56=NEST|10=240|
8=FIX.4.2|9=50|35=0|34=50|49=NEST|52=20120619-20:24:27.580|56=XP|10=232|
8=FIX.4.2|9=50|35=0|34=52|49=XP|52=20120619-20:24:57.891|56=NEST|10=242|
8=FIX.4.2|9=50|35=0|34=51|49=NEST|52=20120619-20:24:57.595|56=XP|10=242|
8=FIX.4.2|9=50|35=0|34=53|49=XP|52=20120619-20:25:27.907|56=NEST|10=239|
8=FIX.4.2|9=50|35=0|34=52|49=NEST|52=20120619-20:25:27.611|56=XP|10=230|
8=FIX.4.2|9=50|35=0|34=53|49=NEST|52=20120619-20:25:57.751|56=XP|10=239|
8=FIX.4.2|9=50|35=0|34=54|49=XP|52=20120619-20:25:57.923|56=NEST|10=241|
8=FIX.4.2|9=50|35=0|34=55|49=XP|52=20120619-20:26:27.053|56=NEST|10=234|
8=FIX.4.2|9=50|35=0|34=54|49=NEST|52=20120619-20:26:27.751|56=XP|10=238|
8=FIX.4.2|9=50|35=0|34=56|49=XP|52=20120619-20:26:57.053|56=NEST|10=238|
8=FIX.4.2|9=50|35=0|34=55|49=NEST|52=20120619-20:26:58.749|56=XP|10=250|
8=FIX.4.2|9=50|35=0|34=57|49=XP|52=20120619-20:27:27.052|56=NEST|10=236|
8=FIX.4.2|9=50|35=0|34=56|49=NEST|52=20120619-20:27:28.749|56=XP|10=249|
8=FIX.4.2|9=50|35=0|34=58|49=XP|52=20120619-20:27:57.052|56=NEST|10=240|
8=FIX.4.2|9=50|35=0|34=57|49=NEST|52=20120619-20:27:59.747|56=XP|10=252|
8=FIX.4.2|9=50|35=0|34=59|49=XP|52=20120619-20:28:27.068|56=NEST|10=246|
8=FIX.4.2|9=50|35=0|34=58|49=NEST|52=20120619-20:28:29.747|56=XP|10=251|
8=FIX.4.2|9=50|35=0|34=60|49=XP|52=20120619-20:28:57.056|56=NEST|10=238|
8=FIX.4.2|9=50|35=0|34=59|49=NEST|52=20120619-20:29:00.760|56=XP|10=237|
8=FIX.4.2|9=50|35=0|34=61|49=XP|52=20120619-20:29:27.065|56=NEST|10=237|
8=FIX.4.2|9=50|35=0|34=60|49=NEST|52=20120619-20:29:30.760|56=XP|10=232|
8=FIX.4.2|9=50|35=0|34=62|49=XP|52=20120619-20:29:57.065|56=NEST|10=241|
8=FIX.4.2|9=50|35=0|34=61|49=NEST|52=20120619-20:30:00.760|56=XP|10=222|
8=FIX.4.2|9=50|35=0|34=63|49=XP|52=20120619-20:30:27.065|56=NEST|10=231|
8=FIX.4.2|9=50|35=0|34=62|49=NEST|52=20120619-20:30:30.760|56=XP|10=226|
8=FIX.4.2|9=50|35=0|34=64|49=XP|52=20120619-20:30:57.066|56=NEST|10=236|
8=FIX.4.2|9=50|35=0|34=63|49=NEST|52=20120619-20:31:01.758|56=XP|10=233|
8=FIX.4.2|9=50|35=0|34=65|49=XP|52=20120619-20:31:27.064|56=NEST|10=233|
8=FIX.4.2|9=50|35=0|34=64|49=NEST|52=20120619-20:31:31.758|56=XP|10=237|
8=FIX.4.2|9=50|35=0|34=66|49=XP|52=20120619-20:31:57.064|56=NEST|10=237|
8=FIX.4.2|9=50|35=0|34=65|49=NEST|52=20120619-20:32:02.756|56=XP|10=235|
8=FIX.4.2|9=50|35=0|34=67|49=XP|52=20120619-20:32:27.064|56=NEST|10=236|
8=FIX.4.2|9=50|35=0|34=66|49=NEST|52=20120619-20:32:33.770|56=XP|10=236|
8=FIX.4.2|9=50|35=0|34=68|49=XP|52=20120619-20:32:57.078|56=NEST|10=245|
8=FIX.4.2|9=50|35=0|34=67|49=NEST|52=20120619-20:33:04.768|56=XP|10=243|
8=FIX.4.2|9=50|35=0|34=69|49=XP|52=20120619-20:33:27.076|56=NEST|10=242|
8=FIX.4.2|9=50|35=0|34=68|49=NEST|52=20120619-20:33:35.766|56=XP|10=246|
8=FIX.4.2|9=50|35=0|34=70|49=XP|52=20120619-20:33:57.075|56=NEST|10=236|
8=FIX.4.2|9=50|35=0|34=69|49=NEST|52=20120619-20:34:05.766|56=XP|10=245|
8=FIX.4.2|9=50|35=0|34=71|49=XP|52=20120619-20:34:27.075|56=NEST|10=235|
8=FIX.4.2|9=50|35=0|34=70|49=NEST|52=20120619-20:34:36.764|56=XP|10=239|
8=FIX.4.2|9=50|35=0|34=72|49=XP|52=20120619-20:34:57.090|56=NEST|10=236|
8=FIX.4.2|9=50|35=0|34=71|49=NEST|52=20120619-20:35:06.764|56=XP|10=238|
8=FIX.4.2|9=50|35=0|34=73|49=XP|52=20120619-20:35:27.073|56=NEST|10=236|
8=FIX.4.2|9=50|35=0|34=72|49=NEST|52=20120619-20:35:37.777|56=XP|10=247|
8=FIX.4.2|9=50|35=0|34=74|49=XP|52=20120619-20:35:57.088|56=NEST|10=246|
8=FIX.4.2|9=50|35=0|34=73|49=NEST|52=20120619-20:36:07.777|56=XP|10=246|
8=FIX.4.2|9=50|35=0|34=75|49=XP|52=20120619-20:36:27.088|56=NEST|10=245|
8=FIX.4.2|9=50|35=0|34=74|49=NEST|52=20120619-20:36:37.777|56=XP|10=250|
8=FIX.4.2|9=50|35=0|34=76|49=XP|52=20120619-20:36:57.088|56=NEST|10=249|
8=FIX.4.2|9=50|35=0|34=75|49=NEST|52=20120619-20:37:07.777|56=XP|10=249|
8=FIX.4.2|9=50|35=0|34=77|49=XP|52=20120619-20:37:27.089|56=NEST|10=249|
8=FIX.4.2|9=50|35=0|34=76|49=NEST|52=20120619-20:37:38.775|56=XP|10=252|
8=FIX.4.2|9=50|35=0|34=78|49=XP|52=20120619-20:37:57.087|56=NEST|10=251|
8=FIX.4.2|9=50|35=0|34=77|49=NEST|52=20120619-20:38:08.775|56=XP|10=251|
8=FIX.4.2|9=50|35=0|34=79|49=XP|52=20120619-20:38:27.087|56=NEST|10=250|
8=FIX.4.2|9=50|35=0|34=78|49=NEST|52=20120619-20:38:39.773|56=XP|10=254|
8=FIX.4.2|9=50|35=0|34=80|49=XP|52=20120619-20:38:57.087|56=NEST|10=245|
8=FIX.4.2|9=50|35=0|34=79|49=NEST|52=20120619-20:39:09.773|56=XP|10=253|
8=FIX.4.2|9=50|35=0|34=81|49=XP|52=20120619-20:39:27.087|56=NEST|10=244|
8=FIX.4.2|9=50|35=0|34=80|49=NEST|52=20120619-20:39:39.788|56=XP|10=254|
8=FIX.4.2|9=50|35=0|34=82|49=XP|52=20120619-20:39:57.102|56=NEST|10=236|
8=FIX.4.2|9=50|35=0|34=81|49=NEST|52=20120619-20:40:09.788|56=XP|10=244|
8=FIX.4.2|9=50|35=0|34=83|49=XP|52=20120619-20:40:27.102|56=NEST|10=226|
8=FIX.4.2|9=50|35=0|34=82|49=NEST|52=20120619-20:40:40.786|56=XP|10=238|
8=FIX.4.2|9=50|35=0|34=84|49=XP|52=20120619-20:40:57.101|56=NEST|10=229|
8=FIX.4.2|9=50|35=0|34=83|49=NEST|52=20120619-20:41:10.786|56=XP|10=237|
8=FIX.4.2|9=50|35=0|34=85|49=XP|52=20120619-20:41:27.101|56=NEST|10=228|
8=FIX.4.2|9=50|35=0|34=84|49=NEST|52=20120619-20:41:41.784|56=XP|10=240|
8=FIX.4.2|9=50|35=0|34=86|49=XP|52=20120619-20:41:57.099|56=NEST|10=248|
8=FIX.4.2|9=50|35=0|34=85|49=NEST|52=20120619-20:42:11.784|56=XP|10=239|
8=FIX.4.2|9=50|35=0|34=87|49=XP|52=20120619-20:42:27.101|56=NEST|10=231|
8=FIX.4.2|9=50|35=0|34=86|49=NEST|52=20120619-20:42:42.782|56=XP|10=242|
8=FIX.4.2|9=50|35=0|34=88|49=XP|52=20120619-20:42:57.102|56=NEST|10=236|
8=FIX.4.2|9=50|35=0|34=87|49=NEST|52=20120619-20:43:12.797|56=XP|10=247|
8=FIX.4.2|9=50|35=0|34=89|49=XP|52=20120619-20:43:27.115|56=NEST|10=239|
8=FIX.4.2|9=50|35=0|34=88|49=NEST|52=20120619-20:43:42.797|56=XP|10=251|
8=FIX.4.2|9=50|35=0|34=90|49=XP|52=20120619-20:43:57.115|56=NEST|10=234|
8=FIX.4.2|9=50|35=0|34=89|49=NEST|52=20120619-20:44:12.797|56=XP|10=250|
8=FIX.4.2|9=50|35=0|34=91|49=XP|52=20120619-20:44:27.115|56=NEST|10=233|
8=FIX.4.2|9=50|35=0|34=90|49=NEST|52=20120619-20:44:43.795|56=XP|10=244|
8=FIX.4.2|9=50|35=0|34=92|49=XP|52=20120619-20:44:57.113|56=NEST|10=235|
8=FIX.4.2|9=50|35=0|34=91|49=NEST|52=20120619-20:45:13.795|56=XP|10=243|
8=FIX.4.2|9=50|35=0|34=93|49=XP|52=20120619-20:45:27.144|56=NEST|10=238|
8=FIX.4.2|9=50|35=0|34=92|49=NEST|52=20120619-20:45:44.793|56=XP|10=246|
8=FIX.4.2|9=50|35=0|34=94|49=XP|52=20120619-20:45:57.113|56=NEST|10=238|
8=FIX.4.2|9=50|35=0|34=93|49=NEST|52=20120619-20:46:14.793|56=XP|10=245|
8=FIX.4.2|9=50|35=0|34=95|49=XP|52=20120619-20:46:27.113|56=NEST|10=237|
8=FIX.4.2|9=50|35=0|34=94|49=NEST|52=20120619-20:46:45.806|56=XP|10=245|
8=FIX.4.2|9=50|35=0|34=96|49=XP|52=20120619-20:46:57.127|56=NEST|10=246|
8=FIX.4.2|9=50|35=0|34=95|49=NEST|52=20120619-20:47:15.806|56=XP|10=244|
8=FIX.4.2|9=50|35=0|34=97|49=XP|52=20120619-20:47:27.127|56=NEST|10=245|
8=FIX.4.2|9=50|35=0|34=96|49=NEST|52=20120619-20:47:45.806|56=XP|10=248|
8=FIX.4.2|9=50|35=0|34=98|49=XP|52=20120619-20:47:57.127|56=NEST|10=249|
8=FIX.4.2|9=50|35=0|34=97|49=NEST|52=20120619-20:48:15.806|56=XP|10=247|
8=FIX.4.2|9=50|35=0|34=99|49=XP|52=20120619-20:48:27.127|56=NEST|10=248|
8=FIX.4.2|9=50|35=0|34=98|49=NEST|52=20120619-20:48:46.804|56=XP|10=250|
8=FIX.4.2|9=51|35=0|34=100|49=XP|52=20120619-20:48:57.127|56=NEST|10=027|
8=FIX.4.2|9=50|35=0|34=99|49=NEST|52=20120619-20:49:16.804|56=XP|10=249|
8=FIX.4.2|9=51|35=0|34=101|49=XP|52=20120619-20:49:27.127|56=NEST|10=026|
8=FIX.4.2|9=51|35=0|34=100|49=NEST|52=20120619-20:49:47.802|56=XP|10=027|
8=FIX.4.2|9=51|35=0|34=102|49=XP|52=20120619-20:49:57.125|56=NEST|10=028|
8=FIX.4.2|9=51|35=0|34=101|49=NEST|52=20120619-20:50:17.802|56=XP|10=017|
8=FIX.4.2|9=51|35=0|34=103|49=XP|52=20120619-20:50:27.125|56=NEST|10=018|
8=FIX.4.2|9=51|35=0|34=102|49=NEST|52=20120619-20:50:47.817|56=XP|10=027|
8=FIX.4.2|9=51|35=0|34=104|49=XP|52=20120619-20:50:57.141|56=NEST|10=020|
8=FIX.4.2|9=51|35=0|34=103|49=NEST|52=20120619-20:51:17.817|56=XP|10=026|
8=FIX.4.2|9=51|35=0|34=105|49=XP|52=20120619-20:51:27.141|56=NEST|10=019|
8=FIX.4.2|9=138|35=D|34=104|49=NEST|52=20120619-20:51:37.069|56=XP|1=10|11=48_2_224_003|21=1|38=200|40=A|44=0|54=1|55=UNIP3|59=0|60=20120619-23:51:37.068|10=040|
8=FIX.4.2|9=202|35=8|34=106|49=XP|52=20120619-20:51:37.430|56=NEST|142=BR|1=10|6=0|11=48_2_224_003|14=0|17=055137436130|20=0|37=007556273|38=200|39=0|40=A|54=1|55=UNIP3|59=0|60=20120619-20:51:37|150=0|151=000000000200|10=195|
8=FIX.4.2|9=138|35=D|34=105|49=NEST|52=20120619-20:51:49.300|56=XP|1=10|11=48_2_224_008|21=1|38=100|40=A|44=0|54=1|55=UNIP3|59=0|60=20120619-23:51:49.300|10=028|
8=FIX.4.2|9=202|35=8|34=107|49=XP|52=20120619-20:51:49.658|56=NEST|142=BR|1=10|6=0|11=48_2_224_008|14=0|17=055149655131|20=0|37=007556274|38=100|39=0|40=A|54=1|55=UNIP3|59=0|60=20120619-20:51:49|150=0|151=000000000100|10=225|
8=FIX.4.2|9=51|35=0|34=108|49=XP|52=20120619-20:52:19.640|56=NEST|10=028|
8=FIX.4.2|9=51|35=0|34=106|49=NEST|52=20120619-20:52:19.316|56=XP|10=026|
8=FIX.4.2|9=51|35=0|34=109|49=XP|52=20120619-20:52:49.656|56=NEST|10=039|
8=FIX.4.2|9=51|35=0|34=107|49=NEST|52=20120619-20:52:49.331|56=XP|10=027|
8=FIX.4.2|9=51|35=0|34=110|49=XP|52=20120619-20:53:19.673|56=NEST|10=028|
8=FIX.4.2|9=51|35=0|34=108|49=NEST|52=20120619-20:53:19.347|56=XP|10=033|
8=FIX.4.2|9=51|35=0|34=111|49=XP|52=20120619-20:53:49.690|56=NEST|10=031|
8=FIX.4.2|9=51|35=0|34=109|49=NEST|52=20120619-20:53:49.362|56=XP|10=034|
8=FIX.4.2|9=51|35=0|34=112|49=XP|52=20120619-20:54:19.706|56=NEST|10=028|
8=FIX.4.2|9=51|35=0|34=110|49=NEST|52=20120619-20:54:19.377|56=XP|10=030|
8=FIX.4.2|9=51|35=0|34=113|49=XP|52=20120619-20:54:49.722|56=NEST|10=030|
8=FIX.4.2|9=51|35=0|34=111|49=NEST|52=20120619-20:54:49.408|56=XP|10=029|
8=FIX.4.2|9=51|35=0|34=114|49=XP|52=20120619-20:55:19.738|56=NEST|10=036|
8=FIX.4.2|9=51|35=0|34=112|49=NEST|52=20120619-20:55:19.424|56=XP|10=026|
8=FIX.4.2|9=51|35=0|34=115|49=XP|52=20120619-20:55:49.754|56=NEST|10=038|
8=FIX.4.2|9=51|35=0|34=113|49=NEST|52=20120619-20:55:49.439|56=XP|10=036|
8=FIX.4.2|9=51|35=0|34=116|49=XP|52=20120619-20:56:19.770|56=NEST|10=035|
8=FIX.4.2|9=51|35=0|34=114|49=NEST|52=20120619-20:56:19.454|56=XP|10=032|
8=FIX.4.2|9=51|35=0|34=117|49=XP|52=20120619-20:56:49.787|56=NEST|10=047|
8=FIX.4.2|9=51|35=0|34=115|49=NEST|52=20120619-20:56:49.470|56=XP|10=034|
8=FIX.4.2|9=51|35=0|34=118|49=XP|52=20120619-20:57:19.803|56=NEST|10=035|
8=FIX.4.2|9=51|35=0|34=116|49=NEST|52=20120619-20:57:19.485|56=XP|10=039|
8=FIX.4.2|9=51|35=0|34=119|49=XP|52=20120619-20:57:49.819|56=NEST|10=046|
8=FIX.4.2|9=51|35=0|34=117|49=NEST|52=20120619-20:57:49.610|56=XP|10=033|
8=FIX.4.2|9=51|35=0|34=120|49=XP|52=20120619-20:58:19.943|56=NEST|10=034|
8=FIX.4.2|9=51|35=0|34=118|49=NEST|52=20120619-20:58:19.625|56=XP|10=038|
8=FIX.4.2|9=51|35=0|34=121|49=XP|52=20120619-20:58:49.959|56=NEST|10=045|
8=FIX.4.2|9=51|35=0|34=119|49=NEST|52=20120619-20:58:49.640|56=XP|10=039|
8=FIX.4.2|9=51|35=0|34=122|49=XP|52=20120619-20:59:19.975|56=NEST|10=042|
8=FIX.4.2|9=51|35=0|34=120|49=NEST|52=20120619-20:59:19.656|56=XP|10=036|
8=FIX.4.2|9=51|35=0|34=123|49=XP|52=20120619-20:59:49.992|56=NEST|10=045|
8=FIX.4.2|9=51|35=0|34=121|49=NEST|52=20120619-20:59:49.671|56=XP|10=037|
8=FIX.4.2|9=51|35=0|34=124|49=XP|52=20120619-21:00:19.008|56=NEST|10=018|
8=FIX.4.2|9=51|35=0|34=122|49=NEST|52=20120619-21:00:19.827|56=XP|10=025|
8=FIX.4.2|9=51|35=0|34=125|49=XP|52=20120619-21:00:49.162|56=NEST|10=023|
8=FIX.4.2|9=51|35=0|34=123|49=NEST|52=20120619-21:00:49.842|56=XP|10=026|
8=FIX.4.2|9=51|35=0|34=126|49=XP|52=20120619-21:01:19.178|56=NEST|10=029|
8=FIX.4.2|9=51|35=0|34=124|49=NEST|52=20120619-21:01:19.842|56=XP|10=025|
8=FIX.4.2|9=51|35=0|34=127|49=XP|52=20120619-21:01:49.178|56=NEST|10=033|
8=FIX.4.2|9=51|35=0|34=125|49=NEST|52=20120619-21:01:49.842|56=XP|10=029|
8=FIX.4.2|9=51|35=0|34=128|49=XP|52=20120619-21:02:19.178|56=NEST|10=032|
8=FIX.4.2|9=51|35=0|34=126|49=NEST|52=20120619-21:02:19.842|56=XP|10=028|
8=FIX.4.2|9=51|35=0|34=129|49=XP|52=20120619-21:02:49.178|56=NEST|10=036|
8=FIX.4.2|9=51|35=0|34=127|49=NEST|52=20120619-21:02:50.840|56=XP|10=022|
8=FIX.4.2|9=51|35=0|34=130|49=XP|52=20120619-21:03:19.177|56=NEST|10=025|
8=FIX.4.2|9=51|35=0|34=128|49=NEST|52=20120619-21:03:20.840|56=XP|10=021|
8=FIX.4.2|9=51|35=0|34=131|49=XP|52=20120619-21:03:49.178|56=NEST|10=030|
8=FIX.4.2|9=51|35=0|34=129|49=NEST|52=20120619-21:03:51.838|56=XP|10=033|
8=FIX.4.2|9=51|35=0|34=132|49=XP|52=20120619-21:04:19.176|56=NEST|10=027|
8=FIX.4.2|9=51|35=0|34=130|49=NEST|52=20120619-21:04:22.852|56=XP|10=020|
8=FIX.4.2|9=51|35=0|34=133|49=XP|52=20120619-21:04:49.190|56=NEST|10=027|
8=FIX.4.2|9=51|35=0|34=131|49=NEST|52=20120619-21:04:53.850|56=XP|10=023|
8=FIX.4.2|9=51|35=0|34=134|49=XP|52=20120619-21:05:19.188|56=NEST|10=033|
8=FIX.4.2|9=51|35=0|34=132|49=NEST|52=20120619-21:05:24.848|56=XP|10=030|
8=FIX.4.2|9=51|35=0|34=135|49=XP|52=20120619-21:05:49.187|56=NEST|10=036|
8=FIX.4.2|9=51|35=0|34=133|49=NEST|52=20120619-21:05:54.848|56=XP|10=034|
8=FIX.4.2|9=51|35=0|34=136|49=XP|52=20120619-21:06:19.187|56=NEST|10=035|
8=FIX.4.2|9=51|35=0|34=134|49=NEST|52=20120619-21:06:25.846|56=XP|10=032|
8=FIX.4.2|9=51|35=0|34=137|49=XP|52=20120619-21:06:49.185|56=NEST|10=037|
8=FIX.4.2|9=51|35=0|34=135|49=NEST|52=20120619-21:06:55.846|56=XP|10=036|
8=FIX.4.2|9=51|35=0|34=138|49=XP|52=20120619-21:07:19.187|56=NEST|10=038|
8=FIX.4.2|9=51|35=0|34=136|49=NEST|52=20120619-21:07:26.859|56=XP|10=040|
8=FIX.4.2|9=51|35=0|34=139|49=XP|52=20120619-21:07:49.200|56=NEST|10=028|
8=FIX.4.2|9=51|35=0|34=137|49=NEST|52=20120619-21:07:56.859|56=XP|10=044|
8=FIX.4.2|9=51|35=0|34=140|49=XP|52=20120619-21:08:19.201|56=NEST|10=019|
8=FIX.4.2|9=51|35=0|34=138|49=NEST|52=20120619-21:08:26.859|56=XP|10=043|
8=FIX.4.2|9=51|35=0|34=141|49=XP|52=20120619-21:08:49.201|56=NEST|10=023|
8=FIX.4.2|9=51|35=0|34=139|49=NEST|52=20120619-21:08:56.859|56=XP|10=047|
8=FIX.4.2|9=51|35=0|34=142|49=XP|52=20120619-21:09:19.201|56=NEST|10=022|
8=FIX.4.2|9=51|35=0|34=140|49=NEST|52=20120619-21:09:27.857|56=XP|10=036|
8=FIX.4.2|9=51|35=0|34=143|49=XP|52=20120619-21:09:49.200|56=NEST|10=025|
8=FIX.4.2|9=51|35=0|34=141|49=NEST|52=20120619-21:09:57.857|56=XP|10=040|
8=FIX.4.2|9=51|35=0|34=144|49=XP|52=20120619-21:10:19.199|56=NEST|10=032|
8=FIX.4.2|9=51|35=0|34=142|49=NEST|52=20120619-21:10:28.855|56=XP|10=029|
8=FIX.4.2|9=51|35=0|34=145|49=XP|52=20120619-21:10:49.198|56=NEST|10=035|
8=FIX.4.2|9=51|35=0|34=143|49=NEST|52=20120619-21:10:58.855|56=XP|10=033|
8=FIX.4.2|9=51|35=0|34=146|49=XP|52=20120619-21:11:19.199|56=NEST|10=035|
8=FIX.4.2|9=51|35=0|34=144|49=NEST|52=20120619-21:11:28.870|56=XP|10=029|
8=FIX.4.2|9=51|35=0|34=147|49=XP|52=20120619-21:11:49.215|56=NEST|10=028|
8=FIX.4.2|9=51|35=0|34=145|49=NEST|52=20120619-21:11:58.870|56=XP|10=033|
8=FIX.4.2|9=51|35=0|34=148|49=XP|52=20120619-21:12:19.215|56=NEST|10=027|
8=FIX.4.2|9=51|35=0|34=146|49=NEST|52=20120619-21:12:29.868|56=XP|10=040|
8=FIX.4.2|9=51|35=0|34=149|49=XP|52=20120619-21:12:49.213|56=NEST|10=029|
8=FIX.4.2|9=51|35=0|34=147|49=NEST|52=20120619-21:12:59.868|56=XP|10=044|
8=FIX.4.2|9=51|35=0|34=150|49=XP|52=20120619-21:13:19.213|56=NEST|10=019|
8=FIX.4.2|9=51|35=0|34=148|49=NEST|52=20120619-21:13:30.866|56=XP|10=033|
8=FIX.4.2|9=51|35=0|34=151|49=XP|52=20120619-21:13:49.212|56=NEST|10=022|
8=FIX.4.2|9=51|35=0|34=149|49=NEST|52=20120619-21:14:00.866|56=XP|10=032|
8=FIX.4.2|9=51|35=0|34=152|49=XP|52=20120619-21:14:19.212|56=NEST|10=021|
8=FIX.4.2|9=51|35=0|34=150|49=NEST|52=20120619-21:14:31.864|56=XP|10=026|
8=FIX.4.2|9=51|35=0|34=153|49=XP|52=20120619-21:14:49.210|56=NEST|10=023|
8=FIX.4.2|9=51|35=0|34=151|49=NEST|52=20120619-21:15:01.879|56=XP|10=031|
8=FIX.4.2|9=51|35=0|34=154|49=XP|52=20120619-21:15:19.227|56=NEST|10=030|
8=FIX.4.2|9=51|35=0|34=152|49=NEST|52=20120619-21:15:31.879|56=XP|10=035|
8=FIX.4.2|9=51|35=0|34=155|49=XP|52=20120619-21:15:49.227|56=NEST|10=034|
8=FIX.4.2|9=51|35=0|34=153|49=NEST|52=20120619-21:16:01.879|56=XP|10=034|
8=FIX.4.2|9=51|35=0|34=156|49=XP|52=20120619-21:16:19.227|56=NEST|10=033|
8=FIX.4.2|9=51|35=0|34=154|49=NEST|52=20120619-21:16:32.877|56=XP|10=037|
8=FIX.4.2|9=51|35=0|34=157|49=XP|52=20120619-21:16:49.226|56=NEST|10=036|
8=FIX.4.2|9=51|35=0|34=155|49=NEST|52=20120619-21:17:02.877|56=XP|10=036|
8=FIX.4.2|9=51|35=0|34=158|49=XP|52=20120619-21:17:19.226|56=NEST|10=035|
8=FIX.4.2|9=51|35=0|34=156|49=NEST|52=20120619-21:17:33.875|56=XP|10=039|
8=FIX.4.2|9=51|35=0|34=159|49=XP|52=20120619-21:17:49.224|56=NEST|10=037|
8=FIX.4.2|9=51|35=0|34=157|49=NEST|52=20120619-21:18:03.875|56=XP|10=038|
8=FIX.4.2|9=51|35=0|34=160|49=XP|52=20120619-21:18:19.224|56=NEST|10=027|
8=FIX.4.2|9=51|35=0|34=158|49=NEST|52=20120619-21:18:34.873|56=XP|10=041|
8=FIX.4.2|9=51|35=0|34=161|49=XP|52=20120619-21:18:49.223|56=NEST|10=030|
8=FIX.4.2|9=51|35=0|34=159|49=NEST|52=20120619-21:19:04.888|56=XP|10=046|
8=FIX.4.2|9=51|35=0|34=162|49=XP|52=20120619-21:19:19.240|56=NEST|10=028|
8=FIX.4.2|9=51|35=0|34=160|49=NEST|52=20120619-21:19:34.888|56=XP|10=041|
8=FIX.4.2|9=51|35=0|34=163|49=XP|52=20120619-21:19:49.239|56=NEST|10=040|
8=FIX.4.2|9=51|35=0|34=161|49=NEST|52=20120619-21:20:04.888|56=XP|10=031|
8=FIX.4.2|9=51|35=0|34=164|49=XP|52=20120619-21:20:19.240|56=NEST|10=022|
8=FIX.4.2|9=51|35=0|34=162|49=NEST|52=20120619-21:20:35.886|56=XP|10=034|
8=FIX.4.2|9=51|35=0|34=165|49=XP|52=20120619-21:20:49.238|56=NEST|10=033|
8=FIX.4.2|9=51|35=0|34=163|49=NEST|52=20120619-21:21:05.886|56=XP|10=033|
8=FIX.4.2|9=51|35=0|34=166|49=XP|52=20120619-21:21:19.238|56=NEST|10=032|
8=FIX.4.2|9=51|35=0|34=164|49=NEST|52=20120619-21:21:36.884|56=XP|10=036|
8=FIX.4.2|9=51|35=0|34=167|49=XP|52=20120619-21:21:49.237|56=NEST|10=035|
8=FIX.4.2|9=51|35=0|34=165|49=NEST|52=20120619-21:22:06.884|56=XP|10=035|
8=FIX.4.2|9=51|35=0|34=168|49=XP|52=20120619-21:22:19.237|56=NEST|10=034|
8=FIX.4.2|9=51|35=0|34=166|49=NEST|52=20120619-21:22:37.897|56=XP|10=044|
8=FIX.4.2|9=51|35=0|34=169|49=XP|52=20120619-21:22:49.251|56=NEST|10=034|
8=FIX.4.2|9=51|35=0|34=167|49=NEST|52=20120619-21:23:07.897|56=XP|10=043|
8=FIX.4.2|9=51|35=0|34=170|49=XP|52=20120619-21:23:19.251|56=NEST|10=024|
8=FIX.4.2|9=51|35=0|34=168|49=NEST|52=20120619-21:23:37.897|56=XP|10=047|
8=FIX.4.2|9=51|35=0|34=171|49=XP|52=20120619-21:23:49.251|56=NEST|10=028|
8=FIX.4.2|9=51|35=0|34=169|49=NEST|52=20120619-21:24:07.897|56=XP|10=046|
8=FIX.4.2|9=51|35=0|34=172|49=XP|52=20120619-21:24:19.251|56=NEST|10=027|
8=FIX.4.2|9=51|35=0|34=170|49=NEST|52=20120619-21:24:38.895|56=XP|10=040|
8=FIX.4.2|9=51|35=0|34=173|49=XP|52=20120619-21:24:49.250|56=NEST|10=030|
8=FIX.4.2|9=51|35=0|34=171|49=NEST|52=20120619-21:25:08.895|56=XP|10=039|
8=FIX.4.2|9=51|35=0|34=174|49=XP|52=20120619-21:25:19.250|56=NEST|10=029|
8=FIX.4.2|9=51|35=0|34=172|49=NEST|52=20120619-21:25:39.893|56=XP|10=042|
8=FIX.4.2|9=51|35=0|34=175|49=XP|52=20120619-21:25:49.248|56=NEST|10=040|
8=FIX.4.2|9=51|35=0|34=173|49=NEST|52=20120619-21:26:09.893|56=XP|10=041|
8=FIX.4.2|9=51|35=0|34=176|49=XP|52=20120619-21:26:19.248|56=NEST|10=039|
8=FIX.4.2|9=51|35=0|34=174|49=NEST|52=20120619-21:26:39.908|56=XP|10=042|
8=FIX.4.2|9=51|35=0|34=177|49=XP|52=20120619-21:26:49.264|56=NEST|10=041|
8=FIX.4.2|9=51|35=0|34=175|49=NEST|52=20120619-21:27:09.908|56=XP|10=041|
8=FIX.4.2|9=51|35=0|34=178|49=XP|52=20120619-21:27:19.264|56=NEST|10=040|
8=FIX.4.2|9=138|35=D|34=176|49=NEST|52=20120619-21:27:25.400|56=XP|1=10|11=48_2_224_004|21=1|38=200|40=A|44=0|54=1|55=VINE6|59=0|60=20120620-00:27:25.400|10=010|
8=FIX.4.2|9=202|35=8|34=179|49=XP|52=20120619-21:27:25.783|56=NEST|142=BR|1=10|6=0|11=48_2_224_004|14=0|17=062725756137|20=0|37=007556275|38=200|39=0|40=A|54=1|55=VINE6|59=0|60=20120619-21:27:25|150=0|151=000000000200|10=227|
8=FIX.4.2|9=138|35=D|34=177|49=NEST|52=20120619-21:27:47.195|56=XP|1=10|11=48_2_224_018|21=1|38=100|40=A|44=0|54=1|55=VINE6|59=0|60=20120620-00:27:47.195|10=045|
8=FIX.4.2|9=202|35=8|34=180|49=XP|52=20120619-21:27:47.597|56=NEST|142=BR|1=10|6=0|11=48_2_224_018|14=0|17=062747570138|20=0|37=007556276|38=100|39=0|40=A|54=1|55=VINE6|59=0|60=20120619-21:27:47|150=0|151=000000000100|10=233|
8=FIX.4.2|9=51|35=0|34=181|49=XP|52=20120619-21:28:17.579|56=NEST|10=042|
8=FIX.4.2|9=51|35=0|34=178|49=NEST|52=20120619-21:28:17.226|56=XP|10=037|
8=FIX.4.2|9=237|35=8|34=182|49=XP|52=20120619-21:28:19.414|56=NEST|1=10|6=30|11=48_2_224_004|14=100|17=062819383139|20=0|31=000030.000|32=100|37=007556275|38=200|39=1|40=A|44=000030.000|54=1|55=VINE6|59=0|60=20120619-21:28:19|150=1|151=100|6032=0000010|10=250|
8=FIX.4.2|9=235|35=8|34=183|49=XP|52=20120619-21:28:19.415|56=NEST|1=10|6=30|11=48_2_224_004|14=200|17=062819383140|20=0|31=000030.000|32=100|37=007556275|38=200|39=2|40=A|44=000030.000|54=1|55=VINE6|59=0|60=20120619-21:28:19|150=2|151=0|6032=0000020|10=149|
8=FIX.4.2|9=51|35=0|34=179|49=NEST|52=20120619-21:28:47.912|56=XP|10=043|
8=FIX.4.2|9=51|35=0|34=184|49=XP|52=20120619-21:28:49.270|56=NEST|10=038|
8=FIX.4.2|9=51|35=0|34=180|49=NEST|52=20120619-21:29:17.912|56=XP|10=033|
8=FIX.4.2|9=51|35=0|34=185|49=XP|52=20120619-21:29:19.270|56=NEST|10=037|
8=FIX.4.2|9=51|35=0|34=181|49=NEST|52=20120619-21:29:47.912|56=XP|10=037|
8=FIX.4.2|9=51|35=0|34=186|49=XP|52=20120619-21:29:49.270|56=NEST|10=041|
8=FIX.4.2|9=51|35=0|34=182|49=NEST|52=20120619-21:30:18.910|56=XP|10=026|
8=FIX.4.2|9=51|35=0|34=187|49=XP|52=20120619-21:30:19.268|56=NEST|10=038|
8=FIX.4.2|9=51|35=0|34=183|49=NEST|52=20120619-21:30:48.910|56=XP|10=030|
8=FIX.4.2|9=51|35=0|34=188|49=XP|52=20120619-21:30:49.269|56=NEST|10=043|
8=FIX.4.2|9=51|35=0|34=189|49=XP|52=20120619-21:31:19.271|56=NEST|10=035|
8=FIX.4.2|9=51|35=0|34=184|49=NEST|52=20120619-21:31:18.925|56=XP|10=035|
8=FIX.4.2|9=51|35=0|34=190|49=XP|52=20120619-21:31:49.287|56=NEST|10=037|
8=FIX.4.2|9=51|35=0|34=185|49=NEST|52=20120619-21:31:48.940|56=XP|10=036|
8=FIX.4.2|9=51|35=0|34=191|49=XP|52=20120619-21:32:19.303|56=NEST|10=025|
8=FIX.4.2|9=51|35=0|34=186|49=NEST|52=20120619-21:32:18.956|56=XP|10=042|
8=FIX.4.2|9=51|35=0|34=192|49=XP|52=20120619-21:32:49.319|56=NEST|10=036|
8=FIX.4.2|9=51|35=0|34=187|49=NEST|52=20120619-21:32:48.971|56=XP|10=043|
8=FIX.4.2|9=51|35=0|34=193|49=XP|52=20120619-21:33:19.335|56=NEST|10=033|
8=FIX.4.2|9=51|35=0|34=188|49=NEST|52=20120619-21:33:18.986|56=XP|10=048|
8=FIX.4.2|9=51|35=0|34=194|49=XP|52=20120619-21:33:49.351|56=NEST|10=035|
8=FIX.4.2|9=51|35=0|34=189|49=NEST|52=20120619-21:33:49.002|56=XP|10=032|
8=FIX.4.2|9=51|35=0|34=195|49=XP|52=20120619-21:34:19.367|56=NEST|10=041|
8=FIX.4.2|9=51|35=0|34=190|49=NEST|52=20120619-21:34:19.017|56=XP|10=028|
8=FIX.4.2|9=51|35=0|34=196|49=XP|52=20120619-21:34:49.382|56=NEST|10=042|
8=FIX.4.2|9=51|35=0|34=191|49=NEST|52=20120619-21:34:49.032|56=XP|10=029|
8=FIX.4.2|9=51|35=0|34=197|49=XP|52=20120619-21:35:19.398|56=NEST|10=048|
8=FIX.4.2|9=51|35=0|34=192|49=NEST|52=20120619-21:35:19.048|56=XP|10=035|
8=FIX.4.2|9=51|35=0|34=198|49=XP|52=20120619-21:35:49.414|56=NEST|10=041|
8=FIX.4.2|9=51|35=0|34=193|49=NEST|52=20120619-21:35:49.063|56=XP|10=036|
8=FIX.4.2|9=51|35=0|34=199|49=XP|52=20120619-21:36:19.430|56=NEST|10=038|
8=FIX.4.2|9=51|35=0|34=194|49=NEST|52=20120619-21:36:19.079|56=XP|10=042|
8=FIX.4.2|9=51|35=0|34=200|49=XP|52=20120619-21:36:49.446|56=NEST|10=031|
8=FIX.4.2|9=51|35=0|34=195|49=NEST|52=20120619-21:36:49.094|56=XP|10=043|
8=FIX.4.2|9=51|35=0|34=201|49=XP|52=20120619-21:37:19.461|56=NEST|10=027|
8=FIX.4.2|9=51|35=0|34=196|49=NEST|52=20120619-21:37:19.109|56=XP|10=039|
8=FIX.4.2|9=51|35=0|34=202|49=XP|52=20120619-21:37:49.477|56=NEST|10=038|
8=FIX.4.2|9=51|35=0|34=197|49=NEST|52=20120619-21:37:49.125|56=XP|10=041|
8=FIX.4.2|9=51|35=0|34=203|49=XP|52=20120619-21:38:19.494|56=NEST|10=036|
8=FIX.4.2|9=51|35=0|34=198|49=NEST|52=20120619-21:38:19.140|56=XP|10=037|
8=FIX.4.2|9=51|35=0|34=204|49=XP|52=20120619-21:38:49.510|56=NEST|10=029|
8=FIX.4.2|9=51|35=0|34=199|49=NEST|52=20120619-21:38:49.155|56=XP|10=047|
8=FIX.4.2|9=51|35=5|34=200|49=NEST|52=20120619-21:39:14.928|56=XP|10=036|
8=FIX.4.2|9=51|35=5|34=205|49=XP|52=20120619-21:39:15.295|56=NEST|10=039|
