8=FIX.4.2|9=73|35=A|34=1|49=NESTITEST|52=20100531-18:28:29.848|56=QUANTTEST|98=0|108=60|10=155|8=FIX.4.2|9=61|35=0|34=2|49=NESTITEST|52=20100531-18:29:29.331|56=QUANTTEST|10=096|8=FIX.4.2|9=156|35=8|34=3|49=NESTITEST|52=20100531-18:29:34.393|56=QUANTTEST|6=0|11=NF000001|14=50|17=001|20=0|31=32|32=50|37=001|38=100|39=1|54=1|55=PETR4.SA|150=1|151=50|10=247|8=FIX.4.2|9=61|35=0|34=4|49=NESTITEST|52=20100531-18:30:34.376|56=QUANTTEST|10=095|8=FIX.4.2|9=61|35=0|34=5|49=NESTITEST|52=20100531-18:31:34.406|56=QUANTTEST|10=091|8=FIX.4.2|9=61|35=0|34=6|49=NESTITEST|52=20100531-18:32:34.437|56=QUANTTEST|10=097|8=FIX.4.2|9=61|35=0|34=7|49=NESTITEST|52=20100531-18:33:34.467|56=QUANTTEST|10=102|8=FIX.4.2|9=61|35=0|34=8|49=NESTITEST|52=20100531-18:34:34.012|56=QUANTTEST|10=090|8=FIX.4.2|9=61|35=0|34=9|49=NESTITEST|52=20100531-18:35:34.058|56=QUANTTEST|10=102|8=FIX.4.2|9=62|35=0|34=10|49=NESTITEST|52=20100531-18:36:34.088|56=QUANTTEST|10=147|8=FIX.4.2|9=62|35=0|34=11|49=NESTITEST|52=20100531-18:37:34.103|56=QUANTTEST|10=137|8=FIX.4.2|9=62|35=0|34=12|49=NESTITEST|52=20100531-18:38:34.133|56=QUANTTEST|10=142|8=FIX.4.2|9=62|35=0|34=13|49=NESTITEST|52=20100531-18:39:34.163|56=QUANTTEST|10=147|8=FIX.4.2|9=62|35=0|34=14|49=NESTITEST|52=20100531-18:40:34.193|56=QUANTTEST|10=143|8=FIX.4.2|9=62|35=0|34=15|49=NESTITEST|52=20100531-18:41:34.223|56=QUANTTEST|10=139|8=FIX.4.2|9=62|35=0|34=16|49=NESTITEST|52=20100531-18:42:34.253|56=QUANTTEST|10=144|8=FIX.4.2|9=62|35=0|34=17|49=NESTITEST|52=20100531-18:43:34.268|56=QUANTTEST|10=152|8=FIX.4.2|9=62|35=0|34=18|49=NESTITEST|52=20100531-18:44:34.298|56=QUANTTEST|10=157|8=FIX.4.2|9=62|35=0|34=19|49=NESTITEST|52=20100531-18:45:34.328|56=QUANTTEST|10=153|8=FIX.4.2|9=62|35=0|34=20|49=NESTITEST|52=20100531-18:46:34.358|56=QUANTTEST|10=149|8=FIX.4.2|9=62|35=0|34=21|49=NESTITEST|52=20100531-18:47:34.388|56=QUANTTEST|10=154|8=FIX.4.2|9=62|35=0|34=22|49=NESTITEST|52=20100531-18:48:34.418|56=QUANTTEST|10=150|8=FIX.4.2|9=62|35=0|34=23|49=NESTITEST|52=20100531-18:49:34.448|56=QUANTTEST|10=155|8=FIX.4.2|9=62|35=0|34=24|49=NESTITEST|52=20100531-18:50:34.463|56=QUANTTEST|10=145|8=FIX.4.2|9=62|35=0|34=25|49=NESTITEST|52=20100531-18:51:34.524|56=QUANTTEST|10=145|8=FIX.4.2|9=62|35=0|34=26|49=NESTITEST|52=20100531-18:52:34.039|56=QUANTTEST|10=148|8=FIX.4.2|9=62|35=0|34=27|49=NESTITEST|52=20100531-18:53:34.069|56=QUANTTEST|10=153|8=FIX.4.2|9=62|35=0|34=28|49=NESTITEST|52=20100531-18:54:34.099|56=QUANTTEST|10=158|8=FIX.4.2|9=62|35=0|34=29|49=NESTITEST|52=20100531-18:55:34.129|56=QUANTTEST|10=154|8=FIX.4.2|9=62|35=0|34=30|49=NESTITEST|52=20100531-18:56:34.143|56=QUANTTEST|10=143|8=FIX.4.2|9=62|35=0|34=31|49=NESTITEST|52=20100531-18:57:34.173|56=QUANTTEST|10=148|8=FIX.4.2|9=62|35=0|34=32|49=NESTITEST|52=20100531-18:58:34.203|56=QUANTTEST|10=144|8=FIX.4.2|9=62|35=0|34=33|49=NESTITEST|52=20100531-18:59:34.249|56=QUANTTEST|10=156|8=FIX.4.2|9=62|35=0|34=34|49=NESTITEST|52=20100531-19:00:34.279|56=QUANTTEST|10=147|8=FIX.4.2|9=62|35=0|34=35|49=NESTITEST|52=20100531-19:01:34.325|56=QUANTTEST|10=141|8=FIX.4.2|9=62|35=0|34=36|49=NESTITEST|52=20100531-19:02:34.339|56=QUANTTEST|10=148|8=FIX.4.2|9=62|35=0|34=37|49=NESTITEST|52=20100531-19:03:34.370|56=QUANTTEST|10=145|8=FIX.4.2|9=62|35=0|34=38|49=NESTITEST|52=20100531-19:04:34.400|56=QUANTTEST|10=141|8=FIX.4.2|9=62|35=0|34=39|49=NESTITEST|52=20100531-19:05:34.008|56=QUANTTEST|10=147|8=FIX.4.2|9=62|35=0|34=40|49=NESTITEST|52=20100531-19:06:34.038|56=QUANTTEST|10=143|8=FIX.4.2|9=62|35=0|34=41|49=NESTITEST|52=20100531-19:07:34.084|56=QUANTTEST|10=146|8=FIX.4.2|9=62|35=0|34=42|49=NESTITEST|52=20100531-19:08:34.114|56=QUANTTEST|10=142|8=FIX.4.2|9=62|35=0|34=43|49=NESTITEST|52=20100531-19:09:34.144|56=QUANTTEST|10=147|8=FIX.4.2|9=62|35=0|34=44|49=NESTITEST|52=20100531-19:10:34.174|56=QUANTTEST|10=143|8=FIX.4.2|9=62|35=0|34=45|49=NESTITEST|52=20100531-19:11:34.204|56=QUANTTEST|10=139|8=FIX.4.2|9=62|35=0|34=46|49=NESTITEST|52=20100531-19:12:34.234|56=QUANTTEST|10=144|8=FIX.4.2|9=62|35=0|34=47|49=NESTITEST|52=20100531-19:13:34.249|56=QUANTTEST|10=152|8=FIX.4.2|9=62|35=0|34=48|49=NESTITEST|52=20100531-19:14:34.310|56=QUANTTEST|10=143|8=FIX.4.2|9=62|35=0|34=49|49=NESTITEST|52=20100531-19:15:34.340|56=QUANTTEST|10=148|8=FIX.4.2|9=62|35=5|34=50|49=NESTITEST|52=20100531-19:16:08.355|56=QUANTTEST|10=153|8=FIX.4.2|9=74|35=A|34=51|49=NESTITEST|52=20100531-21:26:40.048|56=QUANTTEST|98=0|108=60|10=186|8=FIX.4.2|9=62|35=5|34=52|49=NESTITEST|52=20100531-21:26:45.086|56=QUANTTEST|10=151|8=FIX.4.2|9=74|35=A|34=53|49=NESTITEST|52=20100531-21:28:31.104|56=QUANTTEST|98=0|108=60|10=183|