8=FIX.4.2|9=67|35=A|34=1|49=NESTI|52=20111020-17:59:16.262|56=JMSTRAT|98=0|108=60|10=170|8=FIX.4.2|9=55|35=0|34=2|49=NESTI|52=20111020-18:00:16.210|56=JMSTRAT|10=103|8=FIX.4.2|9=55|35=0|34=3|49=NESTI|52=20111020-18:01:16.299|56=JMSTRAT|10=122|8=FIX.4.2|9=55|35=0|34=4|49=NESTI|52=20111020-18:02:16.404|56=JMSTRAT|10=112|8=FIX.4.2|9=55|35=0|34=5|49=NESTI|52=20111020-18:03:16.525|56=JMSTRAT|10=118|8=FIX.4.2|9=55|35=0|34=6|49=NESTI|52=20111020-18:04:16.723|56=JMSTRAT|10=120|8=FIX.4.2|9=55|35=0|34=7|49=NESTI|52=20111020-18:05:16.828|56=JMSTRAT|10=128|8=FIX.4.2|9=55|35=0|34=8|49=NESTI|52=20111020-18:06:16.011|56=JMSTRAT|10=114|8=FIX.4.2|9=55|35=0|34=9|49=NESTI|52=20111020-18:07:16.037|56=JMSTRAT|10=124|8=FIX.4.2|9=56|35=0|34=10|49=NESTI|52=20111020-18:08:16.158|56=JMSTRAT|10=170|8=FIX.4.2|9=56|35=0|34=11|49=NESTI|52=20111020-18:09:16.263|56=JMSTRAT|10=169|8=FIX.4.2|9=56|35=0|34=12|49=NESTI|52=20111020-18:10:16.383|56=JMSTRAT|10=165|8=FIX.4.2|9=56|35=0|34=13|49=NESTI|52=20111020-18:11:16.488|56=JMSTRAT|10=173|8=FIX.4.2|9=56|35=0|34=14|49=NESTI|52=20111020-18:12:16.592|56=JMSTRAT|10=171|8=FIX.4.2|9=56|35=0|34=15|49=NESTI|52=20111020-18:13:16.713|56=JMSTRAT|10=168|8=FIX.4.2|9=56|35=0|34=16|49=NESTI|52=20111020-18:14:16.818|56=JMSTRAT|10=176|8=FIX.4.2|9=56|35=0|34=17|49=NESTI|52=20111020-18:15:16.001|56=JMSTRAT|10=162|8=FIX.4.2|9=56|35=0|34=18|49=NESTI|52=20111020-18:16:16.043|56=JMSTRAT|10=170|8=FIX.4.2|9=56|35=0|34=19|49=NESTI|52=20111020-18:17:16.148|56=JMSTRAT|10=178|8=FIX.4.2|9=56|35=0|34=20|49=NESTI|52=20111020-18:18:16.268|56=JMSTRAT|10=174|8=FIX.4.2|9=56|35=0|34=21|49=NESTI|52=20111020-18:19:16.373|56=JMSTRAT|10=173|8=FIX.4.2|9=56|35=0|34=22|49=NESTI|52=20111020-18:20:16.477|56=JMSTRAT|10=171|8=FIX.4.2|9=56|35=0|34=23|49=NESTI|52=20111020-18:21:16.598|56=JMSTRAT|10=177|8=FIX.4.2|9=56|35=0|34=24|49=NESTI|52=20111020-18:22:16.703|56=JMSTRAT|10=167|8=FIX.4.2|9=56|35=0|34=25|49=NESTI|52=20111020-18:23:16.807|56=JMSTRAT|10=174|8=FIX.4.2|9=56|35=0|34=26|49=NESTI|52=20111020-18:24:16.022|56=JMSTRAT|10=165|8=FIX.4.2|9=56|35=0|34=27|49=NESTI|52=20111020-18:25:16.033|56=JMSTRAT|10=169|8=FIX.4.2|9=56|35=0|34=28|49=NESTI|52=20111020-18:26:16.153|56=JMSTRAT|10=174|8=FIX.4.2|9=56|35=0|34=29|49=NESTI|52=20111020-18:27:16.258|56=JMSTRAT|10=182|8=FIX.4.2|9=56|35=0|34=30|49=NESTI|52=20111020-18:28:16.378|56=JMSTRAT|10=178|8=FIX.4.2|9=56|35=0|34=31|49=NESTI|52=20111020-18:29:16.483|56=JMSTRAT|10=177|8=FIX.4.2|9=56|35=0|34=32|49=NESTI|52=20111020-18:30:16.588|56=JMSTRAT|10=176|8=FIX.4.2|9=68|35=A|34=33|49=NESTI|52=20111020-18:31:44.190|56=JMSTRAT|98=0|108=60|10=216|8=FIX.4.2|9=56|35=0|34=34|49=NESTI|52=20111020-18:32:44.045|56=JMSTRAT|10=169|8=FIX.4.2|9=68|35=A|34=35|49=NESTI|52=20111020-18:33:20.449|56=JMSTRAT|98=0|108=60|10=221|8=FIX.4.2|9=153|35=8|34=36|49=NESTI|52=20111020-18:34:15.382|56=JMSTRAT|6=0|11=IAA0002|14=1400|17=001|20=0|31=66.6|32=1400|37=001|38=1400|39=1|54=2|55=BBDC4|150=1|151=0|10=075|8=FIX.4.2|9=153|35=8|34=37|49=NESTI|52=20111020-18:34:21.241|56=JMSTRAT|6=0|11=IAA0004|14=1400|17=001|20=0|31=66.6|32=1400|37=001|38=1400|39=1|54=1|55=ITUB4|150=1|151=0|10=109|8=FIX.4.2|9=150|35=8|34=38|49=NESTI|52=20111020-18:34:24.475|56=JMSTRAT|6=0|11=IAA0006|14=400|17=001|20=0|31=66.6|32=400|37=001|38=400|39=1|54=1|55=CYRE3|150=1|151=0|10=228|8=FIX.4.2|9=150|35=8|34=39|49=NESTI|52=20111020-18:34:24.975|56=JMSTRAT|6=0|11=IAA0008|14=800|17=001|20=0|31=66.6|32=800|37=001|38=800|39=1|54=2|55=GFSA3|150=1|151=0|10=231|8=FIX.4.2|9=150|35=8|34=40|49=NESTI|52=20111020-18:34:25.428|56=JMSTRAT|6=0|11=IAA0010|14=700|17=001|20=0|31=66.6|32=700|37=001|38=700|39=1|54=2|55=GFSA3|150=1|151=0|10=207|8=FIX.4.2|9=153|35=8|34=41|49=NESTI|52=20111020-18:34:25.881|56=JMSTRAT|6=0|11=IAA0012|14=1200|17=001|20=0|31=66.6|32=1200|37=001|38=1200|39=1|54=2|55=GFSA3|150=1|151=0|10=092|8=FIX.4.2|9=150|35=8|34=42|49=NESTI|52=20111020-18:34:26.318|56=JMSTRAT|6=0|11=IAA0014|14=400|17=001|20=0|31=66.6|32=400|37=001|38=400|39=1|54=1|55=RSID3|150=1|151=0|10=219|8=FIX.4.2|9=150|35=8|34=43|49=NESTI|52=20111020-18:34:26.959|56=JMSTRAT|6=0|11=IAA0016|14=700|17=001|20=0|31=66.6|32=700|37=001|38=700|39=1|54=1|55=TCSA3|150=1|151=0|10=235|8=FIX.4.2|9=153|35=8|34=44|49=NESTI|52=20111020-18:34:27.428|56=JMSTRAT|6=0|11=IAA0018|14=3000|17=001|20=0|31=66.6|32=3000|37=001|38=3000|39=1|54=1|55=ALSC3|150=1|151=0|10=101|8=FIX.4.2|9=150|35=8|34=45|49=NESTI|52=20111020-18:34:28.443|56=JMSTRAT|6=0|11=IAA0020|14=800|17=001|20=0|31=66.6|32=800|37=001|38=800|39=1|54=2|55=IGTA3|150=1|151=0|10=220|8=FIX.4.2|9=153|35=8|34=46|49=NESTI|52=20111020-18:34:28.459|56=JMSTRAT|6=0|11=IAA0022|14=1300|17=001|20=0|31=66.6|32=1300|37=001|38=1300|39=1|54=2|55=IGTA3|150=1|151=0|10=109|8=FIX.4.2|9=150|35=8|34=47|49=NESTI|52=20111020-18:34:28.490|56=JMSTRAT|6=0|11=IAA0024|14=700|17=001|20=0|31=66.6|32=700|37=001|38=700|39=1|54=2|55=IGTA3|150=1|151=0|10=225|8=FIX.4.2|9=153|35=8|34=48|49=NESTI|52=20111020-18:34:28.537|56=JMSTRAT|6=0|11=IAA0026|14=2700|17=001|20=0|31=66.6|32=2700|37=001|38=2700|39=1|54=1|55=BRPR3|150=1|151=0|10=143|8=FIX.4.2|9=150|35=8|34=49|49=NESTI|52=20111020-18:34:28.568|56=JMSTRAT|6=0|11=IAA0028|14=800|17=001|20=0|31=66.6|32=800|37=001|38=800|39=1|54=1|55=MULT3|150=1|151=0|10=012|8=FIX.4.2|9=153|35=8|34=50|49=NESTI|52=20111020-18:34:28.600|56=JMSTRAT|6=0|11=IAA0030|14=1100|17=001|20=0|31=66.6|32=1100|37=001|38=1100|39=1|54=1|55=CCRO3|150=1|151=0|10=086|8=FIX.4.2|9=153|35=8|34=51|49=NESTI|52=20111020-18:34:28.631|56=JMSTRAT|6=0|11=IAA0032|14=1300|17=001|20=0|31=66.6|32=1300|37=001|38=1300|39=1|54=1|55=CCRO3|150=1|151=0|10=099|8=FIX.4.2|9=153|35=8|34=52|49=NESTI|52=20111020-18:34:28.678|56=JMSTRAT|6=0|11=IAA0034|14=1900|17=001|20=0|31=66.6|32=1900|37=001|38=1900|39=1|54=2|55=GOLL4|150=1|151=0|10=140|8=FIX.4.2|9=153|35=8|34=53|49=NESTI|52=20111020-18:34:28.709|56=JMSTRAT|6=0|11=IAA0036|14=1900|17=001|20=0|31=66.6|32=1900|37=001|38=1900|39=1|54=2|55=GOLL4|150=1|151=0|10=138|8=FIX.4.2|9=153|35=8|34=54|49=NESTI|52=20111020-18:34:28.803|56=JMSTRAT|6=0|11=IAA0038|14=1000|17=001|20=0|31=66.6|32=1000|37=001|38=1000|39=1|54=2|55=TAMM4|150=1|151=0|10=110|8=FIX.4.2|9=153|35=8|34=55|49=NESTI|52=20111020-18:34:28.928|56=JMSTRAT|6=0|11=IAA0040|14=1200|17=001|20=0|31=66.6|32=1200|37=001|38=1200|39=1|54=2|55=TAMM4|150=1|151=0|10=118|8=FIX.4.2|9=153|35=8|34=56|49=NESTI|52=20111020-18:34:28.959|56=JMSTRAT|6=0|11=IAA0042|14=3800|17=001|20=0|31=66.6|32=3800|37=001|38=3800|39=1|54=1|55=ECOR3|150=1|151=0|10=141|8=FIX.4.2|9=153|35=8|34=57|49=NESTI|52=20111020-18:34:29.037|56=JMSTRAT|6=0|11=IAA0044|14=4900|17=001|20=0|31=66.6|32=4900|37=001|38=4900|39=1|54=1|55=ECOR3|150=1|151=0|10=138|8=FIX.4.2|9=56|35=0|34=58|49=NESTI|52=20111020-18:35:29.236|56=JMSTRAT|10=183|8=FIX.4.2|9=56|35=0|34=59|49=NESTI|52=20111020-18:36:29.372|56=JMSTRAT|10=186|8=FIX.4.2|9=56|35=0|34=60|49=NESTI|52=20111020-18:37:29.508|56=JMSTRAT|10=180|8=FIX.4.2|9=56|35=0|34=61|49=NESTI|52=20111020-18:38:29.628|56=JMSTRAT|10=185|8=FIX.4.2|9=56|35=0|34=62|49=NESTI|52=20111020-18:39:29.795|56=JMSTRAT|10=192|8=FIX.4.2|9=68|35=A|34=63|49=NESTI|52=20111020-18:45:23.596|56=JMSTRAT|98=0|108=60|10=231|8=FIX.4.2|9=56|35=0|34=64|49=NESTI|52=20111020-18:46:23.545|56=JMSTRAT|10=179|8=FIX.4.2|9=56|35=0|34=65|49=NESTI|52=20111020-18:47:23.712|56=JMSTRAT|10=177|8=FIX.4.2|9=56|35=0|34=66|49=NESTI|52=20111020-18:48:23.817|56=JMSTRAT|10=185|8=FIX.4.2|9=68|35=A|34=67|49=NESTI|52=20111020-18:49:17.672|56=JMSTRAT|98=0|108=60|10=237|8=FIX.4.2|9=68|35=A|34=68|49=NESTI|52=20111020-18:49:41.139|56=JMSTRAT|98=0|108=60|10=233|8=FIX.4.2|9=56|35=0|34=69|49=NESTI|52=20111020-18:50:41.103|56=JMSTRAT|10=169|8=FIX.4.2|9=68|35=A|34=70|49=NESTI|52=20111020-19:49:45.409|56=JMSTRAT|98=0|108=60|10=231|