8=FIX.4.2|9=69|35=A|34=1|49=TESTACC|52=20100302-14:18:07.402|56=TESTINI|98=0|108=60|10=032|8=FIX.4.2|9=114|35=3|34=2|49=TESTACC|52=20100302-14:18:07.480|56=TESTINI|45=2|58=Tag specified out of required order|371=50|372=D|10=022|8=FIX.4.2|9=57|35=5|34=3|49=TESTACC|52=20100302-14:18:33.058|56=TESTINI|10=253|8=FIX.4.2|9=69|35=A|34=4|49=TESTACC|52=20100302-14:19:02.183|56=TESTINI|98=0|108=60|10=037|8=FIX.4.2|9=57|35=0|34=5|49=TESTACC|52=20100302-14:20:02.104|56=TESTINI|10=231|8=FIX.4.2|9=66|35=1|34=6|49=TESTACC|52=20100302-14:20:14.120|56=TESTINI|112=TEST|10=252|8=FIX.4.2|9=114|35=3|34=7|49=TESTACC|52=20100302-14:20:18.573|56=TESTINI|45=5|58=Tag specified out of required order|371=50|372=D|10=028|8=FIX.4.2|9=66|35=0|34=8|49=TESTACC|52=20100302-14:20:18.573|56=TESTINI|112=TEST|10=013|8=FIX.4.2|9=57|35=5|34=9|49=TESTACC|52=20100302-14:20:25.573|56=TESTINI|10=255|