8=FIX.4.2|9=69|35=A|34=1|49=NESTFIX|52=20100317-13:49:13.043|56=RATESBZ|98=0|108=60|10=060|8=FIX.4.2|9=69|35=A|34=2|49=NESTFIX|52=20100317-13:49:36.989|56=RATESBZ|98=0|108=60|10=085|8=FIX.4.2|9=69|35=A|34=3|49=NESTFIX|52=20100317-13:52:11.103|56=RATESBZ|98=0|108=60|10=051|8=FIX.4.2|9=69|35=A|34=4|49=NESTFIX|52=20100317-13:53:05.158|56=RATESBZ|98=0|108=60|10=066|8=FIX.4.2|9=69|35=A|34=5|49=NESTFIX|52=20100317-13:53:26.452|56=RATESBZ|98=0|108=60|10=067|8=FIX.4.2|9=69|35=A|34=6|49=NESTFIX|52=20100317-13:55:37.104|56=RATESBZ|98=0|108=60|10=066|8=FIX.4.2|9=69|35=A|34=7|49=NESTFIX|52=20100317-13:56:21.279|56=RATESBZ|98=0|108=60|10=074|8=FIX.4.2|9=69|35=A|34=8|49=NESTFIX|52=20100317-13:56:34.664|56=RATESBZ|98=0|108=60|10=077|8=FIX.4.2|9=69|35=A|34=9|49=NESTFIX|52=20100317-13:58:07.797|56=RATESBZ|98=0|108=60|10=087|8=FIX.4.2|9=70|35=A|34=10|49=NESTFIX|52=20100317-14:00:45.366|56=RATESBZ|98=0|108=60|10=101|8=FIX.4.2|9=70|35=A|34=11|49=NESTFIX|52=20100317-14:01:55.037|56=RATESBZ|98=0|108=60|10=099|8=FIX.4.2|9=70|35=A|34=12|49=NESTFIX|52=20100317-14:04:10.914|56=RATESBZ|98=0|108=60|10=098|8=FIX.4.2|9=70|35=A|34=13|49=NESTFIX|52=20100317-14:04:32.895|56=RATESBZ|98=0|108=60|10=111|8=FIX.4.2|9=70|35=A|34=14|49=NESTFIX|52=20100317-14:06:41.565|56=RATESBZ|98=0|108=60|10=108|8=FIX.4.2|9=135|35=8|34=15|49=NESTFIX|52=20100317-14:06:50.473|56=RATESBZ|6=0|14=7.5|17=001|20=0|32=7.5|37=001|38=15|39=1|54=1|55=2DIJF1|150=1|151=7.5|10=052|8=FIX.4.2|9=70|35=A|34=16|49=NESTFIX|52=20100317-14:15:42.576|56=RATESBZ|98=0|108=60|10=113|8=FIX.4.2|9=70|35=A|34=17|49=NESTFIX|52=20100317-14:16:13.948|56=RATESBZ|98=0|108=60|10=116|8=FIX.4.2|9=70|35=A|34=18|49=NESTFIX|52=20100317-14:19:51.501|56=RATESBZ|98=0|108=60|10=107|8=FIX.4.2|9=70|35=A|34=19|49=NESTFIX|52=20100317-14:20:04.200|56=RATESBZ|98=0|108=60|10=094|8=FIX.4.2|9=70|35=A|34=20|49=NESTFIX|52=20100317-14:26:40.793|56=RATESBZ|98=0|108=60|10=109|8=FIX.4.2|9=70|35=A|34=21|49=NESTFIX|52=20100317-14:27:11.151|56=RATESBZ|98=0|108=60|10=097|8=FIX.4.2|9=58|35=0|34=22|49=NESTFIX|52=20100317-14:28:11.040|56=RATESBZ|10=057|8=FIX.4.2|9=58|35=0|34=23|49=NESTFIX|52=20100317-14:29:11.757|56=RATESBZ|10=074|8=FIX.4.2|9=58|35=0|34=24|49=NESTFIX|52=20100317-14:30:11.584|56=RATESBZ|10=065|8=FIX.4.2|9=58|35=0|34=25|49=NESTFIX|52=20100317-14:31:11.411|56=RATESBZ|10=056|8=FIX.4.2|9=58|35=0|34=26|49=NESTFIX|52=20100317-14:32:11.238|56=RATESBZ|10=065|8=FIX.4.2|9=58|35=0|34=27|49=NESTFIX|52=20100317-14:33:11.064|56=RATESBZ|10=064|8=FIX.4.2|9=58|35=0|34=28|49=NESTFIX|52=20100317-14:34:11.016|56=RATESBZ|10=063|8=FIX.4.2|9=58|35=0|34=29|49=NESTFIX|52=20100317-14:35:11.736|56=RATESBZ|10=074|8=FIX.4.2|9=58|35=0|34=30|49=NESTFIX|52=20100317-14:36:11.563|56=RATESBZ|10=065|8=FIX.4.2|9=58|35=0|34=31|49=NESTFIX|52=20100317-14:37:11.389|56=RATESBZ|10=073|8=FIX.4.2|9=58|35=0|34=32|49=NESTFIX|52=20100317-14:38:11.216|56=RATESBZ|10=064|8=FIX.4.2|9=58|35=0|34=33|49=NESTFIX|52=20100317-14:39:11.043|56=RATESBZ|10=064|8=FIX.4.2|9=58|35=0|34=34|49=NESTFIX|52=20100317-14:40:11.884|56=RATESBZ|10=070|8=FIX.4.2|9=58|35=0|34=35|49=NESTFIX|52=20100317-14:41:11.710|56=RATESBZ|10=060|8=FIX.4.2|9=58|35=0|34=36|49=NESTFIX|52=20100317-14:42:11.537|56=RATESBZ|10=069|8=FIX.4.2|9=58|35=0|34=37|49=NESTFIX|52=20100317-14:43:11.364|56=RATESBZ|10=069|8=FIX.4.2|9=58|35=0|34=38|49=NESTFIX|52=20100317-14:44:11.191|56=RATESBZ|10=069|8=FIX.4.2|9=58|35=0|34=39|49=NESTFIX|52=20100317-14:45:11.018|56=RATESBZ|10=069|8=FIX.4.2|9=58|35=0|34=40|49=NESTFIX|52=20100317-14:46:11.858|56=RATESBZ|10=074|8=FIX.4.2|9=58|35=0|34=41|49=NESTFIX|52=20100317-14:47:11.685|56=RATESBZ|10=074|8=FIX.4.2|9=58|35=0|34=42|49=NESTFIX|52=20100317-14:48:11.512|56=RATESBZ|10=065|8=FIX.4.2|9=58|35=0|34=43|49=NESTFIX|52=20100317-14:49:11.339|56=RATESBZ|10=074|8=FIX.4.2|9=58|35=0|34=44|49=NESTFIX|52=20100317-14:50:11.165|56=RATESBZ|10=064|8=FIX.4.2|9=58|35=0|34=45|49=NESTFIX|52=20100317-14:51:11.101|56=RATESBZ|10=056|8=FIX.4.2|9=58|35=0|34=46|49=NESTFIX|52=20100317-14:52:11.833|56=RATESBZ|10=070|8=FIX.4.2|9=58|35=0|34=47|49=NESTFIX|52=20100317-14:53:11.660|56=RATESBZ|10=070|8=FIX.4.2|9=58|35=0|34=48|49=NESTFIX|52=20100317-14:54:11.486|56=RATESBZ|10=078|8=FIX.4.2|9=58|35=0|34=49|49=NESTFIX|52=20100317-14:55:11.313|56=RATESBZ|10=069|8=FIX.4.2|9=58|35=0|34=50|49=NESTFIX|52=20100317-14:56:11.140|56=RATESBZ|10=060|8=FIX.4.2|9=58|35=0|34=51|49=NESTFIX|52=20100317-14:57:11.076|56=RATESBZ|10=070|8=FIX.4.2|9=58|35=0|34=52|49=NESTFIX|52=20100317-14:58:11.808|56=RATESBZ|10=075|8=FIX.4.2|9=58|35=0|34=53|49=NESTFIX|52=20100317-14:59:11.634|56=RATESBZ|10=074|8=FIX.4.2|9=58|35=0|34=54|49=NESTFIX|52=20100317-15:00:11.461|56=RATESBZ|10=060|8=FIX.4.2|9=58|35=0|34=55|49=NESTFIX|52=20100317-15:01:11.288|56=RATESBZ|10=069|8=FIX.4.2|9=58|35=0|34=56|49=NESTFIX|52=20100317-15:02:11.115|56=RATESBZ|10=060|8=FIX.4.2|9=58|35=0|34=57|49=NESTFIX|52=20100317-15:03:11.051|56=RATESBZ|10=061|8=FIX.4.2|9=58|35=0|34=58|49=NESTFIX|52=20100317-15:04:11.782|56=RATESBZ|10=074|8=FIX.4.2|9=58|35=0|34=59|49=NESTFIX|52=20100317-15:05:11.609|56=RATESBZ|10=074|8=FIX.4.2|9=58|35=0|34=60|49=NESTFIX|52=20100317-15:06:11.436|56=RATESBZ|10=065|8=FIX.4.2|9=58|35=0|34=61|49=NESTFIX|52=20100317-15:07:11.262|56=RATESBZ|10=064|8=FIX.4.2|9=58|35=0|34=62|49=NESTFIX|52=20100317-15:08:11.089|56=RATESBZ|10=073|8=FIX.4.2|9=58|35=0|34=63|49=NESTFIX|52=20100317-15:09:11.011|56=RATESBZ|10=060|8=FIX.4.2|9=58|35=0|34=64|49=NESTFIX|52=20100317-15:10:11.743|56=RATESBZ|10=065|8=FIX.4.2|9=58|35=0|34=65|49=NESTFIX|52=20100317-15:11:11.570|56=RATESBZ|10=065|8=FIX.4.2|9=58|35=0|34=66|49=NESTFIX|52=20100317-15:12:11.396|56=RATESBZ|10=073|8=FIX.4.2|9=58|35=0|34=67|49=NESTFIX|52=20100317-15:13:11.223|56=RATESBZ|10=064|8=FIX.4.2|9=58|35=0|34=68|49=NESTFIX|52=20100317-15:14:11.050|56=RATESBZ|10=064|8=FIX.4.2|9=58|35=0|34=69|49=NESTFIX|52=20100317-15:15:11.891|56=RATESBZ|10=079|8=FIX.4.2|9=58|35=0|34=70|49=NESTFIX|52=20100317-15:16:11.717|56=RATESBZ|10=069|8=FIX.4.2|9=58|35=0|34=71|49=NESTFIX|52=20100317-15:17:11.532|56=RATESBZ|10=066|8=FIX.4.2|9=58|35=0|34=72|49=NESTFIX|52=20100317-15:18:11.359|56=RATESBZ|10=075|8=FIX.4.2|9=58|35=0|34=73|49=NESTFIX|52=20100317-15:19:11.186|56=RATESBZ|10=075|8=FIX.4.2|9=58|35=0|34=74|49=NESTFIX|52=20100317-15:20:11.013|56=RATESBZ|10=057|8=FIX.4.2|9=58|35=0|34=75|49=NESTFIX|52=20100317-15:21:11.853|56=RATESBZ|10=071|8=FIX.4.2|9=58|35=0|34=76|49=NESTFIX|52=20100317-15:22:11.680|56=RATESBZ|10=071|8=FIX.4.2|9=58|35=0|34=77|49=NESTFIX|52=20100317-15:23:11.507|56=RATESBZ|10=071|8=FIX.4.2|9=58|35=0|34=78|49=NESTFIX|52=20100317-15:24:11.334|56=RATESBZ|10=071|8=FIX.4.2|9=58|35=0|34=79|49=NESTFIX|52=20100317-15:25:11.160|56=RATESBZ|10=070|8=FIX.4.2|9=58|35=0|34=80|49=NESTFIX|52=20100317-15:26:11.096|56=RATESBZ|10=071|8=FIX.4.2|9=58|35=0|34=81|49=NESTFIX|52=20100317-15:27:11.828|56=RATESBZ|10=076|8=FIX.4.2|9=58|35=0|34=82|49=NESTFIX|52=20100317-15:28:11.655|56=RATESBZ|10=076|8=FIX.4.2|9=58|35=0|34=83|49=NESTFIX|52=20100317-15:29:11.481|56=RATESBZ|10=075|8=FIX.4.2|9=58|35=0|34=84|49=NESTFIX|52=20100317-15:30:11.308|56=RATESBZ|10=066|8=FIX.4.2|9=58|35=0|34=85|49=NESTFIX|52=20100317-15:31:11.135|56=RATESBZ|10=066|8=FIX.4.2|9=58|35=0|34=86|49=NESTFIX|52=20100317-15:32:11.071|56=RATESBZ|10=067|8=FIX.4.2|9=58|35=0|34=87|49=NESTFIX|52=20100317-15:33:11.803|56=RATESBZ|10=072|8=FIX.4.2|9=58|35=0|34=88|49=NESTFIX|52=20100317-15:34:11.629|56=RATESBZ|10=080|8=FIX.4.2|9=58|35=0|34=89|49=NESTFIX|52=20100317-15:35:11.453|56=RATESBZ|10=077|8=FIX.4.2|9=58|35=0|34=90|49=NESTFIX|52=20100317-15:36:11.280|56=RATESBZ|10=068|8=FIX.4.2|9=58|35=0|34=91|49=NESTFIX|52=20100317-15:37:11.106|56=RATESBZ|10=067|8=FIX.4.2|9=58|35=0|34=92|49=NESTFIX|52=20100317-15:38:11.042|56=RATESBZ|10=068|8=FIX.4.2|9=58|35=0|34=93|49=NESTFIX|52=20100317-15:39:11.774|56=RATESBZ|10=082|8=FIX.4.2|9=58|35=0|34=94|49=NESTFIX|52=20100317-15:40:11.601|56=RATESBZ|10=064|8=FIX.4.2|9=58|35=0|34=95|49=NESTFIX|52=20100317-15:41:11.427|56=RATESBZ|10=072|8=FIX.4.2|9=58|35=0|34=96|49=NESTFIX|52=20100317-15:42:11.254|56=RATESBZ|10=072|8=FIX.4.2|9=58|35=0|34=97|49=NESTFIX|52=20100317-15:43:11.081|56=RATESBZ|10=072|8=FIX.4.2|9=58|35=0|34=98|49=NESTFIX|52=20100317-15:44:11.017|56=RATESBZ|10=073|8=FIX.4.2|9=58|35=0|34=99|49=NESTFIX|52=20100317-15:45:11.749|56=RATESBZ|10=087|8=FIX.4.2|9=59|35=0|34=100|49=NESTFIX|52=20100317-15:46:11.575|56=RATESBZ|10=117|8=FIX.4.2|9=59|35=0|34=101|49=NESTFIX|52=20100317-15:47:11.402|56=RATESBZ|10=108|8=FIX.4.2|9=59|35=0|34=102|49=NESTFIX|52=20100317-15:48:11.229|56=RATESBZ|10=117|8=FIX.4.2|9=59|35=0|34=103|49=NESTFIX|52=20100317-15:49:11.056|56=RATESBZ|10=117|8=FIX.4.2|9=59|35=0|34=104|49=NESTFIX|52=20100317-15:50:11.896|56=RATESBZ|10=122|8=FIX.4.2|9=59|35=0|34=105|49=NESTFIX|52=20100317-15:51:11.723|56=RATESBZ|10=113|8=FIX.4.2|9=59|35=0|34=106|49=NESTFIX|52=20100317-15:52:11.537|56=RATESBZ|10=118|8=FIX.4.2|9=59|35=0|34=107|49=NESTFIX|52=20100317-15:53:11.364|56=RATESBZ|10=118|8=FIX.4.2|9=59|35=0|34=108|49=NESTFIX|52=20100317-15:54:11.190|56=RATESBZ|10=117|8=FIX.4.2|9=59|35=0|34=109|49=NESTFIX|52=20100317-15:55:11.017|56=RATESBZ|10=117|8=FIX.4.2|9=59|35=0|34=110|49=NESTFIX|52=20100317-15:56:11.858|56=RATESBZ|10=123|8=FIX.4.2|9=59|35=0|34=111|49=NESTFIX|52=20100317-15:57:11.685|56=RATESBZ|10=123|8=FIX.4.2|9=59|35=0|34=112|49=NESTFIX|52=20100317-15:58:11.510|56=RATESBZ|10=112|8=FIX.4.2|9=59|35=0|34=113|49=NESTFIX|52=20100317-15:59:11.337|56=RATESBZ|10=121|8=FIX.4.2|9=59|35=0|34=114|49=NESTFIX|52=20100317-16:00:11.147|56=RATESBZ|10=108|8=FIX.4.2|9=59|35=0|34=115|49=NESTFIX|52=20100317-16:01:11.067|56=RATESBZ|10=111|8=FIX.4.2|9=59|35=0|34=116|49=NESTFIX|52=20100317-16:02:11.808|56=RATESBZ|10=116|8=FIX.4.2|9=59|35=0|34=117|49=NESTFIX|52=20100317-16:03:11.635|56=RATESBZ|10=116|8=FIX.4.2|9=59|35=0|34=118|49=NESTFIX|52=20100317-16:04:11.462|56=RATESBZ|10=116|8=FIX.4.2|9=59|35=0|34=119|49=NESTFIX|52=20100317-16:05:11.298|56=RATESBZ|10=125|8=FIX.4.2|9=59|35=0|34=120|49=NESTFIX|52=20100317-16:06:11.124|56=RATESBZ|10=106|8=FIX.4.2|9=59|35=0|34=121|49=NESTFIX|52=20100317-16:07:11.014|56=RATESBZ|10=106|8=FIX.4.2|9=59|35=0|34=122|49=NESTFIX|52=20100317-16:08:11.792|56=RATESBZ|10=121|8=FIX.4.2|9=59|35=0|34=123|49=NESTFIX|52=20100317-16:09:11.602|56=RATESBZ|10=113|8=FIX.4.2|9=59|35=0|34=124|49=NESTFIX|52=20100317-16:10:11.429|56=RATESBZ|10=113|8=FIX.4.2|9=59|35=0|34=125|49=NESTFIX|52=20100317-16:11:11.249|56=RATESBZ|10=115|8=FIX.4.2|9=59|35=0|34=126|49=NESTFIX|52=20100317-16:12:11.075|56=RATESBZ|10=114|8=FIX.4.2|9=59|35=0|34=127|49=NESTFIX|52=20100317-16:13:11.916|56=RATESBZ|10=120|8=FIX.4.2|9=59|35=0|34=128|49=NESTFIX|52=20100317-16:14:11.743|56=RATESBZ|10=120|8=FIX.4.2|9=59|35=0|34=129|49=NESTFIX|52=20100317-16:15:11.570|56=RATESBZ|10=120|8=FIX.4.2|9=59|35=0|34=130|49=NESTFIX|52=20100317-16:16:11.396|56=RATESBZ|10=119|8=FIX.4.2|9=59|35=0|34=131|49=NESTFIX|52=20100317-16:17:11.223|56=RATESBZ|10=110|8=FIX.4.2|9=59|35=0|34=132|49=NESTFIX|52=20100317-16:18:11.050|56=RATESBZ|10=110|8=FIX.4.2|9=59|35=0|34=133|49=NESTFIX|52=20100317-16:19:11.891|56=RATESBZ|10=125|8=FIX.4.2|9=59|35=0|34=134|49=NESTFIX|52=20100317-16:20:11.718|56=RATESBZ|10=116|8=FIX.4.2|9=59|35=0|34=135|49=NESTFIX|52=20100317-16:21:11.544|56=RATESBZ|10=115|8=FIX.4.2|9=59|35=0|34=136|49=NESTFIX|52=20100317-16:22:11.371|56=RATESBZ|10=115|8=FIX.4.2|9=59|35=0|34=137|49=NESTFIX|52=20100317-16:23:11.198|56=RATESBZ|10=124|8=FIX.4.2|9=59|35=0|34=138|49=NESTFIX|52=20100317-16:24:11.025|56=RATESBZ|10=115|8=FIX.4.2|9=59|35=0|34=139|49=NESTFIX|52=20100317-16:25:11.865|56=RATESBZ|10=129|8=FIX.4.2|9=59|35=0|34=140|49=NESTFIX|52=20100317-16:26:11.692|56=RATESBZ|10=120|8=FIX.4.2|9=59|35=0|34=141|49=NESTFIX|52=20100317-16:27:11.519|56=RATESBZ|10=120|8=FIX.4.2|9=59|35=0|34=142|49=NESTFIX|52=20100317-16:28:11.346|56=RATESBZ|10=120|8=FIX.4.2|9=59|35=0|34=143|49=NESTFIX|52=20100317-16:29:11.172|56=RATESBZ|10=119|8=FIX.4.2|9=59|35=0|34=144|49=NESTFIX|52=20100317-16:30:11.062|56=RATESBZ|10=110|8=FIX.4.2|9=71|35=A|34=145|49=NESTFIX|52=20100317-16:51:46.864|56=RATESBZ|98=0|108=60|10=171|8=FIX.4.2|9=59|35=0|34=146|49=NESTFIX|52=20100317-16:52:46.051|56=RATESBZ|10=122|8=FIX.4.2|9=59|35=0|34=147|49=NESTFIX|52=20100317-16:53:46.471|56=RATESBZ|10=130|8=FIX.4.2|9=59|35=0|34=148|49=NESTFIX|52=20100317-16:54:46.297|56=RATESBZ|10=138|8=FIX.4.2|9=59|35=0|34=149|49=NESTFIX|52=20100317-16:55:46.124|56=RATESBZ|10=129|8=FIX.4.2|9=59|35=0|34=150|49=NESTFIX|52=20100317-16:56:46.372|56=RATESBZ|10=127|8=FIX.4.2|9=59|35=0|34=151|49=NESTFIX|52=20100317-16:57:46.199|56=RATESBZ|10=136|8=FIX.4.2|9=59|35=0|34=152|49=NESTFIX|52=20100317-16:58:46.026|56=RATESBZ|10=127|8=FIX.4.2|9=59|35=0|34=153|49=NESTFIX|52=20100317-16:59:46.445|56=RATESBZ|10=134|8=FIX.4.2|9=59|35=0|34=154|49=NESTFIX|52=20100317-17:00:46.272|56=RATESBZ|10=120|8=FIX.4.2|9=59|35=0|34=155|49=NESTFIX|52=20100317-17:01:46.099|56=RATESBZ|10=129|8=FIX.4.2|9=59|35=0|34=156|49=NESTFIX|52=20100317-17:02:46.347|56=RATESBZ|10=127|8=FIX.4.2|9=59|35=0|34=157|49=NESTFIX|52=20100317-17:03:46.174|56=RATESBZ|10=127|8=FIX.4.2|9=59|35=0|34=158|49=NESTFIX|52=20100317-17:04:46.000|56=RATESBZ|10=117|8=FIX.4.2|9=59|35=0|34=159|49=NESTFIX|52=20100317-17:05:46.420|56=RATESBZ|10=125|8=FIX.4.2|9=59|35=0|34=160|49=NESTFIX|52=20100317-17:06:46.247|56=RATESBZ|10=125|8=FIX.4.2|9=59|35=0|34=161|49=NESTFIX|52=20100317-17:07:46.073|56=RATESBZ|10=124|8=FIX.4.2|9=59|35=0|34=162|49=NESTFIX|52=20100317-17:08:46.321|56=RATESBZ|10=122|8=FIX.4.2|9=59|35=0|34=163|49=NESTFIX|52=20100317-17:09:46.148|56=RATESBZ|10=131|8=FIX.4.2|9=59|35=0|34=164|49=NESTFIX|52=20100317-17:10:46.568|56=RATESBZ|10=130|8=FIX.4.2|9=59|35=0|34=165|49=NESTFIX|52=20100317-17:11:46.395|56=RATESBZ|10=130|8=FIX.4.2|9=59|35=0|34=166|49=NESTFIX|52=20100317-17:12:46.221|56=RATESBZ|10=120|8=FIX.4.2|9=59|35=0|34=167|49=NESTFIX|52=20100317-17:13:46.048|56=RATESBZ|10=129|8=FIX.4.2|9=59|35=0|34=168|49=NESTFIX|52=20100317-17:14:46.296|56=RATESBZ|10=136|8=FIX.4.2|9=59|35=0|34=169|49=NESTFIX|52=20100317-17:15:46.123|56=RATESBZ|10=127|8=FIX.4.2|9=59|35=0|34=170|49=NESTFIX|52=20100317-17:16:46.542|56=RATESBZ|10=125|8=FIX.4.2|9=59|35=0|34=171|49=NESTFIX|52=20100317-17:17:46.369|56=RATESBZ|10=134|8=FIX.4.2|9=59|35=0|34=172|49=NESTFIX|52=20100317-17:18:46.196|56=RATESBZ|10=134|8=FIX.4.2|9=59|35=0|34=173|49=NESTFIX|52=20100317-17:19:46.023|56=RATESBZ|10=125|8=FIX.4.2|9=59|35=0|34=174|49=NESTFIX|52=20100317-17:20:46.271|56=RATESBZ|10=123|8=FIX.4.2|9=59|35=0|34=175|49=NESTFIX|52=20100317-17:21:46.097|56=RATESBZ|10=131|8=FIX.4.2|9=59|35=0|34=176|49=NESTFIX|52=20100317-17:22:46.517|56=RATESBZ|10=130|8=FIX.4.2|9=59|35=0|34=177|49=NESTFIX|52=20100317-17:23:46.344|56=RATESBZ|10=130|8=FIX.4.2|9=59|35=0|34=178|49=NESTFIX|52=20100317-17:24:46.171|56=RATESBZ|10=130|8=FIX.4.2|9=59|35=0|34=179|49=NESTFIX|52=20100317-17:25:46.418|56=RATESBZ|10=136|8=FIX.4.2|9=59|35=0|34=180|49=NESTFIX|52=20100317-17:26:46.245|56=RATESBZ|10=127|8=FIX.4.2|9=59|35=0|34=181|49=NESTFIX|52=20100317-17:27:46.066|56=RATESBZ|10=130|8=FIX.4.2|9=59|35=0|34=182|49=NESTFIX|52=20100317-17:28:46.486|56=RATESBZ|10=138|8=FIX.4.2|9=59|35=0|34=183|49=NESTFIX|52=20100317-17:29:46.312|56=RATESBZ|10=128|8=FIX.4.2|9=59|35=0|34=184|49=NESTFIX|52=20100317-17:30:46.139|56=RATESBZ|10=128|8=FIX.4.2|9=59|35=0|34=185|49=NESTFIX|52=20100317-17:31:46.387|56=RATESBZ|10=135|8=FIX.4.2|9=59|35=0|34=186|49=NESTFIX|52=20100317-17:32:46.214|56=RATESBZ|10=126|8=FIX.4.2|9=71|35=A|34=187|49=NESTFIX|52=20100317-17:35:37.785|56=RATESBZ|98=0|108=60|10=182|8=FIX.4.2|9=71|35=A|34=188|49=NESTFIX|52=20100317-17:36:05.834|56=RATESBZ|98=0|108=60|10=174|8=FIX.4.2|9=71|35=A|34=189|49=NESTFIX|52=20100317-17:36:14.945|56=RATESBZ|98=0|108=60|10=178|8=FIX.4.2|9=59|35=0|34=190|49=NESTFIX|52=20100317-17:37:14.943|56=RATESBZ|10=130|8=FIX.4.2|9=68|35=1|34=191|49=NESTFIX|52=20100317-17:37:26.097|56=RATESBZ|112=TEST|10=153|8=FIX.4.2|9=71|35=A|34=192|49=NESTFIX|52=20100317-20:46:39.019|56=RATESBZ|98=0|108=60|10=166|8=FIX.4.2|9=59|35=0|34=193|49=NESTFIX|52=20100317-20:47:39.503|56=RATESBZ|10=127|8=FIX.4.2|9=59|35=0|34=194|49=NESTFIX|52=20100317-20:48:39.331|56=RATESBZ|10=128|8=FIX.4.2|9=59|35=0|34=195|49=NESTFIX|52=20100317-20:49:39.157|56=RATESBZ|10=136|8=FIX.4.2|9=59|35=0|34=196|49=NESTFIX|52=20100317-20:50:39.421|56=RATESBZ|10=123|8=FIX.4.2|9=59|35=0|34=197|49=NESTFIX|52=20100317-20:51:39.242|56=RATESBZ|10=126|8=FIX.4.2|9=59|35=0|34=198|49=NESTFIX|52=20100317-20:52:39.068|56=RATESBZ|10=134|8=FIX.4.2|9=59|35=0|34=199|49=NESTFIX|52=20100317-20:53:39.473|56=RATESBZ|10=136|8=FIX.4.2|9=59|35=0|34=200|49=NESTFIX|52=20100317-20:54:39.299|56=RATESBZ|10=126|8=FIX.4.2|9=59|35=0|34=201|49=NESTFIX|52=20100317-20:55:39.130|56=RATESBZ|10=112|8=FIX.4.2|9=59|35=0|34=202|49=NESTFIX|52=20100317-20:56:39.378|56=RATESBZ|10=128|8=FIX.4.2|9=59|35=0|34=203|49=NESTFIX|52=20100317-20:57:39.198|56=RATESBZ|10=130|8=FIX.4.2|9=59|35=0|34=204|49=NESTFIX|52=20100317-20:58:39.022|56=RATESBZ|10=118|8=FIX.4.2|9=59|35=0|34=205|49=NESTFIX|52=20100317-20:59:39.480|56=RATESBZ|10=128|8=FIX.4.2|9=59|35=0|34=206|49=NESTFIX|52=20100317-21:00:39.306|56=RATESBZ|10=113|8=FIX.4.2|9=59|35=0|34=207|49=NESTFIX|52=20100317-21:01:39.132|56=RATESBZ|10=112|8=FIX.4.2|9=59|35=0|34=208|49=NESTFIX|52=20100317-21:02:39.335|56=RATESBZ|10=119|8=FIX.4.2|9=59|35=0|34=209|49=NESTFIX|52=20100317-21:03:39.163|56=RATESBZ|10=120|8=FIX.4.2|9=59|35=0|34=210|49=NESTFIX|52=20100317-21:04:39.601|56=RATESBZ|10=110|8=FIX.4.2|9=59|35=0|34=211|49=NESTFIX|52=20100317-21:05:39.422|56=RATESBZ|10=113|8=FIX.4.2|9=59|35=0|34=212|49=NESTFIX|52=20100317-21:06:39.245|56=RATESBZ|10=118|8=FIX.4.2|9=59|35=0|34=213|49=NESTFIX|52=20100317-21:07:39.060|56=RATESBZ|10=115|8=FIX.4.2|9=59|35=0|34=214|49=NESTFIX|52=20100317-21:08:39.276|56=RATESBZ|10=126|8=FIX.4.2|9=59|35=0|34=215|49=NESTFIX|52=20100317-21:09:39.102|56=RATESBZ|10=116|8=FIX.4.2|9=59|35=0|34=216|49=NESTFIX|52=20100317-21:10:39.550|56=RATESBZ|10=116|8=FIX.4.2|9=59|35=0|34=217|49=NESTFIX|52=20100317-21:11:39.362|56=RATESBZ|10=119|8=FIX.4.2|9=59|35=0|34=218|49=NESTFIX|52=20100317-21:12:39.188|56=RATESBZ|10=127|8=FIX.4.2|9=59|35=0|34=219|49=NESTFIX|52=20100317-21:13:39.007|56=RATESBZ|10=119|8=FIX.4.2|9=59|35=0|34=220|49=NESTFIX|52=20100317-21:14:39.243|56=RATESBZ|10=114|8=FIX.4.2|9=59|35=0|34=221|49=NESTFIX|52=20100317-21:15:39.034|56=RATESBZ|10=114|8=FIX.4.2|9=59|35=0|34=222|49=NESTFIX|52=20100317-21:16:39.472|56=RATESBZ|10=122|8=FIX.4.2|9=59|35=0|34=223|49=NESTFIX|52=20100317-21:17:39.298|56=RATESBZ|10=130|8=FIX.4.2|9=59|35=0|34=224|49=NESTFIX|52=20100317-21:18:39.118|56=RATESBZ|10=123|8=FIX.4.2|9=59|35=0|34=225|49=NESTFIX|52=20100317-21:19:39.334|56=RATESBZ|10=125|8=FIX.4.2|9=59|35=0|34=226|49=NESTFIX|52=20100317-21:20:39.166|56=RATESBZ|10=121|8=FIX.4.2|9=59|35=0|34=227|49=NESTFIX|52=20100317-21:21:39.578|56=RATESBZ|10=130|8=FIX.4.2|9=59|35=0|34=228|49=NESTFIX|52=20100317-21:22:39.404|56=RATESBZ|10=120|8=FIX.4.2|9=59|35=0|34=229|49=NESTFIX|52=20100317-21:23:39.230|56=RATESBZ|10=119|8=FIX.4.2|9=59|35=0|34=230|49=NESTFIX|52=20100317-21:24:39.072|56=RATESBZ|10=116|8=FIX.4.2|9=59|35=0|34=231|49=NESTFIX|52=20100317-21:25:39.292|56=RATESBZ|10=122|8=FIX.4.2|9=59|35=0|34=232|49=NESTFIX|52=20100317-21:26:39.119|56=RATESBZ|10=122|8=FIX.4.2|9=59|35=0|34=233|49=NESTFIX|52=20100317-21:27:39.557|56=RATESBZ|10=130|8=FIX.4.2|9=59|35=0|34=234|49=NESTFIX|52=20100317-21:28:39.383|56=RATESBZ|10=129|8=FIX.4.2|9=59|35=0|34=235|49=NESTFIX|52=20100317-21:29:39.198|56=RATESBZ|10=135|8=FIX.4.2|9=59|35=0|34=236|49=NESTFIX|52=20100317-21:30:39.014|56=RATESBZ|10=115|8=FIX.4.2|9=59|35=0|34=237|49=NESTFIX|52=20100317-21:31:39.505|56=RATESBZ|10=122|