8=FIX.4.2|9=70|35=A|34=1|49=NESTTEST|52=20111121-16:34:21.477|56=JERICHO|98=0|108=60|10=120|8=FIX.4.2|9=58|35=0|34=2|49=NESTTEST|52=20111121-16:35:21.394|56=JERICHO|10=081|8=FIX.4.2|9=67|35=1|34=3|49=NESTTEST|52=20111121-16:35:33.409|56=JERICHO|112=TEST|10=101|8=FIX.4.2|9=67|35=0|34=4|49=NESTTEST|52=20111121-16:36:34.045|56=JERICHO|112=TEST|10=099|8=FIX.4.2|9=58|35=0|34=5|49=NESTTEST|52=20111121-16:37:34.619|56=JERICHO|10=090|8=FIX.4.2|9=58|35=0|34=6|49=NESTTEST|52=20111121-16:38:34.724|56=JERICHO|10=089|8=FIX.4.2|9=70|35=A|34=7|49=NESTTEST|52=20111121-16:39:11.300|56=JERICHO|98=0|108=60|10=115|8=FIX.4.2|9=58|35=0|34=8|49=NESTTEST|52=20111121-16:40:11.889|56=JERICHO|10=091|8=FIX.4.2|9=70|35=A|34=9|49=NESTTEST|52=20111121-16:41:16.291|56=JERICHO|98=0|108=60|10=124|8=FIX.4.2|9=59|35=0|34=10|49=NESTTEST|52=20111121-16:42:19.131|56=JERICHO|10=123|8=FIX.4.2|9=156|35=8|34=11|49=NESTTEST|52=20111121-16:44:13.326|56=JERICHO|6=0|11=JRCH000003|14=100|17=001|20=0|31=0.01|32=100|37=001|38=100|39=2|54=1|55=PETR4|150=1|151=0|10=090|8=FIX.4.2|9=68|35=1|34=12|49=NESTTEST|52=20111121-16:44:18.169|56=JERICHO|112=TEST|10=156|8=FIX.4.2|9=68|35=0|34=13|49=NESTTEST|52=20111121-16:44:18.169|56=JERICHO|112=TEST|10=156|8=FIX.4.2|9=59|35=0|34=14|49=NESTTEST|52=20111121-16:45:18.259|56=JERICHO|10=140|8=FIX.4.2|9=68|35=1|34=15|49=NESTTEST|52=20111121-16:45:30.273|56=JERICHO|112=TEST|10=150|8=FIX.4.2|9=68|35=0|34=16|49=NESTTEST|52=20111121-16:45:49.788|56=JERICHO|112=TEST|10=171|