8=FIX.4.2|9=71|35=A|34=1|49=QUANTTEST|52=20100821-22:37:32.720|56=NESTFIX|98=0|108=60|10=227|
8=FIX.4.2|9=71|35=A|34=1|49=NESTFIX|52=20100821-22:37:32.767|56=QUANTTEST|98=0|108=60|10=238|
8=FIX.4.2|9=71|35=A|34=2|49=QUANTTEST|52=20100821-22:41:14.260|56=NESTFIX|98=0|108=60|10=222|
8=FIX.4.2|9=71|35=A|34=2|49=NESTFIX|52=20100821-22:41:14.322|56=QUANTTEST|98=0|108=60|10=221|
8=FIX.4.2|9=132|35=D|34=3|49=QUANTTEST|52=20100821-22:41:24.509|56=NESTFIX|11=IAA0001|21=1|38=100|40=1|54=1|55=PETR4.SA|60=20100821-19:41:24|9304=N|10=027|
8=FIX.4.2|9=59|35=0|34=4|49=QUANTTEST|52=20100821-22:42:24.796|56=NESTFIX|10=201|
8=FIX.4.2|9=68|35=1|34=5|49=QUANTTEST|52=20100821-22:42:26.812|56=NESTFIX|112=TEST|10=212|
8=FIX.4.2|9=59|35=0|34=3|49=NESTFIX|52=20100821-22:42:35.929|56=QUANTTEST|10=200|
8=FIX.4.2|9=68|35=0|34=4|49=NESTFIX|52=20100821-22:42:35.944|56=QUANTTEST|112=TEST|10=216|
8=FIX.4.2|9=59|35=0|34=6|49=QUANTTEST|52=20100821-22:43:26.276|56=NESTFIX|10=199|
8=FIX.4.2|9=59|35=0|34=5|49=NESTFIX|52=20100821-22:43:35.673|56=QUANTTEST|10=199|
8=FIX.4.2|9=132|35=D|34=7|49=QUANTTEST|52=20100821-22:44:10.669|56=NESTFIX|11=IAA0002|21=1|38=200|40=1|54=2|55=PETR4.SA|60=20100821-19:44:10|9304=N|10=037|
8=FIX.4.2|9=132|35=D|34=8|49=QUANTTEST|52=20100821-22:44:10.762|56=NESTFIX|11=IAA0003|21=1|38=200|40=1|54=2|55=PETR4.SA|60=20100821-19:44:10|9304=N|10=033|
8=FIX.4.2|9=68|35=1|34=9|49=QUANTTEST|52=20100821-22:44:47.914|56=NESTFIX|112=TEST|10=224|
8=FIX.4.2|9=59|35=0|34=6|49=NESTFIX|52=20100821-22:44:46.751|56=QUANTTEST|10=200|
8=FIX.4.2|9=68|35=0|34=7|49=NESTFIX|52=20100821-22:44:50.256|56=QUANTTEST|112=TEST|10=214|
8=FIX.4.2|9=60|35=0|34=10|49=QUANTTEST|52=20100821-22:45:47.418|56=NESTFIX|10=237|
8=FIX.4.2|9=59|35=0|34=8|49=NESTFIX|52=20100821-22:45:50.737|56=QUANTTEST|10=202|
8=FIX.4.2|9=72|35=A|34=11|49=QUANTTEST|52=20100821-22:47:31.607|56=NESTFIX|98=0|108=60|10=025|
8=FIX.4.2|9=71|35=A|34=9|49=NESTFIX|52=20100821-22:47:31.669|56=QUANTTEST|98=0|108=60|10=247|
8=FIX.4.2|9=134|35=D|34=12|49=QUANTTEST|52=20100821-22:47:37.636|56=NESTFIX|11=IAA0004|21=1|38=1000|40=1|54=1|55=PETR4.SA|60=20100821-19:47:37|9304=N|10=149|
8=FIX.4.2|9=60|35=0|34=10|49=NESTFIX|52=20100821-22:48:31.188|56=QUANTTEST|10=237|
8=FIX.4.2|9=60|35=0|34=13|49=QUANTTEST|52=20100821-22:48:37.420|56=NESTFIX|10=235|
8=FIX.4.2|9=60|35=0|34=11|49=NESTFIX|52=20100821-22:49:31.953|56=QUANTTEST|10=239|
8=FIX.4.2|9=60|35=0|34=14|49=QUANTTEST|52=20100821-22:49:37.172|56=NESTFIX|10=241|
8=FIX.4.2|9=60|35=0|34=12|49=NESTFIX|52=20100821-22:50:31.705|56=QUANTTEST|10=227|
8=FIX.4.2|9=60|35=0|34=15|49=QUANTTEST|52=20100821-22:50:37.937|56=NESTFIX|10=243|
8=FIX.4.2|9=60|35=0|34=13|49=NESTFIX|52=20100821-22:51:31.549|56=QUANTTEST|10=235|
8=FIX.4.2|9=60|35=0|34=16|49=QUANTTEST|52=20100821-22:51:37.792|56=NESTFIX|10=244|
8=FIX.4.2|9=60|35=0|34=14|49=NESTFIX|52=20100821-22:52:31.404|56=QUANTTEST|10=227|
8=FIX.4.2|9=60|35=0|34=17|49=QUANTTEST|52=20100821-22:52:37.648|56=NESTFIX|10=246|
8=FIX.4.2|9=72|35=A|34=18|49=QUANTTEST|52=20100821-23:09:58.522|56=NESTFIX|98=0|108=60|10=036|
8=FIX.4.2|9=72|35=A|34=15|49=NESTFIX|52=20100821-23:09:58.600|56=QUANTTEST|98=0|108=60|10=030|
8=FIX.4.2|9=133|35=D|34=19|49=QUANTTEST|52=20100821-23:10:03.068|56=NESTFIX|11=IAA0005|21=1|38=100|40=1|54=1|55=PETR4.SA|60=20100821-20:10:03|9304=N|10=066|
8=FIX.4.2|9=72|35=A|34=20|49=QUANTTEST|52=20100821-23:11:08.526|56=NESTFIX|98=0|108=60|10=021|
8=FIX.4.2|9=72|35=A|34=16|49=NESTFIX|52=20100821-23:11:08.619|56=QUANTTEST|98=0|108=60|10=029|
8=FIX.4.2|9=133|35=D|34=21|49=QUANTTEST|52=20100821-23:11:11.510|56=NESTFIX|11=IAA0006|21=1|38=100|40=1|54=1|55=PETR4.SA|60=20100821-20:11:11|9304=N|10=052|
8=FIX.4.2|9=60|35=0|34=22|49=QUANTTEST|52=20100821-23:12:11.750|56=NESTFIX|10=225|
8=FIX.4.2|9=69|35=1|34=23|49=QUANTTEST|52=20100821-23:12:20.780|56=NESTFIX|112=TEST|10=001|
8=FIX.4.2|9=72|35=A|34=24|49=QUANTTEST|52=20100821-23:14:08.357|56=NESTFIX|98=0|108=60|10=030|
8=FIX.4.2|9=72|35=A|34=17|49=NESTFIX|52=20100821-23:14:08.451|56=QUANTTEST|98=0|108=60|10=027|
8=FIX.4.2|9=70|35=2|34=18|49=NESTFIX|52=20100821-23:14:08.451|56=QUANTTEST|7=22|16=0|10=157|
8=FIX.4.2|9=103|35=4|34=22|43=Y|49=QUANTTEST|52=20100821-23:14:08.467|56=NESTFIX|122=20100821-23:14:08.467|36=25|123=Y|10=092|
8=FIX.4.2|9=133|35=D|34=25|49=QUANTTEST|52=20100821-23:14:18.309|56=NESTFIX|11=IAA0007|21=1|38=100|40=1|54=1|55=PETR4.SA|60=20100821-20:14:18|9304=N|10=083|
8=FIX.4.2|9=72|35=A|34=27|49=QUANTTEST|52=20100821-23:15:34.219|56=NESTFIX|98=0|108=60|10=030|
8=FIX.4.2|9=72|35=A|34=19|49=NESTFIX|52=20100821-23:15:34.313|56=QUANTTEST|98=0|108=60|10=026|
8=FIX.4.2|9=70|35=2|34=20|49=NESTFIX|52=20100821-23:15:34.313|56=QUANTTEST|7=26|16=0|10=151|
8=FIX.4.2|9=165|35=D|34=26|43=Y|49=QUANTTEST|52=20100821-23:15:34.329|56=NESTFIX|122=20100821-23:15:18.472|11=IAA0008|21=1|38=1000|40=1|54=1|55=PETR4.SA|60=20100821-20:15:18|9304=N|10=139|
8=FIX.4.2|9=103|35=4|34=27|43=Y|49=QUANTTEST|52=20100821-23:15:34.329|56=NESTFIX|122=20100821-23:15:34.329|36=28|123=Y|10=094|
8=FIX.4.2|9=134|35=D|34=28|49=QUANTTEST|52=20100821-23:15:38.890|56=NESTFIX|11=IAA0009|21=1|38=1000|40=1|54=1|55=PETR4.SA|60=20100821-20:15:38|9304=N|10=148|
8=FIX.4.2|9=72|35=A|34=29|49=QUANTTEST|52=20100821-23:18:46.192|56=NESTFIX|98=0|108=60|10=038|
8=FIX.4.2|9=72|35=A|34=21|49=NESTFIX|52=20100821-23:18:46.270|56=QUANTTEST|98=0|108=60|10=027|
8=FIX.4.2|9=134|35=D|34=30|49=QUANTTEST|52=20100821-23:18:53.691|56=NESTFIX|11=IAA0010|21=1|38=1000|40=1|54=1|55=PETR4.SA|60=20100821-20:18:53|9304=N|10=132|
8=FIX.4.2|9=133|35=D|34=31|49=QUANTTEST|52=20100821-23:18:57.362|56=NESTFIX|11=IAA0011|21=1|38=500|40=1|54=2|55=PETR4.SA|60=20100821-20:18:57|9304=N|10=093|
8=FIX.4.2|9=60|35=0|34=32|49=QUANTTEST|52=20100821-23:19:57.401|56=NESTFIX|10=236|
8=FIX.4.2|9=69|35=1|34=33|49=QUANTTEST|52=20100821-23:19:58.416|56=NESTFIX|112=TEST|10=016|
8=FIX.4.2|9=60|35=0|34=22|49=NESTFIX|52=20100821-23:20:02.588|56=QUANTTEST|10=233|
8=FIX.4.2|9=69|35=0|34=23|49=NESTFIX|52=20100821-23:20:03.150|56=QUANTTEST|112=TEST|10=247|
8=FIX.4.2|9=60|35=0|34=34|49=QUANTTEST|52=20100821-23:20:58.611|56=NESTFIX|10=234|
8=FIX.4.2|9=60|35=0|34=24|49=NESTFIX|52=20100821-23:21:03.267|56=QUANTTEST|10=231|
8=FIX.4.2|9=146|35=8|34=25|49=NESTFIX|52=20100821-23:21:10.406|56=QUANTTEST|6=0|14=500|17=QNR0001|20=0|31=0|32=500|37=ORD0010|39=1|54=1|55=PETR4.SA|150=1|151=500|10=117|
8=FIX.4.2|9=144|35=8|34=26|49=NESTFIX|52=20100821-23:21:58.291|56=QUANTTEST|6=0|14=500|17=QNR0002|20=0|31=0|32=500|37=ORD0011|39=1|54=2|55=PETR4.SA|150=1|151=0|10=032|
8=FIX.4.2|9=60|35=0|34=35|49=QUANTTEST|52=20100821-23:21:58.322|56=NESTFIX|10=235|
8=FIX.4.2|9=60|35=0|34=36|49=QUANTTEST|52=20100821-23:22:58.001|56=NESTFIX|10=231|
8=FIX.4.2|9=60|35=0|34=27|49=NESTFIX|52=20100821-23:22:58.657|56=QUANTTEST|10=248|
8=FIX.4.2|9=60|35=0|34=37|49=QUANTTEST|52=20100821-23:23:58.196|56=NESTFIX|10=248|
8=FIX.4.2|9=60|35=0|34=28|49=NESTFIX|52=20100821-23:23:59.384|56=QUANTTEST|10=248|
8=FIX.4.2|9=71|35=A|34=1|49=QUANTTEST|52=20100822-18:03:29.252|56=NESTFIX|98=0|108=60|10=232|
8=FIX.4.2|9=71|35=A|34=1|49=NESTFIX|52=20100822-18:03:29.267|56=QUANTTEST|98=0|108=60|10=238|
8=FIX.4.2|9=132|35=D|34=2|49=QUANTTEST|52=20100822-18:03:34.298|56=NESTFIX|11=IAA0001|21=1|38=100|40=1|54=1|55=PETR4.SA|60=20100822-15:03:34|9304=N|10=032|
8=FIX.4.2|9=132|35=D|34=3|49=QUANTTEST|52=20100822-18:03:44.906|56=NESTFIX|11=IAA0002|21=1|38=200|40=1|54=2|55=PETR4.SA|60=20100822-15:03:44|9304=N|10=034|
8=FIX.4.2|9=59|35=0|34=2|49=NESTFIX|52=20100822-18:04:29.323|56=QUANTTEST|10=194|
8=FIX.4.2|9=59|35=0|34=4|49=QUANTTEST|52=20100822-18:04:44.431|56=NESTFIX|10=193|
8=FIX.4.2|9=59|35=0|34=3|49=NESTFIX|52=20100822-18:05:29.597|56=QUANTTEST|10=209|
8=FIX.4.2|9=59|35=0|34=5|49=QUANTTEST|52=20100822-18:05:44.596|56=NESTFIX|10=207|
8=FIX.4.2|9=143|35=8|34=4|49=NESTFIX|52=20100822-18:05:53.266|56=QUANTTEST|6=0|14=100|17=QNR0001|20=0|31=0|32=100|37=ORD0001|39=1|54=1|55=PETR4.SA|150=1|151=0|10=228|
8=FIX.4.2|9=145|35=8|34=5|49=NESTFIX|52=20100822-18:06:05.468|56=QUANTTEST|6=0|14=100|17=QNR0002|20=0|31=0|32=100|37=ORD0002|39=1|54=2|55=PETR4.SA|150=1|151=100|10=077|
8=FIX.4.2|9=59|35=0|34=6|49=QUANTTEST|52=20100822-18:06:44.761|56=NESTFIX|10=203|
8=FIX.4.2|9=71|35=A|34=7|49=QUANTTEST|52=20100822-18:08:34.560|56=NESTFIX|98=0|108=60|10=241|
8=FIX.4.2|9=71|35=A|34=6|49=NESTFIX|52=20100822-18:08:34.654|56=QUANTTEST|98=0|108=60|10=244|
8=FIX.4.2|9=132|35=D|34=8|49=QUANTTEST|52=20100822-18:08:41.075|56=NESTFIX|11=IAA0003|21=1|38=100|40=1|54=1|55=PETR4.SA|60=20100822-15:08:41|9304=N|10=039|
8=FIX.4.2|9=132|35=D|34=9|49=QUANTTEST|52=20100822-18:08:46.262|56=NESTFIX|11=IAA0004|21=1|38=200|40=1|54=2|55=PETR4.SA|60=20100822-15:08:46|9304=N|10=051|
8=FIX.4.2|9=143|35=8|34=7|49=NESTFIX|52=20100822-18:09:11.322|56=QUANTTEST|6=0|14=100|17=QNR0003|20=0|31=0|32=100|37=ORD0003|39=1|54=1|55=PETR4.SA|150=1|151=0|10=226|
8=FIX.4.2|9=145|35=8|34=8|49=NESTFIX|52=20100822-18:09:11.337|56=QUANTTEST|6=0|14=100|17=QNR0004|20=0|31=0|32=100|37=ORD0004|39=1|54=2|55=PETR4.SA|150=1|151=100|10=079|
8=FIX.4.2|9=146|35=8|34=9|49=NESTFIX|52=20100822-18:09:44.646|56=QUANTTEST|6=0|14=150|17=QNR0005|20=0|31=66.6|32=50|37=ORD0004|39=1|54=2|55=PETR4.SA|150=1|151=50|10=168|
8=FIX.4.2|9=60|35=0|34=10|49=QUANTTEST|52=20100822-18:09:46.865|56=NESTFIX|10=248|
8=FIX.4.2|9=60|35=0|34=10|49=NESTFIX|52=20100822-18:10:44.811|56=QUANTTEST|10=229|
8=FIX.4.2|9=60|35=0|34=11|49=QUANTTEST|52=20100822-18:10:46.014|56=NESTFIX|10=227|
8=FIX.4.2|9=60|35=0|34=11|49=NESTFIX|52=20100822-18:11:44.976|56=QUANTTEST|10=243|
8=FIX.4.2|9=60|35=0|34=12|49=QUANTTEST|52=20100822-18:11:46.195|56=NESTFIX|10=239|
8=FIX.4.2|9=60|35=0|34=12|49=NESTFIX|52=20100822-18:12:44.141|56=QUANTTEST|10=229|
8=FIX.4.2|9=60|35=0|34=13|49=QUANTTEST|52=20100822-18:12:46.344|56=NESTFIX|10=237|
8=FIX.4.2|9=60|35=0|34=13|49=NESTFIX|52=20100822-18:13:44.306|56=QUANTTEST|10=234|
8=FIX.4.2|9=60|35=0|34=14|49=QUANTTEST|52=20100822-18:13:46.524|56=NESTFIX|10=239|
8=FIX.4.2|9=60|35=0|34=14|49=NESTFIX|52=20100822-18:14:44.471|56=QUANTTEST|10=239|
8=FIX.4.2|9=60|35=0|34=15|49=QUANTTEST|52=20100822-18:14:46.689|56=NESTFIX|10=253|
8=FIX.4.2|9=60|35=0|34=15|49=NESTFIX|52=20100822-18:15:44.667|56=QUANTTEST|10=248|
8=FIX.4.2|9=60|35=0|34=16|49=QUANTTEST|52=20100822-18:15:46.854|56=NESTFIX|10=249|
8=FIX.4.2|9=60|35=0|34=16|49=NESTFIX|52=20100822-18:16:44.832|56=QUANTTEST|10=244|
8=FIX.4.2|9=60|35=0|34=17|49=QUANTTEST|52=20100822-18:16:46.019|56=NESTFIX|10=244|
8=FIX.4.2|9=60|35=0|34=17|49=NESTFIX|52=20100822-18:17:44.013|56=QUANTTEST|10=237|
8=FIX.4.2|9=60|35=0|34=18|49=QUANTTEST|52=20100822-18:17:46.184|56=NESTFIX|10=249|
8=FIX.4.2|9=60|35=0|34=18|49=NESTFIX|52=20100822-18:18:44.178|56=QUANTTEST|10=251|
8=FIX.4.2|9=60|35=0|34=19|49=QUANTTEST|52=20100822-18:18:46.349|56=NESTFIX|10=254|
8=FIX.4.2|9=60|35=0|34=19|49=NESTFIX|52=20100822-18:19:44.343|56=QUANTTEST|10=247|
8=FIX.4.2|9=60|35=0|34=20|49=QUANTTEST|52=20100822-18:19:46.545|56=NESTFIX|10=245|
8=FIX.4.2|9=60|35=0|34=21|49=QUANTTEST|52=20100822-18:20:46.710|56=NESTFIX|10=232|
8=FIX.4.2|9=69|35=1|34=22|49=QUANTTEST|52=20100822-18:20:56.725|56=NESTFIX|112=TEST|10=012|
8=FIX.4.2|9=69|35=1|34=20|49=NESTFIX|52=20100822-18:21:56.812|56=QUANTTEST|112=TEST|10=008|
8=FIX.4.2|9=69|35=0|34=23|49=QUANTTEST|52=20100822-18:21:57.202|56=NESTFIX|112=TEST|10=004|
8=FIX.4.2|9=69|35=0|34=21|49=NESTFIX|52=20100822-18:21:58.796|56=QUANTTEST|112=TEST|10=021|
8=FIX.4.2|9=147|35=8|34=22|49=NESTFIX|52=20100822-18:22:35.463|56=QUANTTEST|6=0|14=175|17=QNR0006|20=0|31=66.6|32=25|37=ORD0004|39=1|54=2|55=PETR4.SA|150=1|151=25|10=216|
8=FIX.4.2|9=60|35=0|34=24|49=QUANTTEST|52=20100822-18:22:57.070|56=NESTFIX|10=238|
8=FIX.4.2|9=60|35=0|34=23|49=NESTFIX|52=20100822-18:23:35.613|56=QUANTTEST|10=237|
8=FIX.4.2|9=60|35=0|34=25|49=QUANTTEST|52=20100822-18:23:57.235|56=NESTFIX|10=243|
8=FIX.4.2|9=60|35=0|34=24|49=NESTFIX|52=20100822-18:24:35.778|56=QUANTTEST|10=251|
8=FIX.4.2|9=60|35=0|34=26|49=QUANTTEST|52=20100822-18:24:57.400|56=NESTFIX|10=239|
8=FIX.4.2|9=60|35=0|34=25|49=NESTFIX|52=20100822-18:25:35.943|56=QUANTTEST|10=247|
8=FIX.4.2|9=60|35=0|34=27|49=QUANTTEST|52=20100822-18:25:57.565|56=NESTFIX|10=253|
8=FIX.4.2|9=60|35=0|34=26|49=NESTFIX|52=20100822-18:26:35.108|56=QUANTTEST|10=242|
8=FIX.4.2|9=60|35=0|34=28|49=QUANTTEST|52=20100822-18:26:57.730|56=NESTFIX|10=249|
8=FIX.4.2|9=60|35=0|34=27|49=NESTFIX|52=20100822-18:27:35.273|56=QUANTTEST|10=247|
8=FIX.4.2|9=60|35=0|34=29|49=QUANTTEST|52=20100822-18:27:57.895|56=NESTFIX|10=007|
8=FIX.4.2|9=60|35=0|34=28|49=NESTFIX|52=20100822-18:28:35.438|56=QUANTTEST|10=252|
8=FIX.4.2|9=60|35=0|34=30|49=QUANTTEST|52=20100822-18:28:57.060|56=NESTFIX|10=240|
8=FIX.4.2|9=60|35=0|34=29|49=NESTFIX|52=20100822-18:29:35.603|56=QUANTTEST|10=248|
8=FIX.4.2|9=60|35=0|34=31|49=QUANTTEST|52=20100822-18:29:57.225|56=NESTFIX|10=245|
8=FIX.4.2|9=60|35=0|34=30|49=NESTFIX|52=20100822-18:30:35.783|56=QUANTTEST|10=241|
8=FIX.4.2|9=60|35=0|34=32|49=QUANTTEST|52=20100822-18:30:57.390|56=NESTFIX|10=241|
8=FIX.4.2|9=60|35=0|34=31|49=NESTFIX|52=20100822-18:31:35.948|56=QUANTTEST|10=246|
8=FIX.4.2|9=60|35=0|34=33|49=QUANTTEST|52=20100822-18:31:57.555|56=NESTFIX|10=246|
8=FIX.4.2|9=60|35=0|34=32|49=NESTFIX|52=20100822-18:32:35.113|56=QUANTTEST|10=232|
8=FIX.4.2|9=60|35=0|34=34|49=QUANTTEST|52=20100822-18:32:57.720|56=NESTFIX|10=242|
8=FIX.4.2|9=60|35=0|34=33|49=NESTFIX|52=20100822-18:33:35.278|56=QUANTTEST|10=246|
8=FIX.4.2|9=60|35=0|34=35|49=QUANTTEST|52=20100822-18:33:57.885|56=NESTFIX|10=000|
8=FIX.4.2|9=60|35=0|34=34|49=NESTFIX|52=20100822-18:34:35.443|56=QUANTTEST|10=242|
8=FIX.4.2|9=60|35=0|34=36|49=QUANTTEST|52=20100822-18:34:57.050|56=NESTFIX|10=242|
8=FIX.4.2|9=60|35=0|34=35|49=NESTFIX|52=20100822-18:35:35.608|56=QUANTTEST|10=247|
8=FIX.4.2|9=60|35=0|34=37|49=QUANTTEST|52=20100822-18:35:57.215|56=NESTFIX|10=247|
8=FIX.4.2|9=60|35=0|34=36|49=NESTFIX|52=20100822-18:36:35.773|56=QUANTTEST|10=252|
8=FIX.4.2|9=60|35=0|34=38|49=QUANTTEST|52=20100822-18:36:57.395|56=NESTFIX|10=002|
8=FIX.4.2|9=60|35=0|34=37|49=NESTFIX|52=20100822-18:37:35.938|56=QUANTTEST|10=001|
8=FIX.4.2|9=60|35=0|34=39|49=QUANTTEST|52=20100822-18:37:57.560|56=NESTFIX|10=254|
8=FIX.4.2|9=60|35=0|34=38|49=NESTFIX|52=20100822-18:38:35.103|56=QUANTTEST|10=243|
8=FIX.4.2|9=60|35=0|34=40|49=QUANTTEST|52=20100822-18:38:57.725|56=NESTFIX|10=250|
8=FIX.4.2|9=60|35=0|34=39|49=NESTFIX|52=20100822-18:39:35.268|56=QUANTTEST|10=001|
8=FIX.4.2|9=60|35=0|34=41|49=QUANTTEST|52=20100822-18:39:57.890|56=NESTFIX|10=255|
8=FIX.4.2|9=60|35=0|34=40|49=NESTFIX|52=20100822-18:40:35.433|56=QUANTTEST|10=235|
8=FIX.4.2|9=133|35=D|34=42|49=QUANTTEST|52=20100822-18:40:36.667|56=NESTFIX|11=IAA0005|21=1|38=200|40=1|54=2|55=VALE5.SA|60=20100822-15:40:36|9304=N|10=079|
8=FIX.4.2|9=133|35=D|34=43|49=QUANTTEST|52=20100822-18:40:46.525|56=NESTFIX|11=IAA0006|21=1|38=500|40=1|54=1|55=VALE5.SA|60=20100822-15:40:46|9304=N|10=078|
8=FIX.4.2|9=132|35=D|34=44|49=QUANTTEST|52=20100822-18:40:55.790|56=NESTFIX|11=IAA0007|21=1|38=25|40=1|54=1|55=PETR4.SA|60=20100822-15:40:55|9304=N|10=055|
8=FIX.4.2|9=60|35=0|34=41|49=NESTFIX|52=20100822-18:41:36.145|56=QUANTTEST|10=238|
8=FIX.4.2|9=142|35=8|34=42|49=NESTFIX|52=20100822-18:41:42.300|56=QUANTTEST|6=0|14=25|17=QNR0007|20=0|31=0|32=25|37=ORD0007|39=1|54=1|55=PETR4.SA|150=1|151=0|10=192|
8=FIX.4.2|9=143|35=8|34=43|49=NESTFIX|52=20100822-18:41:42.316|56=QUANTTEST|6=0|14=200|17=QNR0008|20=0|31=0|32=25|37=ORD0004|39=1|54=2|55=PETR4.SA|150=1|151=0|10=243|
8=FIX.4.2|9=60|35=0|34=45|49=QUANTTEST|52=20100822-18:41:55.205|56=NESTFIX|10=240|
8=FIX.4.2|9=72|35=A|34=46|49=QUANTTEST|52=20100822-19:06:50.267|56=NESTFIX|98=0|108=60|10=038|
8=FIX.4.2|9=72|35=A|34=44|49=NESTFIX|52=20100822-19:06:50.314|56=QUANTTEST|98=0|108=60|10=029|
8=FIX.4.2|9=133|35=D|34=47|49=QUANTTEST|52=20100822-19:06:56.735|56=NESTFIX|11=IAA0008|21=1|38=200|40=1|54=1|55=PETR4.SA|60=20100822-16:06:56|9304=N|10=110|
8=FIX.4.2|9=133|35=D|34=48|49=QUANTTEST|52=20100822-19:07:03.781|56=NESTFIX|11=IAA0009|21=1|38=400|40=1|54=2|55=PETR4.SA|60=20100822-16:07:03|9304=N|10=102|
8=FIX.4.2|9=133|35=D|34=49|49=QUANTTEST|52=20100822-19:07:10.124|56=NESTFIX|11=IAA0010|21=1|38=500|40=1|54=1|55=VALE5.SA|60=20100822-16:07:10|9304=N|10=064|
8=FIX.4.2|9=133|35=D|34=50|49=QUANTTEST|52=20100822-19:07:19.982|56=NESTFIX|11=IAA0011|21=1|38=100|40=1|54=2|55=VALE5.SA|60=20100822-16:07:19|9304=N|10=084|
8=FIX.4.2|9=144|35=8|34=45|49=NESTFIX|52=20100822-19:07:35.215|56=QUANTTEST|6=0|14=200|17=QNR0009|20=0|31=0|32=200|37=ORD0008|39=1|54=1|55=PETR4.SA|150=1|151=0|10=040|
8=FIX.4.2|9=146|35=8|34=46|49=NESTFIX|52=20100822-19:07:35.246|56=QUANTTEST|6=0|14=200|17=QNR0010|20=0|31=0|32=200|37=ORD0009|39=1|54=2|55=PETR4.SA|150=1|151=200|10=139|
8=FIX.4.2|9=149|35=8|34=47|49=NESTFIX|52=20100822-19:07:38.324|56=QUANTTEST|6=0|14=300|17=QNR0011|20=0|31=66.6|32=100|37=ORD0009|39=1|54=2|55=PETR4.SA|150=1|151=100|10=047|
8=FIX.4.2|9=133|35=D|34=51|49=QUANTTEST|52=20100822-19:07:49.729|56=NESTFIX|11=IAA0012|21=1|38=200|40=1|54=1|55=PETR4.SA|60=20100822-16:07:49|9304=N|10=109|
8=FIX.4.2|9=146|35=8|34=48|49=NESTFIX|52=20100822-19:08:02.462|56=QUANTTEST|6=0|14=100|17=QNR0012|20=0|31=0|32=100|37=ORD0012|39=1|54=1|55=PETR4.SA|150=1|151=100|10=128|
8=FIX.4.2|9=144|35=8|34=49|49=NESTFIX|52=20100822-19:08:02.462|56=QUANTTEST|6=0|14=400|17=QNR0013|20=0|31=0|32=100|37=ORD0009|39=1|54=2|55=PETR4.SA|150=1|151=0|10=041|
8=FIX.4.2|9=147|35=8|34=50|49=NESTFIX|52=20100822-19:08:02.493|56=QUANTTEST|6=0|14=150|17=QNR0014|20=0|31=66.6|32=50|37=ORD0012|39=1|54=1|55=PETR4.SA|150=1|151=50|10=205|
8=FIX.4.2|9=60|35=0|34=52|49=QUANTTEST|52=20100822-19:08:49.988|56=NESTFIX|10=007|
8=FIX.4.2|9=132|35=D|34=53|49=QUANTTEST|52=20100822-19:08:53.862|56=NESTFIX|11=IAA0013|21=1|38=50|40=1|54=2|55=PETR4.SA|60=20100822-16:08:53|9304=N|10=057|
8=FIX.4.2|9=60|35=0|34=51|49=NESTFIX|52=20100822-19:09:02.111|56=QUANTTEST|10=230|
8=FIX.4.2|9=143|35=8|34=52|49=NESTFIX|52=20100822-19:09:26.515|56=QUANTTEST|6=0|14=200|17=QNR0015|20=0|31=0|32=50|37=ORD0012|39=1|54=1|55=PETR4.SA|150=1|151=0|10=245|
8=FIX.4.2|9=142|35=8|34=53|49=NESTFIX|52=20100822-19:09:26.530|56=QUANTTEST|6=0|14=50|17=QNR0016|20=0|31=0|32=50|37=ORD0013|39=1|54=2|55=PETR4.SA|150=1|151=0|10=200|
8=FIX.4.2|9=60|35=0|34=54|49=QUANTTEST|52=20100822-19:09:53.168|56=NESTFIX|10=251|
8=FIX.4.2|9=60|35=0|34=54|49=NESTFIX|52=20100822-19:10:26.101|56=QUANTTEST|10=230|
8=FIX.4.2|9=60|35=0|34=55|49=QUANTTEST|52=20100822-19:10:53.333|56=NESTFIX|10=238|
8=FIX.4.2|9=60|35=0|34=55|49=NESTFIX|52=20100822-19:11:26.266|56=QUANTTEST|10=244|
8=FIX.4.2|9=60|35=0|34=56|49=QUANTTEST|52=20100822-19:11:53.498|56=NESTFIX|10=252|
8=FIX.4.2|9=60|35=0|34=56|49=NESTFIX|52=20100822-19:12:26.431|56=QUANTTEST|10=240|
8=FIX.4.2|9=60|35=0|34=57|49=QUANTTEST|52=20100822-19:12:53.663|56=NESTFIX|10=248|
8=FIX.4.2|9=60|35=0|34=57|49=NESTFIX|52=20100822-19:13:26.596|56=QUANTTEST|10=254|
8=FIX.4.2|9=60|35=0|34=58|49=QUANTTEST|52=20100822-19:13:53.828|56=NESTFIX|10=253|
8=FIX.4.2|9=60|35=0|34=58|49=NESTFIX|52=20100822-19:14:26.761|56=QUANTTEST|10=250|
8=FIX.4.2|9=60|35=0|34=59|49=QUANTTEST|52=20100822-19:14:53.993|56=NESTFIX|10=002|
8=FIX.4.2|9=60|35=0|34=59|49=NESTFIX|52=20100822-19:15:26.926|56=QUANTTEST|10=255|
8=FIX.4.2|9=60|35=0|34=60|49=QUANTTEST|52=20100822-19:15:53.158|56=NESTFIX|10=244|
8=FIX.4.2|9=60|35=0|34=60|49=NESTFIX|52=20100822-19:16:26.091|56=QUANTTEST|10=241|
8=FIX.4.2|9=60|35=0|34=61|49=QUANTTEST|52=20100822-19:16:53.323|56=NESTFIX|10=240|
8=FIX.4.2|9=60|35=0|34=61|49=NESTFIX|52=20100822-19:17:26.256|56=QUANTTEST|10=246|
8=FIX.4.2|9=60|35=0|34=62|49=QUANTTEST|52=20100822-19:17:53.487|56=NESTFIX|10=253|
8=FIX.4.2|9=60|35=0|34=62|49=NESTFIX|52=20100822-19:18:26.421|56=QUANTTEST|10=242|
8=FIX.4.2|9=60|35=0|34=63|49=QUANTTEST|52=20100822-19:18:53.668|56=NESTFIX|10=000|
8=FIX.4.2|9=60|35=0|34=63|49=NESTFIX|52=20100822-19:19:26.586|56=QUANTTEST|10=000|
8=FIX.4.2|9=60|35=0|34=64|49=QUANTTEST|52=20100822-19:19:53.833|56=NESTFIX|10=252|
8=FIX.4.2|9=60|35=0|34=64|49=NESTFIX|52=20100822-19:20:26.767|56=QUANTTEST|10=250|
8=FIX.4.2|9=60|35=0|34=65|49=QUANTTEST|52=20100822-19:20:53.998|56=NESTFIX|10=001|
8=FIX.4.2|9=60|35=0|34=65|49=NESTFIX|52=20100822-19:21:26.932|56=QUANTTEST|10=246|
8=FIX.4.2|9=60|35=0|34=66|49=QUANTTEST|52=20100822-19:21:53.163|56=NESTFIX|10=243|
8=FIX.4.2|9=60|35=0|34=66|49=NESTFIX|52=20100822-19:22:26.097|56=QUANTTEST|10=250|
8=FIX.4.2|9=60|35=0|34=67|49=QUANTTEST|52=20100822-19:22:53.328|56=NESTFIX|10=248|
8=FIX.4.2|9=60|35=0|34=67|49=NESTFIX|52=20100822-19:23:26.262|56=QUANTTEST|10=246|
8=FIX.4.2|9=60|35=0|34=68|49=QUANTTEST|52=20100822-19:23:53.493|56=NESTFIX|10=253|
8=FIX.4.2|9=60|35=0|34=68|49=NESTFIX|52=20100822-19:24:26.427|56=QUANTTEST|10=251|
8=FIX.4.2|9=60|35=0|34=69|49=QUANTTEST|52=20100822-19:24:53.658|56=NESTFIX|10=002|
8=FIX.4.2|9=60|35=0|34=69|49=NESTFIX|52=20100822-19:25:26.591|56=QUANTTEST|10=255|
8=FIX.4.2|9=60|35=0|34=70|49=QUANTTEST|52=20100822-19:25:53.823|56=NESTFIX|10=245|
8=FIX.4.2|9=60|35=0|34=70|49=NESTFIX|52=20100822-19:26:26.756|56=QUANTTEST|10=251|
8=FIX.4.2|9=60|35=0|34=71|49=QUANTTEST|52=20100822-19:26:53.988|56=NESTFIX|10=003|
8=FIX.4.2|9=60|35=0|34=71|49=NESTFIX|52=20100822-19:27:26.921|56=QUANTTEST|10=247|
8=FIX.4.2|9=60|35=0|34=72|49=QUANTTEST|52=20100822-19:27:53.153|56=NESTFIX|10=245|
8=FIX.4.2|9=60|35=0|34=72|49=NESTFIX|52=20100822-19:28:26.086|56=QUANTTEST|10=251|
8=FIX.4.2|9=60|35=0|34=73|49=QUANTTEST|52=20100822-19:28:53.318|56=NESTFIX|10=250|
8=FIX.4.2|9=60|35=0|34=73|49=NESTFIX|52=20100822-19:29:26.251|56=QUANTTEST|10=247|
8=FIX.4.2|9=60|35=0|34=74|49=QUANTTEST|52=20100822-19:29:53.483|56=NESTFIX|10=255|
8=FIX.4.2|9=60|35=0|34=74|49=NESTFIX|52=20100822-19:30:26.416|56=QUANTTEST|10=243|
8=FIX.4.2|9=60|35=0|34=75|49=QUANTTEST|52=20100822-19:30:53.648|56=NESTFIX|10=251|
8=FIX.4.2|9=60|35=0|34=75|49=NESTFIX|52=20100822-19:31:26.581|56=QUANTTEST|10=248|
8=FIX.4.2|9=60|35=0|34=76|49=QUANTTEST|52=20100822-19:31:53.813|56=NESTFIX|10=247|
8=FIX.4.2|9=72|35=A|34=77|49=QUANTTEST|52=20100822-19:44:05.228|56=NESTFIX|98=0|108=60|10=041|
8=FIX.4.2|9=72|35=A|34=76|49=NESTFIX|52=20100822-19:44:05.275|56=QUANTTEST|98=0|108=60|10=042|
8=FIX.4.2|9=133|35=D|34=78|49=QUANTTEST|52=20100822-19:44:25.132|56=NESTFIX|11=IAA0014|21=1|38=100|40=1|54=1|55=PETR4.SA|60=20100822-16:44:25|9304=N|10=097|
8=FIX.4.2|9=146|35=8|34=77|49=NESTFIX|52=20100822-19:44:51.973|56=QUANTTEST|6=0|14=50|17=QNR0017|20=0|31=66.6|32=50|37=ORD0014|39=1|54=1|55=PETR4.SA|150=1|151=50|10=176|
8=FIX.4.2|9=60|35=0|34=79|49=QUANTTEST|52=20100822-19:46:01.152|56=NESTFIX|10=245|
8=FIX.4.2|9=69|35=1|34=78|49=NESTFIX|52=20100822-19:45:37.124|56=QUANTTEST|112=TEST|10=023|
8=FIX.4.2|9=69|35=0|34=80|49=QUANTTEST|52=20100822-19:46:01.152|56=NESTFIX|112=TEST|10=008|
8=FIX.4.2|9=72|35=A|34=81|49=QUANTTEST|52=20100822-21:15:11.911|56=NESTFIX|98=0|108=60|10=023|
8=FIX.4.2|9=72|35=A|34=79|49=NESTFIX|52=20100822-21:15:11.958|56=QUANTTEST|98=0|108=60|10=041|
8=FIX.4.2|9=149|35=D|34=82|49=QUANTTEST|52=20100822-21:15:21.332|56=NESTFIX|11=IAA0015|21=1|38=1000|40=1|54=1|55=PETR4.SA|60=20100822-18:15:21|9304=N|9305=3|9306=54|10=064|
8=FIX.4.2|9=148|35=D|34=83|49=QUANTTEST|52=20100822-21:15:37.174|56=NESTFIX|11=IAA0016|21=1|38=600|40=1|54=2|55=PETR4.SA|60=20100822-18:15:37|9304=N|9305=3|9306=54|10=041|
8=FIX.4.2|9=173|35=8|34=80|49=NESTFIX|52=20100822-21:15:42.673|56=QUANTTEST|1=1|6=0|14=600|17=QNR0018|20=0|31=0|32=600|37=ORD0015|38=1000|39=1|54=1|55=PETR4.SA|150=1|151=400|9305=3|9306=54|10=086|
8=FIX.4.2|9=72|35=A|34=84|49=QUANTTEST|52=20100822-21:18:20.311|56=NESTFIX|98=0|108=60|10=023|
8=FIX.4.2|9=72|35=A|34=85|49=NESTFIX|52=20100822-21:18:20.358|56=QUANTTEST|98=0|108=60|10=035|
8=FIX.4.2|9=70|35=2|34=85|49=QUANTTEST|52=20100822-21:18:20.374|56=NESTFIX|7=80|16=0|10=166|
8=FIX.4.2|9=204|35=8|34=80|43=Y|49=NESTFIX|52=20100822-21:18:20.374|56=QUANTTEST|122=20100822-21:15:42.673|1=1|6=0|14=600|17=QNR0018|20=0|31=0|32=600|37=ORD0015|38=1000|39=1|54=1|55=PETR4.SA|150=1|151=400|9305=3|9306=54|10=076|
8=FIX.4.2|9=201|35=8|34=81|43=Y|49=NESTFIX|52=20100822-21:18:20.389|56=QUANTTEST|122=20100822-21:15:42.673|1=1|6=0|14=600|17=QNR0019|20=0|31=0|32=600|37=ORD0016|38=600|39=1|54=2|55=PETR4.SA|150=1|151=0|9305=3|9306=54|10=196|
8=FIX.4.2|9=207|35=8|34=82|43=Y|49=NESTFIX|52=20100822-21:18:20.389|56=QUANTTEST|122=20100822-21:15:42.767|1=1|6=0|14=800|17=QNR0020|20=0|31=66.6|32=200|37=ORD0015|38=1000|39=1|54=1|55=PETR4.SA|150=1|151=200|9305=3|9306=54|10=240|
8=FIX.4.2|9=103|35=4|34=83|43=Y|49=NESTFIX|52=20100822-21:18:20.389|56=QUANTTEST|122=20100822-21:18:20.389|36=86|123=Y|10=106|
8=FIX.4.2|9=149|35=D|34=86|49=QUANTTEST|52=20100822-21:18:38.418|56=NESTFIX|11=IAA0017|21=1|38=1000|40=1|54=1|55=PETR4.SA|60=20100822-18:18:38|9304=N|9305=3|9306=54|10=097|
8=FIX.4.2|9=187|35=8|34=86|49=NESTFIX|52=20100822-21:18:45.418|56=QUANTTEST|1=1|6=0|11=IAA0017|14=500|17=QNR0021|20=0|31=66.6|32=500|37=ORD0017|38=1000|39=1|54=1|55=PETR4.SA|150=1|151=500|9305=3|9306=54|10=050|
8=FIX.4.2|9=72|35=A|34=87|49=QUANTTEST|52=20100822-21:19:16.445|56=NESTFIX|98=0|108=60|10=040|
8=FIX.4.2|9=72|35=A|34=87|49=NESTFIX|52=20100822-21:19:16.492|56=QUANTTEST|98=0|108=60|10=042|
8=FIX.4.2|9=70|35=2|34=88|49=QUANTTEST|52=20100822-21:19:16.492|56=NESTFIX|7=86|16=0|10=182|
8=FIX.4.2|9=218|35=8|34=86|43=Y|49=NESTFIX|52=20100822-21:19:16.508|56=QUANTTEST|122=20100822-21:18:45.418|1=1|6=0|11=IAA0017|14=500|17=QNR0021|20=0|31=66.6|32=500|37=ORD0017|38=1000|39=1|54=1|55=PETR4.SA|150=1|151=500|9305=3|9306=54|10=045|
8=FIX.4.2|9=103|35=4|34=87|43=Y|49=NESTFIX|52=20100822-21:19:16.508|56=QUANTTEST|122=20100822-21:19:16.508|36=88|123=Y|10=110|
8=FIX.4.2|9=149|35=D|34=89|49=QUANTTEST|52=20100822-21:19:20.492|56=NESTFIX|11=IAA0018|21=1|38=1000|40=1|54=1|55=PETR4.SA|60=20100822-18:19:20|9304=N|9305=3|9306=54|10=087|
8=FIX.4.2|9=187|35=8|34=88|49=NESTFIX|52=20100822-21:19:25.757|56=QUANTTEST|1=1|6=0|11=IAA0018|14=500|17=QNR0022|20=0|31=66.6|32=500|37=ORD0018|38=1000|39=1|54=1|55=PETR4.SA|150=1|151=500|9305=3|9306=54|10=060|
8=FIX.4.2|9=72|35=A|34=90|49=QUANTTEST|52=20100822-21:20:00.768|56=NESTFIX|98=0|108=60|10=027|
8=FIX.4.2|9=72|35=A|34=89|49=NESTFIX|52=20100822-21:20:00.799|56=QUANTTEST|98=0|108=60|10=039|
8=FIX.4.2|9=70|35=2|34=91|49=QUANTTEST|52=20100822-21:20:00.815|56=NESTFIX|7=88|16=0|10=162|
8=FIX.4.2|9=218|35=8|34=88|43=Y|49=NESTFIX|52=20100822-21:20:00.815|56=QUANTTEST|122=20100822-21:19:25.757|1=1|6=0|11=IAA0018|14=500|17=QNR0022|20=0|31=66.6|32=500|37=ORD0018|38=1000|39=1|54=1|55=PETR4.SA|150=1|151=500|9305=3|9306=54|10=041|
8=FIX.4.2|9=103|35=4|34=89|43=Y|49=NESTFIX|52=20100822-21:20:00.815|56=QUANTTEST|122=20100822-21:20:00.815|36=90|123=Y|10=077|
8=FIX.4.2|9=148|35=D|34=92|49=QUANTTEST|52=20100822-21:20:37.030|56=NESTFIX|11=IAA0019|21=1|38=100|40=1|54=1|55=VALE5.SA|60=20100822-18:20:37|9304=N|9305=3|9306=54|10=003|
8=FIX.4.2|9=183|35=8|34=90|49=NESTFIX|52=20100822-21:20:42.029|56=QUANTTEST|1=1|6=0|11=IAA0019|14=50|17=QNR0023|20=0|31=66.6|32=50|37=ORD0019|38=100|39=1|54=1|55=VALE5.SA|150=1|151=50|9305=3|9306=54|10=081|
8=FIX.4.2|9=72|35=A|34=93|49=QUANTTEST|52=20100822-21:21:55.130|56=NESTFIX|98=0|108=60|10=024|
8=FIX.4.2|9=72|35=A|34=91|49=NESTFIX|52=20100822-21:21:55.161|56=QUANTTEST|98=0|108=60|10=026|
8=FIX.4.2|9=70|35=2|34=94|49=QUANTTEST|52=20100822-21:21:55.177|56=NESTFIX|7=90|16=0|10=170|
8=FIX.4.2|9=214|35=8|34=90|43=Y|49=NESTFIX|52=20100822-21:21:55.177|56=QUANTTEST|122=20100822-21:20:42.029|1=1|6=0|11=IAA0019|14=50|17=QNR0023|20=0|31=66.6|32=50|37=ORD0019|38=100|39=1|54=1|55=VALE5.SA|150=1|151=50|9305=3|9306=54|10=074|
8=FIX.4.2|9=103|35=4|34=91|43=Y|49=NESTFIX|52=20100822-21:21:55.177|56=QUANTTEST|122=20100822-21:21:55.177|36=92|123=Y|10=096|
8=FIX.4.2|9=148|35=D|34=95|49=QUANTTEST|52=20100822-21:22:08.988|56=NESTFIX|11=IAA0020|21=1|38=100|40=1|54=1|55=LAME3.SA|60=20100822-18:22:08|9304=N|9305=3|9306=54|10=009|
8=FIX.4.2|9=183|35=8|34=92|49=NESTFIX|52=20100822-21:22:14.768|56=QUANTTEST|1=1|6=0|11=IAA0020|14=50|17=QNR0024|20=0|31=66.6|32=50|37=ORD0020|38=100|39=1|54=1|55=LAME3.SA|150=1|151=50|9305=3|9306=54|10=068|
8=FIX.4.2|9=72|35=A|34=96|49=QUANTTEST|52=20100822-21:22:43.843|56=NESTFIX|98=0|108=60|10=036|
8=FIX.4.2|9=72|35=A|34=93|49=NESTFIX|52=20100822-21:22:43.890|56=QUANTTEST|98=0|108=60|10=035|
8=FIX.4.2|9=148|35=D|34=97|49=QUANTTEST|52=20100822-21:22:53.701|56=NESTFIX|11=IAA0021|21=1|38=400|40=1|54=1|55=PETR4.SA|60=20100822-18:22:53|9304=N|9305=3|9306=54|10=027|
8=FIX.4.2|9=148|35=D|34=98|49=QUANTTEST|52=20100822-21:22:58.763|56=NESTFIX|11=IAA0022|21=1|38=200|40=1|54=2|55=PETR4.SA|60=20100822-18:22:58|9304=N|9305=3|9306=54|10=046|
8=FIX.4.2|9=148|35=D|34=99|49=QUANTTEST|52=20100822-21:23:04.591|56=NESTFIX|11=IAA0023|21=1|38=100|40=1|54=1|55=PETR4.SA|60=20100822-18:23:04|9304=N|9305=3|9306=54|10=029|
8=FIX.4.2|9=149|35=D|34=100|49=QUANTTEST|52=20100822-21:23:17.043|56=NESTFIX|11=IAA0024|21=1|38=200|40=1|54=2|55=PETR4.SA|60=20100822-18:23:17|9304=N|9305=3|9306=54|10=064|
8=FIX.4.2|9=149|35=D|34=101|49=QUANTTEST|52=20100822-21:23:43.414|56=NESTFIX|11=IAA0025|21=1|38=100|40=1|54=1|55=VALE5.SA|60=20100822-18:23:43|9304=N|9305=3|9306=54|10=046|
8=FIX.4.2|9=60|35=0|34=94|49=NESTFIX|52=20100822-21:23:43.430|56=QUANTTEST|10=235|
8=FIX.4.2|9=149|35=D|34=102|49=QUANTTEST|52=20100822-21:23:46.039|56=NESTFIX|11=IAA0026|21=1|38=100|40=1|54=1|55=VALE5.SA|60=20100822-18:23:46|9304=N|9305=3|9306=54|10=057|
8=FIX.4.2|9=149|35=D|34=103|49=QUANTTEST|52=20100822-21:23:47.945|56=NESTFIX|11=IAA0027|21=1|38=100|40=1|54=1|55=VALE5.SA|60=20100822-18:23:47|9304=N|9305=3|9306=54|10=067|
8=FIX.4.2|9=149|35=D|34=104|49=QUANTTEST|52=20100822-21:23:53.616|56=NESTFIX|11=IAA0028|21=1|38=100|40=1|54=2|55=VALE5.SA|60=20100822-18:23:53|9304=N|9305=3|9306=54|10=059|
8=FIX.4.2|9=149|35=D|34=105|49=QUANTTEST|52=20100822-21:23:58.803|56=NESTFIX|11=IAA0029|21=1|38=200|40=1|54=2|55=VALE5.SA|60=20100822-18:23:58|9304=N|9305=3|9306=54|10=070|
8=FIX.4.2|9=60|35=0|34=95|49=NESTFIX|52=20100822-21:24:43.173|56=QUANTTEST|10=241|
8=FIX.4.2|9=183|35=8|34=96|49=NESTFIX|52=20100822-21:24:43.408|56=QUANTTEST|1=1|6=0|11=IAA0021|14=200|17=QNR0025|20=0|31=0|32=200|37=ORD0021|38=400|39=1|54=1|55=PETR4.SA|150=1|151=200|9305=3|9306=54|10=077|
8=FIX.4.2|9=181|35=8|34=97|49=NESTFIX|52=20100822-21:24:43.423|56=QUANTTEST|1=1|6=0|11=IAA0022|14=200|17=QNR0026|20=0|31=0|32=200|37=ORD0022|38=200|39=1|54=2|55=PETR4.SA|150=1|151=0|9305=3|9306=54|10=233|
8=FIX.4.2|9=181|35=8|34=98|49=NESTFIX|52=20100822-21:24:43.439|56=QUANTTEST|1=1|6=0|11=IAA0021|14=400|17=QNR0027|20=0|31=0|32=200|37=ORD0021|38=400|39=1|54=1|55=PETR4.SA|150=1|151=0|9305=3|9306=54|10=243|
8=FIX.4.2|9=181|35=8|34=99|49=NESTFIX|52=20100822-21:24:43.454|56=QUANTTEST|1=1|6=0|11=IAA0024|14=200|17=QNR0028|20=0|31=0|32=200|37=ORD0024|38=200|39=1|54=2|55=PETR4.SA|150=1|151=0|9305=3|9306=54|10=245|
8=FIX.4.2|9=184|35=8|34=100|49=NESTFIX|52=20100822-21:24:43.517|56=QUANTTEST|1=1|6=0|11=IAA0023|14=50|17=QNR0029|20=0|31=66.6|32=50|37=ORD0023|38=100|39=1|54=1|55=PETR4.SA|150=1|151=50|9305=3|9306=54|10=143|
8=FIX.4.2|9=61|35=0|34=106|49=QUANTTEST|52=20100822-21:24:58.515|56=NESTFIX|10=033|
8=FIX.4.2|9=182|35=8|34=101|49=NESTFIX|52=20100822-21:25:01.515|56=QUANTTEST|1=1|6=0|11=IAA0025|14=100|17=QNR0030|20=0|31=0|32=100|37=ORD0025|38=100|39=1|54=1|55=VALE5.SA|150=1|151=0|9305=3|9306=54|10=244|
8=FIX.4.2|9=182|35=8|34=102|49=NESTFIX|52=20100822-21:25:01.530|56=QUANTTEST|1=1|6=0|11=IAA0028|14=100|17=QNR0031|20=0|31=0|32=100|37=ORD0028|38=100|39=1|54=2|55=VALE5.SA|150=1|151=0|9305=3|9306=54|10=250|
8=FIX.4.2|9=182|35=8|34=103|49=NESTFIX|52=20100822-21:25:01.546|56=QUANTTEST|1=1|6=0|11=IAA0026|14=100|17=QNR0032|20=0|31=0|32=100|37=ORD0026|38=100|39=1|54=1|55=VALE5.SA|150=1|151=0|9305=3|9306=54|10=254|
8=FIX.4.2|9=184|35=8|34=104|49=NESTFIX|52=20100822-21:25:01.546|56=QUANTTEST|1=1|6=0|11=IAA0029|14=100|17=QNR0033|20=0|31=0|32=100|37=ORD0029|38=200|39=1|54=2|55=VALE5.SA|150=1|151=100|9305=3|9306=54|10=107|
8=FIX.4.2|9=182|35=8|34=105|49=NESTFIX|52=20100822-21:25:01.562|56=QUANTTEST|1=1|6=0|11=IAA0027|14=100|17=QNR0034|20=0|31=0|32=100|37=ORD0027|38=100|39=1|54=1|55=VALE5.SA|150=1|151=0|9305=3|9306=54|10=002|
8=FIX.4.2|9=182|35=8|34=106|49=NESTFIX|52=20100822-21:25:01.577|56=QUANTTEST|1=1|6=0|11=IAA0029|14=200|17=QNR0035|20=0|31=0|32=100|37=ORD0029|38=200|39=1|54=2|55=VALE5.SA|150=1|151=0|9305=3|9306=54|10=017|
8=FIX.4.2|9=61|35=0|34=107|49=QUANTTEST|52=20100822-21:25:58.899|56=NESTFIX|10=050|
8=FIX.4.2|9=61|35=0|34=107|49=NESTFIX|52=20100822-21:26:01.383|56=QUANTTEST|10=027|
8=FIX.4.2|9=73|35=A|34=108|49=QUANTTEST|52=20100822-21:26:43.291|56=NESTFIX|98=0|108=60|10=080|
8=FIX.4.2|9=73|35=A|34=108|49=NESTFIX|52=20100822-21:26:43.338|56=QUANTTEST|98=0|108=60|10=082|
8=FIX.4.2|9=149|35=D|34=109|49=QUANTTEST|52=20100822-21:26:45.762|56=NESTFIX|11=IAA0030|21=1|38=100|40=1|54=1|55=PETR4.SA|60=20100822-18:26:45|9304=N|9305=3|9306=54|10=084|
8=FIX.4.2|9=61|35=0|34=109|49=NESTFIX|52=20100822-21:27:43.180|56=QUANTTEST|10=031|
8=FIX.4.2|9=61|35=0|34=110|49=QUANTTEST|52=20100822-21:27:45.369|56=NESTFIX|10=034|
8=FIX.4.2|9=73|35=A|34=111|49=QUANTTEST|52=20100822-21:51:49.766|56=NESTFIX|98=0|108=60|10=085|
8=FIX.4.2|9=73|35=A|34=110|49=NESTFIX|52=20100822-21:51:49.797|56=QUANTTEST|98=0|108=60|10=088|
8=FIX.4.2|9=149|35=D|34=112|49=QUANTTEST|52=20100822-21:51:53.578|56=NESTFIX|11=IAA0031|21=1|38=100|40=1|54=1|55=PETR4.SA|60=20100822-18:51:53|9304=N|9305=3|9306=54|10=078|
8=FIX.4.2|9=71|35=A|34=1|49=QUANTTEST|52=20100823-13:53:40.844|56=NESTFIX|98=0|108=60|10=233|
8=FIX.4.2|9=71|35=A|34=1|49=NESTFIX|52=20100823-13:53:40.860|56=QUANTTEST|98=0|108=60|10=231|
8=FIX.4.2|9=144|35=D|34=2|49=QUANTTEST|52=20100823-13:54:13.575|56=NESTFIX|11=IAA0001|21=1|38=100|40=1|54=1|55=PETR4|60=20100823-10:54:13|9304=N|9305=3|9306=54|10=024|
8=FIX.4.2|9=59|35=0|34=2|49=NESTFIX|52=20100823-13:54:44.072|56=QUANTTEST|10=193|
8=FIX.4.2|9=59|35=0|34=3|49=QUANTTEST|52=20100823-13:55:13.085|56=NESTFIX|10=195|
8=FIX.4.2|9=68|35=1|34=4|49=QUANTTEST|52=20100823-13:55:56.189|56=NESTFIX|112=TEST|10=227|
8=FIX.4.2|9=71|35=A|34=5|49=QUANTTEST|52=20100823-13:57:43.383|56=NESTFIX|98=0|108=60|10=242|
8=FIX.4.2|9=71|35=A|34=3|49=NESTFIX|52=20100823-13:57:43.430|56=QUANTTEST|98=0|108=60|10=233|
8=FIX.4.2|9=68|35=2|34=4|49=NESTFIX|52=20100823-13:57:43.430|56=QUANTTEST|7=3|16=0|10=066|
8=FIX.4.2|9=101|35=4|34=3|43=Y|49=QUANTTEST|52=20100823-13:57:43.446|56=NESTFIX|122=20100823-13:57:43.446|36=6|123=Y|10=000|
8=FIX.4.2|9=144|35=D|34=6|49=QUANTTEST|52=20100823-13:57:49.335|56=NESTFIX|11=IAA0002|21=1|38=100|40=1|54=1|55=PETR4|60=20100823-10:57:49|9304=N|9305=3|9306=54|10=047|
8=FIX.4.2|9=59|35=0|34=7|49=QUANTTEST|52=20100823-13:58:49.758|56=NESTFIX|10=218|
8=FIX.4.2|9=59|35=0|34=5|49=NESTFIX|52=20100823-13:58:54.132|56=QUANTTEST|10=198|
8=FIX.4.2|9=59|35=0|34=8|49=QUANTTEST|52=20100823-13:59:49.073|56=NESTFIX|10=210|
8=FIX.4.2|9=59|35=0|34=6|49=NESTFIX|52=20100823-13:59:54.009|56=QUANTTEST|10=203|
8=FIX.4.2|9=59|35=0|34=9|49=QUANTTEST|52=20100823-14:00:49.418|56=NESTFIX|10=201|
8=FIX.4.2|9=59|35=0|34=7|49=NESTFIX|52=20100823-14:00:58.010|56=QUANTTEST|10=187|
8=FIX.4.2|9=60|35=0|34=10|49=QUANTTEST|52=20100823-14:01:49.808|56=NESTFIX|10=237|
8=FIX.4.2|9=59|35=0|34=8|49=NESTFIX|52=20100823-14:01:58.103|56=QUANTTEST|10=192|
8=FIX.4.2|9=60|35=0|34=11|49=QUANTTEST|52=20100823-14:02:49.198|56=NESTFIX|10=241|
8=FIX.4.2|9=59|35=0|34=9|49=NESTFIX|52=20100823-14:02:58.492|56=QUANTTEST|10=205|
8=FIX.4.2|9=60|35=0|34=12|49=QUANTTEST|52=20100823-14:03:49.603|56=NESTFIX|10=234|
8=FIX.4.2|9=60|35=0|34=10|49=NESTFIX|52=20100823-14:03:58.460|56=QUANTTEST|10=233|
8=FIX.4.2|9=227|35=8|34=11|49=NESTFIX|52=20100823-14:04:36.075|56=QUANTTEST|57=QNF|1=0|6=26.93000000|11=IAA0002|14=100|17=334000420|20=0|31=26.93000000|32=100|37=BQNF0001QUANT|38=100|39=2|44=0.00000000|54=1|55=PETR4|150=2|151=0|9305=3|9306=54|10=225|
8=FIX.4.2|9=60|35=0|34=13|49=QUANTTEST|52=20100823-14:05:02.521|56=NESTFIX|10=225|
8=FIX.4.2|9=60|35=0|34=12|49=NESTFIX|52=20100823-14:05:36.746|56=QUANTTEST|10=240|
8=FIX.4.2|9=60|35=0|34=14|49=QUANTTEST|52=20100823-14:06:02.910|56=NESTFIX|10=229|
8=FIX.4.2|9=60|35=0|34=13|49=NESTFIX|52=20100823-14:06:36.150|56=QUANTTEST|10=231|
8=FIX.4.2|9=60|35=0|34=15|49=QUANTTEST|52=20100823-14:07:02.330|56=NESTFIX|10=227|
8=FIX.4.2|9=60|35=0|34=14|49=NESTFIX|52=20100823-14:07:36.586|56=QUANTTEST|10=246|
8=FIX.4.2|9=60|35=0|34=16|49=QUANTTEST|52=20100823-14:08:02.750|56=NESTFIX|10=235|
8=FIX.4.2|9=60|35=0|34=15|49=NESTFIX|52=20100823-14:08:36.006|56=QUANTTEST|10=235|
8=FIX.4.2|9=60|35=0|34=17|49=QUANTTEST|52=20100823-14:09:02.170|56=NESTFIX|10=233|
8=FIX.4.2|9=60|35=0|34=16|49=NESTFIX|52=20100823-14:09:36.425|56=QUANTTEST|10=242|
8=FIX.4.2|9=60|35=0|34=18|49=QUANTTEST|52=20100823-14:10:02.605|56=NESTFIX|10=229|
8=FIX.4.2|9=60|35=0|34=17|49=NESTFIX|52=20100823-14:10:36.861|56=QUANTTEST|10=239|
8=FIX.4.2|9=60|35=0|34=19|49=QUANTTEST|52=20100823-14:11:02.025|56=NESTFIX|10=227|
8=FIX.4.2|9=60|35=0|34=18|49=NESTFIX|52=20100823-14:11:36.281|56=QUANTTEST|10=237|
8=FIX.4.2|9=145|35=D|34=20|49=QUANTTEST|52=20100823-14:11:50.230|56=NESTFIX|11=IAA0003|21=1|38=100|40=1|54=1|55=PETR4|60=20100823-11:11:50|9304=N|9305=3|9306=54|10=053|
8=FIX.4.2|9=145|35=D|34=21|49=QUANTTEST|52=20100823-14:12:03.195|56=NESTFIX|11=IAA0004|21=1|38=100|40=1|54=2|55=PETR4|60=20100823-11:12:03|9304=N|9305=3|9306=54|10=064|
8=FIX.4.2|9=60|35=0|34=19|49=NESTFIX|52=20100823-14:12:36.076|56=QUANTTEST|10=241|
8=FIX.4.2|9=60|35=0|34=22|49=QUANTTEST|52=20100823-14:13:03.880|56=NESTFIX|10=233|
8=FIX.4.2|9=60|35=0|34=20|49=NESTFIX|52=20100823-14:13:37.370|56=QUANTTEST|10=232|
8=FIX.4.2|9=60|35=0|34=23|49=QUANTTEST|52=20100823-14:14:03.315|56=NESTFIX|10=228|
8=FIX.4.2|9=60|35=0|34=21|49=NESTFIX|52=20100823-14:14:38.305|56=QUANTTEST|10=233|
8=FIX.4.2|9=192|35=8|34=22|49=NESTFIX|52=20100823-14:14:43.803|56=QUANTTEST|57=QNF|1=1086|6=0|11=IAA0003|14=100|17=QNR0001|20=0|31=26.96|32=100|37=ORD0003|38=100|39=1|54=1|55=PETR4|150=1|151=0|9305=3|9306=54|10=022|
8=FIX.4.2|9=192|35=8|34=23|49=NESTFIX|52=20100823-14:15:03.656|56=QUANTTEST|57=QNF|1=1086|6=0|11=IAA0004|14=100|17=QNR0002|20=0|31=26.96|32=100|37=ORD0004|38=100|39=1|54=2|55=PETR4|150=1|151=0|9305=3|9306=54|10=030|
8=FIX.4.2|9=60|35=0|34=24|49=QUANTTEST|52=20100823-14:15:03.938|56=NESTFIX|10=241|
8=FIX.4.2|9=60|35=0|34=25|49=QUANTTEST|52=20100823-14:16:03.357|56=NESTFIX|10=238|
8=FIX.4.2|9=60|35=0|34=24|49=NESTFIX|52=20100823-14:16:03.357|56=QUANTTEST|10=237|
8=FIX.4.2|9=60|35=0|34=25|49=NESTFIX|52=20100823-14:17:03.230|56=QUANTTEST|10=229|
8=FIX.4.2|9=60|35=0|34=26|49=QUANTTEST|52=20100823-14:17:03.230|56=NESTFIX|10=230|
8=FIX.4.2|9=60|35=0|34=27|49=QUANTTEST|52=20100823-14:18:03.212|56=NESTFIX|10=232|
8=FIX.4.2|9=60|35=0|34=26|49=NESTFIX|52=20100823-14:18:03.212|56=QUANTTEST|10=231|
8=FIX.4.2|9=60|35=0|34=27|49=NESTFIX|52=20100823-14:19:03.084|56=QUANTTEST|10=240|
8=FIX.4.2|9=60|35=0|34=28|49=QUANTTEST|52=20100823-14:19:03.084|56=NESTFIX|10=241|
8=FIX.4.2|9=60|35=0|34=29|49=QUANTTEST|52=20100823-14:20:03.082|56=NESTFIX|10=232|
8=FIX.4.2|9=60|35=0|34=28|49=NESTFIX|52=20100823-14:20:03.082|56=QUANTTEST|10=231|
8=FIX.4.2|9=60|35=0|34=30|49=QUANTTEST|52=20100823-14:21:03.517|56=NESTFIX|10=228|
8=FIX.4.2|9=60|35=0|34=29|49=NESTFIX|52=20100823-14:21:03.517|56=QUANTTEST|10=236|
8=FIX.4.2|9=60|35=0|34=30|49=NESTFIX|52=20100823-14:22:03.389|56=QUANTTEST|10=236|
8=FIX.4.2|9=60|35=0|34=31|49=QUANTTEST|52=20100823-14:22:03.389|56=NESTFIX|10=237|
8=FIX.4.2|9=145|35=D|34=32|49=QUANTTEST|52=20100823-14:22:54.499|56=NESTFIX|11=IAA0005|21=1|38=200|40=1|54=1|55=PETR4|60=20100823-11:22:54|9304=N|9305=3|9306=54|10=088|
8=FIX.4.2|9=145|35=D|34=33|49=QUANTTEST|52=20100823-14:23:03.403|56=NESTFIX|11=IAA0006|21=1|38=100|40=1|54=2|55=PETR4|60=20100823-11:23:03|9304=N|9305=3|9306=54|10=065|
8=FIX.4.2|9=60|35=0|34=31|49=NESTFIX|52=20100823-14:23:03.403|56=QUANTTEST|10=225|
8=FIX.4.2|9=60|35=0|34=32|49=NESTFIX|52=20100823-14:24:03.275|56=QUANTTEST|10=234|
8=FIX.4.2|9=60|35=0|34=34|49=QUANTTEST|52=20100823-14:24:03.510|56=NESTFIX|10=228|
8=FIX.4.2|9=194|35=8|34=33|49=NESTFIX|52=20100823-14:24:31.876|56=QUANTTEST|57=QNF|1=1086|6=0|11=IAA0005|14=100|17=QNR0003|20=0|31=26.95|32=100|37=ORD0005|38=200|39=1|54=1|55=PETR4|150=1|151=100|9305=3|9306=54|10=137|
8=FIX.4.2|9=192|35=8|34=34|49=NESTFIX|52=20100823-14:24:33.141|56=QUANTTEST|57=QNF|1=1086|6=0|11=IAA0006|14=100|17=QNR0004|20=0|31=26.95|32=100|37=ORD0006|38=100|39=1|54=2|55=PETR4|150=1|151=0|9305=3|9306=54|10=029|
8=FIX.4.2|9=60|35=0|34=35|49=QUANTTEST|52=20100823-14:25:03.335|56=NESTFIX|10=235|
8=FIX.4.2|9=69|35=1|34=35|49=NESTFIX|52=20100823-14:25:19.487|56=QUANTTEST|112=TEST|10=022|
8=FIX.4.2|9=69|35=0|34=36|49=QUANTTEST|52=20100823-14:25:19.924|56=NESTFIX|112=TEST|10=018|
8=FIX.4.2|9=60|35=0|34=37|49=QUANTTEST|52=20100823-14:26:19.875|56=NESTFIX|10=254|
8=FIX.4.2|9=60|35=0|34=36|49=NESTFIX|52=20100823-14:26:28.138|56=QUANTTEST|10=245|
8=FIX.4.2|9=60|35=0|34=38|49=QUANTTEST|52=20100823-14:27:19.310|56=NESTFIX|10=240|
8=FIX.4.2|9=60|35=0|34=37|49=NESTFIX|52=20100823-14:27:28.526|56=QUANTTEST|10=248|
8=FIX.4.2|9=227|35=8|34=38|49=NESTFIX|52=20100823-14:27:37.867|56=QUANTTEST|57=QNF|1=0|6=26.95000000|11=IAA0005|14=100|17=334000569|20=0|31=26.95000000|32=100|37=BQNF0002QUANT|38=100|39=2|44=0.00000000|54=1|55=PETR4|150=2|151=0|9305=3|9306=54|10=015|
8=FIX.4.2|9=60|35=0|34=39|49=QUANTTEST|52=20100823-14:28:19.745|56=NESTFIX|10=254|
8=FIX.4.2|9=60|35=0|34=39|49=NESTFIX|52=20100823-14:28:37.583|56=QUANTTEST|10=254|
8=FIX.4.2|9=60|35=0|34=40|49=QUANTTEST|52=20100823-14:29:19.180|56=NESTFIX|10=240|
8=FIX.4.2|9=60|35=0|34=40|49=NESTFIX|52=20100823-14:29:37.019|56=QUANTTEST|10=241|
8=FIX.4.2|9=60|35=0|34=41|49=QUANTTEST|52=20100823-14:30:19.615|56=NESTFIX|10=236|
8=FIX.4.2|9=60|35=0|34=41|49=NESTFIX|52=20100823-14:30:37.454|56=QUANTTEST|10=237|
8=FIX.4.2|9=60|35=0|34=42|49=QUANTTEST|52=20100823-14:31:19.035|56=NESTFIX|10=234|
8=FIX.4.2|9=145|35=D|34=43|49=QUANTTEST|52=20100823-14:31:25.314|56=NESTFIX|11=IAA0007|21=1|38=200|40=1|54=1|55=VALE5|60=20100823-11:31:25|9304=N|9305=3|9306=54|10=056|
8=FIX.4.2|9=60|35=0|34=42|49=NESTFIX|52=20100823-14:31:37.764|56=QUANTTEST|10=243|
8=FIX.4.2|9=145|35=D|34=44|49=QUANTTEST|52=20100823-14:31:38.279|56=NESTFIX|11=IAA0008|21=1|38=100|40=1|54=2|55=VALE5|60=20100823-11:31:38|9304=N|9305=3|9306=54|10=076|
8=FIX.4.2|9=194|35=8|34=43|49=NESTFIX|52=20100823-14:31:57.789|56=QUANTTEST|57=QNF|1=1086|6=0|11=IAA0007|14=100|17=QNR0005|20=0|31=42.92|32=100|37=ORD0007|38=200|39=1|54=1|55=VALE5|150=1|151=100|9305=3|9306=54|10=130|
8=FIX.4.2|9=192|35=8|34=44|49=NESTFIX|52=20100823-14:31:57.804|56=QUANTTEST|57=QNF|1=1086|6=0|11=IAA0008|14=100|17=QNR0006|20=0|31=42.92|32=100|37=ORD0008|38=100|39=1|54=2|55=VALE5|150=1|151=0|9305=3|9306=54|10=023|
8=FIX.4.2|9=60|35=0|34=45|49=QUANTTEST|52=20100823-14:32:38.698|56=NESTFIX|10=254|
8=FIX.4.2|9=69|35=1|34=46|49=QUANTTEST|52=20100823-14:33:10.923|56=NESTFIX|112=TEST|10=009|
8=FIX.4.2|9=72|35=A|34=47|49=QUANTTEST|52=20100823-14:34:34.523|56=NESTFIX|98=0|108=60|10=033|
8=FIX.4.2|9=72|35=A|34=48|49=QUANTTEST|52=20100823-14:35:04.748|56=NESTFIX|98=0|108=60|10=041|
8=FIX.4.2|9=72|35=A|34=49|49=QUANTTEST|52=20100823-14:35:34.958|56=NESTFIX|98=0|108=60|10=048|
8=FIX.4.2|9=72|35=A|34=50|49=QUANTTEST|52=20100823-14:36:04.168|56=NESTFIX|98=0|108=60|10=031|
8=FIX.4.2|9=72|35=A|34=51|49=QUANTTEST|52=20100823-14:36:34.393|56=NESTFIX|98=0|108=60|10=035|
8=FIX.4.2|9=72|35=A|34=52|49=QUANTTEST|52=20100823-14:37:04.618|56=NESTFIX|98=0|108=60|10=034|
8=FIX.4.2|9=72|35=A|34=53|49=QUANTTEST|52=20100823-14:37:34.828|56=NESTFIX|98=0|108=60|10=041|
8=FIX.4.2|9=72|35=A|34=54|49=QUANTTEST|52=20100823-14:38:04.038|56=NESTFIX|98=0|108=60|10=033|
8=FIX.4.2|9=72|35=A|34=55|49=QUANTTEST|52=20100823-14:38:34.263|56=NESTFIX|98=0|108=60|10=037|
8=FIX.4.2|9=72|35=A|34=56|49=QUANTTEST|52=20100823-14:39:04.473|56=NESTFIX|98=0|108=60|10=039|
8=FIX.4.2|9=72|35=A|34=57|49=QUANTTEST|52=20100823-14:39:34.698|56=NESTFIX|98=0|108=60|10=052|
8=FIX.4.2|9=72|35=A|34=58|49=QUANTTEST|52=20100823-14:40:04.908|56=NESTFIX|98=0|108=60|10=036|
8=FIX.4.2|9=72|35=A|34=58|49=NESTFIX|52=20100823-14:40:04.908|56=QUANTTEST|98=0|108=60|10=036|
8=FIX.4.2|9=70|35=2|34=59|49=QUANTTEST|52=20100823-14:40:04.908|56=NESTFIX|7=45|16=0|10=171|
8=FIX.4.2|9=70|35=2|34=59|49=NESTFIX|52=20100823-14:40:04.908|56=QUANTTEST|7=46|16=0|10=172|
8=FIX.4.2|9=103|35=4|34=46|43=Y|49=QUANTTEST|52=20100823-14:40:04.908|56=NESTFIX|122=20100823-14:40:04.908|36=60|123=Y|10=091|
8=FIX.4.2|9=103|35=4|34=45|43=Y|49=NESTFIX|52=20100823-14:40:04.908|56=QUANTTEST|122=20100823-14:40:04.908|36=47|123=Y|10=095|
8=FIX.4.2|9=258|35=8|34=47|43=Y|49=NESTFIX|52=20100823-14:40:04.908|56=QUANTTEST|57=QNF|122=20100823-14:39:35.526|1=0|6=42.95000000|11=IAA0007|14=100|17=334000632|20=0|31=42.95000000|32=100|37=BQNF0003QUANT|38=100|39=2|44=0.00000000|54=1|55=VALE5|150=2|151=0|9305=3|9306=54|10=238|
8=FIX.4.2|9=103|35=4|34=48|43=Y|49=NESTFIX|52=20100823-14:40:04.923|56=QUANTTEST|122=20100823-14:40:04.923|36=60|123=Y|10=087|
8=FIX.4.2|9=60|35=0|34=60|49=QUANTTEST|52=20100823-14:41:04.343|56=NESTFIX|10=231|
8=FIX.4.2|9=60|35=0|34=60|49=NESTFIX|52=20100823-14:41:04.343|56=QUANTTEST|10=231|
8=FIX.4.2|9=60|35=0|34=61|49=NESTFIX|52=20100823-14:42:04.216|56=QUANTTEST|10=232|
8=FIX.4.2|9=60|35=0|34=61|49=QUANTTEST|52=20100823-14:42:04.216|56=NESTFIX|10=232|
8=FIX.4.2|9=145|35=D|34=62|49=QUANTTEST|52=20100823-14:42:35.151|56=NESTFIX|11=IAA0009|21=1|38=200|40=1|54=1|55=KEPL3|60=20100823-11:42:35|9304=N|9305=3|9306=54|10=066|
8=FIX.4.2|9=60|35=0|34=62|49=NESTFIX|52=20100823-14:43:04.174|56=QUANTTEST|10=237|
8=FIX.4.2|9=145|35=D|34=63|49=QUANTTEST|52=20100823-14:43:05.064|56=NESTFIX|11=IAA0010|21=1|38=100|40=1|54=2|55=KEPL3|60=20100823-11:43:05|9304=N|9305=3|9306=54|10=058|
8=FIX.4.2|9=60|35=0|34=63|49=NESTFIX|52=20100823-14:44:04.076|56=QUANTTEST|10=240|
8=FIX.4.2|9=60|35=0|34=64|49=QUANTTEST|52=20100823-14:44:05.169|56=NESTFIX|10=245|
8=FIX.4.2|9=60|35=0|34=64|49=NESTFIX|52=20100823-14:45:04.822|56=QUANTTEST|10=241|
8=FIX.4.2|9=60|35=0|34=65|49=QUANTTEST|52=20100823-14:45:05.915|56=NESTFIX|10=246|
8=FIX.4.2|9=60|35=0|34=65|49=NESTFIX|52=20100823-14:46:04.552|56=QUANTTEST|10=243|
8=FIX.4.2|9=60|35=0|34=66|49=QUANTTEST|52=20100823-14:46:05.645|56=NESTFIX|10=248|
8=FIX.4.2|9=60|35=0|34=66|49=NESTFIX|52=20100823-14:47:04.283|56=QUANTTEST|10=246|
8=FIX.4.2|9=60|35=0|34=67|49=QUANTTEST|52=20100823-14:47:05.376|56=NESTFIX|10=251|
8=FIX.4.2|9=193|35=8|34=67|49=NESTFIX|52=20100823-14:47:38.089|56=QUANTTEST|57=QNF|1=1086|6=0|11=IAA0009|14=100|17=QNR0007|20=0|31=0.37|32=100|37=ORD0009|38=200|39=1|54=1|55=KEPL3|150=1|151=100|9305=3|9306=54|10=087|
8=FIX.4.2|9=191|35=8|34=68|49=NESTFIX|52=20100823-14:47:38.105|56=QUANTTEST|57=QNF|1=1086|6=0|11=IAA0010|14=100|17=QNR0008|20=0|31=0.37|32=100|37=ORD0010|38=100|39=1|54=2|55=KEPL3|150=1|151=0|9305=3|9306=54|10=219|
8=FIX.4.2|9=225|35=8|34=69|49=NESTFIX|52=20100823-14:47:47.491|56=QUANTTEST|57=QNF|1=0|6=0.37000000|11=IAA0009|14=100|17=334000685|20=0|31=0.37000000|32=100|37=BQNF0004QUANT|38=100|39=2|44=0.00000000|54=1|55=KEPL3|150=2|151=0|9305=3|9306=54|10=138|
8=FIX.4.2|9=60|35=0|34=68|49=QUANTTEST|52=20100823-14:48:05.107|56=NESTFIX|10=245|
8=FIX.4.2|9=60|35=0|34=70|49=NESTFIX|52=20100823-14:48:47.664|56=QUANTTEST|10=252|
8=FIX.4.2|9=60|35=0|34=69|49=QUANTTEST|52=20100823-14:49:05.827|56=NESTFIX|10=000|
8=FIX.4.2|9=60|35=0|34=71|49=NESTFIX|52=20100823-14:49:47.369|56=QUANTTEST|10=000|
8=FIX.4.2|9=60|35=0|34=70|49=QUANTTEST|52=20100823-14:50:05.532|56=NESTFIX|10=233|
8=FIX.4.2|9=60|35=0|34=72|49=NESTFIX|52=20100823-14:50:47.074|56=QUANTTEST|10=242|
8=FIX.4.2|9=72|35=A|34=71|49=QUANTTEST|52=20100823-17:36:21.978|56=NESTFIX|98=0|108=60|10=045|
8=FIX.4.2|9=72|35=A|34=73|49=NESTFIX|52=20100823-17:36:22.025|56=QUANTTEST|98=0|108=60|10=031|
8=FIX.4.2|9=145|35=D|34=72|49=QUANTTEST|52=20100823-17:36:53.157|56=NESTFIX|11=IAA0011|21=1|38=100|40=1|54=1|55=KEPL3|60=20100823-14:36:53|9304=N|9305=3|9306=54|10=077|
8=FIX.4.2|9=60|35=0|34=74|49=NESTFIX|52=20100823-17:37:22.493|56=QUANTTEST|10=250|
8=FIX.4.2|9=145|35=D|34=73|49=QUANTTEST|52=20100823-17:37:24.008|56=NESTFIX|11=IAA0012|21=1|38=100|40=1|54=2|55=KEPL3|60=20100823-14:37:24|9304=N|9305=3|9306=54|10=073|
8=FIX.4.2|9=60|35=0|34=75|49=NESTFIX|52=20100823-17:38:22.727|56=QUANTTEST|10=252|
8=FIX.4.2|9=60|35=0|34=74|49=QUANTTEST|52=20100823-17:38:24.758|56=NESTFIX|10=001|
8=FIX.4.2|9=191|35=8|34=76|49=NESTFIX|52=20100823-17:39:01.654|56=QUANTTEST|57=QNF|1=1086|6=0|11=IAA0011|14=100|17=QNR0009|20=0|31=0.37|32=100|37=ORD0011|38=100|39=1|54=1|55=KEPL3|150=1|151=0|9305=3|9306=54|10=223|
8=FIX.4.2|9=60|35=0|34=75|49=QUANTTEST|52=20100823-17:39:24.132|56=NESTFIX|10=245|
8=FIX.4.2|9=69|35=1|34=77|49=NESTFIX|52=20100823-17:39:44.642|56=QUANTTEST|112=TEST|10=027|
8=FIX.4.2|9=69|35=0|34=76|49=QUANTTEST|52=20100823-17:39:44.642|56=NESTFIX|112=TEST|10=025|
8=FIX.4.2|9=191|35=8|34=78|49=NESTFIX|52=20100823-17:40:41.315|56=QUANTTEST|57=QNF|1=1086|6=0|11=IAA0012|14=100|17=QNR0010|20=0|31=0.37|32=100|37=ORD0012|38=100|39=1|54=2|55=KEPL3|150=1|151=0|9305=3|9306=54|10=210|
8=FIX.4.2|9=60|35=0|34=77|49=QUANTTEST|52=20100823-17:40:44.657|56=NESTFIX|10=253|
8=FIX.4.2|9=60|35=0|34=79|49=NESTFIX|52=20100823-17:41:41.283|56=QUANTTEST|10=248|
8=FIX.4.2|9=60|35=0|34=78|49=QUANTTEST|52=20100823-17:41:44.033|56=NESTFIX|10=243|
8=FIX.4.2|9=60|35=0|34=80|49=NESTFIX|52=20100823-17:42:41.658|56=QUANTTEST|10=247|
8=FIX.4.2|9=60|35=0|34=79|49=QUANTTEST|52=20100823-17:42:44.407|56=NESTFIX|10=250|
8=FIX.4.2|9=60|35=0|34=81|49=NESTFIX|52=20100823-17:43:41.033|56=QUANTTEST|10=236|
8=FIX.4.2|9=60|35=0|34=80|49=QUANTTEST|52=20100823-17:43:44.782|56=NESTFIX|10=249|
8=FIX.4.2|9=60|35=0|34=82|49=NESTFIX|52=20100823-17:44:41.423|56=QUANTTEST|10=241|
8=FIX.4.2|9=60|35=0|34=81|49=QUANTTEST|52=20100823-17:44:44.157|56=NESTFIX|10=247|
8=FIX.4.2|9=60|35=0|34=83|49=NESTFIX|52=20100823-17:45:41.798|56=QUANTTEST|10=002|
8=FIX.4.2|9=60|35=0|34=82|49=QUANTTEST|52=20100823-17:45:44.532|56=NESTFIX|10=246|
8=FIX.4.2|9=60|35=0|34=84|49=NESTFIX|52=20100823-17:46:41.158|56=QUANTTEST|10=250|
8=FIX.4.2|9=60|35=0|34=83|49=QUANTTEST|52=20100823-17:46:44.907|56=NESTFIX|10=254|
8=FIX.4.2|9=60|35=0|34=85|49=NESTFIX|52=20100823-17:47:41.533|56=QUANTTEST|10=249|
8=FIX.4.2|9=60|35=0|34=84|49=QUANTTEST|52=20100823-17:47:44.283|56=NESTFIX|10=253|
8=FIX.4.2|9=60|35=0|34=86|49=NESTFIX|52=20100823-17:48:41.908|56=QUANTTEST|10=001|
8=FIX.4.2|9=60|35=0|34=85|49=QUANTTEST|52=20100823-17:48:44.642|56=NESTFIX|10=254|
8=FIX.4.2|9=60|35=0|34=87|49=NESTFIX|52=20100823-17:49:41.268|56=QUANTTEST|10=002|
8=FIX.4.2|9=60|35=0|34=86|49=QUANTTEST|52=20100823-17:49:44.017|56=NESTFIX|10=252|
8=FIX.4.2|9=60|35=0|34=88|49=NESTFIX|52=20100823-17:50:41.643|56=QUANTTEST|10=248|
8=FIX.4.2|9=60|35=0|34=87|49=QUANTTEST|52=20100823-17:50:44.377|56=NESTFIX|10=254|
8=FIX.4.2|9=71|35=A|34=1|49=QUANTTEST|52=20100831-17:28:50.952|56=NESTFIX|98=0|108=60|10=239|
8=FIX.4.2|9=71|35=A|34=1|49=NESTFIX|52=20100831-17:28:50.983|56=QUANTTEST|98=0|108=60|10=243|
8=FIX.4.2|9=144|35=D|34=2|49=QUANTTEST|52=20100831-17:28:58.233|56=NESTFIX|11=IAA0001|21=1|38=100|40=1|54=1|55=PETR4|60=20100831-14:28:58|9304=N|9305=3|9306=54|10=041|
8=FIX.4.2|9=59|35=0|34=2|49=NESTFIX|52=20100831-17:29:50.322|56=QUANTTEST|10=193|
8=FIX.4.2|9=59|35=0|34=3|49=QUANTTEST|52=20100831-17:29:58.056|56=NESTFIX|10=206|
8=FIX.4.2|9=71|35=A|34=5|49=QUANTTEST|52=20100831-17:31:21.206|56=NESTFIX|98=0|108=60|10=227|
8=FIX.4.2|9=71|35=A|34=6|49=QUANTTEST|52=20100831-17:31:51.266|56=NESTFIX|98=0|108=60|10=237|
8=FIX.4.2|9=71|35=A|34=7|49=QUANTTEST|52=20100831-17:32:21.311|56=NESTFIX|98=0|108=60|10=227|
8=FIX.4.2|9=71|35=A|34=8|49=QUANTTEST|52=20100831-17:32:51.371|56=NESTFIX|98=0|108=60|10=237|
8=FIX.4.2|9=71|35=A|34=7|49=NESTFIX|52=20100831-17:32:59.433|56=QUANTTEST|98=0|108=60|10=243|
8=FIX.4.2|9=68|35=2|34=9|49=QUANTTEST|52=20100831-17:32:59.433|56=NESTFIX|7=3|16=0|10=077|
8=FIX.4.2|9=68|35=2|34=8|49=NESTFIX|52=20100831-17:32:59.433|56=QUANTTEST|7=4|16=0|10=077|
8=FIX.4.2|9=175|35=D|34=4|43=Y|49=QUANTTEST|52=20100831-17:32:59.433|56=NESTFIX|122=20100831-17:31:02.785|11=IAA0002|21=1|38=100|40=1|54=1|55=PETR4|60=20100831-14:31:02|9304=N|9305=3|9306=54|10=030|
8=FIX.4.2|9=102|35=4|34=5|43=Y|49=QUANTTEST|52=20100831-17:32:59.433|56=NESTFIX|122=20100831-17:32:59.433|36=10|123=Y|10=044|
8=FIX.4.2|9=101|35=4|34=3|43=Y|49=NESTFIX|52=20100831-17:32:59.449|56=QUANTTEST|122=20100831-17:32:59.449|36=9|123=Y|10=015|
8=FIX.4.2|9=72|35=A|34=10|49=QUANTTEST|52=20100831-17:34:04.788|56=NESTFIX|98=0|108=60|10=035|
8=FIX.4.2|9=71|35=A|34=9|49=NESTFIX|52=20100831-17:34:04.835|56=QUANTTEST|98=0|108=60|10=243|
8=FIX.4.2|9=145|35=D|34=11|49=QUANTTEST|52=20100831-17:34:08.741|56=NESTFIX|11=IAA0003|21=1|38=100|40=1|54=1|55=PETR4|60=20100831-14:34:08|9304=N|9305=3|9306=54|10=080|
8=FIX.4.2|9=72|35=A|34=12|49=QUANTTEST|52=20100831-17:35:58.733|56=NESTFIX|98=0|108=60|10=037|
8=FIX.4.2|9=72|35=A|34=10|49=NESTFIX|52=20100831-17:35:58.780|56=QUANTTEST|98=0|108=60|10=037|
8=FIX.4.2|9=145|35=D|34=13|49=QUANTTEST|52=20100831-17:36:03.623|56=NESTFIX|11=IAA0004|21=1|38=100|40=1|54=1|55=PETR4|60=20100831-14:36:03|9304=N|9305=3|9306=54|10=076|
8=FIX.4.2|9=72|35=A|34=14|49=QUANTTEST|52=20100831-22:11:27.885|56=NESTFIX|98=0|108=60|10=033|
8=FIX.4.2|9=72|35=A|34=11|49=NESTFIX|52=20100831-22:11:27.947|56=QUANTTEST|98=0|108=60|10=029|
8=FIX.4.2|9=145|35=D|34=15|49=QUANTTEST|52=20100831-22:11:30.837|56=NESTFIX|11=IAA0005|21=1|38=100|40=1|54=1|55=PETR4|60=20100831-19:11:30|9304=N|9305=3|9306=54|10=073|
8=FIX.4.2|9=72|35=A|34=16|49=QUANTTEST|52=20100831-22:12:14.362|56=NESTFIX|98=0|108=60|10=022|
8=FIX.4.2|9=72|35=A|34=12|49=NESTFIX|52=20100831-22:12:14.409|56=QUANTTEST|98=0|108=60|10=020|
8=FIX.4.2|9=145|35=D|34=17|49=QUANTTEST|52=20100831-22:12:17.909|56=NESTFIX|11=IAA0006|21=1|38=100|40=1|54=1|55=PETR4|60=20100831-19:12:17|9304=N|9305=3|9306=54|10=088|
8=FIX.4.2|9=60|35=0|34=13|49=NESTFIX|52=20100831-22:13:14.791|56=QUANTTEST|10=234|
8=FIX.4.2|9=60|35=0|34=18|49=QUANTTEST|52=20100831-22:13:17.572|56=NESTFIX|10=239|
8=FIX.4.2|9=72|35=A|34=19|49=QUANTTEST|52=20100831-22:23:39.259|56=NESTFIX|98=0|108=60|10=039|
8=FIX.4.2|9=72|35=A|34=14|49=NESTFIX|52=20100831-22:23:39.322|56=QUANTTEST|98=0|108=60|10=025|
8=FIX.4.2|9=145|35=D|34=20|49=QUANTTEST|52=20100831-22:23:43.229|56=NESTFIX|11=IAA0007|21=1|38=100|40=1|54=1|55=PETR4|60=20100831-19:23:43|9304=N|9305=3|9306=54|10=080|
8=FIX.4.2|9=72|35=A|34=21|49=QUANTTEST|52=20100831-22:31:34.842|56=NESTFIX|98=0|108=60|10=024|
8=FIX.4.2|9=72|35=A|34=15|49=NESTFIX|52=20100831-22:31:34.889|56=QUANTTEST|98=0|108=60|10=038|
8=FIX.4.2|9=145|35=D|34=22|49=QUANTTEST|52=20100831-22:31:38.499|56=NESTFIX|11=IAA0008|21=1|38=100|40=1|54=1|55=PETR4|60=20100831-19:31:38|9304=N|9305=3|9306=54|10=098|
8=FIX.4.2|9=72|35=A|34=24|49=QUANTTEST|52=20100831-22:32:35.887|56=NESTFIX|98=0|108=60|10=038|
8=FIX.4.2|9=72|35=A|34=16|49=NESTFIX|52=20100831-22:32:35.887|56=QUANTTEST|98=0|108=60|10=039|
8=FIX.4.2|9=70|35=2|34=17|49=NESTFIX|52=20100831-22:32:35.887|56=QUANTTEST|7=23|16=0|10=170|
8=FIX.4.2|9=176|35=D|34=23|43=Y|49=QUANTTEST|52=20100831-22:32:35.902|56=NESTFIX|122=20100831-22:32:27.528|11=IAA0009|21=1|38=100|40=1|54=1|55=PETR4|60=20100831-19:32:27|9304=N|9305=3|9306=54|10=090|
8=FIX.4.2|9=103|35=4|34=24|43=Y|49=QUANTTEST|52=20100831-22:32:35.902|56=NESTFIX|122=20100831-22:32:35.902|36=25|123=Y|10=082|
8=FIX.4.2|9=72|35=A|34=25|49=QUANTTEST|52=20100831-22:36:01.733|56=NESTFIX|98=0|108=60|10=026|
8=FIX.4.2|9=72|35=A|34=18|49=NESTFIX|52=20100831-22:36:01.780|56=QUANTTEST|98=0|108=60|10=030|
8=FIX.4.2|9=145|35=D|34=26|49=QUANTTEST|52=20100831-22:36:04.342|56=NESTFIX|11=IAA0010|21=1|38=100|40=1|54=1|55=PETR4|60=20100831-19:36:04|9304=N|9305=3|9306=54|10=078|
8=FIX.4.2|9=145|35=D|34=27|49=QUANTTEST|52=20100831-22:36:21.450|56=NESTFIX|11=IAA0011|21=1|38=100|40=1|54=1|55=VALE5|60=20100831-19:36:21|9304=N|9305=3|9306=54|10=060|
8=FIX.4.2|9=60|35=0|34=19|49=NESTFIX|52=20100831-22:37:01.479|56=QUANTTEST|10=245|
8=FIX.4.2|9=60|35=0|34=28|49=QUANTTEST|52=20100831-22:37:21.883|56=NESTFIX|10=246|
8=FIX.4.2|9=60|35=0|34=20|49=NESTFIX|52=20100831-22:38:01.629|56=QUANTTEST|10=235|
8=FIX.4.2|9=72|35=A|34=29|49=QUANTTEST|52=20100831-23:22:37.452|56=NESTFIX|98=0|108=60|10=033|
8=FIX.4.2|9=72|35=A|34=21|49=NESTFIX|52=20100831-23:22:37.499|56=QUANTTEST|98=0|108=60|10=036|
8=FIX.4.2|9=145|35=D|34=30|49=QUANTTEST|52=20100831-23:22:41.311|56=NESTFIX|11=IAA0012|21=1|38=100|40=1|54=1|55=PETR4|60=20100831-20:22:41|9304=N|9305=3|9306=54|10=056|
8=FIX.4.2|9=60|35=0|34=31|49=QUANTTEST|52=20100831-23:23:41.632|56=NESTFIX|10=230|
8=FIX.4.2|9=60|35=0|34=22|49=NESTFIX|52=20100831-23:23:48.350|56=QUANTTEST|10=234|
8=FIX.4.2|9=72|35=A|34=32|49=QUANTTEST|52=20100831-23:24:38.798|56=NESTFIX|98=0|108=60|10=043|
8=FIX.4.2|9=72|35=A|34=33|49=QUANTTEST|52=20100831-23:25:15.715|56=NESTFIX|98=0|108=60|10=029|
8=FIX.4.2|9=72|35=A|34=23|49=NESTFIX|52=20100831-23:25:15.747|56=QUANTTEST|98=0|108=60|10=033|
8=FIX.4.2|9=70|35=2|34=24|49=NESTFIX|52=20100831-23:25:15.762|56=QUANTTEST|7=32|16=0|10=161|
8=FIX.4.2|9=103|35=4|34=32|43=Y|49=QUANTTEST|52=20100831-23:25:15.762|56=NESTFIX|122=20100831-23:25:15.762|36=34|123=Y|10=091|
8=FIX.4.2|9=145|35=D|34=34|49=QUANTTEST|52=20100831-23:25:18.246|56=NESTFIX|11=IAA0013|21=1|38=100|40=1|54=1|55=PETR4|60=20100831-20:25:18|9304=N|9305=3|9306=54|10=082|
8=FIX.4.2|9=145|35=D|34=35|49=QUANTTEST|52=20100831-23:25:55.492|56=NESTFIX|11=IAA0014|21=1|38=100|40=1|54=1|55=VALE5|60=20100831-20:25:55|9304=N|9305=3|9306=54|10=071|
8=FIX.4.2|9=145|35=D|34=36|49=QUANTTEST|52=20100831-23:25:58.242|56=NESTFIX|11=IAA0015|21=1|38=100|40=1|54=1|55=LAME3|60=20100831-20:25:58|9304=N|9305=3|9306=54|10=061|
8=FIX.4.2|9=60|35=0|34=25|49=NESTFIX|52=20100831-23:26:15.724|56=QUANTTEST|10=239|
8=FIX.4.2|9=72|35=A|34=37|49=QUANTTEST|52=20100831-23:36:34.543|56=NESTFIX|98=0|108=60|10=035|
8=FIX.4.2|9=72|35=A|34=26|49=NESTFIX|52=20100831-23:36:34.590|56=QUANTTEST|98=0|108=60|10=035|
8=FIX.4.2|9=145|35=D|34=38|49=QUANTTEST|52=20100831-23:36:38.996|56=NESTFIX|11=IAA0016|21=1|38=100|40=1|54=1|55=PETR4|60=20100831-20:36:38|9304=N|9305=3|9306=54|10=109|
8=FIX.4.2|9=145|35=D|34=39|49=QUANTTEST|52=20100831-23:36:51.245|56=NESTFIX|11=IAA0017|21=1|38=100|40=1|54=1|55=VALE5|60=20100831-20:36:51|9304=N|9305=3|9306=54|10=070|
8=FIX.4.2|9=145|35=D|34=40|49=QUANTTEST|52=20100831-23:36:53.776|56=NESTFIX|11=IAA0018|21=1|38=100|40=1|54=1|55=LAME3|60=20100831-20:36:53|9304=N|9305=3|9306=54|10=065|
8=FIX.4.2|9=71|35=A|34=1|49=QUANTTEST|52=20100901-13:48:55.453|56=NESTFIX|98=0|108=60|10=236|
8=FIX.4.2|9=71|35=A|34=1|49=NESTFIX|52=20100901-13:48:55.484|56=QUANTTEST|98=0|108=60|10=240|
8=FIX.4.2|9=144|35=D|34=2|49=QUANTTEST|52=20100901-13:49:10.640|56=NESTFIX|11=IAA0001|21=1|38=100|40=1|54=1|55=PETR4|60=20100901-10:49:10|9304=N|9305=3|9306=54|10=013|
8=FIX.4.2|9=144|35=D|34=3|49=QUANTTEST|52=20100901-13:49:15.015|56=NESTFIX|11=IAA0002|21=1|38=100|40=1|54=1|55=VALE5|60=20100901-10:49:15|9304=N|9305=3|9306=54|10=003|
8=FIX.4.2|9=144|35=D|34=4|49=QUANTTEST|52=20100901-13:49:15.031|56=NESTFIX|11=IAA0003|21=1|38=100|40=1|54=1|55=VALE5|60=20100901-10:49:15|9304=N|9305=3|9306=54|10=003|
8=FIX.4.2|9=144|35=D|34=5|49=QUANTTEST|52=20100901-13:49:21.155|56=NESTFIX|11=IAA0004|21=1|38=100|40=1|54=1|55=LAME3|60=20100901-10:49:21|9304=N|9305=3|9306=54|10=251|
8=FIX.4.2|9=59|35=0|34=2|49=NESTFIX|52=20100901-13:49:55.623|56=QUANTTEST|10=198|
8=FIX.4.2|9=59|35=0|34=6|49=QUANTTEST|52=20100901-13:50:21.512|56=NESTFIX|10=184|
8=FIX.4.2|9=68|35=1|34=7|49=QUANTTEST|52=20100901-13:51:07.558|56=NESTFIX|112=TEST|10=219|
8=FIX.4.2|9=71|35=A|34=8|49=QUANTTEST|52=20100901-13:52:26.633|56=NESTFIX|98=0|108=60|10=236|
8=FIX.4.2|9=71|35=A|34=4|49=NESTFIX|52=20100901-13:52:30.007|56=QUANTTEST|98=0|108=60|10=222|
8=FIX.4.2|9=68|35=2|34=9|49=QUANTTEST|52=20100901-13:52:32.039|56=NESTFIX|7=3|16=0|10=066|
8=FIX.4.2|9=68|35=2|34=5|49=NESTFIX|52=20100901-13:52:35.570|56=QUANTTEST|7=7|16=0|10=069|
8=FIX.4.2|9=102|35=4|34=7|43=Y|49=QUANTTEST|52=20100901-13:52:35.570|56=NESTFIX|122=20100901-13:52:35.570|36=10|123=Y|10=030|
8=FIX.4.2|9=101|35=4|34=3|43=Y|49=NESTFIX|52=20100901-13:52:35.585|56=QUANTTEST|122=20100901-13:52:35.585|36=6|123=Y|10=250|
8=FIX.4.2|9=72|35=A|34=10|49=QUANTTEST|52=20100901-14:16:24.459|56=NESTFIX|98=0|108=60|10=027|
8=FIX.4.2|9=71|35=A|34=6|49=NESTFIX|52=20100901-14:16:24.505|56=QUANTTEST|98=0|108=60|10=231|
8=FIX.4.2|9=145|35=D|34=11|49=QUANTTEST|52=20100901-14:16:30.646|56=NESTFIX|11=IAA0005|21=1|38=100|40=1|54=1|55=PETR4|60=20100901-11:16:30|9304=N|9305=3|9306=54|10=066|
8=FIX.4.2|9=59|35=0|34=7|49=NESTFIX|52=20100901-14:17:29.384|56=QUANTTEST|10=204|
8=FIX.4.2|9=60|35=0|34=12|49=QUANTTEST|52=20100901-14:17:30.509|56=NESTFIX|10=231|
8=FIX.4.2|9=59|35=0|34=8|49=NESTFIX|52=20100901-14:18:29.463|56=QUANTTEST|10=204|
8=FIX.4.2|9=60|35=0|34=13|49=QUANTTEST|52=20100901-14:18:30.525|56=NESTFIX|10=231|
8=FIX.4.2|9=59|35=0|34=9|49=NESTFIX|52=20100901-14:19:29.478|56=QUANTTEST|10=212|
8=FIX.4.2|9=60|35=0|34=14|49=QUANTTEST|52=20100901-14:19:30.541|56=NESTFIX|10=231|
8=FIX.4.2|9=145|35=D|34=15|49=QUANTTEST|52=20100901-14:20:09.385|56=NESTFIX|11=IAA0006|21=1|38=100|40=1|54=1|55=PETR4|60=20100901-11:20:09|9304=N|9305=3|9306=54|10=073|
8=FIX.4.2|9=145|35=D|34=16|49=QUANTTEST|52=20100901-14:20:16.306|56=NESTFIX|11=IAA0007|21=1|38=100|40=1|54=1|55=VALE5|60=20100901-11:20:16|9304=N|9305=3|9306=54|10=046|
8=FIX.4.2|9=145|35=D|34=17|49=QUANTTEST|52=20100901-14:20:16.385|56=NESTFIX|11=IAA0008|21=1|38=100|40=1|54=1|55=VALE5|60=20100901-11:20:16|9304=N|9305=3|9306=54|10=055|
8=FIX.4.2|9=145|35=D|34=18|49=QUANTTEST|52=20100901-14:20:19.900|56=NESTFIX|11=IAA0009|21=1|38=100|40=1|54=1|55=LAME3|60=20100901-11:20:19|9304=N|9305=3|9306=54|10=045|
8=FIX.4.2|9=60|35=0|34=10|49=NESTFIX|52=20100901-14:20:29.478|56=QUANTTEST|10=236|
8=FIX.4.2|9=60|35=0|34=19|49=QUANTTEST|52=20100901-14:21:19.541|56=NESTFIX|10=236|
8=FIX.4.2|9=60|35=0|34=11|49=NESTFIX|52=20100901-14:21:38.400|56=QUANTTEST|10=223|
8=FIX.4.2|9=60|35=0|34=20|49=QUANTTEST|52=20100901-14:22:19.541|56=NESTFIX|10=229|
8=FIX.4.2|9=60|35=0|34=12|49=NESTFIX|52=20100901-14:22:38.322|56=QUANTTEST|10=228|
8=FIX.4.2|9=60|35=0|34=21|49=QUANTTEST|52=20100901-14:23:19.555|56=NESTFIX|10=236|
8=FIX.4.2|9=69|35=1|34=22|49=QUANTTEST|52=20100901-14:23:50.570|56=NESTFIX|112=TEST|10=001|
8=FIX.4.2|9=60|35=0|34=13|49=NESTFIX|52=20100901-14:24:20.804|56=QUANTTEST|10=227|
8=FIX.4.2|9=69|35=0|34=14|49=NESTFIX|52=20100901-14:24:21.226|56=QUANTTEST|112=TEST|10=254|
8=FIX.4.2|9=60|35=0|34=23|49=QUANTTEST|52=20100901-14:24:50.616|56=NESTFIX|10=232|
8=FIX.4.2|9=71|35=A|34=1|49=QUANTTEST|52=20110505-17:49:42.774|56=NESTFIX|98=0|108=60|10=244|
8=FIX.4.2|9=71|35=A|34=1|49=NESTFIX|52=20110505-17:49:42.576|56=QUANTTEST|98=0|108=60|10=244|
8=FIX.4.2|9=59|35=0|34=2|49=NESTFIX|52=20110505-17:50:42.114|56=QUANTTEST|10=186|
8=FIX.4.2|9=59|35=0|34=2|49=QUANTTEST|52=20110505-17:50:42.366|56=NESTFIX|10=195|
8=FIX.4.2|9=59|35=0|34=3|49=QUANTTEST|52=20110505-17:51:43.520|56=NESTFIX|10=190|
8=FIX.4.2|9=59|35=0|34=3|49=NESTFIX|52=20110505-17:51:42.121|56=QUANTTEST|10=186|
8=FIX.4.2|9=152|35=D|34=4|49=QUANTTEST|52=20110505-17:52:27.035|56=NESTFIX|11=IAA0002|21=1|38=100|40=1|54=1|55=PETR4|60=20110505-14:51:34|9304=N|9305=3|9306=54|9307=43|10=144|
8=FIX.4.2|9=59|35=0|34=4|49=NESTFIX|52=20110505-17:52:45.520|56=QUANTTEST|10=194|
8=FIX.4.2|9=59|35=0|34=5|49=QUANTTEST|52=20110505-17:53:27.970|56=NESTFIX|10=205|
8=FIX.4.2|9=68|35=1|34=6|49=QUANTTEST|52=20110505-17:53:57.985|56=NESTFIX|112=TEST|10=234|
8=FIX.4.2|9=59|35=0|34=5|49=NESTFIX|52=20110505-17:53:58.687|56=QUANTTEST|10=214|
8=FIX.4.2|9=68|35=0|34=6|49=NESTFIX|52=20110505-17:53:59.789|56=QUANTTEST|112=TEST|10=237|
8=FIX.4.2|9=59|35=0|34=7|49=QUANTTEST|52=20110505-17:54:57.061|56=NESTFIX|10=202|
8=FIX.4.2|9=68|35=1|34=8|49=QUANTTEST|52=20110505-17:55:13.076|56=NESTFIX|112=TEST|10=221|
8=FIX.4.2|9=59|35=0|34=7|49=NESTFIX|52=20110505-17:55:50.792|56=QUANTTEST|10=207|
8=FIX.4.2|9=68|35=0|34=8|49=NESTFIX|52=20110505-17:55:51.392|56=QUANTTEST|112=TEST|10=223|
8=FIX.4.2|9=59|35=0|34=9|49=QUANTTEST|52=20110505-17:56:13.137|56=NESTFIX|10=202|
8=FIX.4.2|9=69|35=1|34=10|49=QUANTTEST|52=20110505-17:57:04.182|56=NESTFIX|112=TEST|10=007|
8=FIX.4.2|9=72|35=A|34=11|49=QUANTTEST|52=20110505-17:58:26.242|56=NESTFIX|98=0|108=60|10=030|
8=FIX.4.2|9=72|35=A|34=12|49=QUANTTEST|52=20110505-17:58:56.272|56=NESTFIX|98=0|108=60|10=037|
8=FIX.4.2|9=72|35=A|34=13|49=QUANTTEST|52=20110505-17:59:26.287|56=NESTFIX|98=0|108=60|10=042|
8=FIX.4.2|9=72|35=A|34=14|49=QUANTTEST|52=20110505-17:59:56.317|56=NESTFIX|98=0|108=60|10=040|
8=FIX.4.2|9=72|35=A|34=15|49=QUANTTEST|52=20110505-18:00:26.332|56=NESTFIX|98=0|108=60|10=022|
8=FIX.4.2|9=72|35=A|34=16|49=QUANTTEST|52=20110505-18:00:56.362|56=NESTFIX|98=0|108=60|10=029|
8=FIX.4.2|9=72|35=A|34=17|49=QUANTTEST|52=20110505-18:01:26.377|56=NESTFIX|98=0|108=60|10=034|
8=FIX.4.2|9=72|35=A|34=18|49=QUANTTEST|52=20110505-18:01:56.407|56=NESTFIX|98=0|108=60|10=032|
8=FIX.4.2|9=72|35=A|34=19|49=QUANTTEST|52=20110505-18:02:26.422|56=NESTFIX|98=0|108=60|10=028|
8=FIX.4.2|9=72|35=A|34=20|49=QUANTTEST|52=20110505-18:02:56.452|56=NESTFIX|98=0|108=60|10=026|
8=FIX.4.2|9=72|35=A|34=21|49=QUANTTEST|52=20110505-18:03:26.482|56=NESTFIX|98=0|108=60|10=028|
8=FIX.4.2|9=72|35=A|34=22|49=QUANTTEST|52=20110505-18:03:56.497|56=NESTFIX|98=0|108=60|10=038|
8=FIX.4.2|9=72|35=A|34=23|49=QUANTTEST|52=20110505-18:04:26.527|56=NESTFIX|98=0|108=60|10=031|
8=FIX.4.2|9=72|35=A|34=24|49=QUANTTEST|52=20110505-18:04:56.542|56=NESTFIX|98=0|108=60|10=032|
8=FIX.4.2|9=72|35=A|34=25|49=QUANTTEST|52=20110505-18:05:26.572|56=NESTFIX|98=0|108=60|10=034|
8=FIX.4.2|9=72|35=A|34=26|49=QUANTTEST|52=20110505-18:05:56.587|56=NESTFIX|98=0|108=60|10=044|
8=FIX.4.2|9=72|35=A|34=27|49=QUANTTEST|52=20110505-18:06:26.617|56=NESTFIX|98=0|108=60|10=037|
8=FIX.4.2|9=72|35=A|34=28|49=QUANTTEST|52=20110505-18:06:56.632|56=NESTFIX|98=0|108=60|10=038|
8=FIX.4.2|9=72|35=A|34=28|49=NESTFIX|52=20110505-18:06:56.397|56=QUANTTEST|98=0|108=60|10=046|
8=FIX.4.2|9=69|35=2|34=29|49=QUANTTEST|52=20110505-18:06:56.632|56=NESTFIX|7=9|16=0|10=133|
8=FIX.4.2|9=70|35=2|34=29|49=NESTFIX|52=20110505-18:06:56.398|56=QUANTTEST|7=12|16=0|10=176|
8=FIX.4.2|9=103|35=4|34=12|43=Y|49=QUANTTEST|52=20110505-18:06:56.632|56=NESTFIX|122=20110505-18:06:56.632|36=30|123=Y|10=091|
8=FIX.4.2|9=102|35=4|34=9|43=Y|49=NESTFIX|52=20110505-18:06:56.402|56=QUANTTEST|122=20110505-18:06:56.402|36=30|123=Y|10=038|
8=FIX.4.2|9=60|35=0|34=30|49=NESTFIX|52=20110505-18:07:56.278|56=QUANTTEST|10=246|
8=FIX.4.2|9=60|35=0|34=30|49=QUANTTEST|52=20110505-18:07:56.505|56=NESTFIX|10=239|
8=FIX.4.2|9=60|35=0|34=31|49=NESTFIX|52=20110505-18:08:56.285|56=QUANTTEST|10=246|
8=FIX.4.2|9=60|35=0|34=31|49=QUANTTEST|52=20110505-18:08:56.519|56=NESTFIX|10=246|
8=FIX.4.2|9=60|35=0|34=32|49=NESTFIX|52=20110505-18:09:56.292|56=QUANTTEST|10=246|
8=FIX.4.2|9=60|35=0|34=32|49=QUANTTEST|52=20110505-18:09:56.517|56=NESTFIX|10=246|
8=FIX.4.2|9=60|35=0|34=33|49=NESTFIX|52=20110505-18:10:56.301|56=QUANTTEST|10=230|
8=FIX.4.2|9=60|35=0|34=33|49=QUANTTEST|52=20110505-18:10:56.530|56=NESTFIX|10=234|
8=FIX.4.2|9=60|35=0|34=34|49=NESTFIX|52=20110505-18:11:56.308|56=QUANTTEST|10=239|
8=FIX.4.2|9=60|35=0|34=34|49=QUANTTEST|52=20110505-18:11:56.528|56=NESTFIX|10=243|
8=FIX.4.2|9=60|35=0|34=35|49=NESTFIX|52=20110505-18:12:56.316|56=QUANTTEST|10=240|
8=FIX.4.2|9=60|35=0|34=35|49=QUANTTEST|52=20110505-18:12:56.542|56=NESTFIX|10=241|
8=FIX.4.2|9=60|35=0|34=36|49=NESTFIX|52=20110505-18:13:56.324|56=QUANTTEST|10=241|
8=FIX.4.2|9=60|35=0|34=36|49=QUANTTEST|52=20110505-18:13:56.540|56=NESTFIX|10=241|
8=FIX.4.2|9=60|35=0|34=37|49=QUANTTEST|52=20110505-18:14:56.023|56=NESTFIX|10=239|
8=FIX.4.2|9=60|35=0|34=37|49=NESTFIX|52=20110505-18:14:56.331|56=QUANTTEST|10=241|
8=FIX.4.2|9=60|35=0|34=38|49=QUANTTEST|52=20110505-18:15:56.068|56=NESTFIX|10=250|
8=FIX.4.2|9=60|35=0|34=38|49=NESTFIX|52=20110505-18:15:56.340|56=QUANTTEST|10=243|
8=FIX.4.2|9=60|35=0|34=39|49=QUANTTEST|52=20110505-18:16:56.128|56=NESTFIX|10=249|
8=FIX.4.2|9=60|35=0|34=39|49=NESTFIX|52=20110505-18:16:56.351|56=QUANTTEST|10=247|
8=FIX.4.2|9=60|35=0|34=40|49=QUANTTEST|52=20110505-18:17:56.173|56=NESTFIX|10=242|
8=FIX.4.2|9=60|35=0|34=40|49=NESTFIX|52=20110505-18:17:56.362|56=QUANTTEST|10=242|
8=FIX.4.2|9=60|35=0|34=41|49=QUANTTEST|52=20110505-18:18:56.234|56=NESTFIX|10=242|
8=FIX.4.2|9=60|35=0|34=41|49=NESTFIX|52=20110505-18:18:56.020|56=QUANTTEST|10=235|
8=FIX.4.2|9=60|35=0|34=42|49=QUANTTEST|52=20110505-18:19:56.279|56=NESTFIX|10=253|
8=FIX.4.2|9=60|35=0|34=42|49=NESTFIX|52=20110505-18:19:56.067|56=QUANTTEST|10=248|
8=FIX.4.2|9=71|35=A|34=1|49=QUANTTEST|52=20111111-16:40:03.127|56=NESTFIX|98=0|108=60|10=217|
8=FIX.4.2|9=71|35=A|34=1|49=NESTFIX|52=20111111-16:40:03.127|56=QUANTTEST|98=0|108=60|10=217|
8=FIX.4.2|9=59|35=0|34=2|49=QUANTTEST|52=20111111-16:41:03.127|56=NESTFIX|10=180|
8=FIX.4.2|9=59|35=0|34=2|49=NESTFIX|52=20111111-16:41:03.127|56=QUANTTEST|10=180|
8=FIX.4.2|9=167|35=D|34=3|49=QUANTTEST|52=20111111-16:41:58.470|56=NESTFIX|11=IAA0002|21=1|38=100|40=2|44=0.01|54=1|55=PETR4|60=20111111-14:41:58|9304=N|9305=3|9306=54|9307=43|9308=N|10=088|
8=FIX.4.2|9=59|35=0|34=3|49=NESTFIX|52=20111111-16:42:03.658|56=QUANTTEST|10=191|
8=FIX.4.2|9=59|35=0|34=4|49=QUANTTEST|52=20111111-16:42:58.283|56=NESTFIX|10=196|
8=FIX.4.2|9=59|35=0|34=4|49=NESTFIX|52=20111111-16:43:03.970|56=QUANTTEST|10=190|
8=FIX.4.2|9=59|35=0|34=5|49=QUANTTEST|52=20111111-16:43:58.314|56=NESTFIX|10=193|
8=FIX.4.2|9=59|35=0|34=5|49=NESTFIX|52=20111111-16:44:03.002|56=QUANTTEST|10=178|
8=FIX.4.2|9=59|35=0|34=6|49=QUANTTEST|52=20111111-16:44:58.330|56=NESTFIX|10=193|
8=FIX.4.2|9=59|35=0|34=6|49=NESTFIX|52=20111111-16:45:03.017|56=QUANTTEST|10=186|
8=FIX.4.2|9=59|35=0|34=7|49=QUANTTEST|52=20111111-16:45:58.345|56=NESTFIX|10=201|
8=FIX.4.2|9=59|35=0|34=7|49=NESTFIX|52=20111111-16:46:03.033|56=QUANTTEST|10=186|
8=FIX.4.2|9=59|35=0|34=8|49=QUANTTEST|52=20111111-16:46:58.345|56=NESTFIX|10=203|
8=FIX.4.2|9=59|35=0|34=8|49=NESTFIX|52=20111111-16:47:03.048|56=QUANTTEST|10=194|
8=FIX.4.2|9=59|35=0|34=9|49=QUANTTEST|52=20111111-16:47:58.361|56=NESTFIX|10=203|
8=FIX.4.2|9=59|35=0|34=9|49=NESTFIX|52=20111111-16:48:03.048|56=QUANTTEST|10=196|
8=FIX.4.2|9=60|35=0|34=10|49=QUANTTEST|52=20111111-16:48:58.377|56=NESTFIX|10=243|
8=FIX.4.2|9=60|35=0|34=10|49=NESTFIX|52=20111111-16:49:03.048|56=QUANTTEST|10=229|
8=FIX.4.2|9=60|35=0|34=11|49=QUANTTEST|52=20111111-16:49:58.377|56=NESTFIX|10=245|
8=FIX.4.2|9=60|35=0|34=11|49=NESTFIX|52=20111111-16:50:03.048|56=QUANTTEST|10=222|
8=FIX.4.2|9=60|35=0|34=12|49=QUANTTEST|52=20111111-16:50:58.377|56=NESTFIX|10=238|
8=FIX.4.2|9=60|35=0|34=12|49=NESTFIX|52=20111111-16:51:03.048|56=QUANTTEST|10=224|
8=FIX.4.2|9=60|35=0|34=13|49=QUANTTEST|52=20111111-16:51:58.377|56=NESTFIX|10=240|
8=FIX.4.2|9=60|35=0|34=13|49=NESTFIX|52=20111111-16:52:03.048|56=QUANTTEST|10=226|
8=FIX.4.2|9=60|35=0|34=14|49=QUANTTEST|52=20111111-16:52:58.377|56=NESTFIX|10=242|
8=FIX.4.2|9=60|35=0|34=14|49=NESTFIX|52=20111111-16:53:03.048|56=QUANTTEST|10=228|
8=FIX.4.2|9=60|35=0|34=15|49=QUANTTEST|52=20111111-16:53:58.377|56=NESTFIX|10=244|
8=FIX.4.2|9=60|35=0|34=15|49=NESTFIX|52=20111111-16:54:03.048|56=QUANTTEST|10=230|
8=FIX.4.2|9=60|35=0|34=16|49=QUANTTEST|52=20111111-16:54:58.377|56=NESTFIX|10=246|
8=FIX.4.2|9=60|35=0|34=16|49=NESTFIX|52=20111111-16:55:03.048|56=QUANTTEST|10=232|
8=FIX.4.2|9=60|35=0|34=17|49=QUANTTEST|52=20111111-16:55:58.377|56=NESTFIX|10=248|
8=FIX.4.2|9=60|35=0|34=17|49=NESTFIX|52=20111111-16:56:03.048|56=QUANTTEST|10=234|
8=FIX.4.2|9=60|35=0|34=18|49=QUANTTEST|52=20111111-16:56:58.377|56=NESTFIX|10=250|
8=FIX.4.2|9=60|35=0|34=18|49=NESTFIX|52=20111111-16:57:03.048|56=QUANTTEST|10=236|
8=FIX.4.2|9=60|35=0|34=19|49=QUANTTEST|52=20111111-16:57:58.377|56=NESTFIX|10=252|
8=FIX.4.2|9=60|35=0|34=19|49=NESTFIX|52=20111111-16:58:03.048|56=QUANTTEST|10=238|
8=FIX.4.2|9=60|35=0|34=20|49=QUANTTEST|52=20111111-16:58:58.377|56=NESTFIX|10=245|
8=FIX.4.2|9=60|35=0|34=20|49=NESTFIX|52=20111111-16:59:03.048|56=QUANTTEST|10=231|
8=FIX.4.2|9=60|35=0|34=21|49=QUANTTEST|52=20111111-16:59:58.377|56=NESTFIX|10=247|
8=FIX.4.2|9=60|35=0|34=21|49=NESTFIX|52=20111111-17:00:03.048|56=QUANTTEST|10=219|
8=FIX.4.2|9=60|35=0|34=22|49=QUANTTEST|52=20111111-17:00:58.377|56=NESTFIX|10=235|
8=FIX.4.2|9=60|35=0|34=22|49=NESTFIX|52=20111111-17:01:03.048|56=QUANTTEST|10=221|
8=FIX.4.2|9=60|35=0|34=23|49=QUANTTEST|52=20111111-17:01:58.050|56=NESTFIX|10=225|
8=FIX.4.2|9=60|35=0|34=23|49=NESTFIX|52=20111111-17:02:03.805|56=QUANTTEST|10=224|
8=FIX.4.2|9=60|35=0|34=24|49=QUANTTEST|52=20111111-17:02:58.877|56=NESTFIX|10=244|
8=FIX.4.2|9=60|35=0|34=24|49=NESTFIX|52=20111111-17:03:03.619|56=QUANTTEST|10=229|
8=FIX.4.2|9=60|35=0|34=25|49=QUANTTEST|52=20111111-17:03:58.691|56=NESTFIX|10=240|
8=FIX.4.2|9=60|35=0|34=25|49=NESTFIX|52=20111111-17:04:03.432|56=QUANTTEST|10=224|
8=FIX.4.2|9=60|35=0|34=26|49=QUANTTEST|52=20111111-17:04:58.504|56=NESTFIX|10=235|
8=FIX.4.2|9=60|35=0|34=26|49=NESTFIX|52=20111111-17:05:03.246|56=QUANTTEST|10=229|
8=FIX.4.2|9=60|35=0|34=27|49=QUANTTEST|52=20111111-17:05:58.317|56=NESTFIX|10=239|
8=FIX.4.2|9=60|35=0|34=27|49=NESTFIX|52=20111111-17:06:03.059|56=QUANTTEST|10=233|
8=FIX.4.2|9=60|35=0|34=28|49=QUANTTEST|52=20111111-17:06:58.064|56=NESTFIX|10=240|
8=FIX.4.2|9=60|35=0|34=28|49=NESTFIX|52=20111111-17:07:03.810|56=QUANTTEST|10=230|
8=FIX.4.2|9=60|35=0|34=29|49=QUANTTEST|52=20111111-17:07:58.804|56=NESTFIX|10=244|
8=FIX.4.2|9=72|35=A|34=30|49=QUANTTEST|52=20111111-19:34:42.259|56=NESTFIX|98=0|108=60|10=027|
8=FIX.4.2|9=72|35=A|34=30|49=NESTFIX|52=20111111-19:34:42.338|56=QUANTTEST|98=0|108=60|10=025|
8=FIX.4.2|9=70|35=2|34=31|49=QUANTTEST|52=20111111-19:34:42.338|56=NESTFIX|7=29|16=0|10=162|
8=FIX.4.2|9=103|35=4|34=29|43=Y|49=NESTFIX|52=20111111-19:34:42.353|56=QUANTTEST|122=20111111-19:34:42.353|36=31|123=Y|10=082|
8=FIX.4.2|9=168|35=D|34=32|49=QUANTTEST|52=20111111-19:35:02.924|56=NESTFIX|11=IAA0004|21=1|38=100|40=2|44=0.01|54=1|55=PETR4|60=20111111-17:35:02|9304=N|9305=3|9306=54|9307=43|9308=N|10=135|
8=FIX.4.2|9=72|35=A|34=33|49=QUANTTEST|52=20111111-19:38:07.751|56=NESTFIX|98=0|108=60|10=032|
8=FIX.4.2|9=72|35=A|34=33|49=NESTFIX|52=20111111-19:38:08.110|56=QUANTTEST|98=0|108=60|10=022|
8=FIX.4.2|9=70|35=2|34=34|49=QUANTTEST|52=20111111-19:38:08.672|56=NESTFIX|7=31|16=0|10=165|
8=FIX.4.2|9=103|35=4|34=31|43=Y|49=NESTFIX|52=20111111-19:38:08.672|56=QUANTTEST|122=20111111-19:38:08.672|36=34|123=Y|10=098|
8=FIX.4.2|9=60|35=0|34=35|49=QUANTTEST|52=20111111-19:39:17.244|56=NESTFIX|10=241|
8=FIX.4.2|9=60|35=0|34=34|49=NESTFIX|52=20111111-19:39:08.762|56=QUANTTEST|10=245|
8=FIX.4.2|9=124|35=F|34=36|49=QUANTTEST|52=20111111-19:39:21.899|56=NESTFIX|11=IAA0005|38=100|41=IAA0004|54=1|55=PETR4|60=20111111-17:39:02|10=210|
8=FIX.4.2|9=60|35=0|34=37|49=QUANTTEST|52=20111111-19:40:21.292|56=NESTFIX|10=233|
8=FIX.4.2|9=60|35=0|34=35|49=NESTFIX|52=20111111-19:40:29.431|56=QUANTTEST|10=234|
8=FIX.4.2|9=60|35=0|34=38|49=QUANTTEST|52=20111111-19:41:21.623|56=NESTFIX|10=233|
8=FIX.4.2|9=60|35=0|34=36|49=NESTFIX|52=20111111-19:41:40.696|56=QUANTTEST|10=242|
8=FIX.4.2|9=60|35=0|34=39|49=QUANTTEST|52=20111111-19:42:21.937|56=NESTFIX|10=243|
8=FIX.4.2|9=69|35=1|34=40|49=QUANTTEST|52=20111111-19:42:52.102|56=NESTFIX|112=TEST|10=251|
8=FIX.4.2|9=72|35=A|34=41|49=QUANTTEST|52=20111111-19:44:22.567|56=NESTFIX|98=0|108=60|10=030|
