8=FIX.4.2|9=69|35=A|34=1|49=QUANTIN|52=20100821-22:36:49.377|56=NESTFIX|98=0|108=60|10=080|
8=FIX.4.2|9=69|35=A|34=2|49=QUANTIN|52=20100821-22:36:50.393|56=NESTFIX|98=0|108=60|10=071|
