8=FIX.4.2|9=73|35=A|34=1|49=QUANTIN|52=20100420-20:44:05.997|56=NESTFIXTEST|98=0|108=60|10=131|
8=FIX.4.2|9=73|35=A|34=1|49=NESTFIXTEST|52=20100420-20:44:06.044|56=QUANTIN|98=0|108=60|10=115|
8=FIX.4.2|9=61|35=0|34=2|49=QUANTIN|52=20100420-20:45:05.998|56=NESTFIXTEST|10=086|
8=FIX.4.2|9=61|35=0|34=2|49=NESTFIXTEST|52=20100420-20:45:06.123|56=QUANTIN|10=067|
8=FIX.4.2|9=61|35=5|34=3|49=NESTFIXTEST|52=20100420-20:45:15.123|56=QUANTIN|10=073|
8=FIX.4.2|9=61|35=5|34=3|49=QUANTIN|52=20100420-20:45:15.123|56=NESTFIXTEST|10=073|
8=FIX.4.2|9=73|35=A|34=4|49=QUANTIN|52=20100420-20:45:36.998|56=NESTFIXTEST|98=0|108=60|10=140|
8=FIX.4.2|9=73|35=A|34=4|49=NESTFIXTEST|52=20100420-20:45:36.998|56=QUANTIN|98=0|108=60|10=140|
8=FIX.4.2|9=61|35=0|34=5|49=NESTFIXTEST|52=20100420-20:46:36.530|56=QUANTIN|10=076|
8=FIX.4.2|9=61|35=0|34=5|49=QUANTIN|52=20100420-20:46:36.530|56=NESTFIXTEST|10=076|
8=FIX.4.2|9=61|35=0|34=6|49=QUANTIN|52=20100420-20:47:36.014|56=NESTFIXTEST|10=075|
8=FIX.4.2|9=70|35=1|34=7|49=QUANTIN|52=20100420-20:47:48.014|56=NESTFIXTEST|112=TEST|10=098|
8=FIX.4.2|9=73|35=A|34=8|49=QUANTIN|52=20100420-20:52:07.047|56=NESTFIXTEST|98=0|108=60|10=125|
8=FIX.4.2|9=73|35=A|34=9|49=QUANTIN|52=20100420-20:52:37.048|56=NESTFIXTEST|98=0|108=60|10=130|
8=FIX.4.2|9=73|35=A|34=8|49=NESTFIXTEST|52=20100420-20:52:38.141|56=QUANTIN|98=0|108=60|10=124|
8=FIX.4.2|9=71|35=2|34=10|49=QUANTIN|52=20100420-20:52:38.454|56=NESTFIXTEST|7=6|16=0|10=255|
8=FIX.4.2|9=70|35=2|34=9|49=NESTFIXTEST|52=20100420-20:52:39.391|56=QUANTIN|7=6|16=0|10=215|
8=FIX.4.2|9=104|35=4|34=6|43=Y|49=QUANTIN|52=20100420-20:52:39.844|56=NESTFIXTEST|122=20100420-20:52:39.844|36=11|123=Y|10=187|
8=FIX.4.2|9=104|35=4|34=6|43=Y|49=NESTFIXTEST|52=20100420-20:52:41.782|56=QUANTIN|122=20100420-20:52:41.782|36=10|123=Y|10=174|
8=FIX.4.2|9=62|35=0|34=11|49=QUANTIN|52=20100420-20:53:39.064|56=NESTFIXTEST|10=125|
8=FIX.4.2|9=62|35=0|34=10|49=NESTFIXTEST|52=20100420-20:53:42.173|56=QUANTIN|10=119|
8=FIX.4.2|9=62|35=0|34=12|49=QUANTIN|52=20100420-20:54:39.064|56=NESTFIXTEST|10=127|
8=FIX.4.2|9=62|35=0|34=11|49=NESTFIXTEST|52=20100420-20:54:42.736|56=QUANTIN|10=126|
8=FIX.4.2|9=62|35=0|34=13|49=QUANTIN|52=20100420-20:55:39.111|56=NESTFIXTEST|10=122|
8=FIX.4.2|9=62|35=0|34=12|49=NESTFIXTEST|52=20100420-20:55:42.767|56=QUANTIN|10=132|
8=FIX.4.2|9=126|35=D|34=14|49=QUANTIN|52=20100420-20:56:08.049|56=NESTFIXTEST|11=IAA0001|21=1|38=1|40=1|54=1|55=PETR4.SA|60=20100420-17:56:08|10=044|
8=FIX.4.2|9=71|35=1|34=15|49=QUANTIN|52=20100420-20:56:54.112|56=NESTFIXTEST|112=TEST|10=142|
8=FIX.4.2|9=71|35=1|34=13|49=NESTFIXTEST|52=20100420-20:57:27.034|56=QUANTIN|112=TEST|10=144|
8=FIX.4.2|9=71|35=0|34=16|49=QUANTIN|52=20100420-20:57:28.299|56=NESTFIXTEST|112=TEST|10=160|
8=FIX.4.2|9=71|35=0|34=14|49=NESTFIXTEST|52=20100420-20:57:34.628|56=QUANTIN|112=TEST|10=151|
8=FIX.4.2|9=74|35=A|34=17|49=QUANTIN|52=20100420-20:59:30.144|56=NESTFIXTEST|98=0|108=60|10=175|
8=FIX.4.2|9=74|35=A|34=15|49=NESTFIXTEST|52=20100420-20:59:30.206|56=QUANTIN|98=0|108=60|10=172|
8=FIX.4.2|9=62|35=5|34=16|49=NESTFIXTEST|52=20100420-21:00:19.160|56=QUANTIN|10=123|
8=FIX.4.2|9=62|35=5|34=18|49=QUANTIN|52=20100420-21:00:19.160|56=NESTFIXTEST|10=125|
8=FIX.4.2|9=74|35=A|34=19|49=QUANTIN|52=20100420-21:03:31.208|56=NESTFIXTEST|98=0|108=60|10=169|
8=FIX.4.2|9=74|35=A|34=17|49=NESTFIXTEST|52=20100420-21:03:31.208|56=QUANTIN|98=0|108=60|10=167|
8=FIX.4.2|9=126|35=D|34=20|49=QUANTIN|52=20100420-21:03:54.552|56=NESTFIXTEST|11=IAA0002|21=1|38=1|40=1|54=1|55=PETR4.SA|60=20100420-18:03:54|10=029|
8=FIX.4.2|9=62|35=0|34=18|49=NESTFIXTEST|52=20100420-21:04:31.865|56=QUANTIN|10=130|
8=FIX.4.2|9=62|35=0|34=21|49=QUANTIN|52=20100420-21:04:54.209|56=NESTFIXTEST|10=121|
8=FIX.4.2|9=62|35=0|34=19|49=NESTFIXTEST|52=20100420-21:05:34.209|56=QUANTIN|10=127|
8=FIX.4.2|9=62|35=0|34=22|49=QUANTIN|52=20100420-21:05:54.209|56=NESTFIXTEST|10=123|
8=FIX.4.2|9=71|35=1|34=23|49=QUANTIN|52=20100420-21:06:46.209|56=NESTFIXTEST|112=TEST|10=145|
8=FIX.4.2|9=62|35=0|34=20|49=NESTFIXTEST|52=20100420-21:07:00.616|56=QUANTIN|10=116|
8=FIX.4.2|9=71|35=0|34=21|49=NESTFIXTEST|52=20100420-21:07:02.584|56=QUANTIN|112=TEST|10=141|
8=FIX.4.2|9=62|35=0|34=24|49=QUANTIN|52=20100420-21:07:46.225|56=NESTFIXTEST|10=126|
8=FIX.4.2|9=62|35=0|34=22|49=NESTFIXTEST|52=20100420-21:08:03.022|56=QUANTIN|10=113|
8=FIX.4.2|9=62|35=0|34=25|49=QUANTIN|52=20100420-21:08:46.226|56=NESTFIXTEST|10=129|
8=FIX.4.2|9=71|35=1|34=23|49=NESTFIXTEST|52=20100420-21:09:11.235|56=QUANTIN|112=TEST|10=139|
8=FIX.4.2|9=71|35=0|34=26|49=QUANTIN|52=20100420-21:09:11.685|56=NESTFIXTEST|112=TEST|10=150|
8=FIX.4.2|9=62|35=0|34=24|49=NESTFIXTEST|52=20100420-21:10:11.249|56=QUANTIN|10=118|
8=FIX.4.2|9=62|35=0|34=27|49=QUANTIN|52=20100420-21:10:11.637|56=NESTFIXTEST|10=122|
8=FIX.4.2|9=62|35=0|34=28|49=QUANTIN|52=20100420-21:11:11.109|56=NESTFIXTEST|10=118|
8=FIX.4.2|9=62|35=0|34=25|49=NESTFIXTEST|52=20100420-21:11:11.109|56=QUANTIN|10=115|
8=FIX.4.2|9=62|35=0|34=26|49=NESTFIXTEST|52=20100420-21:12:11.139|56=QUANTIN|10=120|
8=FIX.4.2|9=62|35=0|34=29|49=QUANTIN|52=20100420-21:12:11.139|56=NESTFIXTEST|10=123|
8=FIX.4.2|9=62|35=0|34=30|49=QUANTIN|52=20100420-21:13:11.014|56=NESTFIXTEST|10=108|
8=FIX.4.2|9=62|35=0|34=27|49=NESTFIXTEST|52=20100420-21:13:11.014|56=QUANTIN|10=114|
8=FIX.4.2|9=62|35=0|34=28|49=NESTFIXTEST|52=20100420-21:14:11.044|56=QUANTIN|10=119|
8=FIX.4.2|9=62|35=0|34=31|49=QUANTIN|52=20100420-21:14:11.044|56=NESTFIXTEST|10=113|
8=FIX.4.2|9=62|35=0|34=32|49=QUANTIN|52=20100420-21:15:11.212|56=NESTFIXTEST|10=112|
8=FIX.4.2|9=62|35=0|34=29|49=NESTFIXTEST|52=20100420-21:15:11.212|56=QUANTIN|10=118|
8=FIX.4.2|9=62|35=0|34=30|49=NESTFIXTEST|52=20100420-21:16:11.552|56=QUANTIN|10=118|
8=FIX.4.2|9=62|35=0|34=33|49=QUANTIN|52=20100420-21:16:11.552|56=NESTFIXTEST|10=121|
8=FIX.4.2|9=62|35=0|34=31|49=NESTFIXTEST|52=20100420-21:17:11.300|56=QUANTIN|10=111|
8=FIX.4.2|9=62|35=0|34=34|49=QUANTIN|52=20100420-21:17:11.300|56=NESTFIXTEST|10=114|
8=FIX.4.2|9=62|35=0|34=32|49=NESTFIXTEST|52=20100420-21:18:11.047|56=QUANTIN|10=121|
8=FIX.4.2|9=62|35=0|34=35|49=QUANTIN|52=20100420-21:18:11.047|56=NESTFIXTEST|10=124|
8=FIX.4.2|9=62|35=0|34=36|49=QUANTIN|52=20100420-21:19:11.223|56=NESTFIXTEST|10=122|
8=FIX.4.2|9=62|35=0|34=33|49=NESTFIXTEST|52=20100420-21:19:11.223|56=QUANTIN|10=119|
8=FIX.4.2|9=62|35=0|34=37|49=QUANTIN|52=20100420-21:20:11.082|56=NESTFIXTEST|10=118|
8=FIX.4.2|9=62|35=0|34=34|49=NESTFIXTEST|52=20100420-21:20:11.082|56=QUANTIN|10=115|
8=FIX.4.2|9=62|35=0|34=35|49=NESTFIXTEST|52=20100420-21:21:11.534|56=QUANTIN|10=119|
8=FIX.4.2|9=62|35=0|34=38|49=QUANTIN|52=20100420-21:21:11.534|56=NESTFIXTEST|10=122|
8=FIX.4.2|9=62|35=0|34=36|49=NESTFIXTEST|52=20100420-21:22:11.392|56=QUANTIN|10=123|
8=FIX.4.2|9=62|35=0|34=39|49=QUANTIN|52=20100420-21:22:11.392|56=NESTFIXTEST|10=126|
8=FIX.4.2|9=62|35=0|34=37|49=NESTFIXTEST|52=20100420-21:23:11.251|56=QUANTIN|10=119|
8=FIX.4.2|9=62|35=0|34=40|49=QUANTIN|52=20100420-21:23:11.251|56=NESTFIXTEST|10=113|
8=FIX.4.2|9=62|35=0|34=38|49=NESTFIXTEST|52=20100420-21:24:11.097|56=QUANTIN|10=129|
8=FIX.4.2|9=62|35=0|34=41|49=QUANTIN|52=20100420-21:24:11.097|56=NESTFIXTEST|10=123|
8=FIX.4.2|9=62|35=0|34=42|49=QUANTIN|52=20100420-21:25:11.073|56=NESTFIXTEST|10=119|
8=FIX.4.2|9=62|35=0|34=39|49=NESTFIXTEST|52=20100420-21:25:11.073|56=QUANTIN|10=125|
8=FIX.4.2|9=62|35=0|34=40|49=NESTFIXTEST|52=20100420-21:26:11.222|56=QUANTIN|10=114|
8=FIX.4.2|9=62|35=0|34=43|49=QUANTIN|52=20100420-21:26:11.222|56=NESTFIXTEST|10=117|
8=FIX.4.2|9=62|35=0|34=44|49=QUANTIN|52=20100420-21:27:11.198|56=NESTFIXTEST|10=131|
8=FIX.4.2|9=62|35=0|34=41|49=NESTFIXTEST|52=20100420-21:27:11.198|56=QUANTIN|10=128|
8=FIX.4.2|9=62|35=0|34=42|49=NESTFIXTEST|52=20100420-21:28:11.347|56=QUANTIN|10=126|
8=FIX.4.2|9=62|35=0|34=45|49=QUANTIN|52=20100420-21:28:11.347|56=NESTFIXTEST|10=129|
8=FIX.4.2|9=62|35=0|34=46|49=QUANTIN|52=20100420-21:29:11.293|56=NESTFIXTEST|10=131|
8=FIX.4.2|9=62|35=0|34=43|49=NESTFIXTEST|52=20100420-21:29:11.293|56=QUANTIN|10=128|
8=FIX.4.2|9=62|35=0|34=44|49=NESTFIXTEST|52=20100420-21:30:11.112|56=QUANTIN|10=111|
8=FIX.4.2|9=62|35=0|34=47|49=QUANTIN|52=20100420-21:30:11.112|56=NESTFIXTEST|10=114|
8=FIX.4.2|9=62|35=0|34=45|49=NESTFIXTEST|52=20100420-21:31:11.337|56=QUANTIN|10=122|
8=FIX.4.2|9=62|35=0|34=48|49=QUANTIN|52=20100420-21:31:11.337|56=NESTFIXTEST|10=125|
8=FIX.4.2|9=62|35=0|34=46|49=NESTFIXTEST|52=20100420-21:32:11.562|56=QUANTIN|10=124|
8=FIX.4.2|9=62|35=0|34=49|49=QUANTIN|52=20100420-21:32:11.562|56=NESTFIXTEST|10=127|
8=FIX.4.2|9=62|35=0|34=50|49=QUANTIN|52=20100420-21:33:11.178|56=NESTFIXTEST|10=123|
8=FIX.4.2|9=62|35=0|34=47|49=NESTFIXTEST|52=20100420-21:33:11.178|56=QUANTIN|10=129|
8=FIX.4.2|9=62|35=0|34=51|49=QUANTIN|52=20100420-21:34:11.404|56=NESTFIXTEST|10=117|
8=FIX.4.2|9=62|35=0|34=48|49=NESTFIXTEST|52=20100420-21:34:11.404|56=QUANTIN|10=123|
8=FIX.4.2|9=62|35=0|34=49|49=NESTFIXTEST|52=20100420-21:35:11.118|56=QUANTIN|10=127|
8=FIX.4.2|9=62|35=0|34=52|49=QUANTIN|52=20100420-21:35:11.118|56=NESTFIXTEST|10=121|
8=FIX.4.2|9=62|35=0|34=50|49=NESTFIXTEST|52=20100420-21:36:11.223|56=QUANTIN|10=117|
8=FIX.4.2|9=62|35=0|34=53|49=QUANTIN|52=20100420-21:36:11.223|56=NESTFIXTEST|10=120|
8=FIX.4.2|9=62|35=0|34=51|49=NESTFIXTEST|52=20100420-21:37:11.313|56=QUANTIN|10=119|
8=FIX.4.2|9=62|35=0|34=54|49=QUANTIN|52=20100420-21:37:11.313|56=NESTFIXTEST|10=122|
8=FIX.4.2|9=62|35=0|34=52|49=NESTFIXTEST|52=20100420-21:38:11.418|56=QUANTIN|10=127|
8=FIX.4.2|9=62|35=0|34=55|49=QUANTIN|52=20100420-21:38:11.418|56=NESTFIXTEST|10=130|
8=FIX.4.2|9=62|35=0|34=53|49=NESTFIXTEST|52=20100420-21:39:11.523|56=QUANTIN|10=126|
8=FIX.4.2|9=62|35=0|34=56|49=QUANTIN|52=20100420-21:39:11.523|56=NESTFIXTEST|10=129|
8=FIX.4.2|9=62|35=5|34=54|49=NESTFIXTEST|52=20100420-21:39:37.538|56=QUANTIN|10=146|
8=FIX.4.2|9=62|35=5|34=57|49=QUANTIN|52=20100420-21:39:37.538|56=NESTFIXTEST|10=149|
8=FIX.4.2|9=74|35=A|34=58|49=QUANTIN|52=20100420-22:17:33.409|56=NESTFIXTEST|98=0|108=60|10=183|
8=FIX.4.2|9=74|35=A|34=55|49=NESTFIXTEST|52=20100420-22:17:33.456|56=QUANTIN|98=0|108=60|10=182|
8=FIX.4.2|9=62|35=0|34=59|49=QUANTIN|52=20100420-22:18:33.423|56=NESTFIXTEST|10=133|
8=FIX.4.2|9=62|35=0|34=56|49=NESTFIXTEST|52=20100420-22:18:35.595|56=QUANTIN|10=142|
8=FIX.4.2|9=62|35=5|34=60|49=QUANTIN|52=20100420-22:18:48.470|56=NESTFIXTEST|10=138|
8=FIX.4.2|9=62|35=5|34=57|49=NESTFIXTEST|52=20100420-22:18:48.470|56=QUANTIN|10=144|
8=FIX.4.2|9=74|35=A|34=61|49=QUANTIN|52=20100420-22:19:01.048|56=NESTFIXTEST|98=0|108=60|10=173|
8=FIX.4.2|9=74|35=A|34=58|49=NESTFIXTEST|52=20100420-22:19:01.095|56=QUANTIN|98=0|108=60|10=181|
8=FIX.4.2|9=126|35=D|34=62|49=QUANTIN|52=20100420-22:20:00.219|56=NESTFIXTEST|11=IAA0003|21=1|38=1|40=1|54=1|55=PETR4.SA|60=20100420-19:20:00|10=018|
8=FIX.4.2|9=62|35=0|34=59|49=NESTFIXTEST|52=20100420-22:20:05.547|56=QUANTIN|10=132|
8=FIX.4.2|9=62|35=0|34=63|49=QUANTIN|52=20100420-22:21:00.092|56=NESTFIXTEST|10=118|
8=FIX.4.2|9=62|35=0|34=60|49=NESTFIXTEST|52=20100420-22:21:05.639|56=QUANTIN|10=127|
8=FIX.4.2|9=62|35=0|34=64|49=QUANTIN|52=20100420-22:22:00.123|56=NESTFIXTEST|10=115|
8=FIX.4.2|9=62|35=0|34=61|49=NESTFIXTEST|52=20100420-22:22:05.122|56=QUANTIN|10=116|
8=FIX.4.2|9=126|35=D|34=65|49=QUANTIN|52=20100420-22:22:05.122|56=NESTFIXTEST|11=IAA0004|21=1|38=1|40=1|54=1|55=PETR4.SA|60=20100420-19:22:05|10=029|
8=FIX.4.2|9=62|35=0|34=66|49=QUANTIN|52=20100420-22:23:05.153|56=NESTFIXTEST|10=126|
8=FIX.4.2|9=62|35=0|34=62|49=NESTFIXTEST|52=20100420-22:23:05.168|56=QUANTIN|10=128|
8=FIX.4.2|9=62|35=0|34=67|49=QUANTIN|52=20100420-22:24:05.183|56=NESTFIXTEST|10=131|
8=FIX.4.2|9=71|35=1|34=68|49=QUANTIN|52=20100420-22:24:17.182|56=NESTFIXTEST|112=TEST|10=153|
8=FIX.4.2|9=71|35=1|34=63|49=NESTFIXTEST|52=20100420-22:24:41.994|56=QUANTIN|112=TEST|10=156|
8=FIX.4.2|9=71|35=0|34=69|49=QUANTIN|52=20100420-22:24:42.588|56=NESTFIXTEST|112=TEST|10=161|
8=FIX.4.2|9=71|35=0|34=64|49=NESTFIXTEST|52=20100420-22:24:49.229|56=QUANTIN|112=TEST|10=155|
8=FIX.4.2|9=126|35=D|34=70|49=QUANTIN|52=20100420-22:25:30.806|56=NESTFIXTEST|11=IAA0005|21=1|38=1|40=1|54=1|55=VALE5.SA|60=20100420-19:25:30|10=019|
8=FIX.4.2|9=62|35=0|34=65|49=NESTFIXTEST|52=20100420-22:25:49.571|56=QUANTIN|10=139|
8=FIX.4.2|9=62|35=0|34=71|49=QUANTIN|52=20100420-22:26:30.242|56=NESTFIXTEST|10=122|
8=FIX.4.2|9=62|35=0|34=66|49=NESTFIXTEST|52=20100420-22:26:53.429|56=QUANTIN|10=138|
8=FIX.4.2|9=62|35=0|34=72|49=QUANTIN|52=20100420-22:27:30.304|56=NESTFIXTEST|10=123|
8=FIX.4.2|9=62|35=0|34=67|49=NESTFIXTEST|52=20100420-22:27:53.288|56=QUANTIN|10=143|
8=FIX.4.2|9=62|35=5|34=68|49=NESTFIXTEST|52=20100420-22:28:04.147|56=QUANTIN|10=140|
8=FIX.4.2|9=62|35=5|34=73|49=QUANTIN|52=20100420-22:28:04.147|56=NESTFIXTEST|10=136|
8=FIX.4.2|9=74|35=A|34=74|49=QUANTIN|52=20100420-23:09:19.162|56=NESTFIXTEST|98=0|108=60|10=183|
8=FIX.4.2|9=74|35=A|34=69|49=NESTFIXTEST|52=20100420-23:09:19.240|56=QUANTIN|98=0|108=60|10=184|
8=FIX.4.2|9=126|35=D|34=75|49=QUANTIN|52=20100420-23:09:29.990|56=NESTFIXTEST|11=IAA0006|21=1|38=1|40=1|54=1|55=PETR4.SA|60=20100420-20:09:29|10=060|
8=FIX.4.2|9=62|35=0|34=70|49=NESTFIXTEST|52=20100420-23:10:19.770|56=QUANTIN|10=128|
8=FIX.4.2|9=62|35=0|34=76|49=QUANTIN|52=20100420-23:10:29.176|56=NESTFIXTEST|10=135|
8=FIX.4.2|9=126|35=D|34=77|49=QUANTIN|52=20100420-23:10:35.551|56=NESTFIXTEST|11=IAA0007|21=1|38=1|40=1|54=1|55=PETR4.SA|60=20100420-20:10:35|10=034|
8=FIX.4.2|9=131|35=D|34=78|49=QUANTIN|52=20100420-23:11:18.675|56=NESTFIXTEST|11=IAA0008|21=1|38=1|40=2|44=5|54=1|55=PETR4.SA|60=20100420-20:11:18|10=007|
8=FIX.4.2|9=62|35=0|34=71|49=NESTFIXTEST|52=20100420-23:11:20.347|56=QUANTIN|10=122|
8=FIX.4.2|9=62|35=0|34=79|49=QUANTIN|52=20100420-23:12:18.221|56=NESTFIXTEST|10=129|
8=FIX.4.2|9=62|35=0|34=72|49=NESTFIXTEST|52=20100420-23:12:20.174|56=QUANTIN|10=122|
8=FIX.4.2|9=131|35=D|34=80|49=QUANTIN|52=20100420-23:12:31.658|56=NESTFIXTEST|11=IAA0009|21=1|38=1|40=2|44=4|54=1|55=PETR4.SA|60=20100420-20:12:31|10=249|
8=FIX.4.2|9=62|35=0|34=81|49=QUANTIN|52=20100420-23:13:31.266|56=NESTFIXTEST|10=127|
8=FIX.4.2|9=71|35=1|34=82|49=QUANTIN|52=20100420-23:13:32.266|56=NESTFIXTEST|112=TEST|10=148|
8=FIX.4.2|9=71|35=1|34=73|49=NESTFIXTEST|52=20100420-23:13:55.657|56=QUANTIN|112=TEST|10=157|
8=FIX.4.2|9=71|35=0|34=83|49=QUANTIN|52=20100420-23:13:55.657|56=NESTFIXTEST|112=TEST|10=157|
8=FIX.4.2|9=71|35=0|34=74|49=NESTFIXTEST|52=20100420-23:13:58.141|56=QUANTIN|112=TEST|10=148|
8=FIX.4.2|9=62|35=0|34=84|49=QUANTIN|52=20100420-23:14:55.296|56=NESTFIXTEST|10=140|
8=FIX.4.2|9=131|35=D|34=85|49=QUANTIN|52=20100420-23:14:55.952|56=NESTFIXTEST|11=IAA0010|21=1|38=1|40=2|44=6|54=1|55=PETR4.SA|60=20100420-20:14:55|10=005|
8=FIX.4.2|9=62|35=0|34=75|49=NESTFIXTEST|52=20100420-23:14:58.687|56=QUANTIN|10=147|
8=FIX.4.2|9=62|35=0|34=86|49=QUANTIN|52=20100420-23:15:55.326|56=NESTFIXTEST|10=137|
8=FIX.4.2|9=62|35=0|34=76|49=NESTFIXTEST|52=20100420-23:15:58.185|56=QUANTIN|10=142|
8=FIX.4.2|9=131|35=D|34=87|49=QUANTIN|52=20100420-23:16:01.123|56=NESTFIXTEST|11=IAA0011|21=1|38=1|40=2|44=5|54=1|55=PETR4.SA|60=20100420-20:16:01|10=239|
8=FIX.4.2|9=62|35=0|34=88|49=QUANTIN|52=20100420-23:17:01.356|56=NESTFIXTEST|10=135|
8=FIX.4.2|9=71|35=1|34=89|49=QUANTIN|52=20100420-23:17:10.356|56=NESTFIXTEST|112=TEST|10=155|
8=FIX.4.2|9=71|35=1|34=77|49=NESTFIXTEST|52=20100420-23:17:55.699|56=QUANTIN|112=TEST|10=171|
8=FIX.4.2|9=71|35=0|34=90|49=QUANTIN|52=20100420-23:17:55.699|56=NESTFIXTEST|112=TEST|10=165|
8=FIX.4.2|9=71|35=0|34=78|49=NESTFIXTEST|52=20100420-23:17:59.277|56=QUANTIN|112=TEST|10=167|
8=FIX.4.2|9=126|35=D|34=91|49=QUANTIN|52=20100420-23:18:21.995|56=NESTFIXTEST|11=IAA0012|21=1|38=1|40=1|54=1|55=PETR4.SA|60=20100420-20:18:21|10=044|
8=FIX.4.2|9=71|35=1|34=92|49=QUANTIN|52=20100420-23:19:11.463|56=NESTFIXTEST|112=TEST|10=151|
8=FIX.4.2|9=62|35=0|34=79|49=NESTFIXTEST|52=20100420-23:19:21.025|56=QUANTIN|10=132|
8=FIX.4.2|9=71|35=0|34=80|49=NESTFIXTEST|52=20100420-23:19:21.025|56=QUANTIN|112=TEST|10=142|
8=FIX.4.2|9=126|35=D|34=93|49=QUANTIN|52=20100420-23:20:00.446|56=NESTFIXTEST|11=IAA0013|21=1|38=1|40=1|54=1|55=PETR4.SA|60=20100420-20:20:00|10=018|
8=FIX.4.2|9=71|35=1|34=94|49=QUANTIN|52=20100420-23:20:33.508|56=NESTFIXTEST|112=TEST|10=149|
8=FIX.4.2|9=71|35=1|34=81|49=NESTFIXTEST|52=20100420-23:21:29.945|56=QUANTIN|112=TEST|10=156|
8=FIX.4.2|9=71|35=0|34=95|49=QUANTIN|52=20100420-23:21:29.960|56=NESTFIXTEST|112=TEST|10=157|
8=FIX.4.2|9=71|35=0|34=82|49=NESTFIXTEST|52=20100420-23:21:29.960|56=QUANTIN|112=TEST|10=153|
8=FIX.4.2|9=62|35=0|34=96|49=QUANTIN|52=20100420-23:22:29.553|56=NESTFIXTEST|10=139|
8=FIX.4.2|9=62|35=0|34=83|49=NESTFIXTEST|52=20100420-23:22:29.553|56=QUANTIN|10=135|
8=FIX.4.2|9=62|35=0|34=84|49=NESTFIXTEST|52=20100420-23:23:29.005|56=QUANTIN|10=129|
8=FIX.4.2|9=62|35=0|34=97|49=QUANTIN|52=20100420-23:23:29.005|56=NESTFIXTEST|10=133|
8=FIX.4.2|9=62|35=0|34=85|49=NESTFIXTEST|52=20100420-23:24:29.035|56=QUANTIN|10=134|
8=FIX.4.2|9=62|35=0|34=98|49=QUANTIN|52=20100420-23:24:29.035|56=NESTFIXTEST|10=138|
8=FIX.4.2|9=62|35=0|34=86|49=NESTFIXTEST|52=20100420-23:25:29.065|56=QUANTIN|10=139|
8=FIX.4.2|9=62|35=0|34=99|49=QUANTIN|52=20100420-23:25:29.065|56=NESTFIXTEST|10=143|
8=FIX.4.2|9=62|35=0|34=87|49=NESTFIXTEST|52=20100420-23:26:29.095|56=QUANTIN|10=144|
8=FIX.4.2|9=63|35=0|34=100|49=QUANTIN|52=20100420-23:26:29.095|56=NESTFIXTEST|10=179|
8=FIX.4.2|9=73|35=A|34=1|49=QUANTIN|52=20100422-12:51:11.248|56=NESTFIXTEST|98=0|108=60|10=118|
8=FIX.4.2|9=73|35=A|34=1|49=NESTFIXTEST|52=20100422-12:51:11.263|56=QUANTIN|98=0|108=60|10=115|
8=FIX.4.2|9=125|35=D|34=2|49=QUANTIN|52=20100422-12:51:22.841|56=NESTFIXTEST|11=IAA0001|21=1|38=1|40=1|54=1|55=PETR4.SA|60=20100422-09:51:22|10=236|
8=FIX.4.2|9=125|35=D|34=3|49=QUANTIN|52=20100422-12:51:38.575|56=NESTFIXTEST|11=IAA0002|21=1|38=1|40=1|54=2|55=PETR4.SA|60=20100422-09:51:38|10=001|
8=FIX.4.2|9=125|35=D|34=4|49=QUANTIN|52=20100422-12:52:08.122|56=NESTFIXTEST|11=IAA0003|21=1|38=1|40=1|54=2|55=PETR4.SA|60=20100422-09:52:08|10=243|
8=FIX.4.2|9=61|35=0|34=2|49=NESTFIXTEST|52=20100422-12:52:11.637|56=QUANTIN|10=074|
8=FIX.4.2|9=125|35=D|34=5|49=QUANTIN|52=20100422-12:52:31.465|56=NESTFIXTEST|11=IAA0004|21=1|38=1|40=1|54=2|55=PETR4.SA|60=20100422-09:52:31|10=247|
8=FIX.4.2|9=125|35=D|34=6|49=QUANTIN|52=20100422-12:53:01.308|56=NESTFIXTEST|11=IAA0005|21=1|38=1|40=1|54=1|55=PETR4.SA|60=20100422-09:53:01|10=240|
8=FIX.4.2|9=61|35=0|34=3|49=NESTFIXTEST|52=20100422-12:53:11.511|56=QUANTIN|10=067|
8=FIX.4.2|9=125|35=D|34=7|49=QUANTIN|52=20100422-12:53:30.354|56=NESTFIXTEST|11=IAA0006|21=1|38=1|40=1|54=1|55=VALE5.SA|60=20100422-09:53:30|10=229|
8=FIX.4.2|9=61|35=0|34=4|49=NESTFIXTEST|52=20100422-12:54:11.619|56=QUANTIN|10=078|
8=FIX.4.2|9=61|35=0|34=8|49=QUANTIN|52=20100422-12:54:30.353|56=NESTFIXTEST|10=078|
8=FIX.4.2|9=61|35=0|34=5|49=NESTFIXTEST|52=20100422-12:55:11.649|56=QUANTIN|10=083|
8=FIX.4.2|9=61|35=0|34=9|49=QUANTIN|52=20100422-12:55:30.383|56=NESTFIXTEST|10=083|
8=FIX.4.2|9=61|35=0|34=6|49=NESTFIXTEST|52=20100422-12:56:11.664|56=QUANTIN|10=082|
8=FIX.4.2|9=62|35=0|34=10|49=QUANTIN|52=20100422-12:56:30.398|56=NESTFIXTEST|10=131|
8=FIX.4.2|9=73|35=A|34=1|49=QUANTIN|52=20100423-20:56:30.913|56=NESTFIXTEST|98=0|108=60|10=123|
8=FIX.4.2|9=73|35=A|34=1|49=NESTFIXTEST|52=20100423-20:56:30.960|56=QUANTIN|98=0|108=60|10=125|
8=FIX.4.2|9=125|35=D|34=2|49=QUANTIN|52=20100423-20:57:02.146|56=NESTFIXTEST|11=IAA0001|21=1|38=1|40=1|54=1|55=PETR4.SA|60=20100423-17:57:02|10=242|
8=FIX.4.2|9=73|35=A|34=3|49=QUANTIN|52=20100423-21:00:12.987|56=NESTFIXTEST|98=0|108=60|10=126|
8=FIX.4.2|9=73|35=A|34=2|49=NESTFIXTEST|52=20100423-21:00:13.033|56=QUANTIN|98=0|108=60|10=108|
8=FIX.4.2|9=125|35=D|34=4|49=QUANTIN|52=20100423-21:00:16.861|56=NESTFIXTEST|11=IAA0002|21=1|38=1|40=1|54=1|55=PETR4.SA|60=20100423-18:00:16|10=237|
8=FIX.4.2|9=61|35=0|34=5|49=QUANTIN|52=20100423-21:01:16.017|56=NESTFIXTEST|10=069|
8=FIX.4.2|9=70|35=1|34=6|49=QUANTIN|52=20100423-21:01:25.032|56=NESTFIXTEST|112=TEST|10=086|
8=FIX.4.2|9=73|35=A|34=7|49=QUANTIN|52=20100423-21:02:43.062|56=NESTFIXTEST|98=0|108=60|10=120|
8=FIX.4.2|9=73|35=A|34=8|49=QUANTIN|52=20100423-21:03:13.077|56=NESTFIXTEST|98=0|108=60|10=125|
8=FIX.4.2|9=73|35=A|34=9|49=QUANTIN|52=20100423-21:03:43.092|56=NESTFIXTEST|98=0|108=60|10=126|
8=FIX.4.2|9=74|35=A|34=10|49=QUANTIN|52=20100423-21:04:13.107|56=NESTFIXTEST|98=0|108=60|10=162|
8=FIX.4.2|9=74|35=A|34=11|49=QUANTIN|52=20100423-21:04:43.122|56=NESTFIXTEST|98=0|108=60|10=163|
8=FIX.4.2|9=74|35=A|34=12|49=QUANTIN|52=20100423-21:05:13.137|56=NESTFIXTEST|98=0|108=60|10=168|
8=FIX.4.2|9=74|35=A|34=13|49=QUANTIN|52=20100423-21:05:43.152|56=NESTFIXTEST|98=0|108=60|10=169|
8=FIX.4.2|9=74|35=A|34=14|49=QUANTIN|52=20100423-21:06:13.151|56=NESTFIXTEST|98=0|108=60|10=167|
8=FIX.4.2|9=74|35=A|34=15|49=QUANTIN|52=20100423-21:06:43.167|56=NESTFIXTEST|98=0|108=60|10=178|
8=FIX.4.2|9=74|35=A|34=16|49=QUANTIN|52=20100423-21:07:13.182|56=NESTFIXTEST|98=0|108=60|10=174|
8=FIX.4.2|9=74|35=A|34=17|49=QUANTIN|52=20100423-21:07:43.197|56=NESTFIXTEST|98=0|108=60|10=184|
8=FIX.4.2|9=74|35=A|34=13|49=NESTFIXTEST|52=20100423-21:07:55.962|56=QUANTIN|98=0|108=60|10=183|
8=FIX.4.2|9=71|35=2|34=18|49=QUANTIN|52=20100423-21:07:55.962|56=NESTFIXTEST|7=3|16=0|10=011|
8=FIX.4.2|9=71|35=2|34=14|49=NESTFIXTEST|52=20100423-21:07:55.962|56=QUANTIN|7=5|16=0|10=009|
8=FIX.4.2|9=104|35=4|34=5|43=Y|49=QUANTIN|52=20100423-21:07:55.962|56=NESTFIXTEST|122=20100423-21:07:55.962|36=19|123=Y|10=200|
8=FIX.4.2|9=104|35=4|34=3|43=Y|49=NESTFIXTEST|52=20100423-21:07:55.962|56=QUANTIN|122=20100423-21:07:55.962|36=15|123=Y|10=194|
8=FIX.4.2|9=62|35=0|34=19|49=QUANTIN|52=20100423-21:08:55.227|56=NESTFIXTEST|10=136|
8=FIX.4.2|9=62|35=0|34=15|49=NESTFIXTEST|52=20100423-21:08:55.227|56=QUANTIN|10=132|
8=FIX.4.2|9=62|35=0|34=20|49=QUANTIN|52=20100423-21:09:55.257|56=NESTFIXTEST|10=132|
8=FIX.4.2|9=62|35=0|34=16|49=NESTFIXTEST|52=20100423-21:09:55.257|56=QUANTIN|10=137|
8=FIX.4.2|9=62|35=0|34=17|49=NESTFIXTEST|52=20100423-21:10:55.021|56=QUANTIN|10=119|
8=FIX.4.2|9=62|35=0|34=21|49=QUANTIN|52=20100423-21:10:55.021|56=NESTFIXTEST|10=114|
8=FIX.4.2|9=62|35=0|34=18|49=NESTFIXTEST|52=20100423-21:11:55.051|56=QUANTIN|10=124|
8=FIX.4.2|9=62|35=0|34=22|49=QUANTIN|52=20100423-21:11:55.051|56=NESTFIXTEST|10=119|
8=FIX.4.2|9=126|35=D|34=23|49=QUANTIN|52=20100423-21:12:33.504|56=NESTFIXTEST|11=IAA0003|21=1|38=1|40=1|54=2|55=PETR4.SA|60=20100423-18:12:33|10=031|
8=FIX.4.2|9=62|35=0|34=19|49=NESTFIXTEST|52=20100423-21:12:56.628|56=QUANTIN|10=137|
8=FIX.4.2|9=62|35=0|34=24|49=QUANTIN|52=20100423-21:13:33.362|56=NESTFIXTEST|10=124|
8=FIX.4.2|9=62|35=0|34=20|49=NESTFIXTEST|52=20100423-21:13:56.611|56=QUANTIN|10=122|
8=FIX.4.2|9=62|35=5|34=21|49=NESTFIXTEST|52=20100423-21:14:03.611|56=QUANTIN|10=121|
8=FIX.4.2|9=62|35=5|34=25|49=QUANTIN|52=20100423-21:14:03.611|56=NESTFIXTEST|10=125|
8=FIX.4.2|9=73|35=A|34=1|49=QUANTIN|52=20100426-18:33:39.097|56=NESTFIXTEST|98=0|108=60|10=140|
8=FIX.4.2|9=73|35=A|34=1|49=NESTFIXTEST|52=20100426-18:33:39.175|56=QUANTIN|98=0|108=60|10=137|
8=FIX.4.2|9=131|35=D|34=2|49=QUANTIN|52=20100426-18:34:07.768|56=NESTFIXTEST|11=IAA0001|21=1|38=1|40=2|44=10|54=1|55=PETR4.SA|60=20100426-15:34:07|10=012|
8=FIX.4.2|9=131|35=D|34=3|49=QUANTIN|52=20100426-18:34:32.080|56=NESTFIXTEST|11=IAA0002|21=1|38=1|40=2|44=10|54=2|55=PETR4.SA|60=20100426-15:34:32|10=254|
8=FIX.4.2|9=61|35=0|34=2|49=NESTFIXTEST|52=20100426-18:34:41.721|56=QUANTIN|10=081|
8=FIX.4.2|9=61|35=0|34=4|49=QUANTIN|52=20100426-18:35:32.126|56=NESTFIXTEST|10=083|
8=FIX.4.2|9=70|35=1|34=5|49=QUANTIN|52=20100426-18:35:56.141|56=NESTFIXTEST|112=TEST|10=106|
8=FIX.4.2|9=73|35=A|34=6|49=QUANTIN|52=20100426-18:36:40.156|56=NESTFIXTEST|98=0|108=60|10=136|
8=FIX.4.2|9=73|35=A|34=3|49=NESTFIXTEST|52=20100426-18:36:40.203|56=QUANTIN|98=0|108=60|10=126|
8=FIX.4.2|9=70|35=2|34=4|49=NESTFIXTEST|52=20100426-18:36:40.203|56=QUANTIN|7=4|16=0|10=207|
8=FIX.4.2|9=103|35=4|34=4|43=Y|49=QUANTIN|52=20100426-18:36:40.203|56=NESTFIXTEST|122=20100426-18:36:40.203|36=7|123=Y|10=133|
8=FIX.4.2|9=131|35=D|34=7|49=QUANTIN|52=20100426-18:36:40.328|56=NESTFIXTEST|11=IAA0003|21=1|38=1|40=2|44=10|54=1|55=PETR4.SA|60=20100426-15:36:40|10=009|
8=FIX.4.2|9=73|35=A|34=9|49=QUANTIN|52=20100426-18:38:10.201|56=NESTFIXTEST|98=0|108=60|10=129|
8=FIX.4.2|9=73|35=A|34=5|49=NESTFIXTEST|52=20100426-18:38:18.560|56=QUANTIN|98=0|108=60|10=141|
8=FIX.4.2|9=70|35=2|34=6|49=NESTFIXTEST|52=20100426-18:38:18.576|56=QUANTIN|7=8|16=0|10=233|
8=FIX.4.2|9=162|35=D|34=8|43=Y|49=QUANTIN|52=20100426-18:38:18.576|56=NESTFIXTEST|122=20100426-18:37:55.483|11=IAA0004|21=1|38=1|40=2|44=10|54=1|55=PETR4.SA|60=20100426-15:37:55|10=045|
8=FIX.4.2|9=104|35=4|34=9|43=Y|49=QUANTIN|52=20100426-18:38:18.576|56=NESTFIXTEST|122=20100426-18:38:18.576|36=10|123=Y|10=221|
8=FIX.4.2|9=61|35=5|34=7|49=NESTFIXTEST|52=20100426-18:38:18.576|56=QUANTIN|10=107|
8=FIX.4.2|9=62|35=5|34=10|49=QUANTIN|52=20100426-18:38:18.576|56=NESTFIXTEST|10=150|
8=FIX.4.2|9=74|35=A|34=11|49=QUANTIN|52=20100426-18:38:40.216|56=NESTFIXTEST|98=0|108=60|10=180|
8=FIX.4.2|9=73|35=A|34=8|49=NESTFIXTEST|52=20100426-18:38:40.263|56=QUANTIN|98=0|108=60|10=139|
8=FIX.4.2|9=132|35=D|34=12|49=QUANTIN|52=20100426-18:38:57.044|56=NESTFIXTEST|11=IAA0005|21=1|38=1|40=2|44=10|54=1|55=PETR4.SA|60=20100426-15:38:57|10=071|
8=FIX.4.2|9=74|35=A|34=13|49=QUANTIN|52=20100426-18:44:09.975|56=NESTFIXTEST|98=0|108=60|10=196|
8=FIX.4.2|9=73|35=A|34=9|49=NESTFIXTEST|52=20100426-18:44:10.054|56=QUANTIN|98=0|108=60|10=132|
8=FIX.4.2|9=132|35=D|34=14|49=QUANTIN|52=20100426-18:44:24.803|56=NESTFIXTEST|11=IAA0006|21=1|38=1|40=2|44=10|54=1|55=PETR4.SA|60=20100426-15:44:24|10=059|
8=FIX.4.2|9=74|35=A|34=16|49=QUANTIN|52=20100426-18:46:41.082|56=NESTFIXTEST|98=0|108=60|10=186|
8=FIX.4.2|9=74|35=A|34=10|49=NESTFIXTEST|52=20100426-18:46:41.129|56=QUANTIN|98=0|108=60|10=182|
8=FIX.4.2|9=72|35=2|34=11|49=NESTFIXTEST|52=20100426-18:46:41.129|56=QUANTIN|7=15|16=0|10=058|
8=FIX.4.2|9=163|35=D|34=15|43=Y|49=QUANTIN|52=20100426-18:46:41.129|56=NESTFIXTEST|122=20100426-18:46:20.020|11=IAA0007|21=1|38=1|40=2|44=10|54=1|55=PETR4.SA|60=20100426-15:46:20|10=055|
8=FIX.4.2|9=105|35=4|34=16|43=Y|49=QUANTIN|52=20100426-18:46:41.144|56=NESTFIXTEST|122=20100426-18:46:41.144|36=17|123=Y|10=247|
8=FIX.4.2|9=74|35=A|34=18|49=QUANTIN|52=20100426-18:47:11.113|56=NESTFIXTEST|98=0|108=60|10=181|
8=FIX.4.2|9=74|35=A|34=12|49=NESTFIXTEST|52=20100426-18:47:11.159|56=QUANTIN|98=0|108=60|10=185|
8=FIX.4.2|9=72|35=2|34=13|49=NESTFIXTEST|52=20100426-18:47:11.159|56=QUANTIN|7=17|16=0|10=063|
8=FIX.4.2|9=163|35=D|34=17|43=Y|49=QUANTIN|52=20100426-18:47:11.159|56=NESTFIXTEST|122=20100426-18:47:10.503|11=IAA0008|21=1|38=1|40=2|44=10|54=1|55=PETR4.SA|60=20100426-15:47:10|10=065|
8=FIX.4.2|9=105|35=4|34=18|43=Y|49=QUANTIN|52=20100426-18:47:11.159|56=NESTFIXTEST|122=20100426-18:47:11.159|36=19|123=Y|10=003|
8=FIX.4.2|9=62|35=0|34=19|49=QUANTIN|52=20100426-18:48:11.127|56=NESTFIXTEST|10=140|
8=FIX.4.2|9=71|35=1|34=20|49=QUANTIN|52=20100426-18:48:23.127|56=NESTFIXTEST|112=TEST|10=154|
8=FIX.4.2|9=62|35=0|34=14|49=NESTFIXTEST|52=20100426-18:48:14.752|56=QUANTIN|10=142|
8=FIX.4.2|9=71|35=0|34=15|49=NESTFIXTEST|52=20100426-18:48:32.970|56=QUANTIN|112=TEST|10=163|
8=FIX.4.2|9=62|35=0|34=21|49=QUANTIN|52=20100426-18:49:23.157|56=NESTFIXTEST|10=140|
8=FIX.4.2|9=62|35=0|34=16|49=NESTFIXTEST|52=20100426-18:49:42.500|56=QUANTIN|10=137|
8=FIX.4.2|9=62|35=0|34=22|49=QUANTIN|52=20100426-18:50:23.187|56=NESTFIXTEST|10=136|
8=FIX.4.2|9=132|35=D|34=23|49=QUANTIN|52=20100426-18:50:34.452|56=NESTFIXTEST|11=IAA0009|21=1|38=1|40=2|44=10|54=2|55=PETR4.SA|60=20100426-15:50:34|10=059|
8=FIX.4.2|9=71|35=1|34=24|49=QUANTIN|52=20100426-18:50:54.202|56=NESTFIXTEST|112=TEST|10=149|
8=FIX.4.2|9=62|35=0|34=17|49=NESTFIXTEST|52=20100426-18:50:56.686|56=QUANTIN|10=150|
8=FIX.4.2|9=71|35=0|34=18|49=NESTFIXTEST|52=20100426-18:50:58.327|56=QUANTIN|112=TEST|10=163|
8=FIX.4.2|9=62|35=0|34=25|49=QUANTIN|52=20100426-18:51:54.232|56=NESTFIXTEST|10=135|
8=FIX.4.2|9=62|35=0|34=19|49=NESTFIXTEST|52=20100426-18:51:58.732|56=QUANTIN|10=147|
8=FIX.4.2|9=132|35=D|34=26|49=QUANTIN|52=20100426-18:52:45.325|56=NESTFIXTEST|11=IAA0010|21=1|38=1|40=2|44=10|54=1|55=VALE5.SA|60=20100426-15:52:45|10=042|
8=FIX.4.2|9=62|35=0|34=20|49=NESTFIXTEST|52=20100426-18:52:58.762|56=QUANTIN|10=143|
8=FIX.4.2|9=132|35=D|34=27|49=QUANTIN|52=20100426-18:53:14.090|56=NESTFIXTEST|11=IAA0011|21=1|38=1|40=2|44=10|54=1|55=VALE5.SA|60=20100426-15:53:14|10=037|
8=FIX.4.2|9=74|35=A|34=28|49=QUANTIN|52=20100426-18:54:11.292|56=NESTFIXTEST|98=0|108=60|10=188|
8=FIX.4.2|9=74|35=A|34=21|49=NESTFIXTEST|52=20100426-18:54:11.339|56=QUANTIN|98=0|108=60|10=183|
8=FIX.4.2|9=132|35=D|34=29|49=QUANTIN|52=20100426-18:54:31.307|56=NESTFIXTEST|11=IAA0012|21=1|38=1|40=2|44=10|54=1|55=VALE5.SA|60=20100426-15:54:31|10=041|
8=FIX.4.2|9=71|35=1|34=30|49=QUANTIN|52=20100426-18:55:23.322|56=NESTFIXTEST|112=TEST|10=150|
8=FIX.4.2|9=62|35=0|34=22|49=NESTFIXTEST|52=20100426-18:55:21.603|56=QUANTIN|10=132|
8=FIX.4.2|9=71|35=0|34=23|49=NESTFIXTEST|52=20100426-18:55:42.150|56=QUANTIN|112=TEST|10=151|
8=FIX.4.2|9=62|35=0|34=31|49=QUANTIN|52=20100426-18:56:23.383|56=NESTFIXTEST|10=140|
8=FIX.4.2|9=74|35=A|34=32|49=QUANTIN|52=20100426-18:57:41.444|56=NESTFIXTEST|98=0|108=60|10=188|
8=FIX.4.2|9=74|35=A|34=24|49=NESTFIXTEST|52=20100426-18:57:41.491|56=QUANTIN|98=0|108=60|10=191|
8=FIX.4.2|9=132|35=D|34=33|49=QUANTIN|52=20100426-18:57:43.663|56=NESTFIXTEST|11=IAA0013|21=1|38=1|40=2|44=10|54=1|55=PETR4.SA|60=20100426-15:57:43|10=072|
8=FIX.4.2|9=62|35=0|34=34|49=QUANTIN|52=20100426-18:58:43.474|56=NESTFIXTEST|10=148|
8=FIX.4.2|9=74|35=A|34=35|49=QUANTIN|52=20100426-18:59:11.536|56=NESTFIXTEST|98=0|108=60|10=192|
8=FIX.4.2|9=74|35=A|34=25|49=NESTFIXTEST|52=20100426-18:59:11.583|56=QUANTIN|98=0|108=60|10=193|
8=FIX.4.2|9=72|35=2|34=26|49=NESTFIXTEST|52=20100426-18:59:11.583|56=QUANTIN|7=34|16=0|10=070|
8=FIX.4.2|9=105|35=4|34=34|43=Y|49=QUANTIN|52=20100426-18:59:11.583|56=NESTFIXTEST|122=20100426-18:59:11.583|36=36|123=Y|10=008|
8=FIX.4.2|9=132|35=D|34=36|49=QUANTIN|52=20100426-18:59:15.177|56=NESTFIXTEST|11=IAA0014|21=1|38=1|40=2|44=10|54=1|55=PETR4.SA|60=20100426-15:59:15|10=078|
8=FIX.4.2|9=62|35=0|34=27|49=NESTFIXTEST|52=20100426-19:00:13.457|56=QUANTIN|10=136|
8=FIX.4.2|9=62|35=0|34=37|49=QUANTIN|52=20100426-19:00:15.566|56=NESTFIXTEST|10=140|
8=FIX.4.2|9=62|35=0|34=28|49=NESTFIXTEST|52=20100426-19:01:13.987|56=QUANTIN|10=146|
8=FIX.4.2|9=62|35=0|34=38|49=QUANTIN|52=20100426-19:01:15.596|56=NESTFIXTEST|10=145|
8=FIX.4.2|9=132|35=D|34=39|49=QUANTIN|52=20100426-19:01:20.315|56=NESTFIXTEST|11=IAA0015|21=1|38=1|40=2|44=10|54=2|55=PETR4.SA|60=20100426-16:01:20|10=045|
8=FIX.4.2|9=62|35=0|34=40|49=QUANTIN|52=20100426-19:02:20.626|56=NESTFIXTEST|10=129|
8=FIX.4.2|9=62|35=0|34=29|49=NESTFIXTEST|52=20100426-19:02:14.970|56=QUANTIN|10=141|
8=FIX.4.2|9=62|35=0|34=41|49=QUANTIN|52=20100426-19:03:20.641|56=NESTFIXTEST|10=128|
8=FIX.4.2|9=71|35=1|34=42|49=QUANTIN|52=20100426-19:03:33.656|56=NESTFIXTEST|112=TEST|10=158|
8=FIX.4.2|9=62|35=0|34=30|49=NESTFIXTEST|52=20100426-19:03:33.297|56=QUANTIN|10=137|
8=FIX.4.2|9=71|35=0|34=31|49=NESTFIXTEST|52=20100426-19:03:36.187|56=QUANTIN|112=TEST|10=157|
8=FIX.4.2|9=62|35=0|34=43|49=QUANTIN|52=20100426-19:04:33.733|56=NESTFIXTEST|10=137|
8=FIX.4.2|9=62|35=0|34=32|49=NESTFIXTEST|52=20100426-19:04:36.546|56=QUANTIN|10=140|
8=FIX.4.2|9=62|35=0|34=44|49=QUANTIN|52=20100426-19:05:33.763|56=NESTFIXTEST|10=142|
8=FIX.4.2|9=62|35=0|34=33|49=NESTFIXTEST|52=20100426-19:05:37.216|56=QUANTIN|10=137|
8=FIX.4.2|9=62|35=0|34=45|49=QUANTIN|52=20100426-19:06:33.809|56=NESTFIXTEST|10=145|
8=FIX.4.2|9=62|35=0|34=34|49=NESTFIXTEST|52=20100426-19:06:37.512|56=QUANTIN|10=138|
8=FIX.4.2|9=62|35=0|34=46|49=QUANTIN|52=20100426-19:07:33.839|56=NESTFIXTEST|10=150|
8=FIX.4.2|9=71|35=1|34=47|49=QUANTIN|52=20100426-19:07:50.839|56=NESTFIXTEST|112=TEST|10=169|
8=FIX.4.2|9=62|35=0|34=35|49=NESTFIXTEST|52=20100426-19:07:52.948|56=QUANTIN|10=150|
8=FIX.4.2|9=71|35=0|34=36|49=NESTFIXTEST|52=20100426-19:07:56.292|56=QUANTIN|112=TEST|10=165|
8=FIX.4.2|9=62|35=0|34=48|49=QUANTIN|52=20100426-19:08:50.900|56=NESTFIXTEST|10=141|
8=FIX.4.2|9=62|35=0|34=37|49=NESTFIXTEST|52=20100426-19:08:56.712|56=QUANTIN|10=146|
8=FIX.4.2|9=62|35=0|34=49|49=QUANTIN|52=20100426-19:09:50.930|56=NESTFIXTEST|10=146|
8=FIX.4.2|9=74|35=A|34=50|49=QUANTIN|52=20100426-19:26:26.661|56=NESTFIXTEST|98=0|108=60|10=189|
8=FIX.4.2|9=74|35=A|34=38|49=NESTFIXTEST|52=20100426-19:26:26.755|56=QUANTIN|98=0|108=60|10=199|
8=FIX.4.2|9=72|35=2|34=39|49=NESTFIXTEST|52=20100426-19:26:26.755|56=QUANTIN|7=49|16=0|10=082|
8=FIX.4.2|9=105|35=4|34=49|43=Y|49=QUANTIN|52=20100426-19:26:26.770|56=NESTFIXTEST|122=20100426-19:26:26.770|36=51|123=Y|10=009|
8=FIX.4.2|9=132|35=D|34=51|49=QUANTIN|52=20100426-19:26:46.004|56=NESTFIXTEST|11=IAA0016|21=1|38=1|40=2|44=10|54=1|55=PETR4.SA|60=20100426-16:26:46|10=064|
8=FIX.4.2|9=126|35=D|34=52|49=QUANTIN|52=20100426-19:27:07.738|56=NESTFIXTEST|11=IAA0017|21=1|38=1|40=1|54=1|55=PETR4.SA|60=20100426-16:27:07|10=071|
8=FIX.4.2|9=74|35=A|34=53|49=QUANTIN|52=20100426-19:27:27.707|56=NESTFIXTEST|98=0|108=60|10=195|
8=FIX.4.2|9=74|35=A|34=40|49=NESTFIXTEST|52=20100426-19:27:27.754|56=QUANTIN|98=0|108=60|10=193|
8=FIX.4.2|9=132|35=D|34=54|49=QUANTIN|52=20100426-19:27:36.550|56=NESTFIXTEST|11=IAA0018|21=1|38=1|40=2|44=10|54=1|55=PETR4.SA|60=20100426-16:27:36|10=075|
8=FIX.4.2|9=132|35=D|34=55|49=QUANTIN|52=20100426-19:27:49.784|56=NESTFIXTEST|11=IAA0019|21=1|38=1|40=2|44=10|54=2|55=PETR4.SA|60=20100426-16:27:49|10=095|
8=FIX.4.2|9=71|35=1|34=56|49=QUANTIN|52=20100426-19:28:39.721|56=NESTFIXTEST|112=TEST|10=169|
8=FIX.4.2|9=62|35=0|34=41|49=NESTFIXTEST|52=20100426-19:28:58.314|56=QUANTIN|10=143|
8=FIX.4.2|9=71|35=0|34=42|49=NESTFIXTEST|52=20100426-19:28:59.580|56=QUANTIN|112=TEST|10=168|
8=FIX.4.2|9=62|35=0|34=57|49=QUANTIN|52=20100426-19:29:39.751|56=NESTFIXTEST|10=155|
8=FIX.4.2|9=62|35=0|34=43|49=NESTFIXTEST|52=20100426-19:29:59.407|56=QUANTIN|10=150|
8=FIX.4.2|9=62|35=0|34=58|49=QUANTIN|52=20100426-19:30:39.781|56=NESTFIXTEST|10=151|
8=FIX.4.2|9=62|35=0|34=44|49=NESTFIXTEST|52=20100426-19:30:59.796|56=QUANTIN|10=154|
8=FIX.4.2|9=62|35=0|34=59|49=QUANTIN|52=20100426-19:31:39.843|56=NESTFIXTEST|10=152|
8=FIX.4.2|9=73|35=A|34=1|49=QUANTIN|52=20100427-15:37:24.131|56=NESTFIXTEST|98=0|108=60|10=125|
8=FIX.4.2|9=73|35=A|34=1|49=NESTFIXTEST|52=20100427-15:37:24.147|56=QUANTIN|98=0|108=60|10=132|
8=FIX.4.2|9=61|35=0|34=2|49=QUANTIN|52=20100427-15:38:24.145|56=NESTFIXTEST|10=084|
8=FIX.4.2|9=61|35=0|34=2|49=NESTFIXTEST|52=20100427-15:38:24.160|56=QUANTIN|10=081|
8=FIX.4.2|9=126|35=D|34=3|49=QUANTIN|52=20100427-15:39:14.909|56=NESTFIXTEST|11=IAA0001|21=1|38=10|40=1|54=1|55=PETR4.SA|60=20100427-12:39:14|10=056|
8=FIX.4.2|9=70|35=1|34=4|49=QUANTIN|52=20100427-15:39:36.205|56=NESTFIXTEST|112=TEST|10=106|
8=FIX.4.2|9=61|35=0|34=3|49=NESTFIXTEST|52=20100427-15:39:39.205|56=QUANTIN|10=089|
8=FIX.4.2|9=70|35=0|34=4|49=NESTFIXTEST|52=20100427-15:39:39.220|56=QUANTIN|112=TEST|10=105|
8=FIX.4.2|9=61|35=0|34=5|49=QUANTIN|52=20100427-15:40:36.250|56=NESTFIXTEST|10=080|
8=FIX.4.2|9=70|35=1|34=6|49=QUANTIN|52=20100427-15:40:51.265|56=NESTFIXTEST|112=TEST|10=103|
8=FIX.4.2|9=61|35=0|34=5|49=NESTFIXTEST|52=20100427-15:41:13.530|56=QUANTIN|10=077|
8=FIX.4.2|9=70|35=0|34=6|49=NESTFIXTEST|52=20100427-15:41:13.546|56=QUANTIN|112=TEST|10=103|
8=FIX.4.2|9=61|35=0|34=7|49=QUANTIN|52=20100427-15:41:51.310|56=NESTFIXTEST|10=077|
8=FIX.4.2|9=70|35=1|34=8|49=QUANTIN|52=20100427-15:42:27.340|56=NESTFIXTEST|112=TEST|10=104|
8=FIX.4.2|9=61|35=0|34=7|49=NESTFIXTEST|52=20100427-15:42:27.824|56=QUANTIN|10=091|
8=FIX.4.2|9=70|35=0|34=8|49=NESTFIXTEST|52=20100427-15:42:27.824|56=QUANTIN|112=TEST|10=110|
8=FIX.4.2|9=61|35=0|34=9|49=NESTFIXTEST|52=20100427-15:43:27.182|56=QUANTIN|10=091|
8=FIX.4.2|9=61|35=0|34=9|49=QUANTIN|52=20100427-15:43:27.182|56=NESTFIXTEST|10=091|
8=FIX.4.2|9=62|35=0|34=10|49=QUANTIN|52=20100427-15:44:27.446|56=NESTFIXTEST|10=136|
8=FIX.4.2|9=71|35=1|34=11|49=QUANTIN|52=20100427-15:44:39.461|56=NESTFIXTEST|112=TEST|10=156|
8=FIX.4.2|9=74|35=A|34=12|49=QUANTIN|52=20100427-15:45:55.521|56=NESTFIXTEST|98=0|108=60|10=182|
8=FIX.4.2|9=74|35=A|34=13|49=QUANTIN|52=20100427-15:46:25.536|56=NESTFIXTEST|98=0|108=60|10=187|
8=FIX.4.2|9=74|35=A|34=14|49=QUANTIN|52=20100427-15:46:55.566|56=NESTFIXTEST|98=0|108=60|10=194|
8=FIX.4.2|9=74|35=A|34=15|49=QUANTIN|52=20100427-15:47:25.581|56=NESTFIXTEST|98=0|108=60|10=190|
8=FIX.4.2|9=74|35=A|34=16|49=QUANTIN|52=20100427-15:47:55.611|56=NESTFIXTEST|98=0|108=60|10=188|
8=FIX.4.2|9=74|35=A|34=17|49=QUANTIN|52=20100427-15:48:25.641|56=NESTFIXTEST|98=0|108=60|10=190|
8=FIX.4.2|9=74|35=A|34=18|49=QUANTIN|52=20100427-15:48:55.656|56=NESTFIXTEST|98=0|108=60|10=200|
8=FIX.4.2|9=74|35=A|34=19|49=QUANTIN|52=20100427-15:49:25.686|56=NESTFIXTEST|98=0|108=60|10=202|
8=FIX.4.2|9=74|35=A|34=20|49=QUANTIN|52=20100427-15:49:55.701|56=NESTFIXTEST|98=0|108=60|10=185|
8=FIX.4.2|9=74|35=A|34=21|49=QUANTIN|52=20100427-15:50:25.731|56=NESTFIXTEST|98=0|108=60|10=178|
8=FIX.4.2|9=74|35=A|34=22|49=QUANTIN|52=20100427-15:50:55.746|56=NESTFIXTEST|98=0|108=60|10=188|
8=FIX.4.2|9=74|35=A|34=23|49=QUANTIN|52=20100427-15:51:25.776|56=NESTFIXTEST|98=0|108=60|10=190|
8=FIX.4.2|9=74|35=A|34=24|49=QUANTIN|52=20100427-15:51:55.791|56=NESTFIXTEST|98=0|108=60|10=191|
8=FIX.4.2|9=74|35=A|34=25|49=QUANTIN|52=20100427-15:52:25.821|56=NESTFIXTEST|98=0|108=60|10=184|
8=FIX.4.2|9=74|35=A|34=26|49=QUANTIN|52=20100427-15:52:55.836|56=NESTFIXTEST|98=0|108=60|10=194|
8=FIX.4.2|9=74|35=A|34=27|49=QUANTIN|52=20100427-15:53:25.866|56=NESTFIXTEST|98=0|108=60|10=196|
8=FIX.4.2|9=74|35=A|34=28|49=QUANTIN|52=20100427-15:53:55.881|56=NESTFIXTEST|98=0|108=60|10=197|
8=FIX.4.2|9=74|35=A|34=29|49=QUANTIN|52=20100427-15:54:25.911|56=NESTFIXTEST|98=0|108=60|10=190|
8=FIX.4.2|9=74|35=A|34=30|49=QUANTIN|52=20100427-15:54:55.941|56=NESTFIXTEST|98=0|108=60|10=188|
8=FIX.4.2|9=74|35=A|34=31|49=QUANTIN|52=20100427-15:55:25.956|56=NESTFIXTEST|98=0|108=60|10=193|
8=FIX.4.2|9=74|35=A|34=32|49=QUANTIN|52=20100427-15:55:55.986|56=NESTFIXTEST|98=0|108=60|10=200|
8=FIX.4.2|9=74|35=A|34=30|49=NESTFIXTEST|52=20100427-15:55:55.986|56=QUANTIN|98=0|108=60|10=198|
8=FIX.4.2|9=72|35=2|34=33|49=QUANTIN|52=20100427-15:55:55.986|56=NESTFIXTEST|7=10|16=0|10=071|
8=FIX.4.2|9=72|35=2|34=31|49=NESTFIXTEST|52=20100427-15:55:55.986|56=QUANTIN|7=10|16=0|10=069|
8=FIX.4.2|9=105|35=4|34=10|43=Y|49=QUANTIN|52=20100427-15:55:56.002|56=NESTFIXTEST|122=20100427-15:55:56.002|36=34|123=Y|10=234|
8=FIX.4.2|9=105|35=4|34=10|43=Y|49=NESTFIXTEST|52=20100427-15:55:55.986|56=QUANTIN|122=20100427-15:55:55.986|36=32|123=Y|10=016|
8=FIX.4.2|9=127|35=D|34=34|49=QUANTIN|52=20100427-15:56:13.454|56=NESTFIXTEST|11=IAA0002|21=1|38=10|40=1|54=2|55=PETR4.SA|60=20100427-12:56:13|10=102|
8=FIX.4.2|9=71|35=1|34=35|49=QUANTIN|52=20100427-15:57:08.031|56=NESTFIXTEST|112=TEST|10=155|
8=FIX.4.2|9=74|35=A|34=36|49=QUANTIN|52=20100427-16:16:27.634|56=NESTFIXTEST|98=0|108=60|10=191|
8=FIX.4.2|9=74|35=A|34=32|49=NESTFIXTEST|52=20100427-16:16:27.728|56=QUANTIN|98=0|108=60|10=191|
8=FIX.4.2|9=72|35=2|34=33|49=NESTFIXTEST|52=20100427-16:16:27.728|56=QUANTIN|7=35|16=0|10=069|
8=FIX.4.2|9=105|35=4|34=35|43=Y|49=QUANTIN|52=20100427-16:16:27.744|56=NESTFIXTEST|122=20100427-16:16:27.744|36=37|123=Y|10=006|
8=FIX.4.2|9=127|35=D|34=37|49=QUANTIN|52=20100427-16:17:04.492|56=NESTFIXTEST|11=IAA0003|21=1|38=10|40=1|54=1|55=PETR4.SA|60=20100427-13:17:04|10=103|
8=FIX.4.2|9=62|35=0|34=34|49=NESTFIXTEST|52=20100427-16:17:32.585|56=QUANTIN|10=143|
8=FIX.4.2|9=127|35=D|34=38|49=QUANTIN|52=20100427-16:17:41.647|56=NESTFIXTEST|11=IAA0004|21=1|38=10|40=1|54=2|55=PETR4.SA|60=20100427-13:17:41|10=110|
8=FIX.4.2|9=62|35=0|34=35|49=NESTFIXTEST|52=20100427-16:18:36.411|56=QUANTIN|10=137|
8=FIX.4.2|9=62|35=0|34=39|49=QUANTIN|52=20100427-16:18:41.724|56=NESTFIXTEST|10=144|
8=FIX.4.2|9=62|35=0|34=40|49=QUANTIN|52=20100427-16:19:41.769|56=NESTFIXTEST|10=146|
8=FIX.4.2|9=71|35=1|34=41|49=QUANTIN|52=20100427-16:19:48.784|56=NESTFIXTEST|112=TEST|10=170|
8=FIX.4.2|9=73|35=A|34=1|49=QUANTIN|52=20100505-18:29:53.026|56=NESTFIXTEST|98=0|108=60|10=131|
8=FIX.4.2|9=73|35=A|34=1|49=NESTFIXTEST|52=20100505-18:29:53.151|56=QUANTIN|98=0|108=60|10=130|
8=FIX.4.2|9=133|35=D|34=2|49=QUANTIN|52=20100505-18:30:50.897|56=NESTFIXTEST|11=IAA0001|21=1|38=100|40=2|44=25|54=1|55=PETR4.SA|60=20100505-15:30:50|10=103|
8=FIX.4.2|9=61|35=0|34=2|49=NESTFIXTEST|52=20100505-18:30:58.381|56=QUANTIN|10=085|
8=FIX.4.2|9=61|35=0|34=3|49=QUANTIN|52=20100505-18:31:50.236|56=NESTFIXTEST|10=078|
8=FIX.4.2|9=61|35=0|34=3|49=NESTFIXTEST|52=20100505-18:31:59.142|56=QUANTIN|10=083|
8=FIX.4.2|9=61|35=0|34=4|49=QUANTIN|52=20100505-18:32:50.341|56=NESTFIXTEST|10=077|
8=FIX.4.2|9=61|35=0|34=4|49=NESTFIXTEST|52=20100505-18:32:59.372|56=QUANTIN|10=090|
8=FIX.4.2|9=61|35=0|34=5|49=QUANTIN|52=20100505-18:33:50.431|56=NESTFIXTEST|10=079|
8=FIX.4.2|9=61|35=0|34=5|49=NESTFIXTEST|52=20100505-18:33:59.165|56=QUANTIN|10=092|
8=FIX.4.2|9=61|35=0|34=6|49=QUANTIN|52=20100505-18:34:50.506|56=NESTFIXTEST|10=084|
8=FIX.4.2|9=61|35=0|34=6|49=NESTFIXTEST|52=20100505-18:35:01.552|56=QUANTIN|10=082|
8=FIX.4.2|9=61|35=0|34=7|49=QUANTIN|52=20100505-18:35:50.596|56=NESTFIXTEST|10=095|
8=FIX.4.2|9=70|35=1|34=8|49=QUANTIN|52=20100505-18:36:13.626|56=NESTFIXTEST|112=TEST|10=109|
8=FIX.4.2|9=61|35=0|34=7|49=NESTFIXTEST|52=20100505-18:36:20.048|56=QUANTIN|10=085|
8=FIX.4.2|9=70|35=0|34=8|49=NESTFIXTEST|52=20100505-18:36:21.251|56=QUANTIN|112=TEST|10=101|
8=FIX.4.2|9=61|35=0|34=9|49=QUANTIN|52=20100505-18:37:13.717|56=NESTFIXTEST|10=093|
8=FIX.4.2|9=71|35=1|34=10|49=QUANTIN|52=20100505-18:37:34.747|56=NESTFIXTEST|112=TEST|10=159|
8=FIX.4.2|9=61|35=0|34=9|49=NESTFIXTEST|52=20100505-18:37:36.809|56=QUANTIN|10=100|
8=FIX.4.2|9=71|35=0|34=10|49=NESTFIXTEST|52=20100505-18:37:36.840|56=QUANTIN|112=TEST|10=154|
8=FIX.4.2|9=62|35=0|34=11|49=QUANTIN|52=20100505-18:38:34.821|56=NESTFIXTEST|10=135|
8=FIX.4.2|9=71|35=1|34=12|49=QUANTIN|52=20100505-18:38:48.836|56=NESTFIXTEST|112=TEST|10=166|
8=FIX.4.2|9=71|35=1|34=11|49=NESTFIXTEST|52=20100505-18:38:55.508|56=QUANTIN|112=TEST|10=159|
8=FIX.4.2|9=71|35=0|34=13|49=QUANTIN|52=20100505-18:38:55.508|56=NESTFIXTEST|112=TEST|10=160|
8=FIX.4.2|9=71|35=0|34=12|49=NESTFIXTEST|52=20100505-18:38:55.523|56=QUANTIN|112=TEST|10=156|
8=FIX.4.2|9=62|35=0|34=14|49=QUANTIN|52=20100505-18:39:55.942|56=NESTFIXTEST|10=146|
8=FIX.4.2|9=71|35=1|34=15|49=QUANTIN|52=20100505-18:40:07.957|56=NESTFIXTEST|112=TEST|10=161|
8=FIX.4.2|9=74|35=A|34=16|49=QUANTIN|52=20100505-18:41:24.062|56=NESTFIXTEST|98=0|108=60|10=178|
8=FIX.4.2|9=74|35=A|34=17|49=QUANTIN|52=20100505-18:50:16.250|56=NESTFIXTEST|98=0|108=60|10=179|
8=FIX.4.2|9=74|35=A|34=13|49=NESTFIXTEST|52=20100505-18:50:16.297|56=QUANTIN|98=0|108=60|10=186|
8=FIX.4.2|9=72|35=2|34=14|49=NESTFIXTEST|52=20100505-18:50:16.297|56=QUANTIN|7=12|16=0|10=059|
8=FIX.4.2|9=105|35=4|34=12|43=Y|49=QUANTIN|52=20100505-18:50:16.312|56=NESTFIXTEST|122=20100505-18:50:16.312|36=18|123=Y|10=228|
8=FIX.4.2|9=134|35=D|34=18|49=QUANTIN|52=20100505-18:50:40.326|56=NESTFIXTEST|11=IAA0001|21=1|38=200|40=2|44=25|54=1|55=PETR4.SA|60=20100505-15:50:40|10=149|
8=FIX.4.2|9=71|35=1|34=19|49=QUANTIN|52=20100505-18:51:28.324|56=NESTFIXTEST|112=TEST|10=158|
8=FIX.4.2|9=62|35=0|34=15|49=NESTFIXTEST|52=20100505-18:51:43.963|56=QUANTIN|10=141|
8=FIX.4.2|9=71|35=0|34=16|49=NESTFIXTEST|52=20100505-18:51:43.979|56=QUANTIN|112=TEST|10=167|
8=FIX.4.2|9=74|35=A|34=20|49=QUANTIN|52=20100505-21:35:49.533|56=NESTFIXTEST|98=0|108=60|10=180|
8=FIX.4.2|9=74|35=A|34=17|49=NESTFIXTEST|52=20100505-21:35:49.564|56=QUANTIN|98=0|108=60|10=190|
8=FIX.4.2|9=134|35=D|34=21|49=QUANTIN|52=20100505-21:36:16.704|56=NESTFIXTEST|11=IAA0002|21=1|38=200|40=2|44=25|54=1|55=PETR4.SA|60=20100505-18:36:16|10=155|
8=FIX.4.2|9=74|35=A|34=22|49=QUANTIN|52=20100505-21:37:55.625|56=NESTFIXTEST|98=0|108=60|10=183|
8=FIX.4.2|9=74|35=A|34=18|49=NESTFIXTEST|52=20100505-21:37:55.672|56=QUANTIN|98=0|108=60|10=190|
8=FIX.4.2|9=134|35=D|34=23|49=QUANTIN|52=20100505-21:38:31.875|56=NESTFIXTEST|11=IAA0003|21=1|38=200|40=2|44=25|54=1|55=PETR4.SA|60=20100505-18:38:31|10=165|
8=FIX.4.2|9=71|35=1|34=24|49=QUANTIN|52=20100505-21:39:07.640|56=NESTFIXTEST|112=TEST|10=152|
8=FIX.4.2|9=62|35=0|34=19|49=NESTFIXTEST|52=20100505-21:38:55.546|56=QUANTIN|10=144|
8=FIX.4.2|9=71|35=0|34=20|49=NESTFIXTEST|52=20100505-21:39:19.546|56=QUANTIN|112=TEST|10=155|
8=FIX.4.2|9=62|35=0|34=25|49=QUANTIN|52=20100505-21:40:07.655|56=NESTFIXTEST|10=132|
8=FIX.4.2|9=71|35=1|34=26|49=QUANTIN|52=20100505-21:40:31.670|56=NESTFIXTEST|112=TEST|10=146|
8=FIX.4.2|9=62|35=0|34=21|49=NESTFIXTEST|52=20100505-21:40:46.529|56=QUANTIN|10=131|
8=FIX.4.2|9=71|35=0|34=22|49=NESTFIXTEST|52=20100505-21:40:47.935|56=QUANTIN|112=TEST|10=152|
8=FIX.4.2|9=62|35=0|34=27|49=QUANTIN|52=20100505-21:41:31.700|56=NESTFIXTEST|10=123|
8=FIX.4.2|9=62|35=0|34=23|49=NESTFIXTEST|52=20100505-21:41:47.355|56=QUANTIN|10=132|
8=FIX.4.2|9=62|35=0|34=28|49=QUANTIN|52=20100505-21:42:31.744|56=NESTFIXTEST|10=133|
8=FIX.4.2|9=62|35=0|34=24|49=NESTFIXTEST|52=20100505-21:42:47.572|56=QUANTIN|10=135|
8=FIX.4.2|9=200|35=8|34=25|49=NESTFIXTEST|52=20100505-21:43:23.977|56=QUANTIN|6=25|11=NF000007|14=100|17=0|20=0|31=25|32=100|37=NF000007|38=200|39=1|40=2|44=25|54=1|55=PETR4.SA|60=20100505-18:42:56.134|150=1|151=100|10=083|
8=FIX.4.2|9=62|35=0|34=29|49=QUANTIN|52=20100505-21:43:31.805|56=NESTFIXTEST|10=133|
8=FIX.4.2|9=71|35=1|34=26|49=NESTFIXTEST|52=20100505-21:44:10.194|56=QUANTIN|112=TEST|10=148|
8=FIX.4.2|9=71|35=0|34=30|49=QUANTIN|52=20100505-21:44:11.069|56=NESTFIXTEST|112=TEST|10=144|
8=FIX.4.2|9=134|35=D|34=31|49=QUANTIN|52=20100505-21:44:38.647|56=NESTFIXTEST|11=IAA0004|21=1|38=200|40=2|44=25|54=1|55=VALE5.SA|60=20100505-18:44:38|10=152|
8=FIX.4.2|9=62|35=0|34=27|49=NESTFIXTEST|52=20100505-21:45:10.271|56=QUANTIN|10=127|
8=FIX.4.2|9=62|35=0|34=32|49=QUANTIN|52=20100505-21:45:38.926|56=NESTFIXTEST|10=140|
8=FIX.4.2|9=62|35=0|34=28|49=NESTFIXTEST|52=20100505-21:46:15.237|56=QUANTIN|10=136|
8=FIX.4.2|9=200|35=8|34=29|49=NESTFIXTEST|52=20100505-21:46:19.378|56=QUANTIN|6=25|11=NF000009|14=100|17=0|20=0|31=25|32=100|37=NF000009|38=200|39=1|40=2|44=25|54=1|55=VALE5.SA|60=20100505-18:45:13.755|150=1|151=100|10=081|
8=FIX.4.2|9=62|35=0|34=33|49=QUANTIN|52=20100505-21:46:38.971|56=NESTFIXTEST|10=142|
8=FIX.4.2|9=62|35=5|34=30|49=NESTFIXTEST|52=20100505-21:47:16.438|56=QUANTIN|10=139|
8=FIX.4.2|9=62|35=5|34=34|49=QUANTIN|52=20100505-21:47:16.438|56=NESTFIXTEST|10=143|
8=FIX.4.2|9=73|35=A|34=1|49=QUANTIN|52=20100506-13:54:29.720|56=NESTFIXTEST|98=0|108=60|10=129|
8=FIX.4.2|9=73|35=A|34=1|49=NESTFIXTEST|52=20100506-13:54:29.736|56=QUANTIN|98=0|108=60|10=136|
8=FIX.4.2|9=73|35=A|34=2|49=QUANTIN|52=20100506-13:56:31.014|56=NESTFIXTEST|98=0|108=60|10=121|
8=FIX.4.2|9=73|35=A|34=4|49=NESTFIXTEST|52=20100506-13:56:31.061|56=QUANTIN|98=0|108=60|10=125|
8=FIX.4.2|9=70|35=2|34=3|49=QUANTIN|52=20100506-13:56:31.076|56=NESTFIXTEST|7=2|16=0|10=208|
8=FIX.4.2|9=103|35=4|34=2|43=Y|49=NESTFIXTEST|52=20100506-13:56:31.076|56=QUANTIN|122=20100506-13:56:31.076|36=5|123=Y|10=137|
8=FIX.4.2|9=73|35=A|34=4|49=QUANTIN|52=20100506-14:00:58.491|56=NESTFIXTEST|98=0|108=60|10=131|
8=FIX.4.2|9=73|35=A|34=5|49=NESTFIXTEST|52=20100506-14:00:58.538|56=QUANTIN|98=0|108=60|10=134|
8=FIX.4.2|9=61|35=0|34=5|49=QUANTIN|52=20100506-14:01:58.037|56=NESTFIXTEST|10=081|
8=FIX.4.2|9=61|35=0|34=6|49=NESTFIXTEST|52=20100506-14:01:58.334|56=QUANTIN|10=082|
8=FIX.4.2|9=70|35=1|34=7|49=NESTFIXTEST|52=20100506-14:02:10.349|56=QUANTIN|112=TEST|10=097|
8=FIX.4.2|9=70|35=0|34=6|49=QUANTIN|52=20100506-14:02:18.708|56=NESTFIXTEST|112=TEST|10=102|
8=FIX.4.2|9=140|35=D|34=7|49=QUANTIN|52=20100506-14:02:18.802|56=NESTFIXTEST|11=IAA0001|21=1|38=200|40=2|44=25|54=1|55=PETR4.SA|60=20100506-11:02:18|9304=N|10=185|
8=FIX.4.2|9=199|35=8|34=8|49=NESTFIXTEST|52=20100506-14:02:23.114|56=QUANTIN|6=25|11=NF000001|14=100|17=0|20=0|31=25|32=100|37=NF000001|38=200|39=1|40=2|44=25|54=1|55=PETR4.SA|60=20100506-11:02:23.114|150=1|151=100|10=004|
8=FIX.4.2|9=61|35=0|34=8|49=QUANTIN|52=20100506-14:03:18.113|56=NESTFIXTEST|10=077|
8=FIX.4.2|9=61|35=0|34=9|49=NESTFIXTEST|52=20100506-14:03:23.144|56=QUANTIN|10=078|
8=FIX.4.2|9=140|35=D|34=9|49=QUANTIN|52=20100506-14:03:38.722|56=NESTFIXTEST|11=IAA0002|21=1|38=200|40=2|44=25|54=1|55=VALE5.SA|60=20100506-11:03:38|9304=N|10=177|
8=FIX.4.2|9=200|35=8|34=10|49=NESTFIXTEST|52=20100506-14:03:42.690|56=QUANTIN|6=25|11=NF000003|14=100|17=0|20=0|31=25|32=100|37=NF000003|38=200|39=1|40=2|44=25|54=1|55=VALE5.SA|60=20100506-11:03:42.690|150=1|151=100|10=036|
8=FIX.4.2|9=71|35=1|34=10|49=QUANTIN|52=20100506-14:05:07.954|56=NESTFIXTEST|112=TEST|10=151|
8=FIX.4.2|9=62|35=0|34=11|49=NESTFIXTEST|52=20100506-14:04:42.720|56=QUANTIN|10=122|
8=FIX.4.2|9=71|35=1|34=12|49=NESTFIXTEST|52=20100506-14:04:50.720|56=QUANTIN|112=TEST|10=141|
8=FIX.4.2|9=71|35=0|34=11|49=QUANTIN|52=20100506-14:05:07.954|56=NESTFIXTEST|112=TEST|10=151|
8=FIX.4.2|9=71|35=0|34=13|49=NESTFIXTEST|52=20100506-14:05:07.954|56=QUANTIN|112=TEST|10=153|
8=FIX.4.2|9=62|35=0|34=14|49=NESTFIXTEST|52=20100506-14:06:07.765|56=QUANTIN|10=137|
8=FIX.4.2|9=62|35=0|34=12|49=QUANTIN|52=20100506-14:06:07.765|56=NESTFIXTEST|10=135|
8=FIX.4.2|9=62|35=0|34=13|49=QUANTIN|52=20100506-14:07:07.029|56=NESTFIXTEST|10=130|
8=FIX.4.2|9=62|35=0|34=15|49=NESTFIXTEST|52=20100506-14:07:07.029|56=QUANTIN|10=132|
8=FIX.4.2|9=62|35=0|34=14|49=QUANTIN|52=20100506-14:08:07.059|56=NESTFIXTEST|10=135|
8=FIX.4.2|9=62|35=0|34=16|49=NESTFIXTEST|52=20100506-14:08:07.059|56=QUANTIN|10=137|
8=FIX.4.2|9=62|35=0|34=15|49=QUANTIN|52=20100506-14:09:07.104|56=NESTFIXTEST|10=128|
8=FIX.4.2|9=62|35=0|34=17|49=NESTFIXTEST|52=20100506-14:09:07.104|56=QUANTIN|10=130|
8=FIX.4.2|9=62|35=0|34=16|49=QUANTIN|52=20100506-14:10:07.134|56=NESTFIXTEST|10=124|
8=FIX.4.2|9=62|35=0|34=18|49=NESTFIXTEST|52=20100506-14:10:07.134|56=QUANTIN|10=126|
8=FIX.4.2|9=62|35=5|34=19|49=NESTFIXTEST|52=20100506-14:10:23.930|56=QUANTIN|10=134|
8=FIX.4.2|9=62|35=5|34=17|49=QUANTIN|52=20100506-14:10:23.930|56=NESTFIXTEST|10=132|
8=FIX.4.2|9=74|35=A|34=18|49=QUANTIN|52=20100506-14:14:08.393|56=NESTFIXTEST|98=0|108=60|10=186|
8=FIX.4.2|9=74|35=A|34=20|49=NESTFIXTEST|52=20100506-14:14:08.393|56=QUANTIN|98=0|108=60|10=179|
8=FIX.4.2|9=141|35=D|34=19|49=QUANTIN|52=20100506-14:14:25.268|56=NESTFIXTEST|11=IAA0003|21=1|38=200|40=2|44=25|54=1|55=VALE5.SA|60=20100506-11:14:25|9304=N|10=229|
8=FIX.4.2|9=199|35=8|34=21|49=NESTFIXTEST|52=20100506-14:14:30.642|56=QUANTIN|6=25|11=IAA0003|14=100|17=0|20=0|31=25|32=100|37=NF000005|38=200|39=1|40=2|44=25|54=1|55=VALE5.SA|60=20100506-11:14:30.642|150=1|151=100|10=008|
8=FIX.4.2|9=71|35=1|34=20|49=QUANTIN|52=20100506-14:16:15.827|56=NESTFIXTEST|112=TEST|10=152|
8=FIX.4.2|9=62|35=0|34=22|49=NESTFIXTEST|52=20100506-14:15:30.688|56=QUANTIN|10=136|
8=FIX.4.2|9=71|35=1|34=23|49=NESTFIXTEST|52=20100506-14:15:37.688|56=QUANTIN|112=TEST|10=163|
8=FIX.4.2|9=71|35=0|34=21|49=QUANTIN|52=20100506-14:16:23.593|56=NESTFIXTEST|112=TEST|10=151|
8=FIX.4.2|9=71|35=0|34=24|49=NESTFIXTEST|52=20100506-14:16:18.405|56=QUANTIN|112=TEST|10=150|
8=FIX.4.2|9=62|35=0|34=25|49=NESTFIXTEST|52=20100506-14:17:18.779|56=QUANTIN|10=148|
8=FIX.4.2|9=62|35=0|34=22|49=QUANTIN|52=20100506-14:17:25.857|56=NESTFIXTEST|10=140|
8=FIX.4.2|9=141|35=D|34=23|49=QUANTIN|52=20100506-14:17:50.137|56=NESTFIXTEST|11=IAA0004|21=1|38=200|40=2|44=25|54=1|55=PETR4.SA|60=20100506-11:17:50|9304=N|10=240|
8=FIX.4.2|9=199|35=8|34=26|49=NESTFIXTEST|52=20100506-14:17:52.669|56=QUANTIN|6=25|11=IAA0004|14=100|17=0|20=0|31=25|32=100|37=NF000007|38=200|39=1|40=2|44=25|54=1|55=PETR4.SA|60=20100506-11:17:52.669|150=1|151=100|10=066|
8=FIX.4.2|9=71|35=1|34=24|49=QUANTIN|52=20100506-14:20:10.290|56=NESTFIXTEST|112=TEST|10=140|
8=FIX.4.2|9=62|35=0|34=27|49=NESTFIXTEST|52=20100506-14:18:52.698|56=QUANTIN|10=149|
8=FIX.4.2|9=71|35=1|34=28|49=NESTFIXTEST|52=20100506-14:19:02.714|56=QUANTIN|112=TEST|10=154|
8=FIX.4.2|9=71|35=0|34=25|49=QUANTIN|52=20100506-14:20:10.290|56=NESTFIXTEST|112=TEST|10=140|
8=FIX.4.2|9=71|35=0|34=29|49=NESTFIXTEST|52=20100506-14:20:10.290|56=QUANTIN|112=TEST|10=144|
8=FIX.4.2|9=74|35=A|34=26|49=QUANTIN|52=20100506-14:23:45.159|56=NESTFIXTEST|98=0|108=60|10=186|
8=FIX.4.2|9=74|35=A|34=30|49=NESTFIXTEST|52=20100506-14:23:45.206|56=QUANTIN|98=0|108=60|10=174|
8=FIX.4.2|9=141|35=D|34=27|49=QUANTIN|52=20100506-14:24:27.283|56=NESTFIXTEST|11=IAA0001|21=1|38=200|40=2|44=25|54=1|55=PETR4.SA|60=20100506-11:24:27|9304=N|10=247|
8=FIX.4.2|9=199|35=8|34=31|49=NESTFIXTEST|52=20100506-14:24:28.533|56=QUANTIN|6=25|11=IAA0001|14=100|17=0|20=0|31=25|32=100|37=NF000009|38=200|39=1|40=2|44=25|54=1|55=PETR4.SA|60=20100506-11:24:28.533|150=1|151=100|10=043|
8=FIX.4.2|9=62|35=0|34=28|49=QUANTIN|52=20100506-14:25:27.188|56=NESTFIXTEST|10=144|
8=FIX.4.2|9=62|35=0|34=32|49=NESTFIXTEST|52=20100506-14:25:28.563|56=QUANTIN|10=137|
8=FIX.4.2|9=74|35=A|34=29|49=QUANTIN|52=20100506-14:36:23.843|56=NESTFIXTEST|98=0|108=60|10=189|
8=FIX.4.2|9=74|35=A|34=33|49=NESTFIXTEST|52=20100506-14:36:23.906|56=QUANTIN|98=0|108=60|10=184|
8=FIX.4.2|9=74|35=A|34=31|49=QUANTIN|52=20100506-14:38:24.918|56=NESTFIXTEST|98=0|108=60|10=188|
8=FIX.4.2|9=74|35=A|34=34|49=NESTFIXTEST|52=20100506-14:38:24.918|56=QUANTIN|98=0|108=60|10=191|
8=FIX.4.2|9=72|35=2|34=35|49=NESTFIXTEST|52=20100506-14:38:24.918|56=QUANTIN|7=30|16=0|10=064|
8=FIX.4.2|9=166|35=D|34=30|43=Y|49=QUANTIN|52=20100506-14:38:24.934|56=NESTFIXTEST|122=20100506-14:38:10.012|11=IAA0002|21=1|38=500|40=1|54=1|55=PETR4.SA|60=20100506-11:38:09|9304=N|10=234|
8=FIX.4.2|9=105|35=4|34=31|43=Y|49=QUANTIN|52=20100506-14:38:24.934|56=NESTFIXTEST|122=20100506-14:38:24.934|36=32|123=Y|10=249|
8=FIX.4.2|9=62|35=0|34=36|49=NESTFIXTEST|52=20100506-14:39:24.917|56=QUANTIN|10=145|
8=FIX.4.2|9=62|35=0|34=32|49=QUANTIN|52=20100506-14:39:24.932|56=NESTFIXTEST|10=138|
8=FIX.4.2|9=62|35=0|34=33|49=QUANTIN|52=20100506-14:40:24.993|56=NESTFIXTEST|10=138|
8=FIX.4.2|9=62|35=0|34=37|49=NESTFIXTEST|52=20100506-14:40:26.618|56=QUANTIN|10=138|
8=FIX.4.2|9=62|35=0|34=34|49=QUANTIN|52=20100506-14:41:24.039|56=NESTFIXTEST|10=131|
8=FIX.4.2|9=62|35=0|34=38|49=NESTFIXTEST|52=20100506-14:41:29.726|56=QUANTIN|10=143|
8=FIX.4.2|9=62|35=0|34=35|49=QUANTIN|52=20100506-14:42:24.068|56=NESTFIXTEST|10=135|
8=FIX.4.2|9=71|35=1|34=36|49=QUANTIN|52=20100506-14:42:41.084|56=NESTFIXTEST|112=TEST|10=152|
8=FIX.4.2|9=71|35=1|34=39|49=NESTFIXTEST|52=20100506-14:42:49.036|56=QUANTIN|112=TEST|10=160|
8=FIX.4.2|9=71|35=0|34=37|49=QUANTIN|52=20100506-14:42:52.349|56=NESTFIXTEST|112=TEST|10=158|
8=FIX.4.2|9=71|35=0|34=40|49=NESTFIXTEST|52=20100506-14:43:17.286|56=QUANTIN|112=TEST|10=154|
8=FIX.4.2|9=62|35=0|34=38|49=QUANTIN|52=20100506-14:43:52.129|56=NESTFIXTEST|10=138|
8=FIX.4.2|9=62|35=0|34=41|49=NESTFIXTEST|52=20100506-14:44:17.206|56=QUANTIN|10=130|
8=FIX.4.2|9=62|35=0|34=39|49=QUANTIN|52=20100506-14:44:52.158|56=NESTFIXTEST|10=142|
8=FIX.4.2|9=71|35=1|34=40|49=QUANTIN|52=20100506-14:45:32.189|56=NESTFIXTEST|112=TEST|10=156|
8=FIX.4.2|9=74|35=A|34=41|49=QUANTIN|52=20100506-14:46:54.233|56=NESTFIXTEST|98=0|108=60|10=181|
8=FIX.4.2|9=74|35=A|34=42|49=QUANTIN|52=20100506-14:47:24.264|56=NESTFIXTEST|98=0|108=60|10=184|
8=FIX.4.2|9=74|35=A|34=43|49=QUANTIN|52=20100506-14:48:06.685|56=NESTFIXTEST|98=0|108=60|10=193|
8=FIX.4.2|9=74|35=A|34=44|49=NESTFIXTEST|52=20100506-14:48:06.747|56=QUANTIN|98=0|108=60|10=193|
8=FIX.4.2|9=72|35=2|34=44|49=QUANTIN|52=20100506-14:48:06.763|56=NESTFIXTEST|7=42|16=0|10=066|
8=FIX.4.2|9=72|35=2|34=45|49=NESTFIXTEST|52=20100506-14:48:06.747|56=QUANTIN|7=39|16=0|10=075|
8=FIX.4.2|9=105|35=4|34=39|43=Y|49=QUANTIN|52=20100506-14:48:06.778|56=NESTFIXTEST|122=20100506-14:48:06.778|36=45|123=Y|10=019|
8=FIX.4.2|9=105|35=4|34=42|43=Y|49=NESTFIXTEST|52=20100506-14:48:06.763|56=QUANTIN|122=20100506-14:48:06.763|36=46|123=Y|10=002|
8=FIX.4.2|9=135|35=D|34=45|49=QUANTIN|52=20100506-14:48:15.262|56=NESTFIXTEST|11=IAA0003|21=1|38=500|40=1|54=1|55=PETR4.SA|60=20100506-11:48:15|9304=N|10=244|
8=FIX.4.2|9=62|35=0|34=46|49=QUANTIN|52=20100506-14:49:15.698|56=NESTFIXTEST|10=153|
8=FIX.4.2|9=71|35=1|34=47|49=QUANTIN|52=20100506-14:49:18.698|56=NESTFIXTEST|112=TEST|10=176|
8=FIX.4.2|9=74|35=A|34=48|49=QUANTIN|52=20100506-17:13:31.333|56=NESTFIXTEST|98=0|108=60|10=181|
8=FIX.4.2|9=74|35=A|34=46|49=NESTFIXTEST|52=20100506-17:13:31.380|56=QUANTIN|98=0|108=60|10=181|
8=FIX.4.2|9=72|35=2|34=47|49=NESTFIXTEST|52=20100506-17:13:31.380|56=QUANTIN|7=46|16=0|10=061|
8=FIX.4.2|9=105|35=4|34=46|43=Y|49=QUANTIN|52=20100506-17:13:31.395|56=NESTFIXTEST|122=20100506-17:13:31.395|36=49|123=Y|10=253|
8=FIX.4.2|9=135|35=D|34=49|49=QUANTIN|52=20100506-17:14:13.097|56=NESTFIXTEST|11=IAA0004|21=1|38=200|40=1|54=1|55=PETR4.SA|60=20100506-14:14:13|9304=N|10=240|
8=FIX.4.2|9=197|35=8|34=48|49=NESTFIXTEST|52=20100506-17:14:21.237|56=QUANTIN|6=66.6|11=IAA0004|14=100|17=0|20=0|31=66.6|32=100|37=NF000015|38=200|39=1|40=1|54=1|55=PETR4.SA|60=20100506-14:14:21.237|150=1|151=100|10=237|
8=FIX.4.2|9=62|35=0|34=50|49=QUANTIN|52=20100506-17:15:13.438|56=NESTFIXTEST|10=134|
8=FIX.4.2|9=62|35=0|34=49|49=NESTFIXTEST|52=20100506-17:15:21.282|56=QUANTIN|10=138|
8=FIX.4.2|9=135|35=D|34=51|49=QUANTIN|52=20100506-17:15:50.374|56=NESTFIXTEST|11=IAA0005|21=1|38=200|40=1|54=2|55=PETR4.SA|60=20100506-14:15:50|9304=N|10=237|
8=FIX.4.2|9=71|35=1|34=52|49=QUANTIN|52=20100506-17:16:33.560|56=NESTFIXTEST|112=TEST|10=154|
8=FIX.4.2|9=71|35=1|34=50|49=NESTFIXTEST|52=20100506-17:17:04.278|56=QUANTIN|112=TEST|10=157|
8=FIX.4.2|9=71|35=0|34=53|49=QUANTIN|52=20100506-17:17:06.575|56=NESTFIXTEST|112=TEST|10=161|
8=FIX.4.2|9=71|35=0|34=51|49=NESTFIXTEST|52=20100506-17:17:14.934|56=QUANTIN|112=TEST|10=157|
8=FIX.4.2|9=62|35=0|34=54|49=QUANTIN|52=20100506-17:18:06.666|56=NESTFIXTEST|10=146|
8=FIX.4.2|9=71|35=1|34=55|49=QUANTIN|52=20100506-17:18:28.697|56=NESTFIXTEST|112=TEST|10=174|
8=FIX.4.2|9=71|35=1|34=52|49=NESTFIXTEST|52=20100506-17:19:22.991|56=QUANTIN|112=TEST|10=163|
8=FIX.4.2|9=71|35=0|34=56|49=QUANTIN|52=20100506-17:19:22.991|56=NESTFIXTEST|112=TEST|10=166|
8=FIX.4.2|9=71|35=0|34=53|49=NESTFIXTEST|52=20100506-17:19:38.194|56=QUANTIN|112=TEST|10=165|
8=FIX.4.2|9=62|35=0|34=57|49=QUANTIN|52=20100506-17:20:22.817|56=NESTFIXTEST|10=138|
8=FIX.4.2|9=71|35=1|34=58|49=QUANTIN|52=20100506-17:20:50.847|56=NESTFIXTEST|112=TEST|10=162|
8=FIX.4.2|9=71|35=1|34=54|49=NESTFIXTEST|52=20100506-17:21:01.566|56=QUANTIN|112=TEST|10=153|
8=FIX.4.2|9=71|35=0|34=59|49=QUANTIN|52=20100506-17:21:02.738|56=NESTFIXTEST|112=TEST|10=159|
8=FIX.4.2|9=71|35=0|34=55|49=NESTFIXTEST|52=20100506-17:21:04.128|56=QUANTIN|112=TEST|10=150|
8=FIX.4.2|9=62|35=0|34=60|49=QUANTIN|52=20100506-17:22:02.938|56=NESTFIXTEST|10=136|
8=FIX.4.2|9=62|35=0|34=56|49=NESTFIXTEST|52=20100506-17:22:04.673|56=QUANTIN|10=139|
8=FIX.4.2|9=62|35=0|34=61|49=QUANTIN|52=20100506-17:23:02.983|56=NESTFIXTEST|10=138|
8=FIX.4.2|9=71|35=1|34=62|49=QUANTIN|52=20100506-17:23:17.014|56=NESTFIXTEST|112=TEST|10=149|
8=FIX.4.2|9=74|35=A|34=63|49=QUANTIN|52=20100506-17:24:32.073|56=NESTFIXTEST|98=0|108=60|10=182|
8=FIX.4.2|9=74|35=A|34=64|49=QUANTIN|52=20100506-17:25:02.103|56=NESTFIXTEST|98=0|108=60|10=175|
8=FIX.4.2|9=74|35=A|34=65|49=QUANTIN|52=20100506-17:25:32.133|56=NESTFIXTEST|98=0|108=60|10=182|
8=FIX.4.2|9=74|35=A|34=59|49=NESTFIXTEST|52=20100506-17:25:45.164|56=QUANTIN|98=0|108=60|10=193|
8=FIX.4.2|9=72|35=2|34=66|49=QUANTIN|52=20100506-17:25:45.164|56=NESTFIXTEST|7=57|16=0|10=072|
8=FIX.4.2|9=62|35=0|34=67|49=QUANTIN|52=20100506-17:26:45.193|56=NESTFIXTEST|10=147|
8=FIX.4.2|9=71|35=1|34=68|49=QUANTIN|52=20100506-17:26:57.208|56=NESTFIXTEST|112=TEST|10=167|
8=FIX.4.2|9=72|35=2|34=60|49=NESTFIXTEST|52=20100506-17:26:00.460|56=QUANTIN|7=61|16=0|10=052|
8=FIX.4.2|9=105|35=4|34=61|43=Y|49=QUANTIN|52=20100506-17:28:02.425|56=NESTFIXTEST|122=20100506-17:28:02.425|36=69|123=Y|10=248|
8=FIX.4.2|9=71|35=1|34=61|49=NESTFIXTEST|52=20100506-17:28:03.143|56=QUANTIN|112=TEST|10=151|
8=FIX.4.2|9=105|35=4|34=57|43=Y|49=NESTFIXTEST|52=20100506-17:28:05.065|56=QUANTIN|122=20100506-17:28:05.065|36=62|123=Y|10=252|
8=FIX.4.2|9=62|35=0|34=69|49=QUANTIN|52=20100506-17:29:02.328|56=NESTFIXTEST|10=145|
8=FIX.4.2|9=62|35=0|34=62|49=NESTFIXTEST|52=20100506-17:29:05.235|56=QUANTIN|10=138|
8=FIX.4.2|9=62|35=0|34=70|49=QUANTIN|52=20100506-17:30:02.404|56=NESTFIXTEST|10=124|
8=FIX.4.2|9=62|35=0|34=63|49=NESTFIXTEST|52=20100506-17:30:05.154|56=QUANTIN|10=131|
8=FIX.4.2|9=62|35=0|34=71|49=QUANTIN|52=20100506-17:31:02.464|56=NESTFIXTEST|10=132|
8=FIX.4.2|9=62|35=0|34=64|49=NESTFIXTEST|52=20100506-17:31:05.214|56=QUANTIN|10=130|
8=FIX.4.2|9=62|35=0|34=72|49=QUANTIN|52=20100506-17:32:02.509|56=NESTFIXTEST|10=134|
8=FIX.4.2|9=62|35=0|34=65|49=NESTFIXTEST|52=20100506-17:32:05.259|56=QUANTIN|10=141|
8=FIX.4.2|9=62|35=0|34=73|49=QUANTIN|52=20100506-17:33:02.569|56=NESTFIXTEST|10=142|
8=FIX.4.2|9=62|35=0|34=66|49=NESTFIXTEST|52=20100506-17:33:05.319|56=QUANTIN|10=140|
8=FIX.4.2|9=62|35=0|34=74|49=QUANTIN|52=20100506-17:34:02.629|56=NESTFIXTEST|10=141|
8=FIX.4.2|9=62|35=0|34=67|49=NESTFIXTEST|52=20100506-17:34:05.379|56=QUANTIN|10=148|
8=FIX.4.2|9=62|35=0|34=75|49=QUANTIN|52=20100506-17:35:02.705|56=NESTFIXTEST|10=138|
8=FIX.4.2|9=62|35=0|34=68|49=NESTFIXTEST|52=20100506-17:35:05.440|56=QUANTIN|10=139|
8=FIX.4.2|9=74|35=A|34=76|49=QUANTIN|52=20100506-21:30:00.394|56=NESTFIXTEST|98=0|108=60|10=179|
8=FIX.4.2|9=74|35=A|34=69|49=NESTFIXTEST|52=20100506-21:30:00.441|56=QUANTIN|98=0|108=60|10=174|
8=FIX.4.2|9=135|35=D|34=77|49=QUANTIN|52=20100506-21:30:09.784|56=NESTFIXTEST|11=IAA0006|21=1|38=500|40=1|54=1|55=PETR4.SA|60=20100506-18:30:09|9304=N|10=254|
8=FIX.4.2|9=197|35=8|34=70|49=NESTFIXTEST|52=20100506-21:30:15.877|56=QUANTIN|6=66.6|11=IAA0006|14=250|17=0|20=0|31=66.6|32=250|37=NF000019|38=500|39=1|40=1|54=1|55=PETR4.SA|60=20100506-18:30:15.877|150=1|151=250|10=024|
8=FIX.4.2|9=135|35=D|34=78|49=QUANTIN|52=20100506-21:30:26.641|56=NESTFIXTEST|11=IAA0007|21=1|38=500|40=1|54=2|55=PETR4.SA|60=20100506-18:30:26|9304=N|10=247|
8=FIX.4.2|9=62|35=0|34=71|49=NESTFIXTEST|52=20100506-21:31:15.809|56=QUANTIN|10=134|
8=FIX.4.2|9=62|35=0|34=79|49=QUANTIN|52=20100506-21:31:26.573|56=NESTFIXTEST|10=142|
8=FIX.4.2|9=62|35=0|34=72|49=NESTFIXTEST|52=20100506-21:32:15.959|56=QUANTIN|10=142|
8=FIX.4.2|9=74|35=A|34=80|49=QUANTIN|52=20100506-21:33:30.843|56=NESTFIXTEST|98=0|108=60|10=179|
8=FIX.4.2|9=74|35=A|34=73|49=NESTFIXTEST|52=20100506-21:33:30.889|56=QUANTIN|98=0|108=60|10=191|
8=FIX.4.2|9=135|35=D|34=81|49=QUANTIN|52=20100506-21:33:45.622|56=NESTFIXTEST|11=IAA0008|21=1|38=500|40=1|54=1|55=PETR4.SA|60=20100506-18:33:45|9304=N|10=248|
8=FIX.4.2|9=197|35=8|34=74|49=NESTFIXTEST|52=20100506-21:33:59.605|56=QUANTIN|6=66.6|11=IAA0008|14=250|17=0|20=0|31=66.6|32=250|37=NF000023|38=500|39=1|40=1|54=1|55=PETR4.SA|60=20100506-18:33:59.605|150=1|151=250|10=025|
8=FIX.4.2|9=135|35=D|34=82|49=QUANTIN|52=20100506-21:34:05.495|56=NESTFIXTEST|11=IAA0009|21=1|38=500|40=1|54=2|55=PETR4.SA|60=20100506-18:34:05|9304=N|10=253|
8=FIX.4.2|9=62|35=0|34=75|49=NESTFIXTEST|52=20100506-21:35:01.334|56=QUANTIN|10=130|
8=FIX.4.2|9=62|35=0|34=83|49=QUANTIN|52=20100506-21:35:05.052|56=NESTFIXTEST|10=130|
8=FIX.4.2|9=62|35=0|34=76|49=NESTFIXTEST|52=20100506-21:36:02.906|56=QUANTIN|10=138|
8=FIX.4.2|9=62|35=0|34=84|49=QUANTIN|52=20100506-21:36:05.187|56=NESTFIXTEST|10=141|
8=FIX.4.2|9=62|35=0|34=77|49=NESTFIXTEST|52=20100506-21:37:04.338|56=QUANTIN|10=141|
8=FIX.4.2|9=62|35=0|34=85|49=QUANTIN|52=20100506-21:37:05.197|56=NESTFIXTEST|10=144|
8=FIX.4.2|9=62|35=0|34=86|49=QUANTIN|52=20100506-21:38:05.457|56=NESTFIXTEST|10=145|
8=FIX.4.2|9=62|35=0|34=78|49=NESTFIXTEST|52=20100506-21:38:06.097|56=QUANTIN|10=147|
8=FIX.4.2|9=62|35=0|34=87|49=QUANTIN|52=20100506-21:39:05.623|56=NESTFIXTEST|10=142|
8=FIX.4.2|9=62|35=0|34=79|49=NESTFIXTEST|52=20100506-21:39:06.217|56=QUANTIN|10=143|
8=FIX.4.2|9=62|35=0|34=88|49=QUANTIN|52=20100506-21:40:05.758|56=NESTFIXTEST|10=144|
8=FIX.4.2|9=62|35=0|34=80|49=NESTFIXTEST|52=20100506-21:40:06.008|56=QUANTIN|10=125|
8=FIX.4.2|9=62|35=0|34=89|49=QUANTIN|52=20100506-21:41:05.908|56=NESTFIXTEST|10=143|
8=FIX.4.2|9=62|35=0|34=81|49=NESTFIXTEST|52=20100506-21:41:07.596|56=QUANTIN|10=140|
8=FIX.4.2|9=62|35=0|34=90|49=QUANTIN|52=20100506-21:42:05.043|56=NESTFIXTEST|10=126|
8=FIX.4.2|9=62|35=0|34=82|49=NESTFIXTEST|52=20100506-21:42:09.543|56=QUANTIN|10=136|
8=FIX.4.2|9=62|35=0|34=91|49=QUANTIN|52=20100506-21:43:05.209|56=NESTFIXTEST|10=132|
8=FIX.4.2|9=62|35=0|34=83|49=NESTFIXTEST|52=20100506-21:43:16.396|56=QUANTIN|10=142|
8=FIX.4.2|9=62|35=0|34=92|49=QUANTIN|52=20100506-21:44:05.344|56=NESTFIXTEST|10=134|
8=FIX.4.2|9=62|35=0|34=84|49=NESTFIXTEST|52=20100506-21:44:19.046|56=QUANTIN|10=139|
8=FIX.4.2|9=199|35=8|34=85|49=NESTFIXTEST|52=20100506-21:44:42.419|56=QUANTIN|6=29.81|11=IAA0009|14=250|17=0|20=0|31=29.81|32=250|37=NF000025|38=500|39=1|40=1|54=2|55=PETR4.SA|60=20100506-18:44:38.513|150=1|151=250|10=127|
8=FIX.4.2|9=62|35=0|34=93|49=QUANTIN|52=20100506-21:45:05.510|56=NESTFIXTEST|10=131|
8=FIX.4.2|9=198|35=8|34=86|49=NESTFIXTEST|52=20100506-21:45:22.634|56=QUANTIN|6=48.205|11=IAA0008|14=500|17=0|20=0|31=29.81|32=250|37=NF000023|38=500|39=2|40=1|54=1|55=PETR4.SA|60=20100506-18:45:22.634|150=2|151=0|10=063|
8=FIX.4.2|9=62|35=0|34=94|49=QUANTIN|52=20100506-21:46:05.645|56=NESTFIXTEST|10=142|
8=FIX.4.2|9=62|35=0|34=87|49=NESTFIXTEST|52=20100506-21:46:24.096|56=QUANTIN|10=145|
8=FIX.4.2|9=62|35=0|34=95|49=QUANTIN|52=20100506-21:47:05.780|56=NESTFIXTEST|10=144|
8=FIX.4.2|9=74|35=A|34=96|49=QUANTIN|52=20100506-21:49:13.689|56=NESTFIXTEST|98=0|108=60|10=202|
8=FIX.4.2|9=74|35=A|34=88|49=NESTFIXTEST|52=20100506-21:49:13.736|56=QUANTIN|98=0|108=60|10=196|
8=FIX.4.2|9=135|35=D|34=97|49=QUANTIN|52=20100506-21:49:20.392|56=NESTFIXTEST|11=IAA0010|21=1|38=500|40=1|54=1|55=PETR4.SA|60=20100506-18:49:20|9304=N|10=252|
8=FIX.4.2|9=197|35=8|34=89|49=NESTFIXTEST|52=20100506-21:49:35.344|56=QUANTIN|6=66.6|11=IAA0010|14=250|17=0|20=0|31=66.6|32=250|37=NF000028|38=500|39=1|40=1|54=1|55=PETR4.SA|60=20100506-18:49:35.344|150=1|151=250|10=031|
8=FIX.4.2|9=135|35=D|34=98|49=QUANTIN|52=20100506-21:49:45.765|56=NESTFIXTEST|11=IAA0011|21=1|38=500|40=1|54=2|55=PETR4.SA|60=20100506-18:49:45|9304=N|10=017|
8=FIX.4.2|9=197|35=8|34=90|49=NESTFIXTEST|52=20100506-21:50:23.948|56=QUANTIN|6=29.81|11=IAA0011|14=500|17=0|20=0|31=29.81|32=500|37=NF000030|38=500|39=2|40=1|54=2|55=PETR4.SA|60=20100506-18:50:23.948|150=2|151=0|10=011|
8=FIX.4.2|9=208|35=8|34=91|49=NESTFIXTEST|52=20100506-21:50:23.964|56=QUANTIN|6=42.0733333333333|11=IAA0010|14=750|17=0|20=0|31=29.81|32=500|37=NF000028|38=500|39=1|40=1|54=1|55=PETR4.SA|60=20100506-18:50:23.964|150=1|151=0|10=053|
8=FIX.4.2|9=62|35=0|34=99|49=QUANTIN|52=20100506-21:50:45.899|56=NESTFIXTEST|10=157|
8=FIX.4.2|9=75|35=A|34=100|49=QUANTIN|52=20100506-21:59:29.334|56=NESTFIXTEST|98=0|108=60|10=232|
8=FIX.4.2|9=74|35=A|34=92|49=NESTFIXTEST|52=20100506-21:59:29.380|56=QUANTIN|98=0|108=60|10=194|
8=FIX.4.2|9=136|35=D|34=101|49=QUANTIN|52=20100506-21:59:36.927|56=NESTFIXTEST|11=IAA0012|21=1|38=500|40=1|54=1|55=PETR4.SA|60=20100506-18:59:36|9304=N|10=053|
8=FIX.4.2|9=197|35=8|34=93|49=NESTFIXTEST|52=20100506-21:59:45.535|56=QUANTIN|6=66.6|11=IAA0012|14=250|17=0|20=0|31=66.6|32=250|37=NF000032|38=500|39=1|40=1|54=1|55=PETR4.SA|60=20100506-18:59:45.535|150=1|151=250|10=031|
8=FIX.4.2|9=136|35=D|34=102|49=QUANTIN|52=20100506-22:00:02.627|56=NESTFIXTEST|11=IAA0013|21=1|38=500|40=1|54=2|55=PETR4.SA|60=20100506-19:00:02|9304=N|10=013|
8=FIX.4.2|9=197|35=8|34=94|49=NESTFIXTEST|52=20100506-22:00:15.923|56=QUANTIN|6=29.81|11=IAA0013|14=500|17=0|20=0|31=29.81|32=500|37=NF000034|38=500|39=2|40=1|54=2|55=PETR4.SA|60=20100506-19:00:15.923|150=2|151=0|10=001|
8=FIX.4.2|9=208|35=8|34=95|49=NESTFIXTEST|52=20100506-22:00:15.923|56=QUANTIN|6=42.0733333333333|11=IAA0012|14=750|17=0|20=0|31=29.81|32=500|37=NF000032|38=500|39=1|40=1|54=1|55=PETR4.SA|60=20100506-19:00:15.923|150=1|151=0|10=038|
8=FIX.4.2|9=75|35=A|34=103|49=QUANTIN|52=20100506-22:01:13.948|56=NESTFIXTEST|98=0|108=60|10=227|
8=FIX.4.2|9=74|35=A|34=96|49=NESTFIXTEST|52=20100506-22:01:13.995|56=QUANTIN|98=0|108=60|10=191|
8=FIX.4.2|9=136|35=D|34=104|49=QUANTIN|52=20100506-22:01:18.651|56=NESTFIXTEST|11=IAA0014|21=1|38=500|40=1|54=1|55=PETR4.SA|60=20100506-19:01:18|9304=N|10=028|
8=FIX.4.2|9=197|35=8|34=97|49=NESTFIXTEST|52=20100506-22:01:22.276|56=QUANTIN|6=66.6|11=IAA0014|14=250|17=0|20=0|31=66.6|32=250|37=NF000036|38=500|39=1|40=1|54=1|55=PETR4.SA|60=20100506-19:01:22.276|150=1|151=250|10=011|
8=FIX.4.2|9=136|35=D|34=105|49=QUANTIN|52=20100506-22:01:30.103|56=NESTFIXTEST|11=IAA0015|21=1|38=500|40=1|54=2|55=PETR4.SA|60=20100506-19:01:30|9304=N|10=011|
8=FIX.4.2|9=197|35=8|34=98|49=NESTFIXTEST|52=20100506-22:01:36.274|56=QUANTIN|6=29.81|11=IAA0015|14=500|17=0|20=0|31=29.81|32=500|37=NF000038|38=500|39=2|40=1|54=2|55=PETR4.SA|60=20100506-19:01:36.274|150=2|151=0|10=017|
8=FIX.4.2|9=208|35=8|34=99|49=NESTFIXTEST|52=20100506-22:01:36.290|56=QUANTIN|6=42.0733333333333|11=IAA0014|14=750|17=0|20=0|31=29.81|32=500|37=NF000036|38=500|39=1|40=1|54=1|55=PETR4.SA|60=20100506-19:01:36.290|150=1|151=0|10=050|
8=FIX.4.2|9=75|35=A|34=106|49=QUANTIN|52=20100506-22:02:23.957|56=NESTFIXTEST|98=0|108=60|10=232|
8=FIX.4.2|9=75|35=A|34=100|49=NESTFIXTEST|52=20100506-22:02:24.004|56=QUANTIN|98=0|108=60|10=210|
8=FIX.4.2|9=136|35=D|34=107|49=QUANTIN|52=20100506-22:02:29.144|56=NESTFIXTEST|11=IAA0016|21=1|38=500|40=1|54=1|55=PETR4.SA|60=20100506-19:02:29|9304=N|10=036|
8=FIX.4.2|9=198|35=8|34=101|49=NESTFIXTEST|52=20100506-22:02:34.722|56=QUANTIN|6=66.6|11=IAA0016|14=250|17=0|20=0|31=66.6|32=250|37=NF000040|38=500|39=1|40=1|54=1|55=PETR4.SA|60=20100506-19:02:34.722|150=1|151=250|10=043|
8=FIX.4.2|9=136|35=D|34=108|49=QUANTIN|52=20100506-22:02:39.018|56=NESTFIXTEST|11=IAA0017|21=1|38=500|40=1|54=2|55=PETR4.SA|60=20100506-19:02:39|9304=N|10=041|
8=FIX.4.2|9=63|35=0|34=102|49=NESTFIXTEST|52=20100506-22:03:35.935|56=QUANTIN|10=180|
8=FIX.4.2|9=63|35=0|34=109|49=QUANTIN|52=20100506-22:03:39.138|56=NESTFIXTEST|10=186|
8=FIX.4.2|9=63|35=0|34=110|49=QUANTIN|52=20100506-22:04:39.273|56=NESTFIXTEST|10=179|
8=FIX.4.2|9=63|35=0|34=103|49=NESTFIXTEST|52=20100506-22:04:41.772|56=QUANTIN|10=178|
8=FIX.4.2|9=63|35=0|34=111|49=QUANTIN|52=20100506-22:05:39.423|56=NESTFIXTEST|10=178|
8=FIX.4.2|9=72|35=1|34=112|49=QUANTIN|52=20100506-22:05:53.437|56=NESTFIXTEST|112=TEST|10=199|
8=FIX.4.2|9=72|35=1|34=104|49=NESTFIXTEST|52=20100506-22:06:04.186|56=QUANTIN|112=TEST|10=198|
8=FIX.4.2|9=72|35=0|34=113|49=QUANTIN|52=20100506-22:06:04.202|56=NESTFIXTEST|112=TEST|10=186|
8=FIX.4.2|9=198|35=8|34=105|49=NESTFIXTEST|52=20100506-22:06:04.202|56=QUANTIN|6=29.81|11=IAA0017|14=500|17=0|20=0|31=29.81|32=500|37=NF000042|38=500|39=2|40=1|54=2|55=PETR4.SA|60=20100506-19:06:04.202|150=2|151=0|10=034|
8=FIX.4.2|9=209|35=8|34=106|49=NESTFIXTEST|52=20100506-22:06:04.202|56=QUANTIN|6=42.0733333333333|11=IAA0016|14=750|17=0|20=0|31=29.81|32=500|37=NF000040|38=500|39=1|40=1|54=1|55=PETR4.SA|60=20100506-19:06:04.202|150=1|151=0|10=071|
8=FIX.4.2|9=72|35=0|34=107|49=NESTFIXTEST|52=20100506-22:06:04.217|56=QUANTIN|112=TEST|10=195|
8=FIX.4.2|9=63|35=5|34=108|49=NESTFIXTEST|52=20100506-22:06:16.216|56=QUANTIN|10=185|
8=FIX.4.2|9=63|35=5|34=114|49=QUANTIN|52=20100506-22:06:16.216|56=NESTFIXTEST|10=182|
8=FIX.4.2|9=75|35=A|34=115|49=QUANTIN|52=20100506-22:06:41.308|56=NESTFIXTEST|98=0|108=60|10=226|
8=FIX.4.2|9=75|35=A|34=109|49=NESTFIXTEST|52=20100506-22:06:41.355|56=QUANTIN|98=0|108=60|10=231|
8=FIX.4.2|9=136|35=D|34=116|49=QUANTIN|52=20100506-22:06:47.604|56=NESTFIXTEST|11=IAA0018|21=1|38=500|40=1|54=1|55=PETR4.SA|60=20100506-19:06:47|9304=N|10=047|
8=FIX.4.2|9=198|35=8|34=110|49=NESTFIXTEST|52=20100506-22:06:56.541|56=QUANTIN|6=66.6|11=IAA0018|14=250|17=0|20=0|31=66.6|32=250|37=NF000044|38=500|39=1|40=1|54=1|55=PETR4.SA|60=20100506-19:06:56.541|150=1|151=250|10=063|
8=FIX.4.2|9=136|35=D|34=117|49=QUANTIN|52=20100506-22:07:04.805|56=NESTFIXTEST|11=IAA0019|21=1|38=500|40=1|54=2|55=PETR4.SA|60=20100506-19:07:04|9304=N|10=041|
8=FIX.4.2|9=63|35=0|34=111|49=NESTFIXTEST|52=20100506-22:08:03.987|56=QUANTIN|10=187|
8=FIX.4.2|9=63|35=0|34=118|49=QUANTIN|52=20100506-22:08:04.003|56=NESTFIXTEST|10=174|
8=FIX.4.2|9=63|35=0|34=119|49=QUANTIN|52=20100506-22:09:04.638|56=NESTFIXTEST|10=190|
8=FIX.4.2|9=63|35=0|34=112|49=NESTFIXTEST|52=20100506-22:09:05.059|56=QUANTIN|10=181|
8=FIX.4.2|9=63|35=0|34=120|49=QUANTIN|52=20100506-22:10:04.773|56=NESTFIXTEST|10=174|
8=FIX.4.2|9=72|35=1|34=121|49=QUANTIN|52=20100506-22:10:18.818|56=NESTFIXTEST|112=TEST|10=199|
8=FIX.4.2|9=72|35=1|34=113|49=NESTFIXTEST|52=20100506-22:10:23.271|56=QUANTIN|112=TEST|10=189|
8=FIX.4.2|9=72|35=0|34=122|49=QUANTIN|52=20100506-22:10:23.271|56=NESTFIXTEST|112=TEST|10=188|
8=FIX.4.2|9=72|35=0|34=114|49=NESTFIXTEST|52=20100506-22:10:25.067|56=QUANTIN|112=TEST|10=194|
8=FIX.4.2|9=63|35=0|34=123|49=QUANTIN|52=20100506-22:11:23.984|56=NESTFIXTEST|10=183|
8=FIX.4.2|9=72|35=1|34=124|49=QUANTIN|52=20100506-22:11:37.014|56=NESTFIXTEST|112=TEST|10=192|
8=FIX.4.2|9=72|35=1|34=115|49=NESTFIXTEST|52=20100506-22:11:46.028|56=QUANTIN|112=TEST|10=197|
8=FIX.4.2|9=72|35=0|34=125|49=QUANTIN|52=20100506-22:11:46.044|56=NESTFIXTEST|112=TEST|10=195|
8=FIX.4.2|9=72|35=0|34=116|49=NESTFIXTEST|52=20100506-22:11:48.372|56=QUANTIN|112=TEST|10=201|
8=FIX.4.2|9=200|35=8|34=117|49=NESTFIXTEST|52=20100506-22:12:21.478|56=QUANTIN|6=29.81|11=IAA0019|14=250|17=0|20=0|31=29.81|32=250|37=NF000046|38=500|39=1|40=1|54=2|55=PETR4.SA|60=20100506-19:12:21.478|150=1|151=250|10=154|
8=FIX.4.2|9=199|35=8|34=118|49=NESTFIXTEST|52=20100506-22:12:27.556|56=QUANTIN|6=48.205|11=IAA0018|14=500|17=0|20=0|31=29.81|32=250|37=NF000044|38=500|39=2|40=1|54=1|55=PETR4.SA|60=20100506-19:12:27.556|150=2|151=0|10=118|
8=FIX.4.2|9=63|35=0|34=126|49=QUANTIN|52=20100506-22:12:46.179|56=NESTFIXTEST|10=188|
8=FIX.4.2|9=72|35=1|34=127|49=QUANTIN|52=20100506-22:13:39.299|56=NESTFIXTEST|112=TEST|10=214|
8=FIX.4.2|9=72|35=1|34=119|49=NESTFIXTEST|52=20100506-22:14:06.406|56=QUANTIN|112=TEST|10=200|
8=FIX.4.2|9=72|35=0|34=128|49=QUANTIN|52=20100506-22:14:06.406|56=NESTFIXTEST|112=TEST|10=199|
8=FIX.4.2|9=72|35=0|34=120|49=NESTFIXTEST|52=20100506-22:14:11.999|56=QUANTIN|112=TEST|10=204|
8=FIX.4.2|9=63|35=0|34=129|49=QUANTIN|52=20100506-22:15:06.494|56=NESTFIXTEST|10=190|
8=FIX.4.2|9=72|35=1|34=130|49=QUANTIN|52=20100506-22:15:24.539|56=NESTFIXTEST|112=TEST|10=201|
8=FIX.4.2|9=72|35=1|34=121|49=NESTFIXTEST|52=20100506-22:15:46.615|56=QUANTIN|112=TEST|10=200|
8=FIX.4.2|9=72|35=0|34=131|49=QUANTIN|52=20100506-22:15:46.615|56=NESTFIXTEST|112=TEST|10=200|
8=FIX.4.2|9=72|35=0|34=122|49=NESTFIXTEST|52=20100506-22:15:47.630|56=QUANTIN|112=TEST|10=198|
8=FIX.4.2|9=210|35=8|34=123|49=NESTFIXTEST|52=20100506-22:16:08.550|56=QUANTIN|6=42.0733333333333|11=IAA0019|14=375|17=0|20=0|31=66.6|32=125|37=NF000046|38=500|39=1|40=1|54=2|55=PETR4.SA|60=20100506-19:16:08.550|150=1|151=125|10=154|
8=FIX.4.2|9=63|35=0|34=132|49=QUANTIN|52=20100506-22:16:46.750|56=NESTFIXTEST|10=184|
8=FIX.4.2|9=63|35=0|34=124|49=NESTFIXTEST|52=20100506-22:17:08.154|56=QUANTIN|10=182|
8=FIX.4.2|9=63|35=0|34=133|49=QUANTIN|52=20100506-22:17:46.900|56=NESTFIXTEST|10=183|
8=FIX.4.2|9=63|35=0|34=125|49=NESTFIXTEST|52=20100506-22:18:08.289|56=QUANTIN|10=193|
8=FIX.4.2|9=63|35=0|34=134|49=QUANTIN|52=20100506-22:18:46.035|56=NESTFIXTEST|10=184|
8=FIX.4.2|9=63|35=0|34=126|49=NESTFIXTEST|52=20100506-22:19:08.423|56=QUANTIN|10=185|
8=FIX.4.2|9=63|35=0|34=135|49=QUANTIN|52=20100506-22:19:46.170|56=NESTFIXTEST|10=186|
8=FIX.4.2|9=63|35=0|34=127|49=NESTFIXTEST|52=20100506-22:20:08.574|56=QUANTIN|10=185|
8=FIX.4.2|9=136|35=D|34=136|49=QUANTIN|52=20100506-22:20:21.979|56=NESTFIXTEST|11=IAA0020|21=1|38=375|40=1|54=1|55=PETR4.SA|60=20100506-19:20:21|9304=N|10=043|
8=FIX.4.2|9=63|35=0|34=128|49=NESTFIXTEST|52=20100506-22:21:08.568|56=QUANTIN|10=190|
8=FIX.4.2|9=200|35=8|34=129|49=NESTFIXTEST|52=20100506-22:21:08.568|56=QUANTIN|6=29.81|11=IAA0020|14=250|17=0|20=0|31=29.81|32=250|37=NF000049|38=375|39=1|40=1|54=1|55=PETR4.SA|60=20100506-19:21:08.568|150=1|151=125|10=172|
8=FIX.4.2|9=199|35=8|34=130|49=NESTFIXTEST|52=20100506-22:21:08.584|56=QUANTIN|6=37.168|11=IAA0019|14=625|17=0|20=0|31=29.81|32=250|37=NF000046|38=500|39=1|40=1|54=2|55=PETR4.SA|60=20100506-19:21:08.584|150=1|151=0|10=128|
8=FIX.4.2|9=208|35=8|34=131|49=NESTFIXTEST|52=20100506-22:21:12.974|56=QUANTIN|6=37.1208333333333|11=IAA0020|14=312|17=0|20=0|31=66.6|32=62|37=NF000049|38=375|39=1|40=1|54=1|55=PETR4.SA|60=20100506-19:21:12.974|150=1|151=63|10=064|
8=FIX.4.2|9=63|35=0|34=137|49=QUANTIN|52=20100506-22:21:21.395|56=NESTFIXTEST|10=183|
8=FIX.4.2|9=75|35=A|34=138|49=QUANTIN|52=20100506-22:25:01.233|56=NESTFIXTEST|98=0|108=60|10=225|
8=FIX.4.2|9=75|35=A|34=132|49=NESTFIXTEST|52=20100506-22:25:01.265|56=QUANTIN|98=0|108=60|10=224|
8=FIX.4.2|9=136|35=D|34=139|49=QUANTIN|52=20100506-22:25:09.201|56=NESTFIXTEST|11=IAA0021|21=1|38=500|40=1|54=1|55=PETR4.SA|60=20100506-19:25:09|9304=N|10=037|
8=FIX.4.2|9=198|35=8|34=133|49=NESTFIXTEST|52=20100506-22:25:13.857|56=QUANTIN|6=66.6|11=IAA0021|14=250|17=0|20=0|31=66.6|32=250|37=NF000052|38=500|39=1|40=1|54=1|55=PETR4.SA|60=20100506-19:25:13.857|150=1|151=250|10=069|
8=FIX.4.2|9=136|35=D|34=140|49=QUANTIN|52=20100506-22:25:23.091|56=NESTFIXTEST|11=IAA0022|21=1|38=500|40=1|54=2|55=PETR4.SA|60=20100506-19:25:23|9304=N|10=030|
8=FIX.4.2|9=200|35=8|34=134|49=NESTFIXTEST|52=20100506-22:25:29.277|56=QUANTIN|6=29.81|11=IAA0022|14=250|17=0|20=0|31=29.81|32=250|37=NF000054|38=500|39=1|40=1|54=2|55=PETR4.SA|60=20100506-19:25:29.277|150=1|151=250|10=164|
8=FIX.4.2|9=199|35=8|34=135|49=NESTFIXTEST|52=20100506-22:25:29.277|56=QUANTIN|6=48.205|11=IAA0021|14=500|17=0|20=0|31=29.81|32=250|37=NF000052|38=500|39=2|40=1|54=1|55=PETR4.SA|60=20100506-19:25:29.277|150=2|151=0|10=122|
8=FIX.4.2|9=210|35=8|34=136|49=NESTFIXTEST|52=20100506-22:25:31.434|56=QUANTIN|6=42.0733333333333|11=IAA0022|14=375|17=0|20=0|31=66.6|32=125|37=NF000054|38=500|39=1|40=1|54=2|55=PETR4.SA|60=20100506-19:25:31.434|150=1|151=125|10=145|
8=FIX.4.2|9=136|35=D|34=141|49=QUANTIN|52=20100506-22:25:38.245|56=NESTFIXTEST|11=IAA0023|21=1|38=375|40=1|54=1|55=PETR4.SA|60=20100506-19:25:38|9304=N|10=054|
8=FIX.4.2|9=200|35=8|34=137|49=NESTFIXTEST|52=20100506-22:25:42.886|56=QUANTIN|6=29.81|11=IAA0023|14=125|17=0|20=0|31=29.81|32=125|37=NF000057|38=375|39=1|40=1|54=1|55=PETR4.SA|60=20100506-19:25:42.886|150=1|151=250|10=184|
8=FIX.4.2|9=200|35=8|34=138|49=NESTFIXTEST|52=20100506-22:25:42.886|56=QUANTIN|6=39.0075|11=IAA0022|14=500|17=0|20=0|31=29.81|32=125|37=NF000054|38=500|39=2|40=1|54=2|55=PETR4.SA|60=20100506-19:25:42.886|150=2|151=0|10=168|
8=FIX.4.2|9=200|35=8|34=139|49=NESTFIXTEST|52=20100506-22:25:45.182|56=QUANTIN|6=48.205|11=IAA0023|14=250|17=0|20=0|31=66.6|32=125|37=NF000057|38=375|39=1|40=1|54=1|55=PETR4.SA|60=20100506-19:25:45.182|150=1|151=125|10=167|
8=FIX.4.2|9=63|35=0|34=142|49=QUANTIN|52=20100506-22:26:38.443|56=NESTFIXTEST|10=186|
8=FIX.4.2|9=136|35=D|34=143|49=QUANTIN|52=20100506-22:26:44.489|56=NESTFIXTEST|11=IAA0024|21=1|38=625|40=1|54=2|55=PETR4.SA|60=20100506-19:26:44|9304=N|10=062|
8=FIX.4.2|9=63|35=0|34=140|49=NESTFIXTEST|52=20100506-22:26:49.457|56=QUANTIN|10=191|
8=FIX.4.2|9=200|35=8|34=141|49=NESTFIXTEST|52=20100506-22:26:50.426|56=QUANTIN|6=29.81|11=IAA0024|14=125|17=0|20=0|31=29.81|32=125|37=NF000060|38=625|39=1|40=1|54=2|55=PETR4.SA|60=20100506-19:26:50.426|150=1|151=500|10=151|
8=FIX.4.2|9=209|35=8|34=142|49=NESTFIXTEST|52=20100506-22:26:50.426|56=QUANTIN|6=42.0733333333333|11=IAA0023|14=375|17=0|20=0|31=29.81|32=125|37=NF000057|38=375|39=2|40=1|54=1|55=PETR4.SA|60=20100506-19:26:50.426|150=2|151=0|10=117|
8=FIX.4.2|9=210|35=8|34=143|49=NESTFIXTEST|52=20100506-22:26:51.488|56=QUANTIN|6=54.3366666666667|11=IAA0024|14=375|17=0|20=0|31=66.6|32=250|37=NF000060|38=625|39=1|40=1|54=2|55=PETR4.SA|60=20100506-19:26:51.488|150=1|151=250|10=208|
8=FIX.4.2|9=63|35=0|34=144|49=QUANTIN|52=20100506-22:27:44.593|56=NESTFIXTEST|10=192|
8=FIX.4.2|9=63|35=0|34=144|49=NESTFIXTEST|52=20100506-22:27:51.639|56=QUANTIN|10=191|
8=FIX.4.2|9=142|35=D|34=145|49=QUANTIN|52=20100506-22:28:43.665|56=NESTFIXTEST|11=IAA0025|21=1|38=500|40=2|44=35|54=1|55=PETR4.SA|60=20100506-19:28:43|9304=N|10=066|
8=FIX.4.2|9=200|35=8|34=145|49=NESTFIXTEST|52=20100506-22:28:43.774|56=QUANTIN|6=35|11=IAA0025|14=250|17=0|20=0|31=35|32=250|37=NF000063|38=500|39=1|40=2|44=35|54=1|55=PETR4.SA|60=20100506-19:28:43.774|150=1|151=250|10=133|
8=FIX.4.2|9=196|35=8|34=146|49=NESTFIXTEST|52=20100506-22:28:43.774|56=QUANTIN|6=46.602|11=IAA0024|14=625|17=0|20=0|31=35|32=250|37=NF000060|38=625|39=2|40=1|54=2|55=PETR4.SA|60=20100506-19:28:43.774|150=2|151=0|10=243|
8=FIX.4.2|9=200|35=8|34=147|49=NESTFIXTEST|52=20100506-22:28:43.790|56=QUANTIN|6=35|11=IAA0025|14=375|17=0|20=0|31=35|32=125|37=NF000063|38=500|39=1|40=2|44=35|54=1|55=PETR4.SA|60=20100506-19:28:43.790|150=1|151=125|10=141|
8=FIX.4.2|9=142|35=D|34=146|49=QUANTIN|52=20100506-22:29:20.802|56=NESTFIXTEST|11=IAA0026|21=1|38=375|40=2|44=10|54=2|55=PETR4.SA|60=20100506-19:29:20|9304=N|10=057|
8=FIX.4.2|9=200|35=8|34=148|49=NESTFIXTEST|52=20100506-22:29:20.912|56=QUANTIN|6=10|11=IAA0026|14=125|17=0|20=0|31=10|32=125|37=NF000066|38=375|39=1|40=2|44=10|54=2|55=PETR4.SA|60=20100506-19:29:20.912|150=1|151=250|10=112|
8=FIX.4.2|9=201|35=8|34=149|49=NESTFIXTEST|52=20100506-22:29:20.912|56=QUANTIN|6=28.75|11=IAA0025|14=500|17=0|20=0|31=10|32=125|37=NF000063|38=500|39=2|40=2|44=35|54=1|55=PETR4.SA|60=20100506-19:29:20.912|150=2|151=0|10=165|
8=FIX.4.2|9=200|35=8|34=150|49=NESTFIXTEST|52=20100506-22:29:20.943|56=QUANTIN|6=10|11=IAA0026|14=250|17=0|20=0|31=10|32=125|37=NF000066|38=375|39=1|40=2|44=10|54=2|55=PETR4.SA|60=20100506-19:29:20.943|150=1|151=125|10=113|
8=FIX.4.2|9=136|35=D|34=147|49=QUANTIN|52=20100506-22:29:48.674|56=NESTFIXTEST|11=IAA0027|21=1|38=125|40=1|54=1|55=PETR4.SA|60=20100506-19:29:48|9304=N|10=073|
8=FIX.4.2|9=199|35=8|34=151|49=NESTFIXTEST|52=20100506-22:29:48.831|56=QUANTIN|6=10|11=IAA0026|14=312|17=0|20=0|31=10|32=62|37=NF000066|38=375|39=1|40=2|44=10|54=2|55=PETR4.SA|60=20100506-19:29:48.831|150=1|151=-62|10=091|
8=FIX.4.2|9=199|35=8|34=152|49=NESTFIXTEST|52=20100506-22:29:48.862|56=QUANTIN|6=10|11=IAA0026|14=344|17=0|20=0|31=10|32=32|37=NF000066|38=375|39=1|40=2|44=10|54=2|55=PETR4.SA|60=20100506-19:29:48.862|150=1|151=-32|10=099|
8=FIX.4.2|9=199|35=8|34=153|49=NESTFIXTEST|52=20100506-22:29:48.909|56=QUANTIN|6=10|11=IAA0026|14=360|17=0|20=0|31=10|32=16|37=NF000066|38=375|39=1|40=2|44=10|54=2|55=PETR4.SA|60=20100506-19:29:48.909|150=1|151=-16|10=106|
8=FIX.4.2|9=195|35=8|34=154|49=NESTFIXTEST|52=20100506-22:29:48.909|56=QUANTIN|6=66.6|11=IAA0027|14=47|17=0|20=0|31=66.6|32=47|37=NF000069|38=125|39=1|40=1|54=1|55=PETR4.SA|60=20100506-19:29:48.909|150=1|151=47|10=230|
8=FIX.4.2|9=75|35=A|34=148|49=QUANTIN|52=20100506-22:36:25.183|56=NESTFIXTEST|98=0|108=60|10=238|
8=FIX.4.2|9=75|35=A|34=155|49=NESTFIXTEST|52=20100506-22:36:25.230|56=QUANTIN|98=0|108=60|10=229|
8=FIX.4.2|9=143|35=D|34=149|49=QUANTIN|52=20100506-22:37:09.741|56=NESTFIXTEST|11=IAA0028|21=1|38=1024|40=2|44=35|54=1|55=PETR4.SA|60=20100506-19:37:09|9304=N|10=123|
8=FIX.4.2|9=201|35=8|34=156|49=NESTFIXTEST|52=20100506-22:37:13.132|56=QUANTIN|6=35|11=IAA0028|14=512|17=0|20=0|31=35|32=512|37=NF000077|38=1024|39=1|40=2|44=35|54=1|55=PETR4.SA|60=20100506-19:37:13.132|150=1|151=512|10=167|
8=FIX.4.2|9=142|35=D|34=150|49=QUANTIN|52=20100506-22:37:29.724|56=NESTFIXTEST|11=IAA0029|21=1|38=512|40=2|44=10|54=1|55=PETR4.SA|60=20100506-19:37:29|9304=N|10=066|
8=FIX.4.2|9=72|35=1|34=151|49=QUANTIN|52=20100506-22:38:25.469|56=NESTFIXTEST|112=TEST|10=212|
8=FIX.4.2|9=63|35=0|34=157|49=NESTFIXTEST|52=20100506-22:38:25.984|56=QUANTIN|10=201|
8=FIX.4.2|9=72|35=0|34=158|49=NESTFIXTEST|52=20100506-22:38:27.218|56=QUANTIN|112=TEST|10=212|
8=FIX.4.2|9=200|35=8|34=159|49=NESTFIXTEST|52=20100506-22:38:51.076|56=QUANTIN|6=10|11=IAA0029|14=256|17=0|20=0|31=10|32=256|37=NF000079|38=512|39=1|40=2|44=10|54=1|55=PETR4.SA|60=20100506-19:38:51.076|150=1|151=256|10=139|
8=FIX.4.2|9=75|35=A|34=152|49=QUANTIN|52=20100506-22:39:08.886|56=NESTFIXTEST|98=0|108=60|10=247|
8=FIX.4.2|9=75|35=A|34=160|49=NESTFIXTEST|52=20100506-22:39:08.933|56=QUANTIN|98=0|108=60|10=239|
8=FIX.4.2|9=143|35=D|34=153|49=QUANTIN|52=20100506-22:39:15.011|56=NESTFIXTEST|11=IAA0030|21=1|38=1024|40=2|44=35|54=1|55=PETR4.SA|60=20100506-19:39:14|9304=N|10=098|
8=FIX.4.2|9=201|35=8|34=161|49=NESTFIXTEST|52=20100506-22:39:18.292|56=QUANTIN|6=35|11=IAA0030|14=512|17=0|20=0|31=35|32=512|37=NF000081|38=1024|39=1|40=2|44=35|54=1|55=PETR4.SA|60=20100506-19:39:18.292|150=1|151=512|10=179|
8=FIX.4.2|9=142|35=D|34=154|49=QUANTIN|52=20100506-22:39:28.947|56=NESTFIXTEST|11=IAA0031|21=1|38=512|40=2|44=10|54=2|55=PETR4.SA|60=20100506-19:39:28|9304=N|10=073|
8=FIX.4.2|9=63|35=0|34=155|49=QUANTIN|52=20100506-22:40:28.035|56=NESTFIXTEST|10=182|
8=FIX.4.2|9=72|35=1|34=156|49=QUANTIN|52=20100506-22:40:30.035|56=NESTFIXTEST|112=TEST|10=195|
8=FIX.4.2|9=63|35=0|34=162|49=NESTFIXTEST|52=20100506-22:40:32.988|56=QUANTIN|10=192|
8=FIX.4.2|9=72|35=0|34=163|49=NESTFIXTEST|52=20100506-22:40:42.205|56=QUANTIN|112=TEST|10=194|
8=FIX.4.2|9=63|35=0|34=157|49=QUANTIN|52=20100506-22:41:30.170|56=NESTFIXTEST|10=178|
8=FIX.4.2|9=198|35=8|34=164|49=NESTFIXTEST|52=20100506-22:41:40.794|56=QUANTIN|6=10|11=IAA0031|14=512|17=0|20=0|31=10|32=512|37=NF000083|38=512|39=2|40=2|44=10|54=2|55=PETR4.SA|60=20100506-19:41:40.794|150=2|151=0|10=021|
8=FIX.4.2|9=202|35=8|34=165|49=NESTFIXTEST|52=20100506-22:41:40.794|56=QUANTIN|6=22.5|11=IAA0030|14=1024|17=0|20=0|31=10|32=512|37=NF000081|38=1024|39=2|40=2|44=35|54=1|55=PETR4.SA|60=20100506-19:41:40.794|150=2|151=0|10=207|
8=FIX.4.2|9=63|35=0|34=158|49=QUANTIN|52=20100506-22:42:30.320|56=NESTFIXTEST|10=177|
8=FIX.4.2|9=63|35=0|34=166|49=NESTFIXTEST|52=20100506-22:42:40.663|56=QUANTIN|10=187|
8=FIX.4.2|9=63|35=0|34=159|49=QUANTIN|52=20100506-22:43:30.455|56=NESTFIXTEST|10=188|
8=FIX.4.2|9=63|35=0|34=167|49=NESTFIXTEST|52=20100506-22:43:40.798|56=QUANTIN|10=198|
8=FIX.4.2|9=143|35=D|34=160|49=QUANTIN|52=20100506-22:43:41.719|56=NESTFIXTEST|11=IAA0032|21=1|38=1024|40=2|44=10|54=1|55=PETR4.SA|60=20100506-19:43:41|9304=N|10=095|
8=FIX.4.2|9=201|35=8|34=168|49=NESTFIXTEST|52=20100506-22:43:44.688|56=QUANTIN|6=10|11=IAA0032|14=512|17=0|20=0|31=10|32=512|37=NF000085|38=1024|39=1|40=2|44=10|54=1|55=PETR4.SA|60=20100506-19:43:44.688|150=1|151=512|10=177|
8=FIX.4.2|9=143|35=D|34=161|49=QUANTIN|52=20100506-22:43:54.453|56=NESTFIXTEST|11=IAA0033|21=1|38=1024|40=2|44=15|54=1|55=PETR4.SA|60=20100506-19:43:54|9304=N|10=105|
8=FIX.4.2|9=63|35=0|34=162|49=QUANTIN|52=20100506-22:44:54.681|56=NESTFIXTEST|10=190|
8=FIX.4.2|9=72|35=1|34=163|49=QUANTIN|52=20100506-22:44:56.681|56=NESTFIXTEST|112=TEST|10=212|
8=FIX.4.2|9=63|35=0|34=169|49=NESTFIXTEST|52=20100506-22:45:03.040|56=QUANTIN|10=181|
8=FIX.4.2|9=72|35=0|34=170|49=NESTFIXTEST|52=20100506-22:45:03.055|56=QUANTIN|112=TEST|10=197|
8=FIX.4.2|9=201|35=8|34=171|49=NESTFIXTEST|52=20100506-22:45:04.258|56=QUANTIN|6=15|11=IAA0033|14=512|17=0|20=0|31=15|32=512|37=NF000087|38=1024|39=1|40=2|44=15|54=1|55=PETR4.SA|60=20100506-19:45:04.258|150=1|151=512|10=171|
8=FIX.4.2|9=142|35=D|34=164|49=QUANTIN|52=20100506-22:45:27.678|56=NESTFIXTEST|11=IAA0034|21=1|38=1024|40=2|44=1|54=2|55=PETR4.SA|60=20100506-19:45:27|9304=N|10=069|
8=FIX.4.2|9=63|35=0|34=172|49=NESTFIXTEST|52=20100506-22:46:05.596|56=QUANTIN|10=194|
8=FIX.4.2|9=63|35=0|34=165|49=QUANTIN|52=20100506-22:46:27.891|56=NESTFIXTEST|10=198|
8=FIX.4.2|9=72|35=1|34=173|49=NESTFIXTEST|52=20100506-22:46:39.827|56=QUANTIN|112=TEST|10=218|
8=FIX.4.2|9=72|35=0|34=166|49=QUANTIN|52=20100506-22:46:40.952|56=NESTFIXTEST|112=TEST|10=210|
8=FIX.4.2|9=204|35=8|34=174|49=NESTFIXTEST|52=20100506-22:47:11.543|56=QUANTIN|6=29.81|11=IAA0034|14=512|17=0|20=0|31=29.81|32=512|37=NF000089|38=1024|39=1|40=2|44=1|54=2|55=PETR4.SA|60=20100506-19:47:11.543|150=1|151=0|10=074|
8=FIX.4.2|9=75|35=A|34=167|49=QUANTIN|52=20100506-22:47:42.712|56=NESTFIXTEST|98=0|108=60|10=238|
8=FIX.4.2|9=75|35=A|34=175|49=NESTFIXTEST|52=20100506-22:47:42.759|56=QUANTIN|98=0|108=60|10=248|
8=FIX.4.2|9=142|35=D|34=168|49=QUANTIN|52=20100506-22:48:07.350|56=NESTFIXTEST|11=IAA0035|21=1|38=512|40=2|44=20|54=1|55=PETR4.SA|60=20100506-19:48:07|9304=N|10=064|
8=FIX.4.2|9=200|35=8|34=176|49=NESTFIXTEST|52=20100506-22:48:11.100|56=QUANTIN|6=20|11=IAA0035|14=256|17=0|20=0|31=20|32=256|37=NF000091|38=512|39=1|40=2|44=20|54=1|55=PETR4.SA|60=20100506-19:48:11.100|150=1|151=256|10=102|
8=FIX.4.2|9=142|35=D|34=169|49=QUANTIN|52=20100506-22:48:35.847|56=NESTFIXTEST|11=IAA0036|21=1|38=1024|40=2|44=1|54=2|55=PETR4.SA|60=20100506-19:48:35|9304=N|10=078|
8=FIX.4.2|9=72|35=1|34=170|49=QUANTIN|52=20100506-22:49:23.921|56=NESTFIXTEST|112=TEST|10=206|
8=FIX.4.2|9=63|35=0|34=177|49=NESTFIXTEST|52=20100506-22:49:32.795|56=QUANTIN|10=203|
8=FIX.4.2|9=72|35=0|34=178|49=NESTFIXTEST|52=20100506-22:49:32.811|56=QUANTIN|112=TEST|10=211|
8=FIX.4.2|9=204|35=8|34=179|49=NESTFIXTEST|52=20100506-22:50:17.057|56=QUANTIN|6=29.81|11=IAA0036|14=512|17=0|20=0|31=29.81|32=512|37=NF000093|38=1024|39=1|40=2|44=1|54=2|55=PETR4.SA|60=20100506-19:50:17.057|150=1|151=0|10=076|
8=FIX.4.2|9=63|35=0|34=171|49=QUANTIN|52=20100506-22:50:23.056|56=NESTFIXTEST|10=179|
8=FIX.4.2|9=136|35=D|34=172|49=QUANTIN|52=20100506-22:50:55.615|56=NESTFIXTEST|11=IAA0037|21=1|38=512|40=1|54=1|55=PETR4.SA|60=20100506-19:50:55|9304=N|10=051|
8=FIX.4.2|9=198|35=8|34=180|49=NESTFIXTEST|52=20100506-22:51:00.662|56=QUANTIN|6=66.6|11=IAA0037|14=256|17=0|20=0|31=66.6|32=256|37=NF000095|38=512|39=1|40=1|54=1|55=PETR4.SA|60=20100506-19:51:00.662|150=1|151=256|10=084|
8=FIX.4.2|9=75|35=A|34=173|49=QUANTIN|52=20100506-22:57:52.825|56=NESTFIXTEST|98=0|108=60|10=242|
8=FIX.4.2|9=75|35=A|34=181|49=NESTFIXTEST|52=20100506-22:57:52.872|56=QUANTIN|98=0|108=60|10=243|
8=FIX.4.2|9=142|35=D|34=174|49=QUANTIN|52=20100506-22:58:14.198|56=NESTFIXTEST|11=IAA0038|21=1|38=512|40=2|44=20|54=1|55=PETR4.SA|60=20100506-19:58:14|9304=N|10=072|
8=FIX.4.2|9=200|35=8|34=182|49=NESTFIXTEST|52=20100506-22:58:17.292|56=QUANTIN|6=20|11=IAA0038|14=256|17=0|20=0|31=20|32=256|37=NF000097|38=512|39=1|40=2|44=20|54=1|55=PETR4.SA|60=20100506-19:58:17.292|150=1|151=256|10=146|
8=FIX.4.2|9=63|35=0|34=175|49=QUANTIN|52=20100506-22:59:14.005|56=NESTFIXTEST|10=186|
8=FIX.4.2|9=63|35=0|34=183|49=NESTFIXTEST|52=20100506-22:59:17.458|56=QUANTIN|10=200|
8=FIX.4.2|9=63|35=0|34=176|49=QUANTIN|52=20100506-23:00:14.140|56=NESTFIXTEST|10=174|
8=FIX.4.2|9=63|35=0|34=184|49=NESTFIXTEST|52=20100506-23:00:17.593|56=QUANTIN|10=188|
8=FIX.4.2|9=142|35=D|34=177|49=QUANTIN|52=20100506-23:01:01.682|56=NESTFIXTEST|11=IAA0039|21=1|38=1024|40=2|44=1|54=2|55=PETR4.SA|60=20100506-20:01:01|9304=N|10=034|
8=FIX.4.2|9=63|35=0|34=185|49=NESTFIXTEST|52=20100506-23:01:19.134|56=QUANTIN|10=183|
8=FIX.4.2|9=204|35=8|34=186|49=NESTFIXTEST|52=20100506-23:01:41.991|56=QUANTIN|6=29.81|11=IAA0039|14=512|17=0|20=0|31=29.81|32=512|37=NF000099|38=1024|39=1|40=2|44=1|54=2|55=PETR4.SA|60=20100506-20:01:41.991|150=1|151=0|10=076|
8=FIX.4.2|9=63|35=0|34=178|49=QUANTIN|52=20100506-23:02:01.395|56=NESTFIXTEST|10=186|
8=FIX.4.2|9=63|35=0|34=187|49=NESTFIXTEST|52=20100506-23:02:41.516|56=QUANTIN|10=185|
8=FIX.4.2|9=63|35=0|34=179|49=QUANTIN|52=20100506-23:03:01.530|56=NESTFIXTEST|10=179|
8=FIX.4.2|9=63|35=0|34=188|49=NESTFIXTEST|52=20100506-23:03:41.089|56=QUANTIN|10=192|
8=FIX.4.2|9=204|35=8|34=189|49=NESTFIXTEST|52=20100506-23:03:59.040|56=QUANTIN|6=29.81|11=IAA0039|14=768|17=0|20=0|31=29.81|32=256|37=NF000099|38=1024|39=1|40=2|44=1|54=2|55=PETR4.SA|60=20100506-20:03:59.040|150=1|151=0|10=089|
8=FIX.4.2|9=63|35=0|34=180|49=QUANTIN|52=20100506-23:04:01.665|56=NESTFIXTEST|10=181|
8=FIX.4.2|9=204|35=8|34=190|49=NESTFIXTEST|52=20100506-23:04:02.602|56=QUANTIN|6=29.81|11=IAA0039|14=896|17=0|20=0|31=29.81|32=128|37=NF000099|38=1024|39=1|40=2|44=1|54=2|55=PETR4.SA|60=20100506-20:04:02.602|150=1|151=0|10=067|
8=FIX.4.2|9=203|35=8|34=191|49=NESTFIXTEST|52=20100506-23:04:03.587|56=QUANTIN|6=29.81|11=IAA0039|14=960|17=0|20=0|31=29.81|32=64|37=NF000099|38=1024|39=1|40=2|44=1|54=2|55=PETR4.SA|60=20100506-20:04:03.587|150=1|151=0|10=036|
8=FIX.4.2|9=203|35=8|34=192|49=NESTFIXTEST|52=20100506-23:04:04.290|56=QUANTIN|6=29.81|11=IAA0039|14=992|17=0|20=0|31=29.81|32=32|37=NF000099|38=1024|39=1|40=2|44=1|54=2|55=PETR4.SA|60=20100506-20:04:04.290|150=1|151=0|10=021|
8=FIX.4.2|9=204|35=8|34=193|49=NESTFIXTEST|52=20100506-23:04:04.993|56=QUANTIN|6=29.81|11=IAA0039|14=1008|17=0|20=0|31=29.81|32=16|37=NF000099|38=1024|39=1|40=2|44=1|54=2|55=PETR4.SA|60=20100506-20:04:04.993|150=1|151=0|10=082|
8=FIX.4.2|9=203|35=8|34=194|49=NESTFIXTEST|52=20100506-23:04:05.664|56=QUANTIN|6=29.81|11=IAA0039|14=1016|17=0|20=0|31=29.81|32=8|37=NF000099|38=1024|39=1|40=2|44=1|54=2|55=PETR4.SA|60=20100506-20:04:05.664|150=1|151=0|10=026|
8=FIX.4.2|9=203|35=8|34=195|49=NESTFIXTEST|52=20100506-23:04:06.867|56=QUANTIN|6=29.81|11=IAA0039|14=1020|17=0|20=0|31=29.81|32=4|37=NF000099|38=1024|39=1|40=2|44=1|54=2|55=PETR4.SA|60=20100506-20:04:06.867|150=1|151=0|10=030|
8=FIX.4.2|9=203|35=8|34=196|49=NESTFIXTEST|52=20100506-23:04:07.414|56=QUANTIN|6=29.81|11=IAA0039|14=1022|17=0|20=0|31=29.81|32=2|37=NF000099|38=1024|39=1|40=2|44=1|54=2|55=PETR4.SA|60=20100506-20:04:07.414|150=1|151=0|10=009|
8=FIX.4.2|9=203|35=8|34=197|49=NESTFIXTEST|52=20100506-23:04:08.180|56=QUANTIN|6=29.81|11=IAA0039|14=1023|17=0|20=0|31=29.81|32=1|37=NF000099|38=1024|39=1|40=2|44=1|54=2|55=PETR4.SA|60=20100506-20:04:08.180|150=1|151=0|10=012|
8=FIX.4.2|9=203|35=8|34=198|49=NESTFIXTEST|52=20100506-23:04:09.086|56=QUANTIN|6=29.81|11=IAA0039|14=1023|17=0|20=0|31=29.81|32=0|37=NF000099|38=1024|39=1|40=2|44=1|54=2|55=PETR4.SA|60=20100506-20:04:09.086|150=1|151=0|10=024|
8=FIX.4.2|9=203|35=8|34=199|49=NESTFIXTEST|52=20100506-23:04:10.148|56=QUANTIN|6=29.81|11=IAA0039|14=1023|17=0|20=0|31=29.81|32=0|37=NF000099|38=1024|39=1|40=2|44=1|54=2|55=PETR4.SA|60=20100506-20:04:10.148|150=1|151=0|10=007|
8=FIX.4.2|9=203|35=8|34=200|49=NESTFIXTEST|52=20100506-23:04:10.914|56=QUANTIN|6=29.81|11=IAA0039|14=1023|17=0|20=0|31=29.81|32=0|37=NF000099|38=1024|39=1|40=2|44=1|54=2|55=PETR4.SA|60=20100506-20:04:10.914|150=1|151=0|10=248|
8=FIX.4.2|9=203|35=8|34=201|49=NESTFIXTEST|52=20100506-23:04:57.222|56=QUANTIN|6=29.81|11=IAA0039|14=1023|17=0|20=0|31=29.81|32=0|37=NF000099|38=1024|39=1|40=2|44=1|54=2|55=PETR4.SA|60=20100506-20:04:57.222|150=1|151=0|10=255|
8=FIX.4.2|9=63|35=0|34=181|49=QUANTIN|52=20100506-23:05:01.878|56=NESTFIXTEST|10=189|
8=FIX.4.2|9=63|35=0|34=202|49=NESTFIXTEST|52=20100506-23:05:57.123|56=QUANTIN|10=177|
8=FIX.4.2|9=63|35=0|34=182|49=QUANTIN|52=20100506-23:06:01.028|56=NESTFIXTEST|10=178|
8=FIX.4.2|9=63|35=0|34=203|49=NESTFIXTEST|52=20100506-23:06:57.257|56=QUANTIN|10=187|
8=FIX.4.2|9=63|35=0|34=183|49=QUANTIN|52=20100506-23:07:01.163|56=NESTFIXTEST|10=180|
8=FIX.4.2|9=63|35=0|34=204|49=NESTFIXTEST|52=20100506-23:07:57.408|56=QUANTIN|10=187|
8=FIX.4.2|9=63|35=0|34=184|49=QUANTIN|52=20100506-23:08:01.298|56=NESTFIXTEST|10=191|
8=FIX.4.2|9=63|35=0|34=205|49=NESTFIXTEST|52=20100506-23:08:57.543|56=QUANTIN|10=189|
8=FIX.4.2|9=63|35=0|34=185|49=QUANTIN|52=20100506-23:09:01.433|56=NESTFIXTEST|10=184|
8=FIX.4.2|9=63|35=0|34=206|49=NESTFIXTEST|52=20100506-23:09:57.678|56=QUANTIN|10=200|
8=FIX.4.2|9=63|35=0|34=186|49=QUANTIN|52=20100506-23:10:01.599|56=NESTFIXTEST|10=190|
8=FIX.4.2|9=63|35=0|34=207|49=NESTFIXTEST|52=20100506-23:10:57.844|56=QUANTIN|10=188|
8=FIX.4.2|9=203|35=8|34=208|49=NESTFIXTEST|52=20100506-23:11:00.484|56=QUANTIN|6=29.81|11=IAA0039|14=1024|17=0|20=0|31=29.81|32=1|37=NF000099|38=1024|39=2|40=2|44=1|54=2|55=PETR4.SA|60=20100506-20:11:00.484|150=2|151=0|10=002|
8=FIX.4.2|9=63|35=0|34=187|49=QUANTIN|52=20100506-23:11:01.765|56=NESTFIXTEST|10=187|
8=FIX.4.2|9=75|35=A|34=188|49=QUANTIN|52=20100506-23:12:11.040|56=NESTFIXTEST|98=0|108=60|10=224|
8=FIX.4.2|9=75|35=A|34=209|49=NESTFIXTEST|52=20100506-23:12:11.087|56=QUANTIN|98=0|108=60|10=229|
8=FIX.4.2|9=142|35=D|34=189|49=QUANTIN|52=20100506-23:12:27.741|56=NESTFIXTEST|11=IAA0040|21=1|38=512|40=2|44=20|54=1|55=PETR4.SA|60=20100506-20:12:27|9304=N|10=046|
8=FIX.4.2|9=200|35=8|34=210|49=NESTFIXTEST|52=20100506-23:12:34.475|56=QUANTIN|6=20|11=IAA0040|14=256|17=0|20=0|31=20|32=256|37=NF000115|38=512|39=1|40=2|44=20|54=1|55=PETR4.SA|60=20100506-20:12:34.475|150=1|151=256|10=099|
8=FIX.4.2|9=143|35=D|34=190|49=QUANTIN|52=20100506-23:12:45.927|56=NESTFIXTEST|11=IAA0041|21=1|38=1024|40=2|44=10|54=2|55=PETR4.SA|60=20100506-20:12:45|9304=N|10=093|
8=FIX.4.2|9=205|35=8|34=211|49=NESTFIXTEST|52=20100506-23:12:54.504|56=QUANTIN|6=29.81|11=IAA0041|14=512|17=0|20=0|31=29.81|32=512|37=NF000117|38=1024|39=1|40=2|44=10|54=2|55=PETR4.SA|60=20100506-20:12:54.504|150=1|151=0|10=090|
8=FIX.4.2|9=205|35=8|34=212|49=NESTFIXTEST|52=20100506-23:13:02.300|56=QUANTIN|6=29.81|11=IAA0041|14=768|17=0|20=0|31=29.81|32=256|37=NF000117|38=1024|39=1|40=2|44=10|54=2|55=PETR4.SA|60=20100506-20:13:02.300|150=1|151=0|10=085|
8=FIX.4.2|9=205|35=8|34=213|49=NESTFIXTEST|52=20100506-23:13:09.675|56=QUANTIN|6=29.81|11=IAA0041|14=896|17=0|20=0|31=29.81|32=128|37=NF000117|38=1024|39=1|40=2|44=10|54=2|55=PETR4.SA|60=20100506-20:13:09.675|150=1|151=0|10=130|
8=FIX.4.2|9=204|35=8|34=214|49=NESTFIXTEST|52=20100506-23:13:14.221|56=QUANTIN|6=29.81|11=IAA0041|14=960|17=0|20=0|31=29.81|32=64|37=NF000117|38=1024|39=1|40=2|44=10|54=2|55=PETR4.SA|60=20100506-20:13:14.221|150=1|151=0|10=039|
8=FIX.4.2|9=204|35=8|34=215|49=NESTFIXTEST|52=20100506-23:13:15.237|56=QUANTIN|6=29.81|11=IAA0041|14=992|17=0|20=0|31=29.81|32=32|37=NF000117|38=1024|39=1|40=2|44=10|54=2|55=PETR4.SA|60=20100506-20:13:15.237|150=1|151=0|10=056|
8=FIX.4.2|9=205|35=8|34=216|49=NESTFIXTEST|52=20100506-23:13:16.283|56=QUANTIN|6=29.81|11=IAA0041|14=1008|17=0|20=0|31=29.81|32=16|37=NF000117|38=1024|39=1|40=2|44=10|54=2|55=PETR4.SA|60=20100506-20:13:16.283|150=1|151=0|10=101|
8=FIX.4.2|9=204|35=8|34=217|49=NESTFIXTEST|52=20100506-23:13:17.143|56=QUANTIN|6=29.81|11=IAA0041|14=1016|17=0|20=0|31=29.81|32=8|37=NF000117|38=1024|39=1|40=2|44=10|54=2|55=PETR4.SA|60=20100506-20:13:17.143|150=1|151=0|10=045|
8=FIX.4.2|9=204|35=8|34=218|49=NESTFIXTEST|52=20100506-23:13:17.893|56=QUANTIN|6=29.81|11=IAA0041|14=1020|17=0|20=0|31=29.81|32=4|37=NF000117|38=1024|39=1|40=2|44=10|54=2|55=PETR4.SA|60=20100506-20:13:17.893|150=1|151=0|10=061|
8=FIX.4.2|9=204|35=8|34=219|49=NESTFIXTEST|52=20100506-23:13:18.643|56=QUANTIN|6=29.81|11=IAA0041|14=1022|17=0|20=0|31=29.81|32=2|37=NF000117|38=1024|39=1|40=2|44=10|54=2|55=PETR4.SA|60=20100506-20:13:18.643|150=1|151=0|10=050|
8=FIX.4.2|9=204|35=8|34=220|49=NESTFIXTEST|52=20100506-23:13:19.424|56=QUANTIN|6=29.81|11=IAA0041|14=1023|17=0|20=0|31=29.81|32=1|37=NF000117|38=1024|39=1|40=2|44=10|54=2|55=PETR4.SA|60=20100506-20:13:19.424|150=1|151=0|10=038|
8=FIX.4.2|9=204|35=8|34=221|49=NESTFIXTEST|52=20100506-23:13:20.252|56=QUANTIN|6=29.81|11=IAA0041|14=1024|17=0|20=0|31=29.81|32=1|37=NF000117|38=1024|39=2|40=2|44=10|54=2|55=PETR4.SA|60=20100506-20:13:20.252|150=2|151=0|10=024|
8=FIX.4.2|9=63|35=0|34=191|49=QUANTIN|52=20100506-23:13:45.312|56=NESTFIXTEST|10=180|
