8=FIX.4.2|9=69|35=A|34=1|49=TESTINI|52=20100218-19:03:35.715|56=TESTACC|98=0|108=60|10=045|
8=FIX.4.2|9=69|35=A|34=1|49=TESTACC|52=20100218-19:03:37.168|56=TESTINI|98=0|108=60|10=049|
8=FIX.4.2|9=57|35=0|34=2|49=TESTINI|52=20100218-19:04:35.120|56=TESTACC|10=245|
8=FIX.4.2|9=57|35=0|34=2|49=TESTACC|52=20100218-19:04:37.417|56=TESTINI|10=000|
8=FIX.4.2|9=57|35=0|34=3|49=TESTINI|52=20100218-19:05:35.400|56=TESTACC|10=248|
8=FIX.4.2|9=57|35=0|34=3|49=TESTACC|52=20100218-19:05:37.978|56=TESTINI|10=014|
8=FIX.4.2|9=69|35=A|34=4|49=TESTINI|52=20100218-19:07:27.601|56=TESTACC|98=0|108=60|10=047|
8=FIX.4.2|9=69|35=A|34=4|49=TESTACC|52=20100218-19:07:27.648|56=TESTINI|98=0|108=60|10=058|
8=FIX.4.2|9=57|35=0|34=5|49=TESTINI|52=20100218-19:08:27.616|56=TESTACC|10=007|
8=FIX.4.2|9=57|35=0|34=5|49=TESTACC|52=20100218-19:08:27.616|56=TESTINI|10=007|
8=FIX.4.2|9=69|35=A|34=6|49=TESTINI|52=20100218-19:09:21.958|56=TESTACC|98=0|108=60|10=060|
8=FIX.4.2|9=69|35=A|34=6|49=TESTACC|52=20100218-19:09:22.005|56=TESTINI|98=0|108=60|10=044|
8=FIX.4.2|9=57|35=5|34=7|49=TESTINI|52=20100218-19:09:39.958|56=TESTACC|10=027|
8=FIX.4.2|9=57|35=5|34=7|49=TESTACC|52=20100218-19:09:39.958|56=TESTINI|10=027|
8=FIX.4.2|9=69|35=A|34=8|49=TESTINI|52=20100218-19:12:43.157|56=TESTACC|98=0|108=67|10=058|
8=FIX.4.2|9=69|35=A|34=8|49=TESTACC|52=20100218-19:12:43.204|56=TESTINI|98=0|108=67|10=051|
8=FIX.4.2|9=57|35=0|34=9|49=TESTINI|52=20100218-19:13:50.187|56=TESTACC|10=006|
8=FIX.4.2|9=57|35=0|34=9|49=TESTACC|52=20100218-19:13:50.187|56=TESTINI|10=006|
8=FIX.4.2|9=58|35=5|34=10|49=TESTINI|52=20100218-19:14:09.203|56=TESTACC|10=046|
8=FIX.4.2|9=58|35=5|34=10|49=TESTACC|52=20100218-19:14:09.203|56=TESTINI|10=046|
8=FIX.4.2|9=70|35=A|34=11|49=TESTINI|52=20100218-19:50:15.099|56=TESTACC|98=0|108=60|10=091|
8=FIX.4.2|9=70|35=A|34=11|49=TESTACC|52=20100218-19:50:15.145|56=TESTINI|98=0|108=60|10=083|
8=FIX.4.2|9=58|35=0|34=12|49=TESTINI|52=20100218-19:51:15.129|56=TESTACC|10=048|
8=FIX.4.2|9=58|35=0|34=12|49=TESTACC|52=20100218-19:51:15.129|56=TESTINI|10=048|
8=FIX.4.2|9=58|35=0|34=13|49=TESTINI|52=20100218-19:52:15.159|56=TESTACC|10=053|
8=FIX.4.2|9=58|35=0|34=13|49=TESTACC|52=20100218-19:52:15.159|56=TESTINI|10=053|
8=FIX.4.2|9=58|35=5|34=14|49=TESTACC|52=20100218-19:52:29.940|56=TESTINI|10=062|
8=FIX.4.2|9=58|35=5|34=14|49=TESTINI|52=20100218-19:52:29.940|56=TESTACC|10=062|
8=FIX.4.2|9=69|35=A|34=1|49=TESTINI|52=20100219-12:28:20.361|56=TESTACC|98=0|108=60|10=037|
8=FIX.4.2|9=69|35=A|34=2|49=TESTINI|52=20100219-12:28:46.298|56=TESTACC|98=0|108=60|10=055|
8=FIX.4.2|9=69|35=A|34=2|49=TESTACC|52=20100219-12:28:46.314|56=TESTINI|98=0|108=60|10=044|
8=FIX.4.2|9=66|35=2|34=3|49=TESTINI|52=20100219-12:28:46.314|56=TESTACC|7=1|16=0|10=122|
8=FIX.4.2|9=99|35=4|34=1|43=Y|49=TESTACC|52=20100219-12:28:46.314|56=TESTINI|122=20100219-12:28:46.314|36=3|123=Y|10=010|
8=FIX.4.2|9=57|35=5|34=3|49=TESTACC|52=20100219-12:29:41.656|56=TESTINI|10=007|
8=FIX.4.2|9=57|35=5|34=4|49=TESTINI|52=20100219-12:29:41.656|56=TESTACC|10=008|
8=FIX.4.2|9=69|35=A|34=5|49=TESTINI|52=20100219-12:29:56.062|56=TESTACC|98=0|108=60|10=049|
8=FIX.4.2|9=69|35=A|34=4|49=TESTACC|52=20100219-12:29:56.125|56=TESTINI|98=0|108=60|10=048|
8=FIX.4.2|9=57|35=0|34=6|49=TESTINI|52=20100219-12:30:56.092|56=TESTACC|10=253|
8=FIX.4.2|9=57|35=0|34=5|49=TESTACC|52=20100219-12:30:56.108|56=TESTINI|10=250|
8=FIX.4.2|9=57|35=5|34=6|49=TESTACC|52=20100219-12:30:59.889|56=TESTINI|10=019|
8=FIX.4.2|9=57|35=5|34=7|49=TESTINI|52=20100219-12:30:59.889|56=TESTACC|10=020|
8=FIX.4.2|9=69|35=A|34=8|49=TESTINI|52=20100219-12:31:23.248|56=TESTACC|98=0|108=60|10=045|
8=FIX.4.2|9=69|35=A|34=7|49=TESTACC|52=20100219-12:31:23.295|56=TESTINI|98=0|108=60|10=046|
8=FIX.4.2|9=57|35=0|34=8|49=TESTACC|52=20100219-12:32:23.075|56=TESTINI|10=252|
8=FIX.4.2|9=57|35=0|34=9|49=TESTINI|52=20100219-12:32:23.075|56=TESTACC|10=253|
8=FIX.4.2|9=57|35=5|34=9|49=TESTACC|52=20100219-12:32:30.075|56=TESTINI|10=000|
8=FIX.4.2|9=58|35=5|34=10|49=TESTINI|52=20100219-12:32:30.075|56=TESTACC|10=041|
8=FIX.4.2|9=70|35=A|34=11|49=TESTINI|52=20100219-12:33:42.808|56=TESTACC|98=0|108=60|10=084|
8=FIX.4.2|9=70|35=A|34=10|49=TESTACC|52=20100219-12:33:42.855|56=TESTINI|98=0|108=60|10=085|
8=FIX.4.2|9=58|35=5|34=11|49=TESTACC|52=20100219-12:33:48.964|56=TESTINI|10=059|
8=FIX.4.2|9=58|35=5|34=12|49=TESTINI|52=20100219-12:33:48.980|56=TESTACC|10=058|
8=FIX.4.2|9=70|35=A|34=13|49=TESTINI|52=20100219-12:34:25.307|56=TESTACC|98=0|108=60|10=082|
8=FIX.4.2|9=70|35=A|34=12|49=TESTACC|52=20100219-12:34:25.354|56=TESTINI|98=0|108=60|10=083|
8=FIX.4.2|9=115|35=D|34=14|49=TESTINI|52=20100219-12:34:32.495|56=TESTACC|11=ID001|21=1|40=1|54=1|55=PETR4.SA|60=20100219-10:34:32|10=133|
8=FIX.4.2|9=58|35=5|34=15|49=TESTINI|52=20100219-12:35:10.197|56=TESTACC|10=052|
8=FIX.4.2|9=70|35=A|34=16|49=TESTINI|52=20100219-12:35:37.462|56=TESTACC|98=0|108=60|10=091|
8=FIX.4.2|9=70|35=A|34=13|49=TESTACC|52=20100219-12:35:37.509|56=TESTINI|98=0|108=60|10=090|
8=FIX.4.2|9=68|35=2|34=14|49=TESTACC|52=20100219-12:35:37.509|56=TESTINI|7=14|16=0|10=230|
8=FIX.4.2|9=146|35=D|34=14|43=Y|49=TESTINI|52=20100219-12:35:37.525|56=TESTACC|122=20100219-12:34:32.495|11=ID001|21=1|40=1|54=1|55=PETR4.SA|60=20100219-10:34:32|10=137|
8=FIX.4.2|9=101|35=4|34=15|43=Y|49=TESTINI|52=20100219-12:35:37.525|56=TESTACC|122=20100219-12:35:37.525|36=17|123=Y|10=152|
8=FIX.4.2|9=70|35=A|34=17|49=TESTINI|52=20100219-12:39:42.332|56=TESTACC|98=0|108=60|10=088|
8=FIX.4.2|9=70|35=A|34=15|49=TESTACC|52=20100219-12:39:42.364|56=TESTINI|98=0|108=60|10=091|
8=FIX.4.2|9=68|35=2|34=16|49=TESTACC|52=20100219-12:39:42.379|56=TESTINI|7=14|16=0|10=237|
8=FIX.4.2|9=146|35=D|34=14|43=Y|49=TESTINI|52=20100219-12:39:42.379|56=TESTACC|122=20100219-12:34:32.495|11=ID001|21=1|40=1|54=1|55=PETR4.SA|60=20100219-10:34:32|10=144|
8=FIX.4.2|9=101|35=4|34=15|43=Y|49=TESTINI|52=20100219-12:39:42.379|56=TESTACC|122=20100219-12:39:42.379|36=18|123=Y|10=167|
8=FIX.4.2|9=58|35=0|34=18|49=TESTINI|52=20100219-12:40:42.362|56=TESTACC|10=045|
8=FIX.4.2|9=70|35=A|34=19|49=TESTINI|52=20100219-12:42:14.392|56=TESTACC|98=0|108=60|10=089|
8=FIX.4.2|9=70|35=A|34=17|49=TESTACC|52=20100219-12:42:14.439|56=TESTINI|98=0|108=60|10=089|
8=FIX.4.2|9=68|35=2|34=18|49=TESTACC|52=20100219-12:42:14.439|56=TESTINI|7=14|16=0|10=229|
8=FIX.4.2|9=146|35=D|34=14|43=Y|49=TESTINI|52=20100219-12:42:14.439|56=TESTACC|122=20100219-12:34:32.495|11=ID001|21=1|40=1|54=1|55=PETR4.SA|60=20100219-10:34:32|10=134|
8=FIX.4.2|9=101|35=4|34=15|43=Y|49=TESTINI|52=20100219-12:42:14.454|56=TESTACC|122=20100219-12:42:14.454|36=20|123=Y|10=134|
8=FIX.4.2|9=58|35=0|34=20|49=TESTINI|52=20100219-12:43:14.406|56=TESTACC|10=039|
8=FIX.4.2|9=70|35=A|34=21|49=TESTINI|52=20100219-12:44:01.702|56=TESTACC|98=0|108=60|10=075|
8=FIX.4.2|9=70|35=A|34=19|49=TESTACC|52=20100219-12:44:01.749|56=TESTINI|98=0|108=60|10=093|
8=FIX.4.2|9=68|35=2|34=20|49=TESTACC|52=20100219-12:44:01.749|56=TESTINI|7=14|16=0|10=224|
8=FIX.4.2|9=146|35=D|34=14|43=Y|49=TESTINI|52=20100219-12:44:01.749|56=TESTACC|122=20100219-12:34:32.495|11=ID001|21=1|40=1|54=1|55=PETR4.SA|60=20100219-10:34:32|10=136|
8=FIX.4.2|9=101|35=4|34=15|43=Y|49=TESTINI|52=20100219-12:44:01.765|56=TESTACC|122=20100219-12:44:01.765|36=22|123=Y|10=142|
8=FIX.4.2|9=58|35=0|34=21|49=TESTACC|52=20100219-12:45:01.279|56=TESTINI|10=046|
8=FIX.4.2|9=58|35=0|34=22|49=TESTINI|52=20100219-12:45:01.279|56=TESTACC|10=047|
8=FIX.4.2|9=58|35=0|34=22|49=TESTACC|52=20100219-12:46:01.294|56=TESTINI|10=045|
8=FIX.4.2|9=58|35=0|34=23|49=TESTINI|52=20100219-12:46:01.294|56=TESTACC|10=046|
8=FIX.4.2|9=58|35=5|34=23|49=TESTACC|52=20100219-12:46:03.309|56=TESTINI|10=050|
8=FIX.4.2|9=58|35=5|34=24|49=TESTINI|52=20100219-12:46:03.309|56=TESTACC|10=051|
8=FIX.4.2|9=70|35=A|34=25|49=TESTINI|52=20100219-17:40:58.914|56=TESTACC|98=0|108=60|10=097|
8=FIX.4.2|9=70|35=A|34=24|49=TESTACC|52=20100219-17:40:58.976|56=TESTINI|98=0|108=60|10=104|
8=FIX.4.2|9=70|35=A|34=26|49=TESTINI|52=20100219-17:41:38.288|56=TESTACC|98=0|108=60|10=101|
8=FIX.4.2|9=70|35=A|34=25|49=TESTACC|52=20100219-17:41:38.335|56=TESTINI|98=0|108=60|10=093|
8=FIX.4.2|9=70|35=A|34=27|49=TESTINI|52=20100219-17:42:38.724|56=TESTACC|98=0|108=60|10=098|
8=FIX.4.2|9=70|35=A|34=26|49=TESTACC|52=20100219-17:42:39.271|56=TESTINI|98=0|108=60|10=095|
8=FIX.4.2|9=70|35=A|34=28|49=TESTINI|52=20100219-17:43:38.567|56=TESTACC|98=0|108=60|10=105|
8=FIX.4.2|9=70|35=A|34=27|49=TESTACC|52=20100219-17:43:38.614|56=TESTINI|98=0|108=60|10=097|
8=FIX.4.2|9=70|35=A|34=29|49=TESTINI|52=20100219-17:48:32.911|56=TESTACC|98=0|108=60|10=098|
8=FIX.4.2|9=70|35=A|34=28|49=TESTACC|52=20100219-17:48:32.958|56=TESTINI|98=0|108=60|10=108|
8=FIX.4.2|9=58|35=5|34=30|49=TESTINI|52=20100219-17:48:41.915|56=TESTACC|10=060|
8=FIX.4.2|9=58|35=5|34=29|49=TESTACC|52=20100219-17:48:41.915|56=TESTINI|10=068|
8=FIX.4.2|9=70|35=A|34=31|49=TESTINI|52=20100219-17:49:11.535|56=TESTACC|98=0|108=60|10=091|
8=FIX.4.2|9=70|35=A|34=30|49=TESTACC|52=20100219-17:49:11.582|56=TESTINI|98=0|108=60|10=092|
8=FIX.4.2|9=70|35=A|34=32|49=TESTINI|52=20100219-17:49:32.136|56=TESTACC|98=0|108=60|10=092|
8=FIX.4.2|9=70|35=A|34=31|49=TESTACC|52=20100219-17:49:54.550|56=TESTINI|98=0|108=60|10=095|
8=FIX.4.2|9=70|35=A|34=33|49=TESTINI|52=20100219-17:50:37.862|56=TESTACC|98=0|108=60|10=096|
8=FIX.4.2|9=70|35=A|34=32|49=TESTACC|52=20100219-17:50:37.878|56=TESTINI|98=0|108=60|10=102|
8=FIX.4.2|9=70|35=A|34=34|49=TESTINI|52=20100219-17:51:32.916|56=TESTACC|98=0|108=60|10=093|
8=FIX.4.2|9=70|35=A|34=33|49=TESTACC|52=20100219-17:51:32.931|56=TESTINI|98=0|108=60|10=089|
8=FIX.4.2|9=58|35=5|34=35|49=TESTINI|52=20100219-17:51:36.900|56=TESTACC|10=057|
8=FIX.4.2|9=58|35=5|34=34|49=TESTACC|52=20100219-17:51:36.900|56=TESTINI|10=056|
8=FIX.4.2|9=70|35=A|34=36|49=TESTINI|52=20100219-17:53:45.260|56=TESTACC|98=0|108=60|10=093|
8=FIX.4.2|9=70|35=A|34=35|49=TESTACC|52=20100219-17:53:45.275|56=TESTINI|98=0|108=60|10=098|
8=FIX.4.2|9=58|35=5|34=37|49=TESTINI|52=20100219-17:53:50.245|56=TESTACC|10=059|
8=FIX.4.2|9=58|35=5|34=36|49=TESTACC|52=20100219-17:53:50.245|56=TESTINI|10=058|
8=FIX.4.2|9=70|35=A|34=38|49=TESTINI|52=20100219-17:54:01.887|56=TESTACC|98=0|108=60|10=103|
8=FIX.4.2|9=70|35=A|34=37|49=TESTACC|52=20100219-17:54:01.918|56=TESTINI|98=0|108=60|10=097|
8=FIX.4.2|9=58|35=5|34=39|49=TESTINI|52=20100219-17:54:33.891|56=TESTACC|10=070|
8=FIX.4.2|9=58|35=5|34=38|49=TESTACC|52=20100219-17:54:33.891|56=TESTINI|10=069|
8=FIX.4.2|9=70|35=A|34=40|49=TESTINI|52=20100219-18:00:03.733|56=TESTACC|98=0|108=60|10=080|
8=FIX.4.2|9=70|35=A|34=39|49=TESTACC|52=20100219-18:00:03.780|56=TESTINI|98=0|108=60|10=090|
8=FIX.4.2|9=115|35=D|34=41|49=TESTINI|52=20100219-18:00:08.749|56=TESTACC|11=ID001|21=1|40=1|54=1|55=PETR4.SA|60=20100219-16:00:08|10=139|
8=FIX.4.2|9=58|35=5|34=42|49=TESTINI|52=20100219-18:00:52.734|56=TESTACC|10=053|
8=FIX.4.2|9=58|35=5|34=40|49=TESTACC|52=20100219-18:00:52.734|56=TESTINI|10=051|
8=FIX.4.2|9=70|35=A|34=43|49=TESTINI|52=20100219-18:01:58.406|56=TESTACC|98=0|108=60|10=091|
8=FIX.4.2|9=70|35=A|34=41|49=TESTACC|52=20100219-18:01:58.453|56=TESTINI|98=0|108=60|10=091|
8=FIX.4.2|9=58|35=5|34=44|49=TESTINI|52=20100219-18:02:14.390|56=TESTACC|10=053|
8=FIX.4.2|9=58|35=5|34=42|49=TESTACC|52=20100219-18:02:14.390|56=TESTINI|10=051|
8=FIX.4.2|9=70|35=A|34=45|49=TESTINI|52=20100219-18:03:18.109|56=TESTACC|98=0|108=60|10=091|
8=FIX.4.2|9=70|35=A|34=43|49=TESTACC|52=20100219-18:03:18.140|56=TESTINI|98=0|108=60|10=084|
8=FIX.4.2|9=115|35=D|34=46|49=TESTINI|52=20100219-18:03:18.140|56=TESTACC|11=ID001|21=1|40=1|54=1|55=PETR4.SA|60=20100219-16:03:18|10=137|
8=FIX.4.2|9=58|35=5|34=47|49=TESTINI|52=20100219-18:04:09.109|56=TESTACC|10=060|
8=FIX.4.2|9=58|35=5|34=44|49=TESTACC|52=20100219-18:04:09.109|56=TESTINI|10=057|
8=FIX.4.2|9=69|35=A|34=1|49=TESTINI|52=20100223-15:09:59.428|56=TESTACC|98=0|108=60|10=050|
8=FIX.4.2|9=69|35=A|34=1|49=TESTACC|52=20100223-15:09:59.506|56=TESTINI|98=0|108=60|10=047|
8=FIX.4.2|9=114|35=D|34=2|49=TESTINI|52=20100223-15:09:59.553|56=TESTACC|11=ID001|21=1|40=1|54=1|55=PETR4.SA|60=20100223-12:09:59|10=093|
8=FIX.4.2|9=57|35=5|34=2|49=TESTACC|52=20100223-15:10:07.491|56=TESTINI|10=249|
8=FIX.4.2|9=57|35=5|34=3|49=TESTINI|52=20100223-15:10:07.491|56=TESTACC|10=250|
8=FIX.4.2|9=69|35=A|34=4|49=TESTINI|52=20100223-15:31:49.606|56=TESTACC|98=0|108=60|10=045|
8=FIX.4.2|9=69|35=A|34=5|49=TESTINI|52=20100223-15:34:09.104|56=TESTACC|98=0|108=60|10=038|
8=FIX.4.2|9=69|35=A|34=4|49=TESTACC|52=20100223-15:34:15.963|56=TESTINI|98=0|108=60|10=047|
8=FIX.4.2|9=66|35=2|34=6|49=TESTINI|52=20100223-15:35:15.477|56=TESTACC|7=3|16=0|10=129|
8=FIX.4.2|9=57|35=0|34=5|49=TESTACC|52=20100223-15:35:15.102|56=TESTINI|10=242|
8=FIX.4.2|9=99|35=4|34=3|43=Y|49=TESTACC|52=20100223-15:35:15.493|56=TESTINI|122=20100223-15:35:15.493|36=6|123=Y|10=015|
8=FIX.4.2|9=57|35=5|34=7|49=TESTINI|52=20100223-15:35:31.461|56=TESTACC|10=255|
8=FIX.4.2|9=57|35=5|34=6|49=TESTACC|52=20100223-15:35:31.461|56=TESTINI|10=254|
8=FIX.4.2|9=69|35=A|34=8|49=TESTINI|52=20100223-15:39:03.629|56=TESTACC|98=0|108=60|10=052|
8=FIX.4.2|9=69|35=A|34=7|49=TESTACC|52=20100223-15:39:14.738|56=TESTINI|98=0|108=60|10=054|
8=FIX.4.2|9=57|35=5|34=9|49=TESTINI|52=20100223-15:39:25.566|56=TESTACC|10=014|
8=FIX.4.2|9=57|35=5|34=8|49=TESTACC|52=20100223-15:39:25.566|56=TESTINI|10=013|
8=FIX.4.2|9=70|35=A|34=10|49=TESTINI|52=20100223-15:42:42.109|56=TESTACC|98=0|108=60|10=075|
8=FIX.4.2|9=69|35=A|34=9|49=TESTACC|52=20100223-15:42:42.125|56=TESTINI|98=0|108=60|10=041|
8=FIX.4.2|9=115|35=D|34=11|49=TESTINI|52=20100223-15:42:45.125|56=TESTACC|11=ID001|21=1|40=1|54=1|55=PETR4.SA|60=20100223-12:42:42|10=118|
8=FIX.4.2|9=58|35=5|34=12|49=TESTINI|52=20100223-15:42:46.078|56=TESTACC|10=052|
8=FIX.4.2|9=58|35=5|34=10|49=TESTACC|52=20100223-15:42:46.078|56=TESTINI|10=050|
8=FIX.4.2|9=70|35=A|34=13|49=TESTINI|52=20100223-15:54:13.440|56=TESTACC|98=0|108=60|10=077|
8=FIX.4.2|9=70|35=A|34=11|49=TESTACC|52=20100223-15:54:13.440|56=TESTINI|98=0|108=60|10=075|
8=FIX.4.2|9=115|35=D|34=14|49=TESTINI|52=20100223-15:54:16.440|56=TESTACC|11=ID001|21=1|40=1|54=1|55=PETR4.SA|60=20100223-12:54:13|10=123|
8=FIX.4.2|9=58|35=5|34=15|49=TESTINI|52=20100223-15:54:17.440|56=TESTACC|10=049|
8=FIX.4.2|9=58|35=5|34=12|49=TESTACC|52=20100223-15:54:17.440|56=TESTINI|10=046|
8=FIX.4.2|9=70|35=A|34=16|49=TESTINI|52=20100223-15:59:15.918|56=TESTACC|98=0|108=60|10=097|
8=FIX.4.2|9=70|35=A|34=13|49=TESTACC|52=20100223-15:59:15.965|56=TESTINI|98=0|108=60|10=096|
8=FIX.4.2|9=115|35=D|34=17|49=TESTINI|52=20100223-15:59:18.934|56=TESTACC|11=ID001|21=1|40=1|54=1|55=PETR4.SA|60=20100223-12:59:15|10=148|
8=FIX.4.2|9=58|35=5|34=18|49=TESTINI|52=20100223-15:59:19.918|56=TESTACC|10=069|
8=FIX.4.2|9=58|35=5|34=14|49=TESTACC|52=20100223-15:59:19.918|56=TESTINI|10=065|
8=FIX.4.2|9=70|35=A|34=19|49=TESTINI|52=20100223-20:09:02.405|56=TESTACC|98=0|108=60|10=078|
8=FIX.4.2|9=70|35=A|34=15|49=TESTACC|52=20100223-20:09:02.451|56=TESTINI|98=0|108=60|10=075|
8=FIX.4.2|9=58|35=5|34=21|49=TESTINI|52=20100223-20:09:02.451|56=TESTACC|10=038|
8=FIX.4.2|9=70|35=A|34=22|49=TESTINI|52=20100223-20:26:45.087|56=TESTACC|98=0|108=60|10=084|
8=FIX.4.2|9=70|35=A|34=17|49=TESTACC|52=20100223-20:26:45.103|56=TESTINI|98=0|108=60|10=077|
8=FIX.4.2|9=68|35=2|34=24|49=TESTINI|52=20100223-20:26:45.119|56=TESTACC|7=16|16=0|10=223|
8=FIX.4.2|9=68|35=2|34=18|49=TESTACC|52=20100223-20:26:45.103|56=TESTINI|7=21|16=0|10=215|
8=FIX.4.2|9=101|35=4|34=21|43=Y|49=TESTINI|52=20100223-20:26:45.119|56=TESTACC|122=20100223-20:26:45.119|36=23|123=Y|10=130|
8=FIX.4.2|9=146|35=D|34=23|43=Y|49=TESTINI|52=20100223-20:26:45.119|56=TESTACC|122=20100223-20:26:45.103|11=ID001|21=1|40=1|54=1|55=PETR4.SA|60=20100223-17:26:45|10=121|
8=FIX.4.2|9=101|35=4|34=24|43=Y|49=TESTINI|52=20100223-20:26:45.150|56=TESTACC|122=20100223-20:26:45.150|36=25|123=Y|10=125|
8=FIX.4.2|9=101|35=4|34=16|43=Y|49=TESTACC|52=20100223-20:26:45.119|56=TESTINI|122=20100223-20:26:45.119|36=19|123=Y|10=139|
8=FIX.4.2|9=58|35=0|34=25|49=TESTINI|52=20100223-20:27:45.102|56=TESTACC|10=037|
8=FIX.4.2|9=58|35=0|34=19|49=TESTACC|52=20100223-20:27:45.117|56=TESTINI|10=046|
8=FIX.4.2|9=58|35=5|34=20|49=TESTACC|52=20100223-20:28:30.007|56=TESTINI|10=036|
8=FIX.4.2|9=58|35=5|34=26|49=TESTINI|52=20100223-20:28:30.007|56=TESTACC|10=042|
8=FIX.4.2|9=70|35=A|34=28|49=TESTINI|52=20100223-20:29:19.819|56=TESTACC|98=0|108=60|10=097|
8=FIX.4.2|9=70|35=A|34=21|49=TESTACC|52=20100223-20:29:19.834|56=TESTINI|98=0|108=60|10=087|
8=FIX.4.2|9=68|35=2|34=22|49=TESTACC|52=20100223-20:29:19.850|56=TESTINI|7=27|16=0|10=229|
8=FIX.4.2|9=146|35=D|34=27|43=Y|49=TESTINI|52=20100223-20:29:19.850|56=TESTACC|122=20100223-20:28:48.819|11=ID001|21=1|40=1|54=1|55=PETR4.SA|60=20100223-17:28:48|10=155|
8=FIX.4.2|9=101|35=4|34=28|43=Y|49=TESTINI|52=20100223-20:29:19.850|56=TESTACC|122=20100223-20:29:19.850|36=29|123=Y|10=155|
8=FIX.4.2|9=70|35=A|34=29|49=TESTINI|52=20100223-20:43:04.725|56=TESTACC|98=0|108=60|10=084|
8=FIX.4.2|9=70|35=A|34=23|49=TESTACC|52=20100223-20:43:04.772|56=TESTINI|98=0|108=60|10=080|
8=FIX.4.2|9=58|35=0|34=24|49=TESTACC|52=20100223-20:44:04.005|56=TESTINI|10=032|
8=FIX.4.2|9=58|35=0|34=31|49=TESTINI|52=20100223-20:44:04.005|56=TESTACC|10=030|
8=FIX.4.2|9=68|35=2|34=25|49=TESTACC|52=20100223-20:44:04.005|56=TESTINI|7=30|16=0|10=209|
8=FIX.4.2|9=146|35=D|34=30|43=Y|49=TESTINI|52=20100223-20:44:04.005|56=TESTACC|122=20100223-20:43:04.740|11=QUANT|21=1|40=1|54=1|55=PETR4.SA|60=20100223-17:43:04|10=210|
8=FIX.4.2|9=101|35=4|34=31|43=Y|49=TESTINI|52=20100223-20:44:04.005|56=TESTACC|122=20100223-20:44:04.005|36=32|123=Y|10=109|
8=FIX.4.2|9=58|35=5|34=26|49=TESTACC|52=20100223-20:44:22.004|56=TESTINI|10=038|
8=FIX.4.2|9=58|35=5|34=32|49=TESTINI|52=20100223-20:44:22.004|56=TESTACC|10=035|
8=FIX.4.2|9=70|35=A|34=33|49=TESTINI|52=20100223-20:45:04.379|56=TESTACC|98=0|108=60|10=086|
8=FIX.4.2|9=70|35=A|34=27|49=TESTACC|52=20100223-20:45:04.426|56=TESTINI|98=0|108=60|10=082|
8=FIX.4.2|9=58|35=0|34=28|49=TESTACC|52=20100223-20:46:04.206|56=TESTINI|10=041|
8=FIX.4.2|9=58|35=0|34=35|49=TESTINI|52=20100223-20:46:04.206|56=TESTACC|10=039|
8=FIX.4.2|9=68|35=2|34=29|49=TESTACC|52=20100223-20:46:04.206|56=TESTINI|7=34|16=0|10=222|
8=FIX.4.2|9=150|35=D|34=34|43=Y|49=TESTINI|52=20100223-20:46:04.206|56=TESTACC|122=20100223-20:45:04.394|11=QUANT0001|21=1|40=1|54=1|55=PETR4.SA|60=20100223-17:45:04|10=160|
8=FIX.4.2|9=101|35=4|34=35|43=Y|49=TESTINI|52=20100223-20:46:04.206|56=TESTACC|122=20100223-20:46:04.206|36=36|123=Y|10=127|
8=FIX.4.2|9=58|35=0|34=30|49=TESTACC|52=20100223-20:47:04.236|56=TESTINI|10=038|
8=FIX.4.2|9=58|35=0|34=36|49=TESTINI|52=20100223-20:47:04.236|56=TESTACC|10=044|
8=FIX.4.2|9=58|35=0|34=31|49=TESTACC|52=20100223-20:48:04.250|56=TESTINI|10=036|
8=FIX.4.2|9=58|35=0|34=37|49=TESTINI|52=20100223-20:48:04.250|56=TESTACC|10=042|
8=FIX.4.2|9=58|35=0|34=32|49=TESTACC|52=20100223-20:49:04.280|56=TESTINI|10=041|
8=FIX.4.2|9=58|35=0|34=38|49=TESTINI|52=20100223-20:49:04.280|56=TESTACC|10=047|
8=FIX.4.2|9=58|35=0|34=33|49=TESTACC|52=20100223-20:50:04.310|56=TESTINI|10=028|
8=FIX.4.2|9=58|35=0|34=39|49=TESTINI|52=20100223-20:50:04.310|56=TESTACC|10=034|
8=FIX.4.2|9=58|35=0|34=34|49=TESTACC|52=20100223-20:51:04.341|56=TESTINI|10=034|
8=FIX.4.2|9=58|35=0|34=40|49=TESTINI|52=20100223-20:51:04.341|56=TESTACC|10=031|
8=FIX.4.2|9=58|35=0|34=35|49=TESTACC|52=20100223-20:52:04.371|56=TESTINI|10=039|
8=FIX.4.2|9=58|35=0|34=41|49=TESTINI|52=20100223-20:52:04.371|56=TESTACC|10=036|
8=FIX.4.2|9=58|35=0|34=36|49=TESTACC|52=20100223-20:53:04.401|56=TESTINI|10=035|
8=FIX.4.2|9=58|35=0|34=42|49=TESTINI|52=20100223-20:53:04.401|56=TESTACC|10=032|
8=FIX.4.2|9=58|35=0|34=37|49=TESTACC|52=20100223-20:54:04.431|56=TESTINI|10=040|
8=FIX.4.2|9=58|35=0|34=43|49=TESTINI|52=20100223-20:54:04.431|56=TESTACC|10=037|
8=FIX.4.2|9=58|35=0|34=38|49=TESTACC|52=20100223-20:55:04.445|56=TESTINI|10=047|
8=FIX.4.2|9=58|35=0|34=44|49=TESTINI|52=20100223-20:55:04.445|56=TESTACC|10=044|
8=FIX.4.2|9=58|35=0|34=39|49=TESTACC|52=20100223-20:56:04.475|56=TESTINI|10=052|
8=FIX.4.2|9=58|35=0|34=45|49=TESTINI|52=20100223-20:56:04.475|56=TESTACC|10=049|
8=FIX.4.2|9=58|35=0|34=40|49=TESTACC|52=20100223-20:57:04.505|56=TESTINI|10=039|
8=FIX.4.2|9=58|35=0|34=46|49=TESTINI|52=20100223-20:57:04.505|56=TESTACC|10=045|
8=FIX.4.2|9=58|35=0|34=41|49=TESTACC|52=20100223-20:58:04.536|56=TESTINI|10=045|
8=FIX.4.2|9=58|35=0|34=47|49=TESTINI|52=20100223-20:58:04.536|56=TESTACC|10=051|
8=FIX.4.2|9=58|35=0|34=42|49=TESTACC|52=20100223-20:59:04.566|56=TESTINI|10=050|
8=FIX.4.2|9=58|35=0|34=48|49=TESTINI|52=20100223-20:59:04.566|56=TESTACC|10=056|
8=FIX.4.2|9=58|35=0|34=43|49=TESTACC|52=20100223-21:00:04.596|56=TESTINI|10=041|
8=FIX.4.2|9=58|35=0|34=49|49=TESTINI|52=20100223-21:00:04.596|56=TESTACC|10=047|
8=FIX.4.2|9=58|35=0|34=44|49=TESTACC|52=20100223-21:01:04.610|56=TESTINI|10=030|
8=FIX.4.2|9=58|35=0|34=50|49=TESTINI|52=20100223-21:01:04.610|56=TESTACC|10=027|
8=FIX.4.2|9=58|35=0|34=45|49=TESTACC|52=20100223-21:02:04.640|56=TESTINI|10=035|
8=FIX.4.2|9=58|35=0|34=51|49=TESTINI|52=20100223-21:02:04.640|56=TESTACC|10=032|
8=FIX.4.2|9=58|35=0|34=46|49=TESTACC|52=20100223-21:03:04.670|56=TESTINI|10=040|
8=FIX.4.2|9=58|35=0|34=52|49=TESTINI|52=20100223-21:03:04.670|56=TESTACC|10=037|
8=FIX.4.2|9=58|35=0|34=47|49=TESTACC|52=20100223-21:04:04.701|56=TESTINI|10=037|
8=FIX.4.2|9=58|35=0|34=53|49=TESTINI|52=20100223-21:04:04.701|56=TESTACC|10=034|
8=FIX.4.2|9=58|35=5|34=48|49=TESTACC|52=20100223-21:04:31.716|56=TESTINI|10=049|
8=FIX.4.2|9=58|35=5|34=54|49=TESTINI|52=20100223-21:04:31.716|56=TESTACC|10=046|
8=FIX.4.2|9=70|35=A|34=55|49=TESTINI|52=20100223-21:04:58.262|56=TESTACC|98=0|108=60|10=086|
8=FIX.4.2|9=70|35=A|34=49|49=TESTACC|52=20100223-21:04:58.293|56=TESTINI|98=0|108=60|10=093|
8=FIX.4.2|9=58|35=0|34=57|49=TESTINI|52=20100223-21:05:58.292|56=TESTACC|10=053|
8=FIX.4.2|9=68|35=2|34=50|49=TESTACC|52=20100223-21:05:58.292|56=TESTINI|7=56|16=0|10=230|
8=FIX.4.2|9=150|35=D|34=56|43=Y|49=TESTINI|52=20100223-21:05:58.292|56=TESTACC|122=20100223-21:04:58.278|11=QUANT0001|21=1|40=1|54=1|55=PETR4.SA|60=20100223-18:04:58|10=185|
8=FIX.4.2|9=101|35=4|34=57|43=Y|49=TESTINI|52=20100223-21:05:58.292|56=TESTACC|122=20100223-21:05:58.292|36=58|123=Y|10=155|
8=FIX.4.2|9=58|35=5|34=51|49=TESTACC|52=20100223-21:06:44.494|56=TESTINI|10=052|
8=FIX.4.2|9=58|35=5|34=58|49=TESTINI|52=20100223-21:06:44.494|56=TESTACC|10=059|
8=FIX.4.2|9=70|35=A|34=59|49=TESTINI|52=20100223-21:09:11.023|56=TESTACC|98=0|108=60|10=079|
8=FIX.4.2|9=70|35=A|34=52|49=TESTACC|52=20100223-21:09:11.054|56=TESTINI|98=0|108=60|10=076|
8=FIX.4.2|9=58|35=0|34=61|49=TESTINI|52=20100223-21:10:11.022|56=TESTACC|10=024|
8=FIX.4.2|9=68|35=2|34=53|49=TESTACC|52=20100223-21:10:11.022|56=TESTINI|7=60|16=0|10=204|
8=FIX.4.2|9=150|35=D|34=60|43=Y|49=TESTINI|52=20100223-21:10:11.022|56=TESTACC|122=20100223-21:09:11.038|11=QUANT0001|21=1|40=1|54=2|55=PETR4.SA|60=20100223-18:09:11|10=139|
8=FIX.4.2|9=101|35=4|34=61|43=Y|49=TESTINI|52=20100223-21:10:11.022|56=TESTACC|122=20100223-21:10:11.022|36=62|123=Y|10=097|
8=FIX.4.2|9=58|35=0|34=62|49=TESTINI|52=20100223-21:11:11.052|56=TESTACC|10=029|
8=FIX.4.2|9=58|35=0|34=54|49=TESTACC|52=20100223-21:11:11.052|56=TESTINI|10=030|
8=FIX.4.2|9=70|35=A|34=63|49=TESTINI|52=20100223-21:27:47.098|56=TESTACC|98=0|108=60|10=095|
8=FIX.4.2|9=70|35=A|34=55|49=TESTACC|52=20100223-21:27:47.113|56=TESTINI|98=0|108=60|10=084|
8=FIX.4.2|9=58|35=0|34=65|49=TESTINI|52=20100223-21:28:47.109|56=TESTACC|10=052|
8=FIX.4.2|9=68|35=2|34=56|49=TESTACC|52=20100223-21:28:47.109|56=TESTINI|7=64|16=0|10=235|
8=FIX.4.2|9=147|35=D|34=64|43=Y|49=TESTINI|52=20100223-21:28:47.109|56=TESTACC|122=20100223-21:27:47.113|11=QUANT0001|21=1|40=1|54=2|55=PETR4|60=20100223-18:27:47|10=247|
8=FIX.4.2|9=101|35=4|34=65|43=Y|49=TESTINI|52=20100223-21:28:47.109|56=TESTACC|122=20100223-21:28:47.109|36=66|123=Y|10=153|
8=FIX.4.2|9=58|35=5|34=57|49=TESTACC|52=20100223-21:29:12.317|56=TESTINI|10=052|
8=FIX.4.2|9=58|35=5|34=66|49=TESTINI|52=20100223-21:29:12.317|56=TESTACC|10=052|
8=FIX.4.2|9=70|35=A|34=68|49=TESTINI|52=20100223-21:31:00.103|56=TESTACC|98=0|108=60|10=071|
8=FIX.4.2|9=70|35=A|34=58|49=TESTACC|52=20100223-21:31:00.119|56=TESTINI|98=0|108=60|10=077|
8=FIX.4.2|9=68|35=2|34=59|49=TESTACC|52=20100223-21:31:00.135|56=TESTINI|7=67|16=0|10=223|
8=FIX.4.2|9=147|35=D|34=67|43=Y|49=TESTINI|52=20100223-21:31:00.135|56=TESTACC|122=20100223-21:30:29.504|11=QUANT0001|21=1|40=1|54=2|55=PETR4|60=20100223-18:30:29|10=224|
8=FIX.4.2|9=101|35=4|34=68|43=Y|49=TESTINI|52=20100223-21:31:00.135|56=TESTACC|122=20100223-21:31:00.135|36=69|123=Y|10=123|
8=FIX.4.2|9=70|35=A|34=69|49=TESTINI|52=20100223-21:48:46.207|56=TESTACC|98=0|108=60|10=095|
8=FIX.4.2|9=70|35=A|34=60|49=TESTACC|52=20100223-21:48:46.254|56=TESTINI|98=0|108=60|10=088|
8=FIX.4.2|9=116|35=D|34=70|49=TESTINI|52=20100223-21:48:47.645|56=TESTACC|11=QUANT0001|21=1|40=1|54=2|55=PETR4|60=20100223-18:48:47|10=004|
8=FIX.4.2|9=116|35=D|34=71|49=TESTINI|52=20100223-21:48:47.645|56=TESTACC|11=QUANT0002|21=1|40=1|54=2|55=VALE5|60=20100223-18:48:47|10=244|
8=FIX.4.2|9=116|35=D|34=72|49=TESTINI|52=20100223-21:48:47.645|56=TESTACC|11=QUANT0003|21=1|40=1|54=2|55=BBAS3|60=20100223-18:48:47|10=228|
8=FIX.4.2|9=116|35=D|34=73|49=TESTINI|52=20100223-21:48:47.645|56=TESTACC|11=QUANT0004|21=1|40=1|54=2|55=BRKM5|60=20100223-18:48:47|10=252|
8=FIX.4.2|9=116|35=D|34=74|49=TESTINI|52=20100223-21:48:47.645|56=TESTACC|11=QUANT0005|21=1|40=1|54=2|55=CCRO3|60=20100223-18:48:47|10=247|
8=FIX.4.2|9=116|35=D|34=75|49=TESTINI|52=20100223-21:48:47.645|56=TESTACC|11=QUANT0006|21=1|40=1|54=2|55=CSNA3|60=20100223-18:48:47|10=247|
8=FIX.4.2|9=116|35=D|34=76|49=TESTINI|52=20100223-21:48:47.661|56=TESTACC|11=QUANT0007|21=1|40=1|54=2|55=CYRE3|60=20100223-18:48:47|10=005|
8=FIX.4.2|9=116|35=D|34=77|49=TESTINI|52=20100223-21:48:47.661|56=TESTACC|11=QUANT0008|21=1|40=1|54=2|55=ELET3|60=20100223-18:48:47|10=254|
8=FIX.4.2|9=116|35=D|34=78|49=TESTINI|52=20100223-21:48:47.661|56=TESTACC|11=QUANT0009|21=1|40=1|54=2|55=ELET6|60=20100223-18:48:47|10=003|
8=FIX.4.2|9=116|35=D|34=79|49=TESTINI|52=20100223-21:48:47.661|56=TESTACC|11=QUANT0010|21=1|40=1|54=2|55=EMBR3|60=20100223-18:48:47|10=245|
8=FIX.4.2|9=116|35=D|34=80|49=TESTINI|52=20100223-21:48:47.661|56=TESTACC|11=QUANT0011|21=1|40=1|54=2|55=KLBN4|60=20100223-18:48:47|10=240|
8=FIX.4.2|9=116|35=D|34=81|49=TESTINI|52=20100223-21:48:47.661|56=TESTACC|11=QUANT0012|21=1|40=1|54=2|55=LREN3|60=20100223-18:48:47|10=251|
8=FIX.4.2|9=116|35=D|34=82|49=TESTINI|52=20100223-21:48:47.661|56=TESTACC|11=QUANT0013|21=1|40=1|54=2|55=BRFS3|60=20100223-18:48:47|10=249|
8=FIX.4.2|9=116|35=D|34=83|49=TESTINI|52=20100223-21:48:47.661|56=TESTACC|11=QUANT0014|21=1|40=1|54=2|55=RAPT4|60=20100223-18:48:47|10=006|
8=FIX.4.2|9=116|35=D|34=84|49=TESTINI|52=20100223-21:48:47.661|56=TESTACC|11=QUANT0015|21=1|40=1|54=2|55=RSID3|60=20100223-18:48:47|10=002|
8=FIX.4.2|9=116|35=D|34=85|49=TESTINI|52=20100223-21:48:47.661|56=TESTACC|11=QUANT0016|21=1|40=1|54=2|55=TNLP4|60=20100223-18:48:47|10=017|
8=FIX.4.2|9=116|35=D|34=86|49=TESTINI|52=20100223-21:48:47.676|56=TESTACC|11=QUANT0017|21=1|40=1|54=2|55=TOTS3|60=20100223-18:48:47|10=036|
8=FIX.4.2|9=116|35=D|34=87|49=TESTINI|52=20100223-21:48:47.676|56=TESTACC|11=QUANT0018|21=1|40=1|54=2|55=USIM5|60=20100223-18:48:47|10=028|
8=FIX.4.2|9=116|35=D|34=88|49=TESTINI|52=20100223-21:48:47.676|56=TESTACC|11=QUANT0019|21=1|40=1|54=2|55=WEGE3|60=20100223-18:48:47|10=006|
8=FIX.4.2|9=116|35=D|34=89|49=TESTINI|52=20100223-21:48:47.676|56=TESTACC|11=QUANT0020|21=1|40=1|54=2|55=GVTT3|60=20100223-18:48:47|10=028|
8=FIX.4.2|9=116|35=D|34=90|49=TESTINI|52=20100223-21:48:47.692|56=TESTACC|11=QUANT0021|21=1|40=1|54=2|55=SLCE3|60=20100223-18:48:47|10=245|
8=FIX.4.2|9=116|35=D|34=91|49=TESTINI|52=20100223-21:48:47.692|56=TESTACC|11=QUANT0022|21=1|40=1|54=2|55=BVMF3|60=20100223-18:48:47|10=251|
8=FIX.4.2|9=58|35=5|34=61|49=TESTACC|52=20100223-21:49:43.535|56=TESTINI|10=055|
8=FIX.4.2|9=58|35=5|34=92|49=TESTINI|52=20100223-21:49:43.535|56=TESTACC|10=059|
8=FIX.4.2|9=70|35=A|34=93|49=TESTINI|52=20100223-21:50:59.800|56=TESTACC|98=0|108=60|10=088|
8=FIX.4.2|9=70|35=A|34=62|49=TESTACC|52=20100223-21:50:59.846|56=TESTINI|98=0|108=60|10=094|
8=FIX.4.2|9=116|35=D|34=94|49=TESTINI|52=20100223-21:51:01.237|56=TESTACC|11=QUANT0001|21=1|40=1|54=1|55=PETR4|60=20100223-18:51:01|10=230|
8=FIX.4.2|9=116|35=D|34=95|49=TESTINI|52=20100223-21:51:01.253|56=TESTACC|11=QUANT0002|21=1|40=1|54=1|55=VALE5|60=20100223-18:51:01|10=212|
8=FIX.4.2|9=116|35=D|34=96|49=TESTINI|52=20100223-21:51:01.253|56=TESTACC|11=QUANT0003|21=1|40=1|54=1|55=BBAS3|60=20100223-18:51:01|10=196|
8=FIX.4.2|9=116|35=D|34=97|49=TESTINI|52=20100223-21:51:01.253|56=TESTACC|11=QUANT0004|21=1|40=1|54=2|55=BNCA3|60=20100223-18:51:01|10=195|
8=FIX.4.2|9=116|35=D|34=98|49=TESTINI|52=20100223-21:51:01.253|56=TESTACC|11=QUANT0005|21=1|40=1|54=2|55=BRKM5|60=20100223-18:51:01|10=223|
8=FIX.4.2|9=116|35=D|34=99|49=TESTINI|52=20100223-21:51:01.253|56=TESTACC|11=QUANT0006|21=1|40=1|54=2|55=CCRO3|60=20100223-18:51:01|10=218|
8=FIX.4.2|9=117|35=D|34=100|49=TESTINI|52=20100223-21:51:01.253|56=TESTACC|11=QUANT0007|21=1|40=1|54=2|55=CPLE3|60=20100223-18:51:01|10=248|
8=FIX.4.2|9=117|35=D|34=101|49=TESTINI|52=20100223-21:51:01.253|56=TESTACC|11=QUANT0008|21=1|40=1|54=1|55=CSNA3|60=20100223-18:51:01|10=250|
8=FIX.4.2|9=117|35=D|34=102|49=TESTINI|52=20100223-21:51:01.253|56=TESTACC|11=QUANT0009|21=1|40=1|54=2|55=CTNM4|60=20100223-18:51:01|10=011|
8=FIX.4.2|9=117|35=D|34=103|49=TESTINI|52=20100223-21:51:01.253|56=TESTACC|11=QUANT0010|21=1|40=1|54=2|55=CYRE3|60=20100223-18:51:01|10=004|
8=FIX.4.2|9=117|35=D|34=104|49=TESTINI|52=20100223-21:51:01.253|56=TESTACC|11=QUANT0011|21=1|40=1|54=2|55=ELET3|60=20100223-18:51:01|10=253|
8=FIX.4.2|9=117|35=D|34=105|49=TESTINI|52=20100223-21:51:01.253|56=TESTACC|11=QUANT0012|21=1|40=1|54=2|55=ELET6|60=20100223-18:51:01|10=002|
8=FIX.4.2|9=117|35=D|34=106|49=TESTINI|52=20100223-21:51:01.253|56=TESTACC|11=QUANT0013|21=1|40=1|54=2|55=EMBR3|60=20100223-18:51:01|10=253|
8=FIX.4.2|9=117|35=D|34=107|49=TESTINI|52=20100223-21:51:01.253|56=TESTACC|11=QUANT0014|21=1|40=1|54=2|55=ETER3|60=20100223-18:51:01|10=009|
8=FIX.4.2|9=117|35=D|34=108|49=TESTINI|52=20100223-21:51:01.253|56=TESTACC|11=QUANT0015|21=1|40=1|54=2|55=INEP4|60=20100223-18:51:01|10=008|
8=FIX.4.2|9=117|35=D|34=109|49=TESTINI|52=20100223-21:51:01.253|56=TESTACC|11=QUANT0016|21=1|40=1|54=2|55=KLBN4|60=20100223-18:51:01|10=005|
8=FIX.4.2|9=117|35=D|34=110|49=TESTINI|52=20100223-21:51:01.253|56=TESTACC|11=QUANT0017|21=1|40=1|54=2|55=LREN3|60=20100223-18:51:01|10=007|
8=FIX.4.2|9=117|35=D|34=111|49=TESTINI|52=20100223-21:51:01.253|56=TESTACC|11=QUANT0018|21=1|40=1|54=2|55=BRFS3|60=20100223-18:51:01|10=005|
8=FIX.4.2|9=117|35=D|34=112|49=TESTINI|52=20100223-21:51:01.268|56=TESTACC|11=QUANT0019|21=1|40=1|54=2|55=RAPT4|60=20100223-18:51:01|10=024|
8=FIX.4.2|9=117|35=D|34=113|49=TESTINI|52=20100223-21:51:01.268|56=TESTACC|11=QUANT0020|21=1|40=1|54=2|55=RSID3|60=20100223-18:51:01|10=011|
8=FIX.4.2|9=117|35=D|34=114|49=TESTINI|52=20100223-21:51:01.268|56=TESTACC|11=QUANT0021|21=1|40=1|54=2|55=SZPQ4|60=20100223-18:51:01|10=042|
8=FIX.4.2|9=117|35=D|34=115|49=TESTINI|52=20100223-21:51:01.268|56=TESTACC|11=QUANT0022|21=1|40=1|54=1|55=TLPP4|60=20100223-18:51:01|10=029|
8=FIX.4.2|9=117|35=D|34=116|49=TESTINI|52=20100223-21:51:01.268|56=TESTACC|11=QUANT0023|21=1|40=1|54=1|55=TNLP4|60=20100223-18:51:01|10=029|
8=FIX.4.2|9=117|35=D|34=117|49=TESTINI|52=20100223-21:51:01.268|56=TESTACC|11=QUANT0024|21=1|40=1|54=2|55=TOTS3|60=20100223-18:51:01|10=043|
8=FIX.4.2|9=117|35=D|34=118|49=TESTINI|52=20100223-21:51:01.268|56=TESTACC|11=QUANT0025|21=1|40=1|54=2|55=UNIP6|60=20100223-18:51:01|10=034|
8=FIX.4.2|9=117|35=D|34=119|49=TESTINI|52=20100223-21:51:01.268|56=TESTACC|11=QUANT0026|21=1|40=1|54=1|55=USIM5|60=20100223-18:51:01|10=036|
8=FIX.4.2|9=117|35=D|34=120|49=TESTINI|52=20100223-21:51:01.268|56=TESTACC|11=QUANT0027|21=1|40=1|54=2|55=WEGE3|60=20100223-18:51:01|10=006|
8=FIX.4.2|9=117|35=D|34=121|49=TESTINI|52=20100223-21:51:01.268|56=TESTACC|11=QUANT0028|21=1|40=1|54=2|55=GVTT3|60=20100223-18:51:01|10=037|
8=FIX.4.2|9=117|35=D|34=122|49=TESTINI|52=20100223-21:51:01.268|56=TESTACC|11=QUANT0029|21=1|40=1|54=2|55=SLCE3|60=20100223-18:51:01|10=009|
8=FIX.4.2|9=117|35=D|34=123|49=TESTINI|52=20100223-21:51:01.268|56=TESTACC|11=QUANT0030|21=1|40=1|54=2|55=BVMF3|60=20100223-18:51:01|10=006|
8=FIX.4.2|9=71|35=A|34=124|49=TESTINI|52=20100223-21:53:36.844|56=TESTACC|98=0|108=60|10=138|
8=FIX.4.2|9=70|35=A|34=63|49=TESTACC|52=20100223-21:53:36.859|56=TESTINI|98=0|108=60|10=097|
8=FIX.4.2|9=127|35=D|34=125|49=TESTINI|52=20100223-21:53:38.281|56=TESTACC|11=QUANT0001|21=1|38=140657|40=1|54=1|55=PETR4|60=20100223-18:53:38|10=010|
8=FIX.4.2|9=126|35=D|34=126|49=TESTINI|52=20100223-21:53:38.281|56=TESTACC|11=QUANT0002|21=1|38=63191|40=1|54=1|55=VALE5|60=20100223-18:53:38|10=198|
8=FIX.4.2|9=127|35=D|34=127|49=TESTINI|52=20100223-21:53:38.281|56=TESTACC|11=QUANT0003|21=1|38=241294|40=1|54=1|55=BBAS3|60=20100223-18:53:38|10=233|
8=FIX.4.2|9=126|35=D|34=128|49=TESTINI|52=20100223-21:53:38.281|56=TESTACC|11=QUANT0004|21=1|38=28700|40=1|54=2|55=BNCA3|60=20100223-18:53:38|10=178|
8=FIX.4.2|9=128|35=D|34=129|49=TESTINI|52=20100223-21:53:38.281|56=TESTACC|11=QUANT0005|21=1|38=1093072|40=1|54=2|55=BRKM5|60=20100223-18:53:38|10=053|
8=FIX.4.2|9=127|35=D|34=130|49=TESTINI|52=20100223-21:53:38.281|56=TESTACC|11=QUANT0006|21=1|38=606770|40=1|54=2|55=CCRO3|60=20100223-18:53:38|10=250|
8=FIX.4.2|9=126|35=D|34=131|49=TESTINI|52=20100223-21:53:38.281|56=TESTACC|11=QUANT0007|21=1|38=42000|40=1|54=2|55=CPLE3|60=20100223-18:53:38|10=180|
8=FIX.4.2|9=126|35=D|34=132|49=TESTINI|52=20100223-21:53:38.281|56=TESTACC|11=QUANT0008|21=1|38=25611|40=1|54=1|55=CSNA3|60=20100223-18:53:38|10=191|
8=FIX.4.2|9=128|35=D|34=133|49=TESTINI|52=20100223-21:53:38.281|56=TESTACC|11=QUANT0009|21=1|38=1388000|40=1|54=2|55=CTNM4|60=20100223-18:53:38|10=055|
8=FIX.4.2|9=127|35=D|34=134|49=TESTINI|52=20100223-21:53:38.281|56=TESTACC|11=QUANT0010|21=1|38=301060|40=1|54=2|55=CYRE3|60=20100223-18:53:38|10=245|
8=FIX.4.2|9=127|35=D|34=135|49=TESTINI|52=20100223-21:53:38.281|56=TESTACC|11=QUANT0011|21=1|38=201967|40=1|54=2|55=ELET3|60=20100223-18:53:38|10=253|
8=FIX.4.2|9=126|35=D|34=136|49=TESTINI|52=20100223-21:53:38.297|56=TESTACC|11=QUANT0012|21=1|38=35591|40=1|54=2|55=ELET6|60=20100223-18:53:38|10=214|
8=FIX.4.2|9=127|35=D|34=137|49=TESTINI|52=20100223-21:53:38.297|56=TESTACC|11=QUANT0013|21=1|38=192502|40=1|54=2|55=EMBR3|60=20100223-18:53:38|10=254|
8=FIX.4.2|9=127|35=D|34=138|49=TESTINI|52=20100223-21:53:38.297|56=TESTACC|11=QUANT0014|21=1|38=320000|40=1|54=2|55=ETER3|60=20100223-18:53:38|10=252|
8=FIX.4.2|9=127|35=D|34=139|49=TESTINI|52=20100223-21:53:38.297|56=TESTACC|11=QUANT0015|21=1|38=124000|40=1|54=2|55=INEP4|60=20100223-18:53:38|10=253|
8=FIX.4.2|9=128|35=D|34=140|49=TESTINI|52=20100223-21:53:38.297|56=TESTACC|11=QUANT0016|21=1|38=1068188|40=1|54=2|55=KLBN4|60=20100223-18:53:38|10=059|
8=FIX.4.2|9=127|35=D|34=141|49=TESTINI|52=20100223-21:53:38.297|56=TESTACC|11=QUANT0017|21=1|38=121633|40=1|54=2|55=LREN3|60=20100223-18:53:38|10=005|
8=FIX.4.2|9=127|35=D|34=142|49=TESTINI|52=20100223-21:53:38.297|56=TESTACC|11=QUANT0018|21=1|38=324952|40=1|54=2|55=BRFS3|60=20100223-18:53:38|10=012|
8=FIX.4.2|9=127|35=D|34=143|49=TESTINI|52=20100223-21:53:38.297|56=TESTACC|11=QUANT0019|21=1|38=158153|40=1|54=2|55=RAPT4|60=20100223-18:53:38|10=023|
8=FIX.4.2|9=127|35=D|34=144|49=TESTINI|52=20100223-21:53:38.297|56=TESTACC|11=QUANT0020|21=1|38=118294|40=1|54=2|55=RSID3|60=20100223-18:53:38|10=012|
8=FIX.4.2|9=126|35=D|34=145|49=TESTINI|52=20100223-21:53:38.297|56=TESTACC|11=QUANT0021|21=1|38=70900|40=1|54=2|55=SZPQ4|60=20100223-18:53:38|10=241|
8=FIX.4.2|9=126|35=D|34=146|49=TESTINI|52=20100223-21:53:38.297|56=TESTACC|11=QUANT0022|21=1|38=82000|40=1|54=1|55=TLPP4|60=20100223-18:53:38|10=222|
8=FIX.4.2|9=127|35=D|34=147|49=TESTINI|52=20100223-21:53:38.297|56=TESTACC|11=QUANT0023|21=1|38=320853|40=1|54=1|55=TNLP4|60=20100223-18:53:38|10=026|
8=FIX.4.2|9=126|35=D|34=148|49=TESTINI|52=20100223-21:53:38.297|56=TESTACC|11=QUANT0024|21=1|38=82465|40=1|54=2|55=TOTS3|60=20100223-18:53:38|10=251|
8=FIX.4.2|9=128|35=D|34=149|49=TESTINI|52=20100223-21:53:38.297|56=TESTACC|11=QUANT0025|21=1|38=2731500|40=1|54=2|55=UNIP6|60=20100223-18:53:38|10=077|
8=FIX.4.2|9=127|35=D|34=150|49=TESTINI|52=20100223-21:53:38.297|56=TESTACC|11=QUANT0026|21=1|38=199530|40=1|54=1|55=USIM5|60=20100223-18:53:38|10=030|
8=FIX.4.2|9=127|35=D|34=151|49=TESTINI|52=20100223-21:53:38.297|56=TESTACC|11=QUANT0027|21=1|38=818297|40=1|54=2|55=WEGE3|60=20100223-18:53:38|10=017|
8=FIX.4.2|9=126|35=D|34=152|49=TESTINI|52=20100223-21:53:38.297|56=TESTACC|11=QUANT0028|21=1|38=27126|40=1|54=2|55=GVTT3|60=20100223-18:53:38|10=238|
8=FIX.4.2|9=128|35=D|34=153|49=TESTINI|52=20100223-21:53:38.297|56=TESTACC|11=QUANT0029|21=1|38=1118241|40=1|54=2|55=SLCE3|60=20100223-18:53:38|10=052|
8=FIX.4.2|9=126|35=D|34=154|49=TESTINI|52=20100223-21:53:38.297|56=TESTACC|11=QUANT0030|21=1|38=52491|40=1|54=2|55=BVMF3|60=20100223-18:53:38|10=210|
8=FIX.4.2|9=58|35=0|34=64|49=TESTACC|52=20100223-21:54:36.796|56=TESTINI|10=060|
8=FIX.4.2|9=59|35=0|34=155|49=TESTINI|52=20100223-21:54:38.858|56=TESTACC|10=111|
8=FIX.4.2|9=58|35=0|34=65|49=TESTACC|52=20100223-21:55:36.841|56=TESTINI|10=053|
8=FIX.4.2|9=59|35=0|34=156|49=TESTINI|52=20100223-21:55:38.873|56=TESTACC|10=110|
8=FIX.4.2|9=58|35=0|34=66|49=TESTACC|52=20100223-21:56:36.872|56=TESTINI|10=059|
8=FIX.4.2|9=59|35=0|34=157|49=TESTINI|52=20100223-21:56:38.903|56=TESTACC|10=106|
8=FIX.4.2|9=58|35=0|34=67|49=TESTACC|52=20100223-21:57:36.902|56=TESTINI|10=055|
8=FIX.4.2|9=59|35=0|34=158|49=TESTINI|52=20100223-21:57:38.933|56=TESTACC|10=111|
8=FIX.4.2|9=58|35=0|34=68|49=TESTACC|52=20100223-21:58:36.932|56=TESTINI|10=060|
8=FIX.4.2|9=59|35=0|34=159|49=TESTINI|52=20100223-21:58:38.963|56=TESTACC|10=116|
8=FIX.4.2|9=69|35=A|34=1|49=TESTINI|52=20100224-15:39:16.496|56=TESTACC|98=0|108=60|10=052|
8=FIX.4.2|9=69|35=A|34=1|49=TESTACC|52=20100224-15:39:16.605|56=TESTINI|98=0|108=60|10=044|
8=FIX.4.2|9=57|35=0|34=2|49=TESTINI|52=20100224-15:40:16.512|56=TESTACC|10=242|
8=FIX.4.2|9=57|35=0|34=2|49=TESTACC|52=20100224-15:40:16.528|56=TESTINI|10=249|
8=FIX.4.2|9=57|35=0|34=3|49=TESTINI|52=20100224-15:41:16.513|56=TESTACC|10=245|
8=FIX.4.2|9=57|35=0|34=3|49=TESTACC|52=20100224-15:41:16.513|56=TESTINI|10=245|
8=FIX.4.2|9=57|35=0|34=4|49=TESTINI|52=20100224-15:42:16.513|56=TESTACC|10=247|
8=FIX.4.2|9=57|35=0|34=4|49=TESTACC|52=20100224-15:42:16.513|56=TESTINI|10=247|
8=FIX.4.2|9=57|35=0|34=5|49=TESTINI|52=20100224-15:43:16.514|56=TESTACC|10=250|
8=FIX.4.2|9=57|35=0|34=5|49=TESTACC|52=20100224-15:43:16.514|56=TESTINI|10=250|
8=FIX.4.2|9=57|35=0|34=6|49=TESTINI|52=20100224-15:44:16.515|56=TESTACC|10=253|
8=FIX.4.2|9=57|35=0|34=6|49=TESTACC|52=20100224-15:44:16.515|56=TESTINI|10=253|
8=FIX.4.2|9=125|35=D|34=7|49=TESTINI|52=20100224-15:44:53.578|56=TESTACC|11=QUANT0001|21=1|38=180156|40=1|54=1|55=PETR4|60=20100224-12:44:53|10=167|
8=FIX.4.2|9=124|35=D|34=8|49=TESTINI|52=20100224-15:44:53.578|56=TESTACC|11=QUANT0002|21=1|38=81939|40=1|54=1|55=VALE5|60=20100224-12:44:53|10=111|
8=FIX.4.2|9=125|35=D|34=9|49=TESTINI|52=20100224-15:44:53.578|56=TESTACC|11=QUANT0003|21=1|38=240634|40=1|54=1|55=BBAS3|60=20100224-12:44:53|10=133|
8=FIX.4.2|9=125|35=D|34=10|49=TESTINI|52=20100224-15:44:53.594|56=TESTACC|11=QUANT0004|21=1|38=28700|40=1|54=2|55=BNCA3|60=20100224-12:44:53|10=119|
8=FIX.4.2|9=127|35=D|34=11|49=TESTINI|52=20100224-15:44:53.594|56=TESTACC|11=QUANT0005|21=1|38=1098622|40=1|54=2|55=BRKM5|60=20100224-12:44:53|10=000|
8=FIX.4.2|9=126|35=D|34=12|49=TESTINI|52=20100224-15:44:53.594|56=TESTACC|11=QUANT0006|21=1|38=608417|40=1|54=2|55=CCRO3|60=20100224-12:44:53|10=200|
8=FIX.4.2|9=125|35=D|34=13|49=TESTINI|52=20100224-15:44:53.594|56=TESTACC|11=QUANT0007|21=1|38=42000|40=1|54=2|55=CPLE3|60=20100224-12:44:53|10=130|
8=FIX.4.2|9=125|35=D|34=14|49=TESTINI|52=20100224-15:44:53.609|56=TESTACC|11=QUANT0008|21=1|38=24560|40=1|54=1|55=CSNA3|60=20100224-12:44:53|10=140|
8=FIX.4.2|9=127|35=D|34=15|49=TESTINI|52=20100224-15:44:53.609|56=TESTACC|11=QUANT0009|21=1|38=1388000|40=1|54=2|55=CTNM4|60=20100224-12:44:53|10=002|
8=FIX.4.2|9=126|35=D|34=16|49=TESTINI|52=20100224-15:44:53.609|56=TESTACC|11=QUANT0010|21=1|38=293820|40=1|54=2|55=CYRE3|60=20100224-12:44:53|10=206|
8=FIX.4.2|9=126|35=D|34=17|49=TESTINI|52=20100224-15:44:53.609|56=TESTACC|11=QUANT0011|21=1|38=207112|40=1|54=2|55=ELET3|60=20100224-12:44:53|10=188|
8=FIX.4.2|9=125|35=D|34=18|49=TESTINI|52=20100224-15:44:53.609|56=TESTACC|11=QUANT0012|21=1|38=36571|40=1|54=2|55=ELET6|60=20100224-12:44:53|10=153|
8=FIX.4.2|9=126|35=D|34=19|49=TESTINI|52=20100224-15:44:53.609|56=TESTACC|11=QUANT0013|21=1|38=199218|40=1|54=2|55=EMBR3|60=20100224-12:44:53|10=205|
8=FIX.4.2|9=126|35=D|34=20|49=TESTINI|52=20100224-15:44:53.609|56=TESTACC|11=QUANT0014|21=1|38=320000|40=1|54=2|55=ETER3|60=20100224-12:44:53|10=183|
8=FIX.4.2|9=126|35=D|34=21|49=TESTINI|52=20100224-15:44:53.609|56=TESTACC|11=QUANT0015|21=1|38=123300|40=1|54=2|55=INEP4|60=20100224-12:44:53|10=186|
8=FIX.4.2|9=127|35=D|34=22|49=TESTINI|52=20100224-15:44:53.609|56=TESTACC|11=QUANT0016|21=1|38=1073980|40=1|54=2|55=KLBN4|60=20100224-12:44:53|10=251|
8=FIX.4.2|9=126|35=D|34=23|49=TESTINI|52=20100224-15:44:53.625|56=TESTACC|11=QUANT0017|21=1|38=101376|40=1|54=2|55=LREN3|60=20100224-12:44:53|10=201|
8=FIX.4.2|9=126|35=D|34=24|49=TESTINI|52=20100224-15:44:53.625|56=TESTACC|11=QUANT0018|21=1|38=326154|40=1|54=2|55=BRFS3|60=20100224-12:44:53|10=202|
8=FIX.4.2|9=126|35=D|34=25|49=TESTINI|52=20100224-15:44:53.625|56=TESTACC|11=QUANT0019|21=1|38=158929|40=1|54=2|55=RAPT4|60=20100224-12:44:53|10=228|
8=FIX.4.2|9=126|35=D|34=26|49=TESTINI|52=20100224-15:44:53.625|56=TESTACC|11=QUANT0020|21=1|38=240074|40=1|54=2|55=RSID3|60=20100224-12:44:53|10=198|
8=FIX.4.2|9=125|35=D|34=27|49=TESTINI|52=20100224-15:44:53.625|56=TESTACC|11=QUANT0021|21=1|38=70700|40=1|54=2|55=SZPQ4|60=20100224-12:44:53|10=177|
8=FIX.4.2|9=125|35=D|34=28|49=TESTINI|52=20100224-15:44:53.625|56=TESTACC|11=QUANT0022|21=1|38=82000|40=1|54=1|55=TLPP4|60=20100224-12:44:53|10=160|
8=FIX.4.2|9=126|35=D|34=29|49=TESTINI|52=20100224-15:44:53.625|56=TESTACC|11=QUANT0023|21=1|38=319350|40=1|54=1|55=TNLP4|60=20100224-12:44:53|10=220|
8=FIX.4.2|9=125|35=D|34=30|49=TESTINI|52=20100224-15:44:53.625|56=TESTACC|11=QUANT0024|21=1|38=82828|40=1|54=2|55=TOTS3|60=20100224-12:44:53|10=183|
8=FIX.4.2|9=127|35=D|34=31|49=TESTINI|52=20100224-15:44:53.625|56=TESTACC|11=QUANT0025|21=1|38=2731500|40=1|54=2|55=UNIP6|60=20100224-12:44:53|10=006|
8=FIX.4.2|9=126|35=D|34=32|49=TESTINI|52=20100224-15:44:53.625|56=TESTACC|11=QUANT0026|21=1|38=208242|40=1|54=1|55=USIM5|60=20100224-12:44:53|10=215|
8=FIX.4.2|9=126|35=D|34=33|49=TESTINI|52=20100224-15:44:53.625|56=TESTACC|11=QUANT0027|21=1|38=819190|40=1|54=2|55=WEGE3|60=20100224-12:44:53|10=204|
8=FIX.4.2|9=125|35=D|34=34|49=TESTINI|52=20100224-15:44:53.625|56=TESTACC|11=QUANT0028|21=1|38=27363|40=1|54=2|55=GVTT3|60=20100224-12:44:53|10=179|
8=FIX.4.2|9=127|35=D|34=35|49=TESTINI|52=20100224-15:44:53.625|56=TESTACC|11=QUANT0029|21=1|38=1118722|40=1|54=2|55=SLCE3|60=20100224-12:44:53|10=250|
8=FIX.4.2|9=125|35=D|34=36|49=TESTINI|52=20100224-15:44:53.640|56=TESTACC|11=QUANT0030|21=1|38=55759|40=1|54=2|55=BVMF3|60=20100224-12:44:53|10=155|
8=FIX.4.2|9=57|35=0|34=7|49=TESTACC|52=20100224-15:45:16.719|56=TESTINI|10=005|
8=FIX.4.2|9=58|35=0|34=37|49=TESTINI|52=20100224-15:45:53.532|56=TESTACC|10=051|
8=FIX.4.2|9=57|35=0|34=8|49=TESTACC|52=20100224-15:46:16.735|56=TESTINI|10=005|
8=FIX.4.2|9=58|35=0|34=38|49=TESTINI|52=20100224-15:46:53.637|56=TESTACC|10=059|
8=FIX.4.2|9=70|35=A|34=39|49=TESTINI|52=20100224-15:56:15.163|56=TESTACC|98=0|108=60|10=092|
8=FIX.4.2|9=69|35=A|34=9|49=TESTACC|52=20100224-15:56:15.210|56=TESTINI|98=0|108=60|10=042|
8=FIX.4.2|9=126|35=D|34=40|49=TESTINI|52=20100224-15:56:19.912|56=TESTACC|11=QUANT0001|21=1|38=180156|40=1|54=1|55=PETR4|60=20100224-12:56:19|10=215|
8=FIX.4.2|9=125|35=D|34=41|49=TESTINI|52=20100224-15:56:19.912|56=TESTACC|11=QUANT0002|21=1|38=81939|40=1|54=1|55=VALE5|60=20100224-12:56:19|10=159|
8=FIX.4.2|9=126|35=D|34=42|49=TESTINI|52=20100224-15:56:19.912|56=TESTACC|11=QUANT0003|21=1|38=240634|40=1|54=1|55=BBAS3|60=20100224-12:56:19|10=181|
8=FIX.4.2|9=125|35=D|34=43|49=TESTINI|52=20100224-15:56:19.912|56=TESTACC|11=QUANT0004|21=1|38=28700|40=1|54=2|55=BNCA3|60=20100224-12:56:19|10=129|
8=FIX.4.2|9=127|35=D|34=44|49=TESTINI|52=20100224-15:56:19.912|56=TESTACC|11=QUANT0005|21=1|38=1098622|40=1|54=2|55=BRKM5|60=20100224-12:56:19|10=010|
8=FIX.4.2|9=126|35=D|34=45|49=TESTINI|52=20100224-15:56:19.912|56=TESTACC|11=QUANT0006|21=1|38=608417|40=1|54=2|55=CCRO3|60=20100224-12:56:19|10=210|
8=FIX.4.2|9=125|35=D|34=46|49=TESTINI|52=20100224-15:56:19.928|56=TESTACC|11=QUANT0007|21=1|38=42000|40=1|54=2|55=CPLE3|60=20100224-12:56:19|10=147|
8=FIX.4.2|9=125|35=D|34=47|49=TESTINI|52=20100224-15:56:19.928|56=TESTACC|11=QUANT0008|21=1|38=24560|40=1|54=1|55=CSNA3|60=20100224-12:56:19|10=160|
8=FIX.4.2|9=127|35=D|34=48|49=TESTINI|52=20100224-15:56:19.928|56=TESTACC|11=QUANT0009|21=1|38=1388000|40=1|54=2|55=CTNM4|60=20100224-12:56:19|10=022|
8=FIX.4.2|9=126|35=D|34=49|49=TESTINI|52=20100224-15:56:19.928|56=TESTACC|11=QUANT0010|21=1|38=293820|40=1|54=2|55=CYRE3|60=20100224-12:56:19|10=226|
8=FIX.4.2|9=126|35=D|34=50|49=TESTINI|52=20100224-15:56:19.928|56=TESTACC|11=QUANT0011|21=1|38=207112|40=1|54=2|55=ELET3|60=20100224-12:56:19|10=199|
8=FIX.4.2|9=125|35=D|34=51|49=TESTINI|52=20100224-15:56:19.928|56=TESTACC|11=QUANT0012|21=1|38=36571|40=1|54=2|55=ELET6|60=20100224-12:56:19|10=164|
8=FIX.4.2|9=126|35=D|34=52|49=TESTINI|52=20100224-15:56:19.928|56=TESTACC|11=QUANT0013|21=1|38=199218|40=1|54=2|55=EMBR3|60=20100224-12:56:19|10=216|
8=FIX.4.2|9=126|35=D|34=53|49=TESTINI|52=20100224-15:56:19.928|56=TESTACC|11=QUANT0014|21=1|38=320000|40=1|54=2|55=ETER3|60=20100224-12:56:19|10=203|
8=FIX.4.2|9=126|35=D|34=54|49=TESTINI|52=20100224-15:56:19.928|56=TESTACC|11=QUANT0015|21=1|38=123300|40=1|54=2|55=INEP4|60=20100224-12:56:19|10=206|
8=FIX.4.2|9=127|35=D|34=55|49=TESTINI|52=20100224-15:56:19.928|56=TESTACC|11=QUANT0016|21=1|38=1073980|40=1|54=2|55=KLBN4|60=20100224-12:56:19|10=015|
8=FIX.4.2|9=125|35=D|34=56|49=TESTINI|52=20100224-15:56:19.928|56=TESTACC|11=QUANT0017|21=1|38=98376|40=1|54=2|55=LREN3|60=20100224-12:56:19|10=189|
8=FIX.4.2|9=126|35=D|34=57|49=TESTINI|52=20100224-15:56:19.928|56=TESTACC|11=QUANT0018|21=1|38=326154|40=1|54=2|55=BRFS3|60=20100224-12:56:19|10=224|
8=FIX.4.2|9=126|35=D|34=58|49=TESTINI|52=20100224-15:56:19.928|56=TESTACC|11=QUANT0019|21=1|38=158929|40=1|54=2|55=RAPT4|60=20100224-12:56:19|10=250|
8=FIX.4.2|9=126|35=D|34=59|49=TESTINI|52=20100224-15:56:19.928|56=TESTACC|11=QUANT0020|21=1|38=240074|40=1|54=2|55=RSID3|60=20100224-12:56:19|10=220|
8=FIX.4.2|9=125|35=D|34=60|49=TESTINI|52=20100224-15:56:19.928|56=TESTACC|11=QUANT0021|21=1|38=70700|40=1|54=2|55=SZPQ4|60=20100224-12:56:19|10=190|
8=FIX.4.2|9=125|35=D|34=61|49=TESTINI|52=20100224-15:56:19.928|56=TESTACC|11=QUANT0022|21=1|38=82000|40=1|54=1|55=TLPP4|60=20100224-12:56:19|10=173|
8=FIX.4.2|9=126|35=D|34=62|49=TESTINI|52=20100224-15:56:19.928|56=TESTACC|11=QUANT0023|21=1|38=319350|40=1|54=1|55=TNLP4|60=20100224-12:56:19|10=233|
8=FIX.4.2|9=125|35=D|34=63|49=TESTINI|52=20100224-15:56:19.943|56=TESTACC|11=QUANT0024|21=1|38=82828|40=1|54=2|55=TOTS3|60=20100224-12:56:19|10=202|
8=FIX.4.2|9=127|35=D|34=64|49=TESTINI|52=20100224-15:56:19.943|56=TESTACC|11=QUANT0025|21=1|38=2731500|40=1|54=2|55=UNIP6|60=20100224-12:56:19|10=025|
8=FIX.4.2|9=126|35=D|34=65|49=TESTINI|52=20100224-15:56:19.943|56=TESTACC|11=QUANT0026|21=1|38=208242|40=1|54=1|55=USIM5|60=20100224-12:56:19|10=234|
8=FIX.4.2|9=126|35=D|34=66|49=TESTINI|52=20100224-15:56:19.943|56=TESTACC|11=QUANT0027|21=1|38=819190|40=1|54=2|55=WEGE3|60=20100224-12:56:19|10=223|
8=FIX.4.2|9=125|35=D|34=67|49=TESTINI|52=20100224-15:56:19.943|56=TESTACC|11=QUANT0028|21=1|38=27363|40=1|54=2|55=GVTT3|60=20100224-12:56:19|10=198|
8=FIX.4.2|9=127|35=D|34=68|49=TESTINI|52=20100224-15:56:19.943|56=TESTACC|11=QUANT0029|21=1|38=1118722|40=1|54=2|55=SLCE3|60=20100224-12:56:19|10=013|
8=FIX.4.2|9=125|35=D|34=69|49=TESTINI|52=20100224-15:56:19.943|56=TESTACC|11=QUANT0030|21=1|38=55759|40=1|54=2|55=BVMF3|60=20100224-12:56:19|10=177|
8=FIX.4.2|9=58|35=0|34=10|49=TESTACC|52=20100224-15:57:15.877|56=TESTINI|10=055|
8=FIX.4.2|9=58|35=0|34=70|49=TESTINI|52=20100224-15:57:19.252|56=TESTACC|10=052|
8=FIX.4.2|9=58|35=0|34=11|49=TESTACC|52=20100224-15:58:15.922|56=TESTINI|10=048|
8=FIX.4.2|9=58|35=0|34=71|49=TESTINI|52=20100224-15:58:19.297|56=TESTACC|10=063|
8=FIX.4.2|9=58|35=0|34=12|49=TESTACC|52=20100224-15:59:15.999|56=TESTINI|10=064|
8=FIX.4.2|9=58|35=0|34=72|49=TESTINI|52=20100224-15:59:19.327|56=TESTACC|10=059|
8=FIX.4.2|9=70|35=A|34=73|49=TESTINI|52=20100224-18:27:59.559|56=TESTACC|98=0|108=60|10=108|
8=FIX.4.2|9=70|35=A|34=13|49=TESTACC|52=20100224-18:27:59.606|56=TESTINI|98=0|108=60|10=095|
8=FIX.4.2|9=126|35=D|34=74|49=TESTINI|52=20100224-18:28:04.590|56=TESTACC|11=QUANT0001|21=1|38=180156|40=1|54=1|55=PETR4|60=20100224-15:28:04|10=216|
8=FIX.4.2|9=125|35=D|34=75|49=TESTINI|52=20100224-18:28:04.590|56=TESTACC|11=QUANT0002|21=1|38=81939|40=1|54=1|55=VALE5|60=20100224-15:28:04|10=160|
8=FIX.4.2|9=126|35=D|34=76|49=TESTINI|52=20100224-18:28:04.590|56=TESTACC|11=QUANT0003|21=1|38=240634|40=1|54=1|55=BBAS3|60=20100224-15:28:04|10=182|
8=FIX.4.2|9=125|35=D|34=77|49=TESTINI|52=20100224-18:28:04.590|56=TESTACC|11=QUANT0004|21=1|38=28700|40=1|54=2|55=BNCA3|60=20100224-15:28:04|10=130|
8=FIX.4.2|9=127|35=D|34=78|49=TESTINI|52=20100224-18:28:04.590|56=TESTACC|11=QUANT0005|21=1|38=1086622|40=1|54=2|55=BRKM5|60=20100224-15:28:04|10=008|
8=FIX.4.2|9=126|35=D|34=79|49=TESTINI|52=20100224-18:28:04.590|56=TESTACC|11=QUANT0006|21=1|38=608417|40=1|54=2|55=CCRO3|60=20100224-15:28:04|10=211|
8=FIX.4.2|9=125|35=D|34=80|49=TESTINI|52=20100224-18:28:04.590|56=TESTACC|11=QUANT0007|21=1|38=42000|40=1|54=2|55=CPLE3|60=20100224-15:28:04|10=132|
8=FIX.4.2|9=125|35=D|34=81|49=TESTINI|52=20100224-18:28:04.590|56=TESTACC|11=QUANT0008|21=1|38=24560|40=1|54=1|55=CSNA3|60=20100224-15:28:04|10=145|
8=FIX.4.2|9=127|35=D|34=82|49=TESTINI|52=20100224-18:28:04.590|56=TESTACC|11=QUANT0009|21=1|38=1388000|40=1|54=2|55=CTNM4|60=20100224-15:28:04|10=007|
8=FIX.4.2|9=126|35=D|34=83|49=TESTINI|52=20100224-18:28:04.590|56=TESTACC|11=QUANT0010|21=1|38=293820|40=1|54=2|55=CYRE3|60=20100224-15:28:04|10=211|
8=FIX.4.2|9=126|35=D|34=84|49=TESTINI|52=20100224-18:28:04.590|56=TESTACC|11=QUANT0011|21=1|38=207112|40=1|54=2|55=ELET3|60=20100224-15:28:04|10=193|
8=FIX.4.2|9=125|35=D|34=85|49=TESTINI|52=20100224-18:28:04.590|56=TESTACC|11=QUANT0012|21=1|38=36571|40=1|54=2|55=ELET6|60=20100224-15:28:04|10=158|
8=FIX.4.2|9=126|35=D|34=86|49=TESTINI|52=20100224-18:28:04.590|56=TESTACC|11=QUANT0013|21=1|38=199218|40=1|54=2|55=EMBR3|60=20100224-15:28:04|10=210|
8=FIX.4.2|9=126|35=D|34=87|49=TESTINI|52=20100224-18:28:04.590|56=TESTACC|11=QUANT0014|21=1|38=320000|40=1|54=2|55=ETER3|60=20100224-15:28:04|10=197|
8=FIX.4.2|9=126|35=D|34=88|49=TESTINI|52=20100224-18:28:04.590|56=TESTACC|11=QUANT0015|21=1|38=122000|40=1|54=2|55=INEP4|60=20100224-15:28:04|10=196|
8=FIX.4.2|9=127|35=D|34=89|49=TESTINI|52=20100224-18:28:04.590|56=TESTACC|11=QUANT0016|21=1|38=1073980|40=1|54=2|55=KLBN4|60=20100224-15:28:04|10=009|
8=FIX.4.2|9=125|35=D|34=90|49=TESTINI|52=20100224-18:28:04.606|56=TESTACC|11=QUANT0017|21=1|38=73376|40=1|54=2|55=LREN3|60=20100224-15:28:04|10=165|
8=FIX.4.2|9=126|35=D|34=91|49=TESTINI|52=20100224-18:28:04.606|56=TESTACC|11=QUANT0018|21=1|38=326154|40=1|54=2|55=BRFS3|60=20100224-15:28:04|10=207|
8=FIX.4.2|9=126|35=D|34=92|49=TESTINI|52=20100224-18:28:04.606|56=TESTACC|11=QUANT0019|21=1|38=158929|40=1|54=2|55=RAPT4|60=20100224-15:28:04|10=233|
8=FIX.4.2|9=126|35=D|34=93|49=TESTINI|52=20100224-18:28:04.606|56=TESTACC|11=QUANT0020|21=1|38=240074|40=1|54=2|55=RSID3|60=20100224-15:28:04|10=203|
8=FIX.4.2|9=125|35=D|34=94|49=TESTINI|52=20100224-18:28:04.606|56=TESTACC|11=QUANT0021|21=1|38=70600|40=1|54=2|55=SZPQ4|60=20100224-15:28:04|10=181|
8=FIX.4.2|9=125|35=D|34=95|49=TESTINI|52=20100224-18:28:04.606|56=TESTACC|11=QUANT0022|21=1|38=82000|40=1|54=1|55=TLPP4|60=20100224-15:28:04|10=165|
8=FIX.4.2|9=126|35=D|34=96|49=TESTINI|52=20100224-18:28:04.606|56=TESTACC|11=QUANT0023|21=1|38=319350|40=1|54=1|55=TNLP4|60=20100224-15:28:04|10=225|
8=FIX.4.2|9=125|35=D|34=97|49=TESTINI|52=20100224-18:28:04.606|56=TESTACC|11=QUANT0024|21=1|38=82828|40=1|54=2|55=TOTS3|60=20100224-15:28:04|10=197|
8=FIX.4.2|9=127|35=D|34=98|49=TESTINI|52=20100224-18:28:04.606|56=TESTACC|11=QUANT0025|21=1|38=2731500|40=1|54=2|55=UNIP6|60=20100224-15:28:04|10=020|
8=FIX.4.2|9=126|35=D|34=99|49=TESTINI|52=20100224-18:28:04.606|56=TESTACC|11=QUANT0026|21=1|38=208242|40=1|54=1|55=USIM5|60=20100224-15:28:04|10=229|
8=FIX.4.2|9=127|35=D|34=100|49=TESTINI|52=20100224-18:28:04.606|56=TESTACC|11=QUANT0027|21=1|38=815190|40=1|54=2|55=WEGE3|60=20100224-15:28:04|10=245|
8=FIX.4.2|9=126|35=D|34=101|49=TESTINI|52=20100224-18:28:04.606|56=TESTACC|11=QUANT0028|21=1|38=27363|40=1|54=2|55=GVTT3|60=20100224-15:28:04|10=224|
8=FIX.4.2|9=128|35=D|34=102|49=TESTINI|52=20100224-18:28:04.606|56=TESTACC|11=QUANT0029|21=1|38=1118722|40=1|54=2|55=SLCE3|60=20100224-15:28:04|10=039|
8=FIX.4.2|9=126|35=D|34=103|49=TESTINI|52=20100224-18:28:04.606|56=TESTACC|11=QUANT0030|21=1|38=55759|40=1|54=2|55=BVMF3|60=20100224-15:28:04|10=203|
8=FIX.4.2|9=58|35=0|34=14|49=TESTACC|52=20100224-18:28:59.604|56=TESTINI|10=056|
8=FIX.4.2|9=59|35=0|34=104|49=TESTINI|52=20100224-18:29:04.635|56=TESTACC|10=100|
8=FIX.4.2|9=58|35=0|34=15|49=TESTACC|52=20100224-18:29:59.648|56=TESTINI|10=066|
8=FIX.4.2|9=59|35=0|34=105|49=TESTINI|52=20100224-18:30:04.726|56=TESTACC|10=094|
8=FIX.4.2|9=58|35=0|34=16|49=TESTACC|52=20100224-18:30:59.740|56=TESTINI|10=052|
8=FIX.4.2|9=59|35=0|34=106|49=TESTINI|52=20100224-18:31:04.786|56=TESTACC|10=102|
8=FIX.4.2|9=58|35=0|34=17|49=TESTACC|52=20100224-18:31:59.784|56=TESTINI|10=062|
8=FIX.4.2|9=59|35=0|34=107|49=TESTINI|52=20100224-18:32:04.862|56=TESTACC|10=099|
8=FIX.4.2|9=58|35=0|34=18|49=TESTACC|52=20100224-18:32:59.876|56=TESTINI|10=066|
8=FIX.4.2|9=59|35=0|34=108|49=TESTINI|52=20100224-18:33:04.922|56=TESTACC|10=098|
8=FIX.4.2|9=58|35=0|34=19|49=TESTACC|52=20100224-18:33:59.920|56=TESTINI|10=058|
8=FIX.4.2|9=59|35=0|34=109|49=TESTINI|52=20100224-18:34:04.967|56=TESTACC|10=109|
8=FIX.4.2|9=58|35=0|34=20|49=TESTACC|52=20100224-18:34:59.965|56=TESTINI|10=060|
8=FIX.4.2|9=59|35=0|34=110|49=TESTINI|52=20100224-18:35:04.012|56=TESTACC|10=083|
8=FIX.4.2|9=69|35=A|34=1|49=TESTINI|52=20100225-21:08:56.333|56=TESTACC|98=0|108=60|10=040|
8=FIX.4.2|9=69|35=A|34=1|49=TESTACC|52=20100225-21:08:56.411|56=TESTINI|98=0|108=60|10=037|
8=FIX.4.2|9=123|35=D|34=2|49=TESTINI|52=20100225-21:09:12.099|56=TESTACC|11=QUANT0001|21=1|38=6745|40=1|54=1|55=PETR4|60=20100225-18:09:12|10=060|
8=FIX.4.2|9=125|35=D|34=3|49=TESTINI|52=20100225-21:09:12.114|56=TESTACC|11=QUANT0002|21=1|38=125425|40=1|54=1|55=VALE5|60=20100225-18:09:12|10=127|
8=FIX.4.2|9=125|35=D|34=4|49=TESTINI|52=20100225-21:09:12.114|56=TESTACC|11=QUANT0003|21=1|38=240108|40=1|54=1|55=BBAS3|60=20100225-18:09:12|10=107|
8=FIX.4.2|9=124|35=D|34=5|49=TESTINI|52=20100225-21:09:12.114|56=TESTACC|11=QUANT0004|21=1|38=28700|40=1|54=2|55=BNCA3|60=20100225-18:09:12|10=059|
8=FIX.4.2|9=125|35=D|34=6|49=TESTINI|52=20100225-21:09:12.114|56=TESTACC|11=QUANT0005|21=1|38=944581|40=1|54=2|55=BRKM5|60=20100225-18:09:12|10=150|
8=FIX.4.2|9=125|35=D|34=7|49=TESTINI|52=20100225-21:09:12.114|56=TESTACC|11=QUANT0006|21=1|38=503852|40=1|54=2|55=CCRO3|60=20100225-18:09:12|10=137|
8=FIX.4.2|9=124|35=D|34=8|49=TESTINI|52=20100225-21:09:12.114|56=TESTACC|11=QUANT0007|21=1|38=40000|40=1|54=2|55=CPLE3|60=20100225-18:09:12|10=068|
8=FIX.4.2|9=123|35=D|34=9|49=TESTINI|52=20100225-21:09:12.114|56=TESTACC|11=QUANT0008|21=1|38=2826|40=1|54=2|55=CSNA3|60=20100225-18:09:12|10=036|
8=FIX.4.2|9=127|35=D|34=10|49=TESTINI|52=20100225-21:09:12.114|56=TESTACC|11=QUANT0009|21=1|38=1388000|40=1|54=2|55=CTNM4|60=20100225-18:09:12|10=241|
8=FIX.4.2|9=126|35=D|34=11|49=TESTINI|52=20100225-21:09:12.114|56=TESTACC|11=QUANT0010|21=1|38=103697|40=1|54=2|55=CYRE3|60=20100225-18:09:12|10=191|
8=FIX.4.2|9=126|35=D|34=12|49=TESTINI|52=20100225-21:09:12.114|56=TESTACC|11=QUANT0011|21=1|38=286282|40=1|54=2|55=ELET3|60=20100225-18:09:12|10=186|
8=FIX.4.2|9=125|35=D|34=13|49=TESTINI|52=20100225-21:09:12.114|56=TESTACC|11=QUANT0012|21=1|38=17358|40=1|54=2|55=ELET6|60=20100225-18:09:12|10=138|
8=FIX.4.2|9=126|35=D|34=14|49=TESTINI|52=20100225-21:09:12.114|56=TESTACC|11=QUANT0013|21=1|38=330000|40=1|54=2|55=ETER3|60=20100225-18:09:12|10=174|
8=FIX.4.2|9=126|35=D|34=15|49=TESTINI|52=20100225-21:09:12.114|56=TESTACC|11=QUANT0014|21=1|38=120000|40=1|54=2|55=INEP4|60=20100225-18:09:12|10=170|
8=FIX.4.2|9=126|35=D|34=16|49=TESTINI|52=20100225-21:09:12.114|56=TESTACC|11=QUANT0015|21=1|38=978954|40=1|54=2|55=KLBN4|60=20100225-18:09:12|10=206|
8=FIX.4.2|9=125|35=D|34=17|49=TESTINI|52=20100225-21:09:12.114|56=TESTACC|11=QUANT0016|21=1|38=76114|40=1|54=2|55=LREN3|60=20100225-18:09:12|10=145|
8=FIX.4.2|9=126|35=D|34=18|49=TESTINI|52=20100225-21:09:12.114|56=TESTACC|11=QUANT0017|21=1|38=301342|40=1|54=2|55=BRFS3|60=20100225-18:09:12|10=186|
8=FIX.4.2|9=126|35=D|34=19|49=TESTINI|52=20100225-21:09:12.114|56=TESTACC|11=QUANT0018|21=1|38=159520|40=1|54=2|55=RAPT4|60=20100225-18:09:12|10=208|
8=FIX.4.2|9=126|35=D|34=20|49=TESTINI|52=20100225-21:09:12.114|56=TESTACC|11=QUANT0019|21=1|38=282862|40=1|54=2|55=RSID3|60=20100225-18:09:12|10=201|
8=FIX.4.2|9=125|35=D|34=21|49=TESTINI|52=20100225-21:09:12.130|56=TESTACC|11=QUANT0020|21=1|38=70900|40=1|54=2|55=SZPQ4|60=20100225-18:09:12|10=160|
8=FIX.4.2|9=126|35=D|34=22|49=TESTINI|52=20100225-21:09:12.130|56=TESTACC|11=QUANT0021|21=1|38=140151|40=1|54=2|55=TAMM4|60=20100225-18:09:12|10=176|
8=FIX.4.2|9=125|35=D|34=23|49=TESTINI|52=20100225-21:09:12.130|56=TESTACC|11=QUANT0022|21=1|38=72000|40=1|54=1|55=TLPP4|60=20100225-18:09:12|10=142|
8=FIX.4.2|9=126|35=D|34=24|49=TESTINI|52=20100225-21:09:12.130|56=TESTACC|11=QUANT0023|21=1|38=316991|40=1|54=1|55=TNLP4|60=20100225-18:09:12|10=211|
8=FIX.4.2|9=125|35=D|34=25|49=TESTINI|52=20100225-21:09:12.130|56=TESTACC|11=QUANT0024|21=1|38=80458|40=1|54=2|55=TOTS3|60=20100225-18:09:12|10=172|
8=FIX.4.2|9=127|35=D|34=26|49=TESTINI|52=20100225-21:09:12.145|56=TESTACC|11=QUANT0025|21=1|38=2254100|40=1|54=2|55=UNIP6|60=20100225-18:09:12|10=000|
8=FIX.4.2|9=125|35=D|34=27|49=TESTINI|52=20100225-21:09:12.145|56=TESTACC|11=QUANT0026|21=1|38=29607|40=1|54=2|55=USIM5|60=20100225-18:09:12|10=171|
8=FIX.4.2|9=119|35=8|34=2|49=TESTACC|52=20100225-21:09:12.145|56=TESTINI|6=0|14=0|17=001|20=0|37=001|39=0|54=1|55=PETR4|150=0|151=6745|10=089|
8=FIX.4.2|9=126|35=D|34=28|49=TESTINI|52=20100225-21:09:12.145|56=TESTACC|11=QUANT0027|21=1|38=696369|40=1|54=2|55=WEGE3|60=20100225-18:09:12|10=213|
8=FIX.4.2|9=125|35=D|34=29|49=TESTINI|52=20100225-21:09:12.145|56=TESTACC|11=QUANT0028|21=1|38=47689|40=1|54=2|55=GVTT3|60=20100225-18:09:12|10=190|
8=FIX.4.2|9=127|35=D|34=30|49=TESTINI|52=20100225-21:09:12.145|56=TESTACC|11=QUANT0029|21=1|38=1115814|40=1|54=2|55=SLCE3|60=20100225-18:09:12|10=238|
8=FIX.4.2|9=125|35=D|34=31|49=TESTINI|52=20100225-21:09:12.145|56=TESTACC|11=QUANT0030|21=1|38=61466|40=1|54=2|55=BVMF3|60=20100225-18:09:12|10=139|
8=FIX.4.2|9=121|35=8|34=3|49=TESTACC|52=20100225-21:09:12.145|56=TESTINI|6=0|14=0|17=001|20=0|37=001|39=0|54=1|55=VALE5|150=0|151=125425|10=158|
8=FIX.4.2|9=121|35=8|34=4|49=TESTACC|52=20100225-21:09:12.145|56=TESTINI|6=0|14=0|17=001|20=0|37=001|39=0|54=1|55=BBAS3|150=0|151=240108|10=137|
8=FIX.4.2|9=120|35=8|34=5|49=TESTACC|52=20100225-21:09:12.145|56=TESTINI|6=0|14=0|17=001|20=0|37=001|39=0|54=2|55=BNCA3|150=0|151=28700|10=088|
8=FIX.4.2|9=121|35=8|34=6|49=TESTACC|52=20100225-21:09:12.192|56=TESTINI|6=0|14=0|17=001|20=0|37=001|39=0|54=2|55=BRKM5|150=0|151=944581|10=180|
8=FIX.4.2|9=121|35=8|34=7|49=TESTACC|52=20100225-21:09:12.224|56=TESTINI|6=0|14=0|17=001|20=0|37=001|39=0|54=2|55=CCRO3|150=0|151=503852|10=162|
8=FIX.4.2|9=120|35=8|34=8|49=TESTACC|52=20100225-21:09:12.224|56=TESTINI|6=0|14=0|17=001|20=0|37=001|39=0|54=2|55=CPLE3|150=0|151=40000|10=092|
8=FIX.4.2|9=119|35=8|34=9|49=TESTACC|52=20100225-21:09:12.224|56=TESTINI|6=0|14=0|17=001|20=0|37=001|39=0|54=2|55=CSNA3|150=0|151=2826|10=068|
8=FIX.4.2|9=123|35=8|34=10|49=TESTACC|52=20100225-21:09:12.224|56=TESTINI|6=0|14=0|17=001|20=0|37=001|39=0|54=2|55=CTNM4|150=0|151=1388000|10=007|
8=FIX.4.2|9=122|35=8|34=11|49=TESTACC|52=20100225-21:09:12.224|56=TESTINI|6=0|14=0|17=001|20=0|37=001|39=0|54=2|55=CYRE3|150=0|151=103697|10=221|
8=FIX.4.2|9=122|35=8|34=12|49=TESTACC|52=20100225-21:09:12.224|56=TESTINI|6=0|14=0|17=001|20=0|37=001|39=0|54=2|55=ELET3|150=0|151=286282|10=215|
8=FIX.4.2|9=121|35=8|34=13|49=TESTACC|52=20100225-21:09:12.224|56=TESTINI|6=0|14=0|17=001|20=0|37=001|39=0|54=2|55=ELET6|150=0|151=17358|10=166|
8=FIX.4.2|9=122|35=8|34=14|49=TESTACC|52=20100225-21:09:12.224|56=TESTINI|6=0|14=0|17=001|20=0|37=001|39=0|54=2|55=ETER3|150=0|151=330000|10=201|
8=FIX.4.2|9=122|35=8|34=15|49=TESTACC|52=20100225-21:09:12.224|56=TESTINI|6=0|14=0|17=001|20=0|37=001|39=0|54=2|55=INEP4|150=0|151=120000|10=196|
8=FIX.4.2|9=122|35=8|34=16|49=TESTACC|52=20100225-21:09:12.224|56=TESTINI|6=0|14=0|17=001|20=0|37=001|39=0|54=2|55=KLBN4|150=0|151=978954|10=231|
8=FIX.4.2|9=121|35=8|34=17|49=TESTACC|52=20100225-21:09:12.224|56=TESTINI|6=0|14=0|17=001|20=0|37=001|39=0|54=2|55=LREN3|150=0|151=76114|10=169|
8=FIX.4.2|9=122|35=8|34=18|49=TESTACC|52=20100225-21:09:12.239|56=TESTINI|6=0|14=0|17=001|20=0|37=001|39=0|54=2|55=BRFS3|150=0|151=301342|10=215|
8=FIX.4.2|9=122|35=8|34=19|49=TESTACC|52=20100225-21:09:12.239|56=TESTINI|6=0|14=0|17=001|20=0|37=001|39=0|54=2|55=RAPT4|150=0|151=159520|10=236|
8=FIX.4.2|9=122|35=8|34=20|49=TESTACC|52=20100225-21:09:12.239|56=TESTINI|6=0|14=0|17=001|20=0|37=001|39=0|54=2|55=RSID3|150=0|151=282862|10=228|
8=FIX.4.2|9=121|35=8|34=21|49=TESTACC|52=20100225-21:09:12.239|56=TESTINI|6=0|14=0|17=001|20=0|37=001|39=0|54=2|55=SZPQ4|150=0|151=70900|10=197|
8=FIX.4.2|9=122|35=8|34=22|49=TESTACC|52=20100225-21:09:12.239|56=TESTINI|6=0|14=0|17=001|20=0|37=001|39=0|54=2|55=TAMM4|150=0|151=140151|10=212|
8=FIX.4.2|9=121|35=8|34=23|49=TESTACC|52=20100225-21:09:12.239|56=TESTINI|6=0|14=0|17=001|20=0|37=001|39=0|54=1|55=TLPP4|150=0|151=72000|10=177|
8=FIX.4.2|9=122|35=8|34=24|49=TESTACC|52=20100225-21:09:12.239|56=TESTINI|6=0|14=0|17=001|20=0|37=001|39=0|54=1|55=TNLP4|150=0|151=316991|10=245|
8=FIX.4.2|9=121|35=8|34=25|49=TESTACC|52=20100225-21:09:12.239|56=TESTINI|6=0|14=0|17=001|20=0|37=001|39=0|54=2|55=TOTS3|150=0|151=80458|10=205|
8=FIX.4.2|9=123|35=8|34=26|49=TESTACC|52=20100225-21:09:12.239|56=TESTINI|6=0|14=0|17=001|20=0|37=001|39=0|54=2|55=UNIP6|150=0|151=2254100|10=026|
8=FIX.4.2|9=121|35=8|34=27|49=TESTACC|52=20100225-21:09:12.239|56=TESTINI|6=0|14=0|17=001|20=0|37=001|39=0|54=2|55=USIM5|150=0|151=29607|10=196|
8=FIX.4.2|9=122|35=8|34=28|49=TESTACC|52=20100225-21:09:12.239|56=TESTINI|6=0|14=0|17=001|20=0|37=001|39=0|54=2|55=WEGE3|150=0|151=696369|10=237|
8=FIX.4.2|9=121|35=8|34=29|49=TESTACC|52=20100225-21:09:12.239|56=TESTINI|6=0|14=0|17=001|20=0|37=001|39=0|54=2|55=GVTT3|150=0|151=47689|10=213|
8=FIX.4.2|9=123|35=8|34=30|49=TESTACC|52=20100225-21:09:12.239|56=TESTINI|6=0|14=0|17=001|20=0|37=001|39=0|54=2|55=SLCE3|150=0|151=1115814|10=004|
8=FIX.4.2|9=121|35=8|34=31|49=TESTACC|52=20100225-21:09:12.239|56=TESTINI|6=0|14=0|17=001|20=0|37=001|39=0|54=2|55=BVMF3|150=0|151=61466|10=169|
8=FIX.4.2|9=58|35=0|34=32|49=TESTACC|52=20100225-21:10:12.051|56=TESTINI|10=027|
8=FIX.4.2|9=58|35=0|34=32|49=TESTINI|52=20100225-21:10:12.082|56=TESTACC|10=031|
8=FIX.4.2|9=70|35=A|34=91|49=TESTINI|52=20100226-21:44:21.441|56=TESTACC|98=0|108=60|10=082|
8=FIX.4.2|9=69|35=A|34=1|49=TESTACC|52=20100226-21:44:21.488|56=TESTINI|98=0|108=60|10=044|
8=FIX.4.2|9=66|35=2|34=2|49=TESTACC|52=20100226-21:44:21.488|56=TESTINI|7=1|16=0|10=122|
8=FIX.4.2|9=155|35=D|34=1|43=Y|49=TESTINI|52=20100226-21:44:21.503|56=TESTACC|122=20100226-21:34:50.134|11=QUANT0001|21=1|38=50232|40=1|54=2|55=PETR4|60=20100226-18:34:50|10=082|
8=FIX.4.2|9=155|35=D|34=2|43=Y|49=TESTINI|52=20100226-21:44:21.503|56=TESTACC|122=20100226-21:34:50.134|11=QUANT0002|21=1|38=77705|40=1|54=1|55=VALE5|60=20100226-18:34:50|10=079|
8=FIX.4.2|9=156|35=D|34=3|43=Y|49=TESTINI|52=20100226-21:44:21.503|56=TESTACC|122=20100226-21:34:50.134|11=QUANT0003|21=1|38=240011|40=1|54=1|55=BBAS3|60=20100226-18:34:50|10=094|
8=FIX.4.2|9=155|35=D|34=4|43=Y|49=TESTINI|52=20100226-21:44:21.503|56=TESTACC|122=20100226-21:34:50.134|11=QUANT0004|21=1|38=28100|40=1|54=2|55=BNCA3|60=20100226-18:34:50|10=047|
8=FIX.4.2|9=156|35=D|34=5|43=Y|49=TESTINI|52=20100226-21:44:21.503|56=TESTACC|122=20100226-21:34:50.134|11=QUANT0005|21=1|38=865371|40=1|54=2|55=BRKM5|60=20100226-18:34:50|10=143|
8=FIX.4.2|9=156|35=D|34=6|43=Y|49=TESTINI|52=20100226-21:44:21.503|56=TESTACC|122=20100226-21:34:50.134|11=QUANT0006|21=1|38=336537|40=1|54=2|55=CCRO3|60=20100226-18:34:50|10=135|
8=FIX.4.2|9=155|35=D|34=7|43=Y|49=TESTINI|52=20100226-21:44:21.503|56=TESTACC|122=20100226-21:34:50.134|11=QUANT0007|21=1|38=40000|40=1|54=2|55=CPLE3|60=20100226-18:34:50|10=062|
8=FIX.4.2|9=155|35=D|34=8|43=Y|49=TESTINI|52=20100226-21:44:21.503|56=TESTACC|122=20100226-21:34:50.149|11=QUANT0008|21=1|38=18390|40=1|54=2|55=CSNA3|60=20100226-18:34:50|10=088|
8=FIX.4.2|9=157|35=D|34=9|43=Y|49=TESTINI|52=20100226-21:44:21.503|56=TESTACC|122=20100226-21:34:50.149|11=QUANT0009|21=1|38=1385300|40=1|54=2|55=CTNM4|60=20100226-18:34:50|10=201|
8=FIX.4.2|9=156|35=D|34=10|43=Y|49=TESTINI|52=20100226-21:44:21.503|56=TESTACC|122=20100226-21:34:50.149|11=QUANT0010|21=1|38=57627|40=1|54=1|55=CYRE3|60=20100226-18:34:50|10=142|
8=FIX.4.2|9=157|35=D|34=11|43=Y|49=TESTINI|52=20100226-21:44:21.503|56=TESTACC|122=20100226-21:34:50.149|11=QUANT0011|21=1|38=307807|40=1|54=2|55=ELET3|60=20100226-18:34:50|10=183|
8=FIX.4.2|9=156|35=D|34=12|43=Y|49=TESTINI|52=20100226-21:44:21.503|56=TESTACC|122=20100226-21:34:50.149|11=QUANT0012|21=1|38=16919|40=1|54=2|55=ELET6|60=20100226-18:34:50|10=140|
8=FIX.4.2|9=157|35=D|34=13|43=Y|49=TESTINI|52=20100226-21:44:21.503|56=TESTACC|122=20100226-21:34:50.149|11=QUANT0013|21=1|38=330000|40=1|54=2|55=ETER3|60=20100226-18:34:50|10=174|
8=FIX.4.2|9=157|35=D|34=14|43=Y|49=TESTINI|52=20100226-21:44:21.503|56=TESTACC|122=20100226-21:34:50.149|11=QUANT0014|21=1|38=206767|40=1|54=2|55=GGBR4|60=20100226-18:34:50|10=185|
8=FIX.4.2|9=157|35=D|34=15|43=Y|49=TESTINI|52=20100226-21:44:21.503|56=TESTACC|122=20100226-21:34:50.149|11=QUANT0015|21=1|38=120000|40=1|54=2|55=INEP4|60=20100226-18:34:50|10=172|
8=FIX.4.2|9=156|35=D|34=16|43=Y|49=TESTINI|52=20100226-21:44:21.503|56=TESTACC|122=20100226-21:34:50.149|11=QUANT0016|21=1|38=38872|40=1|54=2|55=ITUB4|60=20100226-18:34:50|10=158|
8=FIX.4.2|9=157|35=D|34=17|43=Y|49=TESTINI|52=20100226-21:44:21.503|56=TESTACC|122=20100226-21:34:50.149|11=QUANT0017|21=1|38=602038|40=1|54=2|55=KLBN4|60=20100226-18:34:50|10=187|
8=FIX.4.2|9=157|35=D|34=18|43=Y|49=TESTINI|52=20100226-21:44:21.503|56=TESTACC|122=20100226-21:34:50.149|11=QUANT0018|21=1|38=141673|40=1|54=2|55=BRFS3|60=20100226-18:34:50|10=197|
8=FIX.4.2|9=157|35=D|34=19|43=Y|49=TESTINI|52=20100226-21:44:21.503|56=TESTACC|122=20100226-21:34:50.149|11=QUANT0019|21=1|38=159719|40=1|54=2|55=RAPT4|60=20100226-18:34:50|10=220|
8=FIX.4.2|9=156|35=D|34=20|43=Y|49=TESTINI|52=20100226-21:44:21.503|56=TESTACC|122=20100226-21:34:50.149|11=QUANT0020|21=1|38=38312|40=1|54=2|55=RSID3|60=20100226-18:34:50|10=134|
8=FIX.4.2|9=156|35=D|34=21|43=Y|49=TESTINI|52=20100226-21:44:21.503|56=TESTACC|122=20100226-21:34:50.149|11=QUANT0021|21=1|38=70900|40=1|54=2|55=SZPQ4|60=20100226-18:34:50|10=164|
8=FIX.4.2|9=156|35=D|34=22|43=Y|49=TESTINI|52=20100226-21:44:21.503|56=TESTACC|122=20100226-21:34:50.149|11=QUANT0022|21=1|38=88825|40=1|54=2|55=TAMM4|60=20100226-18:34:50|10=150|
8=FIX.4.2|9=156|35=D|34=23|43=Y|49=TESTINI|52=20100226-21:44:21.503|56=TESTACC|122=20100226-21:34:50.149|11=QUANT0023|21=1|38=54000|40=1|54=1|55=TLPP4|60=20100226-18:34:50|10=146|
8=FIX.4.2|9=157|35=D|34=24|43=Y|49=TESTINI|52=20100226-21:44:21.503|56=TESTACC|122=20100226-21:34:50.149|11=QUANT0024|21=1|38=304867|40=1|54=1|55=TNLP4|60=20100226-18:34:50|10=214|
8=FIX.4.2|9=156|35=D|34=25|43=Y|49=TESTINI|52=20100226-21:44:21.503|56=TESTACC|122=20100226-21:34:50.165|11=QUANT0025|21=1|38=55504|40=1|54=2|55=TOTS3|60=20100226-18:34:50|10=168|
8=FIX.4.2|9=158|35=D|34=26|43=Y|49=TESTINI|52=20100226-21:44:21.503|56=TESTACC|122=20100226-21:34:50.165|11=QUANT0026|21=1|38=1360000|40=1|54=2|55=UNIP6|60=20100226-18:34:50|10=248|
8=FIX.4.2|9=157|35=D|34=27|43=Y|49=TESTINI|52=20100226-21:44:21.503|56=TESTACC|122=20100226-21:34:50.165|11=QUANT0027|21=1|38=535304|40=1|54=2|55=WEGE3|60=20100226-18:34:50|10=188|
8=FIX.4.2|9=157|35=D|34=28|43=Y|49=TESTINI|52=20100226-21:44:21.503|56=TESTACC|122=20100226-21:34:50.165|11=QUANT0028|21=1|38=147722|40=1|54=2|55=GVTT3|60=20100226-18:34:50|10=222|
8=FIX.4.2|9=158|35=D|34=29|43=Y|49=TESTINI|52=20100226-21:44:21.503|56=TESTACC|122=20100226-21:34:50.165|11=QUANT0029|21=1|38=1123892|40=1|54=2|55=SLCE3|60=20100226-18:34:50|10=246|
8=FIX.4.2|9=156|35=D|34=30|43=Y|49=TESTINI|52=20100226-21:44:21.503|56=TESTACC|122=20100226-21:34:50.165|11=QUANT0030|21=1|38=62983|40=1|54=2|55=BVMF3|60=20100226-18:34:50|10=138|
8=FIX.4.2|9=156|35=D|34=31|43=Y|49=TESTINI|52=20100226-21:44:21.503|56=TESTACC|122=20100226-21:38:59.693|11=QUANT0001|21=1|38=50232|40=1|54=2|55=PETR4|60=20100226-18:38:59|10=170|
8=FIX.4.2|9=156|35=D|34=32|43=Y|49=TESTINI|52=20100226-21:44:21.503|56=TESTACC|122=20100226-21:38:59.709|11=QUANT0002|21=1|38=77705|40=1|54=1|55=VALE5|60=20100226-18:38:59|10=165|
8=FIX.4.2|9=157|35=D|34=33|43=Y|49=TESTINI|52=20100226-21:44:21.503|56=TESTACC|122=20100226-21:38:59.709|11=QUANT0003|21=1|38=240011|40=1|54=1|55=BBAS3|60=20100226-18:38:59|10=180|
8=FIX.4.2|9=156|35=D|34=34|43=Y|49=TESTINI|52=20100226-21:44:21.503|56=TESTACC|122=20100226-21:38:59.709|11=QUANT0004|21=1|38=28100|40=1|54=2|55=BNCA3|60=20100226-18:38:59|10=133|
8=FIX.4.2|9=157|35=D|34=35|43=Y|49=TESTINI|52=20100226-21:44:21.503|56=TESTACC|122=20100226-21:38:59.709|11=QUANT0005|21=1|38=818971|40=1|54=2|55=BRKM5|60=20100226-18:38:59|10=233|
8=FIX.4.2|9=157|35=D|34=36|43=Y|49=TESTINI|52=20100226-21:44:21.503|56=TESTACC|122=20100226-21:38:59.709|11=QUANT0006|21=1|38=290137|40=1|54=2|55=CCRO3|60=20100226-18:38:59|10=216|
8=FIX.4.2|9=156|35=D|34=37|43=Y|49=TESTINI|52=20100226-21:44:21.503|56=TESTACC|122=20100226-21:38:59.709|11=QUANT0007|21=1|38=40000|40=1|54=2|55=CPLE3|60=20100226-18:38:59|10=148|
8=FIX.4.2|9=156|35=D|34=38|43=Y|49=TESTINI|52=20100226-21:44:21.503|56=TESTACC|122=20100226-21:38:59.709|11=QUANT0008|21=1|38=18390|40=1|54=2|55=CSNA3|60=20100226-18:38:59|10=168|
8=FIX.4.2|9=158|35=D|34=39|43=Y|49=TESTINI|52=20100226-21:44:21.503|56=TESTACC|122=20100226-21:38:59.709|11=QUANT0009|21=1|38=1385300|40=1|54=2|55=CTNM4|60=20100226-18:38:59|10=025|
8=FIX.4.2|9=156|35=D|34=40|43=Y|49=TESTINI|52=20100226-21:44:21.503|56=TESTACC|122=20100226-21:38:59.709|11=QUANT0010|21=1|38=57627|40=1|54=1|55=CYRE3|60=20100226-18:38:59|10=173|
8=FIX.4.2|9=157|35=D|34=41|43=Y|49=TESTINI|52=20100226-21:44:21.503|56=TESTACC|122=20100226-21:38:59.709|11=QUANT0011|21=1|38=307807|40=1|54=2|55=ELET3|60=20100226-18:38:59|10=214|
8=FIX.4.2|9=156|35=D|34=42|43=Y|49=TESTINI|52=20100226-21:44:21.503|56=TESTACC|122=20100226-21:38:59.709|11=QUANT0012|21=1|38=16919|40=1|54=2|55=ELET6|60=20100226-18:38:59|10=171|
8=FIX.4.2|9=157|35=D|34=43|43=Y|49=TESTINI|52=20100226-21:44:21.503|56=TESTACC|122=20100226-21:38:59.724|11=QUANT0013|21=1|38=330000|40=1|54=2|55=ETER3|60=20100226-18:38:59|10=202|
8=FIX.4.2|9=157|35=D|34=44|43=Y|49=TESTINI|52=20100226-21:44:21.503|56=TESTACC|122=20100226-21:38:59.724|11=QUANT0014|21=1|38=206767|40=1|54=2|55=GGBR4|60=20100226-18:38:59|10=213|
8=FIX.4.2|9=157|35=D|34=45|43=Y|49=TESTINI|52=20100226-21:44:21.503|56=TESTACC|122=20100226-21:38:59.724|11=QUANT0015|21=1|38=120000|40=1|54=2|55=INEP4|60=20100226-18:38:59|10=200|
8=FIX.4.2|9=156|35=D|34=46|43=Y|49=TESTINI|52=20100226-21:44:21.503|56=TESTACC|122=20100226-21:38:59.724|11=QUANT0016|21=1|38=38872|40=1|54=2|55=ITUB4|60=20100226-18:38:59|10=186|
8=FIX.4.2|9=157|35=D|34=47|43=Y|49=TESTINI|52=20100226-21:44:21.503|56=TESTACC|122=20100226-21:38:59.740|11=QUANT0017|21=1|38=602038|40=1|54=2|55=KLBN4|60=20100226-18:38:59|10=213|
8=FIX.4.2|9=157|35=D|34=48|43=Y|49=TESTINI|52=20100226-21:44:21.503|56=TESTACC|122=20100226-21:38:59.740|11=QUANT0018|21=1|38=141673|40=1|54=2|55=BRFS3|60=20100226-18:38:59|10=223|
8=FIX.4.2|9=157|35=D|34=49|43=Y|49=TESTINI|52=20100226-21:44:21.503|56=TESTACC|122=20100226-21:38:59.740|11=QUANT0019|21=1|38=159719|40=1|54=2|55=RAPT4|60=20100226-18:38:59|10=246|
8=FIX.4.2|9=156|35=D|34=50|43=Y|49=TESTINI|52=20100226-21:44:21.503|56=TESTACC|122=20100226-21:38:59.740|11=QUANT0020|21=1|38=38312|40=1|54=2|55=RSID3|60=20100226-18:38:59|10=160|
8=FIX.4.2|9=156|35=D|34=51|43=Y|49=TESTINI|52=20100226-21:44:21.503|56=TESTACC|122=20100226-21:38:59.740|11=QUANT0021|21=1|38=70900|40=1|54=2|55=SZPQ4|60=20100226-18:38:59|10=190|
8=FIX.4.2|9=156|35=D|34=52|43=Y|49=TESTINI|52=20100226-21:44:21.503|56=TESTACC|122=20100226-21:38:59.740|11=QUANT0022|21=1|38=88825|40=1|54=2|55=TAMM4|60=20100226-18:38:59|10=176|
8=FIX.4.2|9=156|35=D|34=53|43=Y|49=TESTINI|52=20100226-21:44:21.503|56=TESTACC|122=20100226-21:38:59.740|11=QUANT0023|21=1|38=54000|40=1|54=1|55=TLPP4|60=20100226-18:38:59|10=172|
8=FIX.4.2|9=157|35=D|34=54|43=Y|49=TESTINI|52=20100226-21:44:21.503|56=TESTACC|122=20100226-21:38:59.740|11=QUANT0024|21=1|38=304867|40=1|54=1|55=TNLP4|60=20100226-18:38:59|10=240|
8=FIX.4.2|9=156|35=D|34=55|43=Y|49=TESTINI|52=20100226-21:44:21.503|56=TESTACC|122=20100226-21:38:59.740|11=QUANT0025|21=1|38=55504|40=1|54=2|55=TOTS3|60=20100226-18:38:59|10=196|
8=FIX.4.2|9=158|35=D|34=56|43=Y|49=TESTINI|52=20100226-21:44:21.503|56=TESTACC|122=20100226-21:38:59.740|11=QUANT0026|21=1|38=1360000|40=1|54=2|55=UNIP6|60=20100226-18:38:59|10=020|
8=FIX.4.2|9=157|35=D|34=57|43=Y|49=TESTINI|52=20100226-21:44:21.503|56=TESTACC|122=20100226-21:38:59.756|11=QUANT0027|21=1|38=535304|40=1|54=2|55=WEGE3|60=20100226-18:38:59|10=223|
8=FIX.4.2|9=157|35=D|34=58|43=Y|49=TESTINI|52=20100226-21:44:21.503|56=TESTACC|122=20100226-21:38:59.756|11=QUANT0028|21=1|38=147722|40=1|54=2|55=GVTT3|60=20100226-18:38:59|10=001|
8=FIX.4.2|9=158|35=D|34=59|43=Y|49=TESTINI|52=20100226-21:44:21.503|56=TESTACC|122=20100226-21:38:59.756|11=QUANT0029|21=1|38=1123892|40=1|54=2|55=SLCE3|60=20100226-18:38:59|10=025|
8=FIX.4.2|9=156|35=D|34=60|43=Y|49=TESTINI|52=20100226-21:44:21.503|56=TESTACC|122=20100226-21:38:59.756|11=QUANT0030|21=1|38=62983|40=1|54=2|55=BVMF3|60=20100226-18:38:59|10=173|
8=FIX.4.2|9=156|35=D|34=61|43=Y|49=TESTINI|52=20100226-21:44:21.503|56=TESTACC|122=20100226-21:41:45.582|11=QUANT0001|21=1|38=50232|40=1|54=2|55=PETR4|60=20100226-18:41:45|10=148|
8=FIX.4.2|9=156|35=D|34=62|43=Y|49=TESTINI|52=20100226-21:44:21.503|56=TESTACC|122=20100226-21:41:45.598|11=QUANT0002|21=1|38=77705|40=1|54=1|55=VALE5|60=20100226-18:41:45|10=152|
8=FIX.4.2|9=157|35=D|34=63|43=Y|49=TESTINI|52=20100226-21:44:21.503|56=TESTACC|122=20100226-21:41:45.598|11=QUANT0003|21=1|38=240011|40=1|54=1|55=BBAS3|60=20100226-18:41:45|10=167|
8=FIX.4.2|9=156|35=D|34=64|43=Y|49=TESTINI|52=20100226-21:44:21.503|56=TESTACC|122=20100226-21:41:45.598|11=QUANT0004|21=1|38=28100|40=1|54=2|55=BNCA3|60=20100226-18:41:45|10=120|
8=FIX.4.2|9=157|35=D|34=65|43=Y|49=TESTINI|52=20100226-21:44:21.503|56=TESTACC|122=20100226-21:41:45.598|11=QUANT0005|21=1|38=785371|40=1|54=2|55=BRKM5|60=20100226-18:41:45|10=217|
8=FIX.4.2|9=157|35=D|34=66|43=Y|49=TESTINI|52=20100226-21:44:21.503|56=TESTACC|122=20100226-21:41:45.598|11=QUANT0006|21=1|38=256537|40=1|54=2|55=CCRO3|60=20100226-18:41:45|10=209|
8=FIX.4.2|9=156|35=D|34=67|43=Y|49=TESTINI|52=20100226-21:44:21.503|56=TESTACC|122=20100226-21:41:45.598|11=QUANT0007|21=1|38=40000|40=1|54=2|55=CPLE3|60=20100226-18:41:45|10=135|
8=FIX.4.2|9=156|35=D|34=68|43=Y|49=TESTINI|52=20100226-21:44:21.503|56=TESTACC|122=20100226-21:41:45.598|11=QUANT0008|21=1|38=18390|40=1|54=2|55=CSNA3|60=20100226-18:41:45|10=155|
8=FIX.4.2|9=158|35=D|34=69|43=Y|49=TESTINI|52=20100226-21:44:21.503|56=TESTACC|122=20100226-21:41:45.598|11=QUANT0009|21=1|38=1382300|40=1|54=2|55=CTNM4|60=20100226-18:41:45|10=009|
8=FIX.4.2|9=156|35=D|34=70|43=Y|49=TESTINI|52=20100226-21:44:21.503|56=TESTACC|122=20100226-21:41:45.598|11=QUANT0010|21=1|38=57627|40=1|54=1|55=CYRE3|60=20100226-18:41:45|10=160|
8=FIX.4.2|9=157|35=D|34=71|43=Y|49=TESTINI|52=20100226-21:44:21.503|56=TESTACC|122=20100226-21:41:45.598|11=QUANT0011|21=1|38=307807|40=1|54=2|55=ELET3|60=20100226-18:41:45|10=201|
8=FIX.4.2|9=156|35=D|34=72|43=Y|49=TESTINI|52=20100226-21:44:21.503|56=TESTACC|122=20100226-21:41:45.598|11=QUANT0012|21=1|38=16919|40=1|54=2|55=ELET6|60=20100226-18:41:45|10=158|
8=FIX.4.2|9=157|35=D|34=73|43=Y|49=TESTINI|52=20100226-21:44:21.503|56=TESTACC|122=20100226-21:41:45.614|11=QUANT0013|21=1|38=330000|40=1|54=2|55=ETER3|60=20100226-18:41:45|10=181|
8=FIX.4.2|9=157|35=D|34=74|43=Y|49=TESTINI|52=20100226-21:44:21.503|56=TESTACC|122=20100226-21:41:45.614|11=QUANT0014|21=1|38=206767|40=1|54=2|55=GGBR4|60=20100226-18:41:45|10=192|
8=FIX.4.2|9=157|35=D|34=75|43=Y|49=TESTINI|52=20100226-21:44:21.503|56=TESTACC|122=20100226-21:41:45.614|11=QUANT0015|21=1|38=120000|40=1|54=2|55=INEP4|60=20100226-18:41:45|10=179|
8=FIX.4.2|9=156|35=D|34=76|43=Y|49=TESTINI|52=20100226-21:44:21.503|56=TESTACC|122=20100226-21:41:45.614|11=QUANT0016|21=1|38=38872|40=1|54=2|55=ITUB4|60=20100226-18:41:45|10=165|
8=FIX.4.2|9=157|35=D|34=77|43=Y|49=TESTINI|52=20100226-21:44:21.503|56=TESTACC|122=20100226-21:41:45.614|11=QUANT0017|21=1|38=602038|40=1|54=2|55=KLBN4|60=20100226-18:41:45|10=194|
8=FIX.4.2|9=157|35=D|34=78|43=Y|49=TESTINI|52=20100226-21:44:21.503|56=TESTACC|122=20100226-21:41:45.614|11=QUANT0018|21=1|38=141673|40=1|54=2|55=BRFS3|60=20100226-18:41:45|10=204|
8=FIX.4.2|9=157|35=D|34=79|43=Y|49=TESTINI|52=20100226-21:44:21.503|56=TESTACC|122=20100226-21:41:45.614|11=QUANT0019|21=1|38=159719|40=1|54=2|55=RAPT4|60=20100226-18:41:45|10=227|
8=FIX.4.2|9=156|35=D|34=80|43=Y|49=TESTINI|52=20100226-21:44:21.503|56=TESTACC|122=20100226-21:41:45.614|11=QUANT0020|21=1|38=38312|40=1|54=2|55=RSID3|60=20100226-18:41:45|10=141|
8=FIX.4.2|9=156|35=D|34=81|43=Y|49=TESTINI|52=20100226-21:44:21.503|56=TESTACC|122=20100226-21:41:45.614|11=QUANT0021|21=1|38=70900|40=1|54=2|55=SZPQ4|60=20100226-18:41:45|10=171|
8=FIX.4.2|9=156|35=D|34=82|43=Y|49=TESTINI|52=20100226-21:44:21.503|56=TESTACC|122=20100226-21:41:45.614|11=QUANT0022|21=1|38=88825|40=1|54=2|55=TAMM4|60=20100226-18:41:45|10=157|
8=FIX.4.2|9=156|35=D|34=83|43=Y|49=TESTINI|52=20100226-21:44:21.503|56=TESTACC|122=20100226-21:41:45.614|11=QUANT0023|21=1|38=54000|40=1|54=1|55=TLPP4|60=20100226-18:41:45|10=153|
8=FIX.4.2|9=157|35=D|34=84|43=Y|49=TESTINI|52=20100226-21:44:21.503|56=TESTACC|122=20100226-21:41:45.614|11=QUANT0024|21=1|38=304867|40=1|54=1|55=TNLP4|60=20100226-18:41:45|10=221|
8=FIX.4.2|9=156|35=D|34=85|43=Y|49=TESTINI|52=20100226-21:44:21.503|56=TESTACC|122=20100226-21:41:45.614|11=QUANT0025|21=1|38=55504|40=1|54=2|55=TOTS3|60=20100226-18:41:45|10=177|
8=FIX.4.2|9=158|35=D|34=86|43=Y|49=TESTINI|52=20100226-21:44:21.503|56=TESTACC|122=20100226-21:41:45.614|11=QUANT0026|21=1|38=1360000|40=1|54=2|55=UNIP6|60=20100226-18:41:45|10=001|
8=FIX.4.2|9=157|35=D|34=87|43=Y|49=TESTINI|52=20100226-21:44:21.503|56=TESTACC|122=20100226-21:41:45.614|11=QUANT0027|21=1|38=535304|40=1|54=2|55=WEGE3|60=20100226-18:41:45|10=197|
8=FIX.4.2|9=157|35=D|34=88|43=Y|49=TESTINI|52=20100226-21:44:21.503|56=TESTACC|122=20100226-21:41:45.614|11=QUANT0028|21=1|38=147722|40=1|54=2|55=GVTT3|60=20100226-18:41:45|10=231|
8=FIX.4.2|9=158|35=D|34=89|43=Y|49=TESTINI|52=20100226-21:44:21.503|56=TESTACC|122=20100226-21:41:45.614|11=QUANT0029|21=1|38=1123892|40=1|54=2|55=SLCE3|60=20100226-18:41:45|10=255|
8=FIX.4.2|9=156|35=D|34=90|43=Y|49=TESTINI|52=20100226-21:44:21.503|56=TESTACC|122=20100226-21:41:45.614|11=QUANT0030|21=1|38=62983|40=1|54=2|55=BVMF3|60=20100226-18:41:45|10=147|
8=FIX.4.2|9=101|35=4|34=91|43=Y|49=TESTINI|52=20100226-21:44:21.519|56=TESTACC|122=20100226-21:44:21.519|36=92|123=Y|10=147|
8=FIX.4.2|9=124|35=8|34=3|49=TESTACC|52=20100226-21:44:21.503|56=TESTINI|6=0|14=25116|17=001|20=0|37=001|39=0|54=2|55=PETR4|150=0|151=25116|10=077|
8=FIX.4.2|9=128|35=8|34=4|49=TESTACC|52=20100226-21:44:21.519|56=TESTINI|6=0|14=38852.5|17=001|20=0|37=001|39=0|54=1|55=VALE5|150=0|151=38852.5|10=034|
8=FIX.4.2|9=130|35=8|34=5|49=TESTACC|52=20100226-21:44:21.519|56=TESTINI|6=0|14=120005.5|17=001|20=0|37=001|39=0|54=1|55=BBAS3|150=0|151=120005.5|10=070|
8=FIX.4.2|9=124|35=8|34=6|49=TESTACC|52=20100226-21:44:21.519|56=TESTINI|6=0|14=14050|17=001|20=0|37=001|39=0|54=2|55=BNCA3|150=0|151=14050|10=037|
8=FIX.4.2|9=130|35=8|34=7|49=TESTACC|52=20100226-21:44:21.519|56=TESTINI|6=0|14=432685.5|17=001|20=0|37=001|39=0|54=2|55=BRKM5|150=0|151=432685.5|10=135|
8=FIX.4.2|9=130|35=8|34=8|49=TESTACC|52=20100226-21:44:21.519|56=TESTINI|6=0|14=168268.5|17=001|20=0|37=001|39=0|54=2|55=CCRO3|150=0|151=168268.5|10=135|
8=FIX.4.2|9=124|35=8|34=9|49=TESTACC|52=20100226-21:44:21.519|56=TESTINI|6=0|14=20000|17=001|20=0|37=001|39=0|54=2|55=CPLE3|150=0|151=20000|10=040|
8=FIX.4.2|9=123|35=8|34=10|49=TESTACC|52=20100226-21:44:21.519|56=TESTINI|6=0|14=9195|17=001|20=0|37=001|39=0|54=2|55=CSNA3|150=0|151=9195|10=028|
8=FIX.4.2|9=127|35=8|34=11|49=TESTACC|52=20100226-21:44:21.519|56=TESTINI|6=0|14=692650|17=001|20=0|37=001|39=0|54=2|55=CTNM4|150=0|151=692650|10=247|
8=FIX.4.2|9=129|35=8|34=12|49=TESTACC|52=20100226-21:44:21.519|56=TESTINI|6=0|14=28813.5|17=001|20=0|37=001|39=0|54=1|55=CYRE3|150=0|151=28813.5|10=083|
8=FIX.4.2|9=131|35=8|34=13|49=TESTACC|52=20100226-21:44:21.519|56=TESTINI|6=0|14=153903.5|17=001|20=0|37=001|39=0|54=2|55=ELET3|150=0|151=153903.5|10=163|
8=FIX.4.2|9=127|35=8|34=14|49=TESTACC|52=20100226-21:44:21.519|56=TESTINI|6=0|14=8459.5|17=001|20=0|37=001|39=0|54=2|55=ELET6|150=0|151=8459.5|10=246|
8=FIX.4.2|9=127|35=8|34=15|49=TESTACC|52=20100226-21:44:21.519|56=TESTINI|6=0|14=165000|17=001|20=0|37=001|39=0|54=2|55=ETER3|150=0|151=165000|10=216|
8=FIX.4.2|9=131|35=8|34=16|49=TESTACC|52=20100226-21:44:21.519|56=TESTINI|6=0|14=103383.5|17=001|20=0|37=001|39=0|54=2|55=GGBR4|150=0|151=103383.5|10=153|
8=FIX.4.2|9=125|35=8|34=17|49=TESTACC|52=20100226-21:44:21.519|56=TESTINI|6=0|14=60000|17=001|20=0|37=001|39=0|54=2|55=INEP4|150=0|151=60000|10=105|
8=FIX.4.2|9=125|35=8|34=18|49=TESTACC|52=20100226-21:44:21.519|56=TESTINI|6=0|14=19436|17=001|20=0|37=001|39=0|54=2|55=ITUB4|150=0|151=19436|10=148|
8=FIX.4.2|9=127|35=8|34=19|49=TESTACC|52=20100226-21:44:21.519|56=TESTINI|6=0|14=301019|17=001|20=0|37=001|39=0|54=2|55=KLBN4|150=0|151=301019|10=216|
8=FIX.4.2|9=129|35=8|34=20|49=TESTACC|52=20100226-21:44:21.519|56=TESTINI|6=0|14=70836.5|17=001|20=0|37=001|39=0|54=2|55=BRFS3|150=0|151=70836.5|10=081|
8=FIX.4.2|9=129|35=8|34=21|49=TESTACC|52=20100226-21:44:21.519|56=TESTINI|6=0|14=79859.5|17=001|20=0|37=001|39=0|54=2|55=RAPT4|150=0|151=79859.5|10=121|
8=FIX.4.2|9=125|35=8|34=22|49=TESTACC|52=20100226-21:44:21.519|56=TESTINI|6=0|14=19156|17=001|20=0|37=001|39=0|54=2|55=RSID3|150=0|151=19156|10=138|
8=FIX.4.2|9=125|35=8|34=23|49=TESTACC|52=20100226-21:44:21.519|56=TESTINI|6=0|14=35450|17=001|20=0|37=001|39=0|54=2|55=SZPQ4|150=0|151=35450|10=158|
8=FIX.4.2|9=129|35=8|34=24|49=TESTACC|52=20100226-21:44:21.534|56=TESTINI|6=0|14=44412.5|17=001|20=0|37=001|39=0|54=2|55=TAMM4|150=0|151=44412.5|10=067|
8=FIX.4.2|9=125|35=8|34=25|49=TESTACC|52=20100226-21:44:21.534|56=TESTINI|6=0|14=27000|17=001|20=0|37=001|39=0|54=1|55=TLPP4|150=0|151=27000|10=126|
8=FIX.4.2|9=131|35=8|34=26|49=TESTACC|52=20100226-21:44:21.534|56=TESTINI|6=0|14=152433.5|17=001|20=0|37=001|39=0|54=1|55=TNLP4|150=0|151=152433.5|10=178|
8=FIX.4.2|9=125|35=8|34=27|49=TESTACC|52=20100226-21:44:21.534|56=TESTINI|6=0|14=27752|17=001|20=0|37=001|39=0|54=2|55=TOTS3|150=0|151=27752|10=166|
8=FIX.4.2|9=127|35=8|34=28|49=TESTACC|52=20100226-21:44:21.534|56=TESTINI|6=0|14=680000|17=001|20=0|37=001|39=0|54=2|55=UNIP6|150=0|151=680000|10=236|
8=FIX.4.2|9=127|35=8|34=29|49=TESTACC|52=20100226-21:44:21.534|56=TESTINI|6=0|14=267652|17=001|20=0|37=001|39=0|54=2|55=WEGE3|150=0|151=267652|10=242|
8=FIX.4.2|9=125|35=8|34=30|49=TESTACC|52=20100226-21:44:21.534|56=TESTINI|6=0|14=73861|17=001|20=0|37=001|39=0|54=2|55=GVTT3|150=0|151=73861|10=159|
8=FIX.4.2|9=127|35=8|34=31|49=TESTACC|52=20100226-21:44:21.534|56=TESTINI|6=0|14=561946|17=001|20=0|37=001|39=0|54=2|55=SLCE3|150=0|151=561946|10=240|
8=FIX.4.2|9=129|35=8|34=32|49=TESTACC|52=20100226-21:44:21.534|56=TESTINI|6=0|14=31491.5|17=001|20=0|37=001|39=0|54=2|55=BVMF3|150=0|151=31491.5|10=067|
8=FIX.4.2|9=125|35=8|34=33|49=TESTACC|52=20100226-21:44:21.534|56=TESTINI|6=0|14=25116|17=001|20=0|37=001|39=0|54=2|55=PETR4|150=0|151=25116|10=133|
8=FIX.4.2|9=129|35=8|34=34|49=TESTACC|52=20100226-21:44:21.534|56=TESTINI|6=0|14=38852.5|17=001|20=0|37=001|39=0|54=1|55=VALE5|150=0|151=38852.5|10=083|
8=FIX.4.2|9=131|35=8|34=35|49=TESTACC|52=20100226-21:44:21.534|56=TESTINI|6=0|14=120005.5|17=001|20=0|37=001|39=0|54=1|55=BBAS3|150=0|151=120005.5|10=119|
8=FIX.4.2|9=125|35=8|34=36|49=TESTACC|52=20100226-21:44:21.534|56=TESTINI|6=0|14=14050|17=001|20=0|37=001|39=0|54=2|55=BNCA3|150=0|151=14050|10=086|
8=FIX.4.2|9=131|35=8|34=37|49=TESTACC|52=20100226-21:44:21.534|56=TESTINI|6=0|14=409485.5|17=001|20=0|37=001|39=0|54=2|55=BRKM5|150=0|151=409485.5|10=188|
8=FIX.4.2|9=131|35=8|34=38|49=TESTACC|52=20100226-21:44:21.534|56=TESTINI|6=0|14=145068.5|17=001|20=0|37=001|39=0|54=2|55=CCRO3|150=0|151=145068.5|10=170|
8=FIX.4.2|9=125|35=8|34=39|49=TESTACC|52=20100226-21:44:21.534|56=TESTINI|6=0|14=20000|17=001|20=0|37=001|39=0|54=2|55=CPLE3|150=0|151=20000|10=089|
8=FIX.4.2|9=123|35=8|34=40|49=TESTACC|52=20100226-21:44:21.534|56=TESTINI|6=0|14=9195|17=001|20=0|37=001|39=0|54=2|55=CSNA3|150=0|151=9195|10=028|
8=FIX.4.2|9=127|35=8|34=41|49=TESTACC|52=20100226-21:44:21.581|56=TESTINI|6=0|14=692650|17=001|20=0|37=001|39=0|54=2|55=CTNM4|150=0|151=692650|10=249|
8=FIX.4.2|9=129|35=8|34=42|49=TESTACC|52=20100226-21:44:21.581|56=TESTINI|6=0|14=28813.5|17=001|20=0|37=001|39=0|54=1|55=CYRE3|150=0|151=28813.5|10=085|
8=FIX.4.2|9=131|35=8|34=43|49=TESTACC|52=20100226-21:44:21.581|56=TESTINI|6=0|14=153903.5|17=001|20=0|37=001|39=0|54=2|55=ELET3|150=0|151=153903.5|10=165|
8=FIX.4.2|9=127|35=8|34=44|49=TESTACC|52=20100226-21:44:21.581|56=TESTINI|6=0|14=8459.5|17=001|20=0|37=001|39=0|54=2|55=ELET6|150=0|151=8459.5|10=248|
8=FIX.4.2|9=127|35=8|34=45|49=TESTACC|52=20100226-21:44:21.581|56=TESTINI|6=0|14=165000|17=001|20=0|37=001|39=0|54=2|55=ETER3|150=0|151=165000|10=218|
8=FIX.4.2|9=131|35=8|34=46|49=TESTACC|52=20100226-21:44:21.581|56=TESTINI|6=0|14=103383.5|17=001|20=0|37=001|39=0|54=2|55=GGBR4|150=0|151=103383.5|10=155|
8=FIX.4.2|9=125|35=8|34=47|49=TESTACC|52=20100226-21:44:21.581|56=TESTINI|6=0|14=60000|17=001|20=0|37=001|39=0|54=2|55=INEP4|150=0|151=60000|10=107|
8=FIX.4.2|9=125|35=8|34=48|49=TESTACC|52=20100226-21:44:21.691|56=TESTINI|6=0|14=19436|17=001|20=0|37=001|39=0|54=2|55=ITUB4|150=0|151=19436|10=152|
8=FIX.4.2|9=127|35=8|34=49|49=TESTACC|52=20100226-21:44:21.691|56=TESTINI|6=0|14=301019|17=001|20=0|37=001|39=0|54=2|55=KLBN4|150=0|151=301019|10=220|
8=FIX.4.2|9=129|35=8|34=50|49=TESTACC|52=20100226-21:44:21.691|56=TESTINI|6=0|14=70836.5|17=001|20=0|37=001|39=0|54=2|55=BRFS3|150=0|151=70836.5|10=085|
8=FIX.4.2|9=129|35=8|34=51|49=TESTACC|52=20100226-21:44:21.691|56=TESTINI|6=0|14=79859.5|17=001|20=0|37=001|39=0|54=2|55=RAPT4|150=0|151=79859.5|10=125|
8=FIX.4.2|9=125|35=8|34=52|49=TESTACC|52=20100226-21:44:21.691|56=TESTINI|6=0|14=19156|17=001|20=0|37=001|39=0|54=2|55=RSID3|150=0|151=19156|10=142|
8=FIX.4.2|9=125|35=8|34=53|49=TESTACC|52=20100226-21:44:21.691|56=TESTINI|6=0|14=35450|17=001|20=0|37=001|39=0|54=2|55=SZPQ4|150=0|151=35450|10=162|
8=FIX.4.2|9=129|35=8|34=54|49=TESTACC|52=20100226-21:44:21.691|56=TESTINI|6=0|14=44412.5|17=001|20=0|37=001|39=0|54=2|55=TAMM4|150=0|151=44412.5|10=074|
8=FIX.4.2|9=125|35=8|34=55|49=TESTACC|52=20100226-21:44:21.691|56=TESTINI|6=0|14=27000|17=001|20=0|37=001|39=0|54=1|55=TLPP4|150=0|151=27000|10=133|
8=FIX.4.2|9=131|35=8|34=56|49=TESTACC|52=20100226-21:44:21.691|56=TESTINI|6=0|14=152433.5|17=001|20=0|37=001|39=0|54=1|55=TNLP4|150=0|151=152433.5|10=185|
8=FIX.4.2|9=125|35=8|34=57|49=TESTACC|52=20100226-21:44:21.691|56=TESTINI|6=0|14=27752|17=001|20=0|37=001|39=0|54=2|55=TOTS3|150=0|151=27752|10=173|
8=FIX.4.2|9=127|35=8|34=58|49=TESTACC|52=20100226-21:44:21.800|56=TESTINI|6=0|14=680000|17=001|20=0|37=001|39=0|54=2|55=UNIP6|150=0|151=680000|10=235|
8=FIX.4.2|9=127|35=8|34=59|49=TESTACC|52=20100226-21:44:21.800|56=TESTINI|6=0|14=267652|17=001|20=0|37=001|39=0|54=2|55=WEGE3|150=0|151=267652|10=241|
8=FIX.4.2|9=125|35=8|34=60|49=TESTACC|52=20100226-21:44:21.800|56=TESTINI|6=0|14=73861|17=001|20=0|37=001|39=0|54=2|55=GVTT3|150=0|151=73861|10=158|
8=FIX.4.2|9=127|35=8|34=61|49=TESTACC|52=20100226-21:44:21.800|56=TESTINI|6=0|14=561946|17=001|20=0|37=001|39=0|54=2|55=SLCE3|150=0|151=561946|10=239|
8=FIX.4.2|9=129|35=8|34=62|49=TESTACC|52=20100226-21:44:21.800|56=TESTINI|6=0|14=31491.5|17=001|20=0|37=001|39=0|54=2|55=BVMF3|150=0|151=31491.5|10=066|
8=FIX.4.2|9=125|35=8|34=63|49=TESTACC|52=20100226-21:44:21.800|56=TESTINI|6=0|14=25116|17=001|20=0|37=001|39=0|54=2|55=PETR4|150=0|151=25116|10=132|
8=FIX.4.2|9=129|35=8|34=64|49=TESTACC|52=20100226-21:44:21.800|56=TESTINI|6=0|14=38852.5|17=001|20=0|37=001|39=0|54=1|55=VALE5|150=0|151=38852.5|10=082|
8=FIX.4.2|9=131|35=8|34=65|49=TESTACC|52=20100226-21:44:21.800|56=TESTINI|6=0|14=120005.5|17=001|20=0|37=001|39=0|54=1|55=BBAS3|150=0|151=120005.5|10=118|
8=FIX.4.2|9=125|35=8|34=66|49=TESTACC|52=20100226-21:44:21.800|56=TESTINI|6=0|14=14050|17=001|20=0|37=001|39=0|54=2|55=BNCA3|150=0|151=14050|10=085|
8=FIX.4.2|9=131|35=8|34=67|49=TESTACC|52=20100226-21:44:21.800|56=TESTINI|6=0|14=392685.5|17=001|20=0|37=001|39=0|54=2|55=BRKM5|150=0|151=392685.5|10=193|
8=FIX.4.2|9=131|35=8|34=68|49=TESTACC|52=20100226-21:44:21.909|56=TESTINI|6=0|14=128268.5|17=001|20=0|37=001|39=0|54=2|55=CCRO3|150=0|151=128268.5|10=185|
8=FIX.4.2|9=125|35=8|34=69|49=TESTACC|52=20100226-21:44:21.909|56=TESTINI|6=0|14=20000|17=001|20=0|37=001|39=0|54=2|55=CPLE3|150=0|151=20000|10=098|
8=FIX.4.2|9=123|35=8|34=70|49=TESTACC|52=20100226-21:44:21.909|56=TESTINI|6=0|14=9195|17=001|20=0|37=001|39=0|54=2|55=CSNA3|150=0|151=9195|10=037|
8=FIX.4.2|9=127|35=8|34=71|49=TESTACC|52=20100226-21:44:21.909|56=TESTINI|6=0|14=691150|17=001|20=0|37=001|39=0|54=2|55=CTNM4|150=0|151=691150|10=244|
8=FIX.4.2|9=129|35=8|34=72|49=TESTACC|52=20100226-21:44:21.909|56=TESTINI|6=0|14=28813.5|17=001|20=0|37=001|39=0|54=1|55=CYRE3|150=0|151=28813.5|10=092|
8=FIX.4.2|9=131|35=8|34=73|49=TESTACC|52=20100226-21:44:21.909|56=TESTINI|6=0|14=153903.5|17=001|20=0|37=001|39=0|54=2|55=ELET3|150=0|151=153903.5|10=172|
8=FIX.4.2|9=127|35=8|34=74|49=TESTACC|52=20100226-21:44:21.909|56=TESTINI|6=0|14=8459.5|17=001|20=0|37=001|39=0|54=2|55=ELET6|150=0|151=8459.5|10=255|
8=FIX.4.2|9=127|35=8|34=75|49=TESTACC|52=20100226-21:44:21.909|56=TESTINI|6=0|14=165000|17=001|20=0|37=001|39=0|54=2|55=ETER3|150=0|151=165000|10=225|
8=FIX.4.2|9=131|35=8|34=76|49=TESTACC|52=20100226-21:44:21.909|56=TESTINI|6=0|14=103383.5|17=001|20=0|37=001|39=0|54=2|55=GGBR4|150=0|151=103383.5|10=162|
8=FIX.4.2|9=125|35=8|34=77|49=TESTACC|52=20100226-21:44:21.909|56=TESTINI|6=0|14=60000|17=001|20=0|37=001|39=0|54=2|55=INEP4|150=0|151=60000|10=114|
8=FIX.4.2|9=125|35=8|34=78|49=TESTACC|52=20100226-21:44:22.019|56=TESTINI|6=0|14=19436|17=001|20=0|37=001|39=0|54=2|55=ITUB4|150=0|151=19436|10=150|
8=FIX.4.2|9=127|35=8|34=79|49=TESTACC|52=20100226-21:44:22.019|56=TESTINI|6=0|14=301019|17=001|20=0|37=001|39=0|54=2|55=KLBN4|150=0|151=301019|10=218|
8=FIX.4.2|9=129|35=8|34=80|49=TESTACC|52=20100226-21:44:22.019|56=TESTINI|6=0|14=70836.5|17=001|20=0|37=001|39=0|54=2|55=BRFS3|150=0|151=70836.5|10=083|
8=FIX.4.2|9=129|35=8|34=81|49=TESTACC|52=20100226-21:44:22.019|56=TESTINI|6=0|14=79859.5|17=001|20=0|37=001|39=0|54=2|55=RAPT4|150=0|151=79859.5|10=123|
8=FIX.4.2|9=125|35=8|34=82|49=TESTACC|52=20100226-21:44:22.019|56=TESTINI|6=0|14=19156|17=001|20=0|37=001|39=0|54=2|55=RSID3|150=0|151=19156|10=140|
8=FIX.4.2|9=125|35=8|34=83|49=TESTACC|52=20100226-21:44:22.019|56=TESTINI|6=0|14=35450|17=001|20=0|37=001|39=0|54=2|55=SZPQ4|150=0|151=35450|10=160|
8=FIX.4.2|9=129|35=8|34=84|49=TESTACC|52=20100226-21:44:22.019|56=TESTINI|6=0|14=44412.5|17=001|20=0|37=001|39=0|54=2|55=TAMM4|150=0|151=44412.5|10=072|
8=FIX.4.2|9=125|35=8|34=85|49=TESTACC|52=20100226-21:44:22.019|56=TESTINI|6=0|14=27000|17=001|20=0|37=001|39=0|54=1|55=TLPP4|150=0|151=27000|10=131|
8=FIX.4.2|9=131|35=8|34=86|49=TESTACC|52=20100226-21:44:22.019|56=TESTINI|6=0|14=152433.5|17=001|20=0|37=001|39=0|54=1|55=TNLP4|150=0|151=152433.5|10=183|
8=FIX.4.2|9=125|35=8|34=87|49=TESTACC|52=20100226-21:44:22.019|56=TESTINI|6=0|14=27752|17=001|20=0|37=001|39=0|54=2|55=TOTS3|150=0|151=27752|10=171|
8=FIX.4.2|9=127|35=8|34=88|49=TESTACC|52=20100226-21:44:22.113|56=TESTINI|6=0|14=680000|17=001|20=0|37=001|39=0|54=2|55=UNIP6|150=0|151=680000|10=236|
8=FIX.4.2|9=127|35=8|34=89|49=TESTACC|52=20100226-21:44:22.128|56=TESTINI|6=0|14=267652|17=001|20=0|37=001|39=0|54=2|55=WEGE3|150=0|151=267652|10=248|
8=FIX.4.2|9=125|35=8|34=90|49=TESTACC|52=20100226-21:44:22.128|56=TESTINI|6=0|14=73861|17=001|20=0|37=001|39=0|54=2|55=GVTT3|150=0|151=73861|10=165|
8=FIX.4.2|9=127|35=8|34=91|49=TESTACC|52=20100226-21:44:22.128|56=TESTINI|6=0|14=561946|17=001|20=0|37=001|39=0|54=2|55=SLCE3|150=0|151=561946|10=246|
8=FIX.4.2|9=129|35=8|34=92|49=TESTACC|52=20100226-21:44:22.128|56=TESTINI|6=0|14=31491.5|17=001|20=0|37=001|39=0|54=2|55=BVMF3|150=0|151=31491.5|10=073|
8=FIX.4.2|9=58|35=0|34=92|49=TESTINI|52=20100226-21:45:21.472|56=TESTACC|10=049|
8=FIX.4.2|9=58|35=0|34=93|49=TESTACC|52=20100226-21:45:22.550|56=TESTINI|10=048|
8=FIX.4.2|9=125|35=D|34=93|49=TESTINI|52=20100226-21:45:59.565|56=TESTACC|11=QUANT0001|21=1|38=50232|40=1|54=2|55=PETR4|60=20100226-18:45:59|10=181|
8=FIX.4.2|9=125|35=D|34=94|49=TESTINI|52=20100226-21:45:59.565|56=TESTACC|11=QUANT0002|21=1|38=77705|40=1|54=1|55=VALE5|60=20100226-18:45:59|10=178|
8=FIX.4.2|9=125|35=8|34=94|49=TESTACC|52=20100226-21:45:59.565|56=TESTINI|6=0|14=25116|17=001|20=0|37=001|39=0|54=2|55=PETR4|150=0|151=25116|10=156|
8=FIX.4.2|9=126|35=D|34=95|49=TESTINI|52=20100226-21:46:06.393|56=TESTACC|11=QUANT0003|21=1|38=240011|40=1|54=1|55=BBAS3|60=20100226-18:46:06|10=178|
8=FIX.4.2|9=125|35=D|34=96|49=TESTINI|52=20100226-21:46:07.487|56=TESTACC|11=QUANT0004|21=1|38=28100|40=1|54=2|55=BNCA3|60=20100226-18:46:07|10=137|
8=FIX.4.2|9=126|35=D|34=97|49=TESTINI|52=20100226-21:46:08.190|56=TESTACC|11=QUANT0005|21=1|38=785371|40=1|54=2|55=BRKM5|60=20100226-18:46:08|10=227|
8=FIX.4.2|9=126|35=D|34=98|49=TESTINI|52=20100226-21:46:08.206|56=TESTACC|11=QUANT0006|21=1|38=256537|40=1|54=2|55=CCRO3|60=20100226-18:46:08|10=217|
8=FIX.4.2|9=125|35=D|34=99|49=TESTINI|52=20100226-21:46:08.206|56=TESTACC|11=QUANT0007|21=1|38=40000|40=1|54=2|55=CPLE3|60=20100226-18:46:08|10=143|
8=FIX.4.2|9=126|35=D|34=100|49=TESTINI|52=20100226-21:46:08.206|56=TESTACC|11=QUANT0008|21=1|38=18390|40=1|54=2|55=CSNA3|60=20100226-18:46:08|10=194|
8=FIX.4.2|9=128|35=D|34=101|49=TESTINI|52=20100226-21:46:08.206|56=TESTACC|11=QUANT0009|21=1|38=1382300|40=1|54=2|55=CTNM4|60=20100226-18:46:08|10=048|
8=FIX.4.2|9=126|35=D|34=102|49=TESTINI|52=20100226-21:46:08.206|56=TESTACC|11=QUANT0010|21=1|38=57627|40=1|54=1|55=CYRE3|60=20100226-18:46:08|10=208|
8=FIX.4.2|9=127|35=D|34=103|49=TESTINI|52=20100226-21:46:09.815|56=TESTACC|11=QUANT0011|21=1|38=307807|40=1|54=2|55=ELET3|60=20100226-18:46:09|10=001|
8=FIX.4.2|9=126|35=D|34=104|49=TESTINI|52=20100226-21:46:09.815|56=TESTACC|11=QUANT0012|21=1|38=16919|40=1|54=2|55=ELET6|60=20100226-18:46:09|10=214|
8=FIX.4.2|9=127|35=D|34=105|49=TESTINI|52=20100226-21:46:09.831|56=TESTACC|11=QUANT0013|21=1|38=330000|40=1|54=2|55=ETER3|60=20100226-18:46:09|10=246|
8=FIX.4.2|9=127|35=D|34=106|49=TESTINI|52=20100226-21:46:15.081|56=TESTACC|11=QUANT0014|21=1|38=206767|40=1|54=2|55=GGBR4|60=20100226-18:46:15|10=248|
8=FIX.4.2|9=127|35=D|34=107|49=TESTINI|52=20100226-21:46:15.081|56=TESTACC|11=QUANT0015|21=1|38=120000|40=1|54=2|55=INEP4|60=20100226-18:46:15|10=235|
8=FIX.4.2|9=126|35=D|34=108|49=TESTINI|52=20100226-21:46:18.253|56=TESTACC|11=QUANT0016|21=1|38=38872|40=1|54=2|55=ITUB4|60=20100226-18:46:18|10=228|
8=FIX.4.2|9=127|35=D|34=109|49=TESTINI|52=20100226-21:46:19.846|56=TESTACC|11=QUANT0017|21=1|38=602038|40=1|54=2|55=KLBN4|60=20100226-18:46:19|10=011|
8=FIX.4.2|9=127|35=D|34=110|49=TESTINI|52=20100226-21:46:19.846|56=TESTACC|11=QUANT0018|21=1|38=141673|40=1|54=2|55=BRFS3|60=20100226-18:46:19|10=012|
8=FIX.4.2|9=127|35=D|34=111|49=TESTINI|52=20100226-21:46:19.846|56=TESTACC|11=QUANT0019|21=1|38=159719|40=1|54=2|55=RAPT4|60=20100226-18:46:19|10=035|
8=FIX.4.2|9=126|35=D|34=112|49=TESTINI|52=20100226-21:46:19.862|56=TESTACC|11=QUANT0020|21=1|38=38312|40=1|54=2|55=RSID3|60=20100226-18:46:19|10=212|
8=FIX.4.2|9=126|35=D|34=113|49=TESTINI|52=20100226-21:46:19.862|56=TESTACC|11=QUANT0021|21=1|38=70900|40=1|54=2|55=SZPQ4|60=20100226-18:46:19|10=242|
8=FIX.4.2|9=126|35=D|34=114|49=TESTINI|52=20100226-21:46:19.862|56=TESTACC|11=QUANT0022|21=1|38=88825|40=1|54=2|55=TAMM4|60=20100226-18:46:19|10=228|
8=FIX.4.2|9=126|35=D|34=115|49=TESTINI|52=20100226-21:46:20.815|56=TESTACC|11=QUANT0023|21=1|38=54000|40=1|54=1|55=TLPP4|60=20100226-18:46:20|10=206|
8=FIX.4.2|9=127|35=D|34=116|49=TESTINI|52=20100226-21:46:21.268|56=TESTACC|11=QUANT0024|21=1|38=304867|40=1|54=1|55=TNLP4|60=20100226-18:46:21|10=022|
8=FIX.4.2|9=126|35=D|34=117|49=TESTINI|52=20100226-21:46:21.268|56=TESTACC|11=QUANT0025|21=1|38=55504|40=1|54=2|55=TOTS3|60=20100226-18:46:21|10=234|
8=FIX.4.2|9=129|35=8|34=95|49=TESTACC|52=20100226-21:45:59.565|56=TESTINI|6=0|14=38852.5|17=001|20=0|37=001|39=0|54=1|55=VALE5|150=0|151=38852.5|10=106|
8=FIX.4.2|9=128|35=D|34=118|49=TESTINI|52=20100226-21:46:21.268|56=TESTACC|11=QUANT0026|21=1|38=1360000|40=1|54=2|55=UNIP6|60=20100226-18:46:21|10=058|
8=FIX.4.2|9=127|35=D|34=119|49=TESTINI|52=20100226-21:46:21.737|56=TESTACC|11=QUANT0027|21=1|38=535304|40=1|54=2|55=WEGE3|60=20100226-18:46:21|10=255|
8=FIX.4.2|9=127|35=D|34=120|49=TESTINI|52=20100226-21:46:22.190|56=TESTACC|11=QUANT0028|21=1|38=147722|40=1|54=2|55=GVTT3|60=20100226-18:46:22|10=019|
8=FIX.4.2|9=128|35=D|34=121|49=TESTINI|52=20100226-21:46:22.206|56=TESTACC|11=QUANT0029|21=1|38=1123892|40=1|54=2|55=SLCE3|60=20100226-18:46:22|10=041|
8=FIX.4.2|9=126|35=D|34=122|49=TESTINI|52=20100226-21:46:22.737|56=TESTACC|11=QUANT0030|21=1|38=62983|40=1|54=2|55=BVMF3|60=20100226-18:46:22|10=207|
