8=FIX.4.1|9=73|35=A|34=1|49=NESTFLEX_HML|52=20100408-22:58:16|56=AGNEST_HML|98=0|108=60|10=228|
8=FIX.4.1|9=119|35=5|49=0|56=0|34=1|52=20100408-22:57:51|58=incoming message failed validation tag = 8, reason code = 'Bad Tag Value' |10=095|
8=FIX.4.1|9=73|35=A|34=2|49=NESTFLEX_HML|52=20100408-22:58:17|56=AGNEST_HML|98=0|108=60|10=230|
8=FIX.4.1|9=119|35=5|49=0|56=0|34=1|52=20100408-22:57:52|58=incoming message failed validation tag = 8, reason code = 'Bad Tag Value' |10=096|
