8=FIX.4.2|9=77|35=A|34=1|49=NESTFLEX_HML|52=20100408-22:47:36.030|56=AGNEST_HML|98=0|108=60|10=170|
8=FIX.4.1|9=119|35=5|49=0|56=0|34=1|52=20100408-22:47:11|58=incoming message failed validation tag = 8, reason code = 'Bad Tag Value' |10=090|
8=FIX.4.2|9=77|35=A|34=3|49=NESTFLEX_HML|52=20100408-22:47:36.530|56=AGNEST_HML|98=0|108=60|10=177|
8=FIX.4.1|9=119|35=5|49=0|56=0|34=1|52=20100408-22:47:11|58=incoming message failed validation tag = 8, reason code = 'Bad Tag Value' |10=090|
8=FIX.4.2|9=77|35=A|34=4|49=NESTFLEX_HML|52=20100408-22:49:44.059|56=AGNEST_HML|98=0|108=60|10=185|
8=FIX.4.1|9=119|35=5|49=0|56=0|34=1|52=20100408-22:49:19|58=incoming message failed validation tag = 8, reason code = 'Bad Tag Value' |10=100|
8=FIX.4.2|9=77|35=A|34=6|49=NESTFLEX_HML|52=20100408-22:49:53.168|56=AGNEST_HML|98=0|108=60|10=188|
8=FIX.4.2|9=77|35=A|34=7|49=NESTFLEX_HML|52=20100408-22:50:52.589|56=AGNEST_HML|98=0|108=60|10=187|
8=FIX.4.1|9=119|35=5|49=0|56=0|34=1|52=20100408-22:50:27|58=incoming message failed validation tag = 8, reason code = 'Bad Tag Value' |10=091|
8=FIX.4.2|9=77|35=A|34=8|49=NESTFLEX_HML|52=20100408-22:50:53.573|56=AGNEST_HML|98=0|108=60|10=182|
8=FIX.4.1|9=119|35=5|49=0|56=0|34=1|52=20100408-22:50:28|58=incoming message failed validation tag = 8, reason code = 'Bad Tag Value' |10=092|
8=FIX.4.2|9=77|35=A|34=9|49=NESTFLEX_HML|52=20100408-22:51:23.573|56=AGNEST_HML|98=0|108=60|10=181|
8=FIX.4.1|9=119|35=5|49=0|56=0|34=1|52=20100408-22:50:58|58=incoming message failed validation tag = 8, reason code = 'Bad Tag Value' |10=095|
8=FIX.4.2|9=78|35=A|34=10|49=NESTFLEX_HML|52=20100408-22:51:53.604|56=AGNEST_HML|98=0|108=60|10=220|
8=FIX.4.1|9=119|35=5|49=0|56=0|34=1|52=20100408-22:51:28|58=incoming message failed validation tag = 8, reason code = 'Bad Tag Value' |10=093|
8=FIX.4.2|9=78|35=A|34=11|49=NESTFLEX_HML|52=20100408-22:52:23.619|56=AGNEST_HML|98=0|108=60|10=225|
8=FIX.4.1|9=119|35=5|49=0|56=0|34=1|52=20100408-22:51:58|58=incoming message failed validation tag = 8, reason code = 'Bad Tag Value' |10=096|
8=FIX.4.2|9=78|35=A|34=12|49=NESTFLEX_HML|52=20100408-22:52:53.649|56=AGNEST_HML|98=0|108=60|10=232|
8=FIX.4.1|9=119|35=5|49=0|56=0|34=1|52=20100408-22:52:28|58=incoming message failed validation tag = 8, reason code = 'Bad Tag Value' |10=094|
