8=FIX.4.2|9=69|35=A|34=1|49=TESTACC|52=20100218-18:56:17.676|56=TESTINI|98=0|108=60|10=058|
8=FIX.4.2|9=69|35=A|34=2|49=TESTACC|52=20100218-18:56:21.098|56=TESTINI|98=0|108=60|10=052|
8=FIX.4.2|9=69|35=A|34=3|49=TESTACC|52=20100218-18:56:51.113|56=TESTINI|98=0|108=60|10=044|
8=FIX.4.2|9=69|35=A|34=4|49=TESTACC|52=20100218-18:57:21.128|56=TESTINI|98=0|108=60|10=049|
8=FIX.4.2|9=69|35=A|34=5|49=TESTACC|52=20100218-18:57:51.143|56=TESTINI|98=0|108=60|10=050|
8=FIX.4.2|9=69|35=A|34=6|49=TESTACC|52=20100218-18:58:21.158|56=TESTINI|98=0|108=60|10=055|
8=FIX.4.2|9=69|35=A|34=7|49=TESTACC|52=20100218-18:58:51.173|56=TESTINI|98=0|108=60|10=056|
8=FIX.4.2|9=69|35=A|34=8|49=TESTACC|52=20100218-19:01:00.124|56=TESTINI|98=0|108=60|10=036|
8=FIX.4.2|9=69|35=A|34=9|49=TESTACC|52=20100218-19:01:30.249|56=TESTINI|98=0|108=60|10=048|
8=FIX.4.2|9=70|35=A|34=10|49=TESTACC|52=20100218-19:02:00.732|56=TESTINI|98=0|108=60|10=075|
