8=FIX.4.2|9=65|35=A|34=1|49=QUANT|52=20100302-13:15:58.222|56=NESTI|98=0|108=60|10=003|
8=FIX.4.2|9=70|35=A|34=1|49=NESTI|52=20100302-13:15:57|56=QUANT|57=ADMIN|98=0|108=60|10=077|
8=FIX.4.2|9=80|35=1|34=2|49=NESTI|52=20100302-13:15:57|56=QUANT|57=ADMIN|112=1267535757.003988|10=111|
8=FIX.4.2|9=75|35=0|34=2|49=QUANT|52=20100302-13:15:58.488|56=NESTI|112=1267535757.003988|10=050|
8=FIX.4.2|9=53|35=5|34=3|49=QUANT|52=20100302-13:16:07.363|56=NESTI|10=219|
8=FIX.4.2|9=99|35=5|34=3|49=NESTI|52=20100302-13:16:06|56=QUANT|57=ADMIN|58=Accepting request to close connection|10=024|
8=FIX.4.2|9=65|35=A|34=4|49=QUANT|52=20100302-13:37:47.245|56=NESTI|98=0|108=60|10=013|
8=FIX.4.2|9=70|35=A|34=4|49=NESTI|52=20100302-13:38:05|56=QUANT|57=ADMIN|98=0|108=60|10=078|
8=FIX.4.2|9=80|35=1|34=5|49=NESTI|52=20100302-13:38:05|56=QUANT|57=ADMIN|112=1267537085.509824|10=108|
8=FIX.4.2|9=75|35=0|34=5|49=QUANT|52=20100302-13:38:11.167|56=NESTI|112=1267537085.509824|10=037|
8=FIX.4.2|9=62|35=1|34=6|49=QUANT|52=20100302-13:39:23.088|56=NESTI|112=TEST|10=243|
8=FIX.4.2|9=58|35=0|34=6|49=NESTI|52=20100302-13:39:06|56=QUANT|57=ADMIN|10=043|
8=FIX.4.2|9=67|35=0|34=7|49=NESTI|52=20100302-13:39:21|56=QUANT|57=ADMIN|112=TEST|10=059|
8=FIX.4.2|9=116|35=D|34=7|49=QUANT|52=20100302-13:39:25.729|56=NESTI|11=QUANT0001|21=1|38=1|40=1|54=1|55=PETR4|60=20100302-10:38:32|10=127|
8=FIX.4.2|9=58|35=0|34=8|49=NESTI|52=20100302-13:40:22|56=QUANT|57=ADMIN|10=035|
8=FIX.4.2|9=53|35=0|34=8|49=QUANT|52=20100302-13:40:25.447|56=NESTI|10=219|
8=FIX.4.2|9=58|35=0|34=9|49=NESTI|52=20100302-13:41:23|56=QUANT|57=ADMIN|10=038|
8=FIX.4.2|9=53|35=0|34=9|49=QUANT|52=20100302-13:41:25.447|56=NESTI|10=221|
8=FIX.4.2|9=54|35=0|34=10|49=QUANT|52=20100302-13:42:25.509|56=NESTI|10=006|
8=FIX.4.2|9=59|35=0|34=10|49=NESTI|52=20100302-13:42:24|56=QUANT|57=ADMIN|10=081|
8=FIX.4.2|9=54|35=0|34=11|49=QUANT|52=20100302-13:43:25.556|56=NESTI|10=010|
8=FIX.4.2|9=59|35=0|34=11|49=NESTI|52=20100302-13:43:25|56=QUANT|57=ADMIN|10=084|
8=FIX.4.2|9=54|35=0|34=12|49=QUANT|52=20100302-13:44:25.571|56=NESTI|10=009|
8=FIX.4.2|9=59|35=0|34=12|49=NESTI|52=20100302-13:44:26|56=QUANT|57=ADMIN|10=087|
8=FIX.4.2|9=54|35=0|34=13|49=QUANT|52=20100302-13:45:25.571|56=NESTI|10=011|
8=FIX.4.2|9=59|35=0|34=13|49=NESTI|52=20100302-13:45:27|56=QUANT|57=ADMIN|10=090|
8=FIX.4.2|9=54|35=0|34=14|49=QUANT|52=20100302-13:46:25.586|56=NESTI|10=019|
8=FIX.4.2|9=59|35=0|34=14|49=NESTI|52=20100302-13:46:28|56=QUANT|57=ADMIN|10=093|
8=FIX.4.2|9=54|35=0|34=15|49=QUANT|52=20100302-13:47:25.585|56=NESTI|10=020|
8=FIX.4.2|9=59|35=0|34=15|49=NESTI|52=20100302-13:47:29|56=QUANT|57=ADMIN|10=096|
8=FIX.4.2|9=54|35=0|34=16|49=QUANT|52=20100302-13:48:25.632|56=NESTI|10=015|
8=FIX.4.2|9=59|35=0|34=16|49=NESTI|52=20100302-13:48:30|56=QUANT|57=ADMIN|10=090|
8=FIX.4.2|9=54|35=5|34=17|49=QUANT|52=20100302-13:48:56.241|56=NESTI|10=021|
8=FIX.4.2|9=100|35=5|34=17|49=NESTI|52=20100302-13:48:54|56=QUANT|57=ADMIN|58=Accepting request to close connection|10=116|
8=FIX.4.2|9=66|35=A|34=18|49=QUANT|52=20100302-14:50:39.702|56=NESTI|98=0|108=60|10=062|
8=FIX.4.2|9=71|35=A|34=18|49=NESTI|52=20100302-14:50:37|56=QUANT|57=ADMIN|98=0|108=60|10=132|
8=FIX.4.2|9=121|35=D|34=19|49=QUANT|52=20100302-14:50:39.780|56=NESTI|11=IAA0001|21=1|38=1|40=1|50=UA|54=1|55=PETR4|60=20100302-11:50:39|10=039|
8=FIX.4.2|9=81|35=1|34=19|49=NESTI|52=20100302-14:50:37|56=QUANT|57=ADMIN|112=1267541437.865489|10=170|
8=FIX.4.2|9=76|35=0|34=20|49=QUANT|52=20100302-14:50:39.780|56=NESTI|112=1267541437.865489|10=097|
8=FIX.4.2|9=54|35=0|34=21|49=QUANT|52=20100302-14:51:39.701|56=NESTI|10=008|
8=FIX.4.2|9=59|35=0|34=20|49=NESTI|52=20100302-14:51:38|56=QUANT|57=ADMIN|10=088|
8=FIX.4.2|9=54|35=0|34=22|49=QUANT|52=20100302-14:52:39.717|56=NESTI|10=017|
8=FIX.4.2|9=59|35=0|34=21|49=NESTI|52=20100302-14:52:39|56=QUANT|57=ADMIN|10=091|
8=FIX.4.2|9=54|35=0|34=23|49=QUANT|52=20100302-14:53:39.732|56=NESTI|10=016|
8=FIX.4.2|9=59|35=0|34=22|49=NESTI|52=20100302-14:53:40|56=QUANT|57=ADMIN|10=085|
8=FIX.4.2|9=54|35=5|34=24|49=QUANT|52=20100302-14:53:55.732|56=NESTI|10=020|
8=FIX.4.2|9=100|35=5|34=23|49=NESTI|52=20100302-14:53:53|56=QUANT|57=ADMIN|58=Accepting request to close connection|10=109|
8=FIX.4.2|9=66|35=A|34=25|49=QUANT|52=20100302-18:40:47.645|56=NESTI|98=0|108=60|10=068|
8=FIX.4.2|9=71|35=A|34=26|49=NESTI|52=20100302-18:40:45|56=QUANT|57=ADMIN|98=0|108=60|10=133|
8=FIX.4.2|9=64|35=2|34=26|49=QUANT|52=20100302-18:40:47.676|56=NESTI|7=24|16=0|10=204|
8=FIX.4.2|9=81|35=1|34=27|49=NESTI|52=20100302-18:40:45|56=QUANT|57=ADMIN|112=1267555245.603396|10=160|
8=FIX.4.2|9=222|35=8|34=24|43=Y|49=NESTI|50=RAI|52=20100302-18:40:45|56=QUANT|122=20100302-16:12:57|38=1|6=0.00000000|11=QUANT0001|14=0|17=1100000001|20=0|31=0.00000000|32=0|37=BQUANT0001QUANT|39=0|44=0.00000000|54=1|55=PETR4|150=0|151=1|10=209|
8=FIX.4.2|9=224|35=8|34=25|43=Y|49=NESTI|50=RAI|52=20100302-18:40:45|56=QUANT|57=UA|122=20100302-16:14:43|38=1|6=0.00000000|11=IAA0001|14=0|17=1100000002|20=0|31=0.00000000|32=0|37=BIAA0001QUANT|39=0|44=0.00000000|54=1|55=PETR4|150=0|151=1|10=150|
8=FIX.4.2|9=81|35=1|34=27|49=NESTI|52=20100302-18:40:45|56=QUANT|57=ADMIN|112=1267555245.603396|10=160|
8=FIX.4.2|9=76|35=0|34=27|49=QUANT|52=20100302-18:40:47.817|56=NESTI|112=1267555245.603396|10=096|
8=FIX.4.2|9=89|35=4|34=26|43=Y|49=NESTI|52=20100302-18:40:45|56=QUANT|122=20100302-18:40:45|36=28|123=Y|10=192|
8=FIX.4.2|9=121|35=D|34=28|49=QUANT|52=20100302-18:40:48.348|56=NESTI|11=IAA0001|21=1|38=1|40=1|50=UA|54=1|55=PETR4|60=20100302-15:40:48|10=045|
8=FIX.4.2|9=221|35=8|34=28|49=NESTI|52=20100302-18:40:46|56=QUANT|57=UA|38=1|6=0.00000000|11=IAA0001|14=0|17=888889|20=0|31=0.00000000|32=0|37=BIAA0001QUANT|39=8|44=0.00000000|54=1|55=PETR4|58=Invalid Order Id (Tag 11)|103=0|150=8|151=0|10=211|
8=FIX.4.2|9=54|35=5|34=29|49=QUANT|52=20100302-18:40:58.660|56=NESTI|10=028|
8=FIX.4.2|9=100|35=5|34=29|49=NESTI|52=20100302-18:40:56|56=QUANT|57=ADMIN|58=Accepting request to close connection|10=118|
8=FIX.4.2|9=66|35=A|34=30|49=QUANT|52=20100302-18:53:08.640|56=NESTI|98=0|108=60|10=060|
8=FIX.4.2|9=71|35=A|34=30|49=NESTI|52=20100302-18:53:06|56=QUANT|57=ADMIN|98=0|108=60|10=129|
8=FIX.4.2|9=121|35=D|34=31|49=QUANT|52=20100302-18:53:08.734|56=NESTI|11=IAA0002|21=1|38=1|40=1|50=UA|54=1|55=PETR4|60=20100302-15:53:08|10=039|
8=FIX.4.2|9=81|35=1|34=31|49=NESTI|52=20100302-18:53:06|56=QUANT|57=ADMIN|112=1267555986.568929|10=180|
8=FIX.4.2|9=76|35=0|34=32|49=QUANT|52=20100302-18:53:08.734|56=NESTI|112=1267555986.568929|10=115|
8=FIX.4.2|9=197|35=8|34=32|49=NESTI|50=RAI|52=20100302-18:54:03|56=QUANT|57=UA|38=1|6=0.00000000|11=IAA0002|14=0|17=1100000007|20=0|31=0.00000000|32=0|37=BIAA0002QUANT|39=0|44=0.00000000|54=1|55=PETR4|150=0|151=1|10=118|
8=FIX.4.2|9=54|35=0|34=33|49=QUANT|52=20100302-18:54:08.671|56=NESTI|10=020|
8=FIX.4.2|9=54|35=5|34=34|49=QUANT|52=20100302-18:54:20.671|56=NESTI|10=020|
8=FIX.4.2|9=100|35=5|34=33|49=NESTI|52=20100302-18:54:18|56=QUANT|57=ADMIN|58=Accepting request to close connection|10=116|
8=FIX.4.2|9=66|35=A|34=36|49=QUANT|52=20100302-18:55:25.264|56=NESTI|98=0|108=60|10=069|
8=FIX.4.2|9=71|35=A|34=34|49=NESTI|52=20100302-18:55:23|56=QUANT|57=ADMIN|98=0|108=60|10=134|
8=FIX.4.2|9=69|35=2|34=35|49=NESTI|52=20100302-18:55:23|56=QUANT|57=ADMIN|7=35|16=0|10=021|
8=FIX.4.2|9=158|35=D|34=35|43=Y|49=QUANT|50=UA|52=20100302-18:55:25.452|56=NESTI|122=20100302-18:54:54.358|11=IAA0003|21=1|38=1|40=1|50=UA|54=1|55=PETR4|60=20100302-15:54:54|10=114|
8=FIX.4.2|9=97|35=4|34=36|43=Y|49=QUANT|52=20100302-18:55:25.452|56=NESTI|122=20100302-18:55:25.452|36=37|123=Y|10=090|
8=FIX.4.2|9=54|35=0|34=37|49=QUANT|52=20100302-18:56:25.295|56=NESTI|10=027|
8=FIX.4.2|9=59|35=0|34=36|49=NESTI|52=20100302-18:56:24|56=QUANT|57=ADMIN|10=099|
8=FIX.4.2|9=197|35=8|34=37|49=NESTI|50=RAI|52=20100302-18:56:29|56=QUANT|57=UA|38=1|6=0.00000000|11=IAA0003|14=0|17=1100000009|20=0|31=0.00000000|32=0|37=BIAA0003QUANT|39=0|44=0.00000000|54=1|55=PETR4|150=0|151=1|10=137|
8=FIX.4.2|9=54|35=0|34=38|49=QUANT|52=20100302-18:57:25.685|56=NESTI|10=032|
8=FIX.4.2|9=59|35=0|34=38|49=NESTI|52=20100302-18:57:30|56=QUANT|57=ADMIN|10=099|
8=FIX.4.2|9=54|35=5|34=39|49=QUANT|52=20100302-18:57:33.263|56=NESTI|10=029|
8=FIX.4.2|9=100|35=5|34=39|49=NESTI|52=20100302-18:57:31|56=QUANT|57=ADMIN|58=Accepting request to close connection|10=120|
8=FIX.4.2|9=66|35=A|34=40|49=QUANT|52=20100302-20:02:38.430|56=NESTI|98=0|108=60|10=048|
8=FIX.4.2|9=71|35=A|34=40|49=NESTI|52=20100302-20:02:38|56=QUANT|57=ADMIN|98=0|108=60|10=122|
8=FIX.4.2|9=81|35=1|34=41|49=NESTI|52=20100302-20:02:38|56=QUANT|57=ADMIN|112=1267560158.245423|10=141|
8=FIX.4.2|9=76|35=0|34=41|49=QUANT|52=20100302-20:02:38.633|56=NESTI|112=1267560158.245423|10=071|
8=FIX.4.2|9=54|35=5|34=42|49=QUANT|52=20100302-20:02:42.460|56=NESTI|10=005|
8=FIX.4.2|9=100|35=5|34=42|49=NESTI|52=20100302-20:02:42|56=QUANT|57=ADMIN|58=Accepting request to close connection|10=099|
8=FIX.4.2|9=66|35=A|34=43|49=QUANT|52=20100302-20:03:22.763|56=NESTI|98=0|108=60|10=054|
8=FIX.4.2|9=71|35=A|34=43|49=NESTI|52=20100302-20:03:22|56=QUANT|57=ADMIN|98=0|108=60|10=119|
8=FIX.4.2|9=81|35=1|34=44|49=NESTI|52=20100302-20:03:22|56=QUANT|57=ADMIN|112=1267560202.619766|10=143|
8=FIX.4.2|9=76|35=0|34=44|49=QUANT|52=20100302-20:03:23.029|56=NESTI|112=1267560202.619766|10=073|
8=FIX.4.2|9=54|35=5|34=45|49=QUANT|52=20100302-20:03:26.778|56=NESTI|10=023|
8=FIX.4.2|9=100|35=5|34=45|49=NESTI|52=20100302-20:03:26|56=QUANT|57=ADMIN|58=Accepting request to close connection|10=105|
8=FIX.4.2|9=66|35=A|34=46|49=QUANT|52=20100302-20:04:37.652|56=NESTI|98=0|108=60|10=061|
8=FIX.4.2|9=71|35=A|34=46|49=NESTI|52=20100302-20:04:37|56=QUANT|57=ADMIN|98=0|108=60|10=129|
8=FIX.4.2|9=81|35=1|34=47|49=NESTI|52=20100302-20:04:37|56=QUANT|57=ADMIN|112=1267560277.496498|10=170|
8=FIX.4.2|9=76|35=0|34=47|49=QUANT|52=20100302-20:04:37.933|56=NESTI|112=1267560277.496498|10=103|
8=FIX.4.2|9=54|35=5|34=48|49=QUANT|52=20100302-20:04:40.667|56=NESTI|10=020|
8=FIX.4.2|9=100|35=5|34=48|49=NESTI|52=20100302-20:04:40|56=QUANT|57=ADMIN|58=Accepting request to close connection|10=105|
8=FIX.4.2|9=66|35=A|34=49|49=QUANT|52=20100302-20:06:40.241|56=NESTI|98=0|108=60|10=054|
8=FIX.4.2|9=71|35=A|34=49|49=NESTI|52=20100302-20:06:42|56=QUANT|57=ADMIN|98=0|108=60|10=130|
8=FIX.4.2|9=81|35=1|34=50|49=NESTI|52=20100302-20:06:42|56=QUANT|57=ADMIN|112=1267560402.609680|10=141|
8=FIX.4.2|9=76|35=0|34=50|49=QUANT|52=20100302-20:06:43.709|56=NESTI|112=1267560402.609680|10=076|
8=FIX.4.2|9=54|35=5|34=51|49=QUANT|52=20100302-20:06:57.130|56=NESTI|10=009|
8=FIX.4.2|9=100|35=5|34=51|49=NESTI|52=20100302-20:06:56|56=QUANT|57=ADMIN|58=Accepting request to close connection|10=108|
8=FIX.4.2|9=66|35=A|34=52|49=QUANT|52=20100302-20:14:57.148|56=NESTI|98=0|108=60|10=061|
8=FIX.4.2|9=71|35=A|34=52|49=NESTI|52=20100302-20:14:56|56=QUANT|57=ADMIN|98=0|108=60|10=128|
8=FIX.4.2|9=81|35=1|34=53|49=NESTI|52=20100302-20:14:56|56=QUANT|57=ADMIN|112=1267560896.927816|10=169|
8=FIX.4.2|9=76|35=0|34=53|49=QUANT|52=20100302-20:14:57.351|56=NESTI|112=1267560896.927816|10=097|
8=FIX.4.2|9=121|35=D|34=54|49=QUANT|52=20100302-20:15:10.976|56=NESTI|11=IAA0004|21=1|38=1|40=1|50=UA|54=1|55=PETR4|60=20100302-17:15:10|10=031|
8=FIX.4.2|9=121|35=D|34=55|49=QUANT|52=20100302-20:15:20.350|56=NESTI|11=IAA0005|21=1|38=5|40=1|50=UA|54=1|55=PETR4|60=20100302-17:15:20|10=025|
8=FIX.4.2|9=59|35=0|34=54|49=NESTI|52=20100302-20:15:57|56=QUANT|57=ADMIN|10=093|
8=FIX.4.2|9=54|35=0|34=56|49=QUANT|52=20100302-20:16:20.224|56=NESTI|10=004|
8=FIX.4.2|9=59|35=0|34=55|49=NESTI|52=20100302-20:16:58|56=QUANT|57=ADMIN|10=096|
8=FIX.4.2|9=54|35=0|34=57|49=QUANT|52=20100302-20:17:20.254|56=NESTI|10=009|
8=FIX.4.2|9=59|35=0|34=56|49=NESTI|52=20100302-20:17:59|56=QUANT|57=ADMIN|10=099|
8=FIX.4.2|9=54|35=0|34=58|49=QUANT|52=20100302-20:18:20.269|56=NESTI|10=017|
8=FIX.4.2|9=59|35=0|34=57|49=NESTI|52=20100302-20:19:00|56=QUANT|57=ADMIN|10=088|
8=FIX.4.2|9=54|35=0|34=59|49=QUANT|52=20100302-20:19:20.315|56=NESTI|10=011|
8=FIX.4.2|9=59|35=0|34=58|49=NESTI|52=20100302-20:20:01|56=QUANT|57=ADMIN|10=082|
8=FIX.4.2|9=54|35=0|34=60|49=QUANT|52=20100302-20:20:20.361|56=NESTI|10=252|
8=FIX.4.2|9=59|35=0|34=59|49=NESTI|52=20100302-20:21:02|56=QUANT|57=ADMIN|10=085|
8=FIX.4.2|9=54|35=0|34=61|49=QUANT|52=20100302-20:21:20.392|56=NESTI|10=002|
8=FIX.4.2|9=59|35=0|34=60|49=NESTI|52=20100302-20:22:03|56=QUANT|57=ADMIN|10=079|
8=FIX.4.2|9=54|35=0|34=62|49=QUANT|52=20100302-20:22:20.422|56=NESTI|10=254|
8=FIX.4.2|9=59|35=0|34=61|49=NESTI|52=20100302-20:23:04|56=QUANT|57=ADMIN|10=082|
8=FIX.4.2|9=54|35=0|34=63|49=QUANT|52=20100302-20:23:20.437|56=NESTI|10=006|
8=FIX.4.2|9=54|35=5|34=64|49=QUANT|52=20100302-20:23:41.437|56=NESTI|10=015|
8=FIX.4.2|9=100|35=5|34=62|49=NESTI|52=20100302-20:23:41|56=QUANT|57=ADMIN|58=Accepting request to close connection|10=103|
8=FIX.4.2|9=66|35=A|34=65|49=QUANT|52=20100302-21:21:37.679|56=NESTI|98=0|108=60|10=071|
8=FIX.4.2|9=71|35=A|34=63|49=NESTI|52=20100302-21:21:37|56=QUANT|57=ADMIN|98=0|108=60|10=128|
8=FIX.4.2|9=81|35=1|34=64|49=NESTI|52=20100302-21:21:37|56=QUANT|57=ADMIN|112=1267564897.138042|10=159|
8=FIX.4.2|9=76|35=0|34=66|49=QUANT|52=20100302-21:21:37.914|56=NESTI|112=1267564897.138042|10=093|
8=FIX.4.2|9=121|35=D|34=67|49=QUANT|52=20100302-21:21:58.445|56=NESTI|11=IAA0006|21=1|38=5|40=1|50=UA|54=1|55=PETR4|60=20100302-18:21:58|10=052|
8=FIX.4.2|9=197|35=8|34=65|49=NESTI|50=RAI|52=20100302-21:22:05|56=QUANT|57=UA|38=1|6=0.00000000|11=IAA0004|14=0|17=1100000011|20=0|31=0.00000000|32=0|37=BIAA0004QUANT|39=0|44=0.00000000|54=1|55=PETR4|150=0|151=1|10=114|
8=FIX.4.2|9=197|35=8|34=66|49=NESTI|50=RAI|52=20100302-21:22:09|56=QUANT|57=UA|38=5|6=0.00000000|11=IAA0005|14=0|17=1100000012|20=0|31=0.00000000|32=0|37=BIAA0005QUANT|39=0|44=0.00000000|54=1|55=PETR4|150=0|151=5|10=130|
8=FIX.4.2|9=197|35=8|34=67|49=NESTI|50=RAI|52=20100302-21:22:12|56=QUANT|57=UA|38=5|6=0.00000000|11=IAA0006|14=0|17=1100000013|20=0|31=0.00000000|32=0|37=BIAA0006QUANT|39=0|44=0.00000000|54=1|55=PETR4|150=0|151=5|10=128|
8=FIX.4.2|9=54|35=0|34=68|49=QUANT|52=20100302-21:22:58.679|56=NESTI|10=030|
8=FIX.4.2|9=59|35=0|34=68|49=NESTI|52=20100302-21:23:13|56=QUANT|57=ADMIN|10=090|
8=FIX.4.2|9=54|35=0|34=69|49=QUANT|52=20100302-21:23:58.679|56=NESTI|10=032|
8=FIX.4.2|9=59|35=0|34=69|49=NESTI|52=20100302-21:24:14|56=QUANT|57=ADMIN|10=093|
8=FIX.4.2|9=54|35=0|34=70|49=QUANT|52=20100302-21:24:58.694|56=NESTI|10=022|
8=FIX.4.2|9=59|35=0|34=70|49=NESTI|52=20100302-21:25:15|56=QUANT|57=ADMIN|10=087|
8=FIX.4.2|9=54|35=0|34=71|49=QUANT|52=20100302-21:25:58.709|56=NESTI|10=021|
8=FIX.4.2|9=59|35=0|34=71|49=NESTI|52=20100302-21:26:16|56=QUANT|57=ADMIN|10=090|
8=FIX.4.2|9=54|35=0|34=72|49=QUANT|52=20100302-21:26:58.740|56=NESTI|10=018|
8=FIX.4.2|9=59|35=0|34=72|49=NESTI|52=20100302-21:27:17|56=QUANT|57=ADMIN|10=093|
8=FIX.4.2|9=54|35=0|34=73|49=QUANT|52=20100302-21:27:58.739|56=NESTI|10=028|
8=FIX.4.2|9=59|35=0|34=73|49=NESTI|52=20100302-21:28:18|56=QUANT|57=ADMIN|10=096|
8=FIX.4.2|9=54|35=0|34=74|49=QUANT|52=20100302-21:28:58.786|56=NESTI|10=032|
8=FIX.4.2|9=59|35=0|34=74|49=NESTI|52=20100302-21:29:19|56=QUANT|57=ADMIN|10=099|
8=FIX.4.2|9=54|35=0|34=75|49=QUANT|52=20100302-21:29:58.786|56=NESTI|10=034|
8=FIX.4.2|9=59|35=0|34=75|49=NESTI|52=20100302-21:30:20|56=QUANT|57=ADMIN|10=084|
8=FIX.4.2|9=54|35=0|34=76|49=QUANT|52=20100302-21:30:58.816|56=NESTI|10=021|
8=FIX.4.2|9=59|35=0|34=76|49=NESTI|52=20100302-21:31:21|56=QUANT|57=ADMIN|10=087|
8=FIX.4.2|9=54|35=0|34=77|49=QUANT|52=20100302-21:31:58.879|56=NESTI|10=032|
8=FIX.4.2|9=59|35=0|34=77|49=NESTI|52=20100302-21:32:22|56=QUANT|57=ADMIN|10=090|
8=FIX.4.2|9=54|35=0|34=78|49=QUANT|52=20100302-21:32:58.925|56=NESTI|10=026|
8=FIX.4.2|9=59|35=0|34=78|49=NESTI|52=20100302-21:33:23|56=QUANT|57=ADMIN|10=093|
8=FIX.4.2|9=54|35=0|34=79|49=QUANT|52=20100302-21:33:58.925|56=NESTI|10=028|
8=FIX.4.2|9=59|35=0|34=79|49=NESTI|52=20100302-21:34:24|56=QUANT|57=ADMIN|10=096|
8=FIX.4.2|9=54|35=0|34=80|49=QUANT|52=20100302-21:34:58.940|56=NESTI|10=018|
8=FIX.4.2|9=59|35=0|34=80|49=NESTI|52=20100302-21:35:25|56=QUANT|57=ADMIN|10=090|
8=FIX.4.2|9=54|35=0|34=81|49=QUANT|52=20100302-21:35:58.940|56=NESTI|10=020|
8=FIX.4.2|9=59|35=0|34=81|49=NESTI|52=20100302-21:36:26|56=QUANT|57=ADMIN|10=093|
8=FIX.4.2|9=54|35=0|34=82|49=QUANT|52=20100302-21:36:58.986|56=NESTI|10=032|
8=FIX.4.2|9=59|35=0|34=82|49=NESTI|52=20100302-21:37:27|56=QUANT|57=ADMIN|10=096|
8=FIX.4.2|9=54|35=0|34=83|49=QUANT|52=20100302-21:37:58.986|56=NESTI|10=034|
8=FIX.4.2|9=59|35=0|34=83|49=NESTI|52=20100302-21:38:28|56=QUANT|57=ADMIN|10=099|
8=FIX.4.2|9=54|35=0|34=84|49=QUANT|52=20100302-21:38:58.001|56=NESTI|10=014|
8=FIX.4.2|9=59|35=0|34=84|49=NESTI|52=20100302-21:39:29|56=QUANT|57=ADMIN|10=102|
8=FIX.4.2|9=54|35=0|34=85|49=QUANT|52=20100302-21:39:58.000|56=NESTI|10=015|
8=FIX.4.2|9=59|35=0|34=85|49=NESTI|52=20100302-21:40:30|56=QUANT|57=ADMIN|10=087|
8=FIX.4.2|9=54|35=0|34=86|49=QUANT|52=20100302-21:40:58.016|56=NESTI|10=015|
8=FIX.4.2|9=59|35=0|34=86|49=NESTI|52=20100302-21:41:31|56=QUANT|57=ADMIN|10=090|
8=FIX.4.2|9=54|35=0|34=87|49=QUANT|52=20100302-21:41:58.031|56=NESTI|10=014|
8=FIX.4.2|9=59|35=0|34=87|49=NESTI|52=20100302-21:42:32|56=QUANT|57=ADMIN|10=093|
8=FIX.4.2|9=54|35=0|34=88|49=QUANT|52=20100302-21:42:58.031|56=NESTI|10=016|
8=FIX.4.2|9=59|35=0|34=88|49=NESTI|52=20100302-21:43:33|56=QUANT|57=ADMIN|10=096|
8=FIX.4.2|9=54|35=0|34=89|49=QUANT|52=20100302-21:43:58.046|56=NESTI|10=024|
8=FIX.4.2|9=59|35=0|34=89|49=NESTI|52=20100302-21:44:34|56=QUANT|57=ADMIN|10=099|
8=FIX.4.2|9=54|35=0|34=90|49=QUANT|52=20100302-21:44:58.045|56=NESTI|10=016|
8=FIX.4.2|9=59|35=0|34=90|49=NESTI|52=20100302-21:45:35|56=QUANT|57=ADMIN|10=093|
8=FIX.4.2|9=54|35=0|34=91|49=QUANT|52=20100302-21:45:58.061|56=NESTI|10=016|
8=FIX.4.2|9=59|35=0|34=91|49=NESTI|52=20100302-21:46:36|56=QUANT|57=ADMIN|10=096|
8=FIX.4.2|9=54|35=0|34=92|49=QUANT|52=20100302-21:46:58.076|56=NESTI|10=024|
8=FIX.4.2|9=59|35=0|34=92|49=NESTI|52=20100302-21:47:37|56=QUANT|57=ADMIN|10=099|
8=FIX.4.2|9=54|35=0|34=93|49=QUANT|52=20100302-21:47:58.076|56=NESTI|10=026|
8=FIX.4.2|9=59|35=0|34=93|49=NESTI|52=20100302-21:48:38|56=QUANT|57=ADMIN|10=102|
8=FIX.4.2|9=54|35=0|34=94|49=QUANT|52=20100302-21:48:58.122|56=NESTI|10=020|
8=FIX.4.2|9=59|35=0|34=94|49=NESTI|52=20100302-21:49:39|56=QUANT|57=ADMIN|10=105|
8=FIX.4.2|9=54|35=0|34=95|49=QUANT|52=20100302-21:49:58.137|56=NESTI|10=028|
8=FIX.4.2|9=59|35=0|34=95|49=NESTI|52=20100302-21:50:40|56=QUANT|57=ADMIN|10=090|
8=FIX.4.2|9=54|35=0|34=96|49=QUANT|52=20100302-21:50:58.137|56=NESTI|10=021|
8=FIX.4.2|9=59|35=0|34=96|49=NESTI|52=20100302-21:51:41|56=QUANT|57=ADMIN|10=093|
8=FIX.4.2|9=54|35=0|34=97|49=QUANT|52=20100302-21:51:58.168|56=NESTI|10=027|
8=FIX.4.2|9=59|35=0|34=97|49=NESTI|52=20100302-21:52:42|56=QUANT|57=ADMIN|10=096|
8=FIX.4.2|9=54|35=0|34=98|49=QUANT|52=20100302-21:52:58.183|56=NESTI|10=026|
8=FIX.4.2|9=59|35=0|34=98|49=NESTI|52=20100302-21:53:43|56=QUANT|57=ADMIN|10=099|
8=FIX.4.2|9=54|35=0|34=99|49=QUANT|52=20100302-21:53:58.183|56=NESTI|10=028|
8=FIX.4.2|9=59|35=0|34=99|49=NESTI|52=20100302-21:54:44|56=QUANT|57=ADMIN|10=102|
8=FIX.4.2|9=55|35=0|34=100|49=QUANT|52=20100302-21:54:58.213|56=NESTI|10=055|
8=FIX.4.2|9=60|35=0|34=100|49=NESTI|52=20100302-21:55:45|56=QUANT|57=ADMIN|10=127|
8=FIX.4.2|9=55|35=0|34=101|49=QUANT|52=20100302-21:55:58.229|56=NESTI|10=064|
8=FIX.4.2|9=60|35=0|34=101|49=NESTI|52=20100302-21:56:46|56=QUANT|57=ADMIN|10=130|
8=FIX.4.2|9=55|35=0|34=102|49=QUANT|52=20100302-21:56:58.260|56=NESTI|10=061|
8=FIX.4.2|9=60|35=0|34=102|49=NESTI|52=20100302-21:57:47|56=QUANT|57=ADMIN|10=133|
8=FIX.4.2|9=55|35=0|34=103|49=QUANT|52=20100302-21:57:58.290|56=NESTI|10=066|
8=FIX.4.2|9=60|35=0|34=103|49=NESTI|52=20100302-21:58:48|56=QUANT|57=ADMIN|10=136|
8=FIX.4.2|9=55|35=0|34=104|49=QUANT|52=20100302-21:58:58.337|56=NESTI|10=070|
8=FIX.4.2|9=60|35=0|34=104|49=NESTI|52=20100302-21:59:49|56=QUANT|57=ADMIN|10=139|
8=FIX.4.2|9=55|35=0|34=105|49=QUANT|52=20100302-21:59:58.352|56=NESTI|10=069|
8=FIX.4.2|9=60|35=0|34=105|49=NESTI|52=20100302-22:00:50|56=QUANT|57=ADMIN|10=119|
8=FIX.4.2|9=55|35=0|34=106|49=QUANT|52=20100302-22:00:58.352|56=NESTI|10=057|
8=FIX.4.2|9=60|35=0|34=106|49=NESTI|52=20100302-22:01:51|56=QUANT|57=ADMIN|10=122|
8=FIX.4.2|9=55|35=0|34=107|49=QUANT|52=20100302-22:01:58.367|56=NESTI|10=065|
8=FIX.4.2|9=60|35=0|34=107|49=NESTI|52=20100302-22:02:52|56=QUANT|57=ADMIN|10=125|
8=FIX.4.2|9=55|35=0|34=108|49=QUANT|52=20100302-22:02:58.367|56=NESTI|10=067|
8=FIX.4.2|9=60|35=0|34=108|49=NESTI|52=20100302-22:03:53|56=QUANT|57=ADMIN|10=128|
8=FIX.4.2|9=55|35=0|34=109|49=QUANT|52=20100302-22:03:58.382|56=NESTI|10=066|
8=FIX.4.2|9=60|35=0|34=109|49=NESTI|52=20100302-22:04:54|56=QUANT|57=ADMIN|10=131|
8=FIX.4.2|9=55|35=0|34=110|49=QUANT|52=20100302-22:04:58.397|56=NESTI|10=065|
8=FIX.4.2|9=60|35=0|34=110|49=NESTI|52=20100302-22:05:55|56=QUANT|57=ADMIN|10=125|
8=FIX.4.2|9=55|35=0|34=111|49=QUANT|52=20100302-22:05:58.397|56=NESTI|10=067|
8=FIX.4.2|9=60|35=0|34=111|49=NESTI|52=20100302-22:06:56|56=QUANT|57=ADMIN|10=128|
8=FIX.4.2|9=55|35=0|34=112|49=QUANT|52=20100302-22:06:58.412|56=NESTI|10=057|
8=FIX.4.2|9=55|35=0|34=113|49=QUANT|52=20100302-22:07:58.412|56=NESTI|10=059|
8=FIX.4.2|9=60|35=0|34=112|49=NESTI|52=20100302-22:07:57|56=QUANT|57=ADMIN|10=131|
8=FIX.4.2|9=55|35=0|34=114|49=QUANT|52=20100302-22:08:58.427|56=NESTI|10=067|
8=FIX.4.2|9=60|35=0|34=113|49=NESTI|52=20100302-22:08:58|56=QUANT|57=ADMIN|10=134|
8=FIX.4.2|9=55|35=0|34=115|49=QUANT|52=20100302-22:09:58.426|56=NESTI|10=068|
8=FIX.4.2|9=60|35=0|34=114|49=NESTI|52=20100302-22:09:59|56=QUANT|57=ADMIN|10=137|
8=FIX.4.2|9=55|35=0|34=116|49=QUANT|52=20100302-22:10:58.442|56=NESTI|10=059|
8=FIX.4.2|9=60|35=0|34=115|49=NESTI|52=20100302-22:11:00|56=QUANT|57=ADMIN|10=117|
8=FIX.4.2|9=55|35=0|34=117|49=QUANT|52=20100302-22:11:58.457|56=NESTI|10=067|
8=FIX.4.2|9=60|35=0|34=116|49=NESTI|52=20100302-22:12:01|56=QUANT|57=ADMIN|10=120|
8=FIX.4.2|9=55|35=0|34=118|49=QUANT|52=20100302-22:12:58.472|56=NESTI|10=066|
8=FIX.4.2|9=60|35=0|34=117|49=NESTI|52=20100302-22:13:02|56=QUANT|57=ADMIN|10=123|
8=FIX.4.2|9=55|35=0|34=119|49=QUANT|52=20100302-22:13:58.472|56=NESTI|10=068|
8=FIX.4.2|9=60|35=0|34=118|49=NESTI|52=20100302-22:14:03|56=QUANT|57=ADMIN|10=126|
8=FIX.4.2|9=55|35=0|34=120|49=QUANT|52=20100302-22:14:58.487|56=NESTI|10=067|
8=FIX.4.2|9=60|35=0|34=119|49=NESTI|52=20100302-22:15:04|56=QUANT|57=ADMIN|10=129|
8=FIX.4.2|9=55|35=0|34=121|49=QUANT|52=20100302-22:15:58.487|56=NESTI|10=069|
8=FIX.4.2|9=60|35=0|34=120|49=NESTI|52=20100302-22:16:05|56=QUANT|57=ADMIN|10=123|
8=FIX.4.2|9=55|35=0|34=122|49=QUANT|52=20100302-22:16:58.502|56=NESTI|10=059|
8=FIX.4.2|9=60|35=0|34=121|49=NESTI|52=20100302-22:17:06|56=QUANT|57=ADMIN|10=126|
8=FIX.4.2|9=55|35=0|34=123|49=QUANT|52=20100302-22:17:58.502|56=NESTI|10=061|
8=FIX.4.2|9=60|35=0|34=122|49=NESTI|52=20100302-22:18:07|56=QUANT|57=ADMIN|10=129|
8=FIX.4.2|9=55|35=0|34=124|49=QUANT|52=20100302-22:18:58.517|56=NESTI|10=069|
8=FIX.4.2|9=60|35=0|34=123|49=NESTI|52=20100302-22:19:08|56=QUANT|57=ADMIN|10=132|
8=FIX.4.2|9=55|35=0|34=125|49=QUANT|52=20100302-22:19:58.532|56=NESTI|10=068|
8=FIX.4.2|9=60|35=0|34=124|49=NESTI|52=20100302-22:20:09|56=QUANT|57=ADMIN|10=126|
8=FIX.4.2|9=55|35=0|34=126|49=QUANT|52=20100302-22:20:58.532|56=NESTI|10=061|
8=FIX.4.2|9=60|35=0|34=125|49=NESTI|52=20100302-22:21:10|56=QUANT|57=ADMIN|10=120|
8=FIX.4.2|9=55|35=0|34=127|49=QUANT|52=20100302-22:21:58.547|56=NESTI|10=069|
8=FIX.4.2|9=60|35=0|34=126|49=NESTI|52=20100302-22:22:11|56=QUANT|57=ADMIN|10=123|
8=FIX.4.2|9=55|35=0|34=128|49=QUANT|52=20100302-22:22:58.546|56=NESTI|10=070|
8=FIX.4.2|9=60|35=0|34=127|49=NESTI|52=20100302-22:23:12|56=QUANT|57=ADMIN|10=126|
8=FIX.4.2|9=55|35=0|34=129|49=QUANT|52=20100302-22:23:58.562|56=NESTI|10=070|
8=FIX.4.2|9=60|35=0|34=128|49=NESTI|52=20100302-22:24:13|56=QUANT|57=ADMIN|10=129|
8=FIX.4.2|9=55|35=0|34=130|49=QUANT|52=20100302-22:24:58.577|56=NESTI|10=069|
8=FIX.4.2|9=60|35=0|34=129|49=NESTI|52=20100302-22:25:14|56=QUANT|57=ADMIN|10=132|
8=FIX.4.2|9=55|35=0|34=131|49=QUANT|52=20100302-22:25:58.577|56=NESTI|10=071|
8=FIX.4.2|9=60|35=0|34=130|49=NESTI|52=20100302-22:26:15|56=QUANT|57=ADMIN|10=126|
8=FIX.4.2|9=55|35=0|34=132|49=QUANT|52=20100302-22:26:58.592|56=NESTI|10=070|
8=FIX.4.2|9=60|35=0|34=131|49=NESTI|52=20100302-22:27:16|56=QUANT|57=ADMIN|10=129|
8=FIX.4.2|9=55|35=0|34=133|49=QUANT|52=20100302-22:27:58.607|56=NESTI|10=069|
8=FIX.4.2|9=60|35=0|34=132|49=NESTI|52=20100302-22:28:17|56=QUANT|57=ADMIN|10=132|
8=FIX.4.2|9=55|35=0|34=134|49=QUANT|52=20100302-22:28:58.607|56=NESTI|10=071|
8=FIX.4.2|9=60|35=0|34=133|49=NESTI|52=20100302-22:29:18|56=QUANT|57=ADMIN|10=135|
8=FIX.4.2|9=55|35=0|34=135|49=QUANT|52=20100302-22:29:58.622|56=NESTI|10=070|
8=FIX.4.2|9=60|35=0|34=134|49=NESTI|52=20100302-22:30:19|56=QUANT|57=ADMIN|10=129|
8=FIX.4.2|9=55|35=0|34=136|49=QUANT|52=20100302-22:30:58.622|56=NESTI|10=063|
8=FIX.4.2|9=60|35=0|34=135|49=NESTI|52=20100302-22:31:20|56=QUANT|57=ADMIN|10=123|
8=FIX.4.2|9=55|35=0|34=137|49=QUANT|52=20100302-22:31:58.637|56=NESTI|10=071|
8=FIX.4.2|9=60|35=0|34=136|49=NESTI|52=20100302-22:32:21|56=QUANT|57=ADMIN|10=126|
8=FIX.4.2|9=55|35=0|34=138|49=QUANT|52=20100302-22:32:58.652|56=NESTI|10=070|
8=FIX.4.2|9=60|35=0|34=137|49=NESTI|52=20100302-22:33:22|56=QUANT|57=ADMIN|10=129|
8=FIX.4.2|9=55|35=0|34=139|49=QUANT|52=20100302-22:33:58.652|56=NESTI|10=072|
8=FIX.4.2|9=60|35=0|34=138|49=NESTI|52=20100302-22:34:23|56=QUANT|57=ADMIN|10=132|
8=FIX.4.2|9=55|35=0|34=140|49=QUANT|52=20100302-22:34:58.667|56=NESTI|10=071|
8=FIX.4.2|9=60|35=0|34=139|49=NESTI|52=20100302-22:35:24|56=QUANT|57=ADMIN|10=135|
8=FIX.4.2|9=55|35=0|34=141|49=QUANT|52=20100302-22:35:58.666|56=NESTI|10=072|
8=FIX.4.2|9=60|35=0|34=140|49=NESTI|52=20100302-22:36:25|56=QUANT|57=ADMIN|10=129|
8=FIX.4.2|9=55|35=0|34=142|49=QUANT|52=20100302-22:36:58.682|56=NESTI|10=072|
8=FIX.4.2|9=60|35=0|34=141|49=NESTI|52=20100302-22:37:26|56=QUANT|57=ADMIN|10=132|
8=FIX.4.2|9=55|35=0|34=143|49=QUANT|52=20100302-22:37:58.697|56=NESTI|10=080|
8=FIX.4.2|9=60|35=0|34=142|49=NESTI|52=20100302-22:38:27|56=QUANT|57=ADMIN|10=135|
8=FIX.4.2|9=55|35=0|34=144|49=QUANT|52=20100302-22:38:58.697|56=NESTI|10=082|
8=FIX.4.2|9=60|35=0|34=143|49=NESTI|52=20100302-22:39:28|56=QUANT|57=ADMIN|10=138|
8=FIX.4.2|9=55|35=0|34=145|49=QUANT|52=20100302-22:39:58.712|56=NESTI|10=072|
8=FIX.4.2|9=60|35=0|34=144|49=NESTI|52=20100302-22:40:29|56=QUANT|57=ADMIN|10=132|
8=FIX.4.2|9=55|35=0|34=146|49=QUANT|52=20100302-22:40:58.727|56=NESTI|10=071|
8=FIX.4.2|9=60|35=0|34=145|49=NESTI|52=20100302-22:41:30|56=QUANT|57=ADMIN|10=126|
8=FIX.4.2|9=55|35=0|34=147|49=QUANT|52=20100302-22:41:58.727|56=NESTI|10=073|
8=FIX.4.2|9=60|35=0|34=146|49=NESTI|52=20100302-22:42:31|56=QUANT|57=ADMIN|10=129|
8=FIX.4.2|9=55|35=0|34=148|49=QUANT|52=20100302-22:42:58.742|56=NESTI|10=072|
8=FIX.4.2|9=60|35=0|34=147|49=NESTI|52=20100302-22:43:32|56=QUANT|57=ADMIN|10=132|
8=FIX.4.2|9=55|35=0|34=149|49=QUANT|52=20100302-22:43:58.742|56=NESTI|10=074|
8=FIX.4.2|9=60|35=0|34=148|49=NESTI|52=20100302-22:44:33|56=QUANT|57=ADMIN|10=135|
8=FIX.4.2|9=55|35=0|34=150|49=QUANT|52=20100302-22:44:58.757|56=NESTI|10=073|
8=FIX.4.2|9=60|35=0|34=149|49=NESTI|52=20100302-22:45:34|56=QUANT|57=ADMIN|10=138|
8=FIX.4.2|9=55|35=0|34=151|49=QUANT|52=20100302-22:45:58.772|56=NESTI|10=072|
8=FIX.4.2|9=60|35=0|34=150|49=NESTI|52=20100302-22:46:35|56=QUANT|57=ADMIN|10=132|
8=FIX.4.2|9=55|35=0|34=152|49=QUANT|52=20100302-22:46:58.772|56=NESTI|10=074|
8=FIX.4.2|9=60|35=0|34=151|49=NESTI|52=20100302-22:47:36|56=QUANT|57=ADMIN|10=135|
8=FIX.4.2|9=55|35=0|34=153|49=QUANT|52=20100302-22:47:58.787|56=NESTI|10=082|
8=FIX.4.2|9=60|35=0|34=152|49=NESTI|52=20100302-22:48:37|56=QUANT|57=ADMIN|10=138|
8=FIX.4.2|9=55|35=0|34=154|49=QUANT|52=20100302-22:48:58.786|56=NESTI|10=083|
8=FIX.4.2|9=60|35=0|34=153|49=NESTI|52=20100302-22:49:38|56=QUANT|57=ADMIN|10=141|
8=FIX.4.2|9=55|35=0|34=155|49=QUANT|52=20100302-22:49:58.802|56=NESTI|10=074|
8=FIX.4.2|9=60|35=0|34=154|49=NESTI|52=20100302-22:50:39|56=QUANT|57=ADMIN|10=135|
8=FIX.4.2|9=55|35=0|34=156|49=QUANT|52=20100302-22:50:58.817|56=NESTI|10=073|
8=FIX.4.2|9=60|35=0|34=155|49=NESTI|52=20100302-22:51:40|56=QUANT|57=ADMIN|10=129|
8=FIX.4.2|9=55|35=0|34=157|49=QUANT|52=20100302-22:51:58.817|56=NESTI|10=075|
8=FIX.4.2|9=60|35=0|34=156|49=NESTI|52=20100302-22:52:41|56=QUANT|57=ADMIN|10=132|
8=FIX.4.2|9=55|35=0|34=158|49=QUANT|52=20100302-22:52:58.832|56=NESTI|10=074|
8=FIX.4.2|9=60|35=0|34=157|49=NESTI|52=20100302-22:53:42|56=QUANT|57=ADMIN|10=135|
8=FIX.4.2|9=55|35=0|34=159|49=QUANT|52=20100302-22:53:58.831|56=NESTI|10=075|
8=FIX.4.2|9=60|35=0|34=158|49=NESTI|52=20100302-22:54:43|56=QUANT|57=ADMIN|10=138|
8=FIX.4.2|9=55|35=0|34=160|49=QUANT|52=20100302-22:54:58.847|56=NESTI|10=075|
8=FIX.4.2|9=60|35=0|34=159|49=NESTI|52=20100302-22:55:44|56=QUANT|57=ADMIN|10=141|
8=FIX.4.2|9=55|35=0|34=161|49=QUANT|52=20100302-22:55:58.862|56=NESTI|10=074|
8=FIX.4.2|9=60|35=0|34=160|49=NESTI|52=20100302-22:56:45|56=QUANT|57=ADMIN|10=135|
8=FIX.4.2|9=55|35=0|34=162|49=QUANT|52=20100302-22:56:58.862|56=NESTI|10=076|
8=FIX.4.2|9=60|35=0|34=161|49=NESTI|52=20100302-22:57:46|56=QUANT|57=ADMIN|10=138|
8=FIX.4.2|9=55|35=0|34=163|49=QUANT|52=20100302-22:57:58.877|56=NESTI|10=084|
8=FIX.4.2|9=60|35=0|34=162|49=NESTI|52=20100302-22:58:47|56=QUANT|57=ADMIN|10=141|
8=FIX.4.2|9=55|35=0|34=164|49=QUANT|52=20100302-22:58:58.892|56=NESTI|10=083|
8=FIX.4.2|9=60|35=0|34=163|49=NESTI|52=20100302-22:59:48|56=QUANT|57=ADMIN|10=144|
8=FIX.4.2|9=55|35=0|34=165|49=QUANT|52=20100302-22:59:58.892|56=NESTI|10=085|
8=FIX.4.2|9=60|35=0|34=164|49=NESTI|52=20100302-23:00:49|56=QUANT|57=ADMIN|10=133|
8=FIX.4.2|9=55|35=0|34=166|49=QUANT|52=20100302-23:00:58.907|56=NESTI|10=070|
8=FIX.4.2|9=60|35=0|34=165|49=NESTI|52=20100302-23:01:50|56=QUANT|57=ADMIN|10=127|
8=FIX.4.2|9=55|35=0|34=167|49=QUANT|52=20100302-23:01:58.922|56=NESTI|10=069|
8=FIX.4.2|9=60|35=0|34=166|49=NESTI|52=20100302-23:02:51|56=QUANT|57=ADMIN|10=130|
8=FIX.4.2|9=55|35=0|34=168|49=QUANT|52=20100302-23:02:58.922|56=NESTI|10=071|
8=FIX.4.2|9=60|35=0|34=167|49=NESTI|52=20100302-23:03:52|56=QUANT|57=ADMIN|10=133|
8=FIX.4.2|9=55|35=0|34=169|49=QUANT|52=20100302-23:03:58.937|56=NESTI|10=079|
8=FIX.4.2|9=55|35=5|34=170|49=QUANT|52=20100302-23:04:19.937|56=NESTI|10=074|
8=FIX.4.2|9=101|35=5|34=168|49=NESTI|52=20100302-23:04:18|56=QUANT|57=ADMIN|58=Accepting request to close connection|10=165|
8=FIX.4.2|9=65|35=A|34=1|49=QUANT|52=20100303-15:10:11.347|56=NESTI|98=0|108=60|10=254|
8=FIX.4.2|9=70|35=A|34=1|49=NESTI|52=20100303-15:10:11|56=QUANT|57=ADMIN|98=0|108=60|10=065|
8=FIX.4.2|9=80|35=1|34=2|49=NESTI|52=20100303-15:10:11|56=QUANT|57=ADMIN|112=1267629011.078901|10=083|
8=FIX.4.2|9=75|35=0|34=2|49=QUANT|52=20100303-15:10:11.457|56=NESTI|112=1267629011.078901|10=017|
8=FIX.4.2|9=120|35=D|34=3|49=QUANT|52=20100303-15:10:18.988|56=NESTI|11=IAA0001|21=1|38=5|40=1|50=UA|54=1|55=PETR4|60=20100303-12:10:18|10=243|
8=FIX.4.2|9=196|35=8|34=3|49=NESTI|50=RAI|52=20100303-15:10:31|56=QUANT|57=UA|38=5|6=0.00000000|11=IAA0001|14=0|17=1100000001|20=0|31=0.00000000|32=0|37=BIAA0001QUANT|39=0|44=0.00000000|54=1|55=PETR4|150=0|151=5|10=058|
8=FIX.4.2|9=53|35=0|34=4|49=QUANT|52=20100303-15:11:18.393|56=NESTI|10=218|
8=FIX.4.2|9=58|35=0|34=4|49=NESTI|52=20100303-15:11:32|56=QUANT|57=ADMIN|10=033|
8=FIX.4.2|9=53|35=0|34=5|49=QUANT|52=20100303-15:12:18.408|56=NESTI|10=217|
8=FIX.4.2|9=58|35=0|34=5|49=NESTI|52=20100303-15:12:33|56=QUANT|57=ADMIN|10=036|
8=FIX.4.2|9=53|35=0|34=6|49=QUANT|52=20100303-15:13:18.439|56=NESTI|10=223|
8=FIX.4.2|9=58|35=0|34=6|49=NESTI|52=20100303-15:13:34|56=QUANT|57=ADMIN|10=039|
8=FIX.4.2|9=53|35=0|34=7|49=QUANT|52=20100303-15:14:18.453|56=NESTI|10=221|
8=FIX.4.2|9=58|35=0|34=7|49=NESTI|52=20100303-15:14:35|56=QUANT|57=ADMIN|10=042|
8=FIX.4.2|9=53|35=0|34=8|49=QUANT|52=20100303-15:15:18.468|56=NESTI|10=229|
8=FIX.4.2|9=58|35=0|34=8|49=NESTI|52=20100303-15:15:36|56=QUANT|57=ADMIN|10=045|
8=FIX.4.2|9=53|35=0|34=9|49=QUANT|52=20100303-15:16:18.483|56=NESTI|10=228|
8=FIX.4.2|9=58|35=0|34=9|49=NESTI|52=20100303-15:16:37|56=QUANT|57=ADMIN|10=048|
8=FIX.4.2|9=54|35=0|34=10|49=QUANT|52=20100303-15:17:18.514|56=NESTI|10=009|
8=FIX.4.2|9=59|35=0|34=10|49=NESTI|52=20100303-15:17:38|56=QUANT|57=ADMIN|10=091|
8=FIX.4.2|9=54|35=0|34=11|49=QUANT|52=20100303-15:18:18.529|56=NESTI|10=017|
8=FIX.4.2|9=59|35=0|34=11|49=NESTI|52=20100303-15:18:39|56=QUANT|57=ADMIN|10=094|
8=FIX.4.2|9=54|35=0|34=12|49=QUANT|52=20100303-15:19:18.543|56=NESTI|10=015|
8=FIX.4.2|9=59|35=0|34=12|49=NESTI|52=20100303-15:19:40|56=QUANT|57=ADMIN|10=088|
8=FIX.4.2|9=54|35=0|34=13|49=QUANT|52=20100303-15:20:18.558|56=NESTI|10=014|
8=FIX.4.2|9=59|35=0|34=13|49=NESTI|52=20100303-15:20:41|56=QUANT|57=ADMIN|10=082|
8=FIX.4.2|9=54|35=0|34=14|49=QUANT|52=20100303-15:21:18.589|56=NESTI|10=020|
8=FIX.4.2|9=59|35=0|34=14|49=NESTI|52=20100303-15:21:42|56=QUANT|57=ADMIN|10=085|
8=FIX.4.2|9=54|35=0|34=15|49=QUANT|52=20100303-15:22:18.604|56=NESTI|10=010|
8=FIX.4.2|9=59|35=0|34=15|49=NESTI|52=20100303-15:22:43|56=QUANT|57=ADMIN|10=088|
8=FIX.4.2|9=54|35=0|34=16|49=QUANT|52=20100303-15:23:18.618|56=NESTI|10=017|
8=FIX.4.2|9=59|35=0|34=16|49=NESTI|52=20100303-15:23:44|56=QUANT|57=ADMIN|10=091|
8=FIX.4.2|9=54|35=0|34=17|49=QUANT|52=20100303-15:24:18.633|56=NESTI|10=016|
8=FIX.4.2|9=59|35=0|34=17|49=NESTI|52=20100303-15:24:45|56=QUANT|57=ADMIN|10=094|
8=FIX.4.2|9=54|35=0|34=18|49=QUANT|52=20100303-15:25:18.648|56=NESTI|10=024|
8=FIX.4.2|9=59|35=0|34=18|49=NESTI|52=20100303-15:25:46|56=QUANT|57=ADMIN|10=097|
8=FIX.4.2|9=54|35=0|34=19|49=QUANT|52=20100303-15:26:18.679|56=NESTI|10=030|
8=FIX.4.2|9=59|35=0|34=19|49=NESTI|52=20100303-15:26:47|56=QUANT|57=ADMIN|10=100|
8=FIX.4.2|9=54|35=0|34=20|49=QUANT|52=20100303-15:27:18.693|56=NESTI|10=019|
8=FIX.4.2|9=59|35=0|34=20|49=NESTI|52=20100303-15:27:48|56=QUANT|57=ADMIN|10=094|
8=FIX.4.2|9=54|35=0|34=21|49=QUANT|52=20100303-15:28:18.708|56=NESTI|10=018|
8=FIX.4.2|9=54|35=5|34=22|49=QUANT|52=20100303-15:28:32.708|56=NESTI|10=020|
8=FIX.4.2|9=100|35=5|34=21|49=NESTI|52=20100303-15:28:32|56=QUANT|57=ADMIN|58=Accepting request to close connection|10=108|
8=FIX.4.2|9=66|35=A|34=23|49=QUANT|52=20100303-16:02:13.245|56=NESTI|98=0|108=60|10=052|
8=FIX.4.2|9=71|35=A|34=22|49=NESTI|52=20100303-16:02:13|56=QUANT|57=ADMIN|98=0|108=60|10=121|
8=FIX.4.2|9=81|35=1|34=23|49=NESTI|52=20100303-16:02:13|56=QUANT|57=ADMIN|112=1267632133.039582|10=140|
8=FIX.4.2|9=76|35=0|34=24|49=QUANT|52=20100303-16:02:13.417|56=NESTI|112=1267632133.039582|10=071|
8=FIX.4.2|9=54|35=0|34=25|49=QUANT|52=20100303-16:03:13.260|56=NESTI|10=004|
8=FIX.4.2|9=59|35=0|34=24|49=NESTI|52=20100303-16:03:14|56=QUANT|57=ADMIN|10=086|
8=FIX.4.2|9=189|35=8|34=25|49=NESTI|52=20100303-16:03:16|56=QUANT|57=UA|38=5|6=1.00000000|11=IAA0001|14=1|17=161000249|20=0|31=1.00000000|32=1|37=BIAA0001QUANT|39=1|44=0.00000000|54=1|55=PETR4|150=1|151=4|10=224|
8=FIX.4.2|9=54|35=0|34=26|49=QUANT|52=20100303-16:04:13.275|56=NESTI|10=012|
8=FIX.4.2|9=59|35=0|34=26|49=NESTI|52=20100303-16:04:17|56=QUANT|57=ADMIN|10=092|
8=FIX.4.2|9=54|35=0|34=27|49=QUANT|52=20100303-16:05:13.305|56=NESTI|10=008|
8=FIX.4.2|9=59|35=0|34=27|49=NESTI|52=20100303-16:05:18|56=QUANT|57=ADMIN|10=095|
8=FIX.4.2|9=54|35=0|34=28|49=QUANT|52=20100303-16:06:13.320|56=NESTI|10=007|
8=FIX.4.2|9=59|35=0|34=28|49=NESTI|52=20100303-16:06:19|56=QUANT|57=ADMIN|10=098|
8=FIX.4.2|9=54|35=0|34=29|49=QUANT|52=20100303-16:07:13.335|56=NESTI|10=015|
8=FIX.4.2|9=59|35=0|34=29|49=NESTI|52=20100303-16:07:20|56=QUANT|57=ADMIN|10=092|
8=FIX.4.2|9=54|35=0|34=30|49=QUANT|52=20100303-16:08:13.350|56=NESTI|10=005|
8=FIX.4.2|9=59|35=0|34=30|49=NESTI|52=20100303-16:08:21|56=QUANT|57=ADMIN|10=086|
8=FIX.4.2|9=54|35=0|34=31|49=QUANT|52=20100303-16:09:13.380|56=NESTI|10=010|
8=FIX.4.2|9=59|35=0|34=31|49=NESTI|52=20100303-16:09:22|56=QUANT|57=ADMIN|10=089|
8=FIX.4.2|9=54|35=0|34=32|49=QUANT|52=20100303-16:10:13.395|56=NESTI|10=009|
8=FIX.4.2|9=59|35=0|34=32|49=NESTI|52=20100303-16:10:23|56=QUANT|57=ADMIN|10=083|
8=FIX.4.2|9=54|35=0|34=33|49=QUANT|52=20100303-16:11:13.410|56=NESTI|10=255|
8=FIX.4.2|9=59|35=0|34=33|49=NESTI|52=20100303-16:11:24|56=QUANT|57=ADMIN|10=086|
8=FIX.4.2|9=122|35=D|34=34|49=QUANT|52=20100303-16:11:26.675|56=NESTI|11=IAA0002|21=1|38=10|40=1|50=UA|54=1|55=PETR4|60=20100303-13:11:26|10=081|
8=FIX.4.2|9=59|35=0|34=34|49=NESTI|52=20100303-16:12:25|56=QUANT|57=ADMIN|10=089|
8=FIX.4.2|9=54|35=0|34=35|49=QUANT|52=20100303-16:12:26.440|56=NESTI|10=009|
8=FIX.4.2|9=59|35=0|34=35|49=NESTI|52=20100303-16:13:26|56=QUANT|57=ADMIN|10=092|
8=FIX.4.2|9=54|35=0|34=36|49=QUANT|52=20100303-16:13:26.439|56=NESTI|10=019|
8=FIX.4.2|9=54|35=0|34=37|49=QUANT|52=20100303-16:14:26.470|56=NESTI|10=016|
8=FIX.4.2|9=59|35=0|34=36|49=NESTI|52=20100303-16:14:27|56=QUANT|57=ADMIN|10=095|
8=FIX.4.2|9=54|35=0|34=38|49=QUANT|52=20100303-16:15:26.485|56=NESTI|10=024|
8=FIX.4.2|9=59|35=0|34=37|49=NESTI|52=20100303-16:15:28|56=QUANT|57=ADMIN|10=098|
8=FIX.4.2|9=199|35=8|34=38|49=NESTI|50=RAI|52=20100303-16:16:09|56=QUANT|57=UA|38=10|6=0.00000000|11=IAA0002|14=0|17=1100000004|20=0|31=0.00000000|32=0|37=BIAA0002QUANT|39=0|44=0.00000000|54=1|55=PETR4|150=0|151=10|10=222|
8=FIX.4.2|9=54|35=0|34=39|49=QUANT|52=20100303-16:16:26.499|56=NESTI|10=031|
8=FIX.4.2|9=59|35=0|34=39|49=NESTI|52=20100303-16:17:10|56=QUANT|57=ADMIN|10=093|
8=FIX.4.2|9=54|35=0|34=40|49=QUANT|52=20100303-16:17:26.530|56=NESTI|10=010|
8=FIX.4.2|9=59|35=0|34=40|49=NESTI|52=20100303-16:18:11|56=QUANT|57=ADMIN|10=087|
8=FIX.4.2|9=54|35=0|34=41|49=QUANT|52=20100303-16:18:26.545|56=NESTI|10=018|
8=FIX.4.2|9=59|35=0|34=41|49=NESTI|52=20100303-16:19:12|56=QUANT|57=ADMIN|10=090|
8=FIX.4.2|9=54|35=0|34=42|49=QUANT|52=20100303-16:19:26.560|56=NESTI|10=017|
8=FIX.4.2|9=59|35=0|34=42|49=NESTI|52=20100303-16:20:13|56=QUANT|57=ADMIN|10=084|
8=FIX.4.2|9=189|35=8|34=43|49=NESTI|52=20100303-16:20:23|56=QUANT|57=UA|38=5|6=1.00000000|11=IAA0001|14=5|17=161000318|20=0|31=1.00000000|32=4|37=BIAA0001QUANT|39=2|44=0.00000000|54=1|55=PETR4|150=2|151=0|10=223|
8=FIX.4.2|9=54|35=0|34=43|49=QUANT|52=20100303-16:20:26.575|56=NESTI|10=016|
8=FIX.4.2|9=59|35=0|34=44|49=NESTI|52=20100303-16:21:24|56=QUANT|57=ADMIN|10=089|
8=FIX.4.2|9=54|35=0|34=44|49=QUANT|52=20100303-16:21:26.605|56=NESTI|10=012|
8=FIX.4.2|9=59|35=0|34=45|49=NESTI|52=20100303-16:22:25|56=QUANT|57=ADMIN|10=092|
8=FIX.4.2|9=54|35=0|34=45|49=QUANT|52=20100303-16:22:26.620|56=NESTI|10=011|
8=FIX.4.2|9=59|35=0|34=46|49=NESTI|52=20100303-16:23:26|56=QUANT|57=ADMIN|10=095|
8=FIX.4.2|9=54|35=0|34=46|49=QUANT|52=20100303-16:23:26.619|56=NESTI|10=021|
8=FIX.4.2|9=54|35=0|34=47|49=QUANT|52=20100303-16:24:26.650|56=NESTI|10=018|
8=FIX.4.2|9=59|35=0|34=47|49=NESTI|52=20100303-16:24:27|56=QUANT|57=ADMIN|10=098|
8=FIX.4.2|9=54|35=0|34=48|49=QUANT|52=20100303-16:25:26.680|56=NESTI|10=023|
8=FIX.4.2|9=59|35=0|34=48|49=NESTI|52=20100303-16:25:28|56=QUANT|57=ADMIN|10=101|
8=FIX.4.2|9=54|35=0|34=49|49=QUANT|52=20100303-16:26:26.695|56=NESTI|10=031|
8=FIX.4.2|9=59|35=0|34=49|49=NESTI|52=20100303-16:26:29|56=QUANT|57=ADMIN|10=104|
8=FIX.4.2|9=54|35=0|34=50|49=QUANT|52=20100303-16:27:26.710|56=NESTI|10=012|
8=FIX.4.2|9=59|35=0|34=50|49=NESTI|52=20100303-16:27:30|56=QUANT|57=ADMIN|10=089|
8=FIX.4.2|9=54|35=0|34=51|49=QUANT|52=20100303-16:28:26.725|56=NESTI|10=020|
8=FIX.4.2|9=59|35=0|34=51|49=NESTI|52=20100303-16:28:31|56=QUANT|57=ADMIN|10=092|
8=FIX.4.2|9=54|35=0|34=52|49=QUANT|52=20100303-16:29:26.740|56=NESTI|10=019|
8=FIX.4.2|9=59|35=0|34=52|49=NESTI|52=20100303-16:29:32|56=QUANT|57=ADMIN|10=095|
8=FIX.4.2|9=54|35=0|34=53|49=QUANT|52=20100303-16:30:26.770|56=NESTI|10=015|
8=FIX.4.2|9=59|35=0|34=53|49=NESTI|52=20100303-16:30:33|56=QUANT|57=ADMIN|10=089|
8=FIX.4.2|9=54|35=0|34=54|49=QUANT|52=20100303-16:31:26.785|56=NESTI|10=023|
8=FIX.4.2|9=59|35=0|34=54|49=NESTI|52=20100303-16:31:34|56=QUANT|57=ADMIN|10=092|
8=FIX.4.2|9=54|35=0|34=55|49=QUANT|52=20100303-16:32:26.800|56=NESTI|10=013|
8=FIX.4.2|9=59|35=0|34=55|49=NESTI|52=20100303-16:32:35|56=QUANT|57=ADMIN|10=095|
8=FIX.4.2|9=54|35=0|34=56|49=QUANT|52=20100303-16:33:26.815|56=NESTI|10=021|
8=FIX.4.2|9=59|35=0|34=56|49=NESTI|52=20100303-16:33:36|56=QUANT|57=ADMIN|10=098|
8=FIX.4.2|9=54|35=0|34=57|49=QUANT|52=20100303-16:34:26.845|56=NESTI|10=026|
8=FIX.4.2|9=59|35=0|34=57|49=NESTI|52=20100303-16:34:37|56=QUANT|57=ADMIN|10=101|
8=FIX.4.2|9=54|35=0|34=58|49=QUANT|52=20100303-16:35:26.860|56=NESTI|10=025|
8=FIX.4.2|9=59|35=0|34=58|49=NESTI|52=20100303-16:35:38|56=QUANT|57=ADMIN|10=104|
8=FIX.4.2|9=54|35=0|34=59|49=QUANT|52=20100303-16:36:26.875|56=NESTI|10=033|
8=FIX.4.2|9=59|35=0|34=59|49=NESTI|52=20100303-16:36:39|56=QUANT|57=ADMIN|10=107|
8=FIX.4.2|9=54|35=0|34=60|49=QUANT|52=20100303-16:37:26.890|56=NESTI|10=023|
8=FIX.4.2|9=59|35=0|34=60|49=NESTI|52=20100303-16:37:40|56=QUANT|57=ADMIN|10=092|
8=FIX.4.2|9=54|35=0|34=61|49=QUANT|52=20100303-16:38:26.920|56=NESTI|10=019|
8=FIX.4.2|9=59|35=0|34=61|49=NESTI|52=20100303-16:38:41|56=QUANT|57=ADMIN|10=095|
8=FIX.4.2|9=54|35=0|34=62|49=QUANT|52=20100303-16:39:26.935|56=NESTI|10=027|
8=FIX.4.2|9=59|35=0|34=62|49=NESTI|52=20100303-16:39:42|56=QUANT|57=ADMIN|10=098|
8=FIX.4.2|9=54|35=0|34=63|49=QUANT|52=20100303-16:40:26.950|56=NESTI|10=017|
8=FIX.4.2|9=59|35=0|34=63|49=NESTI|52=20100303-16:40:43|56=QUANT|57=ADMIN|10=092|
8=FIX.4.2|9=54|35=0|34=64|49=QUANT|52=20100303-16:41:26.965|56=NESTI|10=025|
8=FIX.4.2|9=59|35=0|34=64|49=NESTI|52=20100303-16:41:44|56=QUANT|57=ADMIN|10=095|
8=FIX.4.2|9=54|35=0|34=65|49=QUANT|52=20100303-16:42:26.980|56=NESTI|10=024|
8=FIX.4.2|9=59|35=0|34=65|49=NESTI|52=20100303-16:42:45|56=QUANT|57=ADMIN|10=098|
8=FIX.4.2|9=54|35=0|34=66|49=QUANT|52=20100303-16:43:26.010|56=NESTI|10=010|
8=FIX.4.2|9=59|35=0|34=66|49=NESTI|52=20100303-16:43:46|56=QUANT|57=ADMIN|10=101|
8=FIX.4.2|9=54|35=0|34=67|49=QUANT|52=20100303-16:44:26.025|56=NESTI|10=018|
8=FIX.4.2|9=59|35=0|34=67|49=NESTI|52=20100303-16:44:47|56=QUANT|57=ADMIN|10=104|
8=FIX.4.2|9=54|35=0|34=68|49=QUANT|52=20100303-16:45:26.040|56=NESTI|10=017|
8=FIX.4.2|9=59|35=0|34=68|49=NESTI|52=20100303-16:45:48|56=QUANT|57=ADMIN|10=107|
8=FIX.4.2|9=54|35=0|34=69|49=QUANT|52=20100303-16:46:26.055|56=NESTI|10=025|
8=FIX.4.2|9=59|35=0|34=69|49=NESTI|52=20100303-16:46:49|56=QUANT|57=ADMIN|10=110|
8=FIX.4.2|9=54|35=0|34=70|49=QUANT|52=20100303-16:47:26.085|56=NESTI|10=021|
8=FIX.4.2|9=59|35=0|34=70|49=NESTI|52=20100303-16:47:50|56=QUANT|57=ADMIN|10=095|
8=FIX.4.2|9=54|35=0|34=71|49=QUANT|52=20100303-16:48:26.100|56=NESTI|10=011|
8=FIX.4.2|9=59|35=0|34=71|49=NESTI|52=20100303-16:48:51|56=QUANT|57=ADMIN|10=098|
8=FIX.4.2|9=54|35=0|34=72|49=QUANT|52=20100303-16:49:26.115|56=NESTI|10=019|
8=FIX.4.2|9=59|35=0|34=72|49=NESTI|52=20100303-16:49:52|56=QUANT|57=ADMIN|10=101|
8=FIX.4.2|9=54|35=0|34=73|49=QUANT|52=20100303-16:50:26.130|56=NESTI|10=009|
8=FIX.4.2|9=59|35=0|34=73|49=NESTI|52=20100303-16:50:53|56=QUANT|57=ADMIN|10=095|
8=FIX.4.2|9=54|35=0|34=74|49=QUANT|52=20100303-16:51:26.144|56=NESTI|10=016|
8=FIX.4.2|9=59|35=0|34=74|49=NESTI|52=20100303-16:51:54|56=QUANT|57=ADMIN|10=098|
8=FIX.4.2|9=54|35=0|34=75|49=QUANT|52=20100303-16:52:26.175|56=NESTI|10=022|
8=FIX.4.2|9=59|35=0|34=75|49=NESTI|52=20100303-16:52:55|56=QUANT|57=ADMIN|10=101|
8=FIX.4.2|9=54|35=0|34=76|49=QUANT|52=20100303-16:53:26.190|56=NESTI|10=021|
8=FIX.4.2|9=59|35=0|34=76|49=NESTI|52=20100303-16:53:56|56=QUANT|57=ADMIN|10=104|
8=FIX.4.2|9=54|35=0|34=77|49=QUANT|52=20100303-16:54:26.205|56=NESTI|10=020|
8=FIX.4.2|9=59|35=0|34=77|49=NESTI|52=20100303-16:54:57|56=QUANT|57=ADMIN|10=107|
8=FIX.4.2|9=54|35=0|34=78|49=QUANT|52=20100303-16:55:26.220|56=NESTI|10=019|
8=FIX.4.2|9=59|35=0|34=78|49=NESTI|52=20100303-16:55:58|56=QUANT|57=ADMIN|10=110|
8=FIX.4.2|9=54|35=0|34=79|49=QUANT|52=20100303-16:56:26.250|56=NESTI|10=024|
8=FIX.4.2|9=59|35=0|34=79|49=NESTI|52=20100303-16:56:59|56=QUANT|57=ADMIN|10=113|
8=FIX.4.2|9=54|35=0|34=80|49=QUANT|52=20100303-16:57:26.265|56=NESTI|10=023|
8=FIX.4.2|9=59|35=0|34=80|49=NESTI|52=20100303-16:58:00|56=QUANT|57=ADMIN|10=093|
8=FIX.4.2|9=54|35=0|34=81|49=QUANT|52=20100303-16:58:26.280|56=NESTI|10=022|
8=FIX.4.2|9=59|35=0|34=81|49=NESTI|52=20100303-16:59:01|56=QUANT|57=ADMIN|10=096|
8=FIX.4.2|9=54|35=0|34=82|49=QUANT|52=20100303-16:59:26.295|56=NESTI|10=030|
8=FIX.4.2|9=59|35=0|34=82|49=NESTI|52=20100303-17:00:02|56=QUANT|57=ADMIN|10=085|
8=FIX.4.2|9=54|35=0|34=83|49=QUANT|52=20100303-17:00:26.325|56=NESTI|10=012|
8=FIX.4.2|9=59|35=0|34=83|49=NESTI|52=20100303-17:01:03|56=QUANT|57=ADMIN|10=088|
8=FIX.4.2|9=54|35=0|34=84|49=QUANT|52=20100303-17:01:26.340|56=NESTI|10=011|
8=FIX.4.2|9=59|35=0|34=84|49=NESTI|52=20100303-17:02:04|56=QUANT|57=ADMIN|10=091|
8=FIX.4.2|9=54|35=0|34=85|49=QUANT|52=20100303-17:02:26.355|56=NESTI|10=019|
8=FIX.4.2|9=59|35=0|34=85|49=NESTI|52=20100303-17:03:05|56=QUANT|57=ADMIN|10=094|
8=FIX.4.2|9=54|35=0|34=86|49=QUANT|52=20100303-17:03:26.370|56=NESTI|10=018|
8=FIX.4.2|9=59|35=0|34=86|49=NESTI|52=20100303-17:04:06|56=QUANT|57=ADMIN|10=097|
8=FIX.4.2|9=54|35=0|34=87|49=QUANT|52=20100303-17:04:26.385|56=NESTI|10=026|
8=FIX.4.2|9=59|35=0|34=87|49=NESTI|52=20100303-17:05:07|56=QUANT|57=ADMIN|10=100|
8=FIX.4.2|9=54|35=0|34=88|49=QUANT|52=20100303-17:05:26.415|56=NESTI|10=022|
8=FIX.4.2|9=59|35=0|34=88|49=NESTI|52=20100303-17:06:08|56=QUANT|57=ADMIN|10=103|
8=FIX.4.2|9=54|35=0|34=89|49=QUANT|52=20100303-17:06:26.430|56=NESTI|10=021|
8=FIX.4.2|9=59|35=0|34=89|49=NESTI|52=20100303-17:07:09|56=QUANT|57=ADMIN|10=106|
8=FIX.4.2|9=54|35=0|34=90|49=QUANT|52=20100303-17:07:26.445|56=NESTI|10=020|
8=FIX.4.2|9=59|35=0|34=90|49=NESTI|52=20100303-17:08:10|56=QUANT|57=ADMIN|10=091|
8=FIX.4.2|9=54|35=0|34=91|49=QUANT|52=20100303-17:08:26.460|56=NESTI|10=019|
8=FIX.4.2|9=59|35=0|34=91|49=NESTI|52=20100303-17:09:11|56=QUANT|57=ADMIN|10=094|
8=FIX.4.2|9=54|35=0|34=92|49=QUANT|52=20100303-17:09:26.490|56=NESTI|10=024|
8=FIX.4.2|9=59|35=0|34=92|49=NESTI|52=20100303-17:10:12|56=QUANT|57=ADMIN|10=088|
8=FIX.4.2|9=54|35=0|34=93|49=QUANT|52=20100303-17:10:26.505|56=NESTI|10=014|
8=FIX.4.2|9=59|35=0|34=93|49=NESTI|52=20100303-17:11:13|56=QUANT|57=ADMIN|10=091|
8=FIX.4.2|9=54|35=0|34=94|49=QUANT|52=20100303-17:11:26.520|56=NESTI|10=013|
8=FIX.4.2|9=59|35=0|34=94|49=NESTI|52=20100303-17:12:14|56=QUANT|57=ADMIN|10=094|
8=FIX.4.2|9=54|35=0|34=95|49=QUANT|52=20100303-17:12:26.535|56=NESTI|10=021|
8=FIX.4.2|9=59|35=0|34=95|49=NESTI|52=20100303-17:13:15|56=QUANT|57=ADMIN|10=097|
8=FIX.4.2|9=54|35=0|34=96|49=QUANT|52=20100303-17:13:26.565|56=NESTI|10=026|
8=FIX.4.2|9=59|35=0|34=96|49=NESTI|52=20100303-17:14:16|56=QUANT|57=ADMIN|10=100|
8=FIX.4.2|9=54|35=0|34=97|49=QUANT|52=20100303-17:14:26.580|56=NESTI|10=025|
8=FIX.4.2|9=59|35=0|34=97|49=NESTI|52=20100303-17:15:17|56=QUANT|57=ADMIN|10=103|
8=FIX.4.2|9=54|35=0|34=98|49=QUANT|52=20100303-17:15:26.595|56=NESTI|10=033|
8=FIX.4.2|9=59|35=0|34=98|49=NESTI|52=20100303-17:16:18|56=QUANT|57=ADMIN|10=106|
8=FIX.4.2|9=54|35=0|34=99|49=QUANT|52=20100303-17:16:26.610|56=NESTI|10=023|
8=FIX.4.2|9=59|35=0|34=99|49=NESTI|52=20100303-17:17:19|56=QUANT|57=ADMIN|10=109|
8=FIX.4.2|9=55|35=0|34=100|49=QUANT|52=20100303-17:17:26.625|56=NESTI|10=062|
8=FIX.4.2|9=60|35=0|34=100|49=NESTI|52=20100303-17:18:20|56=QUANT|57=ADMIN|10=125|
8=FIX.4.2|9=55|35=0|34=101|49=QUANT|52=20100303-17:18:26.655|56=NESTI|10=067|
8=FIX.4.2|9=60|35=0|34=101|49=NESTI|52=20100303-17:19:21|56=QUANT|57=ADMIN|10=128|
8=FIX.4.2|9=55|35=0|34=102|49=QUANT|52=20100303-17:19:26.670|56=NESTI|10=066|
8=FIX.4.2|9=60|35=0|34=102|49=NESTI|52=20100303-17:20:22|56=QUANT|57=ADMIN|10=122|
8=FIX.4.2|9=55|35=0|34=103|49=QUANT|52=20100303-17:20:26.685|56=NESTI|10=065|
8=FIX.4.2|9=60|35=0|34=103|49=NESTI|52=20100303-17:21:23|56=QUANT|57=ADMIN|10=125|
8=FIX.4.2|9=55|35=0|34=104|49=QUANT|52=20100303-17:21:26.700|56=NESTI|10=055|
8=FIX.4.2|9=60|35=0|34=104|49=NESTI|52=20100303-17:22:24|56=QUANT|57=ADMIN|10=128|
8=FIX.4.2|9=55|35=0|34=105|49=QUANT|52=20100303-17:22:26.730|56=NESTI|10=060|
8=FIX.4.2|9=60|35=0|34=105|49=NESTI|52=20100303-17:23:25|56=QUANT|57=ADMIN|10=131|
8=FIX.4.2|9=55|35=0|34=106|49=QUANT|52=20100303-17:23:26.745|56=NESTI|10=068|
8=FIX.4.2|9=60|35=0|34=106|49=NESTI|52=20100303-17:24:26|56=QUANT|57=ADMIN|10=134|
8=FIX.4.2|9=55|35=0|34=107|49=QUANT|52=20100303-17:24:26.744|56=NESTI|10=069|
8=FIX.4.2|9=55|35=0|34=108|49=QUANT|52=20100303-17:25:26.775|56=NESTI|10=075|
8=FIX.4.2|9=60|35=0|34=107|49=NESTI|52=20100303-17:25:27|56=QUANT|57=ADMIN|10=137|
8=FIX.4.2|9=55|35=0|34=109|49=QUANT|52=20100303-17:26:26.805|56=NESTI|10=071|
8=FIX.4.2|9=60|35=0|34=108|49=NESTI|52=20100303-17:26:28|56=QUANT|57=ADMIN|10=140|
8=FIX.4.2|9=55|35=0|34=110|49=QUANT|52=20100303-17:27:26.820|56=NESTI|10=061|
8=FIX.4.2|9=60|35=0|34=109|49=NESTI|52=20100303-17:27:29|56=QUANT|57=ADMIN|10=143|
8=FIX.4.2|9=55|35=0|34=111|49=QUANT|52=20100303-17:28:26.835|56=NESTI|10=069|
8=FIX.4.2|9=60|35=0|34=110|49=NESTI|52=20100303-17:28:30|56=QUANT|57=ADMIN|10=128|
8=FIX.4.2|9=55|35=0|34=112|49=QUANT|52=20100303-17:29:26.850|56=NESTI|10=068|
8=FIX.4.2|9=60|35=0|34=111|49=NESTI|52=20100303-17:29:31|56=QUANT|57=ADMIN|10=131|
8=FIX.4.2|9=55|35=0|34=113|49=QUANT|52=20100303-17:30:26.865|56=NESTI|10=067|
8=FIX.4.2|9=60|35=0|34=112|49=NESTI|52=20100303-17:30:32|56=QUANT|57=ADMIN|10=125|
8=FIX.4.2|9=55|35=0|34=114|49=QUANT|52=20100303-17:31:26.895|56=NESTI|10=072|
8=FIX.4.2|9=60|35=0|34=113|49=NESTI|52=20100303-17:31:33|56=QUANT|57=ADMIN|10=128|
8=FIX.4.2|9=55|35=0|34=115|49=QUANT|52=20100303-17:32:26.910|56=NESTI|10=062|
8=FIX.4.2|9=60|35=0|34=114|49=NESTI|52=20100303-17:32:34|56=QUANT|57=ADMIN|10=131|
8=FIX.4.2|9=55|35=0|34=116|49=QUANT|52=20100303-17:33:26.925|56=NESTI|10=070|
8=FIX.4.2|9=60|35=0|34=115|49=NESTI|52=20100303-17:33:35|56=QUANT|57=ADMIN|10=134|
8=FIX.4.2|9=55|35=0|34=117|49=QUANT|52=20100303-17:34:26.940|56=NESTI|10=069|
8=FIX.4.2|9=60|35=0|34=116|49=NESTI|52=20100303-17:34:36|56=QUANT|57=ADMIN|10=137|
8=FIX.4.2|9=55|35=0|34=118|49=QUANT|52=20100303-17:35:26.970|56=NESTI|10=074|
8=FIX.4.2|9=60|35=0|34=117|49=NESTI|52=20100303-17:35:37|56=QUANT|57=ADMIN|10=140|
8=FIX.4.2|9=55|35=0|34=119|49=QUANT|52=20100303-17:36:26.985|56=NESTI|10=082|
8=FIX.4.2|9=60|35=0|34=118|49=NESTI|52=20100303-17:36:38|56=QUANT|57=ADMIN|10=143|
8=FIX.4.2|9=55|35=0|34=120|49=QUANT|52=20100303-17:37:26.000|56=NESTI|10=053|
8=FIX.4.2|9=60|35=0|34=119|49=NESTI|52=20100303-17:37:39|56=QUANT|57=ADMIN|10=146|
8=FIX.4.2|9=55|35=0|34=121|49=QUANT|52=20100303-17:38:26.015|56=NESTI|10=061|
8=FIX.4.2|9=60|35=0|34=120|49=NESTI|52=20100303-17:38:40|56=QUANT|57=ADMIN|10=131|
8=FIX.4.2|9=55|35=0|34=122|49=QUANT|52=20100303-17:39:26.030|56=NESTI|10=060|
8=FIX.4.2|9=60|35=0|34=121|49=NESTI|52=20100303-17:39:41|56=QUANT|57=ADMIN|10=134|
8=FIX.4.2|9=55|35=0|34=123|49=QUANT|52=20100303-17:40:26.060|56=NESTI|10=056|
8=FIX.4.2|9=60|35=0|34=122|49=NESTI|52=20100303-17:40:42|56=QUANT|57=ADMIN|10=128|
8=FIX.4.2|9=55|35=0|34=124|49=QUANT|52=20100303-17:41:26.075|56=NESTI|10=064|
8=FIX.4.2|9=60|35=0|34=123|49=NESTI|52=20100303-17:41:43|56=QUANT|57=ADMIN|10=131|
8=FIX.4.2|9=55|35=0|34=125|49=QUANT|52=20100303-17:42:26.090|56=NESTI|10=063|
8=FIX.4.2|9=60|35=0|34=124|49=NESTI|52=20100303-17:42:44|56=QUANT|57=ADMIN|10=134|
8=FIX.4.2|9=55|35=0|34=126|49=QUANT|52=20100303-17:43:26.105|56=NESTI|10=062|
8=FIX.4.2|9=60|35=0|34=125|49=NESTI|52=20100303-17:43:45|56=QUANT|57=ADMIN|10=137|
8=FIX.4.2|9=55|35=0|34=127|49=QUANT|52=20100303-17:44:26.135|56=NESTI|10=067|
8=FIX.4.2|9=60|35=0|34=126|49=NESTI|52=20100303-17:44:46|56=QUANT|57=ADMIN|10=140|
8=FIX.4.2|9=55|35=0|34=128|49=QUANT|52=20100303-17:45:26.150|56=NESTI|10=066|
8=FIX.4.2|9=60|35=0|34=127|49=NESTI|52=20100303-17:45:47|56=QUANT|57=ADMIN|10=143|
8=FIX.4.2|9=55|35=0|34=129|49=QUANT|52=20100303-17:46:26.165|56=NESTI|10=074|
8=FIX.4.2|9=60|35=0|34=128|49=NESTI|52=20100303-17:46:48|56=QUANT|57=ADMIN|10=146|
8=FIX.4.2|9=55|35=0|34=130|49=QUANT|52=20100303-17:47:26.180|56=NESTI|10=064|
8=FIX.4.2|9=60|35=0|34=129|49=NESTI|52=20100303-17:47:49|56=QUANT|57=ADMIN|10=149|
8=FIX.4.2|9=55|35=0|34=131|49=QUANT|52=20100303-17:48:26.210|56=NESTI|10=060|
8=FIX.4.2|9=60|35=0|34=130|49=NESTI|52=20100303-17:48:50|56=QUANT|57=ADMIN|10=134|
8=FIX.4.2|9=55|35=0|34=132|49=QUANT|52=20100303-17:49:26.225|56=NESTI|10=068|
8=FIX.4.2|9=60|35=0|34=131|49=NESTI|52=20100303-17:49:51|56=QUANT|57=ADMIN|10=137|
8=FIX.4.2|9=55|35=0|34=133|49=QUANT|52=20100303-17:50:26.240|56=NESTI|10=058|
8=FIX.4.2|9=60|35=0|34=132|49=NESTI|52=20100303-17:50:52|56=QUANT|57=ADMIN|10=131|
8=FIX.4.2|9=55|35=0|34=134|49=QUANT|52=20100303-17:51:26.255|56=NESTI|10=066|
8=FIX.4.2|9=60|35=0|34=133|49=NESTI|52=20100303-17:51:53|56=QUANT|57=ADMIN|10=134|
8=FIX.4.2|9=55|35=0|34=135|49=QUANT|52=20100303-17:52:26.270|56=NESTI|10=065|
8=FIX.4.2|9=60|35=0|34=134|49=NESTI|52=20100303-17:52:54|56=QUANT|57=ADMIN|10=137|
8=FIX.4.2|9=55|35=0|34=136|49=QUANT|52=20100303-17:53:26.300|56=NESTI|10=061|
8=FIX.4.2|9=60|35=0|34=135|49=NESTI|52=20100303-17:53:55|56=QUANT|57=ADMIN|10=140|
8=FIX.4.2|9=55|35=0|34=137|49=QUANT|52=20100303-17:54:26.315|56=NESTI|10=069|
8=FIX.4.2|9=60|35=0|34=136|49=NESTI|52=20100303-17:54:56|56=QUANT|57=ADMIN|10=143|
8=FIX.4.2|9=55|35=0|34=138|49=QUANT|52=20100303-17:55:26.330|56=NESTI|10=068|
8=FIX.4.2|9=60|35=0|34=137|49=NESTI|52=20100303-17:55:57|56=QUANT|57=ADMIN|10=146|
8=FIX.4.2|9=55|35=0|34=139|49=QUANT|52=20100303-17:56:26.345|56=NESTI|10=076|
8=FIX.4.2|9=60|35=0|34=138|49=NESTI|52=20100303-17:56:58|56=QUANT|57=ADMIN|10=149|
8=FIX.4.2|9=55|35=0|34=140|49=QUANT|52=20100303-17:57:26.375|56=NESTI|10=072|
8=FIX.4.2|9=60|35=0|34=139|49=NESTI|52=20100303-17:57:59|56=QUANT|57=ADMIN|10=152|
8=FIX.4.2|9=55|35=0|34=141|49=QUANT|52=20100303-17:58:26.390|56=NESTI|10=071|
8=FIX.4.2|9=60|35=0|34=140|49=NESTI|52=20100303-17:59:00|56=QUANT|57=ADMIN|10=132|
8=FIX.4.2|9=55|35=0|34=142|49=QUANT|52=20100303-17:59:26.405|56=NESTI|10=070|
8=FIX.4.2|9=60|35=0|34=141|49=NESTI|52=20100303-18:00:01|56=QUANT|57=ADMIN|10=121|
8=FIX.4.2|9=55|35=0|34=143|49=QUANT|52=20100303-18:00:26.420|56=NESTI|10=055|
8=FIX.4.2|9=60|35=0|34=142|49=NESTI|52=20100303-18:01:02|56=QUANT|57=ADMIN|10=124|
8=FIX.4.2|9=55|35=0|34=144|49=QUANT|52=20100303-18:01:26.450|56=NESTI|10=060|
8=FIX.4.2|9=60|35=0|34=143|49=NESTI|52=20100303-18:02:03|56=QUANT|57=ADMIN|10=127|
8=FIX.4.2|9=55|35=0|34=145|49=QUANT|52=20100303-18:02:26.465|56=NESTI|10=068|
8=FIX.4.2|9=60|35=0|34=144|49=NESTI|52=20100303-18:03:04|56=QUANT|57=ADMIN|10=130|
8=FIX.4.2|9=55|35=0|34=146|49=QUANT|52=20100303-18:03:26.480|56=NESTI|10=067|
8=FIX.4.2|9=60|35=0|34=145|49=NESTI|52=20100303-18:04:05|56=QUANT|57=ADMIN|10=133|
8=FIX.4.2|9=55|35=0|34=147|49=QUANT|52=20100303-18:04:26.526|56=NESTI|10=070|
8=FIX.4.2|9=60|35=0|34=146|49=NESTI|52=20100303-18:05:06|56=QUANT|57=ADMIN|10=136|
8=FIX.4.2|9=55|35=0|34=148|49=QUANT|52=20100303-18:05:26.572|56=NESTI|10=073|
8=FIX.4.2|9=60|35=0|34=147|49=NESTI|52=20100303-18:06:07|56=QUANT|57=ADMIN|10=139|
8=FIX.4.2|9=55|35=0|34=149|49=QUANT|52=20100303-18:06:26.587|56=NESTI|10=081|
8=FIX.4.2|9=60|35=0|34=148|49=NESTI|52=20100303-18:07:08|56=QUANT|57=ADMIN|10=142|
8=FIX.4.2|9=55|35=0|34=150|49=QUANT|52=20100303-18:07:26.602|56=NESTI|10=062|
8=FIX.4.2|9=60|35=0|34=149|49=NESTI|52=20100303-18:08:09|56=QUANT|57=ADMIN|10=145|
8=FIX.4.2|9=55|35=0|34=151|49=QUANT|52=20100303-18:08:26.617|56=NESTI|10=070|
8=FIX.4.2|9=60|35=0|34=150|49=NESTI|52=20100303-18:09:10|56=QUANT|57=ADMIN|10=130|
8=FIX.4.2|9=55|35=0|34=152|49=QUANT|52=20100303-18:09:26.647|56=NESTI|10=075|
8=FIX.4.2|9=60|35=0|34=151|49=NESTI|52=20100303-18:10:11|56=QUANT|57=ADMIN|10=124|
8=FIX.4.2|9=55|35=0|34=153|49=QUANT|52=20100303-18:10:26.662|56=NESTI|10=065|
8=FIX.4.2|9=60|35=0|34=152|49=NESTI|52=20100303-18:11:12|56=QUANT|57=ADMIN|10=127|
8=FIX.4.2|9=55|35=0|34=154|49=QUANT|52=20100303-18:11:26.708|56=NESTI|10=068|
8=FIX.4.2|9=60|35=0|34=153|49=NESTI|52=20100303-18:12:13|56=QUANT|57=ADMIN|10=130|
8=FIX.4.2|9=55|35=0|34=155|49=QUANT|52=20100303-18:12:26.739|56=NESTI|10=074|
8=FIX.4.2|9=60|35=0|34=154|49=NESTI|52=20100303-18:13:14|56=QUANT|57=ADMIN|10=133|
8=FIX.4.2|9=55|35=0|34=156|49=QUANT|52=20100303-18:13:26.769|56=NESTI|10=079|
8=FIX.4.2|9=60|35=0|34=155|49=NESTI|52=20100303-18:14:15|56=QUANT|57=ADMIN|10=136|
8=FIX.4.2|9=55|35=0|34=157|49=QUANT|52=20100303-18:14:26.799|56=NESTI|10=084|
8=FIX.4.2|9=60|35=0|34=156|49=NESTI|52=20100303-18:15:16|56=QUANT|57=ADMIN|10=139|
8=FIX.4.2|9=55|35=0|34=158|49=QUANT|52=20100303-18:15:26.830|56=NESTI|10=072|
8=FIX.4.2|9=60|35=0|34=157|49=NESTI|52=20100303-18:16:17|56=QUANT|57=ADMIN|10=142|
8=FIX.4.2|9=55|35=0|34=159|49=QUANT|52=20100303-18:16:26.876|56=NESTI|10=084|
8=FIX.4.2|9=60|35=0|34=158|49=NESTI|52=20100303-18:17:18|56=QUANT|57=ADMIN|10=145|
8=FIX.4.2|9=55|35=0|34=160|49=QUANT|52=20100303-18:17:26.907|56=NESTI|10=072|
8=FIX.4.2|9=60|35=0|34=159|49=NESTI|52=20100303-18:18:19|56=QUANT|57=ADMIN|10=148|
8=FIX.4.2|9=55|35=0|34=161|49=QUANT|52=20100303-18:18:26.937|56=NESTI|10=077|
8=FIX.4.2|9=60|35=0|34=160|49=NESTI|52=20100303-18:19:20|56=QUANT|57=ADMIN|10=133|
8=FIX.4.2|9=55|35=0|34=162|49=QUANT|52=20100303-18:19:26.968|56=NESTI|10=083|
8=FIX.4.2|9=60|35=0|34=161|49=NESTI|52=20100303-18:20:21|56=QUANT|57=ADMIN|10=127|
8=FIX.4.2|9=55|35=0|34=163|49=QUANT|52=20100303-18:20:26.998|56=NESTI|10=079|
8=FIX.4.2|9=60|35=0|34=162|49=NESTI|52=20100303-18:21:22|56=QUANT|57=ADMIN|10=130|
8=FIX.4.2|9=55|35=0|34=164|49=QUANT|52=20100303-18:21:26.028|56=NESTI|10=065|
8=FIX.4.2|9=60|35=0|34=163|49=NESTI|52=20100303-18:22:23|56=QUANT|57=ADMIN|10=133|
8=FIX.4.2|9=55|35=0|34=165|49=QUANT|52=20100303-18:22:26.059|56=NESTI|10=071|
8=FIX.4.2|9=60|35=0|34=164|49=NESTI|52=20100303-18:23:24|56=QUANT|57=ADMIN|10=136|
8=FIX.4.2|9=55|35=0|34=166|49=QUANT|52=20100303-18:23:26.089|56=NESTI|10=076|
8=FIX.4.2|9=55|35=0|34=167|49=QUANT|52=20100303-18:24:26.089|56=NESTI|10=078|
8=FIX.4.2|9=60|35=0|34=165|49=NESTI|52=20100303-18:24:25|56=QUANT|57=ADMIN|10=139|
8=FIX.4.2|9=55|35=0|34=168|49=QUANT|52=20100303-18:25:26.104|56=NESTI|10=068|
8=FIX.4.2|9=60|35=0|34=166|49=NESTI|52=20100303-18:25:26|56=QUANT|57=ADMIN|10=142|
8=FIX.4.2|9=55|35=0|34=169|49=QUANT|52=20100303-18:26:26.134|56=NESTI|10=073|
8=FIX.4.2|9=60|35=0|34=167|49=NESTI|52=20100303-18:26:27|56=QUANT|57=ADMIN|10=145|
8=FIX.4.2|9=55|35=0|34=170|49=QUANT|52=20100303-18:27:26.149|56=NESTI|10=072|
8=FIX.4.2|9=60|35=0|34=168|49=NESTI|52=20100303-18:27:28|56=QUANT|57=ADMIN|10=148|
8=FIX.4.2|9=55|35=0|34=171|49=QUANT|52=20100303-18:28:26.195|56=NESTI|10=075|
8=FIX.4.2|9=60|35=0|34=169|49=NESTI|52=20100303-18:28:29|56=QUANT|57=ADMIN|10=151|
8=FIX.4.2|9=55|35=0|34=172|49=QUANT|52=20100303-18:29:26.210|56=NESTI|10=065|
8=FIX.4.2|9=60|35=0|34=170|49=NESTI|52=20100303-18:29:30|56=QUANT|57=ADMIN|10=136|
8=FIX.4.2|9=55|35=0|34=173|49=QUANT|52=20100303-18:30:26.225|56=NESTI|10=064|
8=FIX.4.2|9=60|35=0|34=171|49=NESTI|52=20100303-18:30:31|56=QUANT|57=ADMIN|10=130|
8=FIX.4.2|9=55|35=0|34=174|49=QUANT|52=20100303-18:31:26.240|56=NESTI|10=063|
8=FIX.4.2|9=60|35=0|34=172|49=NESTI|52=20100303-18:31:32|56=QUANT|57=ADMIN|10=133|
8=FIX.4.2|9=55|35=0|34=175|49=QUANT|52=20100303-18:32:26.270|56=NESTI|10=068|
8=FIX.4.2|9=60|35=0|34=173|49=NESTI|52=20100303-18:32:33|56=QUANT|57=ADMIN|10=136|
8=FIX.4.2|9=55|35=0|34=176|49=QUANT|52=20100303-18:33:26.285|56=NESTI|10=076|
8=FIX.4.2|9=60|35=0|34=174|49=NESTI|52=20100303-18:33:34|56=QUANT|57=ADMIN|10=139|
8=FIX.4.2|9=55|35=0|34=177|49=QUANT|52=20100303-18:34:26.300|56=NESTI|10=066|
8=FIX.4.2|9=60|35=0|34=175|49=NESTI|52=20100303-18:34:35|56=QUANT|57=ADMIN|10=142|
8=FIX.4.2|9=55|35=0|34=178|49=QUANT|52=20100303-18:35:26.315|56=NESTI|10=074|
8=FIX.4.2|9=60|35=0|34=176|49=NESTI|52=20100303-18:35:36|56=QUANT|57=ADMIN|10=145|
8=FIX.4.2|9=55|35=0|34=179|49=QUANT|52=20100303-18:36:26.345|56=NESTI|10=079|
8=FIX.4.2|9=60|35=0|34=177|49=NESTI|52=20100303-18:36:37|56=QUANT|57=ADMIN|10=148|
8=FIX.4.2|9=55|35=0|34=180|49=QUANT|52=20100303-18:37:26.360|56=NESTI|10=069|
8=FIX.4.2|9=60|35=0|34=178|49=NESTI|52=20100303-18:37:38|56=QUANT|57=ADMIN|10=151|
8=FIX.4.2|9=55|35=0|34=181|49=QUANT|52=20100303-18:38:26.375|56=NESTI|10=077|
8=FIX.4.2|9=60|35=0|34=179|49=NESTI|52=20100303-18:38:39|56=QUANT|57=ADMIN|10=154|
8=FIX.4.2|9=55|35=0|34=182|49=QUANT|52=20100303-18:39:26.390|56=NESTI|10=076|
8=FIX.4.2|9=60|35=0|34=180|49=NESTI|52=20100303-18:39:40|56=QUANT|57=ADMIN|10=139|
8=FIX.4.2|9=55|35=0|34=183|49=QUANT|52=20100303-18:40:26.405|56=NESTI|10=066|
8=FIX.4.2|9=60|35=0|34=181|49=NESTI|52=20100303-18:40:41|56=QUANT|57=ADMIN|10=133|
8=FIX.4.2|9=55|35=0|34=184|49=QUANT|52=20100303-18:41:26.435|56=NESTI|10=071|
8=FIX.4.2|9=60|35=0|34=182|49=NESTI|52=20100303-18:41:42|56=QUANT|57=ADMIN|10=136|
8=FIX.4.2|9=55|35=0|34=185|49=QUANT|52=20100303-18:42:26.450|56=NESTI|10=070|
8=FIX.4.2|9=60|35=0|34=183|49=NESTI|52=20100303-18:42:43|56=QUANT|57=ADMIN|10=139|
8=FIX.4.2|9=55|35=0|34=186|49=QUANT|52=20100303-18:43:26.465|56=NESTI|10=078|
8=FIX.4.2|9=60|35=0|34=184|49=NESTI|52=20100303-18:43:44|56=QUANT|57=ADMIN|10=142|
8=FIX.4.2|9=55|35=0|34=187|49=QUANT|52=20100303-18:44:26.480|56=NESTI|10=077|
8=FIX.4.2|9=60|35=0|34=185|49=NESTI|52=20100303-18:44:45|56=QUANT|57=ADMIN|10=145|
8=FIX.4.2|9=55|35=0|34=188|49=QUANT|52=20100303-18:45:26.510|56=NESTI|10=073|
8=FIX.4.2|9=60|35=0|34=186|49=NESTI|52=20100303-18:45:46|56=QUANT|57=ADMIN|10=148|
8=FIX.4.2|9=55|35=0|34=189|49=QUANT|52=20100303-18:46:26.525|56=NESTI|10=081|
8=FIX.4.2|9=60|35=0|34=187|49=NESTI|52=20100303-18:46:47|56=QUANT|57=ADMIN|10=151|
8=FIX.4.2|9=55|35=0|34=190|49=QUANT|52=20100303-18:47:26.540|56=NESTI|10=071|
8=FIX.4.2|9=60|35=0|34=188|49=NESTI|52=20100303-18:47:48|56=QUANT|57=ADMIN|10=154|
8=FIX.4.2|9=55|35=0|34=191|49=QUANT|52=20100303-18:48:26.555|56=NESTI|10=079|
8=FIX.4.2|9=60|35=0|34=189|49=NESTI|52=20100303-18:48:49|56=QUANT|57=ADMIN|10=157|
8=FIX.4.2|9=55|35=0|34=192|49=QUANT|52=20100303-18:49:26.601|56=NESTI|10=073|
8=FIX.4.2|9=60|35=0|34=190|49=NESTI|52=20100303-18:49:50|56=QUANT|57=ADMIN|10=142|
8=FIX.4.2|9=55|35=5|34=193|49=QUANT|52=20100303-18:50:18.647|56=NESTI|10=082|
8=FIX.4.2|9=101|35=5|34=191|49=NESTI|52=20100303-18:50:18|56=QUANT|57=ADMIN|58=Accepting request to close connection|10=167|
8=FIX.4.2|9=67|35=A|34=194|49=QUANT|52=20100303-20:19:55.797|56=NESTI|98=0|108=60|10=131|
8=FIX.4.2|9=72|35=A|34=192|49=NESTI|52=20100303-20:19:55|56=QUANT|57=ADMIN|98=0|108=60|10=187|
8=FIX.4.2|9=82|35=1|34=193|49=NESTI|52=20100303-20:19:55|56=QUANT|57=ADMIN|112=1267647595.641803|10=219|
8=FIX.4.2|9=77|35=0|34=195|49=QUANT|52=20100303-20:19:55.937|56=NESTI|112=1267647595.641803|10=158|
8=FIX.4.2|9=123|35=D|34=196|49=QUANT|52=20100303-20:20:13.984|56=NESTI|11=IAA0003|21=1|38=10|40=1|50=UA|54=1|55=PETR4|60=20100303-17:20:13|10=134|
8=FIX.4.2|9=200|35=8|34=194|49=NESTI|50=RAI|52=20100303-20:20:39|56=QUANT|57=UA|38=10|6=0.00000000|11=IAA0003|14=0|17=1100000007|20=0|31=0.00000000|32=0|37=BIAA0003QUANT|39=0|44=0.00000000|54=1|55=PETR4|150=0|151=10|10=254|
8=FIX.4.2|9=55|35=0|34=197|49=QUANT|52=20100303-20:21:13.796|56=NESTI|10=072|
8=FIX.4.2|9=191|35=8|34=195|49=NESTI|52=20100303-20:21:26|56=QUANT|57=UA|38=10|6=1.00000000|11=IAA0003|14=5|17=161000727|20=0|31=1.00000000|32=5|37=BIAA0003QUANT|39=1|44=0.00000000|54=1|55=PETR4|150=1|151=5|10=071|
8=FIX.4.2|9=55|35=0|34=198|49=QUANT|52=20100303-20:22:13.811|56=NESTI|10=062|
8=FIX.4.2|9=60|35=0|34=196|49=NESTI|52=20100303-20:22:27|56=QUANT|57=ADMIN|10=136|
8=FIX.4.2|9=192|35=8|34=197|49=NESTI|52=20100303-20:22:31|56=QUANT|57=UA|38=10|6=1.00000000|11=IAA0003|14=10|17=161000729|20=0|31=1.00000000|32=5|37=BIAA0003QUANT|39=2|44=0.00000000|54=1|55=PETR4|150=2|151=0|10=114|
8=FIX.4.2|9=55|35=0|34=199|49=QUANT|52=20100303-20:23:13.826|56=NESTI|10=070|
8=FIX.4.2|9=60|35=0|34=198|49=NESTI|52=20100303-20:23:32|56=QUANT|57=ADMIN|10=135|
8=FIX.4.2|9=55|35=0|34=200|49=QUANT|52=20100303-20:24:13.840|56=NESTI|10=050|
8=FIX.4.2|9=123|35=D|34=201|49=QUANT|52=20100303-20:24:25.715|56=NESTI|11=IAA0004|21=1|38=10|40=1|50=UA|54=1|55=VALE5|60=20100303-17:24:25|10=110|
8=FIX.4.2|9=200|35=8|34=199|49=NESTI|50=RAI|52=20100303-20:24:30|56=QUANT|57=UA|38=10|6=0.00000000|11=IAA0004|14=0|17=1100000011|20=0|31=0.00000000|32=0|37=BIAA0004QUANT|39=0|44=0.00000000|54=1|55=VALE5|150=0|151=10|10=233|
8=FIX.4.2|9=55|35=0|34=202|49=QUANT|52=20100303-20:25:25.871|56=NESTI|10=060|
8=FIX.4.2|9=60|35=0|34=200|49=NESTI|52=20100303-20:25:31|56=QUANT|57=ADMIN|10=120|
8=FIX.4.2|9=55|35=0|34=203|49=QUANT|52=20100303-20:26:25.886|56=NESTI|10=068|
8=FIX.4.2|9=60|35=0|34=201|49=NESTI|52=20100303-20:26:32|56=QUANT|57=ADMIN|10=123|
8=FIX.4.2|9=55|35=0|34=204|49=QUANT|52=20100303-20:27:25.900|56=NESTI|10=057|
8=FIX.4.2|9=60|35=0|34=202|49=NESTI|52=20100303-20:27:33|56=QUANT|57=ADMIN|10=126|
8=FIX.4.2|9=55|35=0|34=205|49=QUANT|52=20100303-20:28:25.915|56=NESTI|10=065|
8=FIX.4.2|9=60|35=0|34=203|49=NESTI|52=20100303-20:28:34|56=QUANT|57=ADMIN|10=129|
8=FIX.4.2|9=55|35=0|34=206|49=QUANT|52=20100303-20:29:25.946|56=NESTI|10=071|
8=FIX.4.2|9=60|35=0|34=204|49=NESTI|52=20100303-20:29:35|56=QUANT|57=ADMIN|10=132|
8=FIX.4.2|9=55|35=0|34=207|49=QUANT|52=20100303-20:30:25.961|56=NESTI|10=061|
8=FIX.4.2|9=60|35=0|34=205|49=NESTI|52=20100303-20:30:36|56=QUANT|57=ADMIN|10=126|
8=FIX.4.2|9=55|35=0|34=208|49=QUANT|52=20100303-20:31:25.976|56=NESTI|10=069|
8=FIX.4.2|9=60|35=0|34=206|49=NESTI|52=20100303-20:31:37|56=QUANT|57=ADMIN|10=129|
8=FIX.4.2|9=55|35=0|34=209|49=QUANT|52=20100303-20:32:25.990|56=NESTI|10=067|
8=FIX.4.2|9=60|35=0|34=207|49=NESTI|52=20100303-20:32:38|56=QUANT|57=ADMIN|10=132|
8=FIX.4.2|9=55|35=0|34=210|49=QUANT|52=20100303-20:33:25.021|56=NESTI|10=045|
8=FIX.4.2|9=60|35=0|34=208|49=NESTI|52=20100303-20:33:39|56=QUANT|57=ADMIN|10=135|
8=FIX.4.2|9=191|35=8|34=209|49=NESTI|52=20100303-20:34:15|56=QUANT|57=UA|38=10|6=1.00000000|11=IAA0004|14=5|17=161000731|20=0|31=1.00000000|32=5|37=BIAA0004QUANT|39=1|44=0.00000000|54=1|55=VALE5|150=1|151=5|10=048|
8=FIX.4.2|9=192|35=8|34=210|49=NESTI|52=20100303-20:34:24|56=QUANT|57=UA|38=10|6=1.00000000|11=IAA0004|14=10|17=161000732|20=0|31=1.00000000|32=5|37=BIAA0004QUANT|39=2|44=0.00000000|54=1|55=VALE5|150=2|151=0|10=083|
8=FIX.4.2|9=55|35=0|34=211|49=QUANT|52=20100303-20:34:25.036|56=NESTI|10=053|
8=FIX.4.2|9=55|35=0|34=212|49=QUANT|52=20100303-20:35:25.051|56=NESTI|10=052|
8=FIX.4.2|9=60|35=0|34=211|49=NESTI|52=20100303-20:35:25|56=QUANT|57=ADMIN|10=126|
8=FIX.4.2|9=55|35=5|34=213|49=QUANT|52=20100303-20:35:50.050|56=NESTI|10=055|
8=FIX.4.2|9=101|35=5|34=212|49=NESTI|52=20100303-20:35:49|56=QUANT|57=ADMIN|58=Accepting request to close connection|10=161|
8=FIX.4.2|9=67|35=A|34=214|49=QUANT|52=20100303-20:37:31.768|56=NESTI|98=0|108=60|10=116|
8=FIX.4.2|9=72|35=A|34=213|49=NESTI|52=20100303-20:37:31|56=QUANT|57=ADMIN|98=0|108=60|10=175|
8=FIX.4.2|9=82|35=1|34=214|49=NESTI|52=20100303-20:37:31|56=QUANT|57=ADMIN|112=1267648651.624555|10=206|
8=FIX.4.2|9=77|35=0|34=215|49=QUANT|52=20100303-20:37:31.986|56=NESTI|112=1267648651.624555|10=148|
8=FIX.4.2|9=123|35=D|34=216|49=QUANT|52=20100303-20:37:45.674|56=NESTI|11=IAA0005|21=1|38=10|40=1|50=UA|54=1|55=PETR4|60=20100303-17:37:45|10=151|
8=FIX.4.2|9=200|35=8|34=215|49=NESTI|50=RAI|52=20100303-20:37:55|56=QUANT|57=UA|38=10|6=0.00000000|11=IAA0005|14=0|17=1100000015|20=0|31=0.00000000|32=0|37=BIAA0005QUANT|39=0|44=0.00000000|54=1|55=PETR4|150=0|151=10|10=001|
8=FIX.4.2|9=191|35=8|34=216|49=NESTI|52=20100303-20:38:26|56=QUANT|57=UA|38=10|6=1.00000000|11=IAA0005|14=5|17=161000752|20=0|31=1.00000000|32=5|37=BIAA0005QUANT|39=1|44=0.00000000|54=1|55=PETR4|150=1|151=5|10=075|
8=FIX.4.2|9=192|35=8|34=217|49=NESTI|52=20100303-20:38:31|56=QUANT|57=UA|38=10|6=1.00000000|11=IAA0005|14=10|17=161000753|20=0|31=1.00000000|32=5|37=BIAA0005QUANT|39=2|44=0.00000000|54=1|55=PETR4|150=2|151=0|10=115|
8=FIX.4.2|9=55|35=0|34=217|49=QUANT|52=20100303-20:38:45.782|56=NESTI|10=073|
8=FIX.4.2|9=55|35=5|34=218|49=QUANT|52=20100303-20:38:49.782|56=NESTI|10=083|
8=FIX.4.2|9=101|35=5|34=218|49=NESTI|52=20100303-20:38:49|56=QUANT|57=ADMIN|58=Accepting request to close connection|10=170|
8=FIX.4.2|9=65|35=A|34=1|49=QUANT|52=20100304-15:15:08.393|56=NESTI|98=0|108=60|10=011|
8=FIX.4.2|9=70|35=A|34=1|49=NESTI|52=20100304-15:15:08|56=QUANT|57=ADMIN|98=0|108=60|10=077|
8=FIX.4.2|9=80|35=1|34=2|49=NESTI|52=20100304-15:15:08|56=QUANT|57=ADMIN|112=1267715708.491967|10=115|
8=FIX.4.2|9=75|35=0|34=2|49=QUANT|52=20100304-15:15:08.564|56=NESTI|112=1267715708.491967|10=048|
8=FIX.4.2|9=121|35=D|34=3|49=QUANT|52=20100304-15:15:19.658|56=NESTI|11=IAA0001|21=1|38=10|40=1|50=UA|54=1|55=PETR4|60=20100304-12:15:19|10=040|
8=FIX.4.2|9=198|35=8|34=3|49=NESTI|50=RAI|52=20100304-15:15:29|56=QUANT|57=UA|38=10|6=0.00000000|11=IAA0001|14=0|17=1100000001|20=0|31=0.00000000|32=0|37=BIAA0001QUANT|39=0|44=0.00000000|54=1|55=PETR4|150=0|151=10|10=161|
8=FIX.4.2|9=53|35=0|34=4|49=QUANT|52=20100304-15:16:19.407|56=NESTI|10=221|
8=FIX.4.2|9=58|35=0|34=4|49=NESTI|52=20100304-15:16:30|56=QUANT|57=ADMIN|10=037|
8=FIX.4.2|9=53|35=0|34=5|49=QUANT|52=20100304-15:17:19.422|56=NESTI|10=220|
8=FIX.4.2|9=58|35=0|34=5|49=NESTI|52=20100304-15:17:31|56=QUANT|57=ADMIN|10=040|
8=FIX.4.2|9=53|35=0|34=6|49=QUANT|52=20100304-15:18:19.437|56=NESTI|10=228|
8=FIX.4.2|9=58|35=0|34=6|49=NESTI|52=20100304-15:18:32|56=QUANT|57=ADMIN|10=043|
8=FIX.4.2|9=189|35=8|34=7|49=NESTI|52=20100304-15:19:01|56=QUANT|57=UA|38=10|6=1.00000000|11=IAA0001|14=5|17=162000049|20=0|31=1.00000000|32=5|37=BIAA0001QUANT|39=1|44=0.00000000|54=1|55=PETR4|150=1|151=5|10=229|
8=FIX.4.2|9=65|35=A|34=7|49=QUANT|52=20100304-15:42:33.684|56=NESTI|98=0|108=60|10=018|
8=FIX.4.2|9=70|35=A|34=8|49=NESTI|52=20100304-15:42:33|56=QUANT|57=ADMIN|98=0|108=60|10=082|
8=FIX.4.2|9=62|35=2|34=8|49=QUANT|52=20100304-15:42:33.715|56=NESTI|7=7|16=0|10=097|
8=FIX.4.2|9=80|35=1|34=9|49=NESTI|52=20100304-15:42:33|56=QUANT|57=ADMIN|112=1267717353.832726|10=110|
8=FIX.4.2|9=216|35=8|34=7|43=Y|49=NESTI|52=20100304-15:42:33|56=QUANT|57=UA|122=20100304-15:19:01|38=10|6=1.00000000|11=IAA0001|14=5|17=162000049|20=0|31=1.00000000|32=5|37=BIAA0001QUANT|39=1|44=0.00000000|54=1|55=PETR4|150=1|151=5|10=010|
8=FIX.4.2|9=80|35=1|34=9|49=NESTI|52=20100304-15:42:33|56=QUANT|57=ADMIN|112=1267717353.832726|10=110|
8=FIX.4.2|9=75|35=0|34=9|49=QUANT|52=20100304-15:42:33.825|56=NESTI|112=1267717353.832726|10=043|
8=FIX.4.2|9=88|35=4|34=8|43=Y|49=NESTI|52=20100304-15:42:33|56=QUANT|122=20100304-15:42:33|36=10|123=Y|10=130|
8=FIX.4.2|9=122|35=D|34=10|49=QUANT|52=20100304-15:42:43.153|56=NESTI|11=IAA0001|21=1|38=10|40=1|50=UA|54=1|55=VALE5|60=20100304-12:42:43|10=053|
8=FIX.4.2|9=222|35=8|34=10|49=NESTI|52=20100304-15:42:43|56=QUANT|57=UA|38=10|6=0.00000000|11=IAA0001|14=0|17=888889|20=0|31=0.00000000|32=0|37=BIAA0001QUANT|39=8|44=0.00000000|54=1|55=VALE5|58=Invalid Order Id (Tag 11)|103=0|150=8|151=0|10=231|
8=FIX.4.2|9=122|35=D|34=11|49=QUANT|52=20100304-15:43:04.559|56=NESTI|11=IAA0002|21=1|38=10|40=1|50=UA|54=1|55=VALE5|60=20100304-12:43:04|10=061|
8=FIX.4.2|9=199|35=8|34=11|49=NESTI|50=RAI|52=20100304-15:43:08|56=QUANT|57=UA|38=10|6=0.00000000|11=IAA0002|14=0|17=1100000006|20=0|31=0.00000000|32=0|37=BIAA0002QUANT|39=0|44=0.00000000|54=1|55=VALE5|150=0|151=10|10=196|
8=FIX.4.2|9=190|35=8|34=12|49=NESTI|52=20100304-15:43:59|56=QUANT|57=UA|38=10|6=1.00000000|11=IAA0002|14=5|17=162000154|20=0|31=1.00000000|32=5|37=BIAA0002QUANT|39=1|44=0.00000000|54=1|55=VALE5|150=1|151=5|10=000|
8=FIX.4.2|9=66|35=A|34=12|49=QUANT|52=20100304-15:47:10.352|56=NESTI|98=0|108=60|10=055|
8=FIX.4.2|9=71|35=A|34=14|49=NESTI|52=20100304-15:47:10|56=QUANT|57=ADMIN|98=0|108=60|10=128|
8=FIX.4.2|9=64|35=2|34=13|49=QUANT|52=20100304-15:47:10.368|56=NESTI|7=12|16=0|10=191|
8=FIX.4.2|9=81|35=1|34=15|49=NESTI|52=20100304-15:47:10|56=QUANT|57=ADMIN|112=1267717630.492127|10=151|
8=FIX.4.2|9=217|35=8|34=12|43=Y|49=NESTI|52=20100304-15:47:10|56=QUANT|57=UA|122=20100304-15:43:59|38=10|6=1.00000000|11=IAA0002|14=5|17=162000154|20=0|31=1.00000000|32=5|37=BIAA0002QUANT|39=1|44=0.00000000|54=1|55=VALE5|150=1|151=5|10=046|
8=FIX.4.2|9=54|35=0|34=14|49=QUANT|52=20100304-15:48:11.945|56=NESTI|10=019|
8=FIX.4.2|9=89|35=4|34=13|43=Y|49=NESTI|52=20100304-15:47:10|56=QUANT|122=20100304-15:47:10|36=16|123=Y|10=181|
8=FIX.4.2|9=59|35=0|34=16|49=NESTI|52=20100304-15:48:11|56=QUANT|57=ADMIN|10=093|
8=FIX.4.2|9=122|35=D|34=15|49=QUANT|52=20100304-15:48:26.367|56=NESTI|11=IAA0003|21=1|38=10|40=1|50=UA|54=1|55=PETR4|60=20100304-12:48:26|10=099|
8=FIX.4.2|9=199|35=8|34=17|49=NESTI|50=RAI|52=20100304-15:48:32|56=QUANT|57=UA|38=10|6=0.00000000|11=IAA0003|14=0|17=1100000009|20=0|31=0.00000000|32=0|37=BIAA0003QUANT|39=0|44=0.00000000|54=1|55=PETR4|150=0|151=10|10=227|
8=FIX.4.2|9=54|35=0|34=16|49=QUANT|52=20100304-15:49:26.366|56=NESTI|10=025|
8=FIX.4.2|9=59|35=0|34=18|49=NESTI|52=20100304-15:49:33|56=QUANT|57=ADMIN|10=100|
8=FIX.4.2|9=190|35=8|34=19|49=NESTI|52=20100304-15:49:42|56=QUANT|57=UA|38=10|6=1.00000000|11=IAA0003|14=5|17=162000160|20=0|31=1.00000000|32=5|37=BIAA0003QUANT|39=1|44=0.00000000|54=1|55=PETR4|150=1|151=5|10=022|
8=FIX.4.2|9=54|35=0|34=17|49=QUANT|52=20100304-15:50:26.037|56=NESTI|10=013|
8=FIX.4.2|9=191|35=8|34=20|49=NESTI|52=20100304-15:50:39|56=QUANT|57=UA|38=10|6=1.00000000|11=IAA0003|14=10|17=162000161|20=0|31=1.00000000|32=5|37=BIAA0003QUANT|39=2|44=0.00000000|54=1|55=PETR4|150=2|151=0|10=055|
8=FIX.4.2|9=54|35=0|34=18|49=QUANT|52=20100304-15:51:26.615|56=NESTI|10=017|
8=FIX.4.2|9=66|35=A|34=19|49=QUANT|52=20100304-15:53:01.317|56=NESTI|98=0|108=60|10=060|
8=FIX.4.2|9=71|35=A|34=21|49=NESTI|52=20100304-15:53:01|56=QUANT|57=ADMIN|98=0|108=60|10=123|
8=FIX.4.2|9=81|35=1|34=22|49=NESTI|52=20100304-15:53:01|56=QUANT|57=ADMIN|112=1267717981.463569|10=163|
8=FIX.4.2|9=76|35=0|34=20|49=QUANT|52=20100304-15:53:01.488|56=NESTI|112=1267717981.463569|10=099|
8=FIX.4.2|9=66|35=A|34=21|49=QUANT|52=20100304-15:55:35.768|56=NESTI|98=0|108=60|10=072|
8=FIX.4.2|9=71|35=A|34=23|49=NESTI|52=20100304-15:55:35|56=QUANT|57=ADMIN|98=0|108=60|10=134|
8=FIX.4.2|9=81|35=1|34=24|49=NESTI|52=20100304-15:55:35|56=QUANT|57=ADMIN|112=1267718135.913056|10=157|
8=FIX.4.2|9=76|35=0|34=22|49=QUANT|52=20100304-15:55:35.971|56=NESTI|112=1267718135.913056|10=090|
8=FIX.4.2|9=54|35=0|34=23|49=QUANT|52=20100304-15:56:35.767|56=NESTI|10=026|
8=FIX.4.2|9=59|35=0|34=25|49=NESTI|52=20100304-15:56:36|56=QUANT|57=ADMIN|10=099|
8=FIX.4.2|9=54|35=0|34=24|49=QUANT|52=20100304-15:57:35.782|56=NESTI|10=025|
8=FIX.4.2|9=59|35=0|34=26|49=NESTI|52=20100304-15:57:37|56=QUANT|57=ADMIN|10=102|
8=FIX.4.2|9=54|35=0|34=25|49=QUANT|52=20100304-15:58:35.812|56=NESTI|10=021|
8=FIX.4.2|9=59|35=0|34=27|49=NESTI|52=20100304-15:58:38|56=QUANT|57=ADMIN|10=105|
8=FIX.4.2|9=54|35=0|34=26|49=QUANT|52=20100304-15:59:35.827|56=NESTI|10=029|
8=FIX.4.2|9=59|35=0|34=28|49=NESTI|52=20100304-15:59:39|56=QUANT|57=ADMIN|10=108|
8=FIX.4.2|9=54|35=0|34=27|49=QUANT|52=20100304-16:00:35.842|56=NESTI|10=014|
8=FIX.4.2|9=59|35=0|34=29|49=NESTI|52=20100304-16:00:40|56=QUANT|57=ADMIN|10=088|
8=FIX.4.2|9=54|35=0|34=28|49=QUANT|52=20100304-16:01:35.857|56=NESTI|10=022|
8=FIX.4.2|9=59|35=0|34=30|49=NESTI|52=20100304-16:01:41|56=QUANT|57=ADMIN|10=082|
8=FIX.4.2|9=54|35=0|34=29|49=QUANT|52=20100304-16:02:35.887|56=NESTI|10=027|
8=FIX.4.2|9=59|35=0|34=31|49=NESTI|52=20100304-16:02:42|56=QUANT|57=ADMIN|10=085|
8=FIX.4.2|9=54|35=0|34=30|49=QUANT|52=20100304-16:03:35.902|56=NESTI|10=008|
8=FIX.4.2|9=59|35=0|34=32|49=NESTI|52=20100304-16:03:43|56=QUANT|57=ADMIN|10=088|
8=FIX.4.2|9=66|35=A|34=31|49=QUANT|52=20100304-16:09:55.866|56=NESTI|98=0|108=60|10=074|
8=FIX.4.2|9=71|35=A|34=33|49=NESTI|52=20100304-16:09:56|56=QUANT|57=ADMIN|98=0|108=60|10=138|
8=FIX.4.2|9=81|35=1|34=34|49=NESTI|52=20100304-16:09:56|56=QUANT|57=ADMIN|112=1267718996.024374|10=172|
8=FIX.4.2|9=76|35=0|34=32|49=QUANT|52=20100304-16:09:56.069|56=NESTI|112=1267718996.024374|10=103|
8=FIX.4.2|9=54|35=0|34=33|49=QUANT|52=20100304-16:10:56.850|56=NESTI|10=014|
8=FIX.4.2|9=59|35=0|34=35|49=NESTI|52=20100304-16:10:57|56=QUANT|57=ADMIN|10=094|
8=FIX.4.2|9=54|35=0|34=34|49=QUANT|52=20100304-16:11:56.880|56=NESTI|10=019|
8=FIX.4.2|9=59|35=0|34=36|49=NESTI|52=20100304-16:11:58|56=QUANT|57=ADMIN|10=097|
8=FIX.4.2|9=54|35=0|34=35|49=QUANT|52=20100304-16:12:56.895|56=NESTI|10=027|
8=FIX.4.2|9=59|35=0|34=37|49=NESTI|52=20100304-16:12:59|56=QUANT|57=ADMIN|10=100|
8=FIX.4.2|9=66|35=A|34=36|49=QUANT|52=20100304-18:45:33.481|56=NESTI|98=0|108=60|10=070|
8=FIX.4.2|9=71|35=A|34=38|49=NESTI|52=20100304-18:45:33|56=QUANT|57=ADMIN|98=0|108=60|10=140|
8=FIX.4.2|9=81|35=1|34=39|49=NESTI|52=20100304-18:45:33|56=QUANT|57=ADMIN|112=1267728333.491514|10=164|
8=FIX.4.2|9=76|35=0|34=37|49=QUANT|52=20100304-18:45:33.653|56=NESTI|112=1267728333.491514|10=094|
8=FIX.4.2|9=122|35=D|34=38|49=QUANT|52=20100304-18:45:42.387|56=NESTI|11=IAA0004|21=1|38=10|40=1|50=UA|54=1|55=PETR4|60=20100304-15:45:42|10=103|
8=FIX.4.2|9=122|35=D|34=39|49=QUANT|52=20100304-18:45:49.371|56=NESTI|11=IAA0005|21=1|38=15|40=1|50=UA|54=1|55=PETR4|60=20100304-15:45:49|10=117|
8=FIX.4.2|9=122|35=D|34=40|49=QUANT|52=20100304-18:46:02.199|56=NESTI|11=IAA0006|21=1|38=20|40=1|50=UA|54=1|55=PETR4|60=20100304-15:46:02|10=094|
8=FIX.4.2|9=122|35=D|34=41|49=QUANT|52=20100304-18:46:13.981|56=NESTI|11=IAA0007|21=1|38=20|40=1|50=UA|54=1|55=PETR4|60=20100304-15:46:13|10=099|
8=FIX.4.2|9=199|35=8|34=40|49=NESTI|50=RAI|52=20100304-18:46:24|56=QUANT|57=UA|38=10|6=0.00000000|11=IAA0004|14=0|17=1100000013|20=0|31=0.00000000|32=0|37=BIAA0004QUANT|39=0|44=0.00000000|54=1|55=PETR4|150=0|151=10|10=222|
8=FIX.4.2|9=66|35=A|34=42|49=QUANT|52=20100304-18:49:57.384|56=NESTI|98=0|108=60|10=079|
8=FIX.4.2|9=71|35=A|34=45|49=NESTI|52=20100304-18:49:57|56=QUANT|57=ADMIN|98=0|108=60|10=148|
8=FIX.4.2|9=64|35=2|34=43|49=QUANT|52=20100304-18:49:57.400|56=NESTI|7=40|16=0|10=198|
8=FIX.4.2|9=81|35=1|34=46|49=NESTI|52=20100304-18:49:57|56=QUANT|57=ADMIN|112=1267728597.388279|10=197|
8=FIX.4.2|9=226|35=8|34=40|43=Y|49=NESTI|50=RAI|52=20100304-18:49:57|56=QUANT|57=UA|122=20100304-18:46:24|38=10|6=0.00000000|11=IAA0004|14=0|17=1100000013|20=0|31=0.00000000|32=0|37=BIAA0004QUANT|39=0|44=0.00000000|54=1|55=PETR4|150=0|151=10|10=019|
8=FIX.4.2|9=89|35=4|34=41|43=Y|49=NESTI|52=20100304-18:49:57|56=QUANT|122=20100304-18:47:25|36=42|123=Y|10=206|
8=FIX.4.2|9=226|35=8|34=42|43=Y|49=NESTI|50=RAI|52=20100304-18:49:57|56=QUANT|57=UA|122=20100304-18:49:32|38=15|6=0.00000000|11=IAA0005|14=0|17=1100000014|20=0|31=0.00000000|32=0|37=BIAA0005QUANT|39=0|44=0.00000000|54=1|55=PETR4|150=0|151=15|10=036|
8=FIX.4.2|9=226|35=8|34=43|43=Y|49=NESTI|50=RAI|52=20100304-18:49:57|56=QUANT|57=UA|122=20100304-18:49:35|38=20|6=0.00000000|11=IAA0006|14=0|17=1100000015|20=0|31=0.00000000|32=0|37=BIAA0006QUANT|39=0|44=0.00000000|54=1|55=PETR4|150=0|151=20|10=035|
8=FIX.4.2|9=226|35=8|34=44|43=Y|49=NESTI|50=RAI|52=20100304-18:49:57|56=QUANT|57=UA|122=20100304-18:49:38|38=20|6=0.00000000|11=IAA0007|14=0|17=1100000016|20=0|31=0.00000000|32=0|37=BIAA0007QUANT|39=0|44=0.00000000|54=1|55=PETR4|150=0|151=20|10=042|
8=FIX.4.2|9=81|35=1|34=46|49=NESTI|52=20100304-18:49:57|56=QUANT|57=ADMIN|112=1267728597.388279|10=197|
8=FIX.4.2|9=76|35=0|34=44|49=QUANT|52=20100304-18:49:57.587|56=NESTI|112=1267728597.388279|10=133|
8=FIX.4.2|9=89|35=4|34=45|43=Y|49=NESTI|52=20100304-18:49:57|56=QUANT|122=20100304-18:49:57|36=47|123=Y|10=222|
8=FIX.4.2|9=122|35=D|34=45|49=QUANT|52=20100304-18:50:19.368|56=NESTI|11=IAA0008|21=1|38=10|40=1|50=UA|54=1|55=PETR4|60=20100304-15:50:19|10=104|
8=FIX.4.2|9=199|35=8|34=47|49=NESTI|50=RAI|52=20100304-18:50:26|56=QUANT|57=UA|38=10|6=0.00000000|11=IAA0008|14=0|17=1100000021|20=0|31=0.00000000|32=0|37=BIAA0008QUANT|39=0|44=0.00000000|54=1|55=PETR4|150=0|151=10|10=233|
8=FIX.4.2|9=117|35=F|34=46|49=QUANT|52=20100304-18:50:35.118|56=NESTI|11=IAA0008|41=IAA0008|50=UA|54=1|55=PETR4|60=20100304-15:50:35|10=235|
8=FIX.4.2|9=108|35=3|34=48|49=NESTI|52=20100304-18:50:35|56=QUANT|57=ADMIN|45=46|58=Missing Field(s) in Message: iOrderqty;|10=036|
8=FIX.4.2|9=54|35=0|34=47|49=QUANT|52=20100304-18:51:35.398|56=NESTI|10=030|
8=FIX.4.2|9=59|35=0|34=49|49=NESTI|52=20100304-18:51:36|56=QUANT|57=ADMIN|10=103|
8=FIX.4.2|9=54|35=0|34=48|49=QUANT|52=20100304-18:52:35.429|56=NESTI|10=027|
8=FIX.4.2|9=59|35=0|34=50|49=NESTI|52=20100304-18:52:37|56=QUANT|57=ADMIN|10=097|
8=FIX.4.2|9=54|35=0|34=49|49=QUANT|52=20100304-18:53:35.444|56=NESTI|10=026|
8=FIX.4.2|9=59|35=0|34=51|49=NESTI|52=20100304-18:53:38|56=QUANT|57=ADMIN|10=100|
8=FIX.4.2|9=54|35=0|34=50|49=QUANT|52=20100304-18:54:35.458|56=NESTI|10=024|
8=FIX.4.2|9=59|35=0|34=52|49=NESTI|52=20100304-18:54:39|56=QUANT|57=ADMIN|10=103|
8=FIX.4.2|9=54|35=0|34=51|49=QUANT|52=20100304-18:55:35.473|56=NESTI|10=023|
8=FIX.4.2|9=59|35=0|34=53|49=NESTI|52=20100304-18:55:40|56=QUANT|57=ADMIN|10=097|
8=FIX.4.2|9=54|35=0|34=52|49=QUANT|52=20100304-18:56:35.504|56=NESTI|10=020|
8=FIX.4.2|9=59|35=0|34=54|49=NESTI|52=20100304-18:56:41|56=QUANT|57=ADMIN|10=100|
8=FIX.4.2|9=54|35=0|34=53|49=QUANT|52=20100304-18:57:35.519|56=NESTI|10=028|
8=FIX.4.2|9=59|35=0|34=55|49=NESTI|52=20100304-18:57:42|56=QUANT|57=ADMIN|10=103|
8=FIX.4.2|9=54|35=0|34=54|49=QUANT|52=20100304-18:58:35.534|56=NESTI|10=027|
8=FIX.4.2|9=59|35=0|34=56|49=NESTI|52=20100304-18:58:43|56=QUANT|57=ADMIN|10=106|
8=FIX.4.2|9=54|35=0|34=55|49=QUANT|52=20100304-18:59:35.548|56=NESTI|10=034|
8=FIX.4.2|9=59|35=0|34=57|49=NESTI|52=20100304-18:59:44|56=QUANT|57=ADMIN|10=109|
8=FIX.4.2|9=54|35=0|34=56|49=QUANT|52=20100304-19:00:35.579|56=NESTI|10=026|
8=FIX.4.2|9=59|35=0|34=58|49=NESTI|52=20100304-19:00:45|56=QUANT|57=ADMIN|10=098|
8=FIX.4.2|9=54|35=0|34=57|49=QUANT|52=20100304-19:01:35.594|56=NESTI|10=025|
8=FIX.4.2|9=59|35=0|34=59|49=NESTI|52=20100304-19:01:46|56=QUANT|57=ADMIN|10=101|
8=FIX.4.2|9=66|35=A|34=58|49=QUANT|52=20100304-19:03:50.123|56=NESTI|98=0|108=60|10=061|
8=FIX.4.2|9=71|35=A|34=60|49=NESTI|52=20100304-19:03:50|56=QUANT|57=ADMIN|98=0|108=60|10=129|
8=FIX.4.2|9=81|35=1|34=61|49=NESTI|52=20100304-19:03:50|56=QUANT|57=ADMIN|112=1267729430.149165|10=154|
8=FIX.4.2|9=76|35=0|34=59|49=QUANT|52=20100304-19:03:50.326|56=NESTI|112=1267729430.149165|10=090|
8=FIX.4.2|9=121|35=D|34=60|49=QUANT|52=20100304-19:04:09.670|56=NESTI|11=IAA0009|21=1|38=5|40=1|50=UA|54=1|55=PETR4|60=20100304-16:04:09|10=051|
8=FIX.4.2|9=197|35=8|34=62|49=NESTI|50=RAI|52=20100304-19:04:18|56=QUANT|57=UA|38=5|6=0.00000000|11=IAA0009|14=0|17=1100000024|20=0|31=0.00000000|32=0|37=BIAA0009QUANT|39=0|44=0.00000000|54=1|55=PETR4|150=0|151=5|10=146|
8=FIX.4.2|9=122|35=F|34=61|49=QUANT|52=20100304-19:04:29.123|56=NESTI|11=IAA0009|38=5|41=IAA0009|50=UA|54=1|55=PETR4|60=20100304-16:04:29|10=198|
8=FIX.4.2|9=141|35=9|34=63|49=NESTI|52=20100304-19:04:29|56=QUANT|57=UA|11=IAA0009|37=BIAA0009QUANT|58=Invalid Order Id (Tag 11)|102=0|41=IAA0009|39=8|434=1|10=139|
8=FIX.4.2|9=66|35=A|34=62|49=QUANT|52=20100304-19:27:43.730|56=NESTI|98=0|108=60|10=068|
8=FIX.4.2|9=71|35=A|34=83|49=NESTI|52=20100304-19:27:43|56=QUANT|57=ADMIN|98=0|108=60|10=142|
8=FIX.4.2|9=64|35=2|34=63|49=QUANT|52=20100304-19:27:43.746|56=NESTI|7=63|16=0|10=210|
8=FIX.4.2|9=81|35=1|34=84|49=NESTI|52=20100304-19:27:43|56=QUANT|57=ADMIN|112=1267730863.766184|10=175|
8=FIX.4.2|9=168|35=9|34=63|43=Y|49=NESTI|52=20100304-19:27:43|56=QUANT|57=UA|122=20100304-19:04:29|11=IAA0009|37=BIAA0009QUANT|58=Invalid Order Id (Tag 11)|102=0|41=IAA0009|39=8|434=1|10=202|
8=FIX.4.2|9=66|35=A|34=64|49=QUANT|52=20100304-19:29:21.854|56=NESTI|98=0|108=60|10=075|
8=FIX.4.2|9=71|35=A|34=85|49=NESTI|52=20100304-19:29:21|56=QUANT|57=ADMIN|98=0|108=60|10=142|
8=FIX.4.2|9=64|35=2|34=65|49=QUANT|52=20100304-19:29:21.885|56=NESTI|7=63|16=0|10=214|
8=FIX.4.2|9=81|35=1|34=86|49=NESTI|52=20100304-19:29:21|56=QUANT|57=ADMIN|112=1267730961.901250|10=159|
8=FIX.4.2|9=168|35=9|34=63|43=Y|49=NESTI|52=20100304-19:29:21|56=QUANT|57=UA|122=20100304-19:04:29|11=IAA0009|37=BIAA0009QUANT|58=Invalid Order Id (Tag 11)|102=0|41=IAA0009|39=8|434=1|10=200|
8=FIX.4.2|9=89|35=4|34=64|43=Y|49=NESTI|52=20100304-19:29:21|56=QUANT|122=20100304-19:29:21|36=87|123=Y|10=207|
8=FIX.4.2|9=122|35=D|34=66|49=QUANT|52=20100304-19:29:58.619|56=NESTI|11=IAA0001|21=1|38=10|40=1|50=UA|54=1|55=PETR4|60=20100304-16:29:58|10=119|
8=FIX.4.2|9=222|35=8|34=87|49=NESTI|52=20100304-19:29:58|56=QUANT|57=UA|38=10|6=0.00000000|11=IAA0001|14=0|17=888891|20=0|31=0.00000000|32=0|37=BIAA0001QUANT|39=8|44=0.00000000|54=1|55=PETR4|58=Invalid Order Id (Tag 11)|103=0|150=8|151=0|10=015|
8=FIX.4.2|9=66|35=A|34=67|49=QUANT|52=20100304-19:31:23.665|56=NESTI|98=0|108=60|10=073|
8=FIX.4.2|9=71|35=A|34=88|49=NESTI|52=20100304-19:31:23|56=QUANT|57=ADMIN|98=0|108=60|10=140|
8=FIX.4.2|9=81|35=1|34=89|49=NESTI|52=20100304-19:31:23|56=QUANT|57=ADMIN|112=1267731083.722540|10=156|
8=FIX.4.2|9=76|35=0|34=68|49=QUANT|52=20100304-19:31:23.836|56=NESTI|112=1267731083.722540|10=088|
8=FIX.4.2|9=122|35=D|34=69|49=QUANT|52=20100304-19:31:50.555|56=NESTI|11=IAA0010|21=1|38=10|40=1|50=UA|54=1|55=PETR4|60=20100304-16:31:50|10=091|
8=FIX.4.2|9=199|35=8|34=90|49=NESTI|50=RAI|52=20100304-19:32:18|56=QUANT|57=UA|38=10|6=0.00000000|11=IAA0010|14=0|17=1100000030|20=0|31=0.00000000|32=0|37=BIAA0010QUANT|39=0|44=0.00000000|54=1|55=PETR4|150=0|151=10|10=219|
8=FIX.4.2|9=123|35=F|34=70|49=QUANT|52=20100304-19:32:31.179|56=NESTI|11=IAA0010|38=10|41=IAA0011|50=UA|54=1|55=PETR4|60=20100304-16:32:31|10=227|
8=FIX.4.2|9=141|35=9|34=91|49=NESTI|52=20100304-19:32:31|56=QUANT|57=UA|11=IAA0010|37=BIAA0010QUANT|58=Invalid Order Id (Tag 11)|102=0|41=IAA0011|39=8|434=1|10=111|
8=FIX.4.2|9=54|35=0|34=71|49=QUANT|52=20100304-19:33:31.694|56=NESTI|10=023|
8=FIX.4.2|9=59|35=0|34=92|49=NESTI|52=20100304-19:33:32|56=QUANT|57=ADMIN|10=098|
8=FIX.4.2|9=54|35=5|34=72|49=QUANT|52=20100304-19:34:16.709|56=NESTI|10=030|
8=FIX.4.2|9=100|35=5|34=93|49=NESTI|52=20100304-19:34:16|56=QUANT|57=ADMIN|58=Accepting request to close connection|10=121|
8=FIX.4.2|9=66|35=A|34=73|49=QUANT|52=20100304-19:36:03.833|56=NESTI|98=0|108=60|10=070|
8=FIX.4.2|9=71|35=A|34=94|49=NESTI|52=20100304-19:36:03|56=QUANT|57=ADMIN|98=0|108=60|10=140|
8=FIX.4.2|9=81|35=1|34=95|49=NESTI|52=20100304-19:36:03|56=QUANT|57=ADMIN|112=1267731363.879575|10=178|
8=FIX.4.2|9=76|35=0|34=74|49=QUANT|52=20100304-19:36:03.973|56=NESTI|112=1267731363.879575|10=112|
8=FIX.4.2|9=121|35=D|34=75|49=QUANT|52=20100304-19:36:19.817|56=NESTI|11=IAA0012|21=1|38=1|40=1|50=UA|54=1|55=PETR4|60=20100304-16:36:19|10=062|
8=FIX.4.2|9=197|35=8|34=96|49=NESTI|50=RAI|52=20100304-19:36:31|56=QUANT|57=UA|38=1|6=0.00000000|11=IAA0012|14=0|17=1100000034|20=0|31=0.00000000|32=0|37=BIAA0012QUANT|39=0|44=0.00000000|54=1|55=PETR4|150=0|151=1|10=134|
8=FIX.4.2|9=122|35=F|34=76|49=QUANT|52=20100304-19:36:39.082|56=NESTI|11=IAA0013|38=1|41=IAA0012|50=UA|54=1|55=PETR4|60=20100304-16:36:39|10=205|
8=FIX.4.2|9=201|35=8|34=97|49=NESTI|52=20100304-19:36:39|56=QUANT|57=UA|38=1|6=0.00000000|11=IAA0013|14=0|17=1200000036|20=0|31=0.00000000|32=0|37=BIAA0013QUANT|39=6|44=0.00000000|54=1|55=PETR4|150=6|41=IAA0012|151=1|10=068|
8=FIX.4.2|9=190|35=8|34=98|49=NESTI|52=20100304-19:36:39|56=QUANT|57=UA|38=1|6=0.00000000|11=IAA0012|14=0|17=1100000036|20=0|31=0.00000000|32=0|37=BIAA0012QUANT|39=4|44=0.00000000|54=1|55=PETR4|150=4|151=0|10=019|
8=FIX.4.2|9=54|35=0|34=77|49=QUANT|52=20100304-19:37:39.863|56=NESTI|10=039|
8=FIX.4.2|9=59|35=0|34=99|49=NESTI|52=20100304-19:37:40|56=QUANT|57=ADMIN|10=108|
8=FIX.4.2|9=54|35=0|34=78|49=QUANT|52=20100304-19:38:39.878|56=NESTI|10=047|
8=FIX.4.2|9=60|35=0|34=100|49=NESTI|52=20100304-19:38:41|56=QUANT|57=ADMIN|10=133|
8=FIX.4.2|9=54|35=0|34=79|49=QUANT|52=20100304-19:39:39.908|56=NESTI|10=043|
8=FIX.4.2|9=60|35=0|34=101|49=NESTI|52=20100304-19:39:42|56=QUANT|57=ADMIN|10=136|
8=FIX.4.2|9=54|35=0|34=80|49=QUANT|52=20100304-19:40:39.923|56=NESTI|10=024|
8=FIX.4.2|9=60|35=0|34=102|49=NESTI|52=20100304-19:40:43|56=QUANT|57=ADMIN|10=130|
8=FIX.4.2|9=54|35=0|34=81|49=QUANT|52=20100304-19:41:39.938|56=NESTI|10=032|
8=FIX.4.2|9=60|35=0|34=103|49=NESTI|52=20100304-19:41:44|56=QUANT|57=ADMIN|10=133|
8=FIX.4.2|9=54|35=0|34=82|49=QUANT|52=20100304-19:42:39.531|56=NESTI|10=023|
8=FIX.4.2|9=60|35=0|34=104|49=NESTI|52=20100304-19:42:45|56=QUANT|57=ADMIN|10=136|
8=FIX.4.2|9=54|35=0|34=83|49=QUANT|52=20100304-19:43:39.546|56=NESTI|10=031|
8=FIX.4.2|9=60|35=0|34=105|49=NESTI|52=20100304-19:43:46|56=QUANT|57=ADMIN|10=139|
8=FIX.4.2|9=54|35=0|34=84|49=QUANT|52=20100304-19:44:39.576|56=NESTI|10=036|
8=FIX.4.2|9=60|35=0|34=106|49=NESTI|52=20100304-19:44:47|56=QUANT|57=ADMIN|10=142|
8=FIX.4.2|9=121|35=D|34=85|49=QUANT|52=20100304-19:45:35.185|56=NESTI|11=IAA0014|21=1|38=5|40=1|50=UA|54=1|55=PETR4|60=20100304-16:45:35|10=063|
8=FIX.4.2|9=198|35=8|34=107|49=NESTI|50=RAI|52=20100304-19:45:41|56=QUANT|57=UA|38=5|6=0.00000000|11=IAA0014|14=0|17=1100000039|20=0|31=0.00000000|32=0|37=BIAA0014QUANT|39=0|44=0.00000000|54=1|55=PETR4|150=0|151=5|10=194|
8=FIX.4.2|9=54|35=0|34=86|49=QUANT|52=20100304-19:46:35.606|56=NESTI|10=030|
8=FIX.4.2|9=60|35=0|34=108|49=NESTI|52=20100304-19:46:42|56=QUANT|57=ADMIN|10=141|
8=FIX.4.2|9=190|35=8|34=109|49=NESTI|52=20100304-19:47:22|56=QUANT|57=UA|38=5|6=1.00000000|11=IAA0014|14=2|17=162000403|20=0|31=1.00000000|32=2|37=BIAA0014QUANT|39=1|44=0.00000000|54=1|55=PETR4|150=1|151=3|10=022|
8=FIX.4.2|9=54|35=0|34=87|49=QUANT|52=20100304-19:47:35.621|56=NESTI|10=029|
8=FIX.4.2|9=122|35=F|34=88|49=QUANT|52=20100304-19:48:10.511|56=NESTI|11=IAA0015|38=1|41=IAA0012|50=UA|54=1|55=PETR4|60=20100304-16:48:10|10=191|
8=FIX.4.2|9=122|35=F|34=89|49=QUANT|52=20100304-19:48:10.511|56=NESTI|11=IAA0016|38=5|41=IAA0014|50=UA|54=1|55=PETR4|60=20100304-16:48:10|10=199|
8=FIX.4.2|9=136|35=9|34=110|49=NESTI|52=20100304-19:48:10|56=QUANT|57=UA|11=IAA0015|37=BIAA0015QUANT|58=REFERENCE-CANCELLED|102=0|41=IAA0012|39=8|434=1|10=034|
8=FIX.4.2|9=202|35=8|34=111|49=NESTI|52=20100304-19:48:10|56=QUANT|57=UA|38=5|6=1.00000000|11=IAA0016|14=2|17=1200000043|20=0|31=0.00000000|32=0|37=BIAA0016QUANT|39=6|44=0.00000000|54=1|55=PETR4|150=6|41=IAA0014|151=3|10=111|
8=FIX.4.2|9=54|35=0|34=90|49=QUANT|52=20100304-19:49:10.651|56=NESTI|10=021|
8=FIX.4.2|9=60|35=0|34=112|49=NESTI|52=20100304-19:49:11|56=QUANT|57=ADMIN|10=135|
8=FIX.4.2|9=65|35=A|34=1|49=QUANT|52=20100309-15:05:38.825|56=NESTI|98=0|108=60|10=018|
8=FIX.4.2|9=70|35=A|34=1|49=NESTI|52=20100309-15:05:30|56=QUANT|57=ADMIN|98=0|108=60|10=076|
8=FIX.4.2|9=80|35=1|34=2|49=NESTI|52=20100309-15:05:30|56=QUANT|57=ADMIN|112=1268147130.550478|10=096|
8=FIX.4.2|9=75|35=0|34=2|49=QUANT|52=20100309-15:05:39.012|56=NESTI|112=1268147130.550478|10=026|
8=FIX.4.2|9=53|35=0|34=3|49=QUANT|52=20100309-15:06:39.839|56=NESTI|10=235|
8=FIX.4.2|9=58|35=0|34=3|49=NESTI|52=20100309-15:06:31|56=QUANT|57=ADMIN|10=041|
8=FIX.4.2|9=53|35=0|34=4|49=QUANT|52=20100309-15:07:39.869|56=NESTI|10=240|
8=FIX.4.2|9=58|35=0|34=4|49=NESTI|52=20100309-15:07:32|56=QUANT|57=ADMIN|10=044|
8=FIX.4.2|9=53|35=0|34=5|49=QUANT|52=20100309-15:08:39.900|56=NESTI|10=228|
8=FIX.4.2|9=58|35=0|34=5|49=NESTI|52=20100309-15:08:33|56=QUANT|57=ADMIN|10=047|
8=FIX.4.2|9=53|35=0|34=6|49=QUANT|52=20100309-15:09:39.930|56=NESTI|10=233|
8=FIX.4.2|9=58|35=0|34=6|49=NESTI|52=20100309-15:09:34|56=QUANT|57=ADMIN|10=050|
8=FIX.4.2|9=53|35=0|34=7|49=QUANT|52=20100309-15:10:39.960|56=NESTI|10=229|
8=FIX.4.2|9=58|35=0|34=7|49=NESTI|52=20100309-15:10:35|56=QUANT|57=ADMIN|10=044|
8=FIX.4.2|9=53|35=0|34=8|49=QUANT|52=20100309-15:11:39.974|56=NESTI|10=236|
8=FIX.4.2|9=58|35=0|34=8|49=NESTI|52=20100309-15:11:36|56=QUANT|57=ADMIN|10=047|
8=FIX.4.2|9=53|35=0|34=9|49=QUANT|52=20100309-15:12:39.004|56=NESTI|10=222|
8=FIX.4.2|9=58|35=0|34=9|49=NESTI|52=20100309-15:12:37|56=QUANT|57=ADMIN|10=050|
8=FIX.4.2|9=54|35=0|34=10|49=QUANT|52=20100309-15:13:39.034|56=NESTI|10=011|
8=FIX.4.2|9=59|35=0|34=10|49=NESTI|52=20100309-15:13:38|56=QUANT|57=ADMIN|10=093|
8=FIX.4.2|9=54|35=0|34=11|49=QUANT|52=20100309-15:14:39.065|56=NESTI|10=017|
8=FIX.4.2|9=59|35=0|34=11|49=NESTI|52=20100309-15:14:39|56=QUANT|57=ADMIN|10=096|
8=FIX.4.2|9=54|35=0|34=12|49=QUANT|52=20100309-15:15:39.095|56=NESTI|10=022|
8=FIX.4.2|9=59|35=0|34=12|49=NESTI|52=20100309-15:15:40|56=QUANT|57=ADMIN|10=090|
8=FIX.4.2|9=54|35=0|34=13|49=QUANT|52=20100309-15:16:39.125|56=NESTI|10=018|
8=FIX.4.2|9=59|35=0|34=13|49=NESTI|52=20100309-15:16:41|56=QUANT|57=ADMIN|10=093|
8=FIX.4.2|9=54|35=0|34=14|49=QUANT|52=20100309-15:17:39.139|56=NESTI|10=025|
8=FIX.4.2|9=59|35=0|34=14|49=NESTI|52=20100309-15:17:42|56=QUANT|57=ADMIN|10=096|
8=FIX.4.2|9=54|35=0|34=15|49=QUANT|52=20100309-15:18:39.169|56=NESTI|10=030|
8=FIX.4.2|9=59|35=0|34=15|49=NESTI|52=20100309-15:18:43|56=QUANT|57=ADMIN|10=099|
8=FIX.4.2|9=54|35=0|34=16|49=QUANT|52=20100309-15:19:39.199|56=NESTI|10=035|
8=FIX.4.2|9=59|35=0|34=16|49=NESTI|52=20100309-15:19:44|56=QUANT|57=ADMIN|10=102|
8=FIX.4.2|9=54|35=0|34=17|49=QUANT|52=20100309-15:20:39.230|56=NESTI|10=014|
8=FIX.4.2|9=59|35=0|34=17|49=NESTI|52=20100309-15:20:45|56=QUANT|57=ADMIN|10=096|
8=FIX.4.2|9=54|35=0|34=18|49=QUANT|52=20100309-15:21:39.260|56=NESTI|10=019|
8=FIX.4.2|9=59|35=0|34=18|49=NESTI|52=20100309-15:21:46|56=QUANT|57=ADMIN|10=099|
8=FIX.4.2|9=65|35=A|34=1|49=QUANT|52=20100310-17:21:11.492|56=NESTI|98=0|108=60|10=001|
8=FIX.4.2|9=70|35=A|34=1|49=NESTI|52=20100310-17:21:00|56=QUANT|57=ADMIN|98=0|108=60|10=065|
8=FIX.4.2|9=80|35=1|34=2|49=NESTI|52=20100310-17:21:00|56=QUANT|57=ADMIN|112=1268241660.497122|10=084|
8=FIX.4.2|9=75|35=0|34=2|49=QUANT|52=20100310-17:21:11.664|56=NESTI|112=1268241660.497122|10=020|
8=FIX.4.2|9=65|35=A|34=3|49=QUANT|52=20100310-17:22:45.303|56=NESTI|98=0|108=60|10=002|
8=FIX.4.2|9=70|35=A|34=3|49=NESTI|52=20100310-17:22:34|56=QUANT|57=ADMIN|98=0|108=60|10=075|
8=FIX.4.2|9=80|35=1|34=4|49=NESTI|52=20100310-17:22:34|56=QUANT|57=ADMIN|112=1268241754.306159|10=097|
8=FIX.4.2|9=75|35=0|34=4|49=QUANT|52=20100310-17:22:45.506|56=NESTI|112=1268241754.306159|10=028|
8=FIX.4.2|9=53|35=0|34=5|49=QUANT|52=20100310-17:23:45.317|56=NESTI|10=218|
8=FIX.4.2|9=58|35=0|34=5|49=NESTI|52=20100310-17:23:35|56=QUANT|57=ADMIN|10=040|
8=FIX.4.2|9=53|35=0|34=6|49=QUANT|52=20100310-17:24:45.347|56=NESTI|10=223|
8=FIX.4.2|9=58|35=0|34=6|49=NESTI|52=20100310-17:24:36|56=QUANT|57=ADMIN|10=043|
8=FIX.4.2|9=65|35=A|34=7|49=QUANT|52=20100310-17:26:12.221|56=NESTI|98=0|108=60|10=003|
8=FIX.4.2|9=70|35=A|34=7|49=NESTI|52=20100310-17:26:01|56=QUANT|57=ADMIN|98=0|108=60|10=077|
8=FIX.4.2|9=80|35=1|34=8|49=NESTI|52=20100310-17:26:01|56=QUANT|57=ADMIN|112=1268241961.213520|10=088|
8=FIX.4.2|9=75|35=0|34=8|49=QUANT|52=20100310-17:26:12.408|56=NESTI|112=1268241961.213520|10=020|
