8=FIX.4.2|9=179|35=G|34=692|49=NSTBOV|50=LB|52=20100218-18:27:10|56=LNKBOV|57=T1|1=204527|11=LAA0041|21=1|37=07M16197|38=200|40=2|41=LAA0040|44=1.83000000|47=A|54=2|55=PTBL3|60=20100218-18:27:10|10=131|
8=FIX.4.2|9=179|35=G|34=693|49=NSTBOV|50=LB|52=20100218-18:27:13|56=LNKBOV|57=T1|1=204527|11=LAA0042|21=1|37=07M16201|38=200|40=2|41=LAA0041|44=1.82000000|47=A|54=2|55=PTBL3|60=20100218-18:27:13|10=125|
8=FIX.4.2|9=179|35=G|34=694|49=NSTBOV|50=LB|52=20100218-18:27:16|56=LNKBOV|57=T1|1=204527|11=LAA0043|21=1|37=07M16202|38=200|40=2|41=LAA0042|44=1.81000000|47=A|54=2|55=PTBL3|60=20100218-18:27:16|10=134|
8=FIX.4.2|9=179|35=G|34=695|49=NSTBOV|50=LB|52=20100218-18:27:19|56=LNKBOV|57=T1|1=204527|11=LAA0044|21=1|37=07M16203|38=200|40=2|41=LAA0043|44=1.82000000|47=A|54=2|55=PTBL3|60=20100218-18:27:19|10=145|
8=FIX.4.2|9=179|35=G|34=696|49=NSTBOV|50=LB|52=20100218-18:27:20|56=LNKBOV|57=T1|1=204527|11=LAA0045|21=1|37=07M16205|38=200|40=2|41=LAA0044|44=1.83000000|47=A|54=2|55=PTBL3|60=20100218-18:27:20|10=135|
8=FIX.4.2|9=179|35=G|34=697|49=NSTBOV|50=LB|52=20100218-18:27:22|56=LNKBOV|57=T1|1=204527|11=LAA0046|21=1|37=07M16206|38=200|40=2|41=LAA0045|44=1.84000000|47=A|54=2|55=PTBL3|60=20100218-18:27:22|10=144|
8=FIX.4.2|9=179|35=G|34=698|49=NSTBOV|50=LB|52=20100218-18:27:24|56=LNKBOV|57=T1|1=204527|11=LAA0047|21=1|37=07M16207|38=200|40=2|41=LAA0046|44=1.85000000|47=A|54=2|55=PTBL3|60=20100218-18:27:24|10=153|
8=FIX.4.2|9=179|35=G|34=699|49=NSTBOV|50=LB|52=20100218-18:27:25|56=LNKBOV|57=T1|1=204527|11=LAA0048|21=1|37=07M16208|38=200|40=2|41=LAA0047|44=1.86000000|47=A|54=2|55=PTBL3|60=20100218-18:27:25|10=160|
8=FIX.4.2|9=179|35=G|34=703|49=NSTBOV|50=LB|52=20100218-18:30:00|56=LNKBOV|57=T1|1=204527|11=LAA0049|21=1|37=07M16209|38=200|40=2|41=LAA0048|44=1.85000000|47=A|54=2|55=PTBL3|60=20100218-18:30:00|10=122|
8=FIX.4.2|9=179|35=G|34=704|49=NSTBOV|50=LB|52=20100218-18:30:01|56=LNKBOV|57=T1|1=204527|11=LAA0050|21=1|37=07M16254|38=200|40=2|41=LAA0049|44=1.84000000|47=A|54=2|55=PTBL3|60=20100218-18:30:01|10=117|
8=FIX.4.2|9=156|35=D|34=705|49=NSTBOV|50=LB|52=20100218-18:30:04|56=LNKBOV|57=T1|1=204527|11=LAA0051|21=1|38=200|40=2|44=1.82000000|47=A|54=1|55=PTBL3|60=20100218-18:30:04|10=214|
8=FIX.4.2|9=179|35=G|34=706|49=NSTBOV|50=LB|52=20100218-18:30:08|56=LNKBOV|57=T1|1=204527|11=LAA0052|21=1|37=07M16255|38=200|40=2|41=LAA0050|44=1.83000000|47=A|54=2|55=PTBL3|60=20100218-18:30:08|10=127|
8=FIX.4.2|9=156|35=D|34=707|49=NSTBOV|50=LB|52=20100218-18:30:11|56=LNKBOV|57=T1|1=204527|11=LAA0053|21=1|38=100|40=2|44=1.82000000|47=A|54=1|55=PTBL3|60=20100218-18:30:11|10=213|
8=FIX.4.2|9=179|35=G|34=708|49=NSTBOV|50=LB|52=20100218-18:30:14|56=LNKBOV|57=T1|1=204527|11=LAA0054|21=1|37=07M16262|38=200|40=2|41=LAA0052|44=1.84000000|47=A|54=2|55=PTBL3|60=20100218-18:30:14|10=126|
8=FIX.4.2|9=179|35=G|34=709|49=NSTBOV|50=LB|52=20100218-18:30:15|56=LNKBOV|57=T1|1=204527|11=LAA0055|21=1|37=07M16264|38=200|40=2|41=LAA0054|44=1.85000000|47=A|54=2|55=PTBL3|60=20100218-18:30:15|10=135|
8=FIX.4.2|9=179|35=G|34=710|49=NSTBOV|50=LB|52=20100218-18:30:17|56=LNKBOV|57=T1|1=204527|11=LAA0056|21=1|37=07M16265|38=200|40=2|41=LAA0055|44=1.86000000|47=A|54=2|55=PTBL3|60=20100218-18:30:17|10=135|
8=FIX.4.2|9=139|35=F|34=711|49=NSTBOV|50=LB|52=20100218-18:30:33|56=LNKBOV|57=T1|1=204527|11=LAA0057|38=1300|41=LAA0036|54=1|55=PTBL3|60=20100218-18:30:33|10=045|
8=FIX.4.2|9=157|35=D|34=712|49=NSTBOV|50=LB|52=20100218-18:30:49|56=LNKBOV|57=T1|1=204527|11=LAA0058|21=1|38=100|40=2|44=13.99000000|47=A|54=1|55=CGRA4|60=20100218-18:30:49|10=020|
8=FIX.4.2|9=157|35=D|34=714|49=NSTBOV|50=LB|52=20100218-18:32:17|56=LNKBOV|57=T1|1=204527|11=LAA0059|21=1|38=100|40=2|44=13.20000000|47=A|54=1|55=CGRA4|60=20100218-18:32:17|10=001|
8=FIX.4.2|9=157|35=D|34=715|49=NSTBOV|50=LB|52=20100218-18:32:20|56=LNKBOV|57=T1|1=204527|11=LAA0060|21=1|38=100|40=2|44=13.40000000|47=A|54=1|55=CGRA4|60=20100218-18:32:20|10=240|
8=FIX.4.2|9=157|35=D|34=716|49=NSTBOV|50=LB|52=20100218-18:32:27|56=LNKBOV|57=T1|1=204527|11=LAA0061|21=1|38=100|40=2|44=13.60000000|47=A|54=1|55=CGRA4|60=20100218-18:32:27|10=002|
8=FIX.4.2|9=157|35=D|34=717|49=NSTBOV|50=LB|52=20100218-18:32:34|56=LNKBOV|57=T1|1=204527|11=LAA0062|21=1|38=100|40=2|44=13.80000000|47=A|54=1|55=CGRA4|60=20100218-18:32:34|10=002|
8=FIX.4.2|9=138|35=F|34=719|49=NSTBOV|50=LB|52=20100218-18:34:13|56=LNKBOV|57=T1|1=204527|11=LAA0063|38=200|41=LAA0056|54=2|55=PTBL3|60=20100218-18:34:13|10=006|
8=FIX.4.2|9=156|35=D|34=720|49=NSTBOV|50=LB|52=20100218-18:34:15|56=LNKBOV|57=T1|1=204527|11=LAA0064|21=1|38=200|40=2|44=1.87000000|47=A|54=1|55=PTBL3|60=20100218-18:34:15|10=232|
8=FIX.4.2|9=156|35=D|34=722|49=NSTBOV|50=LB|52=20100218-18:35:46|56=LNKBOV|57=T1|1=204527|11=LAA0065|21=1|38=400|40=2|44=1.86000000|47=A|54=2|55=PTBL3|60=20100218-18:35:46|10=247|
8=FIX.4.2|9=180|35=G|34=724|49=NSTBOV|50=LB|52=20100218-18:36:40|56=LNKBOV|57=T1|1=204527|11=LAA0066|21=1|37=07N16336|38=100|40=2|41=LAA0062|44=13.75000000|47=A|54=1|55=CGRA4|60=20100218-18:36:40|10=162|
8=FIX.4.2|9=180|35=G|34=725|49=NSTBOV|50=LB|52=20100218-18:36:42|56=LNKBOV|57=T1|1=204527|11=LAA0067|21=1|37=07N16327|38=100|40=2|41=LAA0061|44=13.55000000|47=A|54=1|55=CGRA4|60=20100218-18:36:42|10=165|
8=FIX.4.2|9=180|35=G|34=726|49=NSTBOV|50=LB|52=20100218-18:36:45|56=LNKBOV|57=T1|1=204527|11=LAA0068|21=1|37=07N16322|38=100|40=2|41=LAA0060|44=13.35000000|47=A|54=1|55=CGRA4|60=20100218-18:36:45|10=165|
8=FIX.4.2|9=138|35=F|34=751|49=NSTBOV|50=LB|52=20100218-18:57:59|56=LNKBOV|57=T1|1=204527|11=LAA0069|38=100|41=LAA0066|54=1|55=CGRA4|60=20100218-18:57:59|10=017|
8=FIX.4.2|9=180|35=G|34=752|49=NSTBOV|50=LB|52=20100218-18:58:03|56=LNKBOV|57=T1|1=204527|11=LAA0070|21=1|37=07M16526|38=100|40=2|41=LAA0067|44=13.56000000|47=A|54=1|55=CGRA4|60=20100218-18:58:03|10=168|
8=FIX.4.2|9=180|35=G|34=753|49=NSTBOV|50=LB|52=20100218-18:58:04|56=LNKBOV|57=T1|1=204527|11=LAA0071|21=1|37=07M18136|38=100|40=2|41=LAA0070|44=13.57000000|47=A|54=1|55=CGRA4|60=20100218-18:58:04|10=166|
8=FIX.4.2|9=180|35=G|34=754|49=NSTBOV|50=LB|52=20100218-18:58:04|56=LNKBOV|57=T1|1=204527|11=LAA0072|21=1|37=07M18137|38=100|40=2|41=LAA0071|44=13.58000000|47=A|54=1|55=CGRA4|60=20100218-18:58:04|10=171|
8=FIX.4.2|9=180|35=G|34=755|49=NSTBOV|50=LB|52=20100218-18:58:05|56=LNKBOV|57=T1|1=204527|11=LAA0073|21=1|37=07M18138|38=100|40=2|41=LAA0072|44=13.59000000|47=A|54=1|55=CGRA4|60=20100218-18:58:05|10=178|
8=FIX.4.2|9=180|35=G|34=756|49=NSTBOV|50=LB|52=20100218-18:58:06|56=LNKBOV|57=T1|1=204527|11=LAA0074|21=1|37=07M18139|38=100|40=2|41=LAA0073|44=13.60000000|47=A|54=1|55=CGRA4|60=20100218-18:58:06|10=176|
8=FIX.4.2|9=156|35=D|34=759|49=NSTBOV|50=LB|52=20100218-19:00:30|56=LNKBOV|57=T1|1=204527|11=LAA0075|21=1|38=200|40=2|44=1.82000000|47=A|54=1|55=PTBL3|60=20100218-19:00:30|10=223|
8=FIX.4.2|9=156|35=D|34=772|49=NSTBOV|50=LB|52=20100218-19:10:45|56=LNKBOV|57=T1|1=204527|11=LAA0076|21=1|38=200|40=2|44=1.80000000|47=A|54=2|55=PTBL3|60=20100218-19:10:45|10=232|
8=FIX.4.2|9=180|35=G|34=786|49=NSTBOV|50=LB|52=20100218-19:21:58|56=LNKBOV|57=T1|1=204527|11=LAA0077|21=1|37=07M14448|38=1500|40=2|41=LAA0029|44=2.95000000|47=A|54=1|55=MRSL4|60=20100218-19:21:58|10=222|
8=FIX.4.2|9=180|35=G|34=787|49=NSTBOV|50=LB|52=20100218-19:21:59|56=LNKBOV|57=T1|1=204527|11=LAA0078|21=1|37=07M19490|38=1500|40=2|41=LAA0077|44=2.96000000|47=A|54=1|55=MRSL4|60=20100218-19:21:59|10=232|
8=FIX.4.2|9=180|35=G|34=788|49=NSTBOV|50=LB|52=20100218-19:22:05|56=LNKBOV|57=T1|1=204527|11=LAA0079|21=1|37=07M19491|38=1500|40=2|41=LAA0078|44=2.97000000|47=A|54=1|55=MRSL4|60=20100218-19:22:05|10=221|
8=FIX.4.2|9=180|35=G|34=789|49=NSTBOV|50=LB|52=20100218-19:22:06|56=LNKBOV|57=T1|1=204527|11=LAA0080|21=1|37=07M19495|38=1500|40=2|41=LAA0079|44=2.98000000|47=A|54=1|55=MRSL4|60=20100218-19:22:06|10=222|
8=FIX.4.2|9=180|35=G|34=790|49=NSTBOV|50=LB|52=20100218-19:22:07|56=LNKBOV|57=T1|1=204527|11=LAA0081|21=1|37=07M19497|38=1500|40=2|41=LAA0080|44=2.99000000|47=A|54=1|55=MRSL4|60=20100218-19:22:07|10=212|
8=FIX.4.2|9=180|35=G|34=791|49=NSTBOV|50=LB|52=20100218-19:22:08|56=LNKBOV|57=T1|1=204527|11=LAA0082|21=1|37=07M19498|38=1500|40=2|41=LAA0081|44=3.00000000|47=A|54=1|55=MRSL4|60=20100218-19:22:08|10=201|
8=FIX.4.2|9=180|35=G|34=792|49=NSTBOV|50=LB|52=20100218-19:22:13|56=LNKBOV|57=T1|1=204527|11=LAA0083|21=1|37=07M19499|38=1500|40=2|41=LAA0082|44=3.01000000|47=A|54=1|55=MRSL4|60=20100218-19:22:13|10=198|
8=FIX.4.2|9=180|35=G|34=793|49=NSTBOV|50=LB|52=20100218-19:22:14|56=LNKBOV|57=T1|1=204527|11=LAA0084|21=1|37=07M19500|38=1500|40=2|41=LAA0083|44=3.02000000|47=A|54=1|55=MRSL4|60=20100218-19:22:14|10=187|
8=FIX.4.2|9=180|35=G|34=794|49=NSTBOV|50=LB|52=20100218-19:22:16|56=LNKBOV|57=T1|1=204527|11=LAA0085|21=1|37=07M19501|38=1500|40=2|41=LAA0084|44=3.07000000|47=A|54=1|55=MRSL4|60=20100218-19:22:16|10=200|
8=FIX.4.2|9=179|35=G|34=795|49=NSTBOV|50=LB|52=20100218-19:22:39|56=LNKBOV|57=T1|1=204527|11=LAA0086|21=1|37=07N16496|38=400|40=2|41=LAA0065|44=1.85000000|47=A|54=2|55=PTBL3|60=20100218-19:22:39|10=172|
8=FIX.4.2|9=179|35=G|34=796|49=NSTBOV|50=LB|52=20100218-19:22:40|56=LNKBOV|57=T1|1=204527|11=LAA0087|21=1|37=07M19508|38=400|40=2|41=LAA0086|44=1.84000000|47=A|54=2|55=PTBL3|60=20100218-19:22:40|10=156|
8=FIX.4.2|9=179|35=G|34=797|49=NSTBOV|50=LB|52=20100218-19:22:40|56=LNKBOV|57=T1|1=204527|11=LAA0088|21=1|37=07M19509|38=400|40=2|41=LAA0087|44=1.83000000|47=A|54=2|55=PTBL3|60=20100218-19:22:40|10=159|
8=FIX.4.2|9=156|35=D|34=798|49=NSTBOV|50=LB|52=20100218-19:22:46|56=LNKBOV|57=T1|1=204527|11=LAA0089|21=1|38=300|40=2|44=1.82000000|47=A|54=1|55=PTBL3|60=20100218-19:22:46|10=254|
8=FIX.4.2|9=179|35=G|34=799|49=NSTBOV|50=LB|52=20100218-19:22:51|56=LNKBOV|57=T1|1=204527|11=LAA0090|21=1|37=07M19510|38=400|40=2|41=LAA0088|44=1.84000000|47=A|54=2|55=PTBL3|60=20100218-19:22:51|10=152|
8=FIX.4.2|9=179|35=G|34=800|49=NSTBOV|50=LB|52=20100218-19:22:52|56=LNKBOV|57=T1|1=204527|11=LAA0091|21=1|37=07M19518|38=400|40=2|41=LAA0090|44=1.85000000|47=A|54=2|55=PTBL3|60=20100218-19:22:52|10=140|
8=FIX.4.2|9=179|35=G|34=801|49=NSTBOV|50=LB|52=20100218-19:22:55|56=LNKBOV|57=T1|1=204527|11=LAA0092|21=1|37=07M19520|38=400|40=2|41=LAA0091|44=1.86000000|47=A|54=2|55=PTBL3|60=20100218-19:22:55|10=143|
8=FIX.4.2|9=156|35=D|34=803|49=NSTBOV|50=LB|52=20100218-19:23:57|56=LNKBOV|57=T1|1=204527|11=LAA0093|21=1|38=100|40=2|44=1.84000000|47=A|54=1|55=PTBL3|60=20100218-19:23:57|10=242|
8=FIX.4.2|9=138|35=F|34=804|49=NSTBOV|50=LB|52=20100218-19:24:10|56=LNKBOV|57=T1|1=204527|11=LAA0094|38=400|41=LAA0092|54=2|55=PTBL3|60=20100218-19:24:10|10=001|
8=FIX.4.2|9=156|35=D|34=805|49=NSTBOV|50=LB|52=20100218-19:24:24|56=LNKBOV|57=T1|1=204527|11=LAA0095|21=1|38=100|40=2|44=1.85000000|47=A|54=1|55=PTBL3|60=20100218-19:24:24|10=237|
8=FIX.4.2|9=156|35=D|34=806|49=NSTBOV|50=LB|52=20100218-19:24:32|56=LNKBOV|57=T1|1=204527|11=LAA0096|21=1|38=100|40=2|44=1.85000000|47=A|54=1|55=PTBL3|60=20100218-19:24:32|10=237|
8=FIX.4.2|9=157|35=D|34=818|49=NSTBOV|50=LB|52=20100218-19:34:11|56=LNKBOV|57=T1|1=204527|11=LAA0097|21=1|38=500|40=2|44=47.10000000|47=A|54=1|55=MDIA3|60=20100218-19:34:11|10=009|
8=FIX.4.2|9=180|35=G|34=824|49=NSTBOV|50=LB|52=20100218-19:38:47|56=LNKBOV|57=T1|1=204527|11=LAA0098|21=1|37=07N20350|38=500|40=2|41=LAA0097|44=47.15000000|47=A|54=1|55=MDIA3|60=20100218-19:38:47|10=189|
8=FIX.4.2|9=180|35=G|34=833|49=NSTBOV|50=LB|52=20100218-19:46:00|56=LNKBOV|57=T1|1=204527|11=LAA0099|21=1|37=07M20913|38=500|40=2|41=LAA0098|44=47.20000000|47=A|54=1|55=MDIA3|60=20100218-19:46:00|10=167|
8=FIX.4.2|9=156|35=D|34=842|49=NSTBOV|50=LB|52=20100218-19:53:33|56=LNKBOV|57=T1|1=204527|11=LAA0100|21=1|38=600|40=2|44=1.86000000|47=A|54=1|55=PTBL3|60=20100218-19:53:33|10=235|
8=FIX.4.2|9=179|35=G|34=843|49=NSTBOV|50=LB|52=20100218-19:53:40|56=LNKBOV|57=T1|1=204527|11=LAA0101|21=1|37=07N22099|38=600|40=2|41=LAA0100|44=1.85000000|47=A|54=1|55=PTBL3|60=20100218-19:53:40|10=133|
8=FIX.4.2|9=180|35=G|34=846|49=NSTBOV|50=LB|52=20100218-19:55:39|56=LNKBOV|57=T1|1=204527|11=LAA0102|21=1|37=07M21615|38=500|40=2|41=LAA0099|44=50.00000000|47=A|54=1|55=MDIA3|60=20100218-19:55:39|10=173|
8=FIX.4.2|9=157|35=D|34=851|49=NSTBOV|50=LB|52=20100218-19:59:48|56=LNKBOV|57=T1|1=204527|11=LAA0103|21=1|38=500|40=2|44=47.60000000|47=A|54=1|55=MDIA3|60=20100218-19:59:48|10=033|
