8=FIX.4.1|9=71|35=A|34=1|49=QUANTTEST|52=20100821-22:28:20|56=NESTFIXTEST|98=0|108=60|10=088|8=FIX.4.1|9=71|35=A|34=2|49=QUANTTEST|52=20100821-22:28:21|56=NESTFIXTEST|98=0|108=60|10=090|