8=FIX.4.2|9=65|35=A|34=1|49=QUANT|52=20100310-17:21:11.492|56=NESTI|98=0|108=60|10=001|8=FIX.4.2|9=75|35=0|34=2|49=QUANT|52=20100310-17:21:11.664|56=NESTI|112=1268241660.497122|10=020|8=FIX.4.2|9=65|35=A|34=3|49=QUANT|52=20100310-17:22:45.303|56=NESTI|98=0|108=60|10=002|8=FIX.4.2|9=75|35=0|34=4|49=QUANT|52=20100310-17:22:45.506|56=NESTI|112=1268241754.306159|10=028|8=FIX.4.2|9=53|35=0|34=5|49=QUANT|52=20100310-17:23:45.317|56=NESTI|10=218|8=FIX.4.2|9=53|35=0|34=6|49=QUANT|52=20100310-17:24:45.347|56=NESTI|10=223|8=FIX.4.2|9=65|35=A|34=7|49=QUANT|52=20100310-17:26:12.221|56=NESTI|98=0|108=60|10=003|8=FIX.4.2|9=75|35=0|34=8|49=QUANT|52=20100310-17:26:12.408|56=NESTI|112=1268241961.213520|10=020|