8=FIX.4.2|9=77|35=A|34=1|49=NESTFLEX_HML|52=20100408-22:47:36.030|56=AGNEST_HML|98=0|108=60|10=170|8=FIX.4.2|9=136|35=D|34=2|49=NESTFLEX_HML|52=20100408-22:47:36.140|56=AGNEST_HML|11=IAA0003|21=1|38=1|40=1|54=1|55=PETR4.SA|60=20100408-19:47:36|9304=N|10=140|8=FIX.4.2|9=77|35=A|34=3|49=NESTFLEX_HML|52=20100408-22:47:36.530|56=AGNEST_HML|98=0|108=60|10=177|8=FIX.4.2|9=77|35=A|34=4|49=NESTFLEX_HML|52=20100408-22:49:44.059|56=AGNEST_HML|98=0|108=60|10=185|8=FIX.4.2|9=136|35=D|34=5|49=NESTFLEX_HML|52=20100408-22:49:44.169|56=AGNEST_HML|11=IAA0004|21=1|38=1|40=1|54=1|55=PETR4.SA|60=20100408-19:49:44|9304=N|10=157|8=FIX.4.2|9=77|35=A|34=6|49=NESTFLEX_HML|52=20100408-22:49:53.168|56=AGNEST_HML|98=0|108=60|10=188|8=FIX.4.2|9=77|35=A|34=7|49=NESTFLEX_HML|52=20100408-22:50:52.589|56=AGNEST_HML|98=0|108=60|10=187|8=FIX.4.2|9=77|35=A|34=8|49=NESTFLEX_HML|52=20100408-22:50:53.573|56=AGNEST_HML|98=0|108=60|10=182|8=FIX.4.2|9=77|35=A|34=9|49=NESTFLEX_HML|52=20100408-22:51:23.573|56=AGNEST_HML|98=0|108=60|10=181|8=FIX.4.2|9=78|35=A|34=10|49=NESTFLEX_HML|52=20100408-22:51:53.604|56=AGNEST_HML|98=0|108=60|10=220|8=FIX.4.2|9=78|35=A|34=11|49=NESTFLEX_HML|52=20100408-22:52:23.619|56=AGNEST_HML|98=0|108=60|10=225|8=FIX.4.2|9=78|35=A|34=12|49=NESTFLEX_HML|52=20100408-22:52:53.649|56=AGNEST_HML|98=0|108=60|10=232|