8=FIX.4.1|9=73|35=A|34=1|49=NESTFLEX_HML|52=20100408-22:58:16|56=AGNEST_HML|98=0|108=60|10=228|8=FIX.4.1|9=73|35=A|34=2|49=NESTFLEX_HML|52=20100408-22:58:17|56=AGNEST_HML|98=0|108=60|10=230|