8=FIX.4.2|9=69|35=A|34=1|49=TESTINI|52=20100302-14:18:07.386|56=TESTACC|98=0|108=60|10=043|8=FIX.4.2|9=126|35=D|34=2|49=TESTINI|52=20100302-14:18:07.480|56=TESTACC|11=QUANT0001|21=1|38=1|40=1|50=UA|54=1|55=PETR4|60=20100302-11:18:07|10=200|8=FIX.4.2|9=57|35=5|34=3|49=TESTINI|52=20100302-14:18:33.058|56=TESTACC|10=253|8=FIX.4.2|9=69|35=A|34=4|49=TESTINI|52=20100302-14:18:58.714|56=TESTACC|98=0|108=60|10=047|8=FIX.4.2|9=126|35=D|34=5|49=TESTINI|52=20100302-14:19:34.932|56=TESTACC|11=QUANT0001|21=1|38=1|40=1|50=UA|54=1|55=PETR4|60=20100302-11:19:17|10=208|8=FIX.4.2|9=66|35=1|34=6|49=TESTINI|52=20100302-14:20:18.573|56=TESTACC|112=TEST|10=012|8=FIX.4.2|9=66|35=0|34=7|49=TESTINI|52=20100302-14:20:18.573|56=TESTACC|112=TEST|10=012|8=FIX.4.2|9=57|35=5|34=8|49=TESTINI|52=20100302-14:20:25.573|56=TESTACC|10=254|