8=FIX.4.2|9=67|35=A|34=1|49=ALPHA|52=20120413-16:04:47.757|56=BOVESPA|98=0|108=30|10=125|
8=FIX.4.2|9=67|35=A|34=1|49=BOVESPA|52=20120413-16:04:47.787|56=ALPHA|98=0|108=30|10=128|
8=FIX.4.2|9=143|35=D|34=2|49=ALPHA|52=20120413-16:05:16.512|56=BOVESPA|1=0001234|11=001|21=1|38=3200|40=2|44=21.32|54=2|55=PETR3|59=0|60=20120413-19:05:16.508|10=205|
8=FIX.4.2|9=225|35=8|34=2|49=BOVESPA|52=20120413-16:05:16.547|56=ALPHA|1=0001234|6=0|11=001|14=0|17=NBOV1|20=0|37=EXCH12012-04-13 00:00:00.000-0300|38=3200|39=0|44=21.32|54=2|55=PETR3|59=0|60=20120413-16:05:16.543|75=20120413|150=0|151=3200|10=108|
8=FIX.4.2|9=143|35=D|34=3|49=ALPHA|52=20120413-16:05:25.563|56=BOVESPA|1=0001234|11=002|21=1|38=3200|40=2|44=21.32|54=2|55=PETR3|59=0|60=20120413-19:05:25.562|10=213|
8=FIX.4.2|9=225|35=8|34=3|49=BOVESPA|52=20120413-16:05:25.565|56=ALPHA|1=0001234|6=0|11=002|14=0|17=NBOV2|20=0|37=EXCH22012-04-13 00:00:00.000-0300|38=3200|39=0|44=21.32|54=2|55=PETR3|59=0|60=20120413-16:05:25.565|75=20120413|150=0|151=3200|10=116|
8=FIX.4.2|9=143|35=D|34=4|49=ALPHA|52=20120413-16:05:29.258|56=BOVESPA|1=0001234|11=003|21=1|38=3200|40=2|44=21.32|54=2|55=PETR3|59=0|60=20120413-19:05:29.257|10=225|
8=FIX.4.2|9=225|35=8|34=4|49=BOVESPA|52=20120413-16:05:29.261|56=ALPHA|1=0001234|6=0|11=003|14=0|17=NBOV3|20=0|37=EXCH32012-04-13 00:00:00.000-0300|38=3200|39=0|44=21.32|54=2|55=PETR3|59=0|60=20120413-16:05:29.260|75=20120413|150=0|151=3200|10=113|
8=FIX.4.2|9=143|35=D|34=5|49=ALPHA|52=20120413-16:05:32.778|56=BOVESPA|1=0001234|11=004|21=1|38=3200|40=2|44=21.32|54=2|55=PETR3|59=0|60=20120413-19:05:32.777|10=229|
8=FIX.4.2|9=225|35=8|34=5|49=BOVESPA|52=20120413-16:05:32.781|56=ALPHA|1=0001234|6=0|11=004|14=0|17=NBOV4|20=0|37=EXCH42012-04-13 00:00:00.000-0300|38=3200|39=0|44=21.32|54=2|55=PETR3|59=0|60=20120413-16:05:32.780|75=20120413|150=0|151=3200|10=119|
8=FIX.4.2|9=143|35=D|34=6|49=ALPHA|52=20120413-16:05:36.370|56=BOVESPA|1=0001234|11=005|21=1|38=3200|40=2|44=21.32|54=2|55=PETR3|59=0|60=20120413-19:05:36.369|10=224|
8=FIX.4.2|9=225|35=8|34=6|49=BOVESPA|52=20120413-16:05:36.372|56=ALPHA|1=0001234|6=0|11=005|14=0|17=NBOV5|20=0|37=EXCH52012-04-13 00:00:00.000-0300|38=3200|39=0|44=21.32|54=2|55=PETR3|59=0|60=20120413-16:05:36.372|75=20120413|150=0|151=3200|10=124|
8=FIX.4.2|9=55|35=5|34=7|49=ALPHA|52=20120413-16:05:56.739|56=BOVESPA|10=092|
8=FIX.4.2|9=55|35=5|34=7|49=BOVESPA|52=20120413-16:05:56.741|56=ALPHA|10=085|
8=FIX.4.2|9=67|35=A|34=8|49=ALPHA|52=20120413-16:06:11.738|56=BOVESPA|98=0|108=30|10=124|
8=FIX.4.2|9=67|35=A|34=8|49=BOVESPA|52=20120413-16:06:11.741|56=ALPHA|98=0|108=30|10=118|
8=FIX.4.2|9=55|35=5|34=9|49=ALPHA|52=20120413-16:06:41.437|56=BOVESPA|10=084|
8=FIX.4.2|9=67|35=A|34=1|49=ALPHA|52=20120413-16:06:42.736|56=BOVESPA|98=0|108=30|10=119|
8=FIX.4.2|9=106|35=5|34=10|49=BOVESPA|52=20120413-16:06:42.738|56=ALPHA|58=MsgSeqNum too low, expecting 10 but received 1|10=116|
8=FIX.4.2|9=55|35=5|34=2|49=ALPHA|52=20120413-16:06:42.740|56=BOVESPA|10=075|
8=FIX.4.2|9=67|35=A|34=3|49=ALPHA|52=20120413-16:07:12.734|56=BOVESPA|98=0|108=30|10=117|
8=FIX.4.2|9=106|35=5|34=11|49=BOVESPA|52=20120413-16:07:12.736|56=ALPHA|58=MsgSeqNum too low, expecting 10 but received 3|10=115|
8=FIX.4.2|9=67|35=A|34=4|49=ALPHA|52=20120413-16:07:42.733|56=BOVESPA|98=0|108=30|10=120|
8=FIX.4.2|9=106|35=5|34=12|49=BOVESPA|52=20120413-16:07:42.735|56=ALPHA|58=MsgSeqNum too low, expecting 10 but received 4|10=119|
8=FIX.4.2|9=55|35=5|34=5|49=ALPHA|52=20120413-16:07:42.737|56=BOVESPA|10=085|
8=FIX.4.2|9=67|35=A|34=6|49=ALPHA|52=20120413-16:08:12.731|56=BOVESPA|98=0|108=30|10=118|
8=FIX.4.2|9=106|35=5|34=13|49=BOVESPA|52=20120413-16:08:12.733|56=ALPHA|58=MsgSeqNum too low, expecting 10 but received 6|10=118|
8=FIX.4.2|9=67|35=A|34=7|49=ALPHA|52=20120413-17:56:06.061|56=BOVESPA|98=0|108=30|10=122|
8=FIX.4.2|9=106|35=5|34=14|49=BOVESPA|52=20120413-17:56:06.092|56=ALPHA|58=MsgSeqNum too low, expecting 10 but received 7|10=125|
8=FIX.4.2|9=67|35=A|34=1|49=ALPHA|52=20120413-17:57:23.857|56=BOVESPA|98=0|108=30|10=129|
8=FIX.4.2|9=67|35=A|34=1|49=BOVESPA|52=20120413-17:57:23.886|56=ALPHA|98=0|108=30|10=131|
8=FIX.4.2|9=141|35=D|34=2|49=ALPHA|52=20120413-17:57:38.151|56=BOVESPA|1=012345|11=00001|21=1|38=1000|40=2|44=25|54=1|55=PETR4|59=0|60=20120413-20:57:38.148|10=123|
8=FIX.4.2|9=142|35=D|34=3|49=ALPHA|52=20120413-17:57:38.171|56=BOVESPA|1=ABCDE|11=00002|21=1|38=500|40=2|44=34.23|54=2|55=VALE5|59=0|60=20120413-20:57:38.171|10=242|
8=FIX.4.2|9=127|35=F|34=4|49=ALPHA|52=20120413-17:57:38.172|56=BOVESPA|1=ABCDE|11=00003|38=500|41=00002|54=2|55=VALE5|60=20120413-20:57:38.171|10=109|
8=FIX.4.2|9=143|35=D|34=5|49=ALPHA|52=20120413-17:57:38.173|56=BOVESPA|1=012345|11=00004|21=1|38=100|40=2|44=21.34|54=1|55=PETR3|59=0|60=20120413-20:57:38.172|10=228|
8=FIX.4.2|9=143|35=D|34=6|49=ALPHA|52=20120413-17:57:38.174|56=BOVESPA|1=012346|11=00005|21=1|38=300|40=2|44=32.12|54=2|55=PDGR3|59=0|60=20120413-20:57:38.173|10=220|
8=FIX.4.2|9=152|35=G|34=7|49=ALPHA|52=20120413-17:57:38.175|56=BOVESPA|1=012347|11=00006|21=1|38=500|40=2|41=00005|44=32.12|54=2|55=PDGR3|59=0|60=20120413-20:57:38.174|10=126|
8=FIX.4.2|9=152|35=G|34=8|49=ALPHA|52=20120413-17:57:38.175|56=BOVESPA|1=012348|11=00007|21=1|38=500|40=2|41=00006|44=32.15|54=2|55=PDGR3|59=0|60=20120413-20:57:38.175|10=134|
8=FIX.4.2|9=143|35=D|34=9|49=ALPHA|52=20120413-17:57:38.176|56=BOVESPA|1=012349|11=00008|21=1|38=100|40=2|44=12.33|54=1|55=RSID3|59=0|60=20120413-20:57:38.176|10=237|
8=FIX.4.2|9=144|35=D|34=10|49=ALPHA|52=20120413-17:57:38.177|56=BOVESPA|1=012350|11=00009|21=1|38=4500|40=2|44=12.4|54=2|55=RSID3|59=0|60=20120413-20:57:38.176|10=023|
8=FIX.4.2|9=145|35=D|34=11|49=ALPHA|52=20120413-17:57:38.178|56=BOVESPA|1=012351|11=00010|21=1|38=1100|40=2|44=23.45|54=1|55=BBDC4|59=0|60=20120413-20:57:38.177|10=029|
8=FIX.4.2|9=223|35=8|34=2|49=BOVESPA|52=20120413-17:57:38.186|56=ALPHA|1=012345|6=0|11=00001|14=0|17=NBOV1|20=0|37=EXCH12012-04-13 00:00:00.000-0300|38=1000|39=0|44=25|54=1|55=PETR4|59=0|60=20120413-17:57:38.182|75=20120413|150=0|151=1000|10=030|
8=FIX.4.2|9=223|35=8|34=3|49=BOVESPA|52=20120413-17:57:38.187|56=ALPHA|1=ABCDE|6=0|11=00002|14=0|17=NBOV2|20=0|37=EXCH22012-04-13 00:00:00.000-0300|38=500|39=0|44=34.23|54=2|55=VALE5|59=0|60=20120413-17:57:38.185|75=20120413|150=0|151=500|10=112|
8=FIX.4.2|9=209|35=8|34=4|49=BOVESPA|52=20120413-17:57:38.188|56=ALPHA|1=ABCDE|6=0|11=00002|14=0|17=CBOV1|20=1|37=EXCH32012-04-13 00:00:00.000-0300|38=500|39=4|54=2|55=VALE5|60=20120413-17:57:38.185|75=20120413|150=4|151=500|10=248|
8=FIX.4.2|9=224|35=8|34=5|49=BOVESPA|52=20120413-17:57:38.189|56=ALPHA|1=012345|6=0|11=00004|14=0|17=NBOV3|20=0|37=EXCH42012-04-13 00:00:00.000-0300|38=100|39=0|44=21.34|54=1|55=PETR3|59=0|60=20120413-17:57:38.185|75=20120413|150=0|151=100|10=096|
8=FIX.4.2|9=224|35=8|34=6|49=BOVESPA|52=20120413-17:57:38.189|56=ALPHA|1=012346|6=0|11=00005|14=0|17=NBOV4|20=0|37=EXCH52012-04-13 00:00:00.000-0300|38=300|39=0|44=32.12|54=2|55=PDGR3|59=0|60=20120413-17:57:38.186|75=20120413|150=0|151=300|10=091|
8=FIX.4.2|9=233|35=8|34=7|49=BOVESPA|52=20120413-17:57:38.190|56=ALPHA|1=012347|6=0|11=00006|14=0|17=RBOV1|20=0|37=EXCH62012-04-13 00:00:00.000-0300|38=500|39=0|41=00006|44=32.12|54=2|55=PDGR3|59=0|60=20120413-17:57:38.186|75=20120413|150=5|151=500|10=250|
8=FIX.4.2|9=233|35=8|34=8|49=BOVESPA|52=20120413-17:57:38.190|56=ALPHA|1=012348|6=0|11=00007|14=0|17=RBOV2|20=0|37=EXCH72012-04-13 00:00:00.000-0300|38=500|39=0|41=00007|44=32.15|54=2|55=PDGR3|59=0|60=20120413-17:57:38.186|75=20120413|150=5|151=500|10=003|
8=FIX.4.2|9=224|35=8|34=9|49=BOVESPA|52=20120413-17:57:38.191|56=ALPHA|1=012349|6=0|11=00008|14=0|17=NBOV5|20=0|37=EXCH82012-04-13 00:00:00.000-0300|38=100|39=0|44=12.33|54=1|55=RSID3|59=0|60=20120413-17:57:38.187|75=20120413|150=0|151=100|10=099|
8=FIX.4.2|9=226|35=8|34=10|49=BOVESPA|52=20120413-17:57:38.192|56=ALPHA|1=012350|6=0|11=00009|14=0|17=NBOV6|20=0|37=EXCH92012-04-13 00:00:00.000-0300|38=4500|39=0|44=12.4|54=2|55=RSID3|59=0|60=20120413-17:57:38.187|75=20120413|150=0|151=4500|10=200|
8=FIX.4.2|9=228|35=8|34=11|49=BOVESPA|52=20120413-17:57:38.193|56=ALPHA|1=012351|6=0|11=00010|14=0|17=NBOV7|20=0|37=EXCH102012-04-13 00:00:00.000-0300|38=1100|39=0|44=23.45|54=1|55=BBDC4|59=0|60=20120413-17:57:38.187|75=20120413|150=0|151=1100|10=240|
8=FIX.4.2|9=56|35=0|34=12|49=ALPHA|52=20120413-17:58:08.842|56=BOVESPA|10=133|
8=FIX.4.2|9=56|35=0|34=12|49=BOVESPA|52=20120413-17:58:08.844|56=ALPHA|10=135|
8=FIX.4.2|9=56|35=0|34=13|49=BOVESPA|52=20120413-17:58:38.942|56=ALPHA|10=138|
8=FIX.4.2|9=56|35=0|34=13|49=ALPHA|52=20120413-17:58:38.944|56=BOVESPA|10=140|
8=FIX.4.2|9=56|35=0|34=14|49=ALPHA|52=20120413-17:59:09.838|56=BOVESPA|10=142|
8=FIX.4.2|9=56|35=0|34=14|49=BOVESPA|52=20120413-17:59:09.839|56=ALPHA|10=143|
8=FIX.4.2|9=56|35=0|34=15|49=BOVESPA|52=20120413-17:59:39.939|56=ALPHA|10=148|
8=FIX.4.2|9=56|35=0|34=15|49=ALPHA|52=20120413-17:59:39.941|56=BOVESPA|10=141|
8=FIX.4.2|9=56|35=5|34=16|49=ALPHA|52=20120413-18:00:07.835|56=BOVESPA|10=131|
8=FIX.4.2|9=56|35=5|34=16|49=BOVESPA|52=20120413-18:00:07.837|56=ALPHA|10=133|
8=FIX.4.2|9=68|35=A|34=17|49=ALPHA|52=20120413-18:03:31.637|56=BOVESPA|98=0|108=30|10=172|
8=FIX.4.2|9=68|35=A|34=17|49=BOVESPA|52=20120413-18:03:31.669|56=ALPHA|98=0|108=30|10=177|
8=FIX.4.2|9=142|35=D|34=18|49=ALPHA|52=20120413-18:03:48.764|56=BOVESPA|1=012345|11=00001|21=1|38=1000|40=2|44=25|54=1|55=PETR4|59=0|60=20120413-21:03:48.760|10=175|
8=FIX.4.2|9=143|35=D|34=19|49=ALPHA|52=20120413-18:03:48.767|56=BOVESPA|1=ABCDE|11=00002|21=1|38=500|40=2|44=34.23|54=2|55=VALE5|59=0|60=20120413-21:03:48.764|10=047|
8=FIX.4.2|9=128|35=F|34=20|49=ALPHA|52=20120413-18:03:48.768|56=BOVESPA|1=ABCDE|11=00003|38=500|41=00002|54=2|55=VALE5|60=20120413-21:03:48.765|10=162|
8=FIX.4.2|9=144|35=D|34=21|49=ALPHA|52=20120413-18:03:48.769|56=BOVESPA|1=012345|11=00004|21=1|38=100|40=2|44=21.34|54=1|55=PETR3|59=0|60=20120413-21:03:48.765|10=024|
8=FIX.4.2|9=144|35=D|34=22|49=ALPHA|52=20120413-18:03:48.770|56=BOVESPA|1=012346|11=00005|21=1|38=300|40=2|44=32.12|54=2|55=PDGR3|59=0|60=20120413-21:03:48.766|10=007|
8=FIX.4.2|9=153|35=G|34=23|49=ALPHA|52=20120413-18:03:48.771|56=BOVESPA|1=012347|11=00006|21=1|38=500|40=2|41=00005|44=32.12|54=2|55=PDGR3|59=0|60=20120413-21:03:48.767|10=169|
8=FIX.4.2|9=153|35=G|34=24|49=ALPHA|52=20120413-18:03:48.772|56=BOVESPA|1=012348|11=00007|21=1|38=500|40=2|41=00006|44=32.15|54=2|55=PDGR3|59=0|60=20120413-21:03:48.768|10=178|
8=FIX.4.2|9=144|35=D|34=25|49=ALPHA|52=20120413-18:03:48.772|56=BOVESPA|1=012349|11=00008|21=1|38=100|40=2|44=12.33|54=1|55=RSID3|59=0|60=20120413-21:03:48.768|10=023|
8=FIX.4.2|9=144|35=D|34=26|49=ALPHA|52=20120413-18:03:48.774|56=BOVESPA|1=012350|11=00009|21=1|38=4500|40=2|44=12.4|54=2|55=RSID3|59=0|60=20120413-21:03:48.769|10=027|
8=FIX.4.2|9=145|35=D|34=27|49=ALPHA|52=20120413-18:03:48.775|56=BOVESPA|1=012351|11=00010|21=1|38=1100|40=2|44=23.45|54=1|55=BBDC4|59=0|60=20120413-21:03:48.769|10=032|
8=FIX.4.2|9=142|35=D|34=28|49=ALPHA|52=20120413-18:03:48.775|56=BOVESPA|1=012345|11=00011|21=1|38=1000|40=2|44=25|54=1|55=PETR4|59=0|60=20120413-21:03:48.770|10=180|
8=FIX.4.2|9=143|35=D|34=29|49=ALPHA|52=20120413-18:03:48.776|56=BOVESPA|1=ABCDE|11=00012|21=1|38=500|40=2|44=34.23|54=2|55=VALE5|59=0|60=20120413-21:03:48.770|10=046|
8=FIX.4.2|9=143|35=D|34=30|49=ALPHA|52=20120413-18:03:48.777|56=BOVESPA|1=ABCDE|11=00013|21=1|38=500|40=2|44=34.23|54=2|55=VALE5|59=0|60=20120413-21:03:48.771|10=041|
8=FIX.4.2|9=144|35=D|34=31|49=ALPHA|52=20120413-18:03:48.777|56=BOVESPA|1=012345|11=00014|21=1|38=100|40=2|44=21.34|54=1|55=PETR3|59=0|60=20120413-21:03:48.772|10=023|
8=FIX.4.2|9=144|35=D|34=32|49=ALPHA|52=20120413-18:03:48.778|56=BOVESPA|1=012346|11=00015|21=1|38=300|40=2|44=32.12|54=2|55=PDGR3|59=0|60=20120413-21:03:48.773|10=015|
8=FIX.4.2|9=144|35=D|34=33|49=ALPHA|52=20120413-18:03:48.779|56=BOVESPA|1=012347|11=00016|21=1|38=500|40=2|44=32.12|54=2|55=PDGR3|59=0|60=20120413-21:03:48.773|10=021|
8=FIX.4.2|9=144|35=D|34=34|49=ALPHA|52=20120413-18:03:48.779|56=BOVESPA|1=012348|11=00017|21=1|38=500|40=2|44=32.15|54=2|55=PDGR3|59=0|60=20120413-21:03:48.773|10=027|
8=FIX.4.2|9=144|35=D|34=35|49=ALPHA|52=20120413-18:03:48.780|56=BOVESPA|1=012349|11=00018|21=1|38=100|40=2|44=12.33|54=1|55=RSID3|59=0|60=20120413-21:03:48.774|10=021|
8=FIX.4.2|9=144|35=D|34=36|49=ALPHA|52=20120413-18:03:48.780|56=BOVESPA|1=012350|11=00019|21=1|38=4500|40=2|44=12.4|54=2|55=RSID3|59=0|60=20120413-21:03:48.775|10=023|
8=FIX.4.2|9=145|35=D|34=37|49=ALPHA|52=20120413-18:03:48.786|56=BOVESPA|1=012351|11=00020|21=1|38=1100|40=2|44=23.45|54=1|55=BBDC4|59=0|60=20120413-21:03:48.775|10=033|
8=FIX.4.2|9=224|35=8|34=18|49=BOVESPA|52=20120413-18:03:48.811|56=ALPHA|1=012345|6=0|11=00001|14=0|17=NBOV1|20=0|37=EXCH12012-04-13 00:00:00.000-0300|38=1000|39=0|44=25|54=1|55=PETR4|59=0|60=20120413-18:03:48.804|75=20120413|150=0|151=1000|10=068|
8=FIX.4.2|9=224|35=8|34=19|49=BOVESPA|52=20120413-18:03:48.812|56=ALPHA|1=ABCDE|6=0|11=00002|14=0|17=NBOV2|20=0|37=EXCH22012-04-13 00:00:00.000-0300|38=500|39=0|44=34.23|54=2|55=VALE5|59=0|60=20120413-18:03:48.808|75=20120413|150=0|151=500|10=151|
8=FIX.4.2|9=210|35=8|34=20|49=BOVESPA|52=20120413-18:03:48.813|56=ALPHA|1=ABCDE|6=0|11=00002|14=0|17=CBOV1|20=1|37=EXCH32012-04-13 00:00:00.000-0300|38=500|39=4|54=2|55=VALE5|60=20120413-18:03:48.810|75=20120413|150=4|151=500|10=006|
8=FIX.4.2|9=225|35=8|34=21|49=BOVESPA|52=20120413-18:03:48.815|56=ALPHA|1=012345|6=0|11=00004|14=0|17=NBOV3|20=0|37=EXCH42012-04-13 00:00:00.000-0300|38=100|39=0|44=21.34|54=1|55=PETR3|59=0|60=20120413-18:03:48.814|75=20120413|150=0|151=100|10=124|
8=FIX.4.2|9=225|35=8|34=22|49=BOVESPA|52=20120413-18:03:48.818|56=ALPHA|1=012346|6=0|11=00005|14=0|17=NBOV4|20=0|37=EXCH52012-04-13 00:00:00.000-0300|38=300|39=0|44=32.12|54=2|55=PDGR3|59=0|60=20120413-18:03:48.816|75=20120413|150=0|151=300|10=123|
8=FIX.4.2|9=234|35=8|34=23|49=BOVESPA|52=20120413-18:03:48.819|56=ALPHA|1=012347|6=0|11=00006|14=0|17=RBOV1|20=0|37=EXCH62012-04-13 00:00:00.000-0300|38=500|39=0|41=00006|44=32.12|54=2|55=PDGR3|59=0|60=20120413-18:03:48.816|75=20120413|150=5|151=500|10=035|
8=FIX.4.2|9=234|35=8|34=24|49=BOVESPA|52=20120413-18:03:48.821|56=ALPHA|1=012348|6=0|11=00007|14=0|17=RBOV2|20=0|37=EXCH72012-04-13 00:00:00.000-0300|38=500|39=0|41=00007|44=32.15|54=2|55=PDGR3|59=0|60=20120413-18:03:48.820|75=20120413|150=5|151=500|10=032|
8=FIX.4.2|9=225|35=8|34=25|49=BOVESPA|52=20120413-18:03:48.823|56=ALPHA|1=012349|6=0|11=00008|14=0|17=NBOV5|20=0|37=EXCH82012-04-13 00:00:00.000-0300|38=100|39=0|44=12.33|54=1|55=RSID3|59=0|60=20120413-18:03:48.820|75=20120413|150=0|151=100|10=128|
8=FIX.4.2|9=226|35=8|34=26|49=BOVESPA|52=20120413-18:03:48.824|56=ALPHA|1=012350|6=0|11=00009|14=0|17=NBOV6|20=0|37=EXCH92012-04-13 00:00:00.000-0300|38=4500|39=0|44=12.4|54=2|55=RSID3|59=0|60=20120413-18:03:48.821|75=20120413|150=0|151=4500|10=190|
8=FIX.4.2|9=228|35=8|34=27|49=BOVESPA|52=20120413-18:03:48.824|56=ALPHA|1=012351|6=0|11=00010|14=0|17=NBOV7|20=0|37=EXCH102012-04-13 00:00:00.000-0300|38=1100|39=0|44=23.45|54=1|55=BBDC4|59=0|60=20120413-18:03:48.822|75=20120413|150=0|151=1100|10=230|
8=FIX.4.2|9=225|35=8|34=28|49=BOVESPA|52=20120413-18:03:48.825|56=ALPHA|1=012345|6=0|11=00011|14=0|17=NBOV8|20=0|37=EXCH112012-04-13 00:00:00.000-0300|38=1000|39=0|44=25|54=1|55=PETR4|59=0|60=20120413-18:03:48.824|75=20120413|150=0|151=1000|10=134|
8=FIX.4.2|9=225|35=8|34=29|49=BOVESPA|52=20120413-18:03:48.826|56=ALPHA|1=ABCDE|6=0|11=00012|14=0|17=NBOV9|20=0|37=EXCH122012-04-13 00:00:00.000-0300|38=500|39=0|44=34.23|54=2|55=VALE5|59=0|60=20120413-18:03:48.824|75=20120413|150=0|151=500|10=213|
8=FIX.4.2|9=226|35=8|34=30|49=BOVESPA|52=20120413-18:03:48.827|56=ALPHA|1=ABCDE|6=0|11=00013|14=0|17=NBOV10|20=0|37=EXCH132012-04-13 00:00:00.000-0300|38=500|39=0|44=34.23|54=2|55=VALE5|59=0|60=20120413-18:03:48.824|75=20120413|150=0|151=500|10=249|
8=FIX.4.2|9=227|35=8|34=31|49=BOVESPA|52=20120413-18:03:48.829|56=ALPHA|1=012345|6=0|11=00014|14=0|17=NBOV11|20=0|37=EXCH142012-04-13 00:00:00.000-0300|38=100|39=0|44=21.34|54=1|55=PETR3|59=0|60=20120413-18:03:48.828|75=20120413|150=0|151=100|10=234|
8=FIX.4.2|9=227|35=8|34=32|49=BOVESPA|52=20120413-18:03:48.829|56=ALPHA|1=012346|6=0|11=00015|14=0|17=NBOV12|20=0|37=EXCH152012-04-13 00:00:00.000-0300|38=300|39=0|44=32.12|54=2|55=PDGR3|59=0|60=20120413-18:03:48.828|75=20120413|150=0|151=300|10=228|
8=FIX.4.2|9=227|35=8|34=33|49=BOVESPA|52=20120413-18:03:48.830|56=ALPHA|1=012347|6=0|11=00016|14=0|17=NBOV13|20=0|37=EXCH162012-04-13 00:00:00.000-0300|38=500|39=0|44=32.12|54=2|55=PDGR3|59=0|60=20120413-18:03:48.828|75=20120413|150=0|151=500|10=229|
8=FIX.4.2|9=227|35=8|34=34|49=BOVESPA|52=20120413-18:03:48.831|56=ALPHA|1=012348|6=0|11=00017|14=0|17=NBOV14|20=0|37=EXCH172012-04-13 00:00:00.000-0300|38=500|39=0|44=32.15|54=2|55=PDGR3|59=0|60=20120413-18:03:48.828|75=20120413|150=0|151=500|10=238|
8=FIX.4.2|9=227|35=8|34=35|49=BOVESPA|52=20120413-18:03:48.833|56=ALPHA|1=012349|6=0|11=00018|14=0|17=NBOV15|20=0|37=EXCH182012-04-13 00:00:00.000-0300|38=100|39=0|44=12.33|54=1|55=RSID3|59=0|60=20120413-18:03:48.828|75=20120413|150=0|151=100|10=239|
8=FIX.4.2|9=228|35=8|34=36|49=BOVESPA|52=20120413-18:03:48.834|56=ALPHA|1=012350|6=0|11=00019|14=0|17=NBOV16|20=0|37=EXCH192012-04-13 00:00:00.000-0300|38=4500|39=0|44=12.4|54=2|55=RSID3|59=0|60=20120413-18:03:48.829|75=20120413|150=0|151=4500|10=045|
8=FIX.4.2|9=229|35=8|34=37|49=BOVESPA|52=20120413-18:03:48.835|56=ALPHA|1=012351|6=0|11=00020|14=0|17=NBOV17|20=0|37=EXCH202012-04-13 00:00:00.000-0300|38=1100|39=0|44=23.45|54=1|55=BBDC4|59=0|60=20120413-18:03:48.829|75=20120413|150=0|151=1100|10=036|
8=FIX.4.2|9=56|35=0|34=38|49=BOVESPA|52=20120413-18:04:19.369|56=ALPHA|10=139|
8=FIX.4.2|9=56|35=0|34=38|49=ALPHA|52=20120413-18:04:19.370|56=BOVESPA|10=131|
8=FIX.4.2|9=56|35=0|34=39|49=ALPHA|52=20120413-18:04:49.618|56=BOVESPA|10=140|
8=FIX.4.2|9=56|35=0|34=39|49=BOVESPA|52=20120413-18:04:49.619|56=ALPHA|10=141|
8=FIX.4.2|9=56|35=0|34=40|49=BOVESPA|52=20120413-18:05:20.365|56=ALPHA|10=121|
8=FIX.4.2|9=56|35=0|34=40|49=ALPHA|52=20120413-18:05:20.366|56=BOVESPA|10=122|
8=FIX.4.2|9=56|35=0|34=41|49=ALPHA|52=20120413-18:05:50.614|56=BOVESPA|10=122|
8=FIX.4.2|9=56|35=0|34=41|49=BOVESPA|52=20120413-18:05:50.615|56=ALPHA|10=123|
8=FIX.4.2|9=56|35=0|34=42|49=BOVESPA|52=20120413-18:06:21.361|56=ALPHA|10=121|
8=FIX.4.2|9=56|35=0|34=42|49=ALPHA|52=20120413-18:06:21.363|56=BOVESPA|10=123|
8=FIX.4.2|9=56|35=0|34=43|49=ALPHA|52=20120413-18:06:51.610|56=BOVESPA|10=122|
8=FIX.4.2|9=56|35=0|34=43|49=BOVESPA|52=20120413-18:06:51.611|56=ALPHA|10=123|
8=FIX.4.2|9=56|35=0|34=44|49=BOVESPA|52=20120413-18:07:22.358|56=ALPHA|10=131|
8=FIX.4.2|9=56|35=0|34=44|49=ALPHA|52=20120413-18:07:22.360|56=BOVESPA|10=124|
8=FIX.4.2|9=56|35=0|34=45|49=ALPHA|52=20120413-18:07:52.607|56=BOVESPA|10=132|
8=FIX.4.2|9=56|35=0|34=45|49=BOVESPA|52=20120413-18:07:52.608|56=ALPHA|10=133|
8=FIX.4.2|9=56|35=5|34=46|49=ALPHA|52=20120413-18:08:14.606|56=BOVESPA|10=136|
8=FIX.4.2|9=56|35=5|34=46|49=BOVESPA|52=20120413-18:08:14.607|56=ALPHA|10=137|
8=FIX.4.2|9=68|35=A|34=47|49=ALPHA|52=20120413-18:20:18.011|56=BOVESPA|98=0|108=30|10=165|
8=FIX.4.2|9=68|35=A|34=47|49=BOVESPA|52=20120413-18:20:18.042|56=ALPHA|98=0|108=30|10=169|
8=FIX.4.2|9=142|35=D|34=48|49=ALPHA|52=20120413-18:20:44.317|56=BOVESPA|1=012345|11=00001|21=1|38=1000|40=2|44=25|54=1|55=PETR4|59=0|60=20120413-21:20:44.314|10=157|
8=FIX.4.2|9=143|35=D|34=49|49=ALPHA|52=20120413-18:20:44.324|56=BOVESPA|1=ABCDE|11=00002|21=1|38=500|40=2|44=34.23|54=2|55=VALE5|59=0|60=20120413-21:20:44.319|10=025|
8=FIX.4.2|9=128|35=F|34=50|49=ALPHA|52=20120413-18:20:44.325|56=BOVESPA|1=ABCDE|11=00003|38=500|41=00002|54=2|55=VALE5|60=20120413-21:20:44.319|10=139|
8=FIX.4.2|9=144|35=D|34=51|49=ALPHA|52=20120413-18:20:44.326|56=BOVESPA|1=012345|11=00004|21=1|38=100|40=2|44=21.34|54=1|55=PETR3|59=0|60=20120413-21:20:44.320|10=249|
8=FIX.4.2|9=144|35=D|34=52|49=ALPHA|52=20120413-18:20:44.326|56=BOVESPA|1=012346|11=00005|21=1|38=300|40=2|44=32.12|54=2|55=PDGR3|59=0|60=20120413-21:20:44.320|10=239|
8=FIX.4.2|9=153|35=G|34=53|49=ALPHA|52=20120413-18:20:44.327|56=BOVESPA|1=012347|11=00006|21=1|38=500|40=2|41=00005|44=32.12|54=2|55=PDGR3|59=0|60=20120413-21:20:44.321|10=145|
8=FIX.4.2|9=153|35=G|34=54|49=ALPHA|52=20120413-18:20:44.327|56=BOVESPA|1=012348|11=00007|21=1|38=500|40=2|41=00006|44=32.15|54=2|55=PDGR3|59=0|60=20120413-21:20:44.321|10=152|
8=FIX.4.2|9=144|35=D|34=55|49=ALPHA|52=20120413-18:20:44.328|56=BOVESPA|1=012349|11=00008|21=1|38=100|40=2|44=12.33|54=1|55=RSID3|59=0|60=20120413-21:20:44.322|10=255|
8=FIX.4.2|9=144|35=D|34=56|49=ALPHA|52=20120413-18:20:44.328|56=BOVESPA|1=012350|11=00009|21=1|38=4500|40=2|44=12.4|54=2|55=RSID3|59=0|60=20120413-21:20:44.322|10=000|
8=FIX.4.2|9=145|35=D|34=57|49=ALPHA|52=20120413-18:20:44.329|56=BOVESPA|1=012351|11=00010|21=1|38=1100|40=2|44=23.45|54=1|55=BBDC4|59=0|60=20120413-21:20:44.323|10=006|
8=FIX.4.2|9=142|35=D|34=58|49=ALPHA|52=20120413-18:20:44.329|56=BOVESPA|1=012345|11=00011|21=1|38=1000|40=2|44=25|54=1|55=PETR4|59=0|60=20120413-21:20:44.323|10=162|
8=FIX.4.2|9=143|35=D|34=59|49=ALPHA|52=20120413-18:20:44.330|56=BOVESPA|1=ABCDE|11=00012|21=1|38=500|40=2|44=34.23|54=2|55=VALE5|59=0|60=20120413-21:20:44.324|10=020|
8=FIX.4.2|9=143|35=D|34=60|49=ALPHA|52=20120413-18:20:44.330|56=BOVESPA|1=ABCDE|11=00013|21=1|38=500|40=2|44=34.23|54=2|55=VALE5|59=0|60=20120413-21:20:44.324|10=013|
8=FIX.4.2|9=144|35=D|34=61|49=ALPHA|52=20120413-18:20:44.331|56=BOVESPA|1=012345|11=00014|21=1|38=100|40=2|44=21.34|54=1|55=PETR3|59=0|60=20120413-21:20:44.325|10=252|
8=FIX.4.2|9=144|35=D|34=62|49=ALPHA|52=20120413-18:20:44.332|56=BOVESPA|1=012346|11=00015|21=1|38=300|40=2|44=32.12|54=2|55=PDGR3|59=0|60=20120413-21:20:44.325|10=243|
8=FIX.4.2|9=144|35=D|34=63|49=ALPHA|52=20120413-18:20:44.333|56=BOVESPA|1=012347|11=00016|21=1|38=500|40=2|44=32.12|54=2|55=PDGR3|59=0|60=20120413-21:20:44.326|10=250|
8=FIX.4.2|9=144|35=D|34=64|49=ALPHA|52=20120413-18:20:44.333|56=BOVESPA|1=012348|11=00017|21=1|38=500|40=2|44=32.15|54=2|55=PDGR3|59=0|60=20120413-21:20:44.326|10=000|
8=FIX.4.2|9=144|35=D|34=65|49=ALPHA|52=20120413-18:20:44.334|56=BOVESPA|1=012349|11=00018|21=1|38=100|40=2|44=12.33|54=1|55=RSID3|59=0|60=20120413-21:20:44.327|10=003|
8=FIX.4.2|9=144|35=D|34=66|49=ALPHA|52=20120413-18:20:44.334|56=BOVESPA|1=012350|11=00019|21=1|38=4500|40=2|44=12.4|54=2|55=RSID3|59=0|60=20120413-21:20:44.327|10=004|
8=FIX.4.2|9=145|35=D|34=67|49=ALPHA|52=20120413-18:20:44.335|56=BOVESPA|1=012351|11=00020|21=1|38=1100|40=2|44=23.45|54=1|55=BBDC4|59=0|60=20120413-21:20:44.328|10=010|
8=FIX.4.2|9=142|35=D|34=68|49=ALPHA|52=20120413-18:20:44.335|56=BOVESPA|1=012345|11=00021|21=1|38=1000|40=2|44=25|54=1|55=GOLL4|59=0|60=20120413-21:20:44.329|10=154|
8=FIX.4.2|9=143|35=D|34=69|49=ALPHA|52=20120413-18:20:44.336|56=BOVESPA|1=ABCDE|11=00022|21=1|38=500|40=2|44=34.23|54=1|55=TAMM4|59=0|60=20120413-21:20:44.332|10=032|
8=FIX.4.2|9=143|35=D|34=70|49=ALPHA|52=20120413-18:20:44.336|56=BOVESPA|1=ABCDE|11=00023|21=1|38=500|40=2|44=34.23|54=2|55=VALE3|59=0|60=20120413-21:20:44.333|10=019|
8=FIX.4.2|9=144|35=D|34=71|49=ALPHA|52=20120413-18:20:44.338|56=BOVESPA|1=012345|11=00024|21=1|38=100|40=2|44=21.34|54=2|55=VALE5|59=0|60=20120413-21:20:44.334|10=245|
8=FIX.4.2|9=144|35=D|34=72|49=ALPHA|52=20120413-18:20:44.338|56=BOVESPA|1=012346|11=00025|21=1|38=300|40=2|44=32.12|54=1|55=ELET3|59=0|60=20120413-21:20:44.334|10=247|
8=FIX.4.2|9=144|35=D|34=73|49=ALPHA|52=20120413-18:20:44.339|56=BOVESPA|1=012347|11=00026|21=1|38=500|40=2|44=32.12|54=2|55=TNLP4|59=0|60=20120413-21:20:44.335|10=020|
8=FIX.4.2|9=144|35=D|34=74|49=ALPHA|52=20120413-18:20:44.349|56=BOVESPA|1=012348|11=00027|21=1|38=500|40=2|44=32.15|54=2|55=PETR4|59=0|60=20120413-21:20:44.335|10=024|
8=FIX.4.2|9=144|35=D|34=75|49=ALPHA|52=20120413-18:20:44.350|56=BOVESPA|1=012349|11=00028|21=1|38=100|40=2|44=12.33|54=2|55=VALE5|59=0|60=20120413-21:20:44.345|10=252|
8=FIX.4.2|9=144|35=D|34=76|49=ALPHA|52=20120413-18:20:44.350|56=BOVESPA|1=012350|11=00029|21=1|38=4500|40=2|44=12.4|54=1|55=VALE5|59=0|60=20120413-21:20:44.345|10=251|
8=FIX.4.2|9=145|35=D|34=77|49=ALPHA|52=20120413-18:20:44.351|56=BOVESPA|1=012351|11=00030|21=1|38=1100|40=2|44=23.45|54=1|55=PETR3|59=0|60=20120413-21:20:44.346|10=057|
8=FIX.4.2|9=142|35=D|34=78|49=ALPHA|52=20120413-18:20:44.351|56=BOVESPA|1=012345|11=00031|21=1|38=1000|40=2|44=25|54=1|55=PDGR3|59=0|60=20120413-21:20:44.346|10=151|
8=FIX.4.2|9=143|35=D|34=79|49=ALPHA|52=20120413-18:20:44.352|56=BOVESPA|1=ABCDE|11=00032|21=1|38=500|40=2|44=34.23|54=2|55=PDGR3|59=0|60=20120413-21:20:44.347|10=036|
8=FIX.4.2|9=143|35=D|34=80|49=ALPHA|52=20120413-18:20:44.355|56=BOVESPA|1=ABCDE|11=00033|21=1|38=500|40=2|44=34.23|54=2|55=PDGR3|59=0|60=20120413-21:20:44.347|10=032|
8=FIX.4.2|9=144|35=D|34=81|49=ALPHA|52=20120413-18:20:44.359|56=BOVESPA|1=012345|11=00034|21=1|38=100|40=2|44=21.34|54=1|55=RSID3|59=0|60=20120413-21:20:44.348|10=006|
8=FIX.4.2|9=144|35=D|34=82|49=ALPHA|52=20120413-18:20:44.360|56=BOVESPA|1=012346|11=00035|21=1|38=300|40=2|44=32.12|54=1|55=RSID3|59=0|60=20120413-21:20:44.348|10=001|
8=FIX.4.2|9=144|35=D|34=83|49=ALPHA|52=20120413-18:20:44.363|56=BOVESPA|1=012347|11=00036|21=1|38=500|40=2|44=32.12|54=1|55=BBDC4|59=0|60=20120413-21:20:44.349|10=228|
8=FIX.4.2|9=144|35=D|34=84|49=ALPHA|52=20120413-18:20:44.363|56=BOVESPA|1=012348|11=00037|21=1|38=500|40=2|44=32.15|54=2|55=PETR4|59=0|60=20120413-21:20:44.349|10=027|
8=FIX.4.2|9=144|35=D|34=85|49=ALPHA|52=20120413-18:20:44.364|56=BOVESPA|1=012349|11=00038|21=1|38=100|40=2|44=12.33|54=2|55=VALE5|59=0|60=20120413-21:20:44.350|10=255|
8=FIX.4.2|9=144|35=D|34=86|49=ALPHA|52=20120413-18:20:44.364|56=BOVESPA|1=012350|11=00039|21=1|38=4500|40=2|44=12.4|54=1|55=VALE5|59=0|60=20120413-21:20:44.350|10=254|
8=FIX.4.2|9=145|35=D|34=87|49=ALPHA|52=20120413-18:20:44.365|56=BOVESPA|1=012351|11=00040|21=1|38=1100|40=2|44=23.45|54=2|55=PETR3|59=0|60=20120413-21:20:44.351|10=061|
8=FIX.4.2|9=142|35=D|34=88|49=ALPHA|52=20120413-18:20:44.365|56=BOVESPA|1=012345|11=00041|21=1|38=1000|40=2|44=25|54=2|55=PDGR3|59=0|60=20120413-21:20:44.351|10=155|
8=FIX.4.2|9=143|35=D|34=89|49=ALPHA|52=20120413-18:20:44.366|56=BOVESPA|1=ABCDE|11=00042|21=1|38=500|40=2|44=34.23|54=2|55=PDGR3|59=0|60=20120413-21:20:44.352|10=039|
8=FIX.4.2|9=143|35=D|34=90|49=ALPHA|52=20120413-18:20:44.366|56=BOVESPA|1=ABCDE|11=00043|21=1|38=500|40=2|44=34.23|54=1|55=PDGR3|59=0|60=20120413-21:20:44.352|10=031|
8=FIX.4.2|9=144|35=D|34=91|49=ALPHA|52=20120413-18:20:44.367|56=BOVESPA|1=012345|11=00044|21=1|38=100|40=2|44=21.34|54=2|55=RSID3|59=0|60=20120413-21:20:44.355|10=006|
8=FIX.4.2|9=144|35=D|34=92|49=ALPHA|52=20120413-18:20:44.367|56=BOVESPA|1=012346|11=00045|21=1|38=300|40=2|44=32.12|54=1|55=RSID3|59=0|60=20120413-21:20:44.356|10=009|
8=FIX.4.2|9=144|35=D|34=93|49=ALPHA|52=20120413-18:20:44.368|56=BOVESPA|1=012347|11=00046|21=1|38=500|40=2|44=32.12|54=1|55=BBDC4|59=0|60=20120413-21:20:44.356|10=233|
8=FIX.4.2|9=144|35=D|34=94|49=ALPHA|52=20120413-18:20:44.369|56=BOVESPA|1=012348|11=00047|21=1|38=500|40=2|44=32.15|54=2|55=GOLL4|59=0|60=20120413-21:20:44.357|10=021|
8=FIX.4.2|9=144|35=D|34=95|49=ALPHA|52=20120413-18:20:44.369|56=BOVESPA|1=012349|11=00048|21=1|38=100|40=2|44=12.33|54=2|55=TAMM4|59=0|60=20120413-21:20:44.357|10=019|
8=FIX.4.2|9=144|35=D|34=96|49=ALPHA|52=20120413-18:20:44.370|56=BOVESPA|1=012350|11=00049|21=1|38=4500|40=2|44=12.4|54=1|55=VALE3|59=0|60=20120413-21:20:44.358|10=003|
8=FIX.4.2|9=145|35=D|34=97|49=ALPHA|52=20120413-18:20:44.370|56=BOVESPA|1=012351|11=00050|21=1|38=1100|40=2|44=23.45|54=2|55=VALE5|59=0|60=20120413-21:20:44.358|10=049|
8=FIX.4.2|9=142|35=D|34=98|49=ALPHA|52=20120413-18:20:44.371|56=BOVESPA|1=012345|11=00051|21=1|38=1000|40=2|44=25|54=2|55=ELET3|59=0|60=20120413-21:20:44.359|10=159|
8=FIX.4.2|9=143|35=D|34=99|49=ALPHA|52=20120413-18:20:44.372|56=BOVESPA|1=ABCDE|11=00052|21=1|38=500|40=2|44=34.23|54=2|55=TNLP4|59=0|60=20120413-21:20:44.363|10=058|
8=FIX.4.2|9=144|35=D|34=100|49=ALPHA|52=20120413-18:20:44.372|56=BOVESPA|1=ABCDE|11=00053|21=1|38=500|40=2|44=34.23|54=1|55=PETR4|59=0|60=20120413-21:20:44.363|10=087|
8=FIX.4.2|9=146|35=D|34=101|49=ALPHA|52=20120413-18:20:44.373|56=BOVESPA|1=012345|11=00054|21=1|38=1000|40=2|44=21.34|54=2|55=VALE5|59=0|60=20120413-21:20:44.365|10=087|
8=FIX.4.2|9=145|35=D|34=102|49=ALPHA|52=20120413-18:20:44.373|56=BOVESPA|1=012346|11=00055|21=1|38=500|40=2|44=32.12|54=1|55=VALE5|59=0|60=20120413-21:20:44.365|10=042|
8=FIX.4.2|9=145|35=D|34=103|49=ALPHA|52=20120413-18:20:44.374|56=BOVESPA|1=012347|11=00056|21=1|38=500|40=2|44=32.12|54=1|55=PETR3|59=0|60=20120413-21:20:44.368|10=066|
8=FIX.4.2|9=145|35=D|34=104|49=ALPHA|52=20120413-18:20:44.375|56=BOVESPA|1=012348|11=00057|21=1|38=100|40=2|44=32.15|54=1|55=PDGR3|59=0|60=20120413-21:20:44.369|10=056|
8=FIX.4.2|9=145|35=D|34=105|49=ALPHA|52=20120413-18:20:44.378|56=BOVESPA|1=012349|11=00058|21=1|38=300|40=2|44=12.33|54=2|55=PDGR3|59=0|60=20120413-21:20:44.369|10=063|
8=FIX.4.2|9=142|35=D|34=106|49=ALPHA|52=20120413-18:20:44.379|56=BOVESPA|1=012345|11=00059|21=1|38=500|40=2|44=25|54=2|55=PDGR3|59=0|60=20120413-21:20:44.370|10=165|
8=FIX.4.2|9=144|35=D|34=107|49=ALPHA|52=20120413-18:20:44.379|56=BOVESPA|1=ABCDE|11=00060|21=1|38=500|40=2|44=34.23|54=1|55=RSID3|59=0|60=20120413-21:20:44.370|10=087|
8=FIX.4.2|9=144|35=D|34=108|49=ALPHA|52=20120413-18:20:44.380|56=BOVESPA|1=ABCDE|11=00061|21=1|38=100|40=2|44=34.23|54=2|55=RSID3|59=0|60=20120413-21:20:44.370|10=078|
8=FIX.4.2|9=146|35=D|34=109|49=ALPHA|52=20120413-18:20:44.380|56=BOVESPA|1=012345|11=00062|21=1|38=4500|40=2|44=21.34|54=1|55=BBDC4|59=0|60=20120413-21:20:44.371|10=066|
8=FIX.4.2|9=146|35=D|34=110|49=ALPHA|52=20120413-18:20:44.389|56=BOVESPA|1=012346|11=00063|21=1|38=1100|40=2|44=32.12|54=1|55=PETR4|59=0|60=20120413-21:20:44.371|10=108|
8=FIX.4.2|9=146|35=D|34=111|49=ALPHA|52=20120413-18:20:44.390|56=BOVESPA|1=012347|11=00064|21=1|38=1000|40=2|44=32.12|54=2|55=VALE5|59=0|60=20120413-21:20:44.372|10=086|
8=FIX.4.2|9=145|35=D|34=112|49=ALPHA|52=20120413-18:20:44.390|56=BOVESPA|1=012348|11=00065|21=1|38=500|40=2|44=32.15|54=2|55=VALE5|59=0|60=20120413-21:20:44.372|10=047|
8=FIX.4.2|9=145|35=D|34=113|49=ALPHA|52=20120413-18:20:44.391|56=BOVESPA|1=012349|11=00066|21=1|38=500|40=2|44=12.33|54=1|55=PETR3|59=0|60=20120413-21:20:44.373|10=066|
8=FIX.4.2|9=144|35=D|34=114|49=ALPHA|52=20120413-18:20:44.391|56=BOVESPA|1=012350|11=00067|21=1|38=100|40=2|44=12.4|54=2|55=PDGR3|59=0|60=20120413-21:20:44.373|10=248|
8=FIX.4.2|9=145|35=D|34=115|49=ALPHA|52=20120413-18:20:44.392|56=BOVESPA|1=012351|11=00068|21=1|38=300|40=2|44=23.45|54=2|55=PDGR3|59=0|60=20120413-21:20:44.382|10=054|
8=FIX.4.2|9=142|35=D|34=116|49=ALPHA|52=20120413-18:20:44.392|56=BOVESPA|1=012345|11=00069|21=1|38=500|40=2|44=25|54=2|55=PDGR3|59=0|60=20120413-21:20:44.382|10=165|
8=FIX.4.2|9=144|35=D|34=117|49=ALPHA|52=20120413-18:20:44.393|56=BOVESPA|1=ABCDE|11=00070|21=1|38=500|40=2|44=34.23|54=1|55=RSID3|59=0|60=20120413-21:20:44.383|10=089|
8=FIX.4.2|9=145|35=D|34=118|49=ALPHA|52=20120413-18:20:44.393|56=BOVESPA|1=ABCDE|11=00071|21=1|38=1000|40=2|44=34.23|54=1|55=RSID3|59=0|60=20120413-21:20:44.383|10=136|
8=FIX.4.2|9=145|35=D|34=119|49=ALPHA|52=20120413-18:20:44.394|56=BOVESPA|1=012345|11=00072|21=1|38=500|40=2|44=21.34|54=2|55=BBDC4|59=0|60=20120413-21:20:44.384|10=025|
8=FIX.4.2|9=142|35=D|34=120|49=ALPHA|52=20120413-18:20:44.395|56=BOVESPA|1=012345|11=00073|21=1|38=500|40=2|44=25|54=2|55=GOLL4|59=0|60=20120413-21:20:44.384|10=162|
8=FIX.4.2|9=144|35=D|34=121|49=ALPHA|52=20120413-18:20:44.395|56=BOVESPA|1=ABCDE|11=00074|21=1|38=100|40=2|44=34.23|54=1|55=TAMM4|59=0|60=20120413-21:20:44.385|10=086|
8=FIX.4.2|9=144|35=D|34=122|49=ALPHA|52=20120413-18:20:44.396|56=BOVESPA|1=ABCDE|11=00075|21=1|38=300|40=2|44=34.23|54=1|55=VALE3|59=0|60=20120413-21:20:44.385|10=083|
8=FIX.4.2|9=145|35=D|34=123|49=ALPHA|52=20120413-18:20:44.396|56=BOVESPA|1=012345|11=00076|21=1|38=500|40=2|44=21.34|54=2|55=VALE5|59=0|60=20120413-21:20:44.386|10=058|
8=FIX.4.2|9=145|35=D|34=124|49=ALPHA|52=20120413-18:20:44.397|56=BOVESPA|1=012346|11=00077|21=1|38=500|40=2|44=32.12|54=2|55=ELET3|59=0|60=20120413-21:20:44.386|10=060|
8=FIX.4.2|9=145|35=D|34=125|49=ALPHA|52=20120413-18:20:44.397|56=BOVESPA|1=012347|11=00078|21=1|38=100|40=2|44=32.12|54=1|55=TNLP4|59=0|60=20120413-21:20:44.387|10=080|
8=FIX.4.2|9=146|35=D|34=126|49=ALPHA|52=20120413-18:20:44.397|56=BOVESPA|1=012348|11=00079|21=1|38=4500|40=2|44=32.15|54=2|55=PETR4|59=0|60=20120413-21:20:44.388|10=142|
8=FIX.4.2|9=146|35=D|34=127|49=ALPHA|52=20120413-18:20:44.398|56=BOVESPA|1=012349|11=00080|21=1|38=1100|40=2|44=12.33|54=2|55=VALE5|59=0|60=20120413-21:20:44.388|10=110|
8=FIX.4.2|9=145|35=D|34=128|49=ALPHA|52=20120413-18:20:44.398|56=BOVESPA|1=012350|11=00081|21=1|38=1000|40=2|44=12.4|54=2|55=VALE5|59=0|60=20120413-21:20:44.389|10=053|
8=FIX.4.2|9=142|35=D|34=129|49=ALPHA|52=20120413-18:20:44.398|56=BOVESPA|1=012345|11=00082|21=1|38=500|40=2|44=25|54=1|55=PETR3|59=0|60=20120413-21:20:44.390|10=182|
8=FIX.4.2|9=144|35=D|34=130|49=ALPHA|52=20120413-18:20:44.399|56=BOVESPA|1=ABCDE|11=00083|21=1|38=500|40=2|44=34.23|54=2|55=PDGR3|59=0|60=20120413-21:20:44.390|10=088|
8=FIX.4.2|9=144|35=D|34=131|49=ALPHA|52=20120413-18:20:44.399|56=BOVESPA|1=ABCDE|11=00084|21=1|38=100|40=2|44=34.23|54=1|55=PDGR3|59=0|60=20120413-21:20:44.391|10=086|
8=FIX.4.2|9=145|35=D|34=132|49=ALPHA|52=20120413-18:20:44.400|56=BOVESPA|1=012345|11=00085|21=1|38=300|40=2|44=21.34|54=1|55=PDGR3|59=0|60=20120413-21:20:44.391|10=040|
8=FIX.4.2|9=145|35=D|34=133|49=ALPHA|52=20120413-18:20:44.400|56=BOVESPA|1=012346|11=00086|21=1|38=500|40=2|44=32.12|54=1|55=RSID3|59=0|60=20120413-21:20:44.391|10=048|
8=FIX.4.2|9=145|35=D|34=134|49=ALPHA|52=20120413-18:20:44.400|56=BOVESPA|1=012347|11=00087|21=1|38=500|40=2|44=32.12|54=2|55=RSID3|59=0|60=20120413-21:20:44.392|10=053|
8=FIX.4.2|9=145|35=D|34=135|49=ALPHA|52=20120413-18:20:44.401|56=BOVESPA|1=012348|11=00088|21=1|38=100|40=2|44=32.15|54=2|55=BBDC4|59=0|60=20120413-21:20:44.392|10=018|
8=FIX.4.2|9=146|35=D|34=136|49=ALPHA|52=20120413-18:20:44.401|56=BOVESPA|1=012349|11=00089|21=1|38=4500|40=2|44=12.33|54=1|55=PETR4|59=0|60=20120413-21:20:44.393|10=124|
8=FIX.4.2|9=145|35=D|34=137|49=ALPHA|52=20120413-18:20:44.402|56=BOVESPA|1=012350|11=00090|21=1|38=1100|40=2|44=12.4|54=2|55=VALE5|59=0|60=20120413-21:20:44.393|10=035|
8=FIX.4.2|9=224|35=8|34=48|49=BOVESPA|52=20120413-18:20:44.374|56=ALPHA|1=012345|6=0|11=00001|14=0|17=NBOV1|20=0|37=EXCH12012-04-13 00:00:00.000-0300|38=1000|39=0|44=25|54=1|55=PETR4|59=0|60=20120413-18:20:44.360|75=20120413|150=0|151=1000|10=062|
8=FIX.4.2|9=146|35=D|34=138|49=ALPHA|52=20120413-18:20:44.411|56=BOVESPA|1=012351|11=00091|21=1|38=1000|40=2|44=23.45|54=2|55=VALE5|59=0|60=20120413-21:20:44.394|10=094|
8=FIX.4.2|9=142|35=D|34=139|49=ALPHA|52=20120413-18:20:44.422|56=BOVESPA|1=012345|11=00092|21=1|38=500|40=2|44=25|54=2|55=PETR3|59=0|60=20120413-21:20:44.419|10=175|
8=FIX.4.2|9=144|35=D|34=140|49=ALPHA|52=20120413-18:20:44.425|56=BOVESPA|1=ABCDE|11=00093|21=1|38=500|40=2|44=34.23|54=1|55=PDGR3|59=0|60=20120413-21:20:44.420|10=073|
8=FIX.4.2|9=144|35=D|34=141|49=ALPHA|52=20120413-18:20:44.426|56=BOVESPA|1=ABCDE|11=00094|21=1|38=100|40=2|44=34.23|54=2|55=PDGR3|59=0|60=20120413-21:20:44.421|10=074|
8=FIX.4.2|9=145|35=D|34=142|49=ALPHA|52=20120413-18:20:44.427|56=BOVESPA|1=012345|11=00095|21=1|38=300|40=2|44=21.34|54=1|55=PDGR3|59=0|60=20120413-21:20:44.422|10=046|
8=FIX.4.2|9=145|35=D|34=143|49=ALPHA|52=20120413-18:20:44.428|56=BOVESPA|1=012346|11=00096|21=1|38=500|40=2|44=32.12|54=1|55=RSID3|59=0|60=20120413-21:20:44.423|10=056|
8=FIX.4.2|9=145|35=D|34=144|49=ALPHA|52=20120413-18:20:44.428|56=BOVESPA|1=012347|11=00097|21=1|38=500|40=2|44=32.12|54=1|55=RSID3|59=0|60=20120413-21:20:44.423|10=059|
8=FIX.4.2|9=145|35=D|34=145|49=ALPHA|52=20120413-18:20:44.429|56=BOVESPA|1=012348|11=00098|21=1|38=100|40=2|44=32.15|54=2|55=BBDC4|59=0|60=20120413-21:20:44.424|10=026|
8=FIX.4.2|9=143|35=D|34=146|49=ALPHA|52=20120413-18:20:44.429|56=BOVESPA|1=012345|11=00099|21=1|38=4500|40=2|44=25|54=2|55=GOLL4|59=0|60=20120413-21:20:44.424|10=224|
8=FIX.4.2|9=145|35=D|34=147|49=ALPHA|52=20120413-18:20:44.429|56=BOVESPA|1=ABCDE|11=00100|21=1|38=1100|40=2|44=34.23|54=1|55=TAMM4|59=0|60=20120413-21:20:44.425|10=127|
8=FIX.4.2|9=145|35=D|34=148|49=ALPHA|52=20120413-18:20:44.430|56=BOVESPA|1=ABCDE|11=00101|21=1|38=1000|40=2|44=34.23|54=2|55=VALE3|59=0|60=20120413-21:20:44.426|10=114|
8=FIX.4.2|9=145|35=D|34=149|49=ALPHA|52=20120413-18:20:44.430|56=BOVESPA|1=012345|11=00102|21=1|38=500|40=2|44=21.34|54=2|55=VALE5|59=0|60=20120413-21:20:44.426|10=040|
8=FIX.4.2|9=145|35=D|34=150|49=ALPHA|52=20120413-18:20:44.431|56=BOVESPA|1=012346|11=00103|21=1|38=500|40=2|44=32.12|54=2|55=ELET3|59=0|60=20120413-21:20:44.426|10=033|
8=FIX.4.2|9=145|35=D|34=151|49=ALPHA|52=20120413-18:20:44.431|56=BOVESPA|1=012347|11=00104|21=1|38=100|40=2|44=32.12|54=1|55=TNLP4|59=0|60=20120413-21:20:44.427|10=053|
8=FIX.4.2|9=145|35=D|34=152|49=ALPHA|52=20120413-18:20:44.431|56=BOVESPA|1=012348|11=00105|21=1|38=300|40=2|44=32.15|54=2|55=PETR4|59=0|60=20120413-21:20:44.427|10=059|
8=FIX.4.2|9=142|35=D|34=153|49=ALPHA|52=20120413-18:20:44.432|56=BOVESPA|1=012345|11=00106|21=1|38=500|40=2|44=25|54=1|55=VALE5|59=0|60=20120413-21:20:44.428|10=150|
8=FIX.4.2|9=145|35=D|34=154|49=ALPHA|52=20120413-18:20:44.432|56=BOVESPA|1=ABCDE|11=00107|21=1|38=1000|40=2|44=34.23|54=1|55=VALE5|59=0|60=20120413-21:20:44.428|10=122|
8=FIX.4.2|9=144|35=D|34=155|49=ALPHA|52=20120413-18:20:44.434|56=BOVESPA|1=ABCDE|11=00108|21=1|38=500|40=2|44=34.23|54=2|55=PETR3|59=0|60=20120413-21:20:44.429|10=100|
8=FIX.4.2|9=145|35=D|34=156|49=ALPHA|52=20120413-18:20:44.435|56=BOVESPA|1=012345|11=00109|21=1|38=500|40=2|44=21.34|54=2|55=PDGR3|59=0|60=20120413-21:20:44.429|10=056|
8=FIX.4.2|9=145|35=D|34=157|49=ALPHA|52=20120413-18:20:44.435|56=BOVESPA|1=012346|11=00110|21=1|38=100|40=2|44=32.12|54=2|55=PDGR3|59=0|60=20120413-21:20:44.431|10=037|
8=FIX.4.2|9=145|35=D|34=158|49=ALPHA|52=20120413-18:20:44.436|56=BOVESPA|1=012347|11=00111|21=1|38=300|40=2|44=32.12|54=1|55=PDGR3|59=0|60=20120413-21:20:44.433|10=044|
8=FIX.4.2|9=145|35=D|34=159|49=ALPHA|52=20120413-18:20:44.436|56=BOVESPA|1=012348|11=00112|21=1|38=500|40=2|44=32.15|54=2|55=RSID3|59=0|60=20120413-21:20:44.433|10=058|
8=FIX.4.2|9=146|35=D|34=160|49=ALPHA|52=20120413-18:20:44.436|56=BOVESPA|1=012349|11=00113|21=1|38=1000|40=2|44=12.33|54=1|55=RSID3|59=0|60=20120413-21:20:44.433|10=094|
8=FIX.4.2|9=142|35=D|34=161|49=ALPHA|52=20120413-18:20:44.437|56=BOVESPA|1=012345|11=00114|21=1|38=500|40=2|44=25|54=1|55=BBDC4|59=0|60=20120413-21:20:44.434|10=120|
8=FIX.4.2|9=144|35=D|34=162|49=ALPHA|52=20120413-18:20:44.437|56=BOVESPA|1=ABCDE|11=00115|21=1|38=500|40=2|44=34.23|54=1|55=PETR4|59=0|60=20120413-21:20:44.435|10=096|
8=FIX.4.2|9=144|35=D|34=163|49=ALPHA|52=20120413-18:20:44.438|56=BOVESPA|1=ABCDE|11=00116|21=1|38=100|40=2|44=34.23|54=2|55=VALE5|59=0|60=20120413-21:20:44.435|10=078|
8=FIX.4.2|9=145|35=D|34=164|49=ALPHA|52=20120413-18:20:44.449|56=BOVESPA|1=012345|11=00117|21=1|38=300|40=2|44=21.34|54=2|55=VALE5|59=0|60=20120413-21:20:44.440|10=047|
8=FIX.4.2|9=145|35=D|34=165|49=ALPHA|52=20120413-18:20:44.449|56=BOVESPA|1=012346|11=00118|21=1|38=500|40=2|44=32.12|54=1|55=PETR3|59=0|60=20120413-21:20:44.441|10=067|
8=FIX.4.2|9=145|35=D|34=166|49=ALPHA|52=20120413-18:20:44.450|56=BOVESPA|1=012347|11=00119|21=1|38=500|40=2|44=32.12|54=2|55=PDGR3|59=0|60=20120413-21:20:44.441|10=049|
8=FIX.4.2|9=145|35=D|34=167|49=ALPHA|52=20120413-18:20:44.450|56=BOVESPA|1=012348|11=00120|21=1|38=100|40=2|44=32.15|54=2|55=PDGR3|59=0|60=20120413-21:20:44.442|10=043|
8=FIX.4.2|9=224|35=8|34=49|49=BOVESPA|52=20120413-18:20:44.406|56=ALPHA|1=ABCDE|6=0|11=00002|14=0|17=NBOV2|20=0|37=EXCH22012-04-13 00:00:00.000-0300|38=500|39=0|44=34.23|54=2|55=VALE5|59=0|60=20120413-18:20:44.363|75=20120413|150=0|151=500|10=139|
8=FIX.4.2|9=210|35=8|34=50|49=BOVESPA|52=20120413-18:20:44.407|56=ALPHA|1=ABCDE|6=0|11=00002|14=0|17=CBOV1|20=1|37=EXCH32012-04-13 00:00:00.000-0300|38=500|39=4|54=2|55=VALE5|60=20120413-18:20:44.364|75=20120413|150=4|151=500|10=002|
8=FIX.4.2|9=225|35=8|34=51|49=BOVESPA|52=20120413-18:20:44.407|56=ALPHA|1=012345|6=0|11=00004|14=0|17=NBOV3|20=0|37=EXCH42012-04-13 00:00:00.000-0300|38=100|39=0|44=21.34|54=1|55=PETR3|59=0|60=20120413-18:20:44.364|75=20120413|150=0|151=100|10=114|
8=FIX.4.2|9=225|35=8|34=52|49=BOVESPA|52=20120413-18:20:44.408|56=ALPHA|1=012346|6=0|11=00005|14=0|17=NBOV4|20=0|37=EXCH52012-04-13 00:00:00.000-0300|38=300|39=0|44=32.12|54=2|55=PDGR3|59=0|60=20120413-18:20:44.364|75=20120413|150=0|151=300|10=109|
8=FIX.4.2|9=234|35=8|34=53|49=BOVESPA|52=20120413-18:20:44.409|56=ALPHA|1=012347|6=0|11=00006|14=0|17=RBOV1|20=0|37=EXCH62012-04-13 00:00:00.000-0300|38=500|39=0|41=00006|44=32.12|54=2|55=PDGR3|59=0|60=20120413-18:20:44.365|75=20120413|150=5|151=500|10=022|
8=FIX.4.2|9=234|35=8|34=54|49=BOVESPA|52=20120413-18:20:44.409|56=ALPHA|1=012348|6=0|11=00007|14=0|17=RBOV2|20=0|37=EXCH72012-04-13 00:00:00.000-0300|38=500|39=0|41=00007|44=32.15|54=2|55=PDGR3|59=0|60=20120413-18:20:44.365|75=20120413|150=5|151=500|10=031|
8=FIX.4.2|9=225|35=8|34=55|49=BOVESPA|52=20120413-18:20:44.410|56=ALPHA|1=012349|6=0|11=00008|14=0|17=NBOV5|20=0|37=EXCH82012-04-13 00:00:00.000-0300|38=100|39=0|44=12.33|54=1|55=RSID3|59=0|60=20120413-18:20:44.365|75=20120413|150=0|151=100|10=117|
8=FIX.4.2|9=226|35=8|34=56|49=BOVESPA|52=20120413-18:20:44.410|56=ALPHA|1=012350|6=0|11=00009|14=0|17=NBOV6|20=0|37=EXCH92012-04-13 00:00:00.000-0300|38=4500|39=0|44=12.4|54=2|55=RSID3|59=0|60=20120413-18:20:44.366|75=20120413|150=0|151=4500|10=178|
8=FIX.4.2|9=228|35=8|34=57|49=BOVESPA|52=20120413-18:20:44.411|56=ALPHA|1=012351|6=0|11=00010|14=0|17=NBOV7|20=0|37=EXCH102012-04-13 00:00:00.000-0300|38=1100|39=0|44=23.45|54=1|55=BBDC4|59=0|60=20120413-18:20:44.366|75=20120413|150=0|151=1100|10=218|
8=FIX.4.2|9=225|35=8|34=58|49=BOVESPA|52=20120413-18:20:44.411|56=ALPHA|1=012345|6=0|11=00011|14=0|17=NBOV8|20=0|37=EXCH112012-04-13 00:00:00.000-0300|38=1000|39=0|44=25|54=1|55=PETR4|59=0|60=20120413-18:20:44.366|75=20120413|150=0|151=1000|10=119|
8=FIX.4.2|9=225|35=8|34=59|49=BOVESPA|52=20120413-18:20:44.412|56=ALPHA|1=ABCDE|6=0|11=00012|14=0|17=NBOV9|20=0|37=EXCH122012-04-13 00:00:00.000-0300|38=500|39=0|44=34.23|54=2|55=VALE5|59=0|60=20120413-18:20:44.366|75=20120413|150=0|151=500|10=198|
8=FIX.4.2|9=226|35=8|34=60|49=BOVESPA|52=20120413-18:20:44.412|56=ALPHA|1=ABCDE|6=0|11=00013|14=0|17=NBOV10|20=0|37=EXCH132012-04-13 00:00:00.000-0300|38=500|39=0|44=34.23|54=2|55=VALE5|59=0|60=20120413-18:20:44.367|75=20120413|150=0|151=500|10=234|
8=FIX.4.2|9=227|35=8|34=61|49=BOVESPA|52=20120413-18:20:44.413|56=ALPHA|1=012345|6=0|11=00014|14=0|17=NBOV11|20=0|37=EXCH142012-04-13 00:00:00.000-0300|38=100|39=0|44=21.34|54=1|55=PETR3|59=0|60=20120413-18:20:44.367|75=20120413|150=0|151=100|10=214|
8=FIX.4.2|9=227|35=8|34=62|49=BOVESPA|52=20120413-18:20:44.413|56=ALPHA|1=012346|6=0|11=00015|14=0|17=NBOV12|20=0|37=EXCH152012-04-13 00:00:00.000-0300|38=300|39=0|44=32.12|54=2|55=PDGR3|59=0|60=20120413-18:20:44.367|75=20120413|150=0|151=300|10=208|
8=FIX.4.2|9=227|35=8|34=63|49=BOVESPA|52=20120413-18:20:44.422|56=ALPHA|1=012347|6=0|11=00016|14=0|17=NBOV13|20=0|37=EXCH162012-04-13 00:00:00.000-0300|38=500|39=0|44=32.12|54=2|55=PDGR3|59=0|60=20120413-18:20:44.367|75=20120413|150=0|151=500|10=217|
8=FIX.4.2|9=227|35=8|34=64|49=BOVESPA|52=20120413-18:20:44.423|56=ALPHA|1=012348|6=0|11=00017|14=0|17=NBOV14|20=0|37=EXCH172012-04-13 00:00:00.000-0300|38=500|39=0|44=32.15|54=2|55=PDGR3|59=0|60=20120413-18:20:44.368|75=20120413|150=0|151=500|10=227|
8=FIX.4.2|9=227|35=8|34=65|49=BOVESPA|52=20120413-18:20:44.423|56=ALPHA|1=012349|6=0|11=00018|14=0|17=NBOV15|20=0|37=EXCH182012-04-13 00:00:00.000-0300|38=100|39=0|44=12.33|54=1|55=RSID3|59=0|60=20120413-18:20:44.368|75=20120413|150=0|151=100|10=226|
8=FIX.4.2|9=228|35=8|34=66|49=BOVESPA|52=20120413-18:20:44.424|56=ALPHA|1=012350|6=0|11=00019|14=0|17=NBOV16|20=0|37=EXCH192012-04-13 00:00:00.000-0300|38=4500|39=0|44=12.4|54=2|55=RSID3|59=0|60=20120413-18:20:44.368|75=20120413|150=0|151=4500|10=031|
8=FIX.4.2|9=229|35=8|34=67|49=BOVESPA|52=20120413-18:20:44.430|56=ALPHA|1=012351|6=0|11=00020|14=0|17=NBOV17|20=0|37=EXCH202012-04-13 00:00:00.000-0300|38=1100|39=0|44=23.45|54=1|55=BBDC4|59=0|60=20120413-18:20:44.368|75=20120413|150=0|151=1100|10=018|
8=FIX.4.2|9=226|35=8|34=68|49=BOVESPA|52=20120413-18:20:44.431|56=ALPHA|1=012345|6=0|11=00021|14=0|17=NBOV18|20=0|37=EXCH212012-04-13 00:00:00.000-0300|38=1000|39=0|44=25|54=1|55=GOLL4|59=0|60=20120413-18:20:44.368|75=20120413|150=0|151=1000|10=163|
8=FIX.4.2|9=226|35=8|34=69|49=BOVESPA|52=20120413-18:20:44.431|56=ALPHA|1=ABCDE|6=0|11=00022|14=0|17=NBOV19|20=0|37=EXCH222012-04-13 00:00:00.000-0300|38=500|39=0|44=34.23|54=1|55=TAMM4|59=0|60=20120413-18:20:44.369|75=20120413|150=0|151=500|10=004|
8=FIX.4.2|9=226|35=8|34=70|49=BOVESPA|52=20120413-18:20:44.432|56=ALPHA|1=ABCDE|6=0|11=00023|14=0|17=NBOV20|20=0|37=EXCH232012-04-13 00:00:00.000-0300|38=500|39=0|44=34.23|54=2|55=VALE3|59=0|60=20120413-18:20:44.369|75=20120413|150=0|151=500|10=240|
8=FIX.4.2|9=227|35=8|34=71|49=BOVESPA|52=20120413-18:20:44.432|56=ALPHA|1=012345|6=0|11=00024|14=0|17=NBOV21|20=0|37=EXCH242012-04-13 00:00:00.000-0300|38=100|39=0|44=21.34|54=2|55=VALE5|59=0|60=20120413-18:20:44.369|75=20120413|150=0|151=100|10=205|
8=FIX.4.2|9=227|35=8|34=72|49=BOVESPA|52=20120413-18:20:44.439|56=ALPHA|1=012346|6=0|11=00025|14=0|17=NBOV22|20=0|37=EXCH252012-04-13 00:00:00.000-0300|38=300|39=0|44=32.12|54=1|55=ELET3|59=0|60=20120413-18:20:44.369|75=20120413|150=0|151=300|10=218|
8=FIX.4.2|9=227|35=8|34=73|49=BOVESPA|52=20120413-18:20:44.439|56=ALPHA|1=012347|6=0|11=00026|14=0|17=NBOV23|20=0|37=EXCH262012-04-13 00:00:00.000-0300|38=500|39=0|44=32.12|54=2|55=TNLP4|59=0|60=20120413-18:20:44.370|75=20120413|150=0|151=500|10=241|
8=FIX.4.2|9=227|35=8|34=74|49=BOVESPA|52=20120413-18:20:44.439|56=ALPHA|1=012348|6=0|11=00027|14=0|17=NBOV24|20=0|37=EXCH272012-04-13 00:00:00.000-0300|38=500|39=0|44=32.15|54=2|55=PETR4|59=0|60=20120413-18:20:44.378|75=20120413|150=0|151=500|10=254|
8=FIX.4.2|9=227|35=8|34=75|49=BOVESPA|52=20120413-18:20:44.440|56=ALPHA|1=012349|6=0|11=00028|14=0|17=NBOV25|20=0|37=EXCH282012-04-13 00:00:00.000-0300|38=100|39=0|44=12.33|54=2|55=VALE5|59=0|60=20120413-18:20:44.378|75=20120413|150=0|151=100|10=223|
8=FIX.4.2|9=228|35=8|34=76|49=BOVESPA|52=20120413-18:20:44.440|56=ALPHA|1=012350|6=0|11=00029|14=0|17=NBOV26|20=0|37=EXCH292012-04-13 00:00:00.000-0300|38=4500|39=0|44=12.4|54=1|55=VALE5|59=0|60=20120413-18:20:44.378|75=20120413|150=0|151=4500|10=025|
8=FIX.4.2|9=229|35=8|34=77|49=BOVESPA|52=20120413-18:20:44.441|56=ALPHA|1=012351|6=0|11=00030|14=0|17=NBOV27|20=0|37=EXCH302012-04-13 00:00:00.000-0300|38=1100|39=0|44=23.45|54=1|55=PETR3|59=0|60=20120413-18:20:44.378|75=20120413|150=0|151=1100|10=072|
8=FIX.4.2|9=226|35=8|34=78|49=BOVESPA|52=20120413-18:20:44.441|56=ALPHA|1=012345|6=0|11=00031|14=0|17=NBOV28|20=0|37=EXCH312012-04-13 00:00:00.000-0300|38=1000|39=0|44=25|54=1|55=PDGR3|59=0|60=20120413-18:20:44.379|75=20120413|150=0|151=1000|10=168|
8=FIX.4.2|9=226|35=8|34=79|49=BOVESPA|52=20120413-18:20:44.442|56=ALPHA|1=ABCDE|6=0|11=00032|14=0|17=NBOV29|20=0|37=EXCH322012-04-13 00:00:00.000-0300|38=500|39=0|44=34.23|54=2|55=PDGR3|59=0|60=20120413-18:20:44.379|75=20120413|150=0|151=500|10=009|
8=FIX.4.2|9=226|35=8|34=80|49=BOVESPA|52=20120413-18:20:44.443|56=ALPHA|1=ABCDE|6=0|11=00033|14=0|17=NBOV30|20=0|37=EXCH332012-04-13 00:00:00.000-0300|38=500|39=0|44=34.23|54=2|55=PDGR3|59=0|60=20120413-18:20:44.379|75=20120413|150=0|151=500|10=252|
8=FIX.4.2|9=227|35=8|34=81|49=BOVESPA|52=20120413-18:20:44.443|56=ALPHA|1=012345|6=0|11=00034|14=0|17=NBOV31|20=0|37=EXCH342012-04-13 00:00:00.000-0300|38=100|39=0|44=21.34|54=1|55=RSID3|59=0|60=20120413-18:20:44.379|75=20120413|150=0|151=100|10=219|
8=FIX.4.2|9=227|35=8|34=82|49=BOVESPA|52=20120413-18:20:44.443|56=ALPHA|1=012346|6=0|11=00035|14=0|17=NBOV32|20=0|37=EXCH352012-04-13 00:00:00.000-0300|38=300|39=0|44=32.12|54=1|55=RSID3|59=0|60=20120413-18:20:44.405|75=20120413|150=0|151=300|10=216|
8=FIX.4.2|9=227|35=8|34=83|49=BOVESPA|52=20120413-18:20:44.444|56=ALPHA|1=012347|6=0|11=00036|14=0|17=NBOV33|20=0|37=EXCH362012-04-13 00:00:00.000-0300|38=500|39=0|44=32.12|54=1|55=BBDC4|59=0|60=20120413-18:20:44.405|75=20120413|150=0|151=500|10=188|
8=FIX.4.2|9=227|35=8|34=84|49=BOVESPA|52=20120413-18:20:44.444|56=ALPHA|1=012348|6=0|11=00037|14=0|17=NBOV34|20=0|37=EXCH372012-04-13 00:00:00.000-0300|38=500|39=0|44=32.15|54=2|55=PETR4|59=0|60=20120413-18:20:44.406|75=20120413|150=0|151=500|10=246|
8=FIX.4.2|9=227|35=8|34=85|49=BOVESPA|52=20120413-18:20:44.445|56=ALPHA|1=012349|6=0|11=00038|14=0|17=NBOV35|20=0|37=EXCH382012-04-13 00:00:00.000-0300|38=100|39=0|44=12.33|54=2|55=VALE5|59=0|60=20120413-18:20:44.406|75=20120413|150=0|151=100|10=224|
8=FIX.4.2|9=228|35=8|34=86|49=BOVESPA|52=20120413-18:20:44.445|56=ALPHA|1=012350|6=0|11=00039|14=0|17=NBOV36|20=0|37=EXCH392012-04-13 00:00:00.000-0300|38=4500|39=0|44=12.4|54=1|55=VALE5|59=0|60=20120413-18:20:44.406|75=20120413|150=0|151=4500|10=026|
8=FIX.4.2|9=229|35=8|34=87|49=BOVESPA|52=20120413-18:20:44.446|56=ALPHA|1=012351|6=0|11=00040|14=0|17=NBOV37|20=0|37=EXCH402012-04-13 00:00:00.000-0300|38=1100|39=0|44=23.45|54=2|55=PETR3|59=0|60=20120413-18:20:44.406|75=20120413|150=0|151=1100|10=074|
8=FIX.4.2|9=226|35=8|34=88|49=BOVESPA|52=20120413-18:20:44.446|56=ALPHA|1=012345|6=0|11=00041|14=0|17=NBOV38|20=0|37=EXCH412012-04-13 00:00:00.000-0300|38=1000|39=0|44=25|54=2|55=PDGR3|59=0|60=20120413-18:20:44.406|75=20120413|150=0|151=1000|10=169|
8=FIX.4.2|9=226|35=8|34=89|49=BOVESPA|52=20120413-18:20:44.447|56=ALPHA|1=ABCDE|6=0|11=00042|14=0|17=NBOV39|20=0|37=EXCH422012-04-13 00:00:00.000-0300|38=500|39=0|44=34.23|54=2|55=PDGR3|59=0|60=20120413-18:20:44.407|75=20120413|150=0|151=500|10=010|
8=FIX.4.2|9=226|35=8|34=90|49=BOVESPA|52=20120413-18:20:44.447|56=ALPHA|1=ABCDE|6=0|11=00043|14=0|17=NBOV40|20=0|37=EXCH432012-04-13 00:00:00.000-0300|38=500|39=0|44=34.23|54=1|55=PDGR3|59=0|60=20120413-18:20:44.407|75=20120413|150=0|151=500|10=251|
8=FIX.4.2|9=227|35=8|34=91|49=BOVESPA|52=20120413-18:20:44.448|56=ALPHA|1=012345|6=0|11=00044|14=0|17=NBOV41|20=0|37=EXCH442012-04-13 00:00:00.000-0300|38=100|39=0|44=21.34|54=2|55=RSID3|59=0|60=20120413-18:20:44.407|75=20120413|150=0|151=100|10=221|
8=FIX.4.2|9=227|35=8|34=92|49=BOVESPA|52=20120413-18:20:44.448|56=ALPHA|1=012346|6=0|11=00045|14=0|17=NBOV42|20=0|37=EXCH452012-04-13 00:00:00.000-0300|38=300|39=0|44=32.12|54=1|55=RSID3|59=0|60=20120413-18:20:44.407|75=20120413|150=0|151=300|10=227|
8=FIX.4.2|9=227|35=8|34=93|49=BOVESPA|52=20120413-18:20:44.449|56=ALPHA|1=012347|6=0|11=00046|14=0|17=NBOV43|20=0|37=EXCH462012-04-13 00:00:00.000-0300|38=500|39=0|44=32.12|54=1|55=BBDC4|59=0|60=20120413-18:20:44.408|75=20120413|150=0|151=500|10=200|
8=FIX.4.2|9=227|35=8|34=94|49=BOVESPA|52=20120413-18:20:44.449|56=ALPHA|1=012348|6=0|11=00047|14=0|17=NBOV44|20=0|37=EXCH472012-04-13 00:00:00.000-0300|38=500|39=0|44=32.15|54=2|55=GOLL4|59=0|60=20120413-18:20:44.408|75=20120413|150=0|151=500|10=244|
8=FIX.4.2|9=227|35=8|34=95|49=BOVESPA|52=20120413-18:20:44.449|56=ALPHA|1=012349|6=0|11=00048|14=0|17=NBOV45|20=0|37=EXCH482012-04-13 00:00:00.000-0300|38=100|39=0|44=12.33|54=2|55=TAMM4|59=0|60=20120413-18:20:44.408|75=20120413|150=0|151=100|10=240|
8=FIX.4.2|9=228|35=8|34=96|49=BOVESPA|52=20120413-18:20:44.450|56=ALPHA|1=012350|6=0|11=00049|14=0|17=NBOV46|20=0|37=EXCH492012-04-13 00:00:00.000-0300|38=4500|39=0|44=12.4|54=1|55=VALE3|59=0|60=20120413-18:20:44.408|75=20120413|150=0|151=4500|10=026|
8=FIX.4.2|9=146|35=D|34=168|49=ALPHA|52=20120413-18:20:44.465|56=BOVESPA|1=012349|11=00121|21=1|38=4500|40=2|44=12.33|54=2|55=PDGR3|59=0|60=20120413-21:20:44.442|10=107|
8=FIX.4.2|9=145|35=D|34=169|49=ALPHA|52=20120413-18:20:44.465|56=BOVESPA|1=012350|11=00122|21=1|38=1100|40=2|44=12.4|54=1|55=RSID3|59=0|60=20120413-21:20:44.443|10=048|
8=FIX.4.2|9=146|35=D|34=170|49=ALPHA|52=20120413-18:20:44.466|56=BOVESPA|1=012351|11=00123|21=1|38=1000|40=2|44=23.45|54=2|55=RSID3|59=0|60=20120413-21:20:44.443|10=099|
8=FIX.4.2|9=142|35=D|34=171|49=ALPHA|52=20120413-18:20:44.466|56=BOVESPA|1=012345|11=00124|21=1|38=500|40=2|44=25|54=1|55=BBDC4|59=0|60=20120413-21:20:44.444|10=125|
8=FIX.4.2|9=144|35=D|34=172|49=ALPHA|52=20120413-18:20:44.467|56=BOVESPA|1=ABCDE|11=00125|21=1|38=500|40=2|44=34.23|54=1|55=GOLL4|59=0|60=20120413-21:20:44.445|10=089|
8=FIX.4.2|9=144|35=D|34=173|49=ALPHA|52=20120413-18:20:44.467|56=BOVESPA|1=ABCDE|11=00126|21=1|38=100|40=2|44=34.23|54=2|55=TAMM4|59=0|60=20120413-21:20:44.445|10=089|
8=FIX.4.2|9=145|35=D|34=174|49=ALPHA|52=20120413-18:20:44.467|56=BOVESPA|1=012345|11=00127|21=1|38=300|40=2|44=21.34|54=2|55=VALE3|59=0|60=20120413-21:20:44.445|10=052|
8=FIX.4.2|9=145|35=D|34=175|49=ALPHA|52=20120413-18:20:44.468|56=BOVESPA|1=012346|11=00128|21=1|38=500|40=2|44=32.12|54=2|55=VALE5|59=0|60=20120413-21:20:44.446|10=059|
8=FIX.4.2|9=145|35=D|34=176|49=ALPHA|52=20120413-18:20:44.468|56=BOVESPA|1=012347|11=00129|21=1|38=500|40=2|44=32.12|54=1|55=ELET3|59=0|60=20120413-21:20:44.446|10=061|
8=FIX.4.2|9=229|35=8|34=97|49=BOVESPA|52=20120413-18:20:44.450|56=ALPHA|1=012351|6=0|11=00050|14=0|17=NBOV47|20=0|37=EXCH502012-04-13 00:00:00.000-0300|38=1100|39=0|44=23.45|54=2|55=VALE5|59=0|60=20120413-18:20:44.408|75=20120413|150=0|151=1100|10=058|
8=FIX.4.2|9=226|35=8|34=98|49=BOVESPA|52=20120413-18:20:44.471|56=ALPHA|1=012345|6=0|11=00051|14=0|17=NBOV48|20=0|37=EXCH512012-04-13 00:00:00.000-0300|38=1000|39=0|44=25|54=2|55=ELET3|59=0|60=20120413-18:20:44.409|75=20120413|150=0|151=1000|10=171|
8=FIX.4.2|9=226|35=8|34=99|49=BOVESPA|52=20120413-18:20:44.481|56=ALPHA|1=ABCDE|6=0|11=00052|14=0|17=NBOV49|20=0|37=EXCH522012-04-13 00:00:00.000-0300|38=500|39=0|44=34.23|54=2|55=TNLP4|59=0|60=20120413-18:20:44.409|75=20120413|150=0|151=500|10=032|
8=FIX.4.2|9=227|35=8|34=100|49=BOVESPA|52=20120413-18:20:44.482|56=ALPHA|1=ABCDE|6=0|11=00053|14=0|17=NBOV50|20=0|37=EXCH532012-04-13 00:00:00.000-0300|38=500|39=0|44=34.23|54=1|55=PETR4|59=0|60=20120413-18:20:44.413|75=20120413|150=0|151=500|10=050|
8=FIX.4.2|9=230|35=8|34=101|49=BOVESPA|52=20120413-18:20:44.482|56=ALPHA|1=012345|6=0|11=00054|14=0|17=NBOV51|20=0|37=EXCH542012-04-13 00:00:00.000-0300|38=1000|39=0|44=21.34|54=2|55=VALE5|59=0|60=20120413-18:20:44.413|75=20120413|150=0|151=1000|10=085|
8=FIX.4.2|9=228|35=8|34=102|49=BOVESPA|52=20120413-18:20:44.483|56=ALPHA|1=012346|6=0|11=00055|14=0|17=NBOV52|20=0|37=EXCH552012-04-13 00:00:00.000-0300|38=500|39=0|44=32.12|54=1|55=VALE5|59=0|60=20120413-18:20:44.413|75=20120413|150=0|151=500|10=007|
8=FIX.4.2|9=228|35=8|34=103|49=BOVESPA|52=20120413-18:20:44.483|56=ALPHA|1=012347|6=0|11=00056|14=0|17=NBOV53|20=0|37=EXCH562012-04-13 00:00:00.000-0300|38=500|39=0|44=32.12|54=1|55=PETR3|59=0|60=20120413-18:20:44.413|75=20120413|150=0|151=500|10=029|
8=FIX.4.2|9=228|35=8|34=104|49=BOVESPA|52=20120413-18:20:44.484|56=ALPHA|1=012348|6=0|11=00057|14=0|17=NBOV54|20=0|37=EXCH572012-04-13 00:00:00.000-0300|38=100|39=0|44=32.15|54=1|55=PDGR3|59=0|60=20120413-18:20:44.413|75=20120413|150=0|151=100|10=016|
8=FIX.4.2|9=228|35=8|34=105|49=BOVESPA|52=20120413-18:20:44.484|56=ALPHA|1=012349|6=0|11=00058|14=0|17=NBOV55|20=0|37=EXCH582012-04-13 00:00:00.000-0300|38=300|39=0|44=12.33|54=2|55=PDGR3|59=0|60=20120413-18:20:44.413|75=20120413|150=0|151=300|10=024|
8=FIX.4.2|9=225|35=8|34=106|49=BOVESPA|52=20120413-18:20:44.484|56=ALPHA|1=012345|6=0|11=00059|14=0|17=NBOV56|20=0|37=EXCH592012-04-13 00:00:00.000-0300|38=500|39=0|44=25|54=2|55=PDGR3|59=0|60=20120413-18:20:44.414|75=20120413|150=0|151=500|10=138|
8=FIX.4.2|9=227|35=8|34=107|49=BOVESPA|52=20120413-18:20:44.485|56=ALPHA|1=ABCDE|6=0|11=00060|14=0|17=NBOV57|20=0|37=EXCH602012-04-13 00:00:00.000-0300|38=500|39=0|44=34.23|54=1|55=RSID3|59=0|60=20120413-18:20:44.414|75=20120413|150=0|151=500|10=054|
8=FIX.4.2|9=227|35=8|34=108|49=BOVESPA|52=20120413-18:20:44.485|56=ALPHA|1=ABCDE|6=0|11=00061|14=0|17=NBOV58|20=0|37=EXCH612012-04-13 00:00:00.000-0300|38=100|39=0|44=34.23|54=2|55=RSID3|59=0|60=20120413-18:20:44.414|75=20120413|150=0|151=100|10=051|
8=FIX.4.2|9=230|35=8|34=109|49=BOVESPA|52=20120413-18:20:44.486|56=ALPHA|1=012345|6=0|11=00062|14=0|17=NBOV59|20=0|37=EXCH622012-04-13 00:00:00.000-0300|38=4500|39=0|44=21.34|54=1|55=BBDC4|59=0|60=20120413-18:20:44.414|75=20120413|150=0|151=4500|10=089|
8=FIX.4.2|9=230|35=8|34=110|49=BOVESPA|52=20120413-18:20:44.486|56=ALPHA|1=012346|6=0|11=00063|14=0|17=NBOV60|20=0|37=EXCH632012-04-13 00:00:00.000-0300|38=1100|39=0|44=32.12|54=1|55=PETR4|59=0|60=20120413-18:20:44.415|75=20120413|150=0|151=1100|10=109|
8=FIX.4.2|9=230|35=8|34=111|49=BOVESPA|52=20120413-18:20:44.487|56=ALPHA|1=012347|6=0|11=00064|14=0|17=NBOV61|20=0|37=EXCH642012-04-13 00:00:00.000-0300|38=1000|39=0|44=32.12|54=2|55=VALE5|59=0|60=20120413-18:20:44.415|75=20120413|150=0|151=1000|10=096|
8=FIX.4.2|9=228|35=8|34=112|49=BOVESPA|52=20120413-18:20:44.487|56=ALPHA|1=012348|6=0|11=00065|14=0|17=NBOV62|20=0|37=EXCH652012-04-13 00:00:00.000-0300|38=500|39=0|44=32.15|54=2|55=VALE5|59=0|60=20120413-18:20:44.415|75=20120413|150=0|151=500|10=023|
8=FIX.4.2|9=228|35=8|34=113|49=BOVESPA|52=20120413-18:20:44.488|56=ALPHA|1=012349|6=0|11=00066|14=0|17=NBOV63|20=0|37=EXCH662012-04-13 00:00:00.000-0300|38=500|39=0|44=12.33|54=1|55=PETR3|59=0|60=20120413-18:20:44.415|75=20120413|150=0|151=500|10=043|
8=FIX.4.2|9=227|35=8|34=114|49=BOVESPA|52=20120413-18:20:44.488|56=ALPHA|1=012350|6=0|11=00067|14=0|17=NBOV64|20=0|37=EXCH672012-04-13 00:00:00.000-0300|38=100|39=0|44=12.4|54=2|55=PDGR3|59=0|60=20120413-18:20:44.415|75=20120413|150=0|151=100|10=223|
8=FIX.4.2|9=228|35=8|34=115|49=BOVESPA|52=20120413-18:20:44.488|56=ALPHA|1=012351|6=0|11=00068|14=0|17=NBOV65|20=0|37=EXCH682012-04-13 00:00:00.000-0300|38=300|39=0|44=23.45|54=2|55=PDGR3|59=0|60=20120413-18:20:44.416|75=20120413|150=0|151=300|10=033|
8=FIX.4.2|9=225|35=8|34=116|49=BOVESPA|52=20120413-18:20:44.489|56=ALPHA|1=012345|6=0|11=00069|14=0|17=NBOV66|20=0|37=EXCH692012-04-13 00:00:00.000-0300|38=500|39=0|44=25|54=2|55=PDGR3|59=0|60=20120413-18:20:44.416|75=20120413|150=0|151=500|10=149|
8=FIX.4.2|9=227|35=8|34=117|49=BOVESPA|52=20120413-18:20:44.489|56=ALPHA|1=ABCDE|6=0|11=00070|14=0|17=NBOV67|20=0|37=EXCH702012-04-13 00:00:00.000-0300|38=500|39=0|44=34.23|54=1|55=RSID3|59=0|60=20120413-18:20:44.416|75=20120413|150=0|151=500|10=064|
8=FIX.4.2|9=229|35=8|34=118|49=BOVESPA|52=20120413-18:20:44.490|56=ALPHA|1=ABCDE|6=0|11=00071|14=0|17=NBOV68|20=0|37=EXCH712012-04-13 00:00:00.000-0300|38=1000|39=0|44=34.23|54=1|55=RSID3|59=0|60=20120413-18:20:44.416|75=20120413|150=0|151=1000|10=150|
8=FIX.4.2|9=228|35=8|34=119|49=BOVESPA|52=20120413-18:20:44.490|56=ALPHA|1=012345|6=0|11=00072|14=0|17=NBOV69|20=0|37=EXCH722012-04-13 00:00:00.000-0300|38=500|39=0|44=21.34|54=2|55=BBDC4|59=0|60=20120413-18:20:44.416|75=20120413|150=0|151=500|10=250|
8=FIX.4.2|9=225|35=8|34=120|49=BOVESPA|52=20120413-18:20:44.491|56=ALPHA|1=012345|6=0|11=00073|14=0|17=NBOV70|20=0|37=EXCH732012-04-13 00:00:00.000-0300|38=500|39=0|44=25|54=2|55=GOLL4|59=0|60=20120413-18:20:44.416|75=20120413|150=0|151=500|10=124|
8=FIX.4.2|9=227|35=8|34=121|49=BOVESPA|52=20120413-18:20:44.491|56=ALPHA|1=ABCDE|6=0|11=00074|14=0|17=NBOV71|20=0|37=EXCH742012-04-13 00:00:00.000-0300|38=100|39=0|44=34.23|54=1|55=TAMM4|59=0|60=20120413-18:20:44.420|75=20120413|150=0|151=100|10=040|
8=FIX.4.2|9=227|35=8|34=122|49=BOVESPA|52=20120413-18:20:44.492|56=ALPHA|1=ABCDE|6=0|11=00075|14=0|17=NBOV72|20=0|37=EXCH752012-04-13 00:00:00.000-0300|38=300|39=0|44=34.23|54=1|55=VALE3|59=0|60=20120413-18:20:44.420|75=20120413|150=0|151=300|10=041|
8=FIX.4.2|9=228|35=8|34=123|49=BOVESPA|52=20120413-18:20:44.492|56=ALPHA|1=012345|6=0|11=00076|14=0|17=NBOV73|20=0|37=EXCH762012-04-13 00:00:00.000-0300|38=500|39=0|44=21.34|54=2|55=VALE5|59=0|60=20120413-18:20:44.420|75=20120413|150=0|151=500|10=019|
8=FIX.4.2|9=228|35=8|34=124|49=BOVESPA|52=20120413-18:20:44.493|56=ALPHA|1=012346|6=0|11=00077|14=0|17=NBOV74|20=0|37=EXCH772012-04-13 00:00:00.000-0300|38=500|39=0|44=32.12|54=2|55=ELET3|59=0|60=20120413-18:20:44.420|75=20120413|150=0|151=500|10=023|
8=FIX.4.2|9=228|35=8|34=125|49=BOVESPA|52=20120413-18:20:44.495|56=ALPHA|1=012347|6=0|11=00078|14=0|17=NBOV75|20=0|37=EXCH782012-04-13 00:00:00.000-0300|38=100|39=0|44=32.12|54=1|55=TNLP4|59=0|60=20120413-18:20:44.420|75=20120413|150=0|151=100|10=042|
8=FIX.4.2|9=230|35=8|34=126|49=BOVESPA|52=20120413-18:20:44.495|56=ALPHA|1=012348|6=0|11=00079|14=0|17=NBOV76|20=0|37=EXCH792012-04-13 00:00:00.000-0300|38=4500|39=0|44=32.15|54=2|55=PETR4|59=0|60=20120413-18:20:44.420|75=20120413|150=0|151=4500|10=153|
8=FIX.4.2|9=230|35=8|34=127|49=BOVESPA|52=20120413-18:20:44.496|56=ALPHA|1=012349|6=0|11=00080|14=0|17=NBOV77|20=0|37=EXCH802012-04-13 00:00:00.000-0300|38=1100|39=0|44=12.33|54=2|55=VALE5|59=0|60=20120413-18:20:44.421|75=20120413|150=0|151=1100|10=108|
8=FIX.4.2|9=229|35=8|34=128|49=BOVESPA|52=20120413-18:20:44.496|56=ALPHA|1=012350|6=0|11=00081|14=0|17=NBOV78|20=0|37=EXCH812012-04-13 00:00:00.000-0300|38=1000|39=0|44=12.4|54=2|55=VALE5|59=0|60=20120413-18:20:44.421|75=20120413|150=0|151=1000|10=060|
8=FIX.4.2|9=225|35=8|34=129|49=BOVESPA|52=20120413-18:20:44.497|56=ALPHA|1=012345|6=0|11=00082|14=0|17=NBOV79|20=0|37=EXCH822012-04-13 00:00:00.000-0300|38=500|39=0|44=25|54=1|55=PETR3|59=0|60=20120413-18:20:44.421|75=20120413|150=0|151=500|10=155|
8=FIX.4.2|9=227|35=8|34=130|49=BOVESPA|52=20120413-18:20:44.497|56=ALPHA|1=ABCDE|6=0|11=00083|14=0|17=NBOV80|20=0|37=EXCH832012-04-13 00:00:00.000-0300|38=500|39=0|44=34.23|54=2|55=PDGR3|59=0|60=20120413-18:20:44.425|75=20120413|150=0|151=500|10=057|
8=FIX.4.2|9=227|35=8|34=131|49=BOVESPA|52=20120413-18:20:44.505|56=ALPHA|1=ABCDE|6=0|11=00084|14=0|17=NBOV81|20=0|37=EXCH842012-04-13 00:00:00.000-0300|38=100|39=0|44=34.23|54=1|55=PDGR3|59=0|60=20120413-18:20:44.425|75=20120413|150=0|151=100|10=042|
8=FIX.4.2|9=228|35=8|34=132|49=BOVESPA|52=20120413-18:20:44.506|56=ALPHA|1=012345|6=0|11=00085|14=0|17=NBOV82|20=0|37=EXCH852012-04-13 00:00:00.000-0300|38=300|39=0|44=21.34|54=1|55=PDGR3|59=0|60=20120413-18:20:44.426|75=20120413|150=0|151=300|10=019|
8=FIX.4.2|9=228|35=8|34=133|49=BOVESPA|52=20120413-18:20:44.506|56=ALPHA|1=012346|6=0|11=00086|14=0|17=NBOV83|20=0|37=EXCH862012-04-13 00:00:00.000-0300|38=500|39=0|44=32.12|54=1|55=RSID3|59=0|60=20120413-18:20:44.427|75=20120413|150=0|151=500|10=032|
8=FIX.4.2|9=228|35=8|34=134|49=BOVESPA|52=20120413-18:20:44.508|56=ALPHA|1=012347|6=0|11=00087|14=0|17=NBOV84|20=0|37=EXCH872012-04-13 00:00:00.000-0300|38=500|39=0|44=32.12|54=2|55=RSID3|59=0|60=20120413-18:20:44.427|75=20120413|150=0|151=500|10=040|
8=FIX.4.2|9=228|35=8|34=135|49=BOVESPA|52=20120413-18:20:44.510|56=ALPHA|1=012348|6=0|11=00088|14=0|17=NBOV85|20=0|37=EXCH882012-04-13 00:00:00.000-0300|38=100|39=0|44=32.15|54=2|55=BBDC4|59=0|60=20120413-18:20:44.427|75=20120413|150=0|151=100|10=251|
8=FIX.4.2|9=230|35=8|34=136|49=BOVESPA|52=20120413-18:20:44.512|56=ALPHA|1=012349|6=0|11=00089|14=0|17=NBOV86|20=0|37=EXCH892012-04-13 00:00:00.000-0300|38=4500|39=0|44=12.33|54=1|55=PETR4|59=0|60=20120413-18:20:44.427|75=20120413|150=0|151=4500|10=152|
8=FIX.4.2|9=229|35=8|34=137|49=BOVESPA|52=20120413-18:20:44.512|56=ALPHA|1=012350|6=0|11=00090|14=0|17=NBOV87|20=0|37=EXCH902012-04-13 00:00:00.000-0300|38=1100|39=0|44=12.4|54=2|55=VALE5|59=0|60=20120413-18:20:44.428|75=20120413|150=0|151=1100|10=058|
8=FIX.4.2|9=230|35=8|34=138|49=BOVESPA|52=20120413-18:20:44.513|56=ALPHA|1=012351|6=0|11=00091|14=0|17=NBOV88|20=0|37=EXCH912012-04-13 00:00:00.000-0300|38=1000|39=0|44=23.45|54=2|55=VALE5|59=0|60=20120413-18:20:44.474|75=20120413|150=0|151=1000|10=110|
8=FIX.4.2|9=225|35=8|34=139|49=BOVESPA|52=20120413-18:20:44.514|56=ALPHA|1=012345|6=0|11=00092|14=0|17=NBOV89|20=0|37=EXCH922012-04-13 00:00:00.000-0300|38=500|39=0|44=25|54=2|55=PETR3|59=0|60=20120413-18:20:44.475|75=20120413|150=0|151=500|10=159|
8=FIX.4.2|9=227|35=8|34=140|49=BOVESPA|52=20120413-18:20:44.515|56=ALPHA|1=ABCDE|6=0|11=00093|14=0|17=NBOV90|20=0|37=EXCH932012-04-13 00:00:00.000-0300|38=500|39=0|44=34.23|54=1|55=PDGR3|59=0|60=20120413-18:20:44.475|75=20120413|150=0|151=500|10=056|
8=FIX.4.2|9=227|35=8|34=141|49=BOVESPA|52=20120413-18:20:44.515|56=ALPHA|1=ABCDE|6=0|11=00094|14=0|17=NBOV91|20=0|37=EXCH942012-04-13 00:00:00.000-0300|38=100|39=0|44=34.23|54=2|55=PDGR3|59=0|60=20120413-18:20:44.475|75=20120413|150=0|151=100|10=053|
8=FIX.4.2|9=228|35=8|34=142|49=BOVESPA|52=20120413-18:20:44.515|56=ALPHA|1=012345|6=0|11=00095|14=0|17=NBOV92|20=0|37=EXCH952012-04-13 00:00:00.000-0300|38=300|39=0|44=21.34|54=1|55=PDGR3|59=0|60=20120413-18:20:44.475|75=20120413|150=0|151=300|10=027|
8=FIX.4.2|9=228|35=8|34=143|49=BOVESPA|52=20120413-18:20:44.516|56=ALPHA|1=012346|6=0|11=00096|14=0|17=NBOV93|20=0|37=EXCH962012-04-13 00:00:00.000-0300|38=500|39=0|44=32.12|54=1|55=RSID3|59=0|60=20120413-18:20:44.475|75=20120413|150=0|151=500|10=040|
8=FIX.4.2|9=228|35=8|34=144|49=BOVESPA|52=20120413-18:20:44.516|56=ALPHA|1=012347|6=0|11=00097|14=0|17=NBOV94|20=0|37=EXCH972012-04-13 00:00:00.000-0300|38=500|39=0|44=32.12|54=1|55=RSID3|59=0|60=20120413-18:20:44.475|75=20120413|150=0|151=500|10=045|
8=FIX.4.2|9=228|35=8|34=145|49=BOVESPA|52=20120413-18:20:44.517|56=ALPHA|1=012348|6=0|11=00098|14=0|17=NBOV95|20=0|37=EXCH982012-04-13 00:00:00.000-0300|38=100|39=0|44=32.15|54=2|55=BBDC4|59=0|60=20120413-18:20:44.476|75=20120413|150=0|151=100|10=010|
8=FIX.4.2|9=227|35=8|34=146|49=BOVESPA|52=20120413-18:20:44.517|56=ALPHA|1=012345|6=0|11=00099|14=0|17=NBOV96|20=0|37=EXCH992012-04-13 00:00:00.000-0300|38=4500|39=0|44=25|54=2|55=GOLL4|59=0|60=20120413-18:20:44.476|75=20120413|150=0|151=4500|10=011|
8=FIX.4.2|9=230|35=8|34=147|49=BOVESPA|52=20120413-18:20:44.518|56=ALPHA|1=ABCDE|6=0|11=00100|14=0|17=NBOV97|20=0|37=EXCH1002012-04-13 00:00:00.000-0300|38=1100|39=0|44=34.23|54=1|55=TAMM4|59=0|60=20120413-18:20:44.476|75=20120413|150=0|151=1100|10=187|
8=FIX.4.2|9=230|35=8|34=148|49=BOVESPA|52=20120413-18:20:44.518|56=ALPHA|1=ABCDE|6=0|11=00101|14=0|17=NBOV98|20=0|37=EXCH1012012-04-13 00:00:00.000-0300|38=1000|39=0|44=34.23|54=2|55=VALE3|59=0|60=20120413-18:20:44.476|75=20120413|150=0|151=1000|10=182|
8=FIX.4.2|9=229|35=8|34=149|49=BOVESPA|52=20120413-18:20:44.519|56=ALPHA|1=012345|6=0|11=00102|14=0|17=NBOV99|20=0|37=EXCH1022012-04-13 00:00:00.000-0300|38=500|39=0|44=21.34|54=2|55=VALE5|59=0|60=20120413-18:20:44.476|75=20120413|150=0|151=500|10=075|
8=FIX.4.2|9=230|35=8|34=150|49=BOVESPA|52=20120413-18:20:44.519|56=ALPHA|1=012346|6=0|11=00103|14=0|17=NBOV100|20=0|37=EXCH1032012-04-13 00:00:00.000-0300|38=500|39=0|44=32.12|54=2|55=ELET3|59=0|60=20120413-18:20:44.476|75=20120413|150=0|151=500|10=091|
8=FIX.4.2|9=230|35=8|34=151|49=BOVESPA|52=20120413-18:20:44.520|56=ALPHA|1=012347|6=0|11=00104|14=0|17=NBOV101|20=0|37=EXCH1042012-04-13 00:00:00.000-0300|38=100|39=0|44=32.12|54=1|55=TNLP4|59=0|60=20120413-18:20:44.477|75=20120413|150=0|151=100|10=101|
8=FIX.4.2|9=230|35=8|34=152|49=BOVESPA|52=20120413-18:20:44.520|56=ALPHA|1=012348|6=0|11=00105|14=0|17=NBOV102|20=0|37=EXCH1052012-04-13 00:00:00.000-0300|38=300|39=0|44=32.15|54=2|55=PETR4|59=0|60=20120413-18:20:44.477|75=20120413|150=0|151=300|10=111|
8=FIX.4.2|9=227|35=8|34=153|49=BOVESPA|52=20120413-18:20:44.521|56=ALPHA|1=012345|6=0|11=00106|14=0|17=NBOV103|20=0|37=EXCH1062012-04-13 00:00:00.000-0300|38=500|39=0|44=25|54=1|55=VALE5|59=0|60=20120413-18:20:44.477|75=20120413|150=0|151=500|10=214|
8=FIX.4.2|9=231|35=8|34=154|49=BOVESPA|52=20120413-18:20:44.522|56=ALPHA|1=ABCDE|6=0|11=00107|14=0|17=NBOV104|20=0|37=EXCH1072012-04-13 00:00:00.000-0300|38=1000|39=0|44=34.23|54=1|55=VALE5|59=0|60=20120413-18:20:44.477|75=20120413|150=0|151=1000|10=225|
8=FIX.4.2|9=229|35=8|34=155|49=BOVESPA|52=20120413-18:20:44.522|56=ALPHA|1=ABCDE|6=0|11=00108|14=0|17=NBOV105|20=0|37=EXCH1082012-04-13 00:00:00.000-0300|38=500|39=0|44=34.23|54=2|55=PETR3|59=0|60=20120413-18:20:44.477|75=20120413|150=0|151=500|10=166|
8=FIX.4.2|9=230|35=8|34=156|49=BOVESPA|52=20120413-18:20:44.522|56=ALPHA|1=012345|6=0|11=00109|14=0|17=NBOV106|20=0|37=EXCH1092012-04-13 00:00:00.000-0300|38=500|39=0|44=21.34|54=2|55=PDGR3|59=0|60=20120413-18:20:44.477|75=20120413|150=0|151=500|10=114|
8=FIX.4.2|9=230|35=8|34=157|49=BOVESPA|52=20120413-18:20:44.523|56=ALPHA|1=012346|6=0|11=00110|14=0|17=NBOV107|20=0|37=EXCH1102012-04-13 00:00:00.000-0300|38=100|39=0|44=32.12|54=2|55=PDGR3|59=0|60=20120413-18:20:44.478|75=20120413|150=0|151=100|10=093|
8=FIX.4.2|9=230|35=8|34=158|49=BOVESPA|52=20120413-18:20:44.523|56=ALPHA|1=012347|6=0|11=00111|14=0|17=NBOV108|20=0|37=EXCH1112012-04-13 00:00:00.000-0300|38=300|39=0|44=32.12|54=1|55=PDGR3|59=0|60=20120413-18:20:44.478|75=20120413|150=0|151=300|10=101|
8=FIX.4.2|9=230|35=8|34=159|49=BOVESPA|52=20120413-18:20:44.524|56=ALPHA|1=012348|6=0|11=00112|14=0|17=NBOV109|20=0|37=EXCH1122012-04-13 00:00:00.000-0300|38=500|39=0|44=32.15|54=2|55=RSID3|59=0|60=20120413-18:20:44.478|75=20120413|150=0|151=500|10=120|
8=FIX.4.2|9=232|35=8|34=160|49=BOVESPA|52=20120413-18:20:44.524|56=ALPHA|1=012349|6=0|11=00113|14=0|17=NBOV110|20=0|37=EXCH1132012-04-13 00:00:00.000-0300|38=1000|39=0|44=12.33|54=1|55=RSID3|59=0|60=20120413-18:20:44.478|75=20120413|150=0|151=1000|10=194|
8=FIX.4.2|9=227|35=8|34=161|49=BOVESPA|52=20120413-18:20:44.525|56=ALPHA|1=012345|6=0|11=00114|14=0|17=NBOV111|20=0|37=EXCH1142012-04-13 00:00:00.000-0300|38=500|39=0|44=25|54=1|55=BBDC4|59=0|60=20120413-18:20:44.478|75=20120413|150=0|151=500|10=185|
8=FIX.4.2|9=229|35=8|34=162|49=BOVESPA|52=20120413-18:20:44.526|56=ALPHA|1=ABCDE|6=0|11=00115|14=0|17=NBOV112|20=0|37=EXCH1152012-04-13 00:00:00.000-0300|38=500|39=0|44=34.23|54=1|55=PETR4|59=0|60=20120413-18:20:44.478|75=20120413|150=0|151=500|10=163|
8=FIX.4.2|9=229|35=8|34=163|49=BOVESPA|52=20120413-18:20:44.527|56=ALPHA|1=ABCDE|6=0|11=00116|14=0|17=NBOV113|20=0|37=EXCH1162012-04-13 00:00:00.000-0300|38=100|39=0|44=34.23|54=2|55=VALE5|59=0|60=20120413-18:20:44.479|75=20120413|150=0|151=100|10=144|
8=FIX.4.2|9=230|35=8|34=164|49=BOVESPA|52=20120413-18:20:44.528|56=ALPHA|1=012345|6=0|11=00117|14=0|17=NBOV114|20=0|37=EXCH1172012-04-13 00:00:00.000-0300|38=300|39=0|44=21.34|54=2|55=VALE5|59=0|60=20120413-18:20:44.479|75=20120413|150=0|151=300|10=111|
8=FIX.4.2|9=230|35=8|34=165|49=BOVESPA|52=20120413-18:20:44.528|56=ALPHA|1=012346|6=0|11=00118|14=0|17=NBOV115|20=0|37=EXCH1182012-04-13 00:00:00.000-0300|38=500|39=0|44=32.12|54=1|55=PETR3|59=0|60=20120413-18:20:44.479|75=20120413|150=0|151=500|10=134|
8=FIX.4.2|9=230|35=8|34=166|49=BOVESPA|52=20120413-18:20:44.528|56=ALPHA|1=012347|6=0|11=00119|14=0|17=NBOV116|20=0|37=EXCH1192012-04-13 00:00:00.000-0300|38=500|39=0|44=32.12|54=2|55=PDGR3|59=0|60=20120413-18:20:44.479|75=20120413|150=0|151=500|10=126|
8=FIX.4.2|9=230|35=8|34=167|49=BOVESPA|52=20120413-18:20:44.529|56=ALPHA|1=012348|6=0|11=00120|14=0|17=NBOV117|20=0|37=EXCH1202012-04-13 00:00:00.000-0300|38=100|39=0|44=32.15|54=2|55=PDGR3|59=0|60=20120413-18:20:44.479|75=20120413|150=0|151=100|10=109|
8=FIX.4.2|9=232|35=8|34=168|49=BOVESPA|52=20120413-18:20:44.529|56=ALPHA|1=012349|6=0|11=00121|14=0|17=NBOV118|20=0|37=EXCH1212012-04-13 00:00:00.000-0300|38=4500|39=0|44=12.33|54=2|55=PDGR3|59=0|60=20120413-18:20:44.479|75=20120413|150=0|151=4500|10=226|
8=FIX.4.2|9=231|35=8|34=169|49=BOVESPA|52=20120413-18:20:44.530|56=ALPHA|1=012350|6=0|11=00122|14=0|17=NBOV119|20=0|37=EXCH1222012-04-13 00:00:00.000-0300|38=1100|39=0|44=12.4|54=1|55=RSID3|59=0|60=20120413-18:20:44.480|75=20120413|150=0|151=1100|10=145|
8=FIX.4.2|9=232|35=8|34=170|49=BOVESPA|52=20120413-18:20:44.530|56=ALPHA|1=012351|6=0|11=00123|14=0|17=NBOV120|20=0|37=EXCH1232012-04-13 00:00:00.000-0300|38=1000|39=0|44=23.45|54=2|55=RSID3|59=0|60=20120413-18:20:44.480|75=20120413|150=0|151=1000|10=187|
8=FIX.4.2|9=227|35=8|34=171|49=BOVESPA|52=20120413-18:20:44.531|56=ALPHA|1=012345|6=0|11=00124|14=0|17=NBOV121|20=0|37=EXCH1242012-04-13 00:00:00.000-0300|38=500|39=0|44=25|54=1|55=BBDC4|59=0|60=20120413-18:20:44.480|75=20120413|150=0|151=500|10=179|
8=FIX.4.2|9=229|35=8|34=172|49=BOVESPA|52=20120413-18:20:44.531|56=ALPHA|1=ABCDE|6=0|11=00125|14=0|17=NBOV122|20=0|37=EXCH1252012-04-13 00:00:00.000-0300|38=500|39=0|44=34.23|54=1|55=GOLL4|59=0|60=20120413-18:20:44.480|75=20120413|150=0|151=500|10=143|
8=FIX.4.2|9=229|35=8|34=173|49=BOVESPA|52=20120413-18:20:44.531|56=ALPHA|1=ABCDE|6=0|11=00126|14=0|17=NBOV123|20=0|37=EXCH1262012-04-13 00:00:00.000-0300|38=100|39=0|44=34.23|54=2|55=TAMM4|59=0|60=20120413-18:20:44.481|75=20120413|150=0|151=100|10=142|
8=FIX.4.2|9=230|35=8|34=174|49=BOVESPA|52=20120413-18:20:44.532|56=ALPHA|1=012345|6=0|11=00127|14=0|17=NBOV124|20=0|37=EXCH1272012-04-13 00:00:00.000-0300|38=300|39=0|44=21.34|54=2|55=VALE3|59=0|60=20120413-18:20:44.482|75=20120413|150=0|151=300|10=102|
8=FIX.4.2|9=230|35=8|34=175|49=BOVESPA|52=20120413-18:20:44.533|56=ALPHA|1=012346|6=0|11=00128|14=0|17=NBOV125|20=0|37=EXCH1282012-04-13 00:00:00.000-0300|38=500|39=0|44=32.12|54=2|55=VALE5|59=0|60=20120413-18:20:44.482|75=20120413|150=0|151=500|10=112|
8=FIX.4.2|9=230|35=8|34=176|49=BOVESPA|52=20120413-18:20:44.534|56=ALPHA|1=012347|6=0|11=00129|14=0|17=NBOV126|20=0|37=EXCH1292012-04-13 00:00:00.000-0300|38=500|39=0|44=32.12|54=1|55=ELET3|59=0|60=20120413-18:20:44.482|75=20120413|150=0|151=500|10=117|
8=FIX.4.2|9=57|35=0|34=177|49=ALPHA|52=20120413-18:21:14.995|56=BOVESPA|10=191|
8=FIX.4.2|9=57|35=0|34=177|49=BOVESPA|52=20120413-18:21:14.997|56=ALPHA|10=193|
8=FIX.4.2|9=57|35=0|34=178|49=BOVESPA|52=20120413-18:21:45.328|56=ALPHA|10=186|
8=FIX.4.2|9=57|35=0|34=178|49=ALPHA|52=20120413-18:21:45.330|56=BOVESPA|10=179|
8=FIX.4.2|9=57|35=0|34=179|49=ALPHA|52=20120413-18:22:15.991|56=BOVESPA|10=191|
8=FIX.4.2|9=57|35=0|34=179|49=BOVESPA|52=20120413-18:22:15.992|56=ALPHA|10=192|
8=FIX.4.2|9=57|35=0|34=180|49=BOVESPA|52=20120413-18:22:46.324|56=ALPHA|10=177|
8=FIX.4.2|9=57|35=0|34=180|49=ALPHA|52=20120413-18:22:46.326|56=BOVESPA|10=179|
8=FIX.4.2|9=57|35=0|34=181|49=ALPHA|52=20120413-18:23:16.988|56=BOVESPA|10=192|
8=FIX.4.2|9=57|35=0|34=181|49=BOVESPA|52=20120413-18:23:16.989|56=ALPHA|10=193|
8=FIX.4.2|9=57|35=0|34=182|49=BOVESPA|52=20120413-18:23:47.321|56=ALPHA|10=178|
8=FIX.4.2|9=57|35=0|34=182|49=ALPHA|52=20120413-18:23:47.322|56=BOVESPA|10=179|
8=FIX.4.2|9=143|35=D|34=183|49=ALPHA|52=20120413-18:24:13.495|56=BOVESPA|1=012345|11=00001|21=1|38=1000|40=2|44=25|54=1|55=PETR4|59=0|60=20120413-21:24:13.494|10=222|
8=FIX.4.2|9=144|35=D|34=184|49=ALPHA|52=20120413-18:24:13.496|56=BOVESPA|1=ABCDE|11=00002|21=1|38=500|40=2|44=34.23|54=2|55=VALE5|59=0|60=20120413-21:24:13.496|10=090|
8=FIX.4.2|9=129|35=F|34=185|49=ALPHA|52=20120413-18:24:13.497|56=BOVESPA|1=ABCDE|11=00003|38=500|41=00002|54=2|55=VALE5|60=20120413-21:24:13.496|10=213|
8=FIX.4.2|9=145|35=D|34=186|49=ALPHA|52=20120413-18:24:13.498|56=BOVESPA|1=012345|11=00004|21=1|38=100|40=2|44=21.34|54=1|55=PETR3|59=0|60=20120413-21:24:13.497|10=076|
8=FIX.4.2|9=145|35=D|34=187|49=ALPHA|52=20120413-18:24:13.498|56=BOVESPA|1=012346|11=00005|21=1|38=300|40=2|44=32.12|54=2|55=PDGR3|59=0|60=20120413-21:24:13.498|10=067|
8=FIX.4.2|9=213|35=8|34=183|49=BOVESPA|52=20120413-18:24:13.500|56=ALPHA|1=ABCDE|6=0|11=00002|14=0|17=CBOV2|20=1|37=EXCH1332012-04-13 00:00:00.000-0300|38=500|39=4|54=2|55=VALE5|60=20120413-18:24:13.499|75=20120413|150=4|151=500|10=164|
8=FIX.4.2|9=129|35=9|34=184|49=BOVESPA|52=20120413-18:24:13.500|56=ALPHA|11=00003|37=EXCH32012-04-13 00:00:00.000-0300|39=4|41=00002|102=0|434=1|10=067|
8=FIX.4.2|9=154|35=G|34=188|49=ALPHA|52=20120413-18:24:13.503|56=BOVESPA|1=012347|11=00006|21=1|38=500|40=2|41=00005|44=32.12|54=2|55=PDGR3|59=0|60=20120413-21:24:13.499|10=215|
8=FIX.4.2|9=154|35=G|34=189|49=ALPHA|52=20120413-18:24:13.504|56=BOVESPA|1=012348|11=00007|21=1|38=500|40=2|41=00006|44=32.15|54=2|55=PDGR3|59=0|60=20120413-21:24:13.499|10=223|
8=FIX.4.2|9=145|35=D|34=190|49=ALPHA|52=20120413-18:24:13.505|56=BOVESPA|1=012349|11=00008|21=1|38=100|40=2|44=12.33|54=1|55=RSID3|59=0|60=20120413-21:24:13.501|10=044|
8=FIX.4.2|9=145|35=D|34=191|49=ALPHA|52=20120413-18:24:13.505|56=BOVESPA|1=012350|11=00009|21=1|38=4500|40=2|44=12.4|54=2|55=RSID3|59=0|60=20120413-21:24:13.501|10=045|
8=FIX.4.2|9=146|35=D|34=192|49=ALPHA|52=20120413-18:24:13.505|56=BOVESPA|1=012351|11=00010|21=1|38=1100|40=2|44=23.45|54=1|55=BBDC4|59=0|60=20120413-21:24:13.502|10=050|
8=FIX.4.2|9=143|35=D|34=193|49=ALPHA|52=20120413-18:24:13.506|56=BOVESPA|1=012345|11=00011|21=1|38=1000|40=2|44=25|54=1|55=PETR4|59=0|60=20120413-21:24:13.502|10=207|
8=FIX.4.2|9=144|35=D|34=194|49=ALPHA|52=20120413-18:24:13.506|56=BOVESPA|1=ABCDE|11=00012|21=1|38=500|40=2|44=34.23|54=2|55=VALE5|59=0|60=20120413-21:24:13.503|10=073|
8=FIX.4.2|9=144|35=D|34=195|49=ALPHA|52=20120413-18:24:13.506|56=BOVESPA|1=ABCDE|11=00013|21=1|38=500|40=2|44=34.23|54=2|55=VALE5|59=0|60=20120413-21:24:13.503|10=075|
8=FIX.4.2|9=145|35=D|34=196|49=ALPHA|52=20120413-18:24:13.507|56=BOVESPA|1=012345|11=00014|21=1|38=100|40=2|44=21.34|54=1|55=PETR3|59=0|60=20120413-21:24:13.504|10=058|
8=FIX.4.2|9=145|35=D|34=197|49=ALPHA|52=20120413-18:24:13.507|56=BOVESPA|1=012346|11=00015|21=1|38=300|40=2|44=32.12|54=2|55=PDGR3|59=0|60=20120413-21:24:13.505|10=049|
8=FIX.4.2|9=145|35=D|34=198|49=ALPHA|52=20120413-18:24:13.507|56=BOVESPA|1=012347|11=00016|21=1|38=500|40=2|44=32.12|54=2|55=PDGR3|59=0|60=20120413-21:24:13.506|10=055|
8=FIX.4.2|9=145|35=D|34=199|49=ALPHA|52=20120413-18:24:13.507|56=BOVESPA|1=012348|11=00017|21=1|38=500|40=2|44=32.15|54=2|55=PDGR3|59=0|60=20120413-21:24:13.507|10=062|
8=FIX.4.2|9=145|35=D|34=200|49=ALPHA|52=20120413-18:24:13.892|56=BOVESPA|1=012349|11=00018|21=1|38=100|40=2|44=12.33|54=1|55=RSID3|59=0|60=20120413-21:24:13.892|10=059|
8=FIX.4.2|9=145|35=D|34=201|49=ALPHA|52=20120413-18:24:13.893|56=BOVESPA|1=012350|11=00019|21=1|38=4500|40=2|44=12.4|54=2|55=RSID3|59=0|60=20120413-21:24:13.892|10=061|
8=FIX.4.2|9=146|35=D|34=202|49=ALPHA|52=20120413-18:24:13.893|56=BOVESPA|1=012351|11=00020|21=1|38=1100|40=2|44=23.45|54=1|55=BBDC4|59=0|60=20120413-21:24:13.893|10=066|
8=FIX.4.2|9=143|35=D|34=203|49=ALPHA|52=20120413-18:24:13.894|56=BOVESPA|1=012345|11=00021|21=1|38=1000|40=2|44=25|54=1|55=GOLL4|59=0|60=20120413-21:24:13.893|10=210|
8=FIX.4.2|9=144|35=D|34=204|49=ALPHA|52=20120413-18:24:13.894|56=BOVESPA|1=ABCDE|11=00022|21=1|38=500|40=2|44=34.23|54=1|55=TAMM4|59=0|60=20120413-21:24:13.893|10=093|
8=FIX.4.2|9=144|35=D|34=205|49=ALPHA|52=20120413-18:24:13.894|56=BOVESPA|1=ABCDE|11=00023|21=1|38=500|40=2|44=34.23|54=2|55=VALE3|59=0|60=20120413-21:24:13.893|10=088|
8=FIX.4.2|9=145|35=D|34=206|49=ALPHA|52=20120413-18:24:13.895|56=BOVESPA|1=012345|11=00024|21=1|38=100|40=2|44=21.34|54=2|55=VALE5|59=0|60=20120413-21:24:13.894|10=057|
8=FIX.4.2|9=145|35=D|34=207|49=ALPHA|52=20120413-18:24:13.895|56=BOVESPA|1=012346|11=00025|21=1|38=300|40=2|44=32.12|54=1|55=ELET3|59=0|60=20120413-21:24:13.894|10=059|
8=FIX.4.2|9=145|35=D|34=208|49=ALPHA|52=20120413-18:24:13.896|56=BOVESPA|1=012347|11=00026|21=1|38=500|40=2|44=32.12|54=2|55=TNLP4|59=0|60=20120413-21:24:13.894|10=087|
8=FIX.4.2|9=145|35=D|34=209|49=ALPHA|52=20120413-18:24:13.896|56=BOVESPA|1=012348|11=00027|21=1|38=500|40=2|44=32.15|54=2|55=PETR4|59=0|60=20120413-21:24:13.895|10=091|
8=FIX.4.2|9=145|35=D|34=210|49=ALPHA|52=20120413-18:24:13.897|56=BOVESPA|1=012349|11=00028|21=1|38=100|40=2|44=12.33|54=2|55=VALE5|59=0|60=20120413-21:24:13.895|10=062|
8=FIX.4.2|9=145|35=D|34=211|49=ALPHA|52=20120413-18:24:13.897|56=BOVESPA|1=012350|11=00029|21=1|38=4500|40=2|44=12.4|54=1|55=VALE5|59=0|60=20120413-21:24:13.895|10=061|
8=FIX.4.2|9=146|35=D|34=212|49=ALPHA|52=20120413-18:24:13.897|56=BOVESPA|1=012351|11=00030|21=1|38=1100|40=2|44=23.45|54=1|55=PETR3|59=0|60=20120413-21:24:13.896|10=122|
8=FIX.4.2|9=143|35=D|34=213|49=ALPHA|52=20120413-18:24:13.897|56=BOVESPA|1=012345|11=00031|21=1|38=1000|40=2|44=25|54=1|55=PDGR3|59=0|60=20120413-21:24:13.896|10=216|
8=FIX.4.2|9=144|35=D|34=214|49=ALPHA|52=20120413-18:24:13.903|56=BOVESPA|1=ABCDE|11=00032|21=1|38=500|40=2|44=34.23|54=2|55=PDGR3|59=0|60=20120413-21:24:13.896|10=087|
8=FIX.4.2|9=144|35=D|34=215|49=ALPHA|52=20120413-18:24:13.903|56=BOVESPA|1=ABCDE|11=00033|21=1|38=500|40=2|44=34.23|54=2|55=PDGR3|59=0|60=20120413-21:24:13.898|10=091|
8=FIX.4.2|9=145|35=D|34=216|49=ALPHA|52=20120413-18:24:13.907|56=BOVESPA|1=012345|11=00034|21=1|38=100|40=2|44=21.34|54=1|55=RSID3|59=0|60=20120413-21:24:13.898|10=064|
8=FIX.4.2|9=145|35=D|34=217|49=ALPHA|52=20120413-18:24:13.908|56=BOVESPA|1=012346|11=00035|21=1|38=300|40=2|44=32.12|54=1|55=RSID3|59=0|60=20120413-21:24:13.898|10=068|
8=FIX.4.2|9=145|35=D|34=218|49=ALPHA|52=20120413-18:24:13.908|56=BOVESPA|1=012347|11=00036|21=1|38=500|40=2|44=32.12|54=1|55=BBDC4|59=0|60=20120413-21:24:13.899|10=036|
8=FIX.4.2|9=145|35=D|34=219|49=ALPHA|52=20120413-18:24:13.908|56=BOVESPA|1=012348|11=00037|21=1|38=500|40=2|44=32.15|54=2|55=PETR4|59=0|60=20120413-21:24:13.899|10=091|
8=FIX.4.2|9=145|35=D|34=220|49=ALPHA|52=20120413-18:24:13.909|56=BOVESPA|1=012349|11=00038|21=1|38=100|40=2|44=12.33|54=2|55=VALE5|59=0|60=20120413-21:24:13.899|10=062|
8=FIX.4.2|9=145|35=D|34=221|49=ALPHA|52=20120413-18:24:13.910|56=BOVESPA|1=012350|11=00039|21=1|38=4500|40=2|44=12.4|54=1|55=VALE5|59=0|60=20120413-21:24:13.901|10=037|
8=FIX.4.2|9=146|35=D|34=222|49=ALPHA|52=20120413-18:24:13.911|56=BOVESPA|1=012351|11=00040|21=1|38=1100|40=2|44=23.45|54=2|55=PETR3|59=0|60=20120413-21:24:13.901|10=099|
8=FIX.4.2|9=143|35=D|34=223|49=ALPHA|52=20120413-18:24:13.911|56=BOVESPA|1=012345|11=00041|21=1|38=1000|40=2|44=25|54=2|55=PDGR3|59=0|60=20120413-21:24:13.901|10=193|
8=FIX.4.2|9=144|35=D|34=224|49=ALPHA|52=20120413-18:24:13.912|56=BOVESPA|1=ABCDE|11=00042|21=1|38=500|40=2|44=34.23|54=2|55=PDGR3|59=0|60=20120413-21:24:13.901|10=076|
8=FIX.4.2|9=144|35=D|34=225|49=ALPHA|52=20120413-18:24:13.912|56=BOVESPA|1=ABCDE|11=00043|21=1|38=500|40=2|44=34.23|54=1|55=PDGR3|59=0|60=20120413-21:24:13.902|10=078|
8=FIX.4.2|9=145|35=D|34=226|49=ALPHA|52=20120413-18:24:13.913|56=BOVESPA|1=012345|11=00044|21=1|38=100|40=2|44=21.34|54=2|55=RSID3|59=0|60=20120413-21:24:13.902|10=050|
8=FIX.4.2|9=145|35=D|34=227|49=ALPHA|52=20120413-18:24:13.914|56=BOVESPA|1=012346|11=00045|21=1|38=300|40=2|44=32.12|54=1|55=RSID3|59=0|60=20120413-21:24:13.902|10=053|
8=FIX.4.2|9=145|35=D|34=228|49=ALPHA|52=20120413-18:24:13.914|56=BOVESPA|1=012347|11=00046|21=1|38=500|40=2|44=32.12|54=1|55=BBDC4|59=0|60=20120413-21:24:13.903|10=021|
8=FIX.4.2|9=145|35=D|34=229|49=ALPHA|52=20120413-18:24:13.915|56=BOVESPA|1=012348|11=00047|21=1|38=500|40=2|44=32.15|54=2|55=GOLL4|59=0|60=20120413-21:24:13.903|10=064|
8=FIX.4.2|9=145|35=D|34=230|49=ALPHA|52=20120413-18:24:13.915|56=BOVESPA|1=012349|11=00048|21=1|38=100|40=2|44=12.33|54=2|55=TAMM4|59=0|60=20120413-21:24:13.903|10=053|
8=FIX.4.2|9=145|35=D|34=231|49=ALPHA|52=20120413-18:24:13.916|56=BOVESPA|1=012350|11=00049|21=1|38=4500|40=2|44=12.4|54=1|55=VALE3|59=0|60=20120413-21:24:13.903|10=045|
8=FIX.4.2|9=146|35=D|34=232|49=ALPHA|52=20120413-18:24:13.917|56=BOVESPA|1=012351|11=00050|21=1|38=1100|40=2|44=23.45|54=2|55=VALE5|59=0|60=20120413-21:24:13.904|10=093|
8=FIX.4.2|9=143|35=D|34=233|49=ALPHA|52=20120413-18:24:13.917|56=BOVESPA|1=012345|11=00051|21=1|38=1000|40=2|44=25|54=2|55=ELET3|59=0|60=20120413-21:24:13.904|10=201|
8=FIX.4.2|9=144|35=D|34=234|49=ALPHA|52=20120413-18:24:13.918|56=BOVESPA|1=ABCDE|11=00052|21=1|38=500|40=2|44=34.23|54=2|55=TNLP4|59=0|60=20120413-21:24:13.904|10=105|
8=FIX.4.2|9=144|35=D|34=235|49=ALPHA|52=20120413-18:24:13.918|56=BOVESPA|1=ABCDE|11=00053|21=1|38=500|40=2|44=34.23|54=1|55=PETR4|59=0|60=20120413-21:24:13.905|10=104|
8=FIX.4.2|9=146|35=D|34=236|49=ALPHA|52=20120413-18:24:13.919|56=BOVESPA|1=012345|11=00054|21=1|38=1000|40=2|44=21.34|54=2|55=VALE5|59=0|60=20120413-21:24:13.905|10=102|
8=FIX.4.2|9=145|35=D|34=237|49=ALPHA|52=20120413-18:24:13.919|56=BOVESPA|1=012346|11=00055|21=1|38=500|40=2|44=32.12|54=1|55=VALE5|59=0|60=20120413-21:24:13.905|10=057|
8=FIX.4.2|9=145|35=D|34=238|49=ALPHA|52=20120413-18:24:13.922|56=BOVESPA|1=012347|11=00056|21=1|38=500|40=2|44=32.12|54=1|55=PETR3|59=0|60=20120413-21:24:13.905|10=071|
8=FIX.4.2|9=145|35=D|34=239|49=ALPHA|52=20120413-18:24:13.923|56=BOVESPA|1=012348|11=00057|21=1|38=100|40=2|44=32.15|54=1|55=PDGR3|59=0|60=20120413-21:24:13.906|10=061|
8=FIX.4.2|9=145|35=D|34=240|49=ALPHA|52=20120413-18:24:13.923|56=BOVESPA|1=012349|11=00058|21=1|38=300|40=2|44=12.33|54=2|55=PDGR3|59=0|60=20120413-21:24:13.906|10=056|
8=FIX.4.2|9=142|35=D|34=241|49=ALPHA|52=20120413-18:24:13.923|56=BOVESPA|1=012345|11=00059|21=1|38=500|40=2|44=25|54=2|55=PDGR3|59=0|60=20120413-21:24:13.906|10=165|
8=FIX.4.2|9=144|35=D|34=242|49=ALPHA|52=20120413-18:24:13.923|56=BOVESPA|1=ABCDE|11=00060|21=1|38=500|40=2|44=34.23|54=1|55=RSID3|59=0|60=20120413-21:24:13.907|10=088|
8=FIX.4.2|9=144|35=D|34=243|49=ALPHA|52=20120413-18:24:13.924|56=BOVESPA|1=ABCDE|11=00061|21=1|38=100|40=2|44=34.23|54=2|55=RSID3|59=0|60=20120413-21:24:13.907|10=088|
8=FIX.4.2|9=146|35=D|34=244|49=ALPHA|52=20120413-18:24:13.924|56=BOVESPA|1=012345|11=00062|21=1|38=4500|40=2|44=21.34|54=1|55=BBDC4|59=0|60=20120413-21:24:13.907|10=075|
8=FIX.4.2|9=146|35=D|34=245|49=ALPHA|52=20120413-18:24:13.924|56=BOVESPA|1=012346|11=00063|21=1|38=1100|40=2|44=32.12|54=1|55=PETR4|59=0|60=20120413-21:24:13.907|10=117|
8=FIX.4.2|9=146|35=D|34=246|49=ALPHA|52=20120413-18:24:13.924|56=BOVESPA|1=012347|11=00064|21=1|38=1000|40=2|44=32.12|54=2|55=VALE5|59=0|60=20120413-21:24:13.908|10=103|
8=FIX.4.2|9=145|35=D|34=247|49=ALPHA|52=20120413-18:24:13.925|56=BOVESPA|1=012348|11=00065|21=1|38=500|40=2|44=32.15|54=2|55=VALE5|59=0|60=20120413-21:24:13.908|10=065|
8=FIX.4.2|9=145|35=D|34=248|49=ALPHA|52=20120413-18:24:13.925|56=BOVESPA|1=012349|11=00066|21=1|38=500|40=2|44=12.33|54=1|55=PETR3|59=0|60=20120413-21:24:13.908|10=082|
8=FIX.4.2|9=144|35=D|34=249|49=ALPHA|52=20120413-18:24:13.925|56=BOVESPA|1=012350|11=00067|21=1|38=100|40=2|44=12.4|54=2|55=PDGR3|59=0|60=20120413-21:24:13.909|10=009|
8=FIX.4.2|9=145|35=D|34=250|49=ALPHA|52=20120413-18:24:13.926|56=BOVESPA|1=012351|11=00068|21=1|38=300|40=2|44=23.45|54=2|55=PDGR3|59=0|60=20120413-21:24:13.912|10=056|
8=FIX.4.2|9=142|35=D|34=251|49=ALPHA|52=20120413-18:24:13.926|56=BOVESPA|1=012345|11=00069|21=1|38=500|40=2|44=25|54=2|55=PDGR3|59=0|60=20120413-21:24:13.912|10=167|
8=FIX.4.2|9=144|35=D|34=252|49=ALPHA|52=20120413-18:24:13.926|56=BOVESPA|1=ABCDE|11=00070|21=1|38=500|40=2|44=34.23|54=1|55=RSID3|59=0|60=20120413-21:24:13.913|10=090|
8=FIX.4.2|9=145|35=D|34=253|49=ALPHA|52=20120413-18:24:13.926|56=BOVESPA|1=ABCDE|11=00071|21=1|38=1000|40=2|44=34.23|54=1|55=RSID3|59=0|60=20120413-21:24:13.914|10=138|
8=FIX.4.2|9=145|35=D|34=254|49=ALPHA|52=20120413-18:24:13.927|56=BOVESPA|1=012345|11=00072|21=1|38=500|40=2|44=21.34|54=2|55=BBDC4|59=0|60=20120413-21:24:13.914|10=026|
8=FIX.4.2|9=142|35=D|34=255|49=ALPHA|52=20120413-18:24:13.927|56=BOVESPA|1=012345|11=00073|21=1|38=500|40=2|44=25|54=2|55=GOLL4|59=0|60=20120413-21:24:13.914|10=171|
8=FIX.4.2|9=144|35=D|34=256|49=ALPHA|52=20120413-18:24:13.927|56=BOVESPA|1=ABCDE|11=00074|21=1|38=100|40=2|44=34.23|54=1|55=TAMM4|59=0|60=20120413-21:24:13.915|10=095|
8=FIX.4.2|9=144|35=D|34=257|49=ALPHA|52=20120413-18:24:13.928|56=BOVESPA|1=ABCDE|11=00075|21=1|38=300|40=2|44=34.23|54=1|55=VALE3|59=0|60=20120413-21:24:13.915|10=092|
8=FIX.4.2|9=145|35=D|34=258|49=ALPHA|52=20120413-18:24:13.928|56=BOVESPA|1=012345|11=00076|21=1|38=500|40=2|44=21.34|54=2|55=VALE5|59=0|60=20120413-21:24:13.915|10=066|
8=FIX.4.2|9=145|35=D|34=259|49=ALPHA|52=20120413-18:24:13.928|56=BOVESPA|1=012346|11=00077|21=1|38=500|40=2|44=32.12|54=2|55=ELET3|59=0|60=20120413-21:24:13.916|10=068|
8=FIX.4.2|9=145|35=D|34=260|49=ALPHA|52=20120413-18:24:13.929|56=BOVESPA|1=012347|11=00078|21=1|38=100|40=2|44=32.12|54=1|55=TNLP4|59=0|60=20120413-21:24:13.916|10=079|
8=FIX.4.2|9=146|35=D|34=261|49=ALPHA|52=20120413-18:24:13.929|56=BOVESPA|1=012348|11=00079|21=1|38=4500|40=2|44=32.15|54=2|55=PETR4|59=0|60=20120413-21:24:13.916|10=140|
8=FIX.4.2|9=146|35=D|34=262|49=ALPHA|52=20120413-18:24:13.929|56=BOVESPA|1=012349|11=00080|21=1|38=1100|40=2|44=12.33|54=2|55=VALE5|59=0|60=20120413-21:24:13.917|10=108|
8=FIX.4.2|9=145|35=D|34=263|49=ALPHA|52=20120413-18:24:13.930|56=BOVESPA|1=012350|11=00081|21=1|38=1000|40=2|44=12.4|54=2|55=VALE5|59=0|60=20120413-21:24:13.917|10=042|
8=FIX.4.2|9=142|35=D|34=264|49=ALPHA|52=20120413-18:24:13.930|56=BOVESPA|1=012345|11=00082|21=1|38=500|40=2|44=25|54=1|55=PETR3|59=0|60=20120413-21:24:13.917|10=179|
8=FIX.4.2|9=144|35=D|34=265|49=ALPHA|52=20120413-18:24:13.931|56=BOVESPA|1=ABCDE|11=00083|21=1|38=500|40=2|44=34.23|54=2|55=PDGR3|59=0|60=20120413-21:24:13.917|10=094|
8=FIX.4.2|9=144|35=D|34=266|49=ALPHA|52=20120413-18:24:13.931|56=BOVESPA|1=ABCDE|11=00084|21=1|38=100|40=2|44=34.23|54=1|55=PDGR3|59=0|60=20120413-21:24:13.918|10=092|
8=FIX.4.2|9=145|35=D|34=267|49=ALPHA|52=20120413-18:24:13.937|56=BOVESPA|1=012345|11=00085|21=1|38=300|40=2|44=21.34|54=1|55=PDGR3|59=0|60=20120413-21:24:13.918|10=069|
8=FIX.4.2|9=145|35=D|34=268|49=ALPHA|52=20120413-18:24:13.937|56=BOVESPA|1=012346|11=00086|21=1|38=500|40=2|44=32.12|54=1|55=RSID3|59=0|60=20120413-21:24:13.918|10=077|
8=FIX.4.2|9=145|35=D|34=269|49=ALPHA|52=20120413-18:24:13.938|56=BOVESPA|1=012347|11=00087|21=1|38=500|40=2|44=32.12|54=2|55=RSID3|59=0|60=20120413-21:24:13.919|10=083|
8=FIX.4.2|9=145|35=D|34=270|49=ALPHA|52=20120413-18:24:13.938|56=BOVESPA|1=012348|11=00088|21=1|38=100|40=2|44=32.15|54=2|55=BBDC4|59=0|60=20120413-21:24:13.919|10=038|
8=FIX.4.2|9=146|35=D|34=271|49=ALPHA|52=20120413-18:24:13.938|56=BOVESPA|1=012349|11=00089|21=1|38=4500|40=2|44=12.33|54=1|55=PETR4|59=0|60=20120413-21:24:13.919|10=143|
8=FIX.4.2|9=145|35=D|34=272|49=ALPHA|52=20120413-18:24:13.939|56=BOVESPA|1=012350|11=00090|21=1|38=1100|40=2|44=12.4|54=2|55=VALE5|59=0|60=20120413-21:24:13.919|10=054|
8=FIX.4.2|9=146|35=D|34=273|49=ALPHA|52=20120413-18:24:13.939|56=BOVESPA|1=012351|11=00091|21=1|38=1000|40=2|44=23.45|54=2|55=VALE5|59=0|60=20120413-21:24:13.921|10=105|
8=FIX.4.2|9=142|35=D|34=274|49=ALPHA|52=20120413-18:24:13.939|56=BOVESPA|1=012345|11=00092|21=1|38=500|40=2|44=25|54=2|55=PETR3|59=0|60=20120413-21:24:13.921|10=186|
8=FIX.4.2|9=144|35=D|34=275|49=ALPHA|52=20120413-18:24:13.940|56=BOVESPA|1=ABCDE|11=00093|21=1|38=500|40=2|44=34.23|54=1|55=PDGR3|59=0|60=20120413-21:24:13.921|10=090|
8=FIX.4.2|9=144|35=D|34=276|49=ALPHA|52=20120413-18:24:13.940|56=BOVESPA|1=ABCDE|11=00094|21=1|38=100|40=2|44=34.23|54=2|55=PDGR3|59=0|60=20120413-21:24:13.922|10=090|
8=FIX.4.2|9=145|35=D|34=277|49=ALPHA|52=20120413-18:24:13.940|56=BOVESPA|1=012345|11=00095|21=1|38=300|40=2|44=21.34|54=1|55=PDGR3|59=0|60=20120413-21:24:13.923|10=061|
8=FIX.4.2|9=145|35=D|34=278|49=ALPHA|52=20120413-18:24:13.941|56=BOVESPA|1=012346|11=00096|21=1|38=500|40=2|44=32.12|54=1|55=RSID3|59=0|60=20120413-21:24:13.923|10=070|
8=FIX.4.2|9=145|35=D|34=279|49=ALPHA|52=20120413-18:24:13.941|56=BOVESPA|1=012347|11=00097|21=1|38=500|40=2|44=32.12|54=1|55=RSID3|59=0|60=20120413-21:24:13.923|10=073|
8=FIX.4.2|9=145|35=D|34=280|49=ALPHA|52=20120413-18:24:13.942|56=BOVESPA|1=012348|11=00098|21=1|38=100|40=2|44=32.15|54=2|55=BBDC4|59=0|60=20120413-21:24:13.923|10=030|
8=FIX.4.2|9=143|35=D|34=281|49=ALPHA|52=20120413-18:24:13.943|56=BOVESPA|1=012345|11=00099|21=1|38=4500|40=2|44=25|54=2|55=GOLL4|59=0|60=20120413-21:24:13.924|10=230|
8=FIX.4.2|9=145|35=D|34=282|49=ALPHA|52=20120413-18:24:13.944|56=BOVESPA|1=ABCDE|11=00100|21=1|38=1100|40=2|44=34.23|54=1|55=TAMM4|59=0|60=20120413-21:24:13.924|10=133|
8=FIX.4.2|9=145|35=D|34=283|49=ALPHA|52=20120413-18:24:13.944|56=BOVESPA|1=ABCDE|11=00101|21=1|38=1000|40=2|44=34.23|54=2|55=VALE3|59=0|60=20120413-21:24:13.924|10=127|
8=FIX.4.2|9=145|35=D|34=284|49=ALPHA|52=20120413-18:24:13.944|56=BOVESPA|1=012345|11=00102|21=1|38=500|40=2|44=21.34|54=2|55=VALE5|59=0|60=20120413-21:24:13.924|10=053|
8=FIX.4.2|9=145|35=D|34=285|49=ALPHA|52=20120413-18:24:13.945|56=BOVESPA|1=012346|11=00103|21=1|38=500|40=2|44=32.12|54=2|55=ELET3|59=0|60=20120413-21:24:13.925|10=056|
8=FIX.4.2|9=145|35=D|34=286|49=ALPHA|52=20120413-18:24:13.945|56=BOVESPA|1=012347|11=00104|21=1|38=100|40=2|44=32.12|54=1|55=TNLP4|59=0|60=20120413-21:24:13.925|10=075|
8=FIX.4.2|9=145|35=D|34=287|49=ALPHA|52=20120413-18:24:13.945|56=BOVESPA|1=012348|11=00105|21=1|38=300|40=2|44=32.15|54=2|55=PETR4|59=0|60=20120413-21:24:13.925|10=081|
8=FIX.4.2|9=142|35=D|34=288|49=ALPHA|52=20120413-18:24:13.946|56=BOVESPA|1=012345|11=00106|21=1|38=500|40=2|44=25|54=1|55=VALE5|59=0|60=20120413-21:24:13.926|10=172|
8=FIX.4.2|9=145|35=D|34=289|49=ALPHA|52=20120413-18:24:13.946|56=BOVESPA|1=ABCDE|11=00107|21=1|38=1000|40=2|44=34.23|54=1|55=VALE5|59=0|60=20120413-21:24:13.932|10=141|
8=FIX.4.2|9=144|35=D|34=290|49=ALPHA|52=20120413-18:24:13.947|56=BOVESPA|1=ABCDE|11=00108|21=1|38=500|40=2|44=34.23|54=2|55=PETR3|59=0|60=20120413-21:24:13.932|10=108|
8=FIX.4.2|9=145|35=D|34=291|49=ALPHA|52=20120413-18:24:13.947|56=BOVESPA|1=012345|11=00109|21=1|38=500|40=2|44=21.34|54=2|55=PDGR3|59=0|60=20120413-21:24:13.932|10=063|
8=FIX.4.2|9=145|35=D|34=292|49=ALPHA|52=20120413-18:24:13.948|56=BOVESPA|1=012346|11=00110|21=1|38=100|40=2|44=32.12|54=2|55=PDGR3|59=0|60=20120413-21:24:13.932|10=052|
8=FIX.4.2|9=145|35=D|34=293|49=ALPHA|52=20120413-18:24:13.948|56=BOVESPA|1=012347|11=00111|21=1|38=300|40=2|44=32.12|54=1|55=PDGR3|59=0|60=20120413-21:24:13.933|10=057|
8=FIX.4.2|9=145|35=D|34=294|49=ALPHA|52=20120413-18:24:13.948|56=BOVESPA|1=012348|11=00112|21=1|38=500|40=2|44=32.15|54=2|55=RSID3|59=0|60=20120413-21:24:13.933|10=071|
8=FIX.4.2|9=146|35=D|34=295|49=ALPHA|52=20120413-18:24:13.949|56=BOVESPA|1=012349|11=00113|21=1|38=1000|40=2|44=12.33|54=1|55=RSID3|59=0|60=20120413-21:24:13.933|10=117|
8=FIX.4.2|9=142|35=D|34=296|49=ALPHA|52=20120413-18:24:13.949|56=BOVESPA|1=012345|11=00114|21=1|38=500|40=2|44=25|54=1|55=BBDC4|59=0|60=20120413-21:24:13.934|10=142|
8=FIX.4.2|9=144|35=D|34=297|49=ALPHA|52=20120413-18:24:13.950|56=BOVESPA|1=ABCDE|11=00115|21=1|38=500|40=2|44=34.23|54=1|55=PETR4|59=0|60=20120413-21:24:13.934|10=109|
8=FIX.4.2|9=144|35=D|34=298|49=ALPHA|52=20120413-18:24:13.950|56=BOVESPA|1=ABCDE|11=00116|21=1|38=100|40=2|44=34.23|54=2|55=VALE5|59=0|60=20120413-21:24:13.934|10=090|
8=FIX.4.2|9=145|35=D|34=299|49=ALPHA|52=20120413-18:24:13.951|56=BOVESPA|1=012345|11=00117|21=1|38=300|40=2|44=21.34|54=2|55=VALE5|59=0|60=20120413-21:24:13.934|10=062|
8=FIX.4.2|9=145|35=D|34=300|49=ALPHA|52=20120413-18:24:13.951|56=BOVESPA|1=012346|11=00118|21=1|38=500|40=2|44=32.12|54=1|55=PETR3|59=0|60=20120413-21:24:13.935|10=064|
8=FIX.4.2|9=145|35=D|34=301|49=ALPHA|52=20120413-18:24:13.952|56=BOVESPA|1=012347|11=00119|21=1|38=500|40=2|44=32.12|54=2|55=PDGR3|59=0|60=20120413-21:24:13.935|10=055|
8=FIX.4.2|9=145|35=D|34=302|49=ALPHA|52=20120413-18:24:13.952|56=BOVESPA|1=012348|11=00120|21=1|38=100|40=2|44=32.15|54=2|55=PDGR3|59=0|60=20120413-21:24:13.935|10=048|
8=FIX.4.2|9=146|35=D|34=303|49=ALPHA|52=20120413-18:24:13.952|56=BOVESPA|1=012349|11=00121|21=1|38=4500|40=2|44=12.33|54=2|55=PDGR3|59=0|60=20120413-21:24:13.936|10=107|
8=FIX.4.2|9=145|35=D|34=304|49=ALPHA|52=20120413-18:24:13.953|56=BOVESPA|1=012350|11=00122|21=1|38=1100|40=2|44=12.4|54=1|55=RSID3|59=0|60=20120413-21:24:13.936|10=048|
8=FIX.4.2|9=146|35=D|34=305|49=ALPHA|52=20120413-18:24:13.954|56=BOVESPA|1=012351|11=00123|21=1|38=1000|40=2|44=23.45|54=2|55=RSID3|59=0|60=20120413-21:24:13.936|10=108|
8=FIX.4.2|9=142|35=D|34=306|49=ALPHA|52=20120413-18:24:13.954|56=BOVESPA|1=012345|11=00124|21=1|38=500|40=2|44=25|54=1|55=BBDC4|59=0|60=20120413-21:24:13.936|10=133|
8=FIX.4.2|9=144|35=D|34=307|49=ALPHA|52=20120413-18:24:13.956|56=BOVESPA|1=ABCDE|11=00125|21=1|38=500|40=2|44=34.23|54=1|55=GOLL4|59=0|60=20120413-21:24:13.937|10=098|
8=FIX.4.2|9=144|35=D|34=308|49=ALPHA|52=20120413-18:24:13.956|56=BOVESPA|1=ABCDE|11=00126|21=1|38=100|40=2|44=34.23|54=2|55=TAMM4|59=0|60=20120413-21:24:13.937|10=098|
8=FIX.4.2|9=145|35=D|34=309|49=ALPHA|52=20120413-18:24:13.956|56=BOVESPA|1=012345|11=00127|21=1|38=300|40=2|44=21.34|54=2|55=VALE3|59=0|60=20120413-21:24:13.938|10=062|
8=FIX.4.2|9=145|35=D|34=310|49=ALPHA|52=20120413-18:24:13.957|56=BOVESPA|1=012346|11=00128|21=1|38=500|40=2|44=32.12|54=2|55=VALE5|59=0|60=20120413-21:24:13.938|10=059|
8=FIX.4.2|9=145|35=D|34=311|49=ALPHA|52=20120413-18:24:13.957|56=BOVESPA|1=012347|11=00129|21=1|38=500|40=2|44=32.12|54=1|55=ELET3|59=0|60=20120413-21:24:13.938|10=061|
8=FIX.4.2|9=57|35=0|34=312|49=ALPHA|52=20120413-18:24:43.983|56=BOVESPA|10=184|
8=FIX.4.2|9=57|35=0|34=185|49=BOVESPA|52=20120413-18:24:43.984|56=ALPHA|10=193|
8=FIX.4.2|9=57|35=0|34=186|49=BOVESPA|52=20120413-18:25:14.316|56=ALPHA|10=182|
8=FIX.4.2|9=57|35=0|34=313|49=ALPHA|52=20120413-18:25:14.318|56=BOVESPA|10=176|
8=FIX.4.2|9=57|35=0|34=314|49=ALPHA|52=20120413-18:25:44.979|56=BOVESPA|10=193|
8=FIX.4.2|9=57|35=0|34=187|49=BOVESPA|52=20120413-18:25:44.980|56=ALPHA|10=193|
8=FIX.4.2|9=57|35=0|34=188|49=BOVESPA|52=20120413-18:26:15.313|56=ALPHA|10=183|
8=FIX.4.2|9=57|35=0|34=315|49=ALPHA|52=20120413-18:26:15.314|56=BOVESPA|10=176|
8=FIX.4.2|9=143|35=D|34=316|49=ALPHA|52=20120413-18:26:31.914|56=BOVESPA|1=012345|11=00001|21=1|38=1000|40=2|44=25|54=1|55=PETR4|59=0|60=20120413-21:26:31.894|10=224|
8=FIX.4.2|9=144|35=D|34=317|49=ALPHA|52=20120413-18:26:31.916|56=BOVESPA|1=ABCDE|11=00002|21=1|38=500|40=2|44=34.23|54=2|55=VALE5|59=0|60=20120413-21:26:31.915|10=085|
8=FIX.4.2|9=129|35=F|34=318|49=ALPHA|52=20120413-18:26:31.917|56=BOVESPA|1=ABCDE|11=00003|38=500|41=00002|54=2|55=VALE5|60=20120413-21:26:31.916|10=209|
8=FIX.4.2|9=145|35=D|34=319|49=ALPHA|52=20120413-18:26:31.917|56=BOVESPA|1=012345|11=00004|21=1|38=100|40=2|44=21.34|54=1|55=PETR3|59=0|60=20120413-21:26:31.916|10=070|
8=FIX.4.2|9=145|35=D|34=320|49=ALPHA|52=20120413-18:26:31.917|56=BOVESPA|1=012346|11=00005|21=1|38=300|40=2|44=32.12|54=2|55=PDGR3|59=0|60=20120413-21:26:31.916|10=051|
8=FIX.4.2|9=154|35=G|34=321|49=ALPHA|52=20120413-18:26:31.918|56=BOVESPA|1=012347|11=00006|21=1|38=500|40=2|41=00005|44=32.12|54=2|55=PDGR3|59=0|60=20120413-21:26:31.916|10=212|
8=FIX.4.2|9=154|35=G|34=322|49=ALPHA|52=20120413-18:26:31.918|56=BOVESPA|1=012348|11=00007|21=1|38=500|40=2|41=00006|44=32.15|54=2|55=PDGR3|59=0|60=20120413-21:26:31.917|10=220|
8=FIX.4.2|9=145|35=D|34=323|49=ALPHA|52=20120413-18:26:31.918|56=BOVESPA|1=012349|11=00008|21=1|38=100|40=2|44=12.33|54=1|55=RSID3|59=0|60=20120413-21:26:31.917|10=065|
8=FIX.4.2|9=145|35=D|34=324|49=ALPHA|52=20120413-18:26:31.919|56=BOVESPA|1=012350|11=00009|21=1|38=4500|40=2|44=12.4|54=2|55=RSID3|59=0|60=20120413-21:26:31.917|10=067|
8=FIX.4.2|9=146|35=D|34=325|49=ALPHA|52=20120413-18:26:31.919|56=BOVESPA|1=012351|11=00010|21=1|38=1100|40=2|44=23.45|54=1|55=BBDC4|59=0|60=20120413-21:26:31.918|10=072|
8=FIX.4.2|9=143|35=D|34=326|49=ALPHA|52=20120413-18:26:31.919|56=BOVESPA|1=012345|11=00011|21=1|38=1000|40=2|44=25|54=1|55=PETR4|59=0|60=20120413-21:26:31.918|10=228|
8=FIX.4.2|9=144|35=D|34=327|49=ALPHA|52=20120413-18:26:31.920|56=BOVESPA|1=ABCDE|11=00012|21=1|38=500|40=2|44=34.23|54=2|55=VALE5|59=0|60=20120413-21:26:31.918|10=085|
8=FIX.4.2|9=144|35=D|34=328|49=ALPHA|52=20120413-18:26:31.920|56=BOVESPA|1=ABCDE|11=00013|21=1|38=500|40=2|44=34.23|54=2|55=VALE5|59=0|60=20120413-21:26:31.918|10=087|
8=FIX.4.2|9=145|35=D|34=329|49=ALPHA|52=20120413-18:26:31.920|56=BOVESPA|1=012345|11=00014|21=1|38=100|40=2|44=21.34|54=1|55=PETR3|59=0|60=20120413-21:26:31.919|10=069|
8=FIX.4.2|9=145|35=D|34=330|49=ALPHA|52=20120413-18:26:31.921|56=BOVESPA|1=012346|11=00015|21=1|38=300|40=2|44=32.12|54=2|55=PDGR3|59=0|60=20120413-21:26:31.919|10=051|
8=FIX.4.2|9=145|35=D|34=331|49=ALPHA|52=20120413-18:26:31.921|56=BOVESPA|1=012347|11=00016|21=1|38=500|40=2|44=32.12|54=2|55=PDGR3|59=0|60=20120413-21:26:31.919|10=056|
