8=FIX.4.4|9=79|35=A|34=1|49=nest_umdf_bov|52=20120813-13:23:26.288|56=XPBSP|98=0|108=30|141=Y|10=047|8=FIX.4.4|9=61|35=0|34=2|49=nest_umdf_bov|52=20120813-13:23:56.944|56=XPBSP|10=210|8=FIX.4.4|9=61|35=0|34=3|49=nest_umdf_bov|52=20120813-13:24:27.273|56=XPBSP|10=205|8=FIX.4.4|9=61|35=0|34=4|49=nest_umdf_bov|52=20120813-13:24:57.273|56=XPBSP|10=209|8=FIX.4.4|9=61|35=0|34=5|49=nest_umdf_bov|52=20120813-13:25:27.273|56=XPBSP|10=208|8=FIX.4.4|9=61|35=0|34=6|49=nest_umdf_bov|52=20120813-13:25:57.273|56=XPBSP|10=212|8=FIX.4.4|9=61|35=0|34=7|49=nest_umdf_bov|52=20120813-13:26:27.273|56=XPBSP|10=211|8=FIX.4.4|9=61|35=0|34=8|49=nest_umdf_bov|52=20120813-13:26:57.273|56=XPBSP|10=215|8=FIX.4.4|9=61|35=0|34=9|49=nest_umdf_bov|52=20120813-13:27:27.289|56=XPBSP|10=221|8=FIX.4.4|9=62|35=0|34=10|49=nest_umdf_bov|52=20120813-13:27:58.273|56=XPBSP|10=003|8=FIX.4.4|9=62|35=0|34=11|49=nest_umdf_bov|52=20120813-13:28:28.273|56=XPBSP|10=002|8=FIX.4.4|9=62|35=5|34=12|49=nest_umdf_bov|52=20120813-13:28:31.273|56=XPBSP|10=002|