8=FIX.4.4|9=76|35=A|34=1|49=ATVNEST|52=20120705-22:19:11.278|56=ATVANEST|98=0|108=30|141=Y|10=189|
8=FIX.4.4|9=72|35=A|49=ATVANEST|56=ATVNEST|34=1|52=20120705-22:19:11|98=0|108=30|141=Y|10=234|
8=FIX.4.4|9=54|35=0|49=ATVANEST|56=ATVNEST|34=2|52=20120705-22:19:41|10=151|
8=FIX.4.4|9=58|35=0|34=2|49=ATVNEST|52=20120705-22:19:41.341|56=ATVANEST|10=097|
8=FIX.4.4|9=54|35=0|49=ATVANEST|56=ATVNEST|34=3|52=20120705-22:20:11|10=141|
8=FIX.4.4|9=58|35=0|34=3|49=ATVNEST|52=20120705-22:20:11.341|56=ATVANEST|10=087|
8=FIX.4.4|9=54|35=0|49=ATVANEST|56=ATVNEST|34=4|52=20120705-22:20:41|10=145|
8=FIX.4.4|9=58|35=0|34=4|49=ATVNEST|52=20120705-22:20:41.341|56=ATVANEST|10=091|
8=FIX.4.4|9=54|35=0|49=ATVANEST|56=ATVNEST|34=5|52=20120705-22:21:11|10=144|
8=FIX.4.4|9=58|35=0|34=5|49=ATVNEST|52=20120705-22:21:11.341|56=ATVANEST|10=090|
8=FIX.4.4|9=54|35=0|49=ATVANEST|56=ATVNEST|34=6|52=20120705-22:21:41|10=148|
8=FIX.4.4|9=58|35=0|34=6|49=ATVNEST|52=20120705-22:21:41.341|56=ATVANEST|10=094|
8=FIX.4.4|9=54|35=0|49=ATVANEST|56=ATVNEST|34=7|52=20120705-22:22:11|10=147|
8=FIX.4.4|9=58|35=0|34=7|49=ATVNEST|52=20120705-22:22:11.341|56=ATVANEST|10=093|
8=FIX.4.4|9=54|35=0|49=ATVANEST|56=ATVNEST|34=8|52=20120705-22:22:41|10=151|
8=FIX.4.4|9=58|35=0|34=8|49=ATVNEST|52=20120705-22:22:41.341|56=ATVANEST|10=097|
8=FIX.4.4|9=54|35=0|49=ATVANEST|56=ATVNEST|34=9|52=20120705-22:23:11|10=150|
8=FIX.4.4|9=58|35=0|34=9|49=ATVNEST|52=20120705-22:23:11.341|56=ATVANEST|10=096|
8=FIX.4.4|9=55|35=0|49=ATVANEST|56=ATVNEST|34=10|52=20120705-22:23:41|10=194|
8=FIX.4.4|9=59|35=0|34=10|49=ATVNEST|52=20120705-22:23:41.341|56=ATVANEST|10=140|
8=FIX.4.4|9=55|35=0|49=ATVANEST|56=ATVNEST|34=11|52=20120705-22:24:11|10=193|
8=FIX.4.4|9=59|35=0|34=11|49=ATVNEST|52=20120705-22:24:11.341|56=ATVANEST|10=139|
8=FIX.4.4|9=55|35=0|49=ATVANEST|56=ATVNEST|34=12|52=20120705-22:24:41|10=197|
8=FIX.4.4|9=59|35=0|34=12|49=ATVNEST|52=20120705-22:24:42.295|56=ATVANEST|10=152|
8=FIX.4.4|9=55|35=0|49=ATVANEST|56=ATVNEST|34=13|52=20120705-22:25:11|10=196|
8=FIX.4.4|9=59|35=0|34=13|49=ATVNEST|52=20120705-22:25:13.263|56=ATVANEST|10=147|
8=FIX.4.4|9=55|35=0|49=ATVANEST|56=ATVNEST|34=14|52=20120705-22:25:41|10=200|
8=FIX.4.4|9=59|35=0|34=14|49=ATVNEST|52=20120705-22:25:43.279|56=ATVANEST|10=158|
8=FIX.4.4|9=55|35=0|49=ATVANEST|56=ATVNEST|34=15|52=20120705-22:26:11|10=199|
8=FIX.4.4|9=59|35=0|34=15|49=ATVNEST|52=20120705-22:26:14.263|56=ATVANEST|10=151|
8=FIX.4.4|9=55|35=0|49=ATVANEST|56=ATVNEST|34=16|52=20120705-22:26:41|10=203|
8=FIX.4.4|9=59|35=0|34=16|49=ATVNEST|52=20120705-22:26:44.264|56=ATVANEST|10=156|
8=FIX.4.4|9=55|35=0|49=ATVANEST|56=ATVNEST|34=17|52=20120705-22:27:11|10=202|
8=FIX.4.4|9=59|35=0|34=17|49=ATVNEST|52=20120705-22:27:14.279|56=ATVANEST|10=161|
8=FIX.4.4|9=55|35=0|49=ATVANEST|56=ATVNEST|34=18|52=20120705-22:27:41|10=206|
8=FIX.4.4|9=59|35=0|34=18|49=ATVNEST|52=20120705-22:27:44.279|56=ATVANEST|10=165|
8=FIX.4.4|9=55|35=0|49=ATVANEST|56=ATVNEST|34=19|52=20120705-22:28:11|10=205|
8=FIX.4.4|9=59|35=0|34=19|49=ATVNEST|52=20120705-22:28:14.295|56=ATVANEST|10=162|
8=FIX.4.4|9=55|35=0|49=ATVANEST|56=ATVNEST|34=20|52=20120705-22:28:41|10=200|
8=FIX.4.4|9=59|35=0|34=20|49=ATVNEST|52=20120705-22:28:45.279|56=ATVANEST|10=160|
8=FIX.4.4|9=55|35=0|49=ATVANEST|56=ATVNEST|34=21|52=20120705-22:29:11|10=199|
8=FIX.4.4|9=59|35=0|34=21|49=ATVNEST|52=20120705-22:29:15.295|56=ATVANEST|10=157|
8=FIX.4.4|9=55|35=0|49=ATVANEST|56=ATVNEST|34=22|52=20120705-22:29:41|10=203|
8=FIX.4.4|9=59|35=0|34=22|49=ATVNEST|52=20120705-22:29:46.279|56=ATVANEST|10=164|
8=FIX.4.4|9=55|35=0|49=ATVANEST|56=ATVNEST|34=23|52=20120705-22:30:11|10=193|
8=FIX.4.4|9=59|35=0|34=23|49=ATVNEST|52=20120705-22:30:16.279|56=ATVANEST|10=154|
8=FIX.4.4|9=55|35=0|49=ATVANEST|56=ATVNEST|34=24|52=20120705-22:30:41|10=197|
8=FIX.4.4|9=59|35=0|34=24|49=ATVNEST|52=20120705-22:30:46.280|56=ATVANEST|10=150|
8=FIX.4.4|9=55|35=0|49=ATVANEST|56=ATVNEST|34=25|52=20120705-22:31:11|10=196|
8=FIX.4.4|9=59|35=0|34=25|49=ATVNEST|52=20120705-22:31:16.295|56=ATVANEST|10=155|
8=FIX.4.4|9=55|35=0|49=ATVANEST|56=ATVNEST|34=26|52=20120705-22:31:41|10=200|
8=FIX.4.4|9=59|35=0|34=26|49=ATVNEST|52=20120705-22:31:47.295|56=ATVANEST|10=160|
8=FIX.4.4|9=55|35=0|49=ATVANEST|56=ATVNEST|34=27|52=20120705-22:32:11|10=199|
8=FIX.4.4|9=59|35=0|34=27|49=ATVNEST|52=20120705-22:32:18.295|56=ATVANEST|10=160|
8=FIX.4.4|9=55|35=0|49=ATVANEST|56=ATVNEST|34=28|52=20120705-22:32:41|10=203|
8=FIX.4.4|9=59|35=0|34=28|49=ATVNEST|52=20120705-22:32:48.295|56=ATVANEST|10=164|
8=FIX.4.4|9=55|35=0|49=ATVANEST|56=ATVNEST|34=29|52=20120705-22:33:11|10=202|
8=FIX.4.4|9=59|35=0|34=29|49=ATVNEST|52=20120705-22:33:19.280|56=ATVANEST|10=158|
8=FIX.4.4|9=55|35=0|49=ATVANEST|56=ATVNEST|34=30|52=20120705-22:33:41|10=197|
8=FIX.4.4|9=59|35=0|34=30|49=ATVNEST|52=20120705-22:33:49.280|56=ATVANEST|10=153|
8=FIX.4.4|9=55|35=0|49=ATVANEST|56=ATVNEST|34=31|52=20120705-22:34:11|10=196|
8=FIX.4.4|9=59|35=0|34=31|49=ATVNEST|52=20120705-22:34:19.280|56=ATVANEST|10=152|
8=FIX.4.4|9=55|35=0|49=ATVANEST|56=ATVNEST|34=32|52=20120705-22:34:41|10=200|
8=FIX.4.4|9=59|35=0|34=32|49=ATVNEST|52=20120705-22:34:49.280|56=ATVANEST|10=156|
8=FIX.4.4|9=55|35=0|49=ATVANEST|56=ATVNEST|34=33|52=20120705-22:35:11|10=199|
8=FIX.4.4|9=59|35=0|34=33|49=ATVNEST|52=20120705-22:35:19.280|56=ATVANEST|10=155|
8=FIX.4.4|9=55|35=0|49=ATVANEST|56=ATVNEST|34=34|52=20120705-22:35:41|10=203|
8=FIX.4.4|9=59|35=0|34=34|49=ATVNEST|52=20120705-22:35:49.280|56=ATVANEST|10=159|
8=FIX.4.4|9=55|35=0|49=ATVANEST|56=ATVNEST|34=35|52=20120705-22:36:11|10=202|
8=FIX.4.4|9=59|35=0|34=35|49=ATVNEST|52=20120705-22:36:19.296|56=ATVANEST|10=165|
8=FIX.4.4|9=55|35=0|49=ATVANEST|56=ATVNEST|34=36|52=20120705-22:36:41|10=206|
8=FIX.4.4|9=59|35=0|34=36|49=ATVNEST|52=20120705-22:36:50.296|56=ATVANEST|10=161|
8=FIX.4.4|9=55|35=0|49=ATVANEST|56=ATVNEST|34=37|52=20120705-22:37:11|10=205|
8=FIX.4.4|9=59|35=0|34=37|49=ATVNEST|52=20120705-22:37:20.311|56=ATVANEST|10=148|
8=FIX.4.4|9=55|35=0|49=ATVANEST|56=ATVNEST|34=38|52=20120705-22:37:41|10=209|
8=FIX.4.4|9=59|35=0|34=38|49=ATVNEST|52=20120705-22:37:51.296|56=ATVANEST|10=165|
8=FIX.4.4|9=55|35=0|49=ATVANEST|56=ATVNEST|34=39|52=20120705-22:38:11|10=208|
8=FIX.4.4|9=59|35=0|34=39|49=ATVNEST|52=20120705-22:38:21.296|56=ATVANEST|10=164|
8=FIX.4.4|9=55|35=0|49=ATVANEST|56=ATVNEST|34=40|52=20120705-22:38:41|10=203|
8=FIX.4.4|9=59|35=0|34=40|49=ATVNEST|52=20120705-22:38:51.296|56=ATVANEST|10=159|
8=FIX.4.4|9=55|35=0|49=ATVANEST|56=ATVNEST|34=41|52=20120705-22:39:11|10=202|
8=FIX.4.4|9=59|35=0|34=41|49=ATVNEST|52=20120705-22:39:21.296|56=ATVANEST|10=158|
8=FIX.4.4|9=55|35=0|49=ATVANEST|56=ATVNEST|34=42|52=20120705-22:39:41|10=206|
8=FIX.4.4|9=59|35=0|34=42|49=ATVNEST|52=20120705-22:39:51.296|56=ATVANEST|10=162|
8=FIX.4.4|9=55|35=0|49=ATVANEST|56=ATVNEST|34=43|52=20120705-22:40:11|10=196|
8=FIX.4.4|9=59|35=0|34=43|49=ATVNEST|52=20120705-22:40:21.296|56=ATVANEST|10=152|
8=FIX.4.4|9=55|35=0|49=ATVANEST|56=ATVNEST|34=44|52=20120705-22:40:41|10=200|
8=FIX.4.4|9=59|35=0|34=44|49=ATVNEST|52=20120705-22:40:51.296|56=ATVANEST|10=156|
8=FIX.4.4|9=55|35=0|49=ATVANEST|56=ATVNEST|34=45|52=20120705-22:41:11|10=199|
8=FIX.4.4|9=59|35=0|34=45|49=ATVNEST|52=20120705-22:41:21.296|56=ATVANEST|10=155|
8=FIX.4.4|9=55|35=0|49=ATVANEST|56=ATVNEST|34=46|52=20120705-22:41:41|10=203|
8=FIX.4.4|9=59|35=0|34=46|49=ATVNEST|52=20120705-22:41:51.296|56=ATVANEST|10=159|
8=FIX.4.4|9=55|35=0|49=ATVANEST|56=ATVNEST|34=47|52=20120705-22:42:11|10=202|
8=FIX.4.4|9=59|35=0|34=47|49=ATVNEST|52=20120705-22:42:21.296|56=ATVANEST|10=158|
8=FIX.4.4|9=55|35=0|49=ATVANEST|56=ATVNEST|34=48|52=20120705-22:42:41|10=206|
8=FIX.4.4|9=59|35=0|34=48|49=ATVNEST|52=20120705-22:42:51.296|56=ATVANEST|10=162|
8=FIX.4.4|9=55|35=0|49=ATVANEST|56=ATVNEST|34=49|52=20120705-22:43:11|10=205|
8=FIX.4.4|9=59|35=0|34=49|49=ATVNEST|52=20120705-22:43:21.296|56=ATVANEST|10=161|
8=FIX.4.4|9=55|35=0|49=ATVANEST|56=ATVNEST|34=50|52=20120705-22:43:41|10=200|
8=FIX.4.4|9=59|35=0|34=50|49=ATVNEST|52=20120705-22:43:51.312|56=ATVANEST|10=145|
8=FIX.4.4|9=55|35=0|49=ATVANEST|56=ATVNEST|34=51|52=20120705-22:44:11|10=199|
8=FIX.4.4|9=59|35=0|34=51|49=ATVNEST|52=20120705-22:44:21.328|56=ATVANEST|10=151|
8=FIX.4.4|9=55|35=0|49=ATVANEST|56=ATVNEST|34=52|52=20120705-22:44:41|10=203|
8=FIX.4.4|9=59|35=0|34=52|49=ATVNEST|52=20120705-22:44:51.343|56=ATVANEST|10=152|
8=FIX.4.4|9=55|35=0|49=ATVANEST|56=ATVNEST|34=53|52=20120705-22:45:11|10=202|
8=FIX.4.4|9=59|35=0|34=53|49=ATVNEST|52=20120705-22:45:22.296|56=ATVANEST|10=159|
8=FIX.4.4|9=55|35=0|49=ATVANEST|56=ATVNEST|34=54|52=20120705-22:45:41|10=206|
8=FIX.4.4|9=59|35=0|34=54|49=ATVNEST|52=20120705-22:45:52.297|56=ATVANEST|10=164|
8=FIX.4.4|9=59|35=5|34=55|49=ATVNEST|52=20120705-22:46:01.297|56=ATVANEST|10=165|
8=FIX.4.4|9=77|35=5|49=ATVANEST|56=ATVNEST|34=55|52=20120705-22:46:01|58=Replying to logout|10=135|
8=FIX.4.4|9=76|35=A|34=1|49=ATVNEST|52=20120706-11:57:13.712|56=ATVANEST|98=0|108=30|141=Y|10=185|
8=FIX.4.4|9=72|35=A|49=ATVANEST|56=ATVNEST|34=1|52=20120706-11:57:14|98=0|108=30|141=Y|10=238|
8=FIX.4.4|9=54|35=0|49=ATVANEST|56=ATVNEST|34=2|52=20120706-11:57:44|10=155|
8=FIX.4.4|9=58|35=0|34=2|49=ATVNEST|52=20120706-11:57:43.822|56=ATVANEST|10=104|
8=FIX.4.4|9=54|35=0|49=ATVANEST|56=ATVNEST|34=3|52=20120706-11:58:14|10=154|
8=FIX.4.4|9=58|35=0|34=3|49=ATVNEST|52=20120706-11:58:13.822|56=ATVANEST|10=103|
8=FIX.4.4|9=54|35=0|49=ATVANEST|56=ATVNEST|34=4|52=20120706-11:58:44|10=158|
8=FIX.4.4|9=58|35=0|34=4|49=ATVNEST|52=20120706-11:58:43.822|56=ATVANEST|10=107|
8=FIX.4.4|9=54|35=0|49=ATVANEST|56=ATVNEST|34=5|52=20120706-11:59:14|10=157|
8=FIX.4.4|9=58|35=0|34=5|49=ATVNEST|52=20120706-11:59:13.822|56=ATVANEST|10=106|
8=FIX.4.4|9=54|35=0|49=ATVANEST|56=ATVNEST|34=6|52=20120706-11:59:44|10=161|
8=FIX.4.4|9=58|35=0|34=6|49=ATVNEST|52=20120706-11:59:44.681|56=ATVANEST|10=114|
8=FIX.4.4|9=54|35=0|49=ATVANEST|56=ATVNEST|34=7|52=20120706-12:00:14|10=146|
8=FIX.4.4|9=58|35=0|34=7|49=ATVNEST|52=20120706-12:00:14.681|56=ATVANEST|10=099|
8=FIX.4.4|9=54|35=0|49=ATVANEST|56=ATVNEST|34=8|52=20120706-12:00:44|10=150|
8=FIX.4.4|9=58|35=0|34=8|49=ATVNEST|52=20120706-12:00:44.681|56=ATVANEST|10=103|
8=FIX.4.4|9=54|35=0|49=ATVANEST|56=ATVNEST|34=9|52=20120706-12:01:14|10=149|
8=FIX.4.4|9=58|35=0|34=9|49=ATVNEST|52=20120706-12:01:14.697|56=ATVANEST|10=109|
8=FIX.4.4|9=55|35=0|49=ATVANEST|56=ATVNEST|34=10|52=20120706-12:01:44|10=193|
8=FIX.4.4|9=59|35=0|34=10|49=ATVNEST|52=20120706-12:01:44.697|56=ATVANEST|10=153|
8=FIX.4.4|9=55|35=0|49=ATVANEST|56=ATVNEST|34=11|52=20120706-12:02:14|10=192|
8=FIX.4.4|9=59|35=0|34=11|49=ATVNEST|52=20120706-12:02:14.697|56=ATVANEST|10=152|
8=FIX.4.4|9=55|35=0|49=ATVANEST|56=ATVNEST|34=12|52=20120706-12:02:44|10=196|
8=FIX.4.4|9=59|35=0|34=12|49=ATVNEST|52=20120706-12:02:44.697|56=ATVANEST|10=156|
8=FIX.4.4|9=55|35=0|49=ATVANEST|56=ATVNEST|34=13|52=20120706-12:03:14|10=195|
8=FIX.4.4|9=59|35=0|34=13|49=ATVNEST|52=20120706-12:03:14.697|56=ATVANEST|10=155|
8=FIX.4.4|9=55|35=0|49=ATVANEST|56=ATVNEST|34=14|52=20120706-12:03:44|10=199|
8=FIX.4.4|9=59|35=0|34=14|49=ATVNEST|52=20120706-12:03:44.697|56=ATVANEST|10=159|
8=FIX.4.4|9=55|35=0|49=ATVANEST|56=ATVNEST|34=15|52=20120706-12:04:14|10=198|
8=FIX.4.4|9=59|35=0|34=15|49=ATVNEST|52=20120706-12:04:14.697|56=ATVANEST|10=158|
8=FIX.4.4|9=55|35=0|49=ATVANEST|56=ATVNEST|34=16|52=20120706-12:04:44|10=202|
8=FIX.4.4|9=59|35=0|34=16|49=ATVNEST|52=20120706-12:04:44.697|56=ATVANEST|10=162|
8=FIX.4.4|9=55|35=0|49=ATVANEST|56=ATVNEST|34=17|52=20120706-12:05:14|10=201|
8=FIX.4.4|9=59|35=0|34=17|49=ATVNEST|52=20120706-12:05:14.697|56=ATVANEST|10=161|
8=FIX.4.4|9=55|35=0|49=ATVANEST|56=ATVNEST|34=18|52=20120706-12:05:44|10=205|
8=FIX.4.4|9=59|35=0|34=18|49=ATVNEST|52=20120706-12:05:44.697|56=ATVANEST|10=165|
8=FIX.4.4|9=55|35=0|49=ATVANEST|56=ATVNEST|34=19|52=20120706-12:06:14|10=204|
8=FIX.4.4|9=59|35=0|34=19|49=ATVNEST|52=20120706-12:06:14.713|56=ATVANEST|10=153|
8=FIX.4.4|9=55|35=0|49=ATVANEST|56=ATVNEST|34=20|52=20120706-12:06:44|10=199|
8=FIX.4.4|9=59|35=0|34=20|49=ATVNEST|52=20120706-12:06:45.698|56=ATVANEST|10=161|
8=FIX.4.4|9=55|35=0|49=ATVANEST|56=ATVNEST|34=21|52=20120706-12:07:14|10=198|
8=FIX.4.4|9=59|35=0|34=21|49=ATVNEST|52=20120706-12:07:15.698|56=ATVANEST|10=160|
8=FIX.4.4|9=55|35=0|49=ATVANEST|56=ATVNEST|34=22|52=20120706-12:07:44|10=202|
8=FIX.4.4|9=59|35=0|34=22|49=ATVNEST|52=20120706-12:07:45.713|56=ATVANEST|10=152|
8=FIX.4.4|9=55|35=0|49=ATVANEST|56=ATVNEST|34=23|52=20120706-12:08:14|10=201|
8=FIX.4.4|9=59|35=0|34=23|49=ATVNEST|52=20120706-12:08:16.698|56=ATVANEST|10=164|
8=FIX.4.4|9=55|35=0|49=ATVANEST|56=ATVNEST|34=24|52=20120706-12:08:44|10=205|
8=FIX.4.4|9=59|35=0|34=24|49=ATVNEST|52=20120706-12:08:46.698|56=ATVANEST|10=168|
8=FIX.4.4|9=55|35=0|49=ATVANEST|56=ATVNEST|34=25|52=20120706-12:09:14|10=204|
8=FIX.4.4|9=59|35=0|34=25|49=ATVNEST|52=20120706-12:09:16.713|56=ATVANEST|10=155|
8=FIX.4.4|9=55|35=0|49=ATVANEST|56=ATVNEST|34=26|52=20120706-12:09:44|10=208|
8=FIX.4.4|9=59|35=0|34=26|49=ATVNEST|52=20120706-12:09:46.713|56=ATVANEST|10=159|
8=FIX.4.4|9=55|35=0|49=ATVANEST|56=ATVNEST|34=27|52=20120706-12:10:14|10=198|
8=FIX.4.4|9=59|35=0|34=27|49=ATVNEST|52=20120706-12:10:17.713|56=ATVANEST|10=150|
8=FIX.4.4|9=55|35=0|49=ATVANEST|56=ATVNEST|34=28|52=20120706-12:10:44|10=202|
8=FIX.4.4|9=59|35=0|34=28|49=ATVNEST|52=20120706-12:10:47.714|56=ATVANEST|10=155|
8=FIX.4.4|9=55|35=0|49=ATVANEST|56=ATVNEST|34=29|52=20120706-12:11:14|10=201|
8=FIX.4.4|9=59|35=0|34=29|49=ATVNEST|52=20120706-12:11:17.714|56=ATVANEST|10=154|
8=FIX.4.4|9=55|35=0|49=ATVANEST|56=ATVNEST|34=30|52=20120706-12:11:44|10=196|
8=FIX.4.4|9=59|35=0|34=30|49=ATVNEST|52=20120706-12:11:47.714|56=ATVANEST|10=149|
8=FIX.4.4|9=55|35=0|49=ATVANEST|56=ATVNEST|34=31|52=20120706-12:12:14|10=195|
8=FIX.4.4|9=59|35=0|34=31|49=ATVNEST|52=20120706-12:12:17.714|56=ATVANEST|10=148|
8=FIX.4.4|9=55|35=0|49=ATVANEST|56=ATVNEST|34=32|52=20120706-12:12:44|10=199|
8=FIX.4.4|9=59|35=0|34=32|49=ATVNEST|52=20120706-12:12:47.714|56=ATVANEST|10=152|
8=FIX.4.4|9=55|35=0|49=ATVANEST|56=ATVNEST|34=33|52=20120706-12:13:14|10=198|
8=FIX.4.4|9=59|35=0|34=33|49=ATVNEST|52=20120706-12:13:17.714|56=ATVANEST|10=151|
8=FIX.4.4|9=55|35=0|49=ATVANEST|56=ATVNEST|34=34|52=20120706-12:13:44|10=202|
8=FIX.4.4|9=59|35=0|34=34|49=ATVNEST|52=20120706-12:13:47.714|56=ATVANEST|10=155|
8=FIX.4.4|9=55|35=0|49=ATVANEST|56=ATVNEST|34=35|52=20120706-12:14:14|10=201|
8=FIX.4.4|9=59|35=0|34=35|49=ATVNEST|52=20120706-12:14:17.729|56=ATVANEST|10=160|
8=FIX.4.4|9=55|35=0|49=ATVANEST|56=ATVNEST|34=36|52=20120706-12:14:44|10=205|
8=FIX.4.4|9=59|35=0|34=36|49=ATVNEST|52=20120706-12:14:48.714|56=ATVANEST|10=159|
8=FIX.4.4|9=55|35=0|49=ATVANEST|56=ATVNEST|34=37|52=20120706-12:15:14|10=204|
8=FIX.4.4|9=59|35=0|34=37|49=ATVNEST|52=20120706-12:15:18.714|56=ATVANEST|10=158|
8=FIX.4.4|9=55|35=0|49=ATVANEST|56=ATVNEST|34=38|52=20120706-12:15:44|10=208|
8=FIX.4.4|9=59|35=0|34=38|49=ATVNEST|52=20120706-12:15:48.714|56=ATVANEST|10=162|
8=FIX.4.4|9=55|35=0|49=ATVANEST|56=ATVNEST|34=39|52=20120706-12:16:14|10=207|
8=FIX.4.4|9=59|35=0|34=39|49=ATVNEST|52=20120706-12:16:18.714|56=ATVANEST|10=161|
8=FIX.4.4|9=55|35=0|49=ATVANEST|56=ATVNEST|34=40|52=20120706-12:16:44|10=202|
8=FIX.4.4|9=59|35=0|34=40|49=ATVNEST|52=20120706-12:16:48.714|56=ATVANEST|10=156|
8=FIX.4.4|9=55|35=0|49=ATVANEST|56=ATVNEST|34=41|52=20120706-12:17:14|10=201|
8=FIX.4.4|9=59|35=0|34=41|49=ATVNEST|52=20120706-12:17:18.714|56=ATVANEST|10=155|
8=FIX.4.4|9=55|35=0|49=ATVANEST|56=ATVNEST|34=42|52=20120706-12:17:44|10=205|
8=FIX.4.4|9=59|35=0|34=42|49=ATVNEST|52=20120706-12:17:48.714|56=ATVANEST|10=159|
8=FIX.4.4|9=55|35=0|49=ATVANEST|56=ATVNEST|34=43|52=20120706-12:18:14|10=204|
8=FIX.4.4|9=59|35=0|34=43|49=ATVNEST|52=20120706-12:18:18.714|56=ATVANEST|10=158|
8=FIX.4.4|9=55|35=0|49=ATVANEST|56=ATVNEST|34=44|52=20120706-12:18:44|10=208|
8=FIX.4.4|9=59|35=0|34=44|49=ATVNEST|52=20120706-12:18:48.714|56=ATVANEST|10=162|
8=FIX.4.4|9=55|35=0|49=ATVANEST|56=ATVNEST|34=45|52=20120706-12:19:14|10=207|
8=FIX.4.4|9=59|35=0|34=45|49=ATVNEST|52=20120706-12:19:18.714|56=ATVANEST|10=161|
8=FIX.4.4|9=55|35=0|49=ATVANEST|56=ATVNEST|34=46|52=20120706-12:19:44|10=211|
8=FIX.4.4|9=59|35=0|34=46|49=ATVNEST|52=20120706-12:19:48.714|56=ATVANEST|10=165|
8=FIX.4.4|9=55|35=0|49=ATVANEST|56=ATVNEST|34=47|52=20120706-12:20:14|10=201|
8=FIX.4.4|9=59|35=0|34=47|49=ATVNEST|52=20120706-12:20:18.714|56=ATVANEST|10=155|
8=FIX.4.4|9=55|35=0|49=ATVANEST|56=ATVNEST|34=48|52=20120706-12:20:44|10=205|
8=FIX.4.4|9=59|35=0|34=48|49=ATVNEST|52=20120706-12:20:48.714|56=ATVANEST|10=159|
8=FIX.4.4|9=55|35=0|49=ATVANEST|56=ATVNEST|34=49|52=20120706-12:21:14|10=204|
8=FIX.4.4|9=59|35=0|34=49|49=ATVNEST|52=20120706-12:21:18.714|56=ATVANEST|10=158|
8=FIX.4.4|9=55|35=0|49=ATVANEST|56=ATVNEST|34=50|52=20120706-12:21:44|10=199|
8=FIX.4.4|9=59|35=0|34=50|49=ATVNEST|52=20120706-12:21:48.715|56=ATVANEST|10=154|
8=FIX.4.4|9=55|35=0|49=ATVANEST|56=ATVNEST|34=51|52=20120706-12:22:14|10=198|
8=FIX.4.4|9=59|35=0|34=51|49=ATVNEST|52=20120706-12:22:18.730|56=ATVANEST|10=150|
8=FIX.4.4|9=55|35=0|49=ATVANEST|56=ATVNEST|34=52|52=20120706-12:22:44|10=202|
8=FIX.4.4|9=59|35=0|34=52|49=ATVNEST|52=20120706-12:22:48.730|56=ATVANEST|10=154|
8=FIX.4.4|9=55|35=0|49=ATVANEST|56=ATVNEST|34=53|52=20120706-12:23:14|10=201|
8=FIX.4.4|9=59|35=0|34=53|49=ATVNEST|52=20120706-12:23:18.730|56=ATVANEST|10=153|
8=FIX.4.4|9=55|35=0|49=ATVANEST|56=ATVNEST|34=54|52=20120706-12:23:44|10=205|
8=FIX.4.4|9=59|35=0|34=54|49=ATVNEST|52=20120706-12:23:48.730|56=ATVANEST|10=157|
8=FIX.4.4|9=55|35=0|49=ATVANEST|56=ATVNEST|34=55|52=20120706-12:24:14|10=204|
8=FIX.4.4|9=59|35=0|34=55|49=ATVNEST|52=20120706-12:24:18.730|56=ATVANEST|10=156|
8=FIX.4.4|9=55|35=0|49=ATVANEST|56=ATVNEST|34=56|52=20120706-12:24:44|10=208|
8=FIX.4.4|9=59|35=0|34=56|49=ATVNEST|52=20120706-12:24:48.730|56=ATVANEST|10=160|
8=FIX.4.4|9=55|35=0|49=ATVANEST|56=ATVNEST|34=57|52=20120706-12:25:14|10=207|
8=FIX.4.4|9=59|35=0|34=57|49=ATVNEST|52=20120706-12:25:18.730|56=ATVANEST|10=159|
8=FIX.4.4|9=55|35=0|49=ATVANEST|56=ATVNEST|34=58|52=20120706-12:25:44|10=211|
8=FIX.4.4|9=59|35=0|34=58|49=ATVNEST|52=20120706-12:25:48.731|56=ATVANEST|10=164|
8=FIX.4.4|9=55|35=0|49=ATVANEST|56=ATVNEST|34=59|52=20120706-12:26:14|10=210|
8=FIX.4.4|9=59|35=0|34=59|49=ATVNEST|52=20120706-12:26:18.731|56=ATVANEST|10=163|
8=FIX.4.4|9=55|35=0|49=ATVANEST|56=ATVNEST|34=60|52=20120706-12:26:44|10=205|
8=FIX.4.4|9=59|35=0|34=60|49=ATVNEST|52=20120706-12:26:48.731|56=ATVANEST|10=158|
8=FIX.4.4|9=55|35=0|49=ATVANEST|56=ATVNEST|34=61|52=20120706-12:27:14|10=204|
8=FIX.4.4|9=59|35=0|34=61|49=ATVNEST|52=20120706-12:27:18.731|56=ATVANEST|10=157|
8=FIX.4.4|9=55|35=0|49=ATVANEST|56=ATVNEST|34=62|52=20120706-12:27:44|10=208|
8=FIX.4.4|9=59|35=0|34=62|49=ATVNEST|52=20120706-12:27:48.731|56=ATVANEST|10=161|
8=FIX.4.4|9=55|35=0|49=ATVANEST|56=ATVNEST|34=63|52=20120706-12:28:14|10=207|
8=FIX.4.4|9=59|35=0|34=63|49=ATVNEST|52=20120706-12:28:18.731|56=ATVANEST|10=160|
8=FIX.4.4|9=55|35=0|49=ATVANEST|56=ATVNEST|34=64|52=20120706-12:28:44|10=211|
8=FIX.4.4|9=59|35=0|34=64|49=ATVNEST|52=20120706-12:28:48.731|56=ATVANEST|10=164|
8=FIX.4.4|9=55|35=0|49=ATVANEST|56=ATVNEST|34=65|52=20120706-12:29:14|10=210|
8=FIX.4.4|9=59|35=0|34=65|49=ATVNEST|52=20120706-12:29:18.746|56=ATVANEST|10=169|
8=FIX.4.4|9=55|35=0|49=ATVANEST|56=ATVNEST|34=66|52=20120706-12:29:44|10=214|
8=FIX.4.4|9=59|35=0|34=66|49=ATVNEST|52=20120706-12:29:49.778|56=ATVANEST|10=179|
8=FIX.4.4|9=55|35=0|49=ATVANEST|56=ATVNEST|34=67|52=20120706-12:30:14|10=204|
8=FIX.4.4|9=59|35=0|34=67|49=ATVNEST|52=20120706-12:30:20.731|56=ATVANEST|10=150|
8=FIX.4.4|9=55|35=0|49=ATVANEST|56=ATVNEST|34=68|52=20120706-12:30:44|10=208|
8=FIX.4.4|9=59|35=0|34=68|49=ATVNEST|52=20120706-12:30:50.731|56=ATVANEST|10=154|
8=FIX.4.4|9=55|35=0|49=ATVANEST|56=ATVNEST|34=69|52=20120706-12:31:14|10=207|
8=FIX.4.4|9=59|35=0|34=69|49=ATVNEST|52=20120706-12:31:20.731|56=ATVANEST|10=153|
8=FIX.4.4|9=55|35=0|49=ATVANEST|56=ATVNEST|34=70|52=20120706-12:31:44|10=202|
8=FIX.4.4|9=59|35=0|34=70|49=ATVNEST|52=20120706-12:31:50.731|56=ATVANEST|10=148|
8=FIX.4.4|9=55|35=0|49=ATVANEST|56=ATVNEST|34=71|52=20120706-12:32:14|10=201|
8=FIX.4.4|9=59|35=0|34=71|49=ATVNEST|52=20120706-12:32:20.731|56=ATVANEST|10=147|
8=FIX.4.4|9=55|35=0|49=ATVANEST|56=ATVNEST|34=72|52=20120706-12:32:44|10=205|
8=FIX.4.4|9=59|35=0|34=72|49=ATVNEST|52=20120706-12:32:50.747|56=ATVANEST|10=158|
8=FIX.4.4|9=55|35=0|49=ATVANEST|56=ATVNEST|34=73|52=20120706-12:33:14|10=204|
8=FIX.4.4|9=59|35=0|34=73|49=ATVNEST|52=20120706-12:33:20.747|56=ATVANEST|10=157|
8=FIX.4.4|9=55|35=0|49=ATVANEST|56=ATVNEST|34=74|52=20120706-12:33:44|10=208|
8=FIX.4.4|9=59|35=0|34=74|49=ATVNEST|52=20120706-12:33:50.747|56=ATVANEST|10=161|
8=FIX.4.4|9=55|35=0|49=ATVANEST|56=ATVNEST|34=75|52=20120706-12:34:14|10=207|
8=FIX.4.4|9=59|35=0|34=75|49=ATVNEST|52=20120706-12:34:20.747|56=ATVANEST|10=160|
8=FIX.4.4|9=55|35=0|49=ATVANEST|56=ATVNEST|34=76|52=20120706-12:34:44|10=211|
8=FIX.4.4|9=59|35=0|34=76|49=ATVNEST|52=20120706-12:34:50.747|56=ATVANEST|10=164|
8=FIX.4.4|9=55|35=0|49=ATVANEST|56=ATVNEST|34=77|52=20120706-12:35:14|10=210|
8=FIX.4.4|9=59|35=0|34=77|49=ATVNEST|52=20120706-12:35:20.747|56=ATVANEST|10=163|
8=FIX.4.4|9=55|35=0|49=ATVANEST|56=ATVNEST|34=78|52=20120706-12:35:44|10=214|
8=FIX.4.4|9=59|35=0|34=78|49=ATVNEST|52=20120706-12:35:50.747|56=ATVANEST|10=167|
8=FIX.4.4|9=55|35=0|49=ATVANEST|56=ATVNEST|34=79|52=20120706-12:36:14|10=213|
8=FIX.4.4|9=59|35=0|34=79|49=ATVNEST|52=20120706-12:36:20.747|56=ATVANEST|10=166|
8=FIX.4.4|9=55|35=0|49=ATVANEST|56=ATVNEST|34=80|52=20120706-12:36:44|10=208|
8=FIX.4.4|9=59|35=0|34=80|49=ATVNEST|52=20120706-12:36:50.747|56=ATVANEST|10=161|
8=FIX.4.4|9=59|35=5|34=81|49=ATVNEST|52=20120706-12:36:52.747|56=ATVANEST|10=169|
8=FIX.4.4|9=77|35=5|49=ATVANEST|56=ATVNEST|34=81|52=20120706-12:36:53|58=Replying to logout|10=140|
