27/10/2009 13:31:07 - 8=FIX.4.2|9=277|35=8|34=458|49=FLEXDROP|50=T1|52=20091027-15:31:07|56=NESTDROP|57=MS|1=366006|6=34.14000000|11=AAA0018|14=1600|17=0910271331067361|20=0|30=SA|31=34.14000000|32=300|37=BAAA0018|38=2000|39=1|44=34.14000000|47=A|54=2|55=CCRO3.SA|60=20091027-15:31:06|76=AGNEST|113=Y|150=1|151=400|10=170|
