12/11/2009 18:40:36 - 8=FIX.4.2|9=278|35=8|34=230|49=FLEXDROP|50=T1|52=20091112-20:38:13|56=NESTDROP|57=LB|1=366006|6=0.45000000|11=AAA0082|14=3900|17=0911121313039485|20=0|30=SA|31=0.45000000|32=100|37=BAAA0082|38=5000|39=1|44=0.45000000|47=A|54=1|55=BVMF3L13.SA|60=20091112-15:13:03|76=AGNEST|113=Y|150=1|151=1100|10=209|
