17/02/2010 13:01:34 - 8=FIX.4.2|9=262|35=8|34=399|49=FLEXDROP|50=T1|52=20100217-15:01:34|56=NESTDROP|57=LB|1=204527|6=1.91000000|11=LAA0001|14=400|17=07E3875011|20=0|30=SA|31=1.91000000|32=400|37=BLAA0001|38=400|39=2|44=1.91000000|47=A|54=1|55=PTBL3.SA|60=20100217-16:01:34|76=LINK|113=Y|150=2|151=0|10=139|
17/02/2010 13:01:39 - 8=FIX.4.2|9=262|35=8|34=400|49=FLEXDROP|50=T1|52=20100217-15:01:39|56=NESTDROP|57=LB|1=204527|6=1.92000000|11=LAA0002|14=600|17=07E3875016|20=0|30=SA|31=1.92000000|32=600|37=BLAA0002|38=600|39=2|44=1.92000000|47=A|54=1|55=PTBL3.SA|60=20100217-16:01:39|76=LINK|113=Y|150=2|151=0|10=148|
17/02/2010 13:14:00 - 8=FIX.4.2|9=274|35=8|34=414|49=FLEXDROP|50=T1|52=20100217-15:14:00|56=NESTDROP|57=LB|1=366006|6=58.91000000|11=AAA0023|14=200|17=1002171314001291|20=0|30=SA|31=58.91000000|32=200|37=BAAA0023|38=200|39=2|44=58.91000000|47=A|54=1|55=BBAS13.SA|60=20100217-15:14:00|76=AGNEST|113=Y|150=2|151=0|10=211|
17/02/2010 13:14:16 - 8=FIX.4.2|9=274|35=8|34=415|49=FLEXDROP|50=T1|52=20100217-15:14:16|56=NESTDROP|57=LB|1=366006|6=31.08000000|11=AAA0024|14=600|17=10021713141609811|20=0|30=SA|31=31.08000000|32=600|37=BAAA0024|38=600|39=2|44=31.08000000|47=A|54=2|55=BBAS3.SA|60=20100217-15:14:16|76=AGNEST|113=Y|150=2|151=0|10=220|
17/02/2010 13:41:27 - 8=FIX.4.2|9=275|35=8|34=446|49=FLEXDROP|50=T1|52=20100217-15:41:27|56=NESTDROP|57=LB|1=366006|6=60.96000000|11=AAA0027|14=100|17=10021713412763518|20=0|30=SA|31=60.96000000|32=100|37=BAAA0027|38=100|39=2|44=60.96000000|47=A|54=2|55=BBAS13.SA|60=20100217-15:41:27|76=AGNEST|113=Y|150=2|151=0|10=046|
17/02/2010 13:43:27 - 8=FIX.4.2|9=274|35=8|34=449|49=FLEXDROP|50=T1|52=20100217-15:43:27|56=NESTDROP|57=LB|1=366006|6=30.99000000|11=AAA0028|14=300|17=10021713432755623|20=0|30=SA|31=30.99000000|32=300|37=BAAA0028|38=300|39=2|44=30.99000000|47=A|54=1|55=BBAS3.SA|60=20100217-15:43:27|76=AGNEST|113=Y|150=2|151=0|10=010|
17/02/2010 13:47:07 - 8=FIX.4.2|9=265|35=8|34=454|49=FLEXDROP|50=T1|52=20100217-15:47:07|56=NESTDROP|57=LB|1=204527|6=3.26000000|11=LAA0008|14=1000|17=07E3882534|20=0|30=SA|31=3.26000000|32=1000|37=BLAA0008|38=1000|39=2|44=3.26000000|47=A|54=1|55=INPR3.SA|60=20100217-16:47:07|76=LINK|113=Y|150=2|151=0|10=062|
17/02/2010 14:02:26 - 8=FIX.4.2|9=269|35=8|34=472|49=FLEXDROP|50=T1|52=20100217-16:02:26|56=NESTDROP|57=LB|1=204527|6=37.74000000|11=LAA0007|14=300|17=07E3883067|20=0|30=SA|31=37.74000000|32=300|37=BLAA0007|38=1000|39=1|44=37.74000000|47=A|54=1|55=TRNA11.SA|60=20100217-17:02:26|76=LINK|113=Y|150=1|151=700|10=022|
17/02/2010 14:02:26 - 8=FIX.4.2|9=269|35=8|34=473|49=FLEXDROP|50=T1|52=20100217-16:02:26|56=NESTDROP|57=LB|1=204527|6=37.74000000|11=LAA0007|14=400|17=07E3883070|20=0|30=SA|31=37.74000000|32=100|37=BLAA0007|38=1000|39=1|44=37.74000000|47=A|54=1|55=TRNA11.SA|60=20100217-17:02:26|76=LINK|113=Y|150=1|151=600|10=015|
