8=FIX.4.2|9=65|35=A|34=1|49=QUANT|52=20100821-22:26:33.147|56=NESTI|98=0|108=60|10=010|
8=FIX.4.2|9=65|35=A|34=1|49=NESTI|52=20100821-22:26:33.350|56=QUANT|98=0|108=60|10=006|
8=FIX.4.2|9=65|35=A|34=2|49=QUANT|52=20100821-22:28:09.269|56=NESTI|98=0|108=60|10=021|
8=FIX.4.2|9=65|35=A|34=2|49=NESTI|52=20100821-22:28:09.347|56=QUANT|98=0|108=60|10=018|
8=FIX.4.2|9=53|35=0|34=3|49=QUANT|52=20100821-22:29:09.158|56=NESTI|10=228|
8=FIX.4.2|9=53|35=0|34=3|49=NESTI|52=20100821-22:29:09.173|56=QUANT|10=225|
8=FIX.4.2|9=53|35=0|34=4|49=QUANT|52=20100821-22:30:09.203|56=NESTI|10=212|
8=FIX.4.2|9=53|35=0|34=4|49=NESTI|52=20100821-22:30:09.203|56=QUANT|10=212|
8=FIX.4.2|9=53|35=0|34=5|49=QUANT|52=20100821-22:31:09.248|56=NESTI|10=223|
8=FIX.4.2|9=53|35=0|34=5|49=NESTI|52=20100821-22:31:09.248|56=QUANT|10=223|
8=FIX.4.2|9=53|35=0|34=6|49=QUANT|52=20100821-22:32:09.308|56=NESTI|10=222|
8=FIX.4.2|9=53|35=0|34=6|49=NESTI|52=20100821-22:32:09.308|56=QUANT|10=222|
8=FIX.4.2|9=53|35=0|34=7|49=QUANT|52=20100821-22:33:09.353|56=NESTI|10=224|
8=FIX.4.2|9=53|35=0|34=7|49=NESTI|52=20100821-22:33:09.353|56=QUANT|10=224|
8=FIX.4.2|9=53|35=0|34=8|49=NESTI|52=20100821-22:34:09.570|56=QUANT|10=227|
8=FIX.4.2|9=65|35=A|34=8|49=QUANT|52=20100821-22:36:31.894|56=NESTI|98=0|108=60|10=025|
8=FIX.4.2|9=65|35=A|34=9|49=NESTI|52=20100821-22:36:31.925|56=QUANT|98=0|108=60|10=021|
8=FIX.4.2|9=62|35=2|34=9|49=QUANT|52=20100821-22:36:31.940|56=NESTI|7=8|16=0|10=102|
8=FIX.4.2|9=96|35=4|34=8|43=Y|49=NESTI|52=20100821-22:36:31.940|56=QUANT|122=20100821-22:36:31.940|36=10|123=Y|10=029|
8=FIX.4.2|9=54|35=0|34=10|49=NESTI|52=20100821-22:37:31.782|56=QUANT|10=016|
8=FIX.4.2|9=54|35=0|34=10|49=QUANT|52=20100821-22:37:31.782|56=NESTI|10=016|
8=FIX.4.2|9=54|35=0|34=11|49=NESTI|52=20100821-22:38:31.827|56=QUANT|10=018|
8=FIX.4.2|9=63|35=1|34=12|49=NESTI|52=20100821-22:38:43.843|56=QUANT|112=TEST|10=039|
8=FIX.4.2|9=63|35=1|34=11|49=QUANT|52=20100821-22:39:11.123|56=NESTI|112=TEST|10=025|
8=FIX.4.2|9=63|35=0|34=13|49=NESTI|52=20100821-22:39:11.123|56=QUANT|112=TEST|10=026|
8=FIX.4.2|9=63|35=0|34=12|49=QUANT|52=20100821-22:39:11.123|56=NESTI|112=TEST|10=025|
8=FIX.4.2|9=54|35=0|34=13|49=QUANT|52=20100821-22:40:11.168|56=NESTI|10=009|
8=FIX.4.2|9=54|35=0|34=14|49=NESTI|52=20100821-22:40:11.168|56=QUANT|10=010|
8=FIX.4.2|9=54|35=0|34=15|49=NESTI|52=20100821-22:41:11.159|56=QUANT|10=012|
8=FIX.4.2|9=54|35=0|34=14|49=QUANT|52=20100821-22:41:11.159|56=NESTI|10=011|
8=FIX.4.2|9=54|35=0|34=15|49=QUANT|52=20100821-22:42:11.275|56=NESTI|10=012|
8=FIX.4.2|9=54|35=0|34=16|49=NESTI|52=20100821-22:42:11.275|56=QUANT|10=013|
8=FIX.4.2|9=54|35=0|34=17|49=NESTI|52=20100821-22:43:11.096|56=QUANT|10=016|
8=FIX.4.2|9=54|35=0|34=16|49=QUANT|52=20100821-22:43:11.096|56=NESTI|10=015|
8=FIX.4.2|9=54|35=0|34=18|49=NESTI|52=20100821-22:44:11.569|56=QUANT|10=023|
8=FIX.4.2|9=54|35=0|34=17|49=QUANT|52=20100821-22:44:14.050|56=NESTI|10=010|
8=FIX.4.2|9=54|35=0|34=19|49=NESTI|52=20100821-22:45:11.033|56=QUANT|10=011|
8=FIX.4.2|9=54|35=0|34=18|49=QUANT|52=20100821-22:45:16.786|56=NESTI|10=030|
8=FIX.4.2|9=66|35=A|34=19|49=QUANT|52=20100821-22:47:21.464|56=NESTI|98=0|108=60|10=070|
8=FIX.4.2|9=66|35=A|34=20|49=NESTI|52=20100821-22:47:21.510|56=QUANT|98=0|108=60|10=054|
8=FIX.4.2|9=54|35=0|34=20|49=QUANT|52=20100821-22:48:21.060|56=NESTI|10=007|
8=FIX.4.2|9=54|35=0|34=21|49=NESTI|52=20100821-22:48:21.060|56=QUANT|10=008|
8=FIX.4.2|9=54|35=0|34=22|49=NESTI|52=20100821-22:49:21.046|56=QUANT|10=014|
8=FIX.4.2|9=54|35=0|34=21|49=QUANT|52=20100821-22:49:21.046|56=NESTI|10=013|
8=FIX.4.2|9=54|35=0|34=22|49=QUANT|52=20100821-22:50:21.578|56=NESTI|10=016|
8=FIX.4.2|9=54|35=0|34=23|49=NESTI|52=20100821-22:50:21.578|56=QUANT|10=017|
8=FIX.4.2|9=54|35=0|34=23|49=QUANT|52=20100821-22:51:21.404|56=NESTI|10=006|
8=FIX.4.2|9=54|35=0|34=24|49=NESTI|52=20100821-22:51:21.404|56=QUANT|10=007|
8=FIX.4.2|9=54|35=0|34=24|49=QUANT|52=20100821-22:52:21.259|56=NESTI|10=016|
8=FIX.4.2|9=54|35=0|34=25|49=NESTI|52=20100821-22:52:21.259|56=QUANT|10=017|
8=FIX.4.2|9=54|35=0|34=26|49=NESTI|52=20100821-22:53:21.349|56=QUANT|10=019|
8=FIX.4.2|9=65|35=A|34=1|49=QUANT|52=20100822-18:03:09.223|56=NESTI|98=0|108=60|10=009|
8=FIX.4.2|9=65|35=A|34=1|49=NESTI|52=20100822-18:03:09.254|56=QUANT|98=0|108=60|10=013|
8=FIX.4.2|9=53|35=0|34=2|49=QUANT|52=20100822-18:04:09.372|56=NESTI|10=224|
8=FIX.4.2|9=53|35=0|34=2|49=NESTI|52=20100822-18:04:09.388|56=QUANT|10=231|
8=FIX.4.2|9=53|35=0|34=3|49=NESTI|52=20100822-18:05:09.022|56=QUANT|10=218|
8=FIX.4.2|9=53|35=0|34=3|49=QUANT|52=20100822-18:05:09.928|56=NESTI|10=233|
8=FIX.4.2|9=53|35=0|34=4|49=NESTI|52=20100822-18:06:09.186|56=QUANT|10=231|
8=FIX.4.2|9=53|35=0|34=4|49=QUANT|52=20100822-18:06:09.796|56=NESTI|10=238|
8=FIX.4.2|9=126|35=D|34=5|49=QUANT|52=20100822-18:06:52.322|56=NESTI|11=QNF0001|21=1|38=100|40=1|54=2|55=PETR4.SA|60=20100822-15:06:25|9304=N|10=093|
8=FIX.4.2|9=149|35=8|34=5|49=NESTI|52=20100822-18:06:52.353|56=QUANT|6=0|11=QNF0001|14=50|17=001|20=0|31=66.6|32=50|37=001|38=100|39=1|54=2|55=PETR4.SA|150=1|151=50|10=210|
8=FIX.4.2|9=65|35=A|34=6|49=QUANT|52=20100822-18:08:56.105|56=NESTI|98=0|108=60|10=020|
8=FIX.4.2|9=65|35=A|34=6|49=NESTI|52=20100822-18:08:56.198|56=QUANT|98=0|108=60|10=032|
8=FIX.4.2|9=126|35=D|34=7|49=QUANT|52=20100822-18:09:43.302|56=NESTI|11=QNF0002|21=1|38=100|40=1|54=2|55=PETR4.SA|60=20100822-15:09:27|9304=N|10=102|
8=FIX.4.2|9=149|35=8|34=7|49=NESTI|52=20100822-18:09:43.318|56=QUANT|6=0|11=QNF0002|14=50|17=001|20=0|31=66.6|32=50|37=001|38=100|39=1|54=2|55=PETR4.SA|150=1|151=50|10=217|
8=FIX.4.2|9=53|35=0|34=8|49=NESTI|52=20100822-18:10:43.483|56=QUANT|10=228|
8=FIX.4.2|9=53|35=0|34=8|49=QUANT|52=20100822-18:10:43.483|56=NESTI|10=228|
8=FIX.4.2|9=53|35=0|34=9|49=NESTI|52=20100822-18:11:43.648|56=QUANT|10=233|
8=FIX.4.2|9=53|35=0|34=9|49=QUANT|52=20100822-18:11:43.648|56=NESTI|10=233|
8=FIX.4.2|9=54|35=0|34=10|49=QUANT|52=20100822-18:12:43.141|56=NESTI|10=007|
8=FIX.4.2|9=54|35=0|34=10|49=NESTI|52=20100822-18:12:43.141|56=QUANT|10=007|
8=FIX.4.2|9=54|35=0|34=11|49=QUANT|52=20100822-18:13:43.306|56=NESTI|10=012|
8=FIX.4.2|9=54|35=0|34=11|49=NESTI|52=20100822-18:13:43.306|56=QUANT|10=012|
8=FIX.4.2|9=54|35=0|34=12|49=NESTI|52=20100822-18:14:43.143|56=QUANT|10=013|
8=FIX.4.2|9=54|35=0|34=12|49=QUANT|52=20100822-18:14:43.143|56=NESTI|10=013|
8=FIX.4.2|9=54|35=0|34=13|49=NESTI|52=20100822-18:15:43.308|56=QUANT|10=018|
8=FIX.4.2|9=54|35=0|34=13|49=QUANT|52=20100822-18:15:43.308|56=NESTI|10=018|
8=FIX.4.2|9=54|35=0|34=14|49=NESTI|52=20100822-18:16:43.473|56=QUANT|10=023|
8=FIX.4.2|9=54|35=0|34=14|49=QUANT|52=20100822-18:16:43.473|56=NESTI|10=023|
8=FIX.4.2|9=54|35=0|34=15|49=NESTI|52=20100822-18:17:43.669|56=QUANT|10=032|
8=FIX.4.2|9=54|35=0|34=15|49=QUANT|52=20100822-18:17:43.669|56=NESTI|10=032|
8=FIX.4.2|9=54|35=0|34=16|49=QUANT|52=20100822-18:18:43.131|56=NESTI|10=018|
8=FIX.4.2|9=54|35=0|34=16|49=NESTI|52=20100822-18:18:43.131|56=QUANT|10=018|
8=FIX.4.2|9=54|35=0|34=17|49=QUANT|52=20100822-18:19:43.296|56=NESTI|10=032|
8=FIX.4.2|9=54|35=0|34=17|49=NESTI|52=20100822-18:19:43.296|56=QUANT|10=032|
8=FIX.4.2|9=54|35=0|34=18|49=NESTI|52=20100822-18:20:43.164|56=QUANT|10=019|
8=FIX.4.2|9=63|35=1|34=19|49=NESTI|52=20100822-18:20:55.194|56=QUANT|112=TEST|10=045|
8=FIX.4.2|9=63|35=1|34=18|49=QUANT|52=20100822-18:21:56.812|56=NESTI|112=TEST|10=043|
8=FIX.4.2|9=63|35=0|34=20|49=NESTI|52=20100822-18:21:57.202|56=QUANT|112=TEST|10=029|
8=FIX.4.2|9=63|35=0|34=19|49=QUANT|52=20100822-18:21:58.405|56=NESTI|112=TEST|10=043|
8=FIX.4.2|9=126|35=D|34=20|49=QUANT|52=20100822-18:22:31.667|56=NESTI|11=QNF0003|21=1|38=50|40=1|54=2|55=PETR4.SA|60=20100822-15:22:31|9304=N|10=098|
8=FIX.4.2|9=149|35=8|34=21|49=NESTI|52=20100822-18:22:31.667|56=QUANT|6=0|11=QNF0003|14=25|17=001|20=0|31=66.6|32=25|37=001|38=50|39=1|54=2|55=PETR4.SA|150=1|151=25|10=223|
8=FIX.4.2|9=54|35=0|34=21|49=QUANT|52=20100822-18:23:31.598|56=NESTI|10=024|
8=FIX.4.2|9=54|35=0|34=22|49=NESTI|52=20100822-18:23:31.598|56=QUANT|10=025|
8=FIX.4.2|9=54|35=0|34=22|49=QUANT|52=20100822-18:24:31.763|56=NESTI|10=020|
8=FIX.4.2|9=54|35=0|34=23|49=NESTI|52=20100822-18:24:31.763|56=QUANT|10=021|
8=FIX.4.2|9=54|35=0|34=23|49=QUANT|52=20100822-18:25:31.943|56=NESTI|10=022|
8=FIX.4.2|9=54|35=0|34=24|49=NESTI|52=20100822-18:25:31.943|56=QUANT|10=023|
8=FIX.4.2|9=54|35=0|34=24|49=QUANT|52=20100822-18:26:31.093|56=NESTI|10=020|
8=FIX.4.2|9=54|35=0|34=25|49=NESTI|52=20100822-18:26:31.093|56=QUANT|10=021|
8=FIX.4.2|9=54|35=0|34=25|49=QUANT|52=20100822-18:27:31.273|56=NESTI|10=022|
8=FIX.4.2|9=54|35=0|34=26|49=NESTI|52=20100822-18:27:31.273|56=QUANT|10=023|
8=FIX.4.2|9=54|35=0|34=26|49=QUANT|52=20100822-18:28:31.438|56=NESTI|10=027|
8=FIX.4.2|9=54|35=0|34=27|49=NESTI|52=20100822-18:28:31.438|56=QUANT|10=028|
8=FIX.4.2|9=54|35=0|34=27|49=QUANT|52=20100822-18:29:31.603|56=NESTI|10=023|
8=FIX.4.2|9=54|35=0|34=28|49=NESTI|52=20100822-18:29:31.603|56=QUANT|10=024|
8=FIX.4.2|9=54|35=0|34=28|49=QUANT|52=20100822-18:30:31.768|56=NESTI|10=028|
8=FIX.4.2|9=54|35=0|34=29|49=NESTI|52=20100822-18:30:31.768|56=QUANT|10=029|
8=FIX.4.2|9=54|35=0|34=29|49=QUANT|52=20100822-18:31:31.933|56=NESTI|10=024|
8=FIX.4.2|9=54|35=0|34=30|49=NESTI|52=20100822-18:31:31.933|56=QUANT|10=016|
8=FIX.4.2|9=54|35=0|34=30|49=QUANT|52=20100822-18:32:31.098|56=NESTI|10=019|
8=FIX.4.2|9=54|35=0|34=31|49=NESTI|52=20100822-18:32:31.098|56=QUANT|10=020|
8=FIX.4.2|9=54|35=0|34=31|49=QUANT|52=20100822-18:33:31.263|56=NESTI|10=015|
8=FIX.4.2|9=54|35=0|34=32|49=NESTI|52=20100822-18:33:31.263|56=QUANT|10=016|
8=FIX.4.2|9=54|35=0|34=32|49=QUANT|52=20100822-18:34:31.428|56=NESTI|10=020|
8=FIX.4.2|9=54|35=0|34=33|49=NESTI|52=20100822-18:34:31.428|56=QUANT|10=021|
8=FIX.4.2|9=54|35=0|34=33|49=QUANT|52=20100822-18:35:31.593|56=NESTI|10=025|
8=FIX.4.2|9=54|35=0|34=34|49=NESTI|52=20100822-18:35:31.593|56=QUANT|10=026|
8=FIX.4.2|9=54|35=0|34=34|49=QUANT|52=20100822-18:36:31.758|56=NESTI|10=030|
8=FIX.4.2|9=54|35=0|34=35|49=NESTI|52=20100822-18:36:31.758|56=QUANT|10=031|
8=FIX.4.2|9=54|35=0|34=35|49=QUANT|52=20100822-18:37:31.923|56=NESTI|10=026|
8=FIX.4.2|9=54|35=0|34=36|49=NESTI|52=20100822-18:37:31.923|56=QUANT|10=027|
8=FIX.4.2|9=54|35=0|34=36|49=QUANT|52=20100822-18:38:31.088|56=NESTI|10=030|
8=FIX.4.2|9=54|35=0|34=37|49=NESTI|52=20100822-18:38:31.088|56=QUANT|10=031|
8=FIX.4.2|9=54|35=0|34=37|49=QUANT|52=20100822-18:39:31.253|56=NESTI|10=026|
8=FIX.4.2|9=54|35=0|34=38|49=NESTI|52=20100822-18:39:31.253|56=QUANT|10=027|
8=FIX.4.2|9=54|35=0|34=38|49=QUANT|52=20100822-18:40:31.418|56=NESTI|10=022|
8=FIX.4.2|9=54|35=0|34=39|49=NESTI|52=20100822-18:40:31.418|56=QUANT|10=023|
8=FIX.4.2|9=54|35=0|34=40|49=NESTI|52=20100822-18:41:31.614|56=QUANT|10=014|
8=FIX.4.2|9=54|35=0|34=39|49=QUANT|52=20100822-18:41:31.723|56=NESTI|10=023|
8=FIX.4.2|9=66|35=A|34=40|49=QUANT|52=20100822-19:06:39.237|56=NESTI|98=0|108=60|10=073|
8=FIX.4.2|9=66|35=A|34=41|49=NESTI|52=20100822-19:06:39.284|56=QUANT|98=0|108=60|10=076|
8=FIX.4.2|9=127|35=D|34=41|49=QUANT|52=20100822-19:07:35.262|56=NESTI|11=QNF0004|21=1|38=200|40=1|54=2|55=PETR4.SA|60=20100822-16:07:35|9304=N|10=155|
8=FIX.4.2|9=153|35=8|34=42|49=NESTI|52=20100822-19:07:35.262|56=QUANT|6=0|11=QNF0004|14=100|17=001|20=0|31=66.6|32=100|37=001|38=200|39=1|54=2|55=PETR4.SA|150=1|151=100|10=136|
8=FIX.4.2|9=127|35=D|34=42|49=QUANT|52=20100822-19:08:02.477|56=NESTI|11=QNF0005|21=1|38=100|40=1|54=1|55=PETR4.SA|60=20100822-16:08:02|9304=N|10=153|
8=FIX.4.2|9=150|35=8|34=43|49=NESTI|52=20100822-19:08:02.493|56=QUANT|6=0|11=QNF0005|14=50|17=001|20=0|31=66.6|32=50|37=001|38=100|39=1|54=1|55=PETR4.SA|150=1|151=50|10=002|
8=FIX.4.2|9=54|35=0|34=44|49=NESTI|52=20100822-19:09:02.174|56=QUANT|10=022|
8=FIX.4.2|9=54|35=0|34=43|49=QUANT|52=20100822-19:09:02.111|56=NESTI|10=012|
8=FIX.4.2|9=54|35=0|34=44|49=QUANT|52=20100822-19:10:02.026|56=NESTI|10=010|
8=FIX.4.2|9=54|35=0|34=45|49=NESTI|52=20100822-19:10:02.026|56=QUANT|10=011|
8=FIX.4.2|9=54|35=0|34=45|49=QUANT|52=20100822-19:11:02.191|56=NESTI|10=015|
8=FIX.4.2|9=54|35=0|34=46|49=NESTI|52=20100822-19:11:02.191|56=QUANT|10=016|
8=FIX.4.2|9=54|35=0|34=46|49=QUANT|52=20100822-19:12:02.372|56=NESTI|10=018|
8=FIX.4.2|9=54|35=0|34=47|49=NESTI|52=20100822-19:12:02.372|56=QUANT|10=019|
8=FIX.4.2|9=54|35=0|34=47|49=QUANT|52=20100822-19:13:02.537|56=NESTI|10=023|
8=FIX.4.2|9=54|35=0|34=48|49=NESTI|52=20100822-19:13:02.537|56=QUANT|10=024|
8=FIX.4.2|9=54|35=0|34=49|49=NESTI|52=20100822-19:14:02.014|56=QUANT|10=016|
8=FIX.4.2|9=54|35=0|34=48|49=QUANT|52=20100822-19:14:02.014|56=NESTI|10=015|
8=FIX.4.2|9=54|35=0|34=50|49=NESTI|52=20100822-19:15:02.179|56=QUANT|10=021|
8=FIX.4.2|9=54|35=0|34=49|49=QUANT|52=20100822-19:15:02.179|56=NESTI|10=029|
8=FIX.4.2|9=54|35=0|34=50|49=QUANT|52=20100822-19:16:02.032|56=NESTI|10=010|
8=FIX.4.2|9=54|35=0|34=51|49=NESTI|52=20100822-19:16:02.032|56=QUANT|10=011|
8=FIX.4.2|9=54|35=0|34=51|49=QUANT|52=20100822-19:17:02.196|56=NESTI|10=023|
8=FIX.4.2|9=54|35=0|34=52|49=NESTI|52=20100822-19:17:02.196|56=QUANT|10=024|
8=FIX.4.2|9=54|35=0|34=52|49=QUANT|52=20100822-19:18:02.361|56=NESTI|10=019|
8=FIX.4.2|9=54|35=0|34=53|49=NESTI|52=20100822-19:18:02.361|56=QUANT|10=020|
8=FIX.4.2|9=54|35=0|34=53|49=QUANT|52=20100822-19:19:02.526|56=NESTI|10=024|
8=FIX.4.2|9=54|35=0|34=54|49=NESTI|52=20100822-19:19:02.526|56=QUANT|10=025|
8=FIX.4.2|9=54|35=0|34=55|49=NESTI|52=20100822-19:20:02.004|56=QUANT|10=009|
8=FIX.4.2|9=54|35=0|34=54|49=QUANT|52=20100822-19:20:02.004|56=NESTI|10=008|
8=FIX.4.2|9=54|35=0|34=56|49=NESTI|52=20100822-19:21:02.169|56=QUANT|10=023|
8=FIX.4.2|9=54|35=0|34=55|49=QUANT|52=20100822-19:21:02.169|56=NESTI|10=022|
8=FIX.4.2|9=54|35=0|34=56|49=QUANT|52=20100822-19:22:02.021|56=NESTI|10=011|
8=FIX.4.2|9=54|35=0|34=57|49=NESTI|52=20100822-19:22:02.021|56=QUANT|10=012|
8=FIX.4.2|9=54|35=0|34=57|49=QUANT|52=20100822-19:23:02.186|56=NESTI|10=025|
8=FIX.4.2|9=54|35=0|34=58|49=NESTI|52=20100822-19:23:02.186|56=QUANT|10=026|
8=FIX.4.2|9=54|35=0|34=58|49=QUANT|52=20100822-19:24:02.351|56=NESTI|10=021|
8=FIX.4.2|9=54|35=0|34=59|49=NESTI|52=20100822-19:24:02.351|56=QUANT|10=022|
8=FIX.4.2|9=54|35=0|34=59|49=QUANT|52=20100822-19:25:02.516|56=NESTI|10=026|
8=FIX.4.2|9=54|35=0|34=60|49=NESTI|52=20100822-19:25:02.516|56=QUANT|10=018|
8=FIX.4.2|9=54|35=0|34=61|49=NESTI|52=20100822-19:26:02.009|56=QUANT|10=017|
8=FIX.4.2|9=54|35=0|34=60|49=QUANT|52=20100822-19:26:02.009|56=NESTI|10=016|
8=FIX.4.2|9=54|35=0|34=62|49=NESTI|52=20100822-19:27:02.174|56=QUANT|10=022|
8=FIX.4.2|9=54|35=0|34=61|49=QUANT|52=20100822-19:27:02.174|56=NESTI|10=021|
8=FIX.4.2|9=54|35=0|34=62|49=QUANT|52=20100822-19:28:02.011|56=NESTI|10=013|
8=FIX.4.2|9=54|35=0|34=63|49=NESTI|52=20100822-19:28:02.011|56=QUANT|10=014|
8=FIX.4.2|9=54|35=0|34=63|49=QUANT|52=20100822-19:29:02.192|56=NESTI|10=025|
8=FIX.4.2|9=54|35=0|34=64|49=NESTI|52=20100822-19:29:02.192|56=QUANT|10=026|
8=FIX.4.2|9=54|35=0|34=64|49=QUANT|52=20100822-19:30:02.357|56=NESTI|10=021|
8=FIX.4.2|9=54|35=0|34=65|49=NESTI|52=20100822-19:30:02.357|56=QUANT|10=022|
8=FIX.4.2|9=54|35=0|34=65|49=QUANT|52=20100822-19:31:02.522|56=NESTI|10=017|
8=FIX.4.2|9=54|35=0|34=66|49=NESTI|52=20100822-19:31:02.522|56=QUANT|10=018|
8=FIX.4.2|9=54|35=0|34=66|49=QUANT|52=20100822-19:32:02.686|56=NESTI|10=030|
8=FIX.4.2|9=54|35=0|34=67|49=NESTI|52=20100822-19:32:02.686|56=QUANT|10=031|
8=FIX.4.2|9=66|35=A|34=67|49=QUANT|52=20100822-19:43:56.386|56=NESTI|98=0|108=60|10=087|
8=FIX.4.2|9=66|35=A|34=68|49=NESTI|52=20100822-19:43:56.479|56=QUANT|98=0|108=60|10=091|
8=FIX.4.2|9=127|35=D|34=68|49=QUANT|52=20100822-19:44:51.926|56=NESTI|11=QNF0006|21=1|38=100|40=1|54=1|55=PETR4.SA|60=20100822-16:44:51|9304=N|10=169|
8=FIX.4.2|9=150|35=8|34=69|49=NESTI|52=20100822-19:44:51.942|56=QUANT|6=0|11=QNF0006|14=50|17=001|20=0|31=66.6|32=50|37=001|38=100|39=1|54=1|55=PETR4.SA|150=1|151=50|10=014|
8=FIX.4.2|9=54|35=0|34=69|49=QUANT|52=20100822-19:45:51.247|56=NESTI|10=034|
8=FIX.4.2|9=54|35=0|34=70|49=NESTI|52=20100822-19:45:51.247|56=QUANT|10=026|
8=FIX.4.2|9=66|35=A|34=70|49=QUANT|52=20100822-21:15:09.380|56=NESTI|98=0|108=60|10=065|
8=FIX.4.2|9=66|35=A|34=71|49=NESTI|52=20100822-21:15:09.458|56=QUANT|98=0|108=60|10=072|
8=FIX.4.2|9=127|35=D|34=71|49=QUANT|52=20100822-21:15:42.704|56=NESTI|11=QNF0007|21=1|38=400|40=1|54=1|55=PETR4.SA|60=20100822-18:15:42|9304=N|10=152|
8=FIX.4.2|9=153|35=8|34=72|49=NESTI|52=20100822-21:15:42.751|56=QUANT|6=0|11=QNF0007|14=200|17=001|20=0|31=66.6|32=200|37=001|38=400|39=1|54=1|55=PETR4.SA|150=1|151=200|10=139|
8=FIX.4.2|9=54|35=0|34=72|49=QUANT|52=20100822-21:16:42.635|56=NESTI|10=020|
8=FIX.4.2|9=54|35=0|34=73|49=NESTI|52=20100822-21:16:42.635|56=QUANT|10=021|
8=FIX.4.2|9=66|35=A|34=73|49=QUANT|52=20100822-21:18:13.609|56=NESTI|98=0|108=60|10=070|
8=FIX.4.2|9=66|35=A|34=74|49=NESTI|52=20100822-21:18:13.640|56=QUANT|98=0|108=60|10=066|
8=FIX.4.2|9=128|35=D|34=74|49=QUANT|52=20100822-21:18:45.371|56=NESTI|11=QNF0008|21=1|38=1000|40=1|54=1|55=PETR4.SA|60=20100822-18:18:45|9304=N|10=214|
8=FIX.4.2|9=154|35=8|34=75|49=NESTI|52=20100822-21:18:45.386|56=QUANT|6=0|11=QNF0008|14=500|17=001|20=0|31=66.6|32=500|37=001|38=1000|39=1|54=1|55=PETR4.SA|150=1|151=500|10=208|
8=FIX.4.2|9=66|35=A|34=75|49=QUANT|52=20100822-21:19:12.493|56=NESTI|98=0|108=60|10=073|
8=FIX.4.2|9=66|35=A|34=76|49=NESTI|52=20100822-21:19:12.539|56=QUANT|98=0|108=60|10=075|
8=FIX.4.2|9=128|35=D|34=76|49=QUANT|52=20100822-21:19:25.725|56=NESTI|11=QNF0009|21=1|38=1000|40=1|54=1|55=PETR4.SA|60=20100822-18:19:25|9304=N|10=218|
8=FIX.4.2|9=154|35=8|34=77|49=NESTI|52=20100822-21:19:25.725|56=QUANT|6=0|11=QNF0009|14=500|17=001|20=0|31=66.6|32=500|37=001|38=1000|39=1|54=1|55=PETR4.SA|150=1|151=500|10=207|
8=FIX.4.2|9=54|35=0|34=78|49=NESTI|52=20100822-21:20:25.500|56=QUANT|10=013|
8=FIX.4.2|9=54|35=0|34=77|49=QUANT|52=20100822-21:20:25.500|56=NESTI|10=012|
8=FIX.4.2|9=127|35=D|34=78|49=QUANT|52=20100822-21:20:41.998|56=NESTI|11=QNF0010|21=1|38=100|40=1|54=1|55=VALE5.SA|60=20100822-18:20:41|9304=N|10=137|
8=FIX.4.2|9=150|35=8|34=79|49=NESTI|52=20100822-21:20:42.013|56=QUANT|6=0|11=QNF0010|14=50|17=001|20=0|31=66.6|32=50|37=001|38=100|39=1|54=1|55=VALE5.SA|150=1|151=50|10=224|
8=FIX.4.2|9=54|35=0|34=79|49=QUANT|52=20100822-21:21:41.913|56=NESTI|10=021|
8=FIX.4.2|9=54|35=0|34=80|49=NESTI|52=20100822-21:21:42.741|56=QUANT|10=013|
8=FIX.4.2|9=127|35=D|34=80|49=QUANT|52=20100822-21:22:14.737|56=NESTI|11=QNF0011|21=1|38=100|40=1|54=1|55=LAME3.SA|60=20100822-18:22:14|9304=N|10=115|
8=FIX.4.2|9=150|35=8|34=81|49=NESTI|52=20100822-21:22:14.737|56=QUANT|6=0|11=QNF0011|14=50|17=001|20=0|31=66.6|32=50|37=001|38=100|39=1|54=1|55=LAME3.SA|150=1|151=50|10=221|
8=FIX.4.2|9=66|35=A|34=81|49=QUANT|52=20100822-21:22:34.844|56=NESTI|98=0|108=60|10=068|
8=FIX.4.2|9=66|35=A|34=82|49=NESTI|52=20100822-21:22:34.875|56=QUANT|98=0|108=60|10=073|
8=FIX.4.2|9=54|35=0|34=83|49=NESTI|52=20100822-21:23:34.072|56=QUANT|10=016|
8=FIX.4.2|9=54|35=0|34=82|49=QUANT|52=20100822-21:23:34.072|56=NESTI|10=015|
8=FIX.4.2|9=54|35=0|34=83|49=QUANT|52=20100822-21:24:34.159|56=NESTI|10=023|
8=FIX.4.2|9=54|35=0|34=84|49=NESTI|52=20100822-21:24:34.159|56=QUANT|10=024|
8=FIX.4.2|9=127|35=D|34=84|49=QUANT|52=20100822-21:24:43.486|56=NESTI|11=QNF0012|21=1|38=100|40=1|54=1|55=PETR4.SA|60=20100822-18:24:43|9304=N|10=158|
8=FIX.4.2|9=150|35=8|34=85|49=NESTI|52=20100822-21:24:43.501|56=QUANT|6=0|11=QNF0012|14=50|17=001|20=0|31=66.6|32=50|37=001|38=100|39=1|54=1|55=PETR4.SA|150=1|151=50|10=248|
8=FIX.4.2|9=54|35=0|34=85|49=QUANT|52=20100822-21:25:43.354|56=NESTI|10=023|
8=FIX.4.2|9=54|35=0|34=86|49=NESTI|52=20100822-21:25:43.354|56=QUANT|10=024|
8=FIX.4.2|9=66|35=A|34=86|49=QUANT|52=20100822-21:26:36.098|56=NESTI|98=0|108=60|10=080|
8=FIX.4.2|9=66|35=A|34=87|49=NESTI|52=20100822-21:26:36.129|56=QUANT|98=0|108=60|10=076|
8=FIX.4.2|9=54|35=0|34=87|49=QUANT|52=20100822-21:27:36.175|56=NESTI|10=030|
8=FIX.4.2|9=54|35=0|34=88|49=NESTI|52=20100822-21:27:36.175|56=QUANT|10=031|
8=FIX.4.2|9=66|35=A|34=88|49=QUANT|52=20100822-21:51:45.017|56=NESTI|98=0|108=60|10=071|
8=FIX.4.2|9=66|35=A|34=89|49=NESTI|52=20100822-21:51:45.064|56=QUANT|98=0|108=60|10=074|
8=FIX.4.2|9=65|35=A|34=1|49=QUANT|52=20111111-16:39:55.345|56=NESTI|98=0|108=60|10=015|
8=FIX.4.2|9=65|35=A|34=1|49=NESTI|52=20111111-16:39:55.455|56=QUANT|98=0|108=60|10=017|
8=FIX.4.2|9=53|35=0|34=2|49=QUANT|52=20111111-16:40:55.330|56=NESTI|10=210|
8=FIX.4.2|9=53|35=0|34=2|49=NESTI|52=20111111-16:40:55.361|56=QUANT|10=214|
8=FIX.4.2|9=53|35=0|34=3|49=QUANT|52=20111111-16:41:55.361|56=NESTI|10=216|
8=FIX.4.2|9=53|35=0|34=3|49=NESTI|52=20111111-16:41:55.361|56=QUANT|10=216|
8=FIX.4.2|9=53|35=0|34=4|49=NESTI|52=20111111-16:42:55.611|56=QUANT|10=216|
8=FIX.4.2|9=53|35=0|34=4|49=QUANT|52=20111111-16:42:55.611|56=NESTI|10=216|
8=FIX.4.2|9=131|35=D|34=5|49=QUANT|52=20111111-16:43:15.377|56=NESTI|11=QNF0001|21=1|38=100|40=1|54=1|55=PETR4|60=20111111-14:43:15|9304=N|9307=43|10=007|
8=FIX.4.2|9=62|35=1|34=5|49=NESTI|52=20111111-16:45:27.580|56=QUANT|112=TEST|10=243|
8=FIX.4.2|9=65|35=A|34=7|49=QUANT|52=20111111-16:45:26.986|56=NESTI|98=0|108=60|10=027|
8=FIX.4.2|9=65|35=A|34=6|49=NESTI|52=20111111-16:45:27.580|56=QUANT|98=0|108=60|10=017|
8=FIX.4.2|9=62|35=2|34=7|49=NESTI|52=20111111-16:45:27.580|56=QUANT|7=6|16=0|10=100|
8=FIX.4.2|9=62|35=2|34=8|49=QUANT|52=20111111-16:45:27.580|56=NESTI|7=5|16=0|10=100|
8=FIX.4.2|9=95|35=4|34=5|43=Y|49=NESTI|52=20111111-16:45:27.595|56=QUANT|122=20111111-16:45:27.595|36=8|123=Y|10=000|
8=FIX.4.2|9=95|35=4|34=6|43=Y|49=QUANT|52=20111111-16:45:27.595|56=NESTI|122=20111111-16:45:27.595|36=9|123=Y|10=002|
8=FIX.4.2|9=53|35=0|34=8|49=NESTI|52=20111111-16:46:27.595|56=QUANT|10=234|
8=FIX.4.2|9=53|35=0|34=9|49=QUANT|52=20111111-16:46:27.595|56=NESTI|10=235|
8=FIX.4.2|9=54|35=0|34=10|49=QUANT|52=20111111-16:47:27.002|56=NESTI|10=004|
8=FIX.4.2|9=53|35=0|34=9|49=NESTI|52=20111111-16:47:27.002|56=QUANT|10=219|
8=FIX.4.2|9=54|35=0|34=11|49=QUANT|52=20111111-16:48:27.002|56=NESTI|10=006|
8=FIX.4.2|9=54|35=0|34=10|49=NESTI|52=20111111-16:48:27.002|56=QUANT|10=005|
8=FIX.4.2|9=54|35=0|34=12|49=QUANT|52=20111111-16:49:27.002|56=NESTI|10=008|
8=FIX.4.2|9=54|35=0|34=11|49=NESTI|52=20111111-16:49:27.002|56=QUANT|10=007|
8=FIX.4.2|9=54|35=0|34=13|49=QUANT|52=20111111-16:50:27.002|56=NESTI|10=001|
8=FIX.4.2|9=54|35=0|34=12|49=NESTI|52=20111111-16:50:27.002|56=QUANT|10=000|
8=FIX.4.2|9=54|35=0|34=14|49=QUANT|52=20111111-16:51:27.002|56=NESTI|10=003|
8=FIX.4.2|9=54|35=0|34=13|49=NESTI|52=20111111-16:51:27.002|56=QUANT|10=002|
8=FIX.4.2|9=54|35=0|34=15|49=QUANT|52=20111111-16:52:27.002|56=NESTI|10=005|
8=FIX.4.2|9=54|35=0|34=14|49=NESTI|52=20111111-16:52:27.002|56=QUANT|10=004|
8=FIX.4.2|9=54|35=0|34=16|49=QUANT|52=20111111-16:53:27.002|56=NESTI|10=007|
8=FIX.4.2|9=54|35=0|34=15|49=NESTI|52=20111111-16:53:27.002|56=QUANT|10=006|
8=FIX.4.2|9=54|35=0|34=17|49=QUANT|52=20111111-16:54:27.002|56=NESTI|10=009|
8=FIX.4.2|9=54|35=0|34=16|49=NESTI|52=20111111-16:54:27.002|56=QUANT|10=008|
8=FIX.4.2|9=54|35=0|34=18|49=QUANT|52=20111111-16:55:27.002|56=NESTI|10=011|
8=FIX.4.2|9=54|35=0|34=17|49=NESTI|52=20111111-16:55:27.002|56=QUANT|10=010|
8=FIX.4.2|9=54|35=0|34=19|49=QUANT|52=20111111-16:56:27.002|56=NESTI|10=013|
8=FIX.4.2|9=54|35=0|34=18|49=NESTI|52=20111111-16:56:27.002|56=QUANT|10=012|
8=FIX.4.2|9=54|35=0|34=20|49=QUANT|52=20111111-16:57:27.002|56=NESTI|10=006|
8=FIX.4.2|9=54|35=0|34=19|49=NESTI|52=20111111-16:57:27.002|56=QUANT|10=014|
8=FIX.4.2|9=54|35=0|34=21|49=QUANT|52=20111111-16:58:27.002|56=NESTI|10=008|
8=FIX.4.2|9=54|35=0|34=20|49=NESTI|52=20111111-16:58:27.002|56=QUANT|10=007|
8=FIX.4.2|9=54|35=0|34=22|49=QUANT|52=20111111-16:59:27.002|56=NESTI|10=010|
8=FIX.4.2|9=54|35=0|34=21|49=NESTI|52=20111111-16:59:27.002|56=QUANT|10=009|
8=FIX.4.2|9=54|35=0|34=23|49=QUANT|52=20111111-17:00:27.002|56=NESTI|10=254|
8=FIX.4.2|9=54|35=0|34=22|49=NESTI|52=20111111-17:00:27.002|56=QUANT|10=253|
8=FIX.4.2|9=54|35=0|34=24|49=QUANT|52=20111111-17:01:27.262|56=NESTI|10=008|
8=FIX.4.2|9=54|35=0|34=23|49=NESTI|52=20111111-17:01:27.262|56=QUANT|10=007|
8=FIX.4.2|9=54|35=0|34=25|49=QUANT|52=20111111-17:02:27.076|56=NESTI|10=013|
8=FIX.4.2|9=54|35=0|34=24|49=NESTI|52=20111111-17:02:27.076|56=QUANT|10=012|
8=FIX.4.2|9=54|35=0|34=25|49=NESTI|52=20111111-17:03:27.497|56=QUANT|10=021|
8=FIX.4.2|9=54|35=0|34=26|49=QUANT|52=20111111-17:03:27.497|56=NESTI|10=022|
8=FIX.4.2|9=54|35=0|34=26|49=NESTI|52=20111111-17:04:27.311|56=QUANT|10=008|
8=FIX.4.2|9=54|35=0|34=27|49=QUANT|52=20111111-17:04:27.311|56=NESTI|10=009|
8=FIX.4.2|9=54|35=0|34=27|49=NESTI|52=20111111-17:05:27.124|56=QUANT|10=012|
8=FIX.4.2|9=54|35=0|34=28|49=QUANT|52=20111111-17:05:27.124|56=NESTI|10=013|
8=FIX.4.2|9=54|35=0|34=29|49=QUANT|52=20111111-17:06:27.335|56=NESTI|10=019|
8=FIX.4.2|9=54|35=0|34=28|49=NESTI|52=20111111-17:06:27.335|56=QUANT|10=018|
8=FIX.4.2|9=54|35=0|34=30|49=QUANT|52=20111111-17:07:27.060|56=NESTI|10=007|
8=FIX.4.2|9=54|35=0|34=29|49=NESTI|52=20111111-17:07:27.060|56=QUANT|10=015|
8=FIX.4.2|9=54|35=0|34=30|49=NESTI|52=20111111-17:08:27.378|56=QUANT|10=020|
8=FIX.4.2|9=54|35=0|34=31|49=QUANT|52=20111111-17:08:27.378|56=NESTI|10=021|
