8=FIX.4.2|9=73|35=A|34=1|49=QUANTTEST|52=20100420-20:08:03.030|56=NESTITEST|98=0|108=60|10=118|
8=FIX.4.2|9=73|35=A|34=1|49=NESTITEST|52=20100420-20:08:23.234|56=QUANTTEST|98=0|108=60|10=126|
8=FIX.4.2|9=61|35=5|34=2|49=QUANTTEST|52=20100420-20:08:26.093|56=NESTITEST|10=090|
8=FIX.4.2|9=61|35=5|34=2|49=NESTITEST|52=20100420-20:08:26.093|56=QUANTTEST|10=090|
8=FIX.4.2|9=73|35=A|34=3|49=QUANTTEST|52=20100420-20:10:40.938|56=NESTITEST|98=0|108=60|10=131|
8=FIX.4.2|9=73|35=A|34=3|49=NESTITEST|52=20100420-20:10:41.000|56=QUANTTEST|98=0|108=60|10=112|
8=FIX.4.2|9=73|35=A|34=4|49=QUANTTEST|52=20100420-20:12:03.735|56=NESTITEST|98=0|108=60|10=128|
8=FIX.4.2|9=73|35=A|34=4|49=NESTITEST|52=20100420-20:12:03.813|56=QUANTTEST|98=0|108=60|10=125|
8=FIX.4.2|9=61|35=0|34=5|49=NESTITEST|52=20100420-20:13:03.126|56=QUANTTEST|10=076|
8=FIX.4.2|9=61|35=0|34=5|49=QUANTTEST|52=20100420-20:13:03.126|56=NESTITEST|10=076|
8=FIX.4.2|9=61|35=0|34=6|49=NESTITEST|52=20100420-20:14:03.126|56=QUANTTEST|10=078|
8=FIX.4.2|9=61|35=0|34=6|49=QUANTTEST|52=20100420-20:14:03.126|56=NESTITEST|10=078|
8=FIX.4.2|9=61|35=0|34=7|49=NESTITEST|52=20100420-20:15:03.127|56=QUANTTEST|10=081|
8=FIX.4.2|9=61|35=0|34=7|49=QUANTTEST|52=20100420-20:15:03.127|56=NESTITEST|10=081|
8=FIX.4.2|9=61|35=0|34=8|49=NESTITEST|52=20100420-20:16:03.143|56=QUANTTEST|10=081|
8=FIX.4.2|9=61|35=0|34=8|49=QUANTTEST|52=20100420-20:16:03.143|56=NESTITEST|10=081|
8=FIX.4.2|9=61|35=0|34=9|49=NESTITEST|52=20100420-20:17:03.159|56=QUANTTEST|10=090|
8=FIX.4.2|9=61|35=0|34=9|49=QUANTTEST|52=20100420-20:17:03.159|56=NESTITEST|10=090|
8=FIX.4.2|9=62|35=0|34=10|49=NESTITEST|52=20100420-20:18:03.175|56=QUANTTEST|10=130|
8=FIX.4.2|9=62|35=0|34=10|49=QUANTTEST|52=20100420-20:18:03.175|56=NESTITEST|10=130|
8=FIX.4.2|9=62|35=0|34=11|49=NESTITEST|52=20100420-20:19:03.175|56=QUANTTEST|10=132|
8=FIX.4.2|9=62|35=0|34=11|49=QUANTTEST|52=20100420-20:19:03.175|56=NESTITEST|10=132|
8=FIX.4.2|9=62|35=0|34=12|49=NESTITEST|52=20100420-20:20:03.176|56=QUANTTEST|10=126|
8=FIX.4.2|9=62|35=0|34=12|49=QUANTTEST|52=20100420-20:20:03.176|56=NESTITEST|10=126|
8=FIX.4.2|9=62|35=5|34=13|49=QUANTTEST|52=20100420-20:20:46.832|56=NESTITEST|10=138|
8=FIX.4.2|9=62|35=5|34=13|49=NESTITEST|52=20100420-20:20:46.832|56=QUANTTEST|10=138|
8=FIX.4.2|9=74|35=A|34=14|49=QUANTTEST|52=20100420-20:21:58.130|56=NESTITEST|98=0|108=60|10=177|
8=FIX.4.2|9=74|35=A|34=14|49=NESTITEST|52=20100420-20:21:58.208|56=QUANTTEST|98=0|108=60|10=183|
8=FIX.4.2|9=62|35=0|34=15|49=QUANTTEST|52=20100420-20:22:58.177|56=NESTITEST|10=142|
8=FIX.4.2|9=62|35=0|34=15|49=NESTITEST|52=20100420-20:22:58.177|56=QUANTTEST|10=142|
8=FIX.4.2|9=62|35=0|34=16|49=QUANTTEST|52=20100420-20:23:58.177|56=NESTITEST|10=144|
8=FIX.4.2|9=62|35=0|34=16|49=NESTITEST|52=20100420-20:23:58.177|56=QUANTTEST|10=144|
8=FIX.4.2|9=62|35=0|34=17|49=QUANTTEST|52=20100420-20:24:58.178|56=NESTITEST|10=147|
8=FIX.4.2|9=62|35=0|34=17|49=NESTITEST|52=20100420-20:24:58.178|56=QUANTTEST|10=147|
8=FIX.4.2|9=62|35=0|34=18|49=QUANTTEST|52=20100420-20:25:58.209|56=NESTITEST|10=144|
8=FIX.4.2|9=62|35=0|34=18|49=NESTITEST|52=20100420-20:25:58.209|56=QUANTTEST|10=144|
8=FIX.4.2|9=62|35=5|34=19|49=QUANTTEST|52=20100420-20:26:34.209|56=NESTITEST|10=145|
8=FIX.4.2|9=62|35=5|34=19|49=NESTITEST|52=20100420-20:26:34.209|56=QUANTTEST|10=145|
8=FIX.4.2|9=74|35=A|34=20|49=QUANTTEST|52=20100420-20:27:01.991|56=NESTITEST|98=0|108=60|10=183|
8=FIX.4.2|9=74|35=A|34=20|49=NESTITEST|52=20100420-20:27:02.069|56=QUANTTEST|98=0|108=60|10=180|
8=FIX.4.2|9=62|35=0|34=21|49=QUANTTEST|52=20100420-20:28:01.007|56=NESTITEST|10=125|
8=FIX.4.2|9=62|35=0|34=21|49=NESTITEST|52=20100420-20:28:02.382|56=QUANTTEST|10=132|
8=FIX.4.2|9=62|35=5|34=22|49=QUANTTEST|52=20100420-20:28:08.007|56=NESTITEST|10=138|
8=FIX.4.2|9=62|35=5|34=22|49=NESTITEST|52=20100420-20:28:08.007|56=QUANTTEST|10=138|
8=FIX.4.2|9=74|35=A|34=23|49=QUANTTEST|52=20100420-20:28:41.085|56=NESTITEST|98=0|108=60|10=185|
8=FIX.4.2|9=74|35=A|34=23|49=NESTITEST|52=20100420-20:28:41.163|56=QUANTTEST|98=0|108=60|10=182|
8=FIX.4.2|9=62|35=0|34=24|49=QUANTTEST|52=20100420-20:29:41.086|56=NESTITEST|10=140|
8=FIX.4.2|9=62|35=0|34=24|49=NESTITEST|52=20100420-20:29:41.086|56=QUANTTEST|10=140|
8=FIX.4.2|9=62|35=0|34=25|49=QUANTTEST|52=20100420-20:30:41.102|56=NESTITEST|10=122|
8=FIX.4.2|9=62|35=0|34=25|49=NESTITEST|52=20100420-20:30:41.102|56=QUANTTEST|10=122|
8=FIX.4.2|9=62|35=5|34=26|49=QUANTTEST|52=20100420-20:31:29.102|56=NESTITEST|10=135|
8=FIX.4.2|9=62|35=5|34=26|49=NESTITEST|52=20100420-20:31:29.102|56=QUANTTEST|10=135|
8=FIX.4.2|9=74|35=A|34=27|49=QUANTTEST|52=20100420-20:33:51.243|56=NESTITEST|98=0|108=60|10=182|
8=FIX.4.2|9=74|35=A|34=27|49=NESTITEST|52=20100420-20:33:51.322|56=QUANTTEST|98=0|108=60|10=180|
8=FIX.4.2|9=62|35=0|34=28|49=QUANTTEST|52=20100420-20:34:51.228|56=NESTITEST|10=139|
8=FIX.4.2|9=62|35=0|34=28|49=NESTITEST|52=20100420-20:34:51.228|56=QUANTTEST|10=139|
8=FIX.4.2|9=62|35=0|34=29|49=QUANTTEST|52=20100420-20:35:51.229|56=NESTITEST|10=142|
8=FIX.4.2|9=62|35=0|34=29|49=NESTITEST|52=20100420-20:35:51.229|56=QUANTTEST|10=142|
8=FIX.4.2|9=62|35=0|34=30|49=QUANTTEST|52=20100420-20:36:51.245|56=NESTITEST|10=133|
8=FIX.4.2|9=62|35=0|34=30|49=NESTITEST|52=20100420-20:36:51.245|56=QUANTTEST|10=133|
8=FIX.4.2|9=62|35=0|34=31|49=QUANTTEST|52=20100420-20:37:51.245|56=NESTITEST|10=135|
8=FIX.4.2|9=62|35=0|34=31|49=NESTITEST|52=20100420-20:37:51.245|56=QUANTTEST|10=135|
8=FIX.4.2|9=62|35=0|34=32|49=QUANTTEST|52=20100420-20:38:51.245|56=NESTITEST|10=137|
8=FIX.4.2|9=62|35=0|34=32|49=NESTITEST|52=20100420-20:38:51.245|56=QUANTTEST|10=137|
8=FIX.4.2|9=62|35=5|34=33|49=QUANTTEST|52=20100420-20:39:30.246|56=NESTITEST|10=142|
8=FIX.4.2|9=62|35=5|34=33|49=NESTITEST|52=20100420-20:39:30.246|56=QUANTTEST|10=142|
8=FIX.4.2|9=74|35=A|34=34|49=QUANTTEST|52=20100420-20:43:52.700|56=NESTITEST|98=0|108=60|10=180|
8=FIX.4.2|9=74|35=A|34=34|49=NESTITEST|52=20100420-20:43:52.779|56=QUANTTEST|98=0|108=60|10=196|
8=FIX.4.2|9=62|35=0|34=35|49=QUANTTEST|52=20100420-20:44:52.123|56=NESTITEST|10=133|
8=FIX.4.2|9=62|35=0|34=35|49=NESTITEST|52=20100420-20:44:52.123|56=QUANTTEST|10=133|
8=FIX.4.2|9=62|35=5|34=36|49=QUANTTEST|52=20100420-20:45:17.123|56=NESTITEST|10=141|
8=FIX.4.2|9=62|35=5|34=36|49=NESTITEST|52=20100420-20:45:17.123|56=QUANTTEST|10=141|
8=FIX.4.2|9=74|35=A|34=37|49=QUANTTEST|52=20100420-20:45:27.576|56=NESTITEST|98=0|108=60|10=198|
8=FIX.4.2|9=74|35=A|34=37|49=NESTITEST|52=20100420-20:45:27.639|56=QUANTTEST|98=0|108=60|10=198|
8=FIX.4.2|9=62|35=0|34=38|49=NESTITEST|52=20100420-20:46:27.373|56=QUANTTEST|10=147|
8=FIX.4.2|9=62|35=0|34=38|49=QUANTTEST|52=20100420-20:46:27.373|56=NESTITEST|10=147|
8=FIX.4.2|9=62|35=0|34=39|49=NESTITEST|52=20100420-20:47:27.374|56=QUANTTEST|10=150|
8=FIX.4.2|9=71|35=1|34=40|49=NESTITEST|52=20100420-20:47:39.374|56=QUANTTEST|112=TEST|10=164|
8=FIX.4.2|9=74|35=A|34=39|49=QUANTTEST|52=20100420-20:52:44.688|56=NESTITEST|98=0|108=60|10=201|
8=FIX.4.2|9=74|35=A|34=41|49=NESTITEST|52=20100420-20:52:44.688|56=QUANTTEST|98=0|108=60|10=194|
8=FIX.4.2|9=72|35=2|34=40|49=QUANTTEST|52=20100420-20:52:44.704|56=NESTITEST|7=39|16=0|10=063|
8=FIX.4.2|9=105|35=4|34=39|43=Y|49=NESTITEST|52=20100420-20:52:44.704|56=QUANTTEST|122=20100420-20:52:44.704|36=42|123=Y|10=239|
8=FIX.4.2|9=62|35=0|34=42|49=NESTITEST|52=20100420-20:53:44.376|56=QUANTTEST|10=142|
8=FIX.4.2|9=71|35=1|34=43|49=NESTITEST|52=20100420-20:53:56.376|56=QUANTTEST|112=TEST|10=165|
8=FIX.4.2|9=71|35=1|34=41|49=QUANTTEST|52=20100420-20:54:06.564|56=NESTITEST|112=TEST|10=158|
8=FIX.4.2|9=71|35=0|34=44|49=NESTITEST|52=20100420-20:54:08.720|56=QUANTTEST|112=TEST|10=156|
8=FIX.4.2|9=71|35=0|34=42|49=QUANTTEST|52=20100420-20:54:08.736|56=NESTITEST|112=TEST|10=161|
8=FIX.4.2|9=62|35=0|34=45|49=NESTITEST|52=20100420-20:55:08.408|56=QUANTTEST|10=143|
8=FIX.4.2|9=62|35=0|34=43|49=QUANTTEST|52=20100420-20:55:08.408|56=NESTITEST|10=141|
8=FIX.4.2|9=62|35=0|34=46|49=NESTITEST|52=20100420-20:56:08.408|56=QUANTTEST|10=145|
8=FIX.4.2|9=71|35=1|34=47|49=NESTITEST|52=20100420-20:56:20.408|56=QUANTTEST|112=TEST|10=159|
8=FIX.4.2|9=62|35=0|34=44|49=QUANTTEST|52=20100420-20:56:33.643|56=NESTITEST|10=142|
8=FIX.4.2|9=71|35=0|34=45|49=QUANTTEST|52=20100420-20:56:34.783|56=NESTITEST|112=TEST|10=167|
8=FIX.4.2|9=62|35=0|34=48|49=NESTITEST|52=20100420-20:57:20.424|56=QUANTTEST|10=140|
8=FIX.4.2|9=62|35=0|34=46|49=QUANTTEST|52=20100420-20:57:34.628|56=NESTITEST|10=149|
8=FIX.4.2|9=74|35=A|34=47|49=QUANTTEST|52=20100420-20:59:26.191|56=NESTITEST|98=0|108=60|10=196|
8=FIX.4.2|9=74|35=A|34=49|49=NESTITEST|52=20100420-20:59:26.269|56=QUANTTEST|98=0|108=60|10=204|
8=FIX.4.2|9=62|35=5|34=48|49=QUANTTEST|52=20100420-21:00:20.191|56=NESTITEST|10=135|
8=FIX.4.2|9=62|35=5|34=50|49=NESTITEST|52=20100420-21:00:20.191|56=QUANTTEST|10=128|
8=FIX.4.2|9=74|35=A|34=49|49=QUANTTEST|52=20100420-21:03:22.333|56=NESTITEST|98=0|108=60|10=182|
8=FIX.4.2|9=74|35=A|34=51|49=NESTITEST|52=20100420-21:03:22.427|56=QUANTTEST|98=0|108=60|10=179|
8=FIX.4.2|9=62|35=0|34=52|49=NESTITEST|52=20100420-21:04:22.505|56=QUANTTEST|10=130|
8=FIX.4.2|9=62|35=0|34=50|49=QUANTTEST|52=20100420-21:04:25.552|56=NESTITEST|10=133|
8=FIX.4.2|9=62|35=0|34=53|49=NESTITEST|52=20100420-21:05:22.506|56=QUANTTEST|10=133|
8=FIX.4.2|9=62|35=0|34=51|49=QUANTTEST|52=20100420-21:05:25.287|56=NESTITEST|10=140|
8=FIX.4.2|9=62|35=0|34=54|49=NESTITEST|52=20100420-21:06:22.522|56=QUANTTEST|10=133|
8=FIX.4.2|9=62|35=0|34=52|49=QUANTTEST|52=20100420-21:06:27.209|56=NESTITEST|10=138|
8=FIX.4.2|9=62|35=0|34=55|49=NESTITEST|52=20100420-21:07:22.538|56=QUANTTEST|10=142|
8=FIX.4.2|9=62|35=0|34=53|49=QUANTTEST|52=20100420-21:07:27.194|56=NESTITEST|10=143|
8=FIX.4.2|9=62|35=0|34=56|49=NESTITEST|52=20100420-21:08:22.554|56=QUANTTEST|10=142|
8=FIX.4.2|9=62|35=0|34=54|49=QUANTTEST|52=20100420-21:08:28.694|56=NESTITEST|10=151|
8=FIX.4.2|9=62|35=0|34=57|49=NESTITEST|52=20100420-21:09:22.643|56=QUANTTEST|10=143|
8=FIX.4.2|9=71|35=1|34=55|49=QUANTTEST|52=20100420-21:09:40.018|56=NESTITEST|112=TEST|10=156|
8=FIX.4.2|9=71|35=0|34=58|49=NESTITEST|52=20100420-21:09:40.467|56=QUANTTEST|112=TEST|10=166|
8=FIX.4.2|9=62|35=0|34=59|49=NESTITEST|52=20100420-21:10:40.218|56=QUANTTEST|10=135|
8=FIX.4.2|9=62|35=0|34=56|49=QUANTTEST|52=20100420-21:10:40.218|56=NESTITEST|10=132|
8=FIX.4.2|9=62|35=0|34=60|49=NESTITEST|52=20100420-21:11:40.667|56=QUANTTEST|10=136|
8=FIX.4.2|9=62|35=0|34=57|49=QUANTTEST|52=20100420-21:11:40.667|56=NESTITEST|10=142|
8=FIX.4.2|9=62|35=0|34=61|49=NESTITEST|52=20100420-21:12:40.108|56=QUANTTEST|10=128|
8=FIX.4.2|9=62|35=0|34=58|49=QUANTTEST|52=20100420-21:12:40.108|56=NESTITEST|10=134|
8=FIX.4.2|9=62|35=0|34=62|49=NESTITEST|52=20100420-21:13:40.556|56=QUANTTEST|10=137|
8=FIX.4.2|9=62|35=0|34=59|49=QUANTTEST|52=20100420-21:13:40.556|56=NESTITEST|10=143|
8=FIX.4.2|9=62|35=0|34=63|49=NESTITEST|52=20100420-21:14:40.162|56=QUANTTEST|10=132|
8=FIX.4.2|9=62|35=0|34=60|49=QUANTTEST|52=20100420-21:14:40.162|56=NESTITEST|10=129|
8=FIX.4.2|9=62|35=0|34=61|49=QUANTTEST|52=20100420-21:15:40.159|56=NESTITEST|10=137|
8=FIX.4.2|9=62|35=0|34=64|49=NESTITEST|52=20100420-21:15:40.159|56=QUANTTEST|10=140|
8=FIX.4.2|9=62|35=0|34=65|49=NESTITEST|52=20100420-21:16:40.670|56=QUANTTEST|10=140|
8=FIX.4.2|9=62|35=0|34=62|49=QUANTTEST|52=20100420-21:16:40.670|56=NESTITEST|10=137|
8=FIX.4.2|9=62|35=0|34=66|49=NESTITEST|52=20100420-21:17:40.418|56=QUANTTEST|10=142|
8=FIX.4.2|9=62|35=0|34=63|49=QUANTTEST|52=20100420-21:17:40.418|56=NESTITEST|10=139|
8=FIX.4.2|9=62|35=0|34=67|49=NESTITEST|52=20100420-21:18:40.166|56=QUANTTEST|10=144|
8=FIX.4.2|9=62|35=0|34=64|49=QUANTTEST|52=20100420-21:18:40.166|56=NESTITEST|10=141|
8=FIX.4.2|9=62|35=0|34=65|49=QUANTTEST|52=20100420-21:19:40.224|56=NESTITEST|10=138|
8=FIX.4.2|9=62|35=0|34=68|49=NESTITEST|52=20100420-21:19:40.224|56=QUANTTEST|10=141|
8=FIX.4.2|9=62|35=0|34=66|49=QUANTTEST|52=20100420-21:20:40.083|56=NESTITEST|10=134|
8=FIX.4.2|9=62|35=0|34=69|49=NESTITEST|52=20100420-21:20:40.083|56=QUANTTEST|10=137|
8=FIX.4.2|9=62|35=0|34=70|49=NESTITEST|52=20100420-21:21:40.706|56=QUANTTEST|10=132|
8=FIX.4.2|9=62|35=0|34=67|49=QUANTTEST|52=20100420-21:21:40.706|56=NESTITEST|10=138|
8=FIX.4.2|9=62|35=0|34=71|49=NESTITEST|52=20100420-21:22:40.565|56=QUANTTEST|10=137|
8=FIX.4.2|9=62|35=0|34=68|49=QUANTTEST|52=20100420-21:22:40.565|56=NESTITEST|10=143|
8=FIX.4.2|9=62|35=0|34=72|49=NESTITEST|52=20100420-21:23:40.423|56=QUANTTEST|10=132|
8=FIX.4.2|9=62|35=0|34=69|49=QUANTTEST|52=20100420-21:23:40.423|56=NESTITEST|10=138|
8=FIX.4.2|9=62|35=0|34=73|49=NESTITEST|52=20100420-21:24:40.101|56=QUANTTEST|10=127|
8=FIX.4.2|9=62|35=0|34=70|49=QUANTTEST|52=20100420-21:24:40.101|56=NESTITEST|10=124|
8=FIX.4.2|9=62|35=0|34=74|49=NESTITEST|52=20100420-21:25:40.671|56=QUANTTEST|10=141|
8=FIX.4.2|9=62|35=0|34=71|49=QUANTTEST|52=20100420-21:25:40.671|56=NESTITEST|10=138|
8=FIX.4.2|9=62|35=0|34=75|49=NESTITEST|52=20100420-21:26:40.226|56=QUANTTEST|10=139|
8=FIX.4.2|9=62|35=0|34=72|49=QUANTTEST|52=20100420-21:26:40.226|56=NESTITEST|10=136|
8=FIX.4.2|9=62|35=0|34=73|49=QUANTTEST|52=20100420-21:27:40.062|56=NESTITEST|10=136|
8=FIX.4.2|9=62|35=0|34=76|49=NESTITEST|52=20100420-21:27:40.062|56=QUANTTEST|10=139|
8=FIX.4.2|9=62|35=0|34=77|49=NESTITEST|52=20100420-21:28:40.351|56=QUANTTEST|10=142|
8=FIX.4.2|9=62|35=0|34=74|49=QUANTTEST|52=20100420-21:28:40.351|56=NESTITEST|10=139|
8=FIX.4.2|9=62|35=0|34=75|49=QUANTTEST|52=20100420-21:29:40.007|56=NESTITEST|10=139|
8=FIX.4.2|9=62|35=0|34=78|49=NESTITEST|52=20100420-21:29:40.007|56=QUANTTEST|10=142|
8=FIX.4.2|9=62|35=0|34=76|49=QUANTTEST|52=20100420-21:30:40.217|56=NESTITEST|10=135|
8=FIX.4.2|9=62|35=0|34=79|49=NESTITEST|52=20100420-21:30:40.217|56=QUANTTEST|10=138|
8=FIX.4.2|9=62|35=0|34=80|49=NESTITEST|52=20100420-21:31:40.176|56=QUANTTEST|10=135|
8=FIX.4.2|9=62|35=0|34=77|49=QUANTTEST|52=20100420-21:31:40.176|56=NESTITEST|10=141|
8=FIX.4.2|9=62|35=0|34=81|49=NESTITEST|52=20100420-21:32:40.402|56=QUANTTEST|10=129|
8=FIX.4.2|9=62|35=0|34=78|49=QUANTTEST|52=20100420-21:32:40.402|56=NESTITEST|10=135|
8=FIX.4.2|9=62|35=0|34=82|49=NESTITEST|52=20100420-21:33:40.627|56=QUANTTEST|10=140|
8=FIX.4.2|9=62|35=0|34=79|49=QUANTTEST|52=20100420-21:33:40.627|56=NESTITEST|10=146|
8=FIX.4.2|9=62|35=0|34=80|49=QUANTTEST|52=20100420-21:34:40.042|56=NESTITEST|10=130|
8=FIX.4.2|9=62|35=0|34=83|49=NESTITEST|52=20100420-21:34:40.042|56=QUANTTEST|10=133|
8=FIX.4.2|9=62|35=0|34=81|49=QUANTTEST|52=20100420-21:35:40.132|56=NESTITEST|10=132|
8=FIX.4.2|9=62|35=0|34=84|49=NESTITEST|52=20100420-21:35:40.132|56=QUANTTEST|10=135|
8=FIX.4.2|9=62|35=0|34=82|49=QUANTTEST|52=20100420-21:36:40.237|56=NESTITEST|10=140|
8=FIX.4.2|9=62|35=0|34=85|49=NESTITEST|52=20100420-21:36:40.237|56=QUANTTEST|10=143|
8=FIX.4.2|9=62|35=0|34=86|49=NESTITEST|52=20100420-21:37:40.076|56=QUANTTEST|10=146|
8=FIX.4.2|9=62|35=0|34=83|49=QUANTTEST|52=20100420-21:37:40.076|56=NESTITEST|10=143|
8=FIX.4.2|9=62|35=0|34=87|49=NESTITEST|52=20100420-21:38:40.182|56=QUANTTEST|10=146|
8=FIX.4.2|9=62|35=0|34=84|49=QUANTTEST|52=20100420-21:38:40.182|56=NESTITEST|10=143|
8=FIX.4.2|9=62|35=5|34=85|49=QUANTTEST|52=20100420-21:39:39.538|56=NESTITEST|10=163|
8=FIX.4.2|9=62|35=5|34=88|49=NESTITEST|52=20100420-21:39:39.538|56=QUANTTEST|10=166|
8=FIX.4.2|9=74|35=A|34=86|49=QUANTTEST|52=20100420-22:16:47.129|56=NESTITEST|98=0|108=60|10=198|
8=FIX.4.2|9=74|35=A|34=89|49=NESTITEST|52=20100420-22:16:47.222|56=QUANTTEST|98=0|108=60|10=195|
8=FIX.4.2|9=62|35=0|34=90|49=NESTITEST|52=20100420-22:17:47.362|56=QUANTTEST|10=145|
8=FIX.4.2|9=71|35=1|34=91|49=NESTITEST|52=20100420-22:17:59.362|56=QUANTTEST|112=TEST|10=168|
8=FIX.4.2|9=71|35=1|34=87|49=QUANTTEST|52=20100420-22:18:25.064|56=NESTITEST|112=TEST|10=166|
8=FIX.4.2|9=71|35=0|34=92|49=NESTITEST|52=20100420-22:18:25.064|56=QUANTTEST|112=TEST|10=161|
8=FIX.4.2|9=71|35=0|34=88|49=QUANTTEST|52=20100420-22:18:30.767|56=NESTITEST|112=TEST|10=172|
8=FIX.4.2|9=62|35=0|34=93|49=NESTITEST|52=20100420-22:19:25.454|56=QUANTTEST|10=148|
8=FIX.4.2|9=62|35=0|34=89|49=QUANTTEST|52=20100420-22:19:30.407|56=NESTITEST|10=147|
8=FIX.4.2|9=62|35=0|34=94|49=NESTITEST|52=20100420-22:20:25.484|56=QUANTTEST|10=144|
8=FIX.4.2|9=62|35=0|34=90|49=QUANTTEST|52=20100420-22:20:30.765|56=NESTITEST|10=138|
8=FIX.4.2|9=62|35=0|34=95|49=NESTITEST|52=20100420-22:21:25.514|56=QUANTTEST|10=140|
8=FIX.4.2|9=62|35=0|34=91|49=QUANTTEST|52=20100420-22:21:30.701|56=NESTITEST|10=130|
8=FIX.4.2|9=62|35=0|34=96|49=NESTITEST|52=20100420-22:22:25.560|56=QUANTTEST|10=143|
8=FIX.4.2|9=62|35=0|34=92|49=QUANTTEST|52=20100420-22:22:31.153|56=NESTITEST|10=134|
8=FIX.4.2|9=62|35=0|34=97|49=NESTITEST|52=20100420-22:23:25.590|56=QUANTTEST|10=148|
8=FIX.4.2|9=62|35=0|34=93|49=QUANTTEST|52=20100420-22:23:34.090|56=NESTITEST|10=139|
8=FIX.4.2|9=62|35=0|34=98|49=NESTITEST|52=20100420-22:24:25.620|56=QUANTTEST|10=144|
8=FIX.4.2|9=62|35=0|34=94|49=QUANTTEST|52=20100420-22:24:41.994|56=NESTITEST|10=152|
8=FIX.4.2|9=62|35=0|34=99|49=NESTITEST|52=20100420-22:25:25.650|56=QUANTTEST|10=149|
8=FIX.4.2|9=62|35=0|34=95|49=QUANTTEST|52=20100420-22:25:41.696|56=NESTITEST|10=153|
8=FIX.4.2|9=63|35=0|34=100|49=NESTITEST|52=20100420-22:26:25.664|56=QUANTTEST|10=187|
8=FIX.4.2|9=62|35=0|34=96|49=QUANTTEST|52=20100420-22:26:41.898|56=NESTITEST|10=159|
8=FIX.4.2|9=63|35=0|34=101|49=NESTITEST|52=20100420-22:27:25.694|56=QUANTTEST|10=192|
8=FIX.4.2|9=62|35=0|34=97|49=QUANTTEST|52=20100420-22:27:41.444|56=NESTITEST|10=148|
8=FIX.4.2|9=62|35=5|34=98|49=QUANTTEST|52=20100420-22:28:09.475|56=NESTITEST|10=163|
8=FIX.4.2|9=63|35=5|34=102|49=NESTITEST|52=20100420-22:28:09.475|56=QUANTTEST|10=198|
8=FIX.4.2|9=73|35=A|34=1|49=QUANTTEST|52=20100422-12:51:04.982|56=NESTITEST|98=0|108=60|10=136|
8=FIX.4.2|9=73|35=A|34=1|49=NESTITEST|52=20100422-12:51:05.045|56=QUANTTEST|98=0|108=60|10=127|
8=FIX.4.2|9=61|35=0|34=2|49=QUANTTEST|52=20100422-12:52:04.262|56=NESTITEST|10=081|
8=FIX.4.2|9=61|35=0|34=2|49=NESTITEST|52=20100422-12:52:05.637|56=QUANTTEST|10=088|
8=FIX.4.2|9=61|35=0|34=3|49=QUANTTEST|52=20100422-12:53:04.761|56=NESTITEST|10=087|
8=FIX.4.2|9=61|35=0|34=3|49=NESTITEST|52=20100422-12:53:05.667|56=QUANTTEST|10=093|
8=FIX.4.2|9=61|35=0|34=4|49=QUANTTEST|52=20100422-12:54:04.619|56=NESTITEST|10=091|
8=FIX.4.2|9=61|35=0|34=4|49=NESTITEST|52=20100422-12:54:05.698|56=QUANTTEST|10=099|
8=FIX.4.2|9=61|35=0|34=5|49=QUANTTEST|52=20100422-12:55:04.665|56=NESTITEST|10=094|
8=FIX.4.2|9=61|35=0|34=5|49=NESTITEST|52=20100422-12:55:05.743|56=QUANTTEST|10=092|
8=FIX.4.2|9=61|35=0|34=6|49=QUANTTEST|52=20100422-12:56:04.695|56=NESTITEST|10=099|
8=FIX.4.2|9=61|35=0|34=6|49=NESTITEST|52=20100422-12:56:05.773|56=QUANTTEST|10=097|
8=FIX.4.2|9=73|35=A|34=1|49=QUANTTEST|52=20100423-20:56:15.429|56=NESTITEST|98=0|108=60|10=139|
8=FIX.4.2|9=73|35=A|34=1|49=NESTITEST|52=20100423-20:56:15.460|56=QUANTTEST|98=0|108=60|10=134|
8=FIX.4.2|9=61|35=0|34=2|49=NESTITEST|52=20100423-20:57:15.599|56=QUANTTEST|10=101|
8=FIX.4.2|9=70|35=1|34=3|49=NESTITEST|52=20100423-20:57:27.599|56=QUANTTEST|112=TEST|10=124|
8=FIX.4.2|9=73|35=A|34=2|49=QUANTTEST|52=20100423-21:00:04.471|56=NESTITEST|98=0|108=60|10=125|
8=FIX.4.2|9=73|35=A|34=4|49=NESTITEST|52=20100423-21:00:04.549|56=QUANTTEST|98=0|108=60|10=133|
8=FIX.4.2|9=70|35=2|34=3|49=QUANTTEST|52=20100423-21:00:04.565|56=NESTITEST|7=2|16=0|10=208|
8=FIX.4.2|9=103|35=4|34=2|43=Y|49=NESTITEST|52=20100423-21:00:04.565|56=QUANTTEST|122=20100423-21:00:04.565|36=5|123=Y|10=126|
8=FIX.4.2|9=61|35=0|34=5|49=NESTITEST|52=20100423-21:01:04.048|56=QUANTTEST|10=081|
8=FIX.4.2|9=70|35=1|34=6|49=NESTITEST|52=20100423-21:01:16.048|56=QUANTTEST|112=TEST|10=104|
8=FIX.4.2|9=73|35=A|34=5|49=QUANTTEST|52=20100423-21:07:49.259|56=NESTITEST|98=0|108=60|10=148|
8=FIX.4.2|9=73|35=A|34=7|49=NESTITEST|52=20100423-21:07:50.181|56=QUANTTEST|98=0|108=60|10=136|
8=FIX.4.2|9=70|35=2|34=8|49=NESTITEST|52=20100423-21:07:50.181|56=QUANTTEST|7=4|16=0|10=217|
8=FIX.4.2|9=70|35=2|34=6|49=QUANTTEST|52=20100423-21:07:51.743|56=NESTITEST|7=5|16=0|10=221|
8=FIX.4.2|9=103|35=4|34=5|43=Y|49=NESTITEST|52=20100423-21:07:52.415|56=QUANTTEST|122=20100423-21:07:52.415|36=9|123=Y|10=141|
8=FIX.4.2|9=103|35=4|34=4|43=Y|49=QUANTTEST|52=20100423-21:07:55.931|56=NESTITEST|122=20100423-21:07:55.931|36=7|123=Y|10=150|
8=FIX.4.2|9=61|35=0|34=9|49=NESTITEST|52=20100423-21:08:52.258|56=QUANTTEST|10=098|
8=FIX.4.2|9=61|35=0|34=7|49=QUANTTEST|52=20100423-21:08:55.961|56=NESTITEST|10=100|
8=FIX.4.2|9=62|35=0|34=10|49=NESTITEST|52=20100423-21:09:52.288|56=QUANTTEST|10=143|
8=FIX.4.2|9=61|35=0|34=8|49=QUANTTEST|52=20100423-21:09:55.991|56=NESTITEST|10=105|
8=FIX.4.2|9=62|35=0|34=11|49=NESTITEST|52=20100423-21:10:52.318|56=QUANTTEST|10=130|
8=FIX.4.2|9=61|35=0|34=9|49=QUANTTEST|52=20100423-21:10:55.021|56=NESTITEST|10=082|
8=FIX.4.2|9=62|35=0|34=12|49=NESTITEST|52=20100423-21:11:52.348|56=QUANTTEST|10=135|
8=FIX.4.2|9=62|35=0|34=10|49=QUANTTEST|52=20100423-21:11:55.051|56=NESTITEST|10=127|
8=FIX.4.2|9=62|35=0|34=13|49=NESTITEST|52=20100423-21:12:52.394|56=QUANTTEST|10=138|
8=FIX.4.2|9=62|35=0|34=11|49=QUANTTEST|52=20100423-21:12:56.628|56=NESTITEST|10=140|
8=FIX.4.2|9=62|35=0|34=14|49=NESTITEST|52=20100423-21:13:52.424|56=QUANTTEST|10=134|
8=FIX.4.2|9=62|35=0|34=12|49=QUANTTEST|52=20100423-21:13:56.611|56=NESTITEST|10=134|
8=FIX.4.2|9=62|35=5|34=13|49=QUANTTEST|52=20100423-21:14:05.611|56=NESTITEST|10=135|
8=FIX.4.2|9=62|35=5|34=15|49=NESTITEST|52=20100423-21:14:05.611|56=QUANTTEST|10=137|
8=FIX.4.2|9=73|35=A|34=1|49=QUANTTEST|52=20100427-15:38:01.645|56=NESTITEST|98=0|108=60|10=142|
8=FIX.4.2|9=73|35=A|34=1|49=NESTITEST|52=20100427-15:38:01.692|56=QUANTTEST|98=0|108=60|10=144|
8=FIX.4.2|9=61|35=0|34=2|49=NESTITEST|52=20100427-15:39:01.315|56=QUANTTEST|10=090|
8=FIX.4.2|9=61|35=0|34=2|49=QUANTTEST|52=20100427-15:39:01.331|56=NESTITEST|10=088|
8=FIX.4.2|9=61|35=0|34=3|49=NESTITEST|52=20100427-15:40:01.360|56=QUANTTEST|10=083|
8=FIX.4.2|9=61|35=0|34=3|49=QUANTTEST|52=20100427-15:40:02.251|56=NESTITEST|10=083|
8=FIX.4.2|9=61|35=0|34=4|49=NESTITEST|52=20100427-15:41:01.421|56=QUANTTEST|10=083|
8=FIX.4.2|9=61|35=0|34=4|49=QUANTTEST|52=20100427-15:41:13.530|56=NESTITEST|10=087|
8=FIX.4.2|9=61|35=0|34=5|49=NESTITEST|52=20100427-15:42:01.466|56=QUANTTEST|10=094|
8=FIX.4.2|9=131|35=D|34=5|49=QUANTTEST|52=20100427-15:42:06.403|56=NESTITEST|11=NF000002|21=1|38=10|40=1|54=1|55=PETR4.SA|60=20100427-12:41:28.576|10=041|
8=FIX.4.2|9=134|35=8|34=6|49=NESTITEST|52=20100427-15:42:08.091|56=QUANTTEST|6=0|14=5|17=001|20=0|32=5|37=001|38=10|39=1|54=1|55=PETR4.SA|150=1|151=5|10=210|
8=FIX.4.2|9=61|35=0|34=7|49=NESTITEST|52=20100427-15:43:08.511|56=QUANTTEST|10=095|
8=FIX.4.2|9=61|35=0|34=6|49=QUANTTEST|52=20100427-15:43:08.292|56=NESTITEST|10=100|
8=FIX.4.2|9=61|35=0|34=8|49=NESTITEST|52=20100427-15:44:08.556|56=QUANTTEST|10=106|
8=FIX.4.2|9=70|35=1|34=9|49=NESTITEST|52=20100427-15:44:24.571|56=QUANTTEST|112=TEST|10=121|
8=FIX.4.2|9=73|35=A|34=8|49=QUANTTEST|52=20100427-15:55:47.768|56=NESTITEST|98=0|108=60|10=164|
8=FIX.4.2|9=74|35=A|34=10|49=NESTITEST|52=20100427-15:55:47.768|56=QUANTTEST|98=0|108=60|10=206|
8=FIX.4.2|9=71|35=2|34=11|49=NESTITEST|52=20100427-15:55:47.768|56=QUANTTEST|7=7|16=0|10=034|
8=FIX.4.2|9=70|35=2|34=9|49=QUANTTEST|52=20100427-15:55:47.768|56=NESTITEST|7=8|16=0|10=249|
8=FIX.4.2|9=104|35=4|34=8|43=Y|49=NESTITEST|52=20100427-15:55:47.783|56=QUANTTEST|122=20100427-15:55:47.783|36=12|123=Y|10=231|
8=FIX.4.2|9=104|35=4|34=7|43=Y|49=QUANTTEST|52=20100427-15:55:47.783|56=NESTITEST|122=20100427-15:55:47.783|36=10|123=Y|10=228|
8=FIX.4.2|9=62|35=0|34=12|49=NESTITEST|52=20100427-15:56:47.141|56=QUANTTEST|10=146|
8=FIX.4.2|9=71|35=1|34=13|49=NESTITEST|52=20100427-15:56:59.156|56=QUANTTEST|112=TEST|10=175|
8=FIX.4.2|9=74|35=A|34=10|49=QUANTTEST|52=20100427-16:16:40.399|56=NESTITEST|98=0|108=60|10=197|
8=FIX.4.2|9=74|35=A|34=14|49=NESTITEST|52=20100427-16:16:40.446|56=QUANTTEST|98=0|108=60|10=194|
8=FIX.4.2|9=72|35=2|34=11|49=QUANTTEST|52=20100427-16:16:40.446|56=NESTITEST|7=12|16=0|10=063|
8=FIX.4.2|9=105|35=4|34=12|43=Y|49=NESTITEST|52=20100427-16:16:40.462|56=QUANTTEST|122=20100427-16:16:40.462|36=15|123=Y|10=248|
8=FIX.4.2|9=132|35=D|34=12|49=QUANTTEST|52=20100427-16:17:18.898|56=NESTITEST|11=NF000005|21=1|38=10|40=1|54=1|55=PETR4.SA|60=20100427-13:17:18.898|10=125|
8=FIX.4.2|9=135|35=8|34=15|49=NESTITEST|52=20100427-16:17:18.914|56=QUANTTEST|6=0|14=5|17=001|20=0|32=5|37=001|38=10|39=1|54=1|55=PETR4.SA|150=1|151=5|10=011|
8=FIX.4.2|9=62|35=0|34=16|49=NESTITEST|52=20100427-16:18:18.271|56=QUANTTEST|10=151|
8=FIX.4.2|9=62|35=0|34=13|49=QUANTTEST|52=20100427-16:18:20.021|56=NESTITEST|10=134|
8=FIX.4.2|9=62|35=0|34=17|49=NESTITEST|52=20100427-16:19:18.347|56=QUANTTEST|10=157|
8=FIX.4.2|9=62|35=0|34=14|49=QUANTTEST|52=20100427-16:19:20.488|56=NESTITEST|10=153|
8=FIX.4.2|9=73|35=A|34=1|49=QUANTTEST|52=20100505-18:30:27.383|56=NESTITEST|98=0|108=60|10=141|
8=FIX.4.2|9=73|35=A|34=1|49=NESTITEST|52=20100505-18:30:27.398|56=QUANTTEST|98=0|108=60|10=147|
8=FIX.4.2|9=61|35=0|34=2|49=NESTITEST|52=20100505-18:31:27.597|56=QUANTTEST|10=102|
8=FIX.4.2|9=70|35=1|34=3|49=NESTITEST|52=20100505-18:31:39.612|56=QUANTTEST|112=TEST|10=113|
8=FIX.4.2|9=70|35=1|34=2|49=QUANTTEST|52=20100505-18:31:55.861|56=NESTITEST|112=TEST|10=116|
8=FIX.4.2|9=70|35=0|34=4|49=NESTITEST|52=20100505-18:31:59.142|56=QUANTTEST|112=TEST|10=113|
8=FIX.4.2|9=70|35=0|34=3|49=QUANTTEST|52=20100505-18:32:01.845|56=NESTITEST|112=TEST|10=110|
8=FIX.4.2|9=61|35=0|34=5|49=NESTITEST|52=20100505-18:32:59.747|56=QUANTTEST|10=108|
8=FIX.4.2|9=61|35=0|34=4|49=QUANTTEST|52=20100505-18:33:01.700|56=NESTITEST|10=084|
8=FIX.4.2|9=61|35=0|34=6|49=NESTITEST|52=20100505-18:33:59.837|56=QUANTTEST|10=110|
8=FIX.4.2|9=61|35=0|34=5|49=QUANTTEST|52=20100505-18:34:04.790|56=NESTITEST|10=098|
8=FIX.4.2|9=61|35=0|34=7|49=NESTITEST|52=20100505-18:34:59.912|56=QUANTTEST|10=106|
8=FIX.4.2|9=61|35=0|34=6|49=QUANTTEST|52=20100505-18:35:12.520|56=NESTITEST|10=090|
8=FIX.4.2|9=61|35=0|34=8|49=NESTITEST|52=20100505-18:35:59.002|56=QUANTTEST|10=098|
8=FIX.4.2|9=70|35=1|34=7|49=QUANTTEST|52=20100505-18:36:20.048|56=NESTITEST|112=TEST|10=115|
8=FIX.4.2|9=70|35=0|34=9|49=NESTITEST|52=20100505-18:36:20.063|56=QUANTTEST|112=TEST|10=113|
8=FIX.4.2|9=62|35=0|34=10|49=NESTITEST|52=20100505-18:37:20.107|56=QUANTTEST|10=136|
8=FIX.4.2|9=61|35=0|34=8|49=QUANTTEST|52=20100505-18:37:20.763|56=NESTITEST|10=102|
8=FIX.4.2|9=145|35=D|34=9|49=QUANTTEST|52=20100505-18:37:20.763|56=NESTITEST|11=NF000002|21=1|38=100|40=2|44=25|54=1|55=PETR4.SA|60=20100505-15:34:06.431|9304=N|10=201|
8=FIX.4.2|9=139|35=8|34=11|49=NESTITEST|52=20100505-18:37:20.779|56=QUANTTEST|6=0|14=50|17=001|20=0|32=50|37=001|38=100|39=1|54=1|55=PETR4.SA|150=1|151=50|10=206|
8=FIX.4.2|9=62|35=0|34=12|49=NESTITEST|52=20100505-18:38:20.197|56=QUANTTEST|10=148|
8=FIX.4.2|9=71|35=1|34=13|49=NESTITEST|52=20100505-18:38:32.212|56=QUANTTEST|112=TEST|10=159|
8=FIX.4.2|9=71|35=1|34=10|49=QUANTTEST|52=20100505-18:38:55.508|56=NESTITEST|112=TEST|10=169|
8=FIX.4.2|9=71|35=0|34=14|49=NESTITEST|52=20100505-18:38:55.508|56=QUANTTEST|112=TEST|10=172|
8=FIX.4.2|9=71|35=0|34=11|49=QUANTTEST|52=20100505-18:38:55.539|56=NESTITEST|112=TEST|10=173|
8=FIX.4.2|9=62|35=0|34=15|49=NESTITEST|52=20100505-18:39:55.332|56=QUANTTEST|10=151|
8=FIX.4.2|9=71|35=1|34=16|49=NESTITEST|52=20100505-18:40:08.347|56=QUANTTEST|112=TEST|10=167|
8=FIX.4.2|9=74|35=A|34=11|49=QUANTTEST|52=20100505-18:49:59.532|56=NESTITEST|98=0|108=60|10=202|
8=FIX.4.2|9=113|35=5|34=17|49=NESTITEST|52=20100505-18:49:59.594|56=QUANTTEST|58=MsgSeqNum too low, expecting 12 but received 11|10=211|
8=FIX.4.2|9=74|35=A|34=13|49=QUANTTEST|52=20100505-18:50:00.532|56=NESTITEST|98=0|108=60|10=182|
8=FIX.4.2|9=74|35=A|34=18|49=NESTITEST|52=20100505-18:50:00.547|56=QUANTTEST|98=0|108=60|10=193|
8=FIX.4.2|9=72|35=2|34=19|49=NESTITEST|52=20100505-18:50:00.563|56=QUANTTEST|7=12|16=0|10=064|
8=FIX.4.2|9=72|35=2|34=14|49=QUANTTEST|52=20100505-18:50:00.563|56=NESTITEST|7=14|16=0|10=061|
8=FIX.4.2|9=105|35=4|34=14|43=Y|49=NESTITEST|52=20100505-18:50:00.563|56=QUANTTEST|122=20100505-18:50:00.563|36=20|123=Y|10=236|
8=FIX.4.2|9=105|35=4|34=12|43=Y|49=QUANTTEST|52=20100505-18:50:00.579|56=NESTITEST|122=20100505-18:50:00.579|36=15|123=Y|10=252|
8=FIX.4.2|9=146|35=D|34=15|49=QUANTTEST|52=20100505-18:50:44.076|56=NESTITEST|11=NF000004|21=1|38=200|40=2|44=25|54=1|55=PETR4.SA|60=20100505-15:50:44.061|9304=N|10=247|
8=FIX.4.2|9=154|35=8|34=20|49=NESTITEST|52=20100505-18:50:44.092|56=QUANTTEST|6=0|11=NF000004|14=100|17=001|20=0|32=100|37=001|38=200|39=1|54=1|55=PETR4.SA|150=1|151=100|10=157|
8=FIX.4.2|9=62|35=0|34=21|49=NESTITEST|52=20100505-18:51:44.682|56=QUANTTEST|10=148|
8=FIX.4.2|9=71|35=1|34=22|49=NESTITEST|52=20100505-18:51:56.697|56=QUANTTEST|112=TEST|10=177|
8=FIX.4.2|9=62|35=0|34=16|49=QUANTTEST|52=20100505-18:52:19.758|56=NESTITEST|10=159|
8=FIX.4.2|9=74|35=A|34=17|49=QUANTTEST|52=20100505-21:35:32.783|56=NESTITEST|98=0|108=60|10=196|
8=FIX.4.2|9=74|35=A|34=23|49=NESTITEST|52=20100505-21:35:32.892|56=QUANTTEST|98=0|108=60|10=194|
8=FIX.4.2|9=72|35=2|34=18|49=QUANTTEST|52=20100505-21:35:32.908|56=NESTITEST|7=22|16=0|10=069|
8=FIX.4.2|9=105|35=4|34=22|43=Y|49=NESTITEST|52=20100505-21:35:32.923|56=QUANTTEST|122=20100505-21:35:32.923|36=24|123=Y|10=243|
8=FIX.4.2|9=146|35=D|34=19|49=QUANTTEST|52=20100505-21:36:16.845|56=NESTITEST|11=NF000006|21=1|38=200|40=2|44=25|54=1|55=PETR4.SA|60=20100505-18:36:16.829|9304=N|10=016|
8=FIX.4.2|9=160|35=8|34=24|49=NESTITEST|52=20100505-21:36:16.861|56=QUANTTEST|6=0|11=NF000006|14=100|17=001|20=0|31=25|32=100|37=001|38=200|39=1|54=1|55=PETR4.SA|150=1|151=100|10=170|
8=FIX.4.2|9=74|35=A|34=20|49=QUANTTEST|52=20100505-21:37:41.313|56=NESTITEST|98=0|108=60|10=181|
8=FIX.4.2|9=74|35=A|34=25|49=NESTITEST|52=20100505-21:37:41.422|56=QUANTTEST|98=0|108=60|10=187|
8=FIX.4.2|9=146|35=D|34=21|49=QUANTTEST|52=20100505-21:38:32.015|56=NESTITEST|11=NF000008|21=1|38=200|40=2|44=25|54=1|55=PETR4.SA|60=20100505-18:38:32.000|9304=N|10=237|
8=FIX.4.2|9=160|35=8|34=26|49=NESTITEST|52=20100505-21:38:32.031|56=QUANTTEST|6=0|11=NF000008|14=100|17=001|20=0|31=25|32=100|37=001|38=200|39=1|54=1|55=PETR4.SA|150=1|151=100|10=163|
8=FIX.4.2|9=62|35=0|34=27|49=NESTITEST|52=20100505-21:39:32.218|56=QUANTTEST|10=146|
8=FIX.4.2|9=71|35=1|34=28|49=NESTITEST|52=20100505-21:39:44.233|56=QUANTTEST|112=TEST|10=166|
8=FIX.4.2|9=71|35=1|34=22|49=QUANTTEST|52=20100505-21:39:51.452|56=NESTITEST|112=TEST|10=161|
8=FIX.4.2|9=71|35=0|34=29|49=NESTITEST|52=20100505-21:39:52.686|56=QUANTTEST|112=TEST|10=177|
8=FIX.4.2|9=71|35=0|34=23|49=QUANTTEST|52=20100505-21:40:05.483|56=NESTITEST|112=TEST|10=156|
8=FIX.4.2|9=62|35=0|34=30|49=NESTITEST|52=20100505-21:40:52.295|56=QUANTTEST|10=139|
8=FIX.4.2|9=71|35=1|34=31|49=NESTITEST|52=20100505-21:41:18.325|56=QUANTTEST|112=TEST|10=156|
8=FIX.4.2|9=62|35=0|34=24|49=QUANTTEST|52=20100505-21:41:20.997|56=NESTITEST|10=147|
8=FIX.4.2|9=71|35=0|34=25|49=QUANTTEST|52=20100505-21:41:22.794|56=NESTITEST|112=TEST|10=163|
8=FIX.4.2|9=62|35=0|34=32|49=NESTITEST|52=20100505-21:42:18.370|56=QUANTTEST|10=139|
8=FIX.4.2|9=62|35=0|34=26|49=QUANTTEST|52=20100505-21:42:22.042|56=NESTITEST|10=133|
8=FIX.4.2|9=62|35=0|34=33|49=NESTITEST|52=20100505-21:43:18.415|56=QUANTTEST|10=141|
8=FIX.4.2|9=62|35=0|34=27|49=QUANTTEST|52=20100505-21:43:23.977|56=NESTITEST|10=153|
8=FIX.4.2|9=62|35=0|34=34|49=NESTITEST|52=20100505-21:44:18.460|56=QUANTTEST|10=143|
8=FIX.4.2|9=62|35=0|34=28|49=QUANTTEST|52=20100505-21:44:23.616|56=NESTITEST|10=145|
8=FIX.4.2|9=146|35=D|34=29|49=QUANTTEST|52=20100505-21:44:38.709|56=NESTITEST|11=NF000010|21=1|38=200|40=2|44=25|54=1|55=VALE5.SA|60=20100505-18:44:38.709|9304=N|10=252|
8=FIX.4.2|9=160|35=8|34=35|49=NESTITEST|52=20100505-21:44:38.709|56=QUANTTEST|6=0|11=NF000010|14=100|17=001|20=0|31=25|32=100|37=001|38=200|39=1|54=1|55=VALE5.SA|150=1|151=100|10=153|
8=FIX.4.2|9=62|35=0|34=36|49=NESTITEST|52=20100505-21:45:38.520|56=QUANTTEST|10=145|
8=FIX.4.2|9=62|35=0|34=30|49=QUANTTEST|52=20100505-21:45:39.754|56=NESTITEST|10=149|
8=FIX.4.2|9=62|35=0|34=37|49=NESTITEST|52=20100505-21:46:38.596|56=QUANTTEST|10=160|
8=FIX.4.2|9=62|35=0|34=31|49=QUANTTEST|52=20100505-21:46:39.408|56=NESTITEST|10=147|
8=FIX.4.2|9=62|35=5|34=32|49=QUANTTEST|52=20100505-21:47:18.438|56=NESTITEST|10=154|
8=FIX.4.2|9=62|35=5|34=38|49=NESTITEST|52=20100505-21:47:18.438|56=QUANTTEST|10=160|
8=FIX.4.2|9=73|35=A|34=1|49=QUANTTEST|52=20100506-13:53:01.457|56=NESTITEST|98=0|108=60|10=136|
8=FIX.4.2|9=73|35=A|34=1|49=NESTITEST|52=20100506-13:53:01.472|56=QUANTTEST|98=0|108=60|10=133|
8=FIX.4.2|9=61|35=0|34=2|49=NESTITEST|52=20100506-13:54:01.065|56=QUANTTEST|10=085|
8=FIX.4.2|9=61|35=0|34=2|49=QUANTTEST|52=20100506-13:54:01.065|56=NESTITEST|10=085|
8=FIX.4.2|9=61|35=0|34=3|49=QUANTTEST|52=20100506-13:55:01.016|56=NESTITEST|10=083|
8=FIX.4.2|9=61|35=0|34=3|49=NESTITEST|52=20100506-13:55:01.016|56=QUANTTEST|10=083|
8=FIX.4.2|9=61|35=0|34=4|49=QUANTTEST|52=20100506-13:56:01.061|56=NESTITEST|10=085|
8=FIX.4.2|9=61|35=0|34=4|49=NESTITEST|52=20100506-13:56:01.061|56=QUANTTEST|10=085|
8=FIX.4.2|9=61|35=5|34=5|49=QUANTTEST|52=20100506-13:57:01.091|56=NESTITEST|10=095|
8=FIX.4.2|9=61|35=5|34=5|49=NESTITEST|52=20100506-13:57:01.091|56=QUANTTEST|10=095|
8=FIX.4.2|9=73|35=A|34=6|49=QUANTTEST|52=20100506-14:00:55.382|56=NESTITEST|98=0|108=60|10=140|
8=FIX.4.2|9=73|35=A|34=6|49=NESTITEST|52=20100506-14:00:55.491|56=QUANTTEST|98=0|108=60|10=141|
8=FIX.4.2|9=61|35=0|34=7|49=NESTITEST|52=20100506-14:01:55.271|56=QUANTTEST|10=091|
8=FIX.4.2|9=61|35=0|34=7|49=QUANTTEST|52=20100506-14:01:55.271|56=NESTITEST|10=091|
8=FIX.4.2|9=145|35=D|34=8|49=QUANTTEST|52=20100506-14:02:18.927|56=NESTITEST|11=NF000002|21=1|38=200|40=2|44=25|54=1|55=PETR4.SA|60=20100506-11:02:18.911|9304=N|10=197|
8=FIX.4.2|9=159|35=8|34=8|49=NESTITEST|52=20100506-14:02:18.958|56=QUANTTEST|6=0|11=NF000002|14=100|17=001|20=0|31=25|32=100|37=001|38=200|39=1|54=1|55=PETR4.SA|150=1|151=100|10=133|
8=FIX.4.2|9=61|35=0|34=9|49=QUANTTEST|52=20100506-14:03:18.144|56=NESTITEST|10=093|
8=FIX.4.2|9=61|35=0|34=9|49=NESTITEST|52=20100506-14:03:18.144|56=QUANTTEST|10=093|
8=FIX.4.2|9=146|35=D|34=10|49=QUANTTEST|52=20100506-14:03:38.769|56=NESTITEST|11=NF000004|21=1|38=200|40=2|44=25|54=1|55=VALE5.SA|60=20100506-11:03:38.769|9304=N|10=244|
8=FIX.4.2|9=160|35=8|34=10|49=NESTITEST|52=20100506-14:03:38.784|56=QUANTTEST|6=0|11=NF000004|14=100|17=001|20=0|31=25|32=100|37=001|38=200|39=1|54=1|55=VALE5.SA|150=1|151=100|10=150|
8=FIX.4.2|9=62|35=0|34=11|49=NESTITEST|52=20100506-14:04:38.361|56=QUANTTEST|10=139|
8=FIX.4.2|9=62|35=0|34=11|49=QUANTTEST|52=20100506-14:04:38.361|56=NESTITEST|10=139|
8=FIX.4.2|9=62|35=0|34=12|49=NESTITEST|52=20100506-14:05:38.406|56=QUANTTEST|10=141|
8=FIX.4.2|9=62|35=0|34=12|49=QUANTTEST|52=20100506-14:05:38.406|56=NESTITEST|10=141|
8=FIX.4.2|9=62|35=0|34=13|49=NESTITEST|52=20100506-14:06:38.436|56=QUANTTEST|10=146|
8=FIX.4.2|9=62|35=0|34=13|49=QUANTTEST|52=20100506-14:06:38.436|56=NESTITEST|10=146|
8=FIX.4.2|9=62|35=0|34=14|49=NESTITEST|52=20100506-14:07:38.481|56=QUANTTEST|10=148|
8=FIX.4.2|9=62|35=0|34=14|49=QUANTTEST|52=20100506-14:07:38.481|56=NESTITEST|10=148|
8=FIX.4.2|9=62|35=0|34=15|49=NESTITEST|52=20100506-14:08:38.511|56=QUANTTEST|10=144|
8=FIX.4.2|9=62|35=0|34=15|49=QUANTTEST|52=20100506-14:08:38.511|56=NESTITEST|10=144|
8=FIX.4.2|9=62|35=0|34=16|49=NESTITEST|52=20100506-14:09:38.541|56=QUANTTEST|10=149|
8=FIX.4.2|9=62|35=0|34=16|49=QUANTTEST|52=20100506-14:09:38.541|56=NESTITEST|10=149|
8=FIX.4.2|9=62|35=5|34=17|49=QUANTTEST|52=20100506-14:10:25.930|56=NESTITEST|10=145|
8=FIX.4.2|9=62|35=5|34=17|49=NESTITEST|52=20100506-14:10:25.930|56=QUANTTEST|10=145|
8=FIX.4.2|9=74|35=A|34=18|49=QUANTTEST|52=20100506-14:13:46.815|56=NESTITEST|98=0|108=60|10=197|
8=FIX.4.2|9=74|35=A|34=18|49=NESTITEST|52=20100506-14:13:46.878|56=QUANTTEST|98=0|108=60|10=206|
8=FIX.4.2|9=146|35=D|34=19|49=QUANTTEST|52=20100506-14:14:25.424|56=NESTITEST|11=NF000006|21=1|38=200|40=2|44=25|54=1|55=VALE5.SA|60=20100506-11:14:25.408|9304=N|10=229|
8=FIX.4.2|9=160|35=8|34=19|49=NESTITEST|52=20100506-14:14:25.424|56=QUANTTEST|6=0|11=NF000006|14=100|17=001|20=0|31=25|32=100|37=001|38=200|39=1|54=1|55=VALE5.SA|150=1|151=100|10=150|
8=FIX.4.2|9=62|35=0|34=20|49=QUANTTEST|52=20100506-14:15:25.657|56=NESTITEST|10=145|
8=FIX.4.2|9=62|35=0|34=20|49=NESTITEST|52=20100506-14:15:25.657|56=QUANTTEST|10=145|
8=FIX.4.2|9=62|35=0|34=21|49=QUANTTEST|52=20100506-14:16:25.686|56=NESTITEST|10=149|
8=FIX.4.2|9=62|35=0|34=21|49=NESTITEST|52=20100506-14:16:25.686|56=QUANTTEST|10=149|
8=FIX.4.2|9=62|35=0|34=22|49=QUANTTEST|52=20100506-14:17:25.732|56=NESTITEST|10=143|
8=FIX.4.2|9=62|35=0|34=22|49=NESTITEST|52=20100506-14:17:25.732|56=QUANTTEST|10=143|
8=FIX.4.2|9=146|35=D|34=23|49=QUANTTEST|52=20100506-14:17:50.215|56=NESTITEST|11=NF000008|21=1|38=200|40=2|44=25|54=1|55=PETR4.SA|60=20100506-11:17:50.215|9304=N|10=240|
8=FIX.4.2|9=160|35=8|34=23|49=NESTITEST|52=20100506-14:17:50.215|56=QUANTTEST|6=0|11=NF000008|14=100|17=001|20=0|31=25|32=100|37=001|38=200|39=1|54=1|55=PETR4.SA|150=1|151=100|10=164|
8=FIX.4.2|9=62|35=0|34=24|49=QUANTTEST|52=20100506-14:18:50.698|56=NESTITEST|10=155|
8=FIX.4.2|9=62|35=0|34=24|49=NESTITEST|52=20100506-14:18:50.698|56=QUANTTEST|10=155|
8=FIX.4.2|9=62|35=0|34=25|49=QUANTTEST|52=20100506-14:19:50.744|56=NESTITEST|10=149|
8=FIX.4.2|9=62|35=0|34=25|49=NESTITEST|52=20100506-14:19:50.744|56=QUANTTEST|10=149|
8=FIX.4.2|9=62|35=5|34=26|49=QUANTTEST|52=20100506-14:20:23.758|56=NESTITEST|10=152|
8=FIX.4.2|9=62|35=5|34=26|49=NESTITEST|52=20100506-14:20:23.758|56=QUANTTEST|10=152|
8=FIX.4.2|9=74|35=A|34=27|49=QUANTTEST|52=20100506-14:23:36.613|56=NESTITEST|98=0|108=60|10=193|
8=FIX.4.2|9=74|35=A|34=27|49=NESTITEST|52=20100506-14:23:36.722|56=QUANTTEST|98=0|108=60|10=194|
8=FIX.4.2|9=146|35=D|34=28|49=QUANTTEST|52=20100506-14:24:27.424|56=NESTITEST|11=NF000010|21=1|38=200|40=2|44=25|54=1|55=PETR4.SA|60=20100506-11:24:27.408|9304=N|10=248|
8=FIX.4.2|9=160|35=8|34=28|49=NESTITEST|52=20100506-14:24:27.440|56=QUANTTEST|6=0|11=NF000010|14=100|17=001|20=0|31=25|32=100|37=001|38=200|39=1|54=1|55=PETR4.SA|150=1|151=100|10=164|
8=FIX.4.2|9=62|35=0|34=29|49=QUANTTEST|52=20100506-14:25:27.563|56=NESTITEST|10=153|
8=FIX.4.2|9=62|35=0|34=29|49=NESTITEST|52=20100506-14:25:27.563|56=QUANTTEST|10=153|
8=FIX.4.2|9=62|35=5|34=30|49=NESTITEST|52=20100506-14:26:15.781|56=QUANTTEST|10=150|
8=FIX.4.2|9=62|35=5|34=30|49=QUANTTEST|52=20100506-14:26:15.781|56=NESTITEST|10=150|
8=FIX.4.2|9=74|35=A|34=31|49=QUANTTEST|52=20100506-14:36:48.639|56=NESTITEST|98=0|108=60|10=203|
8=FIX.4.2|9=74|35=A|34=31|49=NESTITEST|52=20100506-14:36:48.686|56=QUANTTEST|98=0|108=60|10=205|
8=FIX.4.2|9=74|35=A|34=32|49=QUANTTEST|52=20100506-14:38:22.559|56=NESTITEST|98=0|108=60|10=199|
8=FIX.4.2|9=74|35=A|34=32|49=NESTITEST|52=20100506-14:38:22.637|56=QUANTTEST|98=0|108=60|10=196|
8=FIX.4.2|9=62|35=0|34=33|49=NESTITEST|52=20100506-14:39:22.136|56=QUANTTEST|10=144|
8=FIX.4.2|9=62|35=0|34=33|49=QUANTTEST|52=20100506-14:39:24.917|56=NESTITEST|10=153|
8=FIX.4.2|9=62|35=0|34=34|49=NESTITEST|52=20100506-14:40:22.196|56=QUANTTEST|10=143|
8=FIX.4.2|9=62|35=0|34=34|49=QUANTTEST|52=20100506-14:40:26.618|56=NESTITEST|10=146|
8=FIX.4.2|9=62|35=0|34=35|49=NESTITEST|52=20100506-14:41:22.273|56=QUANTTEST|10=141|
8=FIX.4.2|9=62|35=0|34=35|49=QUANTTEST|52=20100506-14:41:29.726|56=NESTITEST|10=151|
8=FIX.4.2|9=62|35=0|34=36|49=NESTITEST|52=20100506-14:42:22.303|56=QUANTTEST|10=137|
8=FIX.4.2|9=71|35=1|34=37|49=NESTITEST|52=20100506-14:42:41.318|56=QUANTTEST|112=TEST|10=164|
8=FIX.4.2|9=71|35=1|34=36|49=QUANTTEST|52=20100506-14:42:49.036|56=NESTITEST|112=TEST|10=168|
8=FIX.4.2|9=71|35=0|34=38|49=NESTITEST|52=20100506-14:42:49.036|56=QUANTTEST|112=TEST|10=169|
8=FIX.4.2|9=71|35=0|34=37|49=QUANTTEST|52=20100506-14:43:16.442|56=NESTITEST|112=TEST|10=164|
8=FIX.4.2|9=62|35=0|34=39|49=NESTITEST|52=20100506-14:43:49.363|56=QUANTTEST|10=156|
8=FIX.4.2|9=62|35=0|34=38|49=QUANTTEST|52=20100506-14:44:17.222|56=NESTITEST|10=145|
8=FIX.4.2|9=140|35=D|34=39|49=QUANTTEST|52=20100506-14:44:47.737|56=NESTITEST|11=NF000012|21=1|38=500|40=1|54=1|55=PETR4.SA|60=20100506-11:43:27.317|9304=N|10=246|
8=FIX.4.2|9=125|35=j|34=40|49=NESTITEST|52=20100506-14:45:22.486|56=QUANTTEST|45=39|58=Conditionally Required Field Missing (44)|372=D|380=5|10=120|
8=FIX.4.2|9=74|35=A|34=40|49=QUANTTEST|52=20100506-14:49:36.760|56=NESTITEST|98=0|108=60|10=199|
8=FIX.4.2|9=74|35=A|34=41|49=NESTITEST|52=20100506-14:49:36.870|56=QUANTTEST|98=0|108=60|10=202|
8=FIX.4.2|9=72|35=2|34=41|49=QUANTTEST|52=20100506-14:49:36.870|56=NESTITEST|7=40|16=0|10=075|
8=FIX.4.2|9=156|35=j|34=40|43=Y|49=NESTITEST|52=20100506-14:49:36.885|56=QUANTTEST|122=20100506-14:45:22.486|45=39|58=Conditionally Required Field Missing (44)|372=D|380=5|10=138|
8=FIX.4.2|9=105|35=4|34=41|43=Y|49=NESTITEST|52=20100506-14:49:36.885|56=QUANTTEST|122=20100506-14:49:36.885|36=42|123=Y|10=026|
8=FIX.4.2|9=74|35=A|34=42|49=QUANTTEST|52=20100506-17:11:57.305|56=NESTITEST|98=0|108=60|10=191|
8=FIX.4.2|9=74|35=A|34=42|49=NESTITEST|52=20100506-17:11:57.368|56=QUANTTEST|98=0|108=60|10=200|
8=FIX.4.2|9=62|35=5|34=43|49=QUANTTEST|52=20100506-17:12:11.320|56=NESTITEST|10=137|
8=FIX.4.2|9=62|35=5|34=43|49=NESTITEST|52=20100506-17:12:11.320|56=QUANTTEST|10=137|
8=FIX.4.2|9=74|35=A|34=44|49=QUANTTEST|52=20100506-17:13:24.943|56=NESTITEST|98=0|108=60|10=197|
8=FIX.4.2|9=74|35=A|34=44|49=NESTITEST|52=20100506-17:13:25.005|56=QUANTTEST|98=0|108=60|10=187|
8=FIX.4.2|9=140|35=D|34=45|49=QUANTTEST|52=20100506-17:14:18.894|56=NESTITEST|11=NF000016|21=1|38=200|40=1|54=1|55=PETR4.SA|60=20100506-14:14:18.878|9304=N|10=003|
8=FIX.4.2|9=162|35=8|34=45|49=NESTITEST|52=20100506-17:14:18.909|56=QUANTTEST|6=0|11=NF000016|14=100|17=001|20=0|31=66.6|32=100|37=001|38=200|39=1|54=1|55=PETR4.SA|150=1|151=100|10=032|
8=FIX.4.2|9=62|35=0|34=46|49=QUANTTEST|52=20100506-17:15:18.266|56=NESTITEST|10=154|
8=FIX.4.2|9=62|35=0|34=46|49=NESTITEST|52=20100506-17:15:18.266|56=QUANTTEST|10=154|
8=FIX.4.2|9=62|35=0|34=47|49=NESTITEST|52=20100506-17:16:18.405|56=QUANTTEST|10=151|
8=FIX.4.2|9=71|35=1|34=48|49=NESTITEST|52=20100506-17:16:30.420|56=QUANTTEST|112=TEST|10=162|
8=FIX.4.2|9=71|35=1|34=47|49=QUANTTEST|52=20100506-17:17:04.278|56=NESTITEST|112=TEST|10=174|
8=FIX.4.2|9=71|35=0|34=49|49=NESTITEST|52=20100506-17:17:04.294|56=QUANTTEST|112=TEST|10=173|
8=FIX.4.2|9=71|35=0|34=48|49=QUANTTEST|52=20100506-17:17:07.825|56=NESTITEST|112=TEST|10=175|
8=FIX.4.2|9=62|35=0|34=50|49=NESTITEST|52=20100506-17:18:04.510|56=QUANTTEST|10=139|
8=FIX.4.2|9=71|35=1|34=51|49=NESTITEST|52=20100506-17:18:19.525|56=QUANTTEST|112=TEST|10=171|
8=FIX.4.2|9=71|35=1|34=49|49=QUANTTEST|52=20100506-17:19:22.991|56=NESTITEST|112=TEST|10=180|
8=FIX.4.2|9=71|35=0|34=52|49=NESTITEST|52=20100506-17:19:22.991|56=QUANTTEST|112=TEST|10=173|
8=FIX.4.2|9=71|35=0|34=50|49=QUANTTEST|52=20100506-17:19:36.803|56=NESTITEST|112=TEST|10=168|
8=FIX.4.2|9=62|35=0|34=53|49=NESTITEST|52=20100506-17:20:22.630|56=QUANTTEST|10=138|
8=FIX.4.2|9=71|35=1|34=54|49=NESTITEST|52=20100506-17:20:49.660|56=QUANTTEST|112=TEST|10=170|
8=FIX.4.2|9=71|35=1|34=51|49=QUANTTEST|52=20100506-17:21:01.566|56=NESTITEST|112=TEST|10=161|
8=FIX.4.2|9=71|35=0|34=55|49=NESTITEST|52=20100506-17:21:02.300|56=QUANTTEST|112=TEST|10=151|
8=FIX.4.2|9=71|35=0|34=52|49=QUANTTEST|52=20100506-17:21:03.159|56=NESTITEST|112=TEST|10=161|
8=FIX.4.2|9=62|35=0|34=56|49=NESTITEST|52=20100506-17:22:02.751|56=QUANTTEST|10=145|
8=FIX.4.2|9=62|35=0|34=53|49=QUANTTEST|52=20100506-17:22:04.673|56=NESTITEST|10=147|
8=FIX.4.2|9=62|35=0|34=57|49=NESTITEST|52=20100506-17:23:02.811|56=QUANTTEST|10=144|
8=FIX.4.2|9=71|35=1|34=58|49=NESTITEST|52=20100506-17:23:17.826|56=QUANTTEST|112=TEST|10=176|
8=FIX.4.2|9=74|35=A|34=54|49=QUANTTEST|52=20100506-17:24:56.354|56=NESTITEST|98=0|108=60|10=201|
8=FIX.4.2|9=74|35=A|34=59|49=NESTITEST|52=20100506-17:24:56.354|56=QUANTTEST|98=0|108=60|10=206|
8=FIX.4.2|9=72|35=2|34=55|49=QUANTTEST|52=20100506-17:25:33.165|56=NESTITEST|7=57|16=0|10=079|
8=FIX.4.2|9=105|35=4|34=57|43=Y|49=NESTITEST|52=20100506-17:25:33.852|56=QUANTTEST|122=20100506-17:25:33.852|36=60|123=Y|10=009|
8=FIX.4.2|9=62|35=0|34=60|49=NESTITEST|52=20100506-17:26:33.022|56=QUANTTEST|10=139|
8=FIX.4.2|9=71|35=1|34=61|49=NESTITEST|52=20100506-17:26:45.037|56=QUANTTEST|112=TEST|10=168|
8=FIX.4.2|9=74|35=A|34=57|49=QUANTTEST|52=20100506-17:28:05.049|56=NESTITEST|98=0|108=60|10=203|
8=FIX.4.2|9=74|35=A|34=62|49=NESTITEST|52=20100506-17:28:05.065|56=QUANTTEST|98=0|108=60|10=197|
8=FIX.4.2|9=72|35=2|34=63|49=NESTITEST|52=20100506-17:28:05.065|56=QUANTTEST|7=56|16=0|10=078|
8=FIX.4.2|9=72|35=2|34=58|49=QUANTTEST|52=20100506-17:28:05.065|56=NESTITEST|7=60|16=0|10=077|
8=FIX.4.2|9=105|35=4|34=60|43=Y|49=NESTITEST|52=20100506-17:28:10.127|56=QUANTTEST|122=20100506-17:28:10.127|36=64|123=Y|10=249|
8=FIX.4.2|9=105|35=4|34=56|43=Y|49=QUANTTEST|52=20100506-17:28:17.486|56=NESTITEST|122=20100506-17:28:17.486|36=59|123=Y|10=032|
8=FIX.4.2|9=131|35=F|34=59|49=QUANTTEST|52=20100506-17:29:01.313|56=NESTITEST|11=NF000018|38=200|41=NF000016|54=1|55=PETR4.SA|60=20100506-14:28:15|10=134|
8=FIX.4.2|9=74|35=A|34=71|49=QUANTTEST|52=20100506-21:29:53.816|56=NESTITEST|98=0|108=60|10=200|
8=FIX.4.2|9=74|35=A|34=64|49=NESTITEST|52=20100506-21:29:53.926|56=QUANTTEST|98=0|108=60|10=204|
8=FIX.4.2|9=72|35=2|34=65|49=NESTITEST|52=20100506-21:29:53.941|56=QUANTTEST|7=59|16=0|10=085|
8=FIX.4.2|9=162|35=F|34=59|43=Y|49=QUANTTEST|52=20100506-21:29:53.957|56=NESTITEST|122=20100506-17:29:01.313|11=NF000018|38=200|41=NF000016|54=1|55=PETR4.SA|60=20100506-14:28:15|10=147|
8=FIX.4.2|9=105|35=4|34=60|43=Y|49=QUANTTEST|52=20100506-21:29:53.957|56=NESTITEST|122=20100506-21:29:53.957|36=72|123=Y|10=020|
8=FIX.4.2|9=140|35=D|34=72|49=QUANTTEST|52=20100506-21:30:14.096|56=NESTITEST|11=NF000020|21=1|38=500|40=1|54=1|55=PETR4.SA|60=20100506-18:30:14.096|9304=N|10=230|
8=FIX.4.2|9=162|35=8|34=66|49=NESTITEST|52=20100506-21:30:14.111|56=QUANTTEST|6=0|11=NF000020|14=250|17=001|20=0|31=66.6|32=250|37=001|38=500|39=1|54=1|55=PETR4.SA|150=1|151=250|10=025|
8=FIX.4.2|9=62|35=0|34=73|49=QUANTTEST|52=20100506-21:31:14.668|56=NESTITEST|10=149|
8=FIX.4.2|9=62|35=0|34=67|49=NESTITEST|52=20100506-21:31:14.668|56=QUANTTEST|10=152|
8=FIX.4.2|9=131|35=F|34=74|49=QUANTTEST|52=20100506-21:31:56.914|56=NESTITEST|11=NF000022|38=500|41=NF000020|54=1|55=PETR4.SA|60=20100506-18:31:39|10=133|
8=FIX.4.2|9=62|35=0|34=68|49=NESTITEST|52=20100506-21:32:14.897|56=QUANTTEST|10=158|
8=FIX.4.2|9=62|35=5|34=69|49=NESTITEST|52=20100506-21:32:19.896|56=QUANTTEST|10=168|
8=FIX.4.2|9=62|35=5|34=75|49=QUANTTEST|52=20100506-21:32:19.896|56=NESTITEST|10=165|
8=FIX.4.2|9=74|35=A|34=76|49=QUANTTEST|52=20100506-21:33:25.531|56=NESTITEST|98=0|108=60|10=193|
8=FIX.4.2|9=74|35=A|34=70|49=NESTITEST|52=20100506-21:33:25.640|56=QUANTTEST|98=0|108=60|10=188|
8=FIX.4.2|9=140|35=D|34=77|49=QUANTTEST|52=20100506-21:33:51.231|56=NESTITEST|11=NF000024|21=1|38=500|40=1|54=1|55=PETR4.SA|60=20100506-18:33:51.231|9304=N|10=229|
8=FIX.4.2|9=162|35=8|34=71|49=NESTITEST|52=20100506-21:33:56.434|56=QUANTTEST|6=0|11=NF000024|14=250|17=001|20=0|31=66.6|32=250|37=001|38=500|39=1|54=1|55=PETR4.SA|150=1|151=250|10=042|
8=FIX.4.2|9=131|35=F|34=78|49=QUANTTEST|52=20100506-21:34:10.948|56=NESTITEST|11=NF000026|38=500|41=NF000024|54=1|55=PETR4.SA|60=20100506-18:34:10|10=137|
8=FIX.4.2|9=155|35=8|34=72|49=NESTITEST|52=20100506-21:34:39.852|56=QUANTTEST|6=0|11=NF000026|14=0|17=001|20=0|31=0|32=250|37=001|38=500|39=4|54=1|55=PETR4.SA|150=4|151=0|10=205|
8=FIX.4.2|9=74|35=A|34=81|49=QUANTTEST|52=20100506-21:37:08.665|56=NESTITEST|98=0|108=60|10=202|
8=FIX.4.2|9=74|35=A|34=73|49=NESTITEST|52=20100506-21:47:38.402|56=QUANTTEST|98=0|108=60|10=196|
8=FIX.4.2|9=72|35=2|34=74|49=NESTITEST|52=20100506-21:47:38.402|56=QUANTTEST|7=79|16=0|10=082|
8=FIX.4.2|9=62|35=5|34=75|49=NESTITEST|52=20100506-21:47:38.402|56=QUANTTEST|10=155|
8=FIX.4.2|9=74|35=A|34=83|49=QUANTTEST|52=20100506-21:38:26.424|56=NESTITEST|98=0|108=60|10=198|
8=FIX.4.2|9=74|35=A|34=76|49=NESTITEST|52=20100506-21:47:38.417|56=QUANTTEST|98=0|108=60|10=205|
8=FIX.4.2|9=72|35=2|34=77|49=NESTITEST|52=20100506-21:47:38.417|56=QUANTTEST|7=79|16=0|10=091|
8=FIX.4.2|9=62|35=5|34=78|49=NESTITEST|52=20100506-21:47:38.417|56=QUANTTEST|10=164|
8=FIX.4.2|9=74|35=A|34=85|49=QUANTTEST|52=20100506-21:39:24.434|56=NESTITEST|98=0|108=60|10=200|
8=FIX.4.2|9=74|35=A|34=79|49=NESTITEST|52=20100506-21:47:38.433|56=QUANTTEST|98=0|108=60|10=206|
8=FIX.4.2|9=72|35=2|34=80|49=NESTITEST|52=20100506-21:47:38.433|56=QUANTTEST|7=79|16=0|10=083|
8=FIX.4.2|9=62|35=5|34=81|49=NESTITEST|52=20100506-21:47:38.433|56=QUANTTEST|10=156|
8=FIX.4.2|9=74|35=A|34=87|49=QUANTTEST|52=20100506-21:40:20.803|56=NESTITEST|98=0|108=60|10=190|
8=FIX.4.2|9=74|35=A|34=82|49=NESTITEST|52=20100506-21:47:38.433|56=QUANTTEST|98=0|108=60|10=200|
8=FIX.4.2|9=72|35=2|34=83|49=NESTITEST|52=20100506-21:47:38.433|56=QUANTTEST|7=79|16=0|10=086|
8=FIX.4.2|9=62|35=5|34=84|49=NESTITEST|52=20100506-21:47:38.449|56=QUANTTEST|10=166|
8=FIX.4.2|9=74|35=A|34=89|49=QUANTTEST|52=20100506-21:41:23.094|56=NESTITEST|98=0|108=60|10=198|
8=FIX.4.2|9=74|35=A|34=85|49=NESTITEST|52=20100506-21:47:38.449|56=QUANTTEST|98=0|108=60|10=210|
8=FIX.4.2|9=72|35=2|34=86|49=NESTITEST|52=20100506-21:47:38.449|56=QUANTTEST|7=79|16=0|10=096|
8=FIX.4.2|9=62|35=5|34=87|49=NESTITEST|52=20100506-21:47:38.449|56=QUANTTEST|10=169|
8=FIX.4.2|9=74|35=A|34=91|49=QUANTTEST|52=20100506-21:42:37.759|56=NESTITEST|98=0|108=60|10=205|
8=FIX.4.2|9=74|35=A|34=88|49=NESTITEST|52=20100506-21:47:38.464|56=QUANTTEST|98=0|108=60|10=210|
8=FIX.4.2|9=72|35=2|34=89|49=NESTITEST|52=20100506-21:47:38.464|56=QUANTTEST|7=79|16=0|10=096|
8=FIX.4.2|9=62|35=5|34=90|49=NESTITEST|52=20100506-21:47:38.464|56=QUANTTEST|10=160|
8=FIX.4.2|9=74|35=A|34=93|49=QUANTTEST|52=20100506-21:44:01.579|56=NESTITEST|98=0|108=60|10=200|
8=FIX.4.2|9=74|35=A|34=91|49=NESTITEST|52=20100506-21:47:38.464|56=QUANTTEST|98=0|108=60|10=204|
8=FIX.4.2|9=72|35=2|34=92|49=NESTITEST|52=20100506-21:47:38.464|56=QUANTTEST|7=79|16=0|10=090|
8=FIX.4.2|9=62|35=5|34=93|49=NESTITEST|52=20100506-21:47:38.464|56=QUANTTEST|10=163|
8=FIX.4.2|9=74|35=A|34=95|49=QUANTTEST|52=20100506-21:45:11.400|56=NESTITEST|98=0|108=60|10=187|
8=FIX.4.2|9=74|35=A|34=94|49=NESTITEST|52=20100506-21:47:38.480|56=QUANTTEST|98=0|108=60|10=205|
8=FIX.4.2|9=72|35=2|34=95|49=NESTITEST|52=20100506-21:47:38.480|56=QUANTTEST|7=79|16=0|10=091|
8=FIX.4.2|9=62|35=5|34=96|49=NESTITEST|52=20100506-21:47:38.480|56=QUANTTEST|10=164|
8=FIX.4.2|9=74|35=A|34=97|49=QUANTTEST|52=20100506-21:46:24.096|56=NESTITEST|98=0|108=60|10=205|
8=FIX.4.2|9=74|35=A|34=97|49=NESTITEST|52=20100506-21:47:38.480|56=QUANTTEST|98=0|108=60|10=208|
8=FIX.4.2|9=72|35=2|34=98|49=NESTITEST|52=20100506-21:47:38.480|56=QUANTTEST|7=79|16=0|10=094|
8=FIX.4.2|9=62|35=5|34=99|49=NESTITEST|52=20100506-21:47:38.496|56=QUANTTEST|10=174|
8=FIX.4.2|9=75|35=A|34=100|49=QUANTTEST|52=20100506-21:47:58.103|56=NESTITEST|98=0|108=60|10=236|
8=FIX.4.2|9=75|35=A|34=100|49=NESTITEST|52=20100506-21:47:58.244|56=QUANTTEST|98=0|108=60|10=242|
8=FIX.4.2|9=73|35=2|34=101|49=NESTITEST|52=20100506-21:47:58.244|56=QUANTTEST|7=79|16=0|10=128|
8=FIX.4.2|9=73|35=2|34=101|49=QUANTTEST|52=20100506-21:47:58.259|56=NESTITEST|7=73|16=0|10=128|
8=FIX.4.2|9=106|35=4|34=73|43=Y|49=NESTITEST|52=20100506-21:47:58.259|56=QUANTTEST|122=20100506-21:47:58.259|36=102|123=Y|10=067|
8=FIX.4.2|9=105|35=4|34=79|43=Y|49=QUANTTEST|52=20100506-21:47:58.275|56=NESTITEST|122=20100506-21:47:58.275|36=99|123=Y|10=035|
8=FIX.4.2|9=171|35=D|34=99|43=Y|49=QUANTTEST|52=20100506-21:47:58.275|56=NESTITEST|122=20100506-21:47:03.921|11=NF000027|21=1|38=250|40=1|54=2|55=PETR4.SA|60=20100506-18:47:03.921|9304=N|10=010|
8=FIX.4.2|9=163|35=8|34=102|49=NESTITEST|52=20100506-21:48:09.914|56=QUANTTEST|6=0|11=NF000027|14=125|17=001|20=0|31=66.6|32=125|37=001|38=250|39=1|54=2|55=PETR4.SA|150=1|151=125|10=102|
8=FIX.4.2|9=107|35=4|34=100|43=Y|49=QUANTTEST|52=20100506-21:47:58.275|56=NESTITEST|122=20100506-21:47:58.275|36=102|123=Y|10=103|
8=FIX.4.2|9=75|35=A|34=102|49=QUANTTEST|52=20100506-21:49:07.065|56=NESTITEST|98=0|108=60|10=241|
8=FIX.4.2|9=75|35=A|34=103|49=NESTITEST|52=20100506-21:49:07.112|56=QUANTTEST|98=0|108=60|10=235|
8=FIX.4.2|9=74|35=2|34=104|49=NESTITEST|52=20100506-21:49:07.128|56=QUANTTEST|7=101|16=0|10=163|
8=FIX.4.2|9=107|35=4|34=101|43=Y|49=QUANTTEST|52=20100506-21:49:07.143|56=NESTITEST|122=20100506-21:49:07.143|36=103|123=Y|10=085|
8=FIX.4.2|9=141|35=D|34=103|49=QUANTTEST|52=20100506-21:49:22.939|56=NESTITEST|11=NF000029|21=1|38=500|40=1|54=1|55=PETR4.SA|60=20100506-18:49:22.923|9304=N|10=050|
8=FIX.4.2|9=163|35=8|34=105|49=NESTITEST|52=20100506-21:49:25.532|56=QUANTTEST|6=0|11=NF000029|14=250|17=001|20=0|31=66.6|32=250|37=001|38=500|39=1|54=1|55=PETR4.SA|150=1|151=250|10=096|
8=FIX.4.2|9=132|35=F|34=104|49=QUANTTEST|52=20100506-21:50:11.012|56=NESTITEST|11=NF000031|38=500|41=NF000029|54=1|55=PETR4.SA|60=20100506-18:50:10|10=156|
8=FIX.4.2|9=156|35=8|34=106|49=NESTITEST|52=20100506-21:50:11.012|56=QUANTTEST|6=0|11=NF000031|14=0|17=001|20=0|31=0|32=250|37=001|38=500|39=4|54=1|55=PETR4.SA|150=4|151=0|10=224|
8=FIX.4.2|9=63|35=0|34=105|49=QUANTTEST|52=20100506-21:51:11.053|56=NESTITEST|10=181|
8=FIX.4.2|9=63|35=0|34=107|49=NESTITEST|52=20100506-21:51:11.053|56=QUANTTEST|10=183|
8=FIX.4.2|9=63|35=0|34=106|49=QUANTTEST|52=20100506-21:52:11.188|56=NESTITEST|10=192|
8=FIX.4.2|9=63|35=0|34=108|49=NESTITEST|52=20100506-21:52:11.188|56=QUANTTEST|10=194|
8=FIX.4.2|9=63|35=0|34=109|49=NESTITEST|52=20100506-21:53:11.057|56=QUANTTEST|10=191|
8=FIX.4.2|9=63|35=0|34=107|49=QUANTTEST|52=20100506-21:53:11.057|56=NESTITEST|10=189|
8=FIX.4.2|9=63|35=0|34=110|49=NESTITEST|52=20100506-21:54:11.208|56=QUANTTEST|10=182|
8=FIX.4.2|9=63|35=0|34=108|49=QUANTTEST|52=20100506-21:54:11.208|56=NESTITEST|10=189|
8=FIX.4.2|9=63|35=0|34=111|49=NESTITEST|52=20100506-21:55:11.343|56=QUANTTEST|10=184|
8=FIX.4.2|9=63|35=0|34=109|49=QUANTTEST|52=20100506-21:55:11.343|56=NESTITEST|10=191|
8=FIX.4.2|9=63|35=0|34=112|49=NESTITEST|52=20100506-21:56:11.478|56=QUANTTEST|10=195|
8=FIX.4.2|9=63|35=0|34=110|49=QUANTTEST|52=20100506-21:56:11.478|56=NESTITEST|10=193|
8=FIX.4.2|9=63|35=0|34=113|49=NESTITEST|52=20100506-21:57:11.612|56=QUANTTEST|10=187|
8=FIX.4.2|9=63|35=0|34=111|49=QUANTTEST|52=20100506-21:57:11.612|56=NESTITEST|10=185|
8=FIX.4.2|9=63|35=0|34=112|49=QUANTTEST|52=20100506-21:58:11.044|56=NESTITEST|10=186|
8=FIX.4.2|9=63|35=0|34=114|49=NESTITEST|52=20100506-21:58:11.044|56=QUANTTEST|10=188|
8=FIX.4.2|9=63|35=0|34=113|49=QUANTTEST|52=20100506-21:59:11.195|56=NESTITEST|10=195|
8=FIX.4.2|9=63|35=0|34=115|49=NESTITEST|52=20100506-21:59:11.195|56=QUANTTEST|10=197|
8=FIX.4.2|9=141|35=D|34=114|49=QUANTTEST|52=20100506-21:59:43.926|56=NESTITEST|11=NF000033|21=1|38=500|40=1|54=1|55=PETR4.SA|60=20100506-18:59:43.926|9304=N|10=054|
8=FIX.4.2|9=163|35=8|34=116|49=NESTITEST|52=20100506-21:59:43.941|56=QUANTTEST|6=0|11=NF000033|14=250|17=001|20=0|31=66.6|32=250|37=001|38=500|39=1|54=1|55=PETR4.SA|150=1|151=250|10=098|
8=FIX.4.2|9=132|35=F|34=115|49=QUANTTEST|52=20100506-22:00:12.079|56=NESTITEST|11=NF000035|38=500|41=NF000033|54=1|55=PETR4.SA|60=20100506-19:00:12|10=165|
8=FIX.4.2|9=156|35=8|34=117|49=NESTITEST|52=20100506-22:00:12.095|56=QUANTTEST|6=0|11=NF000035|14=0|17=001|20=0|31=0|32=250|37=001|38=500|39=4|54=1|55=PETR4.SA|150=4|151=0|10=238|
8=FIX.4.2|9=63|35=0|34=116|49=QUANTTEST|52=20100506-22:01:12.042|56=NESTITEST|10=178|
8=FIX.4.2|9=63|35=0|34=118|49=NESTITEST|52=20100506-22:01:12.042|56=QUANTTEST|10=180|
8=FIX.4.2|9=141|35=D|34=117|49=QUANTTEST|52=20100506-22:01:21.541|56=NESTITEST|11=NF000037|21=1|38=500|40=1|54=1|55=PETR4.SA|60=20100506-19:01:21.541|9304=N|10=015|
8=FIX.4.2|9=163|35=8|34=119|49=NESTITEST|52=20100506-22:01:21.541|56=QUANTTEST|6=0|11=NF000037|14=250|17=001|20=0|31=66.6|32=250|37=001|38=500|39=1|54=1|55=PETR4.SA|150=1|151=250|10=085|
8=FIX.4.2|9=132|35=F|34=118|49=QUANTTEST|52=20100506-22:01:33.650|56=NESTITEST|11=NF000039|38=500|41=NF000037|54=1|55=PETR4.SA|60=20100506-19:01:33|10=179|
8=FIX.4.2|9=156|35=8|34=120|49=NESTITEST|52=20100506-22:01:33.650|56=QUANTTEST|6=0|11=NF000039|14=0|17=001|20=0|31=0|32=250|37=001|38=500|39=4|54=1|55=PETR4.SA|150=4|151=0|10=237|
8=FIX.4.2|9=63|35=0|34=119|49=QUANTTEST|52=20100506-22:02:33.050|56=NESTITEST|10=184|
8=FIX.4.2|9=63|35=0|34=121|49=NESTITEST|52=20100506-22:02:33.050|56=QUANTTEST|10=177|
8=FIX.4.2|9=141|35=D|34=120|49=QUANTTEST|52=20100506-22:02:33.066|56=NESTITEST|11=NF000041|21=1|38=500|40=1|54=1|55=PETR4.SA|60=20100506-19:02:33.066|9304=N|10=016|
8=FIX.4.2|9=163|35=8|34=122|49=NESTITEST|52=20100506-22:02:33.081|56=QUANTTEST|6=0|11=NF000041|14=250|17=001|20=0|31=66.6|32=250|37=001|38=500|39=1|54=1|55=PETR4.SA|150=1|151=250|10=077|
8=FIX.4.2|9=63|35=0|34=123|49=NESTITEST|52=20100506-22:03:33.529|56=QUANTTEST|10=191|
8=FIX.4.2|9=63|35=0|34=121|49=QUANTTEST|52=20100506-22:03:35.935|56=NESTITEST|10=192|
8=FIX.4.2|9=132|35=F|34=122|49=QUANTTEST|52=20100506-22:03:35.950|56=NESTITEST|11=NF000043|38=500|41=NF000041|54=1|55=PETR4.SA|60=20100506-19:03:35|10=175|
8=FIX.4.2|9=156|35=8|34=124|49=NESTITEST|52=20100506-22:03:35.950|56=QUANTTEST|6=0|11=NF000043|14=0|17=001|20=0|31=0|32=250|37=001|38=500|39=4|54=1|55=PETR4.SA|150=4|151=0|10=243|
8=FIX.4.2|9=63|35=0|34=125|49=NESTITEST|52=20100506-22:04:35.663|56=QUANTTEST|10=195|
8=FIX.4.2|9=63|35=0|34=123|49=QUANTTEST|52=20100506-22:04:41.772|56=NESTITEST|10=191|
8=FIX.4.2|9=63|35=0|34=126|49=NESTITEST|52=20100506-22:05:35.798|56=QUANTTEST|10=206|
8=FIX.4.2|9=72|35=1|34=127|49=NESTITEST|52=20100506-22:05:53.843|56=QUANTTEST|112=TEST|10=217|
8=FIX.4.2|9=72|35=1|34=124|49=QUANTTEST|52=20100506-22:06:04.186|56=NESTITEST|112=TEST|10=211|
8=FIX.4.2|9=72|35=0|34=128|49=NESTITEST|52=20100506-22:06:04.202|56=QUANTTEST|112=TEST|10=203|
8=FIX.4.2|9=72|35=0|34=125|49=QUANTTEST|52=20100506-22:06:04.202|56=NESTITEST|112=TEST|10=200|
8=FIX.4.2|9=63|35=5|34=126|49=QUANTTEST|52=20100506-22:06:18.216|56=NESTITEST|10=198|
8=FIX.4.2|9=63|35=5|34=129|49=NESTITEST|52=20100506-22:06:18.216|56=QUANTTEST|10=201|
8=FIX.4.2|9=75|35=A|34=127|49=QUANTTEST|52=20100506-22:06:37.214|56=NESTITEST|98=0|108=60|10=241|
8=FIX.4.2|9=75|35=A|34=130|49=NESTITEST|52=20100506-22:06:37.324|56=QUANTTEST|98=0|108=60|10=237|
8=FIX.4.2|9=141|35=D|34=128|49=QUANTTEST|52=20100506-22:06:54.869|56=NESTITEST|11=NF000045|21=1|38=500|40=1|54=1|55=PETR4.SA|60=20100506-19:06:54.853|9304=N|10=057|
8=FIX.4.2|9=163|35=8|34=131|49=NESTITEST|52=20100506-22:06:54.884|56=QUANTTEST|6=0|11=NF000045|14=250|17=001|20=0|31=66.6|32=250|37=001|38=500|39=1|54=1|55=PETR4.SA|150=1|151=250|10=099|
8=FIX.4.2|9=132|35=F|34=129|49=QUANTTEST|52=20100506-22:07:18.960|56=NESTITEST|11=NF000047|38=500|41=NF000045|54=1|55=PETR4.SA|60=20100506-19:07:18|10=201|
8=FIX.4.2|9=156|35=8|34=132|49=NESTITEST|52=20100506-22:07:18.960|56=QUANTTEST|6=0|11=NF000047|14=0|17=001|20=0|31=0|32=250|37=001|38=500|39=4|54=1|55=PETR4.SA|150=4|151=0|10=252|
8=FIX.4.2|9=63|35=0|34=133|49=NESTITEST|52=20100506-22:08:18.002|56=QUANTTEST|10=186|
8=FIX.4.2|9=72|35=1|34=134|49=NESTITEST|52=20100506-22:08:30.032|56=QUANTTEST|112=TEST|10=203|
8=FIX.4.2|9=63|35=0|34=130|49=QUANTTEST|52=20100506-22:08:29.735|56=NESTITEST|10=198|
8=FIX.4.2|9=72|35=0|34=131|49=QUANTTEST|52=20100506-22:08:48.514|56=NESTITEST|112=TEST|10=213|
8=FIX.4.2|9=63|35=0|34=135|49=NESTITEST|52=20100506-22:09:30.166|56=QUANTTEST|10=194|
8=FIX.4.2|9=63|35=0|34=132|49=QUANTTEST|52=20100506-22:09:48.899|56=NESTITEST|10=213|
8=FIX.4.2|9=63|35=0|34=136|49=NESTITEST|52=20100506-22:10:30.333|56=QUANTTEST|10=183|
8=FIX.4.2|9=63|35=0|34=133|49=QUANTTEST|52=20100506-22:10:49.221|56=NESTITEST|10=186|
8=FIX.4.2|9=63|35=0|34=137|49=NESTITEST|52=20100506-22:11:30.467|56=QUANTTEST|10=193|
8=FIX.4.2|9=72|35=1|34=134|49=QUANTTEST|52=20100506-22:11:46.028|56=NESTITEST|112=TEST|10=209|
8=FIX.4.2|9=72|35=0|34=138|49=NESTITEST|52=20100506-22:11:46.044|56=QUANTTEST|112=TEST|10=210|
8=FIX.4.2|9=63|35=0|34=135|49=QUANTTEST|52=20100506-22:12:46.444|56=NESTITEST|10=194|
8=FIX.4.2|9=63|35=0|34=139|49=NESTITEST|52=20100506-22:12:46.444|56=QUANTTEST|10=198|
8=FIX.4.2|9=141|35=D|34=136|49=QUANTTEST|52=20100506-22:12:46.460|56=NESTITEST|11=NF000048|21=1|38=250|40=1|54=2|55=PETR4.SA|60=20100506-19:12:46.460|9304=N|10=039|
8=FIX.4.2|9=163|35=8|34=140|49=NESTITEST|52=20100506-22:12:46.460|56=QUANTTEST|6=0|11=NF000048|14=125|17=001|20=0|31=66.6|32=125|37=001|38=250|39=1|54=2|55=PETR4.SA|150=1|151=125|10=096|
8=FIX.4.2|9=63|35=0|34=141|49=NESTITEST|52=20100506-22:13:46.782|56=QUANTTEST|10=197|
8=FIX.4.2|9=72|35=1|34=142|49=NESTITEST|52=20100506-22:13:58.813|56=QUANTTEST|112=TEST|10=215|
8=FIX.4.2|9=72|35=1|34=137|49=QUANTTEST|52=20100506-22:14:06.406|56=NESTITEST|112=TEST|10=211|
8=FIX.4.2|9=72|35=0|34=143|49=NESTITEST|52=20100506-22:14:06.406|56=QUANTTEST|112=TEST|10=207|
8=FIX.4.2|9=72|35=0|34=138|49=QUANTTEST|52=20100506-22:14:13.889|56=NESTITEST|112=TEST|10=224|
8=FIX.4.2|9=63|35=0|34=144|49=NESTITEST|52=20100506-22:15:06.962|56=QUANTTEST|10=198|
8=FIX.4.2|9=72|35=1|34=145|49=NESTITEST|52=20100506-22:15:26.007|56=QUANTTEST|112=TEST|10=210|
8=FIX.4.2|9=72|35=1|34=139|49=QUANTTEST|52=20100506-22:15:46.615|56=NESTITEST|112=TEST|10=220|
8=FIX.4.2|9=72|35=0|34=146|49=NESTITEST|52=20100506-22:15:46.615|56=QUANTTEST|112=TEST|10=217|
8=FIX.4.2|9=72|35=0|34=140|49=QUANTTEST|52=20100506-22:15:54.442|56=NESTITEST|112=TEST|10=208|
8=FIX.4.2|9=63|35=0|34=147|49=NESTITEST|52=20100506-22:16:46.187|56=QUANTTEST|10=205|
8=FIX.4.2|9=63|35=0|34=141|49=QUANTTEST|52=20100506-22:16:54.139|56=NESTITEST|10=195|
8=FIX.4.2|9=63|35=0|34=148|49=NESTITEST|52=20100506-22:17:46.338|56=QUANTTEST|10=205|
8=FIX.4.2|9=63|35=0|34=142|49=QUANTTEST|52=20100506-22:17:54.290|56=NESTITEST|10=195|
8=FIX.4.2|9=63|35=0|34=149|49=NESTITEST|52=20100506-22:18:46.472|56=QUANTTEST|10=206|
8=FIX.4.2|9=63|35=0|34=143|49=QUANTTEST|52=20100506-22:18:54.425|56=NESTITEST|10=197|
8=FIX.4.2|9=63|35=0|34=150|49=NESTITEST|52=20100506-22:19:46.607|56=QUANTTEST|10=199|
8=FIX.4.2|9=63|35=0|34=144|49=QUANTTEST|52=20100506-22:19:54.560|56=NESTITEST|10=199|
8=FIX.4.2|9=132|35=F|34=145|49=QUANTTEST|52=20100506-22:20:25.572|56=NESTITEST|11=NF000050|38=250|41=NF000048|54=2|55=PETR4.SA|60=20100506-19:20:25|10=184|
8=FIX.4.2|9=156|35=8|34=151|49=NESTITEST|52=20100506-22:20:25.572|56=QUANTTEST|6=0|11=NF000050|14=0|17=001|20=0|31=0|32=125|37=001|38=250|39=4|54=2|55=PETR4.SA|150=4|151=0|10=243|
8=FIX.4.2|9=141|35=D|34=146|49=QUANTTEST|52=20100506-22:21:08.599|56=NESTITEST|11=NF000051|21=1|38=125|40=1|54=1|55=PETR4.SA|60=20100506-19:21:08.599|9304=N|10=056|
8=FIX.4.2|9=166|35=8|34=152|49=NESTITEST|52=20100506-22:21:08.599|56=QUANTTEST|6=0|11=NF000051|14=62.5|17=001|20=0|31=66.6|32=62.5|37=001|38=125|39=1|54=1|55=PETR4.SA|150=1|151=62.5|10=004|
8=FIX.4.2|9=63|35=0|34=147|49=QUANTTEST|52=20100506-22:22:08.094|56=NESTITEST|10=197|
8=FIX.4.2|9=63|35=0|34=153|49=NESTITEST|52=20100506-22:22:08.094|56=QUANTTEST|10=194|
8=FIX.4.2|9=63|35=5|34=148|49=QUANTTEST|52=20100506-22:22:14.109|56=NESTITEST|10=197|
8=FIX.4.2|9=63|35=5|34=154|49=NESTITEST|52=20100506-22:22:14.109|56=QUANTTEST|10=194|
8=FIX.4.2|9=75|35=A|34=149|49=QUANTTEST|52=20100506-22:24:55.796|56=NESTITEST|98=0|108=60|10=004|
8=FIX.4.2|9=75|35=A|34=155|49=NESTITEST|52=20100506-22:24:55.906|56=QUANTTEST|98=0|108=60|10=250|
8=FIX.4.2|9=141|35=D|34=150|49=QUANTTEST|52=20100506-22:25:12.795|56=NESTITEST|11=NF000053|21=1|38=500|40=1|54=1|55=PETR4.SA|60=20100506-19:25:12.779|9304=N|10=046|
8=FIX.4.2|9=163|35=8|34=156|49=NESTITEST|52=20100506-22:25:12.810|56=QUANTTEST|6=0|11=NF000053|14=250|17=001|20=0|31=66.6|32=250|37=001|38=500|39=1|54=1|55=PETR4.SA|150=1|151=250|10=089|
8=FIX.4.2|9=132|35=F|34=151|49=QUANTTEST|52=20100506-22:25:26.543|56=NESTITEST|11=NF000055|38=500|41=NF000053|54=1|55=PETR4.SA|60=20100506-19:25:26|10=189|
8=FIX.4.2|9=158|35=8|34=157|49=NESTITEST|52=20100506-22:25:26.543|56=QUANTTEST|6=0|11=NF000055|14=250|17=001|20=0|31=0|32=250|37=001|38=500|39=4|54=1|55=PETR4.SA|150=4|151=0|10=103|
8=FIX.4.2|9=141|35=D|34=152|49=QUANTTEST|52=20100506-22:25:29.293|56=NESTITEST|11=NF000056|21=1|38=250|40=1|54=2|55=PETR4.SA|60=20100506-19:25:29.293|9304=N|10=054|
8=FIX.4.2|9=163|35=8|34=158|49=NESTITEST|52=20100506-22:25:29.293|56=QUANTTEST|6=0|11=NF000056|14=125|17=001|20=0|31=66.6|32=125|37=001|38=250|39=1|54=2|55=PETR4.SA|150=1|151=125|10=113|
8=FIX.4.2|9=132|35=F|34=153|49=QUANTTEST|52=20100506-22:25:41.261|56=NESTITEST|11=NF000058|38=250|41=NF000056|54=2|55=PETR4.SA|60=20100506-19:25:41|10=191|
8=FIX.4.2|9=158|35=8|34=159|49=NESTITEST|52=20100506-22:25:41.261|56=QUANTTEST|6=0|11=NF000058|14=125|17=001|20=0|31=0|32=125|37=001|38=250|39=4|54=2|55=PETR4.SA|150=4|151=0|10=107|
8=FIX.4.2|9=141|35=D|34=154|49=QUANTTEST|52=20100506-22:25:42.901|56=NESTITEST|11=NF000059|21=1|38=250|40=1|54=1|55=PETR4.SA|60=20100506-19:25:42.901|9304=N|10=040|
8=FIX.4.2|9=163|35=8|34=160|49=NESTITEST|52=20100506-22:25:42.901|56=QUANTTEST|6=0|11=NF000059|14=125|17=001|20=0|31=66.6|32=125|37=001|38=250|39=1|54=1|55=PETR4.SA|150=1|151=125|10=099|
8=FIX.4.2|9=63|35=0|34=161|49=NESTITEST|52=20100506-22:26:42.005|56=QUANTTEST|10=187|
8=FIX.4.2|9=63|35=0|34=155|49=QUANTTEST|52=20100506-22:26:42.005|56=NESTITEST|10=190|
8=FIX.4.2|9=132|35=F|34=156|49=QUANTTEST|52=20100506-22:26:49.473|56=NESTITEST|11=NF000061|38=250|41=NF000059|54=1|55=PETR4.SA|60=20100506-19:26:49|10=213|
8=FIX.4.2|9=158|35=8|34=162|49=NESTITEST|52=20100506-22:26:49.473|56=QUANTTEST|6=0|11=NF000061|14=125|17=001|20=0|31=0|32=125|37=001|38=250|39=4|54=1|55=PETR4.SA|150=4|151=0|10=108|
8=FIX.4.2|9=141|35=D|34=157|49=QUANTTEST|52=20100506-22:26:50.442|56=NESTITEST|11=NF000062|21=1|38=500|40=1|54=2|55=PETR4.SA|60=20100506-19:26:50.442|9304=N|10=036|
8=FIX.4.2|9=163|35=8|34=163|49=NESTITEST|52=20100506-22:26:50.457|56=QUANTTEST|6=0|11=NF000062|14=250|17=001|20=0|31=66.6|32=250|37=001|38=500|39=1|54=2|55=PETR4.SA|150=1|151=250|10=098|
8=FIX.4.2|9=63|35=0|34=164|49=NESTITEST|52=20100506-22:27:50.155|56=QUANTTEST|10=196|
8=FIX.4.2|9=63|35=0|34=158|49=QUANTTEST|52=20100506-22:27:50.155|56=NESTITEST|10=199|
8=FIX.4.2|9=132|35=F|34=159|49=QUANTTEST|52=20100506-22:28:43.759|56=NESTITEST|11=NF000064|38=500|41=NF000062|54=2|55=PETR4.SA|60=20100506-19:28:43|10=211|
8=FIX.4.2|9=158|35=8|34=165|49=NESTITEST|52=20100506-22:28:43.759|56=QUANTTEST|6=0|11=NF000064|14=250|17=001|20=0|31=0|32=250|37=001|38=500|39=4|54=2|55=PETR4.SA|150=4|151=0|10=114|
8=FIX.4.2|9=147|35=D|34=160|49=QUANTTEST|52=20100506-22:28:43.790|56=NESTITEST|11=NF000065|21=1|38=250|40=2|44=35|54=1|55=PETR4.SA|60=20100506-19:28:43.790|9304=N|10=075|
8=FIX.4.2|9=161|35=8|34=166|49=NESTITEST|52=20100506-22:28:43.790|56=QUANTTEST|6=0|11=NF000065|14=125|17=001|20=0|31=35|32=125|37=001|38=250|39=1|54=1|55=PETR4.SA|150=1|151=125|10=006|
8=FIX.4.2|9=132|35=F|34=161|49=QUANTTEST|52=20100506-22:29:20.880|56=NESTITEST|11=NF000067|38=250|41=NF000065|54=1|55=PETR4.SA|60=20100506-19:29:20|10=198|
8=FIX.4.2|9=158|35=8|34=167|49=NESTITEST|52=20100506-22:29:20.896|56=QUANTTEST|6=0|11=NF000067|14=125|17=001|20=0|31=0|32=125|37=001|38=250|39=4|54=1|55=PETR4.SA|150=4|151=0|10=120|
8=FIX.4.2|9=147|35=D|34=162|49=QUANTTEST|52=20100506-22:29:20.927|56=NESTITEST|11=NF000068|21=1|38=250|40=2|44=10|54=2|55=PETR4.SA|60=20100506-19:29:20.927|9304=N|10=070|
8=FIX.4.2|9=161|35=8|34=168|49=NESTITEST|52=20100506-22:29:20.943|56=QUANTTEST|6=0|11=NF000068|14=125|17=001|20=0|31=10|32=125|37=001|38=250|39=1|54=2|55=PETR4.SA|150=1|151=125|10=001|
8=FIX.4.2|9=132|35=F|34=163|49=QUANTTEST|52=20100506-22:29:48.753|56=NESTITEST|11=NF000070|38=250|41=NF000068|54=2|55=PETR4.SA|60=20100506-19:29:48|10=217|
8=FIX.4.2|9=158|35=8|34=169|49=NESTITEST|52=20100506-22:29:48.768|56=QUANTTEST|6=0|11=NF000070|14=125|17=001|20=0|31=0|32=125|37=001|38=250|39=4|54=2|55=PETR4.SA|150=4|151=0|10=125|
8=FIX.4.2|9=147|35=D|34=164|49=QUANTTEST|52=20100506-22:29:48.815|56=NESTITEST|11=NF000071|21=1|38=125|40=2|44=10|54=2|55=PETR4.SA|60=20100506-19:29:48.815|9304=N|10=079|
8=FIX.4.2|9=162|35=8|34=170|49=NESTITEST|52=20100506-22:29:48.815|56=QUANTTEST|6=0|11=NF000071|14=62|17=001|20=0|31=10|32=62.5|37=001|38=125|39=1|54=2|55=PETR4.SA|150=1|151=62.5|10=052|
8=FIX.4.2|9=132|35=F|34=165|49=QUANTTEST|52=20100506-22:29:48.831|56=NESTITEST|11=NF000072|38=125|41=NF000071|54=2|55=PETR4.SA|60=20100506-19:29:48|10=213|
8=FIX.4.2|9=158|35=8|34=171|49=NESTITEST|52=20100506-22:29:48.831|56=QUANTTEST|6=0|11=NF000072|14=62|17=001|20=0|31=0|32=62.5|37=001|38=125|39=4|54=2|55=PETR4.SA|150=4|151=0|10=115|
8=FIX.4.2|9=146|35=D|34=166|49=QUANTTEST|52=20100506-22:29:48.846|56=NESTITEST|11=NF000073|21=1|38=63|40=2|44=10|54=2|55=PETR4.SA|60=20100506-19:29:48.846|9304=N|10=043|
8=FIX.4.2|9=161|35=8|34=172|49=NESTITEST|52=20100506-22:29:48.846|56=QUANTTEST|6=0|11=NF000073|14=31|17=001|20=0|31=10|32=31.5|37=001|38=63|39=1|54=2|55=PETR4.SA|150=1|151=31.5|10=000|
8=FIX.4.2|9=131|35=F|34=167|49=QUANTTEST|52=20100506-22:29:48.862|56=NESTITEST|11=NF000074|38=63|41=NF000073|54=2|55=PETR4.SA|60=20100506-19:29:48|10=175|
8=FIX.4.2|9=157|35=8|34=173|49=NESTITEST|52=20100506-22:29:48.862|56=QUANTTEST|6=0|11=NF000074|14=31|17=001|20=0|31=0|32=31.5|37=001|38=63|39=4|54=2|55=PETR4.SA|150=4|151=0|10=067|
8=FIX.4.2|9=146|35=D|34=168|49=QUANTTEST|52=20100506-22:29:48.878|56=NESTITEST|11=NF000075|21=1|38=32|40=2|44=10|54=2|55=PETR4.SA|60=20100506-19:29:48.878|9304=N|10=053|
8=FIX.4.2|9=157|35=8|34=174|49=NESTITEST|52=20100506-22:29:48.878|56=QUANTTEST|6=0|11=NF000075|14=16|17=001|20=0|31=10|32=16|37=001|38=32|39=1|54=2|55=PETR4.SA|150=1|151=16|10=077|
8=FIX.4.2|9=140|35=D|34=169|49=QUANTTEST|52=20100506-22:29:48.893|56=NESTITEST|11=NF000076|21=1|38=94|40=1|54=1|55=PETR4.SA|60=20100506-19:29:48.893|9304=N|10=042|
8=FIX.4.2|9=159|35=8|34=175|49=NESTITEST|52=20100506-22:29:48.909|56=QUANTTEST|6=0|11=NF000076|14=47|17=001|20=0|31=66.6|32=47|37=001|38=94|39=1|54=1|55=PETR4.SA|150=1|151=47|10=206|
8=FIX.4.2|9=63|35=5|34=176|49=NESTITEST|52=20100506-22:30:36.545|56=QUANTTEST|10=205|
8=FIX.4.2|9=63|35=5|34=170|49=QUANTTEST|52=20100506-22:30:36.545|56=NESTITEST|10=199|
8=FIX.4.2|9=75|35=A|34=171|49=QUANTTEST|52=20100506-22:36:19.496|56=NESTITEST|98=0|108=60|10=255|
8=FIX.4.2|9=75|35=A|34=177|49=NESTITEST|52=20100506-22:36:19.606|56=QUANTTEST|98=0|108=60|10=254|
8=FIX.4.2|9=148|35=D|34=172|49=QUANTTEST|52=20100506-22:37:12.585|56=NESTITEST|11=NF000078|21=1|38=1024|40=2|44=35|54=1|55=PETR4.SA|60=20100506-19:37:12.569|9304=N|10=129|
8=FIX.4.2|9=162|35=8|34=178|49=NESTITEST|52=20100506-22:37:12.601|56=QUANTTEST|6=0|11=NF000078|14=512|17=001|20=0|31=35|32=512|37=001|38=1024|39=1|54=1|55=PETR4.SA|150=1|151=512|10=049|
8=FIX.4.2|9=63|35=0|34=179|49=NESTITEST|52=20100506-22:38:12.204|56=QUANTTEST|10=197|
8=FIX.4.2|9=72|35=1|34=180|49=NESTITEST|52=20100506-22:38:24.219|56=QUANTTEST|112=TEST|10=217|
8=FIX.4.2|9=72|35=1|34=173|49=QUANTTEST|52=20100506-22:38:25.984|56=NESTITEST|112=TEST|10=229|
8=FIX.4.2|9=72|35=0|34=181|49=NESTITEST|52=20100506-22:38:27.218|56=QUANTTEST|112=TEST|10=219|
8=FIX.4.2|9=72|35=0|34=174|49=QUANTTEST|52=20100506-22:38:29.765|56=NESTITEST|112=TEST|10=230|
8=FIX.4.2|9=147|35=D|34=175|49=QUANTTEST|52=20100506-22:38:50.169|56=NESTITEST|11=NF000080|21=1|38=512|40=2|44=10|54=1|55=PETR4.SA|60=20100506-19:38:50.169|9304=N|10=070|
8=FIX.4.2|9=161|35=8|34=182|49=NESTITEST|52=20100506-22:38:50.169|56=QUANTTEST|6=0|11=NF000080|14=256|17=001|20=0|31=10|32=256|37=001|38=512|39=1|54=1|55=PETR4.SA|150=1|151=256|10=009|
8=FIX.4.2|9=63|35=5|34=176|49=QUANTTEST|52=20100506-22:38:58.169|56=NESTITEST|10=219|
8=FIX.4.2|9=63|35=5|34=183|49=NESTITEST|52=20100506-22:38:58.169|56=QUANTTEST|10=217|
8=FIX.4.2|9=75|35=A|34=177|49=QUANTTEST|52=20100506-22:39:02.981|56=NESTITEST|98=0|108=60|10=255|
8=FIX.4.2|9=75|35=A|34=184|49=NESTITEST|52=20100506-22:39:03.027|56=QUANTTEST|98=0|108=60|10=245|
8=FIX.4.2|9=148|35=D|34=178|49=QUANTTEST|52=20100506-22:39:17.698|56=NESTITEST|11=NF000082|21=1|38=1024|40=2|44=35|54=1|55=PETR4.SA|60=20100506-19:39:17.682|9304=N|10=145|
8=FIX.4.2|9=162|35=8|34=185|49=NESTITEST|52=20100506-22:39:17.698|56=QUANTTEST|6=0|11=NF000082|14=512|17=001|20=0|31=35|32=512|37=001|38=1024|39=1|54=1|55=PETR4.SA|150=1|151=512|10=065|
8=FIX.4.2|9=63|35=0|34=186|49=NESTITEST|52=20100506-22:40:17.505|56=QUANTTEST|10=197|
8=FIX.4.2|9=72|35=1|34=187|49=NESTITEST|52=20100506-22:40:29.535|56=QUANTTEST|112=TEST|10=223|
8=FIX.4.2|9=72|35=1|34=179|49=QUANTTEST|52=20100506-22:40:32.988|56=NESTITEST|112=TEST|10=230|
8=FIX.4.2|9=72|35=0|34=188|49=NESTITEST|52=20100506-22:40:35.753|56=QUANTTEST|112=TEST|10=222|
8=FIX.4.2|9=72|35=0|34=180|49=QUANTTEST|52=20100506-22:40:42.205|56=NESTITEST|112=TEST|10=204|
8=FIX.4.2|9=133|35=F|34=181|49=QUANTTEST|52=20100506-22:40:42.205|56=NESTITEST|11=NF000084|38=1024|41=NF000082|54=1|55=PETR4.SA|60=20100506-19:40:42|10=232|
8=FIX.4.2|9=159|35=8|34=189|49=NESTITEST|52=20100506-22:40:42.221|56=QUANTTEST|6=0|11=NF000084|14=512|17=001|20=0|31=0|32=512|37=001|38=1024|39=4|54=1|55=PETR4.SA|150=4|151=0|10=151|
8=FIX.4.2|9=63|35=0|34=190|49=NESTITEST|52=20100506-22:41:42.700|56=QUANTTEST|10=188|
8=FIX.4.2|9=72|35=1|34=191|49=NESTITEST|52=20100506-22:41:54.730|56=QUANTTEST|112=TEST|10=214|
8=FIX.4.2|9=63|35=0|34=182|49=QUANTTEST|52=20100506-22:41:52.074|56=NESTITEST|10=194|
8=FIX.4.2|9=72|35=0|34=183|49=QUANTTEST|52=20100506-22:41:55.667|56=NESTITEST|112=TEST|10=224|
8=FIX.4.2|9=63|35=0|34=184|49=QUANTTEST|52=20100506-22:42:54.662|56=NESTITEST|10=202|
8=FIX.4.2|9=63|35=0|34=192|49=NESTITEST|52=20100506-22:42:54.662|56=QUANTTEST|10=201|
8=FIX.4.2|9=148|35=D|34=185|49=QUANTTEST|52=20100506-22:43:43.829|56=NESTITEST|11=NF000086|21=1|38=1024|40=2|44=10|54=1|55=PETR4.SA|60=20100506-19:43:43.829|9304=N|10=127|
8=FIX.4.2|9=162|35=8|34=193|49=NESTITEST|52=20100506-22:43:43.829|56=QUANTTEST|6=0|11=NF000086|14=512|17=001|20=0|31=10|32=512|37=001|38=1024|39=1|54=1|55=PETR4.SA|150=1|151=512|10=051|
8=FIX.4.2|9=63|35=0|34=194|49=NESTITEST|52=20100506-22:44:43.167|56=QUANTTEST|10=203|
8=FIX.4.2|9=72|35=1|34=195|49=NESTITEST|52=20100506-22:44:55.197|56=QUANTTEST|112=TEST|10=229|
8=FIX.4.2|9=72|35=1|34=186|49=QUANTTEST|52=20100506-22:45:03.040|56=NESTITEST|112=TEST|10=210|
8=FIX.4.2|9=72|35=0|34=196|49=NESTITEST|52=20100506-22:45:03.055|56=QUANTTEST|112=TEST|10=216|
8=FIX.4.2|9=72|35=0|34=187|49=QUANTTEST|52=20100506-22:45:03.055|56=NESTITEST|112=TEST|10=216|
8=FIX.4.2|9=148|35=D|34=188|49=QUANTTEST|52=20100506-22:45:03.071|56=NESTITEST|11=NF000088|21=1|38=1024|40=2|44=15|54=1|55=PETR4.SA|60=20100506-19:45:03.071|9304=N|10=111|
8=FIX.4.2|9=162|35=8|34=197|49=NESTITEST|52=20100506-22:45:03.071|56=QUANTTEST|6=0|11=NF000088|14=512|17=001|20=0|31=15|32=512|37=001|38=1024|39=1|54=1|55=PETR4.SA|150=1|151=512|10=049|
8=FIX.4.2|9=63|35=0|34=198|49=NESTITEST|52=20100506-22:46:03.362|56=QUANTTEST|10=202|
8=FIX.4.2|9=63|35=0|34=189|49=QUANTTEST|52=20100506-22:46:05.596|56=NESTITEST|10=213|
8=FIX.4.2|9=63|35=0|34=199|49=NESTITEST|52=20100506-22:47:03.497|56=QUANTTEST|10=213|
8=FIX.4.2|9=63|35=0|34=190|49=QUANTTEST|52=20100506-22:47:10.887|56=NESTITEST|10=205|
8=FIX.4.2|9=156|35=D|34=191|49=QUANTTEST|52=20100506-22:47:10.903|56=NESTITEST|11=NF000090|21=1|38=1024|40=2|44=29.81|54=2|55=PETR4.SA|59=3|60=20100506-19:47:10.887|9304=N|10=240|
8=FIX.4.2|9=170|35=8|34=200|49=NESTITEST|52=20100506-22:47:10.903|56=QUANTTEST|6=0|11=NF000090|14=512|17=001|20=0|31=29.81|32=512|37=001|38=1024|39=1|54=2|55=PETR4.SA|59=3|150=1|151=512|10=154|
8=FIX.4.2|9=63|35=5|34=192|49=QUANTTEST|52=20100506-22:47:21.901|56=NESTITEST|10=201|
8=FIX.4.2|9=63|35=5|34=201|49=NESTITEST|52=20100506-22:47:21.901|56=QUANTTEST|10=192|
8=FIX.4.2|9=75|35=A|34=193|49=QUANTTEST|52=20100506-22:47:36.681|56=NESTITEST|98=0|108=60|10=000|
8=FIX.4.2|9=75|35=A|34=202|49=NESTITEST|52=20100506-22:47:36.775|56=QUANTTEST|98=0|108=60|10=251|
8=FIX.4.2|9=147|35=D|34=194|49=QUANTTEST|52=20100506-22:48:10.600|56=NESTITEST|11=NF000092|21=1|38=512|40=2|44=20|54=1|55=PETR4.SA|60=20100506-19:48:10.600|9304=N|10=049|
8=FIX.4.2|9=161|35=8|34=203|49=NESTITEST|52=20100506-22:48:10.616|56=QUANTTEST|6=0|11=NF000092|14=256|17=001|20=0|31=20|32=256|37=001|38=512|39=1|54=1|55=PETR4.SA|150=1|151=256|10=001|
8=FIX.4.2|9=63|35=0|34=204|49=NESTITEST|52=20100506-22:49:10.829|56=QUANTTEST|10=199|
8=FIX.4.2|9=72|35=1|34=205|49=NESTITEST|52=20100506-22:49:22.859|56=QUANTTEST|112=TEST|10=225|
8=FIX.4.2|9=72|35=1|34=195|49=QUANTTEST|52=20100506-22:49:32.795|56=NESTITEST|112=TEST|10=233|
8=FIX.4.2|9=72|35=0|34=206|49=NESTITEST|52=20100506-22:49:32.811|56=QUANTTEST|112=TEST|10=214|
8=FIX.4.2|9=156|35=D|34=196|49=QUANTTEST|52=20100506-22:49:32.826|56=NESTITEST|11=NF000094|21=1|38=1024|40=2|44=29.81|54=2|55=PETR4.SA|59=3|60=20100506-19:49:32.826|9304=N|10=002|
8=FIX.4.2|9=170|35=8|34=207|49=NESTITEST|52=20100506-22:49:32.826|56=QUANTTEST|6=0|11=NF000094|14=512|17=001|20=0|31=29.81|32=512|37=001|38=1024|39=1|54=2|55=PETR4.SA|59=3|150=1|151=512|10=175|
8=FIX.4.2|9=72|35=0|34=197|49=QUANTTEST|52=20100506-22:49:32.826|56=NESTITEST|112=TEST|10=229|
8=FIX.4.2|9=63|35=0|34=208|49=NESTITEST|52=20100506-22:50:32.008|56=QUANTTEST|10=188|
8=FIX.4.2|9=63|35=0|34=198|49=QUANTTEST|52=20100506-22:50:32.008|56=NESTITEST|10=196|
8=FIX.4.2|9=141|35=D|34=199|49=QUANTTEST|52=20100506-22:50:58.990|56=NESTITEST|11=NF000096|21=1|38=512|40=1|54=1|55=PETR4.SA|60=20100506-19:50:58.990|9304=N|10=077|
8=FIX.4.2|9=163|35=8|34=209|49=NESTITEST|52=20100506-22:50:58.990|56=QUANTTEST|6=0|11=NF000096|14=256|17=001|20=0|31=66.6|32=256|37=001|38=512|39=1|54=1|55=PETR4.SA|150=1|151=256|10=133|
8=FIX.4.2|9=63|35=5|34=200|49=QUANTTEST|52=20100506-22:51:27.706|56=NESTITEST|10=195|
8=FIX.4.2|9=63|35=5|34=210|49=NESTITEST|52=20100506-22:51:27.706|56=QUANTTEST|10=196|
8=FIX.4.2|9=75|35=A|34=201|49=QUANTTEST|52=20100506-22:57:49.107|56=NESTITEST|98=0|108=60|10=244|
8=FIX.4.2|9=75|35=A|34=211|49=NESTITEST|52=20100506-22:57:49.201|56=QUANTTEST|98=0|108=60|10=240|
8=FIX.4.2|9=147|35=D|34=202|49=QUANTTEST|52=20100506-22:58:16.354|56=NESTITEST|11=NF000098|21=1|38=512|40=2|44=20|54=1|55=PETR4.SA|60=20100506-19:58:16.339|9304=N|10=074|
8=FIX.4.2|9=161|35=8|34=212|49=NESTITEST|52=20100506-22:58:16.370|56=QUANTTEST|6=0|11=NF000098|14=256|17=001|20=0|31=20|32=256|37=001|38=512|39=1|54=1|55=PETR4.SA|150=1|151=256|10=011|
8=FIX.4.2|9=72|35=1|34=213|49=NESTITEST|52=20100506-23:00:28.138|56=QUANTTEST|112=TEST|10=208|
8=FIX.4.2|9=63|35=0|34=203|49=QUANTTEST|52=20100506-22:59:16.427|56=NESTITEST|10=199|
8=FIX.4.2|9=72|35=1|34=204|49=QUANTTEST|52=20100506-22:59:28.457|56=NESTITEST|112=TEST|10=225|
8=FIX.4.2|9=72|35=0|34=214|49=NESTITEST|52=20100506-23:00:28.138|56=QUANTTEST|112=TEST|10=208|
8=FIX.4.2|9=72|35=0|34=205|49=QUANTTEST|52=20100506-23:00:28.138|56=NESTITEST|112=TEST|10=208|
8=FIX.4.2|9=156|35=D|34=206|49=QUANTTEST|52=20100506-23:01:19.165|56=NESTITEST|11=NF000100|21=1|38=1024|40=2|44=29.81|54=2|55=PETR4.SA|59=3|60=20100506-20:01:19.165|9304=N|10=209|
8=FIX.4.2|9=170|35=8|34=215|49=NESTITEST|52=20100506-23:01:25.930|56=QUANTTEST|6=0|11=NF000100|14=512|17=001|20=0|31=29.81|32=512|37=001|38=1024|39=1|54=2|55=PETR4.SA|59=3|150=1|151=512|10=149|
8=FIX.4.2|9=162|35=8|34=216|49=NESTITEST|52=20100506-23:01:50.052|56=QUANTTEST|6=0|11=NF000100|14=512|17=001|20=0|31=0|32=0|37=001|38=1024|39=4|54=2|55=PETR4.SA|59=3|150=4|151=0|10=244|
8=FIX.4.2|9=63|35=0|34=207|49=QUANTTEST|52=20100506-23:02:21.112|56=NESTITEST|10=179|
8=FIX.4.2|9=63|35=0|34=217|49=NESTITEST|52=20100506-23:02:50.047|56=QUANTTEST|10=189|
8=FIX.4.2|9=63|35=0|34=208|49=QUANTTEST|52=20100506-23:03:21.778|56=NESTITEST|10=199|
8=FIX.4.2|9=155|35=D|34=209|49=QUANTTEST|52=20100506-23:03:41.104|56=NESTITEST|11=NF000101|21=1|38=512|40=2|44=29.81|54=2|55=PETR4.SA|59=3|60=20100506-20:03:41.104|9304=N|10=145|
8=FIX.4.2|9=169|35=8|34=218|49=NESTITEST|52=20100506-23:03:53.259|56=QUANTTEST|6=0|11=NF000101|14=256|17=001|20=0|31=29.81|32=256|37=001|38=512|39=1|54=2|55=PETR4.SA|59=3|150=1|151=256|10=136|
8=FIX.4.2|9=161|35=8|34=219|49=NESTITEST|52=20100506-23:03:53.259|56=QUANTTEST|6=0|11=NF000101|14=256|17=001|20=0|31=0|32=0|37=001|38=512|39=4|54=2|55=PETR4.SA|59=3|150=4|151=0|10=219|
8=FIX.4.2|9=155|35=D|34=210|49=QUANTTEST|52=20100506-23:04:01.259|56=NESTITEST|11=NF000102|21=1|38=256|40=2|44=29.81|54=2|55=PETR4.SA|59=3|60=20100506-20:04:01.259|9304=N|10=159|
8=FIX.4.2|9=169|35=8|34=220|49=NESTITEST|52=20100506-23:04:01.259|56=QUANTTEST|6=0|11=NF000102|14=128|17=001|20=0|31=29.81|32=128|37=001|38=256|39=1|54=2|55=PETR4.SA|59=3|150=1|151=128|10=123|
8=FIX.4.2|9=161|35=8|34=221|49=NESTITEST|52=20100506-23:04:01.259|56=QUANTTEST|6=0|11=NF000102|14=128|17=001|20=0|31=0|32=0|37=001|38=256|39=4|54=2|55=PETR4.SA|59=3|150=4|151=0|10=210|
8=FIX.4.2|9=155|35=D|34=211|49=QUANTTEST|52=20100506-23:04:03.196|56=NESTITEST|11=NF000103|21=1|38=128|40=2|44=29.81|54=2|55=PETR4.SA|59=3|60=20100506-20:04:03.196|9304=N|10=163|
8=FIX.4.2|9=166|35=8|34=222|49=NESTITEST|52=20100506-23:04:03.212|56=QUANTTEST|6=0|11=NF000103|14=64|17=001|20=0|31=29.81|32=64|37=001|38=128|39=1|54=2|55=PETR4.SA|59=3|150=1|151=64|10=221|
8=FIX.4.2|9=160|35=8|34=223|49=NESTITEST|52=20100506-23:04:03.212|56=QUANTTEST|6=0|11=NF000103|14=64|17=001|20=0|31=0|32=0|37=001|38=128|39=4|54=2|55=PETR4.SA|59=3|150=4|151=0|10=152|
8=FIX.4.2|9=154|35=D|34=212|49=QUANTTEST|52=20100506-23:04:03.993|56=NESTITEST|11=NF000104|21=1|38=64|40=2|44=29.81|54=2|55=PETR4.SA|59=3|60=20100506-20:04:03.993|9304=N|10=125|
8=FIX.4.2|9=165|35=8|34=224|49=NESTITEST|52=20100506-23:04:03.993|56=QUANTTEST|6=0|11=NF000104|14=32|17=001|20=0|31=29.81|32=32|37=001|38=64|39=1|54=2|55=PETR4.SA|59=3|150=1|151=32|10=175|
8=FIX.4.2|9=159|35=8|34=225|49=NESTITEST|52=20100506-23:04:03.993|56=QUANTTEST|6=0|11=NF000104|14=32|17=001|20=0|31=0|32=0|37=001|38=64|39=4|54=2|55=PETR4.SA|59=3|150=4|151=0|10=125|
8=FIX.4.2|9=154|35=D|34=213|49=QUANTTEST|52=20100506-23:04:04.649|56=NESTITEST|11=NF000105|21=1|38=32|40=2|44=29.81|54=2|55=PETR4.SA|59=3|60=20100506-20:04:04.649|9304=N|10=120|
8=FIX.4.2|9=165|35=8|34=226|49=NESTITEST|52=20100506-23:04:04.649|56=QUANTTEST|6=0|11=NF000105|14=16|17=001|20=0|31=29.81|32=16|37=001|38=32|39=1|54=2|55=PETR4.SA|59=3|150=1|151=16|10=178|
8=FIX.4.2|9=159|35=8|34=227|49=NESTITEST|52=20100506-23:04:04.649|56=QUANTTEST|6=0|11=NF000105|14=16|17=001|20=0|31=0|32=0|37=001|38=32|39=4|54=2|55=PETR4.SA|59=3|150=4|151=0|10=124|
8=FIX.4.2|9=154|35=D|34=214|49=QUANTTEST|52=20100506-23:04:05.321|56=NESTITEST|11=NF000106|21=1|38=16|40=2|44=29.81|54=2|55=PETR4.SA|59=3|60=20100506-20:04:05.321|9304=N|10=100|
8=FIX.4.2|9=162|35=8|34=228|49=NESTITEST|52=20100506-23:04:05.321|56=QUANTTEST|6=0|11=NF000106|14=8|17=001|20=0|31=29.81|32=8|37=001|38=16|39=1|54=2|55=PETR4.SA|59=3|150=1|151=8|10=027|
8=FIX.4.2|9=158|35=8|34=229|49=NESTITEST|52=20100506-23:04:05.321|56=QUANTTEST|6=0|11=NF000106|14=8|17=001|20=0|31=0|32=0|37=001|38=16|39=4|54=2|55=PETR4.SA|59=3|150=4|151=0|10=069|
8=FIX.4.2|9=153|35=D|34=215|49=QUANTTEST|52=20100506-23:04:06.571|56=NESTITEST|11=NF000107|21=1|38=8|40=2|44=29.81|54=2|55=PETR4.SA|59=3|60=20100506-20:04:06.571|9304=N|10=070|
8=FIX.4.2|9=161|35=8|34=230|49=NESTITEST|52=20100506-23:04:06.571|56=QUANTTEST|6=0|11=NF000107|14=4|17=001|20=0|31=29.81|32=4|37=001|38=8|39=1|54=2|55=PETR4.SA|59=3|150=1|151=4|10=225|
8=FIX.4.2|9=157|35=8|34=231|49=NESTITEST|52=20100506-23:04:06.571|56=QUANTTEST|6=0|11=NF000107|14=4|17=001|20=0|31=0|32=0|37=001|38=8|39=4|54=2|55=PETR4.SA|59=3|150=4|151=0|10=019|
8=FIX.4.2|9=153|35=D|34=216|49=QUANTTEST|52=20100506-23:04:07.149|56=NESTITEST|11=NF000108|21=1|38=4|40=2|44=29.81|54=2|55=PETR4.SA|59=3|60=20100506-20:04:07.149|9304=N|10=072|
8=FIX.4.2|9=161|35=8|34=232|49=NESTITEST|52=20100506-23:04:07.164|56=QUANTTEST|6=0|11=NF000108|14=2|17=001|20=0|31=29.81|32=2|37=001|38=4|39=1|54=2|55=PETR4.SA|59=3|150=1|151=2|10=217|
8=FIX.4.2|9=157|35=8|34=233|49=NESTITEST|52=20100506-23:04:07.164|56=QUANTTEST|6=0|11=NF000108|14=2|17=001|20=0|31=0|32=0|37=001|38=4|39=4|54=2|55=PETR4.SA|59=3|150=4|151=0|10=015|
8=FIX.4.2|9=153|35=D|34=217|49=QUANTTEST|52=20100506-23:04:07.789|56=NESTITEST|11=NF000109|21=1|38=2|40=2|44=29.81|54=2|55=PETR4.SA|59=3|60=20100506-20:04:07.789|9304=N|10=092|
8=FIX.4.2|9=161|35=8|34=234|49=NESTITEST|52=20100506-23:04:07.789|56=QUANTTEST|6=0|11=NF000109|14=1|17=001|20=0|31=29.81|32=1|37=001|38=2|39=1|54=2|55=PETR4.SA|59=3|150=1|151=1|10=228|
8=FIX.4.2|9=157|35=8|34=235|49=NESTITEST|52=20100506-23:04:07.789|56=QUANTTEST|6=0|11=NF000109|14=1|17=001|20=0|31=0|32=0|37=001|38=2|39=4|54=2|55=PETR4.SA|59=3|150=4|151=0|10=028|
8=FIX.4.2|9=153|35=D|34=218|49=QUANTTEST|52=20100506-23:04:08.711|56=NESTITEST|11=NF000110|21=1|38=1|40=2|44=29.81|54=2|55=PETR4.SA|59=3|60=20100506-20:04:08.711|9304=N|10=056|
8=FIX.4.2|9=165|35=8|34=236|49=NESTITEST|52=20100506-23:04:08.711|56=QUANTTEST|6=0|11=NF000110|14=0|17=001|20=0|31=29.81|32=0.5|37=001|38=1|39=1|54=2|55=PETR4.SA|59=3|150=1|151=0.5|10=150|
8=FIX.4.2|9=157|35=8|34=237|49=NESTITEST|52=20100506-23:04:08.711|56=QUANTTEST|6=0|11=NF000110|14=0|17=001|20=0|31=0|32=0|37=001|38=1|39=4|54=2|55=PETR4.SA|59=3|150=4|151=0|10=006|
8=FIX.4.2|9=153|35=D|34=219|49=QUANTTEST|52=20100506-23:04:09.680|56=NESTITEST|11=NF000111|21=1|38=1|40=2|44=29.81|54=2|55=PETR4.SA|59=3|60=20100506-20:04:09.680|9304=N|10=070|
8=FIX.4.2|9=165|35=8|34=238|49=NESTITEST|52=20100506-23:04:09.680|56=QUANTTEST|6=0|11=NF000111|14=0|17=001|20=0|31=29.81|32=0.5|37=001|38=1|39=1|54=2|55=PETR4.SA|59=3|150=1|151=0.5|10=159|
8=FIX.4.2|9=157|35=8|34=239|49=NESTITEST|52=20100506-23:04:09.680|56=QUANTTEST|6=0|11=NF000111|14=0|17=001|20=0|31=0|32=0|37=001|38=1|39=4|54=2|55=PETR4.SA|59=3|150=4|151=0|10=015|
8=FIX.4.2|9=153|35=D|34=220|49=QUANTTEST|52=20100506-23:04:10.508|56=NESTITEST|11=NF000112|21=1|38=1|40=2|44=29.81|54=2|55=PETR4.SA|59=3|60=20100506-20:04:10.508|9304=N|10=045|
8=FIX.4.2|9=165|35=8|34=240|49=NESTITEST|52=20100506-23:04:10.523|56=QUANTTEST|6=0|11=NF000112|14=0|17=001|20=0|31=29.81|32=0.5|37=001|38=1|39=1|54=2|55=PETR4.SA|59=3|150=1|151=0.5|10=141|
8=FIX.4.2|9=157|35=8|34=241|49=NESTITEST|52=20100506-23:04:10.523|56=QUANTTEST|6=0|11=NF000112|14=0|17=001|20=0|31=0|32=0|37=001|38=1|39=4|54=2|55=PETR4.SA|59=3|150=4|151=0|10=253|
8=FIX.4.2|9=153|35=D|34=221|49=QUANTTEST|52=20100506-23:04:11.320|56=NESTITEST|11=NF000113|21=1|38=1|40=2|44=29.81|54=2|55=PETR4.SA|59=3|60=20100506-20:04:11.320|9304=N|10=033|
8=FIX.4.2|9=165|35=8|34=242|49=NESTITEST|52=20100506-23:04:11.336|56=QUANTTEST|6=0|11=NF000113|14=0|17=001|20=0|31=29.81|32=0.5|37=001|38=1|39=1|54=2|55=PETR4.SA|59=3|150=1|151=0.5|10=147|
8=FIX.4.2|9=157|35=8|34=243|49=NESTITEST|52=20100506-23:04:11.336|56=QUANTTEST|6=0|11=NF000113|14=0|17=001|20=0|31=0|32=0|37=001|38=1|39=4|54=2|55=PETR4.SA|59=3|150=4|151=0|10=003|
8=FIX.4.2|9=153|35=D|34=222|49=QUANTTEST|52=20100506-23:05:00.019|56=NESTITEST|11=NF000114|21=1|38=1|40=2|44=29.81|54=2|55=PETR4.SA|59=3|60=20100506-20:05:00.019|9304=N|10=043|
8=FIX.4.2|9=161|35=8|34=244|49=NESTITEST|52=20100506-23:10:32.362|56=QUANTTEST|6=0|11=NF000114|14=1|17=001|20=0|31=29.81|32=1|37=001|38=1|39=1|54=2|55=PETR4.SA|59=3|150=1|151=0|10=205|
8=FIX.4.2|9=157|35=8|34=245|49=NESTITEST|52=20100506-23:10:52.922|56=QUANTTEST|6=0|11=NF000114|14=0|17=001|20=0|31=0|32=0|37=001|38=1|39=4|54=2|55=PETR4.SA|59=3|150=4|151=0|10=009|
8=FIX.4.2|9=75|35=A|34=225|49=QUANTTEST|52=20100506-23:07:28.333|56=NESTITEST|98=0|108=60|10=244|
8=FIX.4.2|9=75|35=A|34=246|49=NESTITEST|52=20100506-23:10:56.234|56=QUANTTEST|98=0|108=60|10=242|
8=FIX.4.2|9=74|35=2|34=247|49=NESTITEST|52=20100506-23:10:56.250|56=QUANTTEST|7=223|16=0|10=166|
8=FIX.4.2|9=75|35=A|34=227|49=QUANTTEST|52=20100506-23:08:28.467|56=NESTITEST|98=0|108=60|10=255|
8=FIX.4.2|9=75|35=A|34=248|49=NESTITEST|52=20100506-23:10:56.250|56=QUANTTEST|98=0|108=60|10=242|
8=FIX.4.2|9=74|35=2|34=249|49=NESTITEST|52=20100506-23:10:56.250|56=QUANTTEST|7=223|16=0|10=168|
8=FIX.4.2|9=75|35=A|34=229|49=QUANTTEST|52=20100506-23:09:28.618|56=NESTITEST|98=0|108=60|10=000|
8=FIX.4.2|9=75|35=A|34=250|49=NESTITEST|52=20100506-23:10:56.266|56=QUANTTEST|98=0|108=60|10=242|
8=FIX.4.2|9=74|35=2|34=251|49=NESTITEST|52=20100506-23:10:56.266|56=QUANTTEST|7=223|16=0|10=168|
8=FIX.4.2|9=75|35=A|34=231|49=QUANTTEST|52=20100506-23:10:28.753|56=NESTITEST|98=0|108=60|10=241|
8=FIX.4.2|9=75|35=A|34=252|49=NESTITEST|52=20100506-23:10:56.266|56=QUANTTEST|98=0|108=60|10=244|
8=FIX.4.2|9=74|35=2|34=253|49=NESTITEST|52=20100506-23:10:56.266|56=QUANTTEST|7=223|16=0|10=170|
8=FIX.4.2|9=75|35=A|34=232|49=QUANTTEST|52=20100506-23:10:58.812|56=NESTITEST|98=0|108=60|10=241|
8=FIX.4.2|9=75|35=A|34=254|49=NESTITEST|52=20100506-23:10:58.812|56=QUANTTEST|98=0|108=60|10=245|
8=FIX.4.2|9=74|35=2|34=255|49=NESTITEST|52=20100506-23:10:58.812|56=QUANTTEST|7=223|16=0|10=171|
8=FIX.4.2|9=74|35=2|34=233|49=QUANTTEST|52=20100506-23:10:58.812|56=NESTITEST|7=244|16=0|10=170|
8=FIX.4.2|9=192|35=8|34=244|43=Y|49=NESTITEST|52=20100506-23:10:58.828|56=QUANTTEST|122=20100506-23:10:32.362|6=0|11=NF000114|14=1|17=001|20=0|31=29.81|32=1|37=001|38=1|39=1|54=2|55=PETR4.SA|59=3|150=1|151=0|10=212|
8=FIX.4.2|9=188|35=8|34=245|43=Y|49=NESTITEST|52=20100506-23:10:58.828|56=QUANTTEST|122=20100506-23:10:52.922|6=0|11=NF000114|14=0|17=001|20=0|31=0|32=0|37=001|38=1|39=4|54=2|55=PETR4.SA|59=3|150=4|151=0|10=016|
8=FIX.4.2|9=107|35=4|34=246|43=Y|49=NESTITEST|52=20100506-23:10:58.828|56=QUANTTEST|122=20100506-23:10:58.828|36=256|123=Y|10=116|
8=FIX.4.2|9=107|35=4|34=223|43=Y|49=QUANTTEST|52=20100506-23:10:58.828|56=NESTITEST|122=20100506-23:10:58.828|36=234|123=Y|10=107|
8=FIX.4.2|9=75|35=A|34=234|49=QUANTTEST|52=20100506-23:12:06.603|56=NESTITEST|98=0|108=60|10=236|
8=FIX.4.2|9=75|35=A|34=256|49=NESTITEST|52=20100506-23:12:06.712|56=QUANTTEST|98=0|108=60|10=241|
8=FIX.4.2|9=147|35=D|34=235|49=QUANTTEST|52=20100506-23:12:30.897|56=NESTITEST|11=NF000116|21=1|38=512|40=2|44=20|54=1|55=PETR4.SA|60=20100506-20:12:30.882|9304=N|10=051|
8=FIX.4.2|9=161|35=8|34=257|49=NESTITEST|52=20100506-23:12:32.881|56=QUANTTEST|6=0|11=NF000116|14=256|17=001|20=0|31=20|32=256|37=001|38=512|39=1|54=1|55=PETR4.SA|150=1|151=256|10=007|
8=FIX.4.2|9=156|35=D|34=236|49=QUANTTEST|52=20100506-23:12:48.146|56=NESTITEST|11=NF000118|21=1|38=1024|40=2|44=29.81|54=2|55=PETR4.SA|59=3|60=20100506-20:12:48.146|9304=N|10=227|
8=FIX.4.2|9=170|35=8|34=258|49=NESTITEST|52=20100506-23:12:50.145|56=QUANTTEST|6=0|11=NF000118|14=512|17=001|20=0|31=29.81|32=512|37=001|38=1024|39=1|54=2|55=PETR4.SA|59=3|150=1|151=512|10=163|
8=FIX.4.2|9=162|35=8|34=259|49=NESTITEST|52=20100506-23:12:50.145|56=QUANTTEST|6=0|11=NF000118|14=512|17=001|20=0|31=0|32=0|37=001|38=1024|39=4|54=2|55=PETR4.SA|59=3|150=4|151=0|10=009|
8=FIX.4.2|9=155|35=D|34=237|49=QUANTTEST|52=20100506-23:12:59.660|56=NESTITEST|11=NF000119|21=1|38=512|40=2|44=29.81|54=2|55=PETR4.SA|59=3|60=20100506-20:12:59.660|9304=N|10=187|
8=FIX.4.2|9=169|35=8|34=260|49=NESTITEST|52=20100506-23:13:01.097|56=QUANTTEST|6=0|11=NF000119|14=256|17=001|20=0|31=29.81|32=256|37=001|38=512|39=1|54=2|55=PETR4.SA|59=3|150=1|151=256|10=136|
8=FIX.4.2|9=161|35=8|34=261|49=NESTITEST|52=20100506-23:13:01.113|56=QUANTTEST|6=0|11=NF000119|14=256|17=001|20=0|31=0|32=0|37=001|38=512|39=4|54=2|55=PETR4.SA|59=3|150=4|151=0|10=208|
8=FIX.4.2|9=155|35=D|34=238|49=QUANTTEST|52=20100506-23:13:03.644|56=NESTITEST|11=NF000120|21=1|38=256|40=2|44=29.81|54=2|55=PETR4.SA|59=3|60=20100506-20:13:03.644|9304=N|10=169|
8=FIX.4.2|9=169|35=8|34=262|49=NESTITEST|52=20100506-23:13:04.207|56=QUANTTEST|6=0|11=NF000120|14=128|17=001|20=0|31=29.81|32=128|37=001|38=256|39=1|54=2|55=PETR4.SA|59=3|150=1|151=128|10=125|
8=FIX.4.2|9=161|35=8|34=263|49=NESTITEST|52=20100506-23:13:04.207|56=QUANTTEST|6=0|11=NF000120|14=128|17=001|20=0|31=0|32=0|37=001|38=256|39=4|54=2|55=PETR4.SA|59=3|150=4|151=0|10=212|
8=FIX.4.2|9=155|35=D|34=239|49=QUANTTEST|52=20100506-23:13:12.253|56=NESTITEST|11=NF000121|21=1|38=128|40=2|44=29.81|54=2|55=PETR4.SA|59=3|60=20100506-20:13:12.253|9304=N|10=161|
8=FIX.4.2|9=166|35=8|34=264|49=NESTITEST|52=20100506-23:13:12.268|56=QUANTTEST|6=0|11=NF000121|14=64|17=001|20=0|31=29.81|32=64|37=001|38=128|39=1|54=2|55=PETR4.SA|59=3|150=1|151=64|10=238|
8=FIX.4.2|9=160|35=8|34=265|49=NESTITEST|52=20100506-23:13:12.268|56=QUANTTEST|6=0|11=NF000121|14=64|17=001|20=0|31=0|32=0|37=001|38=128|39=4|54=2|55=PETR4.SA|59=3|150=4|151=0|10=169|
8=FIX.4.2|9=154|35=D|34=240|49=QUANTTEST|52=20100506-23:13:14.799|56=NESTITEST|11=NF000122|21=1|38=64|40=2|44=29.81|54=2|55=PETR4.SA|59=3|60=20100506-20:13:14.799|9304=N|10=138|
8=FIX.4.2|9=165|35=8|34=266|49=NESTITEST|52=20100506-23:13:14.799|56=QUANTTEST|6=0|11=NF000122|14=32|17=001|20=0|31=29.81|32=32|37=001|38=64|39=1|54=2|55=PETR4.SA|59=3|150=1|151=32|10=187|
8=FIX.4.2|9=159|35=8|34=267|49=NESTITEST|52=20100506-23:13:14.799|56=QUANTTEST|6=0|11=NF000122|14=32|17=001|20=0|31=0|32=0|37=001|38=64|39=4|54=2|55=PETR4.SA|59=3|150=4|151=0|10=137|
8=FIX.4.2|9=154|35=D|34=241|49=QUANTTEST|52=20100506-23:13:15.830|56=NESTITEST|11=NF000123|21=1|38=32|40=2|44=29.81|54=2|55=PETR4.SA|59=3|60=20100506-20:13:15.830|9304=N|10=109|
8=FIX.4.2|9=165|35=8|34=268|49=NESTITEST|52=20100506-23:13:15.846|56=QUANTTEST|6=0|11=NF000123|14=16|17=001|20=0|31=29.81|32=16|37=001|38=32|39=1|54=2|55=PETR4.SA|59=3|150=1|151=16|10=185|
8=FIX.4.2|9=159|35=8|34=269|49=NESTITEST|52=20100506-23:13:15.846|56=QUANTTEST|6=0|11=NF000123|14=16|17=001|20=0|31=0|32=0|37=001|38=32|39=4|54=2|55=PETR4.SA|59=3|150=4|151=0|10=131|
8=FIX.4.2|9=154|35=D|34=242|49=QUANTTEST|52=20100506-23:13:16.783|56=NESTITEST|11=NF000124|21=1|38=16|40=2|44=29.81|54=2|55=PETR4.SA|59=3|60=20100506-20:13:16.783|9304=N|10=129|
8=FIX.4.2|9=162|35=8|34=270|49=NESTITEST|52=20100506-23:13:16.783|56=QUANTTEST|6=0|11=NF000124|14=8|17=001|20=0|31=29.81|32=8|37=001|38=16|39=1|54=2|55=PETR4.SA|59=3|150=1|151=8|10=038|
8=FIX.4.2|9=158|35=8|34=271|49=NESTITEST|52=20100506-23:13:16.783|56=QUANTTEST|6=0|11=NF000124|14=8|17=001|20=0|31=0|32=0|37=001|38=16|39=4|54=2|55=PETR4.SA|59=3|150=4|151=0|10=080|
8=FIX.4.2|9=153|35=D|34=243|49=QUANTTEST|52=20100506-23:13:17.533|56=NESTITEST|11=NF000125|21=1|38=8|40=2|44=29.81|54=2|55=PETR4.SA|59=3|60=20100506-20:13:17.533|9304=N|10=071|
8=FIX.4.2|9=161|35=8|34=272|49=NESTITEST|52=20100506-23:13:17.533|56=QUANTTEST|6=0|11=NF000125|14=4|17=001|20=0|31=29.81|32=4|37=001|38=8|39=1|54=2|55=PETR4.SA|59=3|150=1|151=4|10=231|
8=FIX.4.2|9=157|35=8|34=273|49=NESTITEST|52=20100506-23:13:17.533|56=QUANTTEST|6=0|11=NF000125|14=4|17=001|20=0|31=0|32=0|37=001|38=8|39=4|54=2|55=PETR4.SA|59=3|150=4|151=0|10=025|
8=FIX.4.2|9=153|35=D|34=244|49=QUANTTEST|52=20100506-23:13:18.299|56=NESTITEST|11=NF000126|21=1|38=4|40=2|44=29.81|54=2|55=PETR4.SA|59=3|60=20100506-20:13:18.299|9304=N|10=089|
8=FIX.4.2|9=161|35=8|34=274|49=NESTITEST|52=20100506-23:13:18.299|56=QUANTTEST|6=0|11=NF000126|14=2|17=001|20=0|31=29.81|32=2|37=001|38=4|39=1|54=2|55=PETR4.SA|59=3|150=1|151=2|10=234|
8=FIX.4.2|9=157|35=8|34=275|49=NESTITEST|52=20100506-23:13:18.315|56=QUANTTEST|6=0|11=NF000126|14=2|17=001|20=0|31=0|32=0|37=001|38=4|39=4|54=2|55=PETR4.SA|59=3|150=4|151=0|10=021|
8=FIX.4.2|9=153|35=D|34=245|49=QUANTTEST|52=20100506-23:13:19.049|56=NESTITEST|11=NF000127|21=1|38=2|40=2|44=29.81|54=2|55=PETR4.SA|59=3|60=20100506-20:13:19.049|9304=N|10=077|
8=FIX.4.2|9=161|35=8|34=276|49=NESTITEST|52=20100506-23:13:19.049|56=QUANTTEST|6=0|11=NF000127|14=1|17=001|20=0|31=29.81|32=1|37=001|38=2|39=1|54=2|55=PETR4.SA|59=3|150=1|151=1|10=226|
8=FIX.4.2|9=157|35=8|34=277|49=NESTITEST|52=20100506-23:13:19.064|56=QUANTTEST|6=0|11=NF000127|14=1|17=001|20=0|31=0|32=0|37=001|38=2|39=4|54=2|55=PETR4.SA|59=3|150=4|151=0|10=023|
8=FIX.4.2|9=153|35=D|34=246|49=QUANTTEST|52=20100506-23:13:19.939|56=NESTITEST|11=NF000128|21=1|38=1|40=2|44=29.81|54=2|55=PETR4.SA|59=3|60=20100506-20:13:19.939|9304=N|10=094|
8=FIX.4.2|9=161|35=8|34=278|49=NESTITEST|52=20100506-23:13:19.939|56=QUANTTEST|6=0|11=NF000128|14=1|17=001|20=0|31=29.81|32=1|37=001|38=1|39=1|54=2|55=PETR4.SA|59=3|150=1|151=0|10=235|
8=FIX.4.2|9=157|35=8|34=279|49=NESTITEST|52=20100506-23:13:19.939|56=QUANTTEST|6=0|11=NF000128|14=1|17=001|20=0|31=0|32=0|37=001|38=1|39=4|54=2|55=PETR4.SA|59=3|150=4|151=0|10=036|
8=FIX.4.2|9=63|35=0|34=247|49=QUANTTEST|52=20100506-23:14:19.215|56=NESTITEST|10=197|
8=FIX.4.2|9=63|35=0|34=280|49=NESTITEST|52=20100506-23:14:19.215|56=QUANTTEST|10=194|
8=FIX.4.2|9=142|35=D|34=248|49=QUANTTEST|52=20100506-23:15:01.758|56=NESTITEST|11=NF000130|21=1|38=1024|40=1|54=1|55=VALE5.SA|60=20100506-20:15:01.758|9304=N|10=066|
8=FIX.4.2|9=164|35=8|34=281|49=NESTITEST|52=20100506-23:15:01.758|56=QUANTTEST|6=0|11=NF000130|14=512|17=001|20=0|31=66.6|32=512|37=001|38=1024|39=1|54=1|55=VALE5.SA|150=1|151=512|10=129|
8=FIX.4.2|9=63|35=0|34=282|49=NESTITEST|52=20100506-23:16:01.643|56=QUANTTEST|10=194|
8=FIX.4.2|9=63|35=0|34=249|49=QUANTTEST|52=20100506-23:16:07.095|56=NESTITEST|10=204|
8=FIX.4.2|9=63|35=0|34=283|49=NESTITEST|52=20100506-23:17:01.777|56=QUANTTEST|10=204|
8=FIX.4.2|9=72|35=1|34=284|49=NESTITEST|52=20100506-23:17:19.823|56=QUANTTEST|112=TEST|10=225|
8=FIX.4.2|9=72|35=1|34=250|49=QUANTTEST|52=20100506-23:18:04.678|56=NESTITEST|112=TEST|10=221|
8=FIX.4.2|9=72|35=0|34=285|49=NESTITEST|52=20100506-23:18:04.678|56=QUANTTEST|112=TEST|10=228|
8=FIX.4.2|9=72|35=0|34=251|49=QUANTTEST|52=20100506-23:18:06.849|56=NESTITEST|112=TEST|10=223|
8=FIX.4.2|9=63|35=5|34=252|49=QUANTTEST|52=20100506-23:18:47.720|56=NESTITEST|10=204|
8=FIX.4.2|9=63|35=5|34=286|49=NESTITEST|52=20100506-23:18:47.720|56=QUANTTEST|10=211|
8=FIX.4.2|9=75|35=A|34=253|49=QUANTTEST|52=20100506-23:36:23.322|56=NESTITEST|98=0|108=60|10=240|
8=FIX.4.2|9=75|35=A|34=287|49=NESTITEST|52=20100506-23:36:23.353|56=QUANTTEST|98=0|108=60|10=251|
8=FIX.4.2|9=142|35=D|34=254|49=QUANTTEST|52=20100506-23:36:57.991|56=NESTITEST|11=NF000133|21=1|38=1024|40=1|54=1|55=PETR4.SA|60=20100506-20:36:57.975|9304=N|10=112|
8=FIX.4.2|9=164|35=8|34=288|49=NESTITEST|52=20100506-23:36:57.991|56=QUANTTEST|6=0|11=NF000133|14=512|17=001|20=0|31=66.6|32=512|37=001|38=1024|39=1|54=1|55=PETR4.SA|150=1|151=512|10=170|
8=FIX.4.2|9=133|35=F|34=255|49=QUANTTEST|52=20100506-23:37:48.267|56=NESTITEST|11=NF000135|38=1024|41=NF000133|54=1|55=PETR4.SA|60=20100506-20:37:48|10=253|
8=FIX.4.2|9=157|35=8|34=289|49=NESTITEST|52=20100506-23:37:48.283|56=QUANTTEST|6=0|11=NF000135|14=512|17=001|20=0|31=0|32=0|37=001|38=1024|39=4|54=1|55=PETR4.SA|150=4|151=0|10=064|
8=FIX.4.2|9=141|35=D|34=256|49=QUANTTEST|52=20100506-23:38:23.779|56=NESTITEST|11=NF000136|21=1|38=256|40=1|54=1|55=PETR4.SA|60=20100506-20:38:23.779|9304=N|10=070|
8=FIX.4.2|9=163|35=8|34=290|49=NESTITEST|52=20100506-23:38:23.779|56=QUANTTEST|6=0|11=NF000136|14=128|17=001|20=0|31=66.6|32=128|37=001|38=256|39=1|54=1|55=PETR4.SA|150=1|151=128|10=131|
8=FIX.4.2|9=63|35=5|34=257|49=QUANTTEST|52=20100506-23:38:58.589|56=NESTITEST|10=226|
8=FIX.4.2|9=63|35=5|34=291|49=NESTITEST|52=20100506-23:38:58.589|56=QUANTTEST|10=224|
8=FIX.4.2|9=75|35=A|34=258|49=QUANTTEST|52=20100506-23:39:04.697|56=NESTITEST|98=0|108=60|10=006|
8=FIX.4.2|9=75|35=A|34=292|49=NESTITEST|52=20100506-23:39:04.744|56=QUANTTEST|98=0|108=60|10=253|
8=FIX.4.2|9=142|35=D|34=259|49=QUANTTEST|52=20100506-23:39:52.552|56=NESTITEST|11=NF000138|21=1|38=1024|40=1|54=1|55=PETR4.SA|60=20100506-20:39:52.536|9304=N|10=104|
