8=FIX.4.2|9=70|35=A|34=1|49=JERICHO|52=20111114-19:21:33.961|56=NESTTEST|98=0|108=60|10=122|
8=FIX.4.2|9=70|35=A|34=1|49=NESTTEST|52=20111114-19:21:34.008|56=JERICHO|98=0|108=60|10=115|
8=FIX.4.2|9=70|35=A|34=2|49=JERICHO|52=20111114-19:26:29.974|56=NESTTEST|98=0|108=60|10=137|
8=FIX.4.2|9=70|35=A|34=2|49=NESTTEST|52=20111114-19:26:30.021|56=JERICHO|98=0|108=60|10=112|
8=FIX.4.2|9=58|35=0|34=3|49=NESTTEST|52=20111114-19:27:30.708|56=JERICHO|10=087|
8=FIX.4.2|9=58|35=0|34=3|49=JERICHO|52=20111114-19:27:30.052|56=NESTTEST|10=079|
8=FIX.4.2|9=58|35=0|34=4|49=NESTTEST|52=20111114-19:28:30.724|56=JERICHO|10=087|
8=FIX.4.2|9=58|35=0|34=4|49=JERICHO|52=20111114-19:28:35.364|56=NESTTEST|10=092|
8=FIX.4.2|9=169|35=D|34=5|49=JERICHO|52=20111114-19:28:55.380|56=NESTTEST|11=JRCH000001|21=1|38=100|40=2|44=0.01|54=1|55=PETR4|60=20111114-17:27:17|9304=N|9305=13|9306=1|9307=18|9308=N|10=179|
8=FIX.4.2|9=155|35=8|34=5|49=NESTTEST|52=20111114-19:30:51.457|56=JERICHO|6=0|11=JRCH000001|14=100|17=001|20=0|31=0.01|32=100|37=001|38=100|39=2|54=1|55=PETR4|150=1|151=0|10=049|
8=FIX.4.2|9=67|35=1|34=6|49=NESTTEST|52=20111114-19:30:57.348|56=JERICHO|112=TEST|10=112|
8=FIX.4.2|9=67|35=1|34=6|49=JERICHO|52=20111114-19:30:42.910|56=NESTTEST|112=TEST|10=101|
8=FIX.4.2|9=67|35=0|34=7|49=NESTTEST|52=20111114-19:30:58.223|56=JERICHO|112=TEST|10=105|
8=FIX.4.2|9=58|35=0|34=8|49=NESTTEST|52=20111114-19:31:58.222|56=JERICHO|10=088|
8=FIX.4.2|9=67|35=1|34=9|49=NESTTEST|52=20111114-19:32:10.222|56=JERICHO|112=TEST|10=097|
8=FIX.4.2|9=67|35=1|34=7|49=JERICHO|52=20111114-19:32:16.847|56=NESTTEST|112=TEST|10=114|
8=FIX.4.2|9=68|35=0|34=10|49=NESTTEST|52=20111114-19:32:16.847|56=JERICHO|112=TEST|10=156|
8=FIX.4.2|9=67|35=0|34=8|49=JERICHO|52=20111114-19:32:16.863|56=NESTTEST|112=TEST|10=112|
8=FIX.4.2|9=67|35=0|34=9|49=JERICHO|52=20111114-19:32:16.863|56=NESTTEST|112=TEST|10=113|
8=FIX.4.2|9=70|35=A|34=1|49=JERICHO|52=20111116-12:37:28.898|56=NESTTEST|98=0|108=60|10=137|
8=FIX.4.2|9=70|35=A|34=1|49=NESTTEST|52=20111116-12:37:28.929|56=JERICHO|98=0|108=60|10=132|
8=FIX.4.2|9=58|35=0|34=2|49=NESTTEST|52=20111116-12:38:28.452|56=JERICHO|10=086|
8=FIX.4.2|9=58|35=0|34=2|49=JERICHO|52=20111116-12:38:28.717|56=NESTTEST|10=090|
8=FIX.4.2|9=58|35=0|34=3|49=NESTTEST|52=20111116-12:39:28.472|56=JERICHO|10=090|
8=FIX.4.2|9=67|35=1|34=4|49=NESTTEST|52=20111116-12:39:43.473|56=JERICHO|112=TEST|10=108|
8=FIX.4.2|9=70|35=A|34=3|49=JERICHO|52=20111116-12:44:19.952|56=NESTTEST|98=0|108=60|10=128|
8=FIX.4.2|9=70|35=A|34=5|49=NESTTEST|52=20111116-12:44:20.889|56=JERICHO|98=0|108=60|10=131|
8=FIX.4.2|9=169|35=D|34=4|49=JERICHO|52=20111116-12:44:22.795|56=NESTTEST|11=JRCH000001|21=1|38=100|40=2|44=0.01|54=1|55=PETR4|60=20111116-10:38:27|9304=N|9305=13|9306=1|9307=18|9308=N|10=173|
8=FIX.4.2|9=155|35=8|34=6|49=NESTTEST|52=20111116-12:45:26.437|56=JERICHO|6=0|11=JRCH000001|14=100|17=001|20=0|31=0.01|32=100|37=001|38=100|39=2|54=1|55=PETR4|150=1|151=0|10=051|
8=FIX.4.2|9=67|35=2|34=5|49=JERICHO|52=20111116-12:44:22.795|56=NESTTEST|7=3|16=0|10=217|
8=FIX.4.2|9=100|35=4|34=3|43=Y|49=NESTTEST|52=20111116-12:47:00.007|56=JERICHO|122=20111116-12:47:00.007|36=6|123=Y|10=109|
8=FIX.4.2|9=186|35=8|34=6|43=Y|49=NESTTEST|52=20111116-12:46:58.179|56=JERICHO|122=20111116-12:45:26.437|6=0|11=JRCH000001|14=100|17=001|20=0|31=0.01|32=100|37=001|38=100|39=2|54=1|55=PETR4|150=1|151=0|10=063|
8=FIX.4.2|9=67|35=1|34=7|49=NESTTEST|52=20111116-12:47:02.318|56=JERICHO|112=TEST|10=103|
8=FIX.4.2|9=58|35=0|34=6|49=JERICHO|52=20111116-12:45:22.327|56=NESTTEST|10=083|
8=FIX.4.2|9=70|35=A|34=8|49=JERICHO|52=20111116-12:47:07.987|56=NESTTEST|98=0|108=60|10=141|
8=FIX.4.2|9=70|35=A|34=8|49=NESTTEST|52=20111116-12:47:07.987|56=JERICHO|98=0|108=60|10=141|
8=FIX.4.2|9=67|35=2|34=9|49=NESTTEST|52=20111116-12:47:07.987|56=JERICHO|7=7|16=0|10=234|
8=FIX.4.2|9=67|35=2|34=9|49=JERICHO|52=20111116-12:47:07.987|56=NESTTEST|7=3|16=0|10=230|
8=FIX.4.2|9=100|35=4|34=3|43=Y|49=NESTTEST|52=20111116-12:47:07.987|56=JERICHO|122=20111116-12:47:07.987|36=6|123=Y|10=157|
8=FIX.4.2|9=186|35=8|34=6|43=Y|49=NESTTEST|52=20111116-12:47:07.987|56=JERICHO|122=20111116-12:45:26.437|6=0|11=JRCH000001|14=100|17=001|20=0|31=0.01|32=100|37=001|38=100|39=2|54=1|55=PETR4|150=1|151=0|10=065|
8=FIX.4.2|9=101|35=4|34=7|43=Y|49=NESTTEST|52=20111116-12:47:07.987|56=JERICHO|122=20111116-12:47:07.987|36=10|123=Y|10=205|
8=FIX.4.2|9=101|35=4|34=7|43=Y|49=JERICHO|52=20111116-12:47:08.003|56=NESTTEST|122=20111116-12:47:08.003|36=10|123=Y|10=165|
8=FIX.4.2|9=59|35=0|34=10|49=NESTTEST|52=20111116-12:48:07.959|56=JERICHO|10=144|
8=FIX.4.2|9=68|35=1|34=11|49=NESTTEST|52=20111116-12:48:20.094|56=JERICHO|112=TEST|10=149|
8=FIX.4.2|9=71|35=A|34=10|49=JERICHO|52=20111116-13:20:21.987|56=NESTTEST|98=0|108=60|10=171|
8=FIX.4.2|9=71|35=A|34=12|49=NESTTEST|52=20111116-13:20:22.033|56=JERICHO|98=0|108=60|10=156|
8=FIX.4.2|9=68|35=2|34=11|49=JERICHO|52=20111116-13:20:22.033|56=NESTTEST|7=6|16=0|10=246|
8=FIX.4.2|9=186|35=8|34=6|43=Y|49=NESTTEST|52=20111116-13:20:22.049|56=JERICHO|122=20111116-12:45:26.437|6=0|11=JRCH000001|14=100|17=001|20=0|31=0.01|32=100|37=001|38=100|39=2|54=1|55=PETR4|150=1|151=0|10=043|
8=FIX.4.2|9=101|35=4|34=7|43=Y|49=NESTTEST|52=20111116-13:20:22.049|56=JERICHO|122=20111116-13:20:22.049|36=13|123=Y|10=164|
8=FIX.4.2|9=170|35=D|34=12|49=JERICHO|52=20111116-13:20:46.141|56=NESTTEST|11=JRCH000002|21=1|38=100|40=2|44=0.01|54=1|55=PETR4|60=20111116-11:20:46|9304=N|9305=13|9306=1|9307=18|9308=N|10=192|
8=FIX.4.2|9=156|35=8|34=13|49=NESTTEST|52=20111116-13:21:42.338|56=JERICHO|6=0|11=JRCH000002|14=100|17=001|20=0|31=0.01|32=100|37=001|38=100|39=2|54=1|55=PETR4|150=1|151=0|10=092|
8=FIX.4.2|9=68|35=1|34=14|49=NESTTEST|52=20111116-13:21:58.368|56=JERICHO|112=TEST|10=159|
8=FIX.4.2|9=68|35=1|34=13|49=JERICHO|52=20111116-13:21:55.603|56=NESTTEST|112=TEST|10=147|
8=FIX.4.2|9=68|35=0|34=15|49=NESTTEST|52=20111116-13:22:02.664|56=JERICHO|112=TEST|10=148|
8=FIX.4.2|9=129|35=F|34=14|49=JERICHO|52=20111116-13:22:13.492|56=NESTTEST|11=JRCH000003|38=100|41=JRCH000002|54=1|55=PETR4|60=20111116-11:22:11|10=191|
8=FIX.4.2|9=70|35=A|34=1|49=JERICHO|52=20111121-16:34:21.445|56=NESTTEST|98=0|108=60|10=115|
8=FIX.4.2|9=70|35=A|34=1|49=NESTTEST|52=20111121-16:34:21.477|56=JERICHO|98=0|108=60|10=120|
8=FIX.4.2|9=58|35=0|34=2|49=NESTTEST|52=20111121-16:35:21.394|56=JERICHO|10=081|
8=FIX.4.2|9=67|35=1|34=3|49=NESTTEST|52=20111121-16:35:33.409|56=JERICHO|112=TEST|10=101|
8=FIX.4.2|9=67|35=1|34=2|49=JERICHO|52=20111121-16:36:33.108|56=NESTTEST|112=TEST|10=097|
8=FIX.4.2|9=67|35=0|34=4|49=NESTTEST|52=20111121-16:36:34.045|56=JERICHO|112=TEST|10=099|
8=FIX.4.2|9=67|35=0|34=3|49=JERICHO|52=20111121-16:36:34.780|56=NESTTEST|112=TEST|10=104|
8=FIX.4.2|9=58|35=0|34=5|49=NESTTEST|52=20111121-16:37:34.619|56=JERICHO|10=090|
8=FIX.4.2|9=58|35=0|34=4|49=JERICHO|52=20111121-16:37:38.041|56=NESTTEST|10=082|
8=FIX.4.2|9=58|35=0|34=6|49=NESTTEST|52=20111121-16:38:34.724|56=JERICHO|10=089|
8=FIX.4.2|9=58|35=0|34=5|49=JERICHO|52=20111121-16:38:40.552|56=NESTTEST|10=084|
8=FIX.4.2|9=70|35=A|34=6|49=JERICHO|52=20111121-16:39:01.066|56=NESTTEST|98=0|108=60|10=122|
8=FIX.4.2|9=70|35=A|34=7|49=NESTTEST|52=20111121-16:39:11.300|56=JERICHO|98=0|108=60|10=115|
8=FIX.4.2|9=58|35=0|34=8|49=NESTTEST|52=20111121-16:40:11.889|56=JERICHO|10=091|
8=FIX.4.2|9=70|35=A|34=7|49=JERICHO|52=20111121-16:41:13.823|56=NESTTEST|98=0|108=60|10=120|
8=FIX.4.2|9=70|35=A|34=9|49=NESTTEST|52=20111121-16:41:16.291|56=JERICHO|98=0|108=60|10=124|
8=FIX.4.2|9=67|35=2|34=8|49=JERICHO|52=20111121-16:41:18.994|56=NESTTEST|7=8|16=0|10=228|
8=FIX.4.2|9=101|35=4|34=8|43=Y|49=NESTTEST|52=20111121-16:41:19.682|56=JERICHO|122=20111121-16:41:19.682|36=10|123=Y|10=184|
8=FIX.4.2|9=59|35=0|34=10|49=NESTTEST|52=20111121-16:42:19.131|56=JERICHO|10=123|
8=FIX.4.2|9=58|35=0|34=9|49=JERICHO|52=20111121-16:42:19.427|56=NESTTEST|10=090|
8=FIX.4.2|9=163|35=D|34=10|49=JERICHO|52=20111121-16:42:33.130|56=NESTTEST|11=JRCH000003|21=1|38=100|40=2|44=0.01|54=1|55=PETR4|60=20111121-14:41:31|9305=13|9306=1|9307=18|9308=N|10=094|
8=FIX.4.2|9=156|35=8|34=11|49=NESTTEST|52=20111121-16:44:13.326|56=JERICHO|6=0|11=JRCH000003|14=100|17=001|20=0|31=0.01|32=100|37=001|38=100|39=2|54=1|55=PETR4|150=1|151=0|10=090|
8=FIX.4.2|9=68|35=1|34=12|49=NESTTEST|52=20111121-16:44:18.169|56=JERICHO|112=TEST|10=156|
8=FIX.4.2|9=68|35=1|34=11|49=JERICHO|52=20111121-16:43:47.468|56=NESTTEST|112=TEST|10=158|
8=FIX.4.2|9=68|35=0|34=13|49=NESTTEST|52=20111121-16:44:18.169|56=JERICHO|112=TEST|10=156|
8=FIX.4.2|9=59|35=0|34=14|49=NESTTEST|52=20111121-16:45:18.259|56=JERICHO|10=140|
8=FIX.4.2|9=68|35=1|34=15|49=NESTTEST|52=20111121-16:45:30.273|56=JERICHO|112=TEST|10=150|
8=FIX.4.2|9=68|35=1|34=12|49=JERICHO|52=20111121-16:45:48.772|56=NESTTEST|112=TEST|10=160|
8=FIX.4.2|9=68|35=0|34=16|49=NESTTEST|52=20111121-16:45:49.788|56=JERICHO|112=TEST|10=171|
8=FIX.4.2|9=68|35=0|34=13|49=JERICHO|52=20111121-16:45:51.381|56=NESTTEST|112=TEST|10=150|
8=FIX.4.2|9=68|35=0|34=14|49=JERICHO|52=20111121-16:45:54.443|56=NESTTEST|112=TEST|10=153|
