8=FIX.4.2|9=73|35=A|34=1|49=ALPHA|52=20111111-13:19:23.728|56=BOVESPA|98=0|108=30|141=Y|10=157|
8=FIX.4.2|9=73|35=A|34=1|49=BOVESPA|52=20111111-13:19:23.791|56=ALPHA|98=0|108=30|141=Y|10=157|
8=FIX.4.2|9=55|35=0|34=2|49=BOVESPA|52=20111111-13:19:53.197|56=ALPHA|10=074|
8=FIX.4.2|9=55|35=0|34=2|49=ALPHA|52=20111111-13:19:54.697|56=BOVESPA|10=080|
8=FIX.4.2|9=170|35=D|34=3|49=ALPHA|52=20111111-13:20:09.119|56=BOVESPA|1=1|11=ASTP-ID-1-2011-11-11 11:20:09.103-0200|21=1|38=100|40=2|44=0.01|54=1|55=USIM3|59=0|60=20111111-15:20:09.103|10=099|
8=FIX.4.2|9=185|35=8|34=3|49=BOVESPA|52=20111111-13:21:08.119|56=ALPHA|6=0|11=ASTP-ID-1-2011-11-11 11:20:09.103-0200|14=100|17=001|20=0|31=0.01|32=100|37=001|38=100|39=1|54=1|55=USIM3|59=0|150=1|151=0|10=132|
8=FIX.4.2|9=73|35=A|34=1|49=ALPHA|52=20111111-13:37:52.978|56=BOVESPA|98=0|108=30|141=Y|10=166|
8=FIX.4.2|9=73|35=A|34=1|49=BOVESPA|52=20111111-13:37:53.057|56=ALPHA|98=0|108=30|141=Y|10=155|
8=FIX.4.2|9=55|35=0|34=2|49=ALPHA|52=20111111-13:38:22.978|56=BOVESPA|10=078|
8=FIX.4.2|9=55|35=0|34=2|49=BOVESPA|52=20111111-13:38:23.760|56=ALPHA|10=068|
8=FIX.4.2|9=55|35=0|34=3|49=ALPHA|52=20111111-13:38:52.994|56=BOVESPA|10=080|
8=FIX.4.2|9=55|35=0|34=3|49=BOVESPA|52=20111111-13:38:53.775|56=ALPHA|10=078|
8=FIX.4.2|9=55|35=0|34=4|49=ALPHA|52=20111111-13:39:22.994|56=BOVESPA|10=079|
8=FIX.4.2|9=55|35=0|34=4|49=BOVESPA|52=20111111-13:39:23.775|56=ALPHA|10=077|
8=FIX.4.2|9=55|35=0|34=5|49=ALPHA|52=20111111-13:39:52.994|56=BOVESPA|10=083|
8=FIX.4.2|9=55|35=0|34=5|49=BOVESPA|52=20111111-13:39:53.775|56=ALPHA|10=081|
8=FIX.4.2|9=55|35=0|34=6|49=ALPHA|52=20111111-13:40:22.994|56=BOVESPA|10=073|
8=FIX.4.2|9=55|35=0|34=6|49=BOVESPA|52=20111111-13:40:23.775|56=ALPHA|10=071|
8=FIX.4.2|9=55|35=0|34=7|49=ALPHA|52=20111111-13:40:52.994|56=BOVESPA|10=077|
8=FIX.4.2|9=55|35=0|34=7|49=BOVESPA|52=20111111-13:40:53.775|56=ALPHA|10=075|
8=FIX.4.2|9=170|35=D|34=8|49=ALPHA|52=20111111-13:41:21.697|56=BOVESPA|1=1|11=ASTP-ID-1-2011-11-11 11:41:21.697-0200|21=1|38=100|40=2|44=0.01|54=1|55=VALE5|59=0|60=20111111-15:41:21.697|10=122|
8=FIX.4.2|9=185|35=8|34=8|49=BOVESPA|52=20111111-13:42:09.603|56=ALPHA|6=0|11=ASTP-ID-1-2011-11-11 11:41:21.697-0200|14=100|17=001|20=0|31=0.01|32=100|37=001|38=100|39=1|54=1|55=VALE5|59=0|150=1|151=0|10=134|
8=FIX.4.2|9=64|35=1|34=9|49=BOVESPA|52=20111111-13:42:09.603|56=ALPHA|112=TEST|10=089|
8=FIX.4.2|9=73|35=A|34=1|49=ALPHA|52=20111111-13:42:38.010|56=BOVESPA|98=0|108=30|141=Y|10=143|
8=FIX.4.2|9=73|35=A|34=1|49=BOVESPA|52=20111111-13:42:38.025|56=ALPHA|98=0|108=30|141=Y|10=149|
8=FIX.4.2|9=55|35=0|34=2|49=ALPHA|52=20111111-13:43:08.010|56=BOVESPA|10=055|
8=FIX.4.2|9=55|35=0|34=2|49=BOVESPA|52=20111111-13:43:08.010|56=ALPHA|10=055|
8=FIX.4.2|9=55|35=5|34=3|49=ALPHA|52=20111111-13:43:30.010|56=BOVESPA|10=056|
8=FIX.4.2|9=55|35=5|34=3|49=BOVESPA|52=20111111-13:43:30.025|56=ALPHA|10=062|
8=FIX.4.2|9=73|35=A|34=1|49=ALPHA|52=20111111-13:43:52.228|56=BOVESPA|98=0|108=30|141=Y|10=151|
8=FIX.4.2|9=73|35=A|34=1|49=BOVESPA|52=20111111-13:43:52.244|56=ALPHA|98=0|108=30|141=Y|10=149|
8=FIX.4.2|9=55|35=0|34=2|49=BOVESPA|52=20111111-13:44:22.744|56=ALPHA|10=066|
8=FIX.4.2|9=55|35=0|34=2|49=ALPHA|52=20111111-13:44:22.744|56=BOVESPA|10=066|
8=FIX.4.2|9=55|35=0|34=3|49=BOVESPA|52=20111111-13:44:52.744|56=ALPHA|10=070|
8=FIX.4.2|9=55|35=0|34=3|49=ALPHA|52=20111111-13:44:52.744|56=BOVESPA|10=070|
8=FIX.4.2|9=170|35=D|34=4|49=ALPHA|52=20111111-13:44:55.338|56=BOVESPA|1=1|11=ASTP-ID-1-2011-11-11 11:44:28.978-0200|21=1|38=100|40=2|44=0.01|54=1|55=XPTO4|59=0|60=20111111-15:44:49.260|10=165|
8=FIX.4.2|9=185|35=8|34=4|49=BOVESPA|52=20111111-13:44:55.338|56=ALPHA|6=0|11=ASTP-ID-1-2011-11-11 11:44:28.978-0200|14=100|17=001|20=0|31=0.01|32=100|37=001|38=100|39=1|54=1|55=XPTO4|59=0|150=1|151=0|10=184|
8=FIX.4.2|9=55|35=0|34=5|49=BOVESPA|52=20111111-13:45:25.744|56=ALPHA|10=073|
8=FIX.4.2|9=55|35=0|34=5|49=ALPHA|52=20111111-13:45:25.744|56=BOVESPA|10=073|
8=FIX.4.2|9=55|35=0|34=6|49=BOVESPA|52=20111111-13:45:55.744|56=ALPHA|10=077|
8=FIX.4.2|9=55|35=0|34=6|49=ALPHA|52=20111111-13:45:55.744|56=BOVESPA|10=077|
8=FIX.4.2|9=55|35=0|34=7|49=BOVESPA|52=20111111-13:46:25.744|56=ALPHA|10=076|
8=FIX.4.2|9=55|35=0|34=7|49=ALPHA|52=20111111-13:46:25.744|56=BOVESPA|10=076|
8=FIX.4.2|9=55|35=0|34=8|49=BOVESPA|52=20111111-13:46:55.744|56=ALPHA|10=080|
8=FIX.4.2|9=55|35=0|34=8|49=ALPHA|52=20111111-13:46:55.744|56=BOVESPA|10=080|
8=FIX.4.2|9=55|35=5|34=9|49=ALPHA|52=20111111-13:47:09.213|56=BOVESPA|10=077|
8=FIX.4.2|9=55|35=5|34=9|49=BOVESPA|52=20111111-13:47:09.213|56=ALPHA|10=077|
8=FIX.4.2|9=73|35=A|34=1|49=ALPHA|52=20111111-13:48:33.697|56=BOVESPA|98=0|108=30|141=Y|10=165|
8=FIX.4.2|9=73|35=A|34=1|49=BOVESPA|52=20111111-13:48:33.713|56=ALPHA|98=0|108=30|141=Y|10=154|
8=FIX.4.2|9=169|35=D|34=2|49=ALPHA|52=20111111-13:48:54.119|56=BOVESPA|1=1|11=ASTP-ID-1-2011-11-11 11:48:54.088-0200|21=1|38=100|40=2|44=0.01|54=1|55=JFSD|59=0|60=20111111-15:48:54.103|10=074|
8=FIX.4.2|9=184|35=8|34=2|49=BOVESPA|52=20111111-13:48:54.135|56=ALPHA|6=0|11=ASTP-ID-1-2011-11-11 11:48:54.088-0200|14=100|17=001|20=0|31=0.01|32=100|37=001|38=100|39=1|54=1|55=JFSD|59=0|150=1|151=0|10=086|
8=FIX.4.2|9=55|35=0|34=3|49=ALPHA|52=20111111-13:49:24.682|56=BOVESPA|10=075|
8=FIX.4.2|9=55|35=0|34=3|49=BOVESPA|52=20111111-13:49:24.682|56=ALPHA|10=075|
8=FIX.4.2|9=55|35=0|34=4|49=ALPHA|52=20111111-13:49:54.682|56=BOVESPA|10=079|
8=FIX.4.2|9=55|35=0|34=4|49=BOVESPA|52=20111111-13:49:54.682|56=ALPHA|10=079|
8=FIX.4.2|9=73|35=A|34=1|49=ALPHA|52=20111111-13:55:43.010|56=BOVESPA|98=0|108=30|141=Y|10=143|
8=FIX.4.2|9=73|35=A|34=1|49=BOVESPA|52=20111111-13:55:43.041|56=ALPHA|98=0|108=30|141=Y|10=147|
8=FIX.4.2|9=172|35=D|34=2|49=ALPHA|52=20111111-13:56:02.728|56=BOVESPA|1=1|11=ASTP-ID-1-2011-11-11 11:56:02.728-0200|21=1|38=100|40=2|44=0.01|54=1|55=JKLFSDA|59=0|60=20111111-15:56:02.728|10=024|
8=FIX.4.2|9=187|35=8|34=2|49=BOVESPA|52=20111111-13:56:02.728|56=ALPHA|6=0|11=ASTP-ID-1-2011-11-11 11:56:02.728-0200|14=100|17=001|20=0|31=0.01|32=100|37=001|38=100|39=1|54=1|55=JKLFSDA|59=0|150=1|151=0|10=042|
8=FIX.4.2|9=55|35=0|34=3|49=BOVESPA|52=20111111-13:56:32.932|56=ALPHA|10=070|
8=FIX.4.2|9=55|35=0|34=3|49=ALPHA|52=20111111-13:56:32.932|56=BOVESPA|10=070|
8=FIX.4.2|9=55|35=0|34=4|49=BOVESPA|52=20111111-13:57:02.932|56=ALPHA|10=069|
8=FIX.4.2|9=55|35=0|34=4|49=ALPHA|52=20111111-13:57:02.932|56=BOVESPA|10=069|
8=FIX.4.2|9=55|35=5|34=5|49=ALPHA|52=20111111-13:57:25.041|56=BOVESPA|10=071|
8=FIX.4.2|9=55|35=5|34=5|49=BOVESPA|52=20111111-13:57:25.041|56=ALPHA|10=071|
8=FIX.4.2|9=73|35=A|34=1|49=ALPHA|52=20111111-13:57:48.619|56=BOVESPA|98=0|108=30|141=Y|10=165|
8=FIX.4.2|9=73|35=A|34=1|49=BOVESPA|52=20111111-13:57:48.635|56=ALPHA|98=0|108=30|141=Y|10=163|
8=FIX.4.2|9=170|35=D|34=2|49=ALPHA|52=20111111-13:58:08.478|56=BOVESPA|1=1|11=ASTP-ID-1-2011-11-11 11:58:08.447-0200|21=1|38=100|40=2|44=0.01|54=1|55=VALE5|59=0|60=20111111-15:58:08.447|10=138|
8=FIX.4.2|9=185|35=8|34=2|49=BOVESPA|52=20111111-13:58:08.478|56=ALPHA|6=0|11=ASTP-ID-1-2011-11-11 11:58:08.447-0200|14=100|17=001|20=0|31=0.01|32=100|37=001|38=100|39=1|54=1|55=VALE5|59=0|150=1|151=0|10=150|
8=FIX.4.2|9=55|35=0|34=3|49=BOVESPA|52=20111111-13:58:38.010|56=ALPHA|10=065|
8=FIX.4.2|9=55|35=0|34=3|49=ALPHA|52=20111111-13:58:38.603|56=BOVESPA|10=073|
8=FIX.4.2|9=55|35=0|34=4|49=BOVESPA|52=20111111-13:59:08.010|56=ALPHA|10=064|
8=FIX.4.2|9=55|35=0|34=4|49=ALPHA|52=20111111-13:59:08.603|56=BOVESPA|10=072|
8=FIX.4.2|9=55|35=0|34=5|49=BOVESPA|52=20111111-13:59:38.010|56=ALPHA|10=068|
8=FIX.4.2|9=55|35=0|34=5|49=ALPHA|52=20111111-13:59:38.603|56=BOVESPA|10=076|
8=FIX.4.2|9=55|35=0|34=6|49=BOVESPA|52=20111111-14:00:08.010|56=ALPHA|10=053|
8=FIX.4.2|9=55|35=0|34=6|49=ALPHA|52=20111111-14:00:08.603|56=BOVESPA|10=061|
8=FIX.4.2|9=55|35=0|34=7|49=BOVESPA|52=20111111-14:00:38.010|56=ALPHA|10=057|
8=FIX.4.2|9=55|35=0|34=7|49=ALPHA|52=20111111-14:00:38.603|56=BOVESPA|10=065|
8=FIX.4.2|9=170|35=D|34=8|49=ALPHA|52=20111111-14:00:56.447|56=BOVESPA|1=1|11=ASTP-ID-2-2011-11-11 12:00:56.432-0200|21=1|38=100|40=2|44=0.01|54=1|55=VALE5|59=0|60=20111111-16:00:56.447|10=108|
8=FIX.4.2|9=185|35=8|34=8|49=BOVESPA|52=20111111-14:01:20.666|56=ALPHA|6=0|11=ASTP-ID-2-2011-11-11 12:00:56.432-0200|14=100|17=001|20=0|31=0.01|32=100|37=001|38=100|39=2|54=1|55=VALE5|59=0|150=1|151=0|10=125|
8=FIX.4.2|9=55|35=0|34=9|49=ALPHA|52=20111111-14:01:26.635|56=BOVESPA|10=070|
8=FIX.4.2|9=56|35=5|34=10|49=ALPHA|52=20111111-14:01:33.635|56=BOVESPA|10=114|
8=FIX.4.2|9=55|35=5|34=9|49=BOVESPA|52=20111111-14:01:33.635|56=ALPHA|10=073|
