8=FIX.4.2|9=67|35=A|34=9|49=JMSTRAT|52=20110914-19:30:13.190|56=NESTI|98=0|108=60|10=177|
8=FIX.4.2|9=67|35=A|34=1|49=NESTI|52=20110914-19:30:13.237|56=JMSTRAT|98=0|108=60|10=171|
8=FIX.4.2|9=64|35=2|34=2|49=NESTI|52=20110914-19:30:13.237|56=JMSTRAT|7=1|16=0|10=249|
8=FIX.4.2|9=98|35=4|34=1|43=Y|49=JMSTRAT|52=20110914-19:30:13.252|56=NESTI|122=20110914-19:30:13.252|36=10|123=Y|10=180|
8=FIX.4.2|9=55|35=0|34=3|49=NESTI|52=20110914-19:31:13.339|56=JMSTRAT|10=129|
8=FIX.4.2|9=56|35=0|34=10|49=JMSTRAT|52=20110914-19:31:13.355|56=NESTI|10=174|
8=FIX.4.2|9=55|35=0|34=4|49=NESTI|52=20110914-19:32:13.504|56=JMSTRAT|10=125|
8=FIX.4.2|9=56|35=0|34=11|49=JMSTRAT|52=20110914-19:32:13.504|56=NESTI|10=172|
8=FIX.4.2|9=55|35=0|34=5|49=NESTI|52=20110914-19:33:13.669|56=JMSTRAT|10=139|
8=FIX.4.2|9=56|35=0|34=12|49=JMSTRAT|52=20110914-19:33:13.669|56=NESTI|10=186|
8=FIX.4.2|9=55|35=0|34=6|49=NESTI|52=20110914-19:34:13.834|56=JMSTRAT|10=135|
8=FIX.4.2|9=56|35=0|34=13|49=JMSTRAT|52=20110914-19:34:13.834|56=NESTI|10=182|
8=FIX.4.2|9=55|35=0|34=7|49=NESTI|52=20110914-19:35:13.015|56=JMSTRAT|10=128|
8=FIX.4.2|9=56|35=0|34=14|49=JMSTRAT|52=20110914-19:35:13.015|56=NESTI|10=175|
8=FIX.4.2|9=55|35=0|34=8|49=NESTI|52=20110914-19:36:13.164|56=JMSTRAT|10=135|
8=FIX.4.2|9=56|35=0|34=15|49=JMSTRAT|52=20110914-19:36:13.164|56=NESTI|10=182|
8=FIX.4.2|9=55|35=0|34=9|49=NESTI|52=20110914-19:37:13.345|56=JMSTRAT|10=138|
8=FIX.4.2|9=56|35=0|34=16|49=JMSTRAT|52=20110914-19:37:13.345|56=NESTI|10=185|
8=FIX.4.2|9=56|35=0|34=10|49=NESTI|52=20110914-19:38:13.509|56=JMSTRAT|10=182|
8=FIX.4.2|9=56|35=0|34=17|49=JMSTRAT|52=20110914-19:38:13.509|56=NESTI|10=189|
8=FIX.4.2|9=56|35=0|34=11|49=NESTI|52=20110914-19:39:13.674|56=JMSTRAT|10=187|
8=FIX.4.2|9=56|35=0|34=18|49=JMSTRAT|52=20110914-19:39:13.674|56=NESTI|10=194|
8=FIX.4.2|9=56|35=0|34=12|49=NESTI|52=20110914-19:40:13.839|56=JMSTRAT|10=183|
8=FIX.4.2|9=56|35=0|34=19|49=JMSTRAT|52=20110914-19:40:13.839|56=NESTI|10=190|
8=FIX.4.2|9=56|35=0|34=13|49=NESTI|52=20110914-19:41:13.004|56=JMSTRAT|10=169|
8=FIX.4.2|9=56|35=0|34=20|49=JMSTRAT|52=20110914-19:41:13.020|56=NESTI|10=165|
8=FIX.4.2|9=56|35=0|34=14|49=NESTI|52=20110914-19:42:13.169|56=JMSTRAT|10=183|
8=FIX.4.2|9=56|35=0|34=21|49=JMSTRAT|52=20110914-19:42:13.169|56=NESTI|10=181|
8=FIX.4.2|9=56|35=0|34=15|49=NESTI|52=20110914-19:43:13.334|56=JMSTRAT|10=179|
8=FIX.4.2|9=56|35=0|34=22|49=JMSTRAT|52=20110914-19:43:13.334|56=NESTI|10=177|
8=FIX.4.2|9=159|35=D|34=23|49=JMSTRAT|52=20110914-19:43:30.848|56=NESTI|11=IAA0002|21=1|38=1500|40=1|54=1|55=BBAS3|60=20110914-16:43:30|9304=N|9305=13|9306=186|9307=18|9308=Y|10=122|
8=FIX.4.2|9=153|35=8|34=16|49=NESTI|52=20110914-19:43:30.879|56=JMSTRAT|6=0|11=IAA0002|14=1500|17=001|20=0|31=66.6|32=1500|37=001|38=1500|39=1|54=1|55=BBAS3|150=1|151=0|10=107|
8=FIX.4.2|9=160|35=D|34=24|49=JMSTRAT|52=20110914-19:43:33.332|56=NESTI|11=IAA0004|21=1|38=2200|40=1|54=2|55=SANB11|60=20110914-16:43:33|9304=N|9305=13|9306=186|9307=18|9308=Y|10=169|
8=FIX.4.2|9=154|35=8|34=17|49=NESTI|52=20110914-19:43:33.363|56=JMSTRAT|6=0|11=IAA0004|14=2200|17=001|20=0|31=66.6|32=2200|37=001|38=2200|39=1|54=2|55=SANB11|150=1|151=0|10=156|
8=FIX.4.2|9=159|35=D|34=25|49=JMSTRAT|52=20110914-19:43:38.519|56=NESTI|11=IAA0006|21=1|38=1400|40=1|54=1|55=ALSC3|60=20110914-16:43:38|9304=N|9305=13|9306=188|9307=18|9308=Y|10=151|
8=FIX.4.2|9=153|35=8|34=18|49=NESTI|52=20110914-19:43:38.519|56=JMSTRAT|6=0|11=IAA0006|14=1400|17=001|20=0|31=66.6|32=1400|37=001|38=1400|39=1|54=1|55=ALSC3|150=1|151=0|10=120|
8=FIX.4.2|9=158|35=D|34=26|49=JMSTRAT|52=20110914-19:43:38.566|56=NESTI|11=IAA0008|21=1|38=600|40=1|54=2|55=BRML3|60=20110914-16:43:38|9304=N|9305=13|9306=188|9307=18|9308=Y|10=119|
8=FIX.4.2|9=150|35=8|34=19|49=NESTI|52=20110914-19:43:38.566|56=JMSTRAT|6=0|11=IAA0008|14=600|17=001|20=0|31=66.6|32=600|37=001|38=600|39=1|54=2|55=BRML3|150=1|151=0|10=248|
8=FIX.4.2|9=158|35=D|34=27|49=JMSTRAT|52=20110914-19:43:38.597|56=NESTI|11=IAA0010|21=1|38=800|40=1|54=2|55=BRML3|60=20110914-16:43:38|9304=N|9305=13|9306=188|9307=18|9308=Y|10=119|
8=FIX.4.2|9=150|35=8|34=20|49=NESTI|52=20110914-19:43:38.597|56=JMSTRAT|6=0|11=IAA0010|14=800|17=001|20=0|31=66.6|32=800|37=001|38=800|39=1|54=2|55=BRML3|150=1|151=0|10=243|
8=FIX.4.2|9=158|35=D|34=28|49=JMSTRAT|52=20110914-19:43:38.644|56=NESTI|11=IAA0012|21=1|38=500|40=1|54=1|55=MULT3|60=20110914-16:43:38|9304=N|9305=13|9306=188|9307=18|9308=Y|10=132|
8=FIX.4.2|9=150|35=8|34=21|49=NESTI|52=20110914-19:43:38.660|56=JMSTRAT|6=0|11=IAA0012|14=500|17=001|20=0|31=66.6|32=500|37=001|38=500|39=1|54=1|55=MULT3|150=1|151=0|10=248|
8=FIX.4.2|9=68|35=A|34=29|49=JMSTRAT|52=20110914-19:49:56.944|56=NESTI|98=0|108=60|10=252|
8=FIX.4.2|9=68|35=A|34=22|49=NESTI|52=20110914-19:49:56.975|56=JMSTRAT|98=0|108=60|10=249|
8=FIX.4.2|9=56|35=0|34=30|49=JMSTRAT|52=20110914-19:50:56.078|56=NESTI|10=186|
8=FIX.4.2|9=56|35=0|34=23|49=NESTI|52=20110914-19:50:56.078|56=JMSTRAT|10=188|
8=FIX.4.2|9=56|35=0|34=31|49=JMSTRAT|52=20110914-19:51:56.243|56=NESTI|10=182|
8=FIX.4.2|9=56|35=0|34=24|49=NESTI|52=20110914-19:51:56.243|56=JMSTRAT|10=184|
8=FIX.4.2|9=56|35=0|34=25|49=NESTI|52=20110914-19:52:56.017|56=JMSTRAT|10=185|
8=FIX.4.2|9=56|35=0|34=32|49=JMSTRAT|52=20110914-19:52:56.017|56=NESTI|10=183|
8=FIX.4.2|9=56|35=0|34=26|49=NESTI|52=20110914-19:53:56.182|56=JMSTRAT|10=190|
8=FIX.4.2|9=56|35=0|34=33|49=JMSTRAT|52=20110914-19:53:56.182|56=NESTI|10=188|
8=FIX.4.2|9=56|35=0|34=27|49=NESTI|52=20110914-19:54:56.347|56=JMSTRAT|10=195|
8=FIX.4.2|9=56|35=0|34=34|49=JMSTRAT|52=20110914-19:54:56.347|56=NESTI|10=193|
8=FIX.4.2|9=56|35=0|34=28|49=NESTI|52=20110914-19:55:56.512|56=JMSTRAT|10=191|
8=FIX.4.2|9=56|35=0|34=35|49=JMSTRAT|52=20110914-19:55:56.512|56=NESTI|10=189|
8=FIX.4.2|9=56|35=0|34=36|49=JMSTRAT|52=20110914-19:56:56.130|56=NESTI|10=187|
8=FIX.4.2|9=56|35=0|34=29|49=NESTI|52=20110914-19:56:56.130|56=JMSTRAT|10=189|
8=FIX.4.2|9=56|35=0|34=37|49=JMSTRAT|52=20110914-19:57:56.295|56=NESTI|10=201|
8=FIX.4.2|9=56|35=0|34=30|49=NESTI|52=20110914-19:57:56.295|56=JMSTRAT|10=194|
8=FIX.4.2|9=68|35=A|34=38|49=JMSTRAT|52=20110914-19:58:48.852|56=NESTI|98=0|108=60|10=251|
8=FIX.4.2|9=68|35=A|34=31|49=NESTI|52=20110914-19:58:48.898|56=JMSTRAT|98=0|108=60|10=254|
8=FIX.4.2|9=68|35=A|34=39|49=JMSTRAT|52=20110914-19:59:18.567|56=NESTI|98=0|108=60|10=253|
8=FIX.4.2|9=68|35=A|34=32|49=NESTI|52=20110914-19:59:18.614|56=JMSTRAT|98=0|108=60|10=239|
8=FIX.4.2|9=56|35=0|34=33|49=NESTI|52=20110914-20:00:18.247|56=JMSTRAT|10=172|
8=FIX.4.2|9=56|35=0|34=40|49=JMSTRAT|52=20110914-20:00:18.247|56=NESTI|10=170|
8=FIX.4.2|9=56|35=0|34=34|49=NESTI|52=20110914-20:01:18.412|56=JMSTRAT|10=168|
8=FIX.4.2|9=56|35=0|34=41|49=JMSTRAT|52=20110914-20:01:18.412|56=NESTI|10=166|
8=FIX.4.2|9=56|35=0|34=42|49=JMSTRAT|52=20110914-20:02:18.046|56=NESTI|10=171|
8=FIX.4.2|9=56|35=0|34=35|49=NESTI|52=20110914-20:02:18.046|56=JMSTRAT|10=173|
8=FIX.4.2|9=56|35=0|34=43|49=JMSTRAT|52=20110914-20:03:18.211|56=NESTI|10=167|
8=FIX.4.2|9=56|35=0|34=36|49=NESTI|52=20110914-20:03:18.211|56=JMSTRAT|10=169|
8=FIX.4.2|9=56|35=0|34=44|49=JMSTRAT|52=20110914-20:04:18.376|56=NESTI|10=181|
8=FIX.4.2|9=56|35=0|34=37|49=NESTI|52=20110914-20:04:18.376|56=JMSTRAT|10=183|
8=FIX.4.2|9=56|35=0|34=38|49=NESTI|52=20110914-20:05:18.072|56=JMSTRAT|10=178|
8=FIX.4.2|9=56|35=0|34=45|49=JMSTRAT|52=20110914-20:05:18.072|56=NESTI|10=176|
8=FIX.4.2|9=56|35=0|34=39|49=NESTI|52=20110914-20:06:18.237|56=JMSTRAT|10=183|
8=FIX.4.2|9=56|35=0|34=46|49=JMSTRAT|52=20110914-20:06:18.237|56=NESTI|10=181|
8=FIX.4.2|9=56|35=0|34=40|49=NESTI|52=20110914-20:07:18.402|56=JMSTRAT|10=170|
8=FIX.4.2|9=56|35=0|34=47|49=JMSTRAT|52=20110914-20:07:18.402|56=NESTI|10=177|
8=FIX.4.2|9=56|35=0|34=48|49=JMSTRAT|52=20110914-20:08:18.114|56=NESTI|10=179|
8=FIX.4.2|9=56|35=0|34=41|49=NESTI|52=20110914-20:08:18.114|56=JMSTRAT|10=172|
8=FIX.4.2|9=56|35=0|34=49|49=JMSTRAT|52=20110914-20:09:18.279|56=NESTI|10=193|
8=FIX.4.2|9=56|35=0|34=42|49=NESTI|52=20110914-20:09:18.279|56=JMSTRAT|10=186|
8=FIX.4.2|9=56|35=0|34=50|49=JMSTRAT|52=20110914-20:10:18.444|56=NESTI|10=171|
8=FIX.4.2|9=56|35=0|34=43|49=NESTI|52=20110914-20:10:18.444|56=JMSTRAT|10=173|
8=FIX.4.2|9=56|35=0|34=44|49=NESTI|52=20110914-20:11:18.062|56=JMSTRAT|10=171|
8=FIX.4.2|9=56|35=0|34=51|49=JMSTRAT|52=20110914-20:11:18.062|56=NESTI|10=169|
8=FIX.4.2|9=56|35=0|34=45|49=NESTI|52=20110914-20:12:18.227|56=JMSTRAT|10=176|
8=FIX.4.2|9=56|35=0|34=52|49=JMSTRAT|52=20110914-20:12:18.227|56=NESTI|10=174|
8=FIX.4.2|9=56|35=0|34=46|49=NESTI|52=20110914-20:13:18.392|56=JMSTRAT|10=181|
8=FIX.4.2|9=56|35=0|34=53|49=JMSTRAT|52=20110914-20:13:18.392|56=NESTI|10=179|
8=FIX.4.2|9=56|35=0|34=54|49=JMSTRAT|52=20110914-20:14:18.104|56=NESTI|10=172|
8=FIX.4.2|9=56|35=0|34=47|49=NESTI|52=20110914-20:14:18.104|56=JMSTRAT|10=174|
8=FIX.4.2|9=56|35=0|34=55|49=JMSTRAT|52=20110914-20:15:18.269|56=NESTI|10=186|
8=FIX.4.2|9=56|35=0|34=48|49=NESTI|52=20110914-20:15:18.269|56=JMSTRAT|10=188|
8=FIX.4.2|9=56|35=0|34=56|49=JMSTRAT|52=20110914-20:16:18.449|56=NESTI|10=188|
8=FIX.4.2|9=56|35=0|34=49|49=NESTI|52=20110914-20:16:18.449|56=JMSTRAT|10=190|
8=FIX.4.2|9=56|35=0|34=50|49=NESTI|52=20110914-20:17:18.083|56=JMSTRAT|10=177|
8=FIX.4.2|9=56|35=0|34=57|49=JMSTRAT|52=20110914-20:17:18.083|56=NESTI|10=184|
8=FIX.4.2|9=56|35=0|34=51|49=NESTI|52=20110914-20:18:18.248|56=JMSTRAT|10=182|
8=FIX.4.2|9=56|35=0|34=58|49=JMSTRAT|52=20110914-20:18:18.248|56=NESTI|10=189|
8=FIX.4.2|9=56|35=0|34=52|49=NESTI|52=20110914-20:19:18.413|56=JMSTRAT|10=178|
8=FIX.4.2|9=56|35=0|34=59|49=JMSTRAT|52=20110914-20:19:18.413|56=NESTI|10=185|
8=FIX.4.2|9=56|35=0|34=60|49=JMSTRAT|52=20110914-20:20:18.109|56=NESTI|10=171|
8=FIX.4.2|9=56|35=0|34=53|49=NESTI|52=20110914-20:20:18.109|56=JMSTRAT|10=173|
8=FIX.4.2|9=56|35=0|34=61|49=JMSTRAT|52=20110914-20:21:18.274|56=NESTI|10=176|
8=FIX.4.2|9=56|35=0|34=54|49=NESTI|52=20110914-20:21:18.274|56=JMSTRAT|10=178|
8=FIX.4.2|9=56|35=0|34=62|49=JMSTRAT|52=20110914-20:22:18.439|56=NESTI|10=181|
8=FIX.4.2|9=56|35=0|34=55|49=NESTI|52=20110914-20:22:18.439|56=JMSTRAT|10=183|
8=FIX.4.2|9=56|35=0|34=56|49=NESTI|52=20110914-20:23:18.089|56=JMSTRAT|10=186|
8=FIX.4.2|9=56|35=0|34=63|49=JMSTRAT|52=20110914-20:23:18.089|56=NESTI|10=184|
8=FIX.4.2|9=56|35=0|34=57|49=NESTI|52=20110914-20:24:18.253|56=JMSTRAT|10=181|
8=FIX.4.2|9=56|35=0|34=64|49=JMSTRAT|52=20110914-20:24:18.269|56=NESTI|10=186|
8=FIX.4.2|9=56|35=0|34=58|49=NESTI|52=20110914-20:25:18.418|56=JMSTRAT|10=186|
8=FIX.4.2|9=56|35=0|34=65|49=JMSTRAT|52=20110914-20:25:18.418|56=NESTI|10=184|
8=FIX.4.2|9=56|35=0|34=66|49=JMSTRAT|52=20110914-20:26:18.099|56=NESTI|10=191|
8=FIX.4.2|9=56|35=0|34=59|49=NESTI|52=20110914-20:26:18.099|56=JMSTRAT|10=193|
8=FIX.4.2|9=56|35=0|34=67|49=JMSTRAT|52=20110914-20:27:18.264|56=NESTI|10=187|
8=FIX.4.2|9=56|35=0|34=60|49=NESTI|52=20110914-20:27:18.280|56=JMSTRAT|10=178|
8=FIX.4.2|9=56|35=0|34=68|49=JMSTRAT|52=20110914-20:28:18.429|56=NESTI|10=192|
8=FIX.4.2|9=56|35=0|34=61|49=NESTI|52=20110914-20:28:18.429|56=JMSTRAT|10=185|
8=FIX.4.2|9=56|35=0|34=62|49=NESTI|52=20110914-20:29:18.125|56=JMSTRAT|10=180|
8=FIX.4.2|9=56|35=0|34=69|49=JMSTRAT|52=20110914-20:29:18.125|56=NESTI|10=187|
8=FIX.4.2|9=56|35=0|34=63|49=NESTI|52=20110914-20:30:18.290|56=JMSTRAT|10=176|
8=FIX.4.2|9=56|35=0|34=70|49=JMSTRAT|52=20110914-20:30:18.290|56=NESTI|10=174|
8=FIX.4.2|9=56|35=0|34=64|49=NESTI|52=20110914-20:31:18.486|56=JMSTRAT|10=185|
8=FIX.4.2|9=56|35=0|34=71|49=JMSTRAT|52=20110914-20:31:18.518|56=NESTI|10=179|
8=FIX.4.2|9=56|35=0|34=72|49=JMSTRAT|52=20110914-20:32:18.120|56=NESTI|10=170|
8=FIX.4.2|9=56|35=0|34=65|49=NESTI|52=20110914-20:32:18.120|56=JMSTRAT|10=172|
8=FIX.4.2|9=56|35=0|34=73|49=JMSTRAT|52=20110914-20:33:18.316|56=NESTI|10=179|
8=FIX.4.2|9=56|35=0|34=66|49=NESTI|52=20110914-20:33:18.316|56=JMSTRAT|10=181|
8=FIX.4.2|9=56|35=0|34=67|49=NESTI|52=20110914-20:34:18.012|56=JMSTRAT|10=176|
8=FIX.4.2|9=56|35=0|34=74|49=JMSTRAT|52=20110914-20:34:18.012|56=NESTI|10=174|
8=FIX.4.2|9=56|35=0|34=68|49=NESTI|52=20110914-20:35:18.177|56=JMSTRAT|10=190|
8=FIX.4.2|9=56|35=0|34=75|49=JMSTRAT|52=20110914-20:35:18.177|56=NESTI|10=188|
8=FIX.4.2|9=56|35=0|34=69|49=NESTI|52=20110914-20:36:18.358|56=JMSTRAT|10=193|
8=FIX.4.2|9=56|35=0|34=76|49=JMSTRAT|52=20110914-20:36:18.358|56=NESTI|10=191|
8=FIX.4.2|9=56|35=0|34=70|49=NESTI|52=20110914-20:37:18.539|56=JMSTRAT|10=187|
8=FIX.4.2|9=56|35=0|34=77|49=JMSTRAT|52=20110914-20:37:18.539|56=NESTI|10=194|
8=FIX.4.2|9=56|35=0|34=78|49=JMSTRAT|52=20110914-20:38:18.157|56=NESTI|10=192|
8=FIX.4.2|9=56|35=0|34=71|49=NESTI|52=20110914-20:38:18.157|56=JMSTRAT|10=185|
8=FIX.4.2|9=56|35=0|34=79|49=JMSTRAT|52=20110914-20:39:18.306|56=NESTI|10=190|
8=FIX.4.2|9=56|35=0|34=72|49=NESTI|52=20110914-20:39:18.353|56=JMSTRAT|10=185|
8=FIX.4.2|9=56|35=0|34=73|49=NESTI|52=20110914-20:40:18.033|56=JMSTRAT|10=173|
8=FIX.4.2|9=56|35=0|34=80|49=JMSTRAT|52=20110914-20:40:18.033|56=NESTI|10=171|
8=FIX.4.2|9=56|35=0|34=74|49=NESTI|52=20110914-20:41:18.214|56=JMSTRAT|10=176|
8=FIX.4.2|9=56|35=0|34=81|49=JMSTRAT|52=20110914-20:41:18.245|56=NESTI|10=178|
8=FIX.4.2|9=56|35=0|34=75|49=NESTI|52=20110914-20:42:18.410|56=JMSTRAT|10=176|
8=FIX.4.2|9=56|35=0|34=82|49=JMSTRAT|52=20110914-20:42:18.410|56=NESTI|10=174|
8=FIX.4.2|9=56|35=0|34=76|49=NESTI|52=20110914-20:43:18.575|56=JMSTRAT|10=190|
8=FIX.4.2|9=56|35=0|34=83|49=JMSTRAT|52=20110914-20:43:18.575|56=NESTI|10=188|
8=FIX.4.2|9=56|35=0|34=84|49=JMSTRAT|52=20110914-20:44:18.162|56=NESTI|10=182|
8=FIX.4.2|9=56|35=0|34=77|49=NESTI|52=20110914-20:44:18.162|56=JMSTRAT|10=184|
8=FIX.4.2|9=56|35=0|34=85|49=JMSTRAT|52=20110914-20:45:18.327|56=NESTI|10=187|
8=FIX.4.2|9=56|35=0|34=78|49=NESTI|52=20110914-20:45:18.343|56=JMSTRAT|10=187|
8=FIX.4.2|9=56|35=0|34=79|49=NESTI|52=20110914-20:46:18.070|56=JMSTRAT|10=186|
8=FIX.4.2|9=56|35=0|34=86|49=JMSTRAT|52=20110914-20:46:18.070|56=NESTI|10=184|
8=FIX.4.2|9=67|35=A|34=1|49=JMSTRAT|52=20110915-15:31:34.992|56=NESTI|98=0|108=60|10=180|
8=FIX.4.2|9=67|35=A|34=1|49=NESTI|52=20110915-15:31:35.055|56=JMSTRAT|98=0|108=60|10=171|
8=FIX.4.2|9=158|35=D|34=2|49=JMSTRAT|52=20110915-15:31:50.586|56=NESTI|11=IAA0002|21=1|38=2000|40=1|54=2|55=SUZB5|60=20110915-12:31:50|9304=N|9305=13|9306=190|9307=18|9308=Y|10=099|
8=FIX.4.2|9=152|35=8|34=2|49=NESTI|52=20110915-15:31:50.601|56=JMSTRAT|6=0|11=IAA0002|14=2000|17=001|20=0|31=66.6|32=2000|37=001|38=2000|39=1|54=2|55=SUZB5|150=1|151=0|10=067|
8=FIX.4.2|9=158|35=D|34=3|49=JMSTRAT|52=20110915-15:31:50.648|56=NESTI|11=IAA0004|21=1|38=3900|40=1|54=1|55=KLBN4|60=20110915-12:31:50|9304=N|9305=13|9306=190|9307=18|9308=Y|10=080|
8=FIX.4.2|9=152|35=8|34=3|49=NESTI|52=20110915-15:31:50.648|56=JMSTRAT|6=0|11=IAA0004|14=3900|17=001|20=0|31=66.6|32=3900|37=001|38=3900|39=1|54=1|55=KLBN4|150=1|151=0|10=080|
8=FIX.4.2|9=55|35=0|34=4|49=JMSTRAT|52=20110915-15:32:50.195|56=NESTI|10=129|
8=FIX.4.2|9=55|35=0|34=4|49=NESTI|52=20110915-15:32:50.211|56=JMSTRAT|10=118|
8=FIX.4.2|9=55|35=0|34=5|49=JMSTRAT|52=20110915-15:33:50.211|56=NESTI|10=120|
8=FIX.4.2|9=55|35=0|34=5|49=NESTI|52=20110915-15:33:50.211|56=JMSTRAT|10=120|
8=FIX.4.2|9=67|35=A|34=6|49=JMSTRAT|52=20110915-15:35:21.711|56=NESTI|98=0|108=60|10=174|
8=FIX.4.2|9=67|35=A|34=6|49=NESTI|52=20110915-15:35:21.758|56=JMSTRAT|98=0|108=60|10=185|
8=FIX.4.2|9=55|35=0|34=7|49=NESTI|52=20110915-15:36:21.367|56=JMSTRAT|10=135|
8=FIX.4.2|9=55|35=0|34=7|49=JMSTRAT|52=20110915-15:36:21.367|56=NESTI|10=135|
8=FIX.4.2|9=158|35=D|34=8|49=JMSTRAT|52=20110915-15:36:42.711|56=NESTI|11=IAA0006|21=1|38=2000|40=1|54=2|55=SUZB5|60=20110915-12:36:42|9304=N|9305=13|9306=190|9307=18|9308=Y|10=111|
8=FIX.4.2|9=152|35=8|34=8|49=NESTI|52=20110915-15:36:42.726|56=JMSTRAT|6=0|11=IAA0006|14=2000|17=001|20=0|31=66.6|32=2000|37=001|38=2000|39=1|54=2|55=SUZB5|150=1|151=0|10=091|
8=FIX.4.2|9=158|35=D|34=9|49=JMSTRAT|52=20110915-15:36:42.773|56=NESTI|11=IAA0008|21=1|38=3900|40=1|54=1|55=KLBN4|60=20110915-12:36:42|9304=N|9305=13|9306=190|9307=18|9308=Y|10=101|
8=FIX.4.2|9=152|35=8|34=9|49=NESTI|52=20110915-15:36:42.773|56=JMSTRAT|6=0|11=IAA0008|14=3900|17=001|20=0|31=66.6|32=3900|37=001|38=3900|39=1|54=1|55=KLBN4|150=1|151=0|10=095|
8=FIX.4.2|9=56|35=0|34=10|49=NESTI|52=20110915-15:37:42.367|56=JMSTRAT|10=182|
8=FIX.4.2|9=56|35=0|34=10|49=JMSTRAT|52=20110915-15:37:42.367|56=NESTI|10=182|
8=FIX.4.2|9=56|35=0|34=11|49=NESTI|52=20110915-15:38:42.367|56=JMSTRAT|10=184|
8=FIX.4.2|9=56|35=0|34=11|49=JMSTRAT|52=20110915-15:38:42.367|56=NESTI|10=184|
8=FIX.4.2|9=56|35=0|34=12|49=NESTI|52=20110915-15:39:42.367|56=JMSTRAT|10=186|
8=FIX.4.2|9=56|35=0|34=12|49=JMSTRAT|52=20110915-15:39:42.367|56=NESTI|10=186|
8=FIX.4.2|9=56|35=0|34=13|49=NESTI|52=20110915-15:40:42.367|56=JMSTRAT|10=179|
8=FIX.4.2|9=56|35=0|34=13|49=JMSTRAT|52=20110915-15:40:42.367|56=NESTI|10=179|
8=FIX.4.2|9=56|35=0|34=14|49=NESTI|52=20110915-15:41:42.367|56=JMSTRAT|10=181|
8=FIX.4.2|9=56|35=0|34=14|49=JMSTRAT|52=20110915-15:41:42.367|56=NESTI|10=181|
8=FIX.4.2|9=56|35=0|34=15|49=NESTI|52=20110915-15:42:42.367|56=JMSTRAT|10=183|
8=FIX.4.2|9=56|35=0|34=15|49=JMSTRAT|52=20110915-15:42:42.367|56=NESTI|10=183|
8=FIX.4.2|9=56|35=0|34=16|49=NESTI|52=20110915-15:43:42.367|56=JMSTRAT|10=185|
8=FIX.4.2|9=56|35=0|34=16|49=JMSTRAT|52=20110915-15:43:42.367|56=NESTI|10=185|
8=FIX.4.2|9=56|35=0|34=17|49=NESTI|52=20110915-15:44:42.367|56=JMSTRAT|10=187|
8=FIX.4.2|9=56|35=0|34=17|49=JMSTRAT|52=20110915-15:44:42.367|56=NESTI|10=187|
8=FIX.4.2|9=68|35=A|34=18|49=JMSTRAT|52=20110915-15:47:13.476|56=NESTI|98=0|108=60|10=238|
8=FIX.4.2|9=68|35=A|34=18|49=NESTI|52=20110915-15:47:13.523|56=JMSTRAT|98=0|108=60|10=231|
8=FIX.4.2|9=56|35=0|34=19|49=NESTI|52=20110915-15:48:13.445|56=JMSTRAT|10=188|
8=FIX.4.2|9=56|35=0|34=19|49=JMSTRAT|52=20110915-15:48:13.445|56=NESTI|10=188|
8=FIX.4.2|9=56|35=0|34=20|49=NESTI|52=20110915-15:49:13.445|56=JMSTRAT|10=181|
8=FIX.4.2|9=56|35=0|34=20|49=JMSTRAT|52=20110915-15:49:13.445|56=NESTI|10=181|
8=FIX.4.2|9=68|35=A|34=21|49=JMSTRAT|52=20110915-15:49:36.461|56=NESTI|98=0|108=60|10=233|
8=FIX.4.2|9=68|35=A|34=21|49=NESTI|52=20110915-15:49:36.539|56=JMSTRAT|98=0|108=60|10=239|
8=FIX.4.2|9=68|35=A|34=22|49=JMSTRAT|52=20110915-15:50:45.242|56=NESTI|98=0|108=60|10=223|
8=FIX.4.2|9=68|35=A|34=22|49=NESTI|52=20110915-15:50:45.305|56=JMSTRAT|98=0|108=60|10=223|
8=FIX.4.2|9=56|35=0|34=23|49=JMSTRAT|52=20110915-15:51:45.414|56=NESTI|10=178|
8=FIX.4.2|9=56|35=0|34=23|49=NESTI|52=20110915-15:51:45.414|56=JMSTRAT|10=178|
8=FIX.4.2|9=56|35=0|34=24|49=NESTI|52=20110915-15:52:45.476|56=JMSTRAT|10=188|
8=FIX.4.2|9=65|35=1|34=25|49=NESTI|52=20110915-15:52:57.476|56=JMSTRAT|112=TEST|10=211|
8=FIX.4.2|9=68|35=A|34=24|49=JMSTRAT|52=20110915-15:54:51.351|56=NESTI|98=0|108=60|10=227|
8=FIX.4.2|9=68|35=A|34=26|49=NESTI|52=20110915-15:54:51.398|56=JMSTRAT|98=0|108=60|10=240|
8=FIX.4.2|9=66|35=2|34=25|49=JMSTRAT|52=20110915-15:54:51.414|56=NESTI|7=24|16=0|10=103|
8=FIX.4.2|9=99|35=4|34=24|43=Y|49=NESTI|52=20110915-15:54:51.414|56=JMSTRAT|122=20110915-15:54:51.414|36=27|123=Y|10=252|
8=FIX.4.2|9=56|35=0|34=26|49=JMSTRAT|52=20110915-15:55:51.351|56=NESTI|10=182|
8=FIX.4.2|9=56|35=0|34=27|49=NESTI|52=20110915-15:55:51.351|56=JMSTRAT|10=183|
8=FIX.4.2|9=56|35=0|34=27|49=JMSTRAT|52=20110915-15:56:51.351|56=NESTI|10=184|
8=FIX.4.2|9=56|35=0|34=28|49=NESTI|52=20110915-15:56:51.351|56=JMSTRAT|10=185|
8=FIX.4.2|9=56|35=0|34=28|49=JMSTRAT|52=20110915-15:57:51.351|56=NESTI|10=186|
8=FIX.4.2|9=56|35=0|34=29|49=NESTI|52=20110915-15:57:51.351|56=JMSTRAT|10=187|
8=FIX.4.2|9=56|35=0|34=29|49=JMSTRAT|52=20110915-15:58:51.351|56=NESTI|10=188|
8=FIX.4.2|9=56|35=0|34=30|49=NESTI|52=20110915-15:58:51.351|56=JMSTRAT|10=180|
8=FIX.4.2|9=56|35=0|34=30|49=JMSTRAT|52=20110915-15:59:51.351|56=NESTI|10=181|
8=FIX.4.2|9=56|35=0|34=31|49=NESTI|52=20110915-15:59:51.351|56=JMSTRAT|10=182|
8=FIX.4.2|9=56|35=0|34=31|49=JMSTRAT|52=20110915-16:00:51.351|56=NESTI|10=169|
8=FIX.4.2|9=56|35=0|34=32|49=NESTI|52=20110915-16:00:51.351|56=JMSTRAT|10=170|
8=FIX.4.2|9=56|35=0|34=33|49=NESTI|52=20110915-16:01:51.000|56=JMSTRAT|10=163|
8=FIX.4.2|9=56|35=0|34=32|49=JMSTRAT|52=20110915-16:01:51.000|56=NESTI|10=162|
8=FIX.4.2|9=56|35=0|34=33|49=JMSTRAT|52=20110915-16:02:51.525|56=NESTI|10=176|
8=FIX.4.2|9=56|35=0|34=34|49=NESTI|52=20110915-16:02:51.525|56=JMSTRAT|10=177|
8=FIX.4.2|9=56|35=0|34=34|49=JMSTRAT|52=20110915-16:03:51.225|56=NESTI|10=175|
8=FIX.4.2|9=56|35=0|34=35|49=NESTI|52=20110915-16:03:51.225|56=JMSTRAT|10=176|
8=FIX.4.2|9=56|35=0|34=36|49=NESTI|52=20110915-16:04:51.112|56=JMSTRAT|10=173|
8=FIX.4.2|9=56|35=0|34=35|49=JMSTRAT|52=20110915-16:04:51.112|56=NESTI|10=172|
8=FIX.4.2|9=56|35=0|34=36|49=JMSTRAT|52=20110915-16:05:51.637|56=NESTI|10=186|
8=FIX.4.2|9=56|35=0|34=37|49=NESTI|52=20110915-16:05:51.637|56=JMSTRAT|10=187|
8=FIX.4.2|9=56|35=0|34=37|49=JMSTRAT|52=20110915-16:06:51.436|56=NESTI|10=185|
8=FIX.4.2|9=56|35=0|34=38|49=NESTI|52=20110915-16:06:51.436|56=JMSTRAT|10=186|
8=FIX.4.2|9=56|35=0|34=38|49=JMSTRAT|52=20110915-16:07:51.278|56=NESTI|10=191|
8=FIX.4.2|9=56|35=0|34=39|49=NESTI|52=20110915-16:07:51.278|56=JMSTRAT|10=192|
8=FIX.4.2|9=56|35=0|34=39|49=JMSTRAT|52=20110915-16:08:51.120|56=NESTI|10=179|
8=FIX.4.2|9=56|35=0|34=40|49=NESTI|52=20110915-16:08:51.136|56=JMSTRAT|10=178|
8=FIX.4.2|9=56|35=0|34=41|49=NESTI|52=20110915-16:09:51.150|56=JMSTRAT|10=176|
8=FIX.4.2|9=56|35=0|34=40|49=JMSTRAT|52=20110915-16:09:51.150|56=NESTI|10=175|
8=FIX.4.2|9=56|35=0|34=42|49=NESTI|52=20110915-16:10:51.007|56=JMSTRAT|10=170|
8=FIX.4.2|9=56|35=0|34=41|49=JMSTRAT|52=20110915-16:10:51.007|56=NESTI|10=169|
8=FIX.4.2|9=56|35=0|34=42|49=JMSTRAT|52=20110915-16:11:51.556|56=NESTI|10=180|
8=FIX.4.2|9=56|35=0|34=43|49=NESTI|52=20110915-16:11:51.556|56=JMSTRAT|10=181|
8=FIX.4.2|9=56|35=0|34=43|49=JMSTRAT|52=20110915-16:12:51.246|56=NESTI|10=178|
8=FIX.4.2|9=56|35=0|34=44|49=NESTI|52=20110915-16:12:51.246|56=JMSTRAT|10=179|
8=FIX.4.2|9=56|35=0|34=45|49=NESTI|52=20110915-16:13:51.124|56=JMSTRAT|10=176|
8=FIX.4.2|9=56|35=0|34=44|49=JMSTRAT|52=20110915-16:13:51.124|56=NESTI|10=175|
8=FIX.4.2|9=56|35=0|34=45|49=JMSTRAT|52=20110915-16:14:51.642|56=NESTI|10=182|
8=FIX.4.2|9=56|35=0|34=46|49=NESTI|52=20110915-16:14:51.642|56=JMSTRAT|10=183|
8=FIX.4.2|9=56|35=0|34=46|49=JMSTRAT|52=20110915-16:15:51.332|56=NESTI|10=180|
8=FIX.4.2|9=56|35=0|34=47|49=NESTI|52=20110915-16:15:51.348|56=JMSTRAT|10=188|
8=FIX.4.2|9=56|35=0|34=47|49=JMSTRAT|52=20110915-16:16:51.722|56=NESTI|10=185|
8=FIX.4.2|9=56|35=0|34=48|49=NESTI|52=20110915-16:16:51.722|56=JMSTRAT|10=186|
8=FIX.4.2|9=56|35=0|34=49|49=NESTI|52=20110915-16:17:51.181|56=JMSTRAT|10=187|
8=FIX.4.2|9=56|35=0|34=48|49=JMSTRAT|52=20110915-16:17:51.181|56=NESTI|10=186|
8=FIX.4.2|9=56|35=0|34=49|49=JMSTRAT|52=20110915-16:18:51.217|56=NESTI|10=188|
8=FIX.4.2|9=56|35=0|34=50|49=NESTI|52=20110915-16:18:51.217|56=JMSTRAT|10=180|
8=FIX.4.2|9=56|35=0|34=50|49=JMSTRAT|52=20110915-16:19:51.457|56=NESTI|10=187|
8=FIX.4.2|9=56|35=0|34=51|49=NESTI|52=20110915-16:19:51.457|56=JMSTRAT|10=188|
8=FIX.4.2|9=56|35=0|34=51|49=JMSTRAT|52=20110915-16:20:51.712|56=NESTI|10=174|
8=FIX.4.2|9=56|35=0|34=52|49=NESTI|52=20110915-16:20:51.712|56=JMSTRAT|10=175|
8=FIX.4.2|9=56|35=0|34=53|49=NESTI|52=20110915-16:21:51.081|56=JMSTRAT|10=176|
8=FIX.4.2|9=56|35=0|34=52|49=JMSTRAT|52=20110915-16:21:51.081|56=NESTI|10=175|
8=FIX.4.2|9=56|35=0|34=54|49=NESTI|52=20110915-16:22:51.187|56=JMSTRAT|10=185|
8=FIX.4.2|9=56|35=0|34=53|49=JMSTRAT|52=20110915-16:22:51.187|56=NESTI|10=184|
8=FIX.4.2|9=56|35=0|34=54|49=JMSTRAT|52=20110915-16:23:51.058|56=NESTI|10=183|
8=FIX.4.2|9=56|35=0|34=55|49=NESTI|52=20110915-16:23:51.058|56=JMSTRAT|10=184|
8=FIX.4.2|9=56|35=0|34=55|49=JMSTRAT|52=20110915-16:24:51.148|56=NESTI|10=185|
8=FIX.4.2|9=56|35=0|34=56|49=NESTI|52=20110915-16:24:51.148|56=JMSTRAT|10=186|
8=FIX.4.2|9=56|35=0|34=56|49=JMSTRAT|52=20110915-16:25:51.253|56=NESTI|10=184|
8=FIX.4.2|9=56|35=0|34=57|49=NESTI|52=20110915-16:25:51.253|56=JMSTRAT|10=185|
8=FIX.4.2|9=56|35=0|34=57|49=JMSTRAT|52=20110915-16:26:51.314|56=NESTI|10=184|
8=FIX.4.2|9=56|35=0|34=58|49=NESTI|52=20110915-16:26:51.314|56=JMSTRAT|10=185|
8=FIX.4.2|9=56|35=0|34=58|49=JMSTRAT|52=20110915-16:27:51.344|56=NESTI|10=189|
8=FIX.4.2|9=56|35=0|34=59|49=NESTI|52=20110915-16:27:51.344|56=JMSTRAT|10=190|
8=FIX.4.2|9=56|35=0|34=59|49=JMSTRAT|52=20110915-16:28:51.374|56=NESTI|10=194|
8=FIX.4.2|9=56|35=0|34=60|49=NESTI|52=20110915-16:28:51.374|56=JMSTRAT|10=186|
8=FIX.4.2|9=56|35=0|34=60|49=JMSTRAT|52=20110915-16:29:51.404|56=NESTI|10=181|
8=FIX.4.2|9=56|35=0|34=61|49=NESTI|52=20110915-16:29:51.404|56=JMSTRAT|10=182|
8=FIX.4.2|9=56|35=0|34=61|49=JMSTRAT|52=20110915-16:30:51.434|56=NESTI|10=177|
8=FIX.4.2|9=56|35=0|34=62|49=NESTI|52=20110915-16:30:51.434|56=JMSTRAT|10=178|
8=FIX.4.2|9=56|35=0|34=62|49=JMSTRAT|52=20110915-16:31:51.449|56=NESTI|10=185|
8=FIX.4.2|9=56|35=0|34=63|49=NESTI|52=20110915-16:31:51.449|56=JMSTRAT|10=186|
8=FIX.4.2|9=56|35=0|34=63|49=JMSTRAT|52=20110915-16:32:51.449|56=NESTI|10=187|
8=FIX.4.2|9=56|35=0|34=64|49=NESTI|52=20110915-16:32:51.449|56=JMSTRAT|10=188|
8=FIX.4.2|9=56|35=0|34=64|49=JMSTRAT|52=20110915-16:33:51.464|56=NESTI|10=186|
8=FIX.4.2|9=56|35=0|34=65|49=NESTI|52=20110915-16:33:51.464|56=JMSTRAT|10=187|
8=FIX.4.2|9=56|35=0|34=65|49=JMSTRAT|52=20110915-16:34:51.479|56=NESTI|10=194|
8=FIX.4.2|9=56|35=0|34=66|49=NESTI|52=20110915-16:34:51.479|56=JMSTRAT|10=195|
8=FIX.4.2|9=56|35=0|34=66|49=JMSTRAT|52=20110915-16:35:51.479|56=NESTI|10=196|
8=FIX.4.2|9=56|35=0|34=67|49=NESTI|52=20110915-16:35:51.495|56=JMSTRAT|10=195|
8=FIX.4.2|9=56|35=0|34=67|49=JMSTRAT|52=20110915-16:36:51.494|56=NESTI|10=195|
8=FIX.4.2|9=56|35=0|34=68|49=NESTI|52=20110915-16:36:51.494|56=JMSTRAT|10=196|
8=FIX.4.2|9=56|35=0|34=68|49=JMSTRAT|52=20110915-16:37:51.494|56=NESTI|10=197|
8=FIX.4.2|9=56|35=0|34=69|49=NESTI|52=20110915-16:37:51.494|56=JMSTRAT|10=198|
8=FIX.4.2|9=56|35=0|34=69|49=JMSTRAT|52=20110915-16:38:51.509|56=NESTI|10=196|
8=FIX.4.2|9=56|35=0|34=70|49=NESTI|52=20110915-16:38:51.509|56=JMSTRAT|10=188|
8=FIX.4.2|9=56|35=0|34=70|49=JMSTRAT|52=20110915-16:39:51.524|56=NESTI|10=186|
8=FIX.4.2|9=56|35=0|34=71|49=NESTI|52=20110915-16:39:51.524|56=JMSTRAT|10=187|
8=FIX.4.2|9=56|35=0|34=71|49=JMSTRAT|52=20110915-16:40:51.524|56=NESTI|10=179|
8=FIX.4.2|9=56|35=0|34=72|49=NESTI|52=20110915-16:40:51.524|56=JMSTRAT|10=180|
8=FIX.4.2|9=56|35=0|34=72|49=JMSTRAT|52=20110915-16:41:51.539|56=NESTI|10=187|
8=FIX.4.2|9=56|35=0|34=73|49=NESTI|52=20110915-16:41:51.539|56=JMSTRAT|10=188|
8=FIX.4.2|9=56|35=0|34=73|49=JMSTRAT|52=20110915-16:42:51.539|56=NESTI|10=189|
8=FIX.4.2|9=56|35=0|34=74|49=NESTI|52=20110915-16:42:51.539|56=JMSTRAT|10=190|
8=FIX.4.2|9=56|35=0|34=74|49=JMSTRAT|52=20110915-16:43:51.539|56=NESTI|10=191|
8=FIX.4.2|9=56|35=0|34=75|49=NESTI|52=20110915-16:43:51.539|56=JMSTRAT|10=192|
8=FIX.4.2|9=56|35=0|34=75|49=JMSTRAT|52=20110915-16:44:51.539|56=NESTI|10=193|
8=FIX.4.2|9=56|35=0|34=76|49=NESTI|52=20110915-16:44:51.539|56=JMSTRAT|10=194|
8=FIX.4.2|9=56|35=0|34=76|49=JMSTRAT|52=20110915-16:45:51.539|56=NESTI|10=195|
8=FIX.4.2|9=56|35=0|34=77|49=NESTI|52=20110915-16:45:51.539|56=JMSTRAT|10=196|
8=FIX.4.2|9=56|35=0|34=77|49=JMSTRAT|52=20110915-16:46:51.539|56=NESTI|10=197|
8=FIX.4.2|9=56|35=0|34=78|49=NESTI|52=20110915-16:46:51.571|56=JMSTRAT|10=194|
8=FIX.4.2|9=56|35=0|34=78|49=JMSTRAT|52=20110915-16:47:51.571|56=NESTI|10=195|
8=FIX.4.2|9=56|35=0|34=79|49=NESTI|52=20110915-16:47:51.571|56=JMSTRAT|10=196|
8=FIX.4.2|9=56|35=0|34=79|49=JMSTRAT|52=20110915-16:48:51.571|56=NESTI|10=197|
8=FIX.4.2|9=56|35=0|34=80|49=NESTI|52=20110915-16:48:51.571|56=JMSTRAT|10=189|
8=FIX.4.2|9=56|35=0|34=80|49=JMSTRAT|52=20110915-16:49:51.571|56=NESTI|10=190|
8=FIX.4.2|9=56|35=0|34=81|49=NESTI|52=20110915-16:49:51.571|56=JMSTRAT|10=191|
8=FIX.4.2|9=56|35=0|34=81|49=JMSTRAT|52=20110915-16:50:51.571|56=NESTI|10=183|
8=FIX.4.2|9=56|35=0|34=82|49=NESTI|52=20110915-16:50:51.571|56=JMSTRAT|10=184|
8=FIX.4.2|9=56|35=0|34=82|49=JMSTRAT|52=20110915-16:51:51.571|56=NESTI|10=185|
8=FIX.4.2|9=56|35=0|34=83|49=NESTI|52=20110915-16:51:51.571|56=JMSTRAT|10=186|
8=FIX.4.2|9=67|35=A|34=1|49=JMSTRAT|52=20110916-20:05:20.424|56=NESTI|98=0|108=60|10=163|
8=FIX.4.2|9=67|35=A|34=1|49=NESTI|52=20110916-20:05:20.471|56=JMSTRAT|98=0|108=60|10=165|
8=FIX.4.2|9=158|35=D|34=2|49=JMSTRAT|52=20110916-20:06:03.786|56=NESTI|11=IAA0002|21=1|38=1000|40=1|54=1|55=BBAS3|60=20110916-17:06:03|9304=N|9305=13|9306=186|9307=18|9308=Y|10=061|
8=FIX.4.2|9=152|35=8|34=2|49=NESTI|52=20110916-20:06:03.817|56=JMSTRAT|6=0|11=IAA0002|14=1000|17=001|20=0|31=66.6|32=1000|37=001|38=1000|39=1|54=1|55=BBAS3|150=1|151=0|10=023|
8=FIX.4.2|9=157|35=D|34=3|49=JMSTRAT|52=20110916-20:06:03.833|56=NESTI|11=IAA0004|21=1|38=800|40=1|54=2|55=ITUB4|60=20110916-17:06:03|9304=N|9305=13|9306=186|9307=18|9308=Y|10=045|
8=FIX.4.2|9=149|35=8|34=3|49=NESTI|52=20110916-20:06:03.833|56=JMSTRAT|6=0|11=IAA0004|14=800|17=001|20=0|31=66.6|32=800|37=001|38=800|39=1|54=2|55=ITUB4|150=1|151=0|10=193|
8=FIX.4.2|9=157|35=D|34=4|49=JMSTRAT|52=20110916-20:06:03.880|56=NESTI|11=IAA0006|21=1|38=600|40=1|54=2|55=BISA3|60=20110916-17:06:03|9304=N|9305=13|9306=189|9307=18|9308=Y|10=029|
8=FIX.4.2|9=149|35=8|34=4|49=NESTI|52=20110916-20:06:03.880|56=JMSTRAT|6=0|11=IAA0006|14=600|17=001|20=0|31=66.6|32=600|37=001|38=600|39=1|54=2|55=BISA3|150=1|151=0|10=170|
8=FIX.4.2|9=157|35=D|34=5|49=JMSTRAT|52=20110916-20:06:03.911|56=NESTI|11=IAA0008|21=1|38=500|40=1|54=2|55=BISA3|60=20110916-17:06:03|9304=N|9305=13|9306=189|9307=18|9308=Y|10=026|
8=FIX.4.2|9=149|35=8|34=5|49=NESTI|52=20110916-20:06:03.911|56=JMSTRAT|6=0|11=IAA0008|14=500|17=001|20=0|31=66.6|32=500|37=001|38=500|39=1|54=2|55=BISA3|150=1|151=0|10=165|
8=FIX.4.2|9=157|35=D|34=6|49=JMSTRAT|52=20110916-20:06:03.942|56=NESTI|11=IAA0010|21=1|38=700|40=1|54=2|55=BISA3|60=20110916-17:06:03|9304=N|9305=13|9306=189|9307=18|9308=Y|10=026|
8=FIX.4.2|9=149|35=8|34=6|49=NESTI|52=20110916-20:06:03.942|56=JMSTRAT|6=0|11=IAA0010|14=700|17=001|20=0|31=66.6|32=700|37=001|38=700|39=1|54=2|55=BISA3|150=1|151=0|10=169|
8=FIX.4.2|9=157|35=D|34=7|49=JMSTRAT|52=20110916-20:06:03.958|56=NESTI|11=IAA0012|21=1|38=600|40=1|54=2|55=BISA3|60=20110916-17:06:03|9304=N|9305=13|9306=189|9307=18|9308=Y|10=035|
8=FIX.4.2|9=149|35=8|34=7|49=NESTI|52=20110916-20:06:03.974|56=JMSTRAT|6=0|11=IAA0012|14=600|17=001|20=0|31=66.6|32=600|37=001|38=600|39=1|54=2|55=BISA3|150=1|151=0|10=174|
8=FIX.4.2|9=157|35=D|34=8|49=JMSTRAT|52=20110916-20:06:03.989|56=NESTI|11=IAA0014|21=1|38=700|40=1|54=2|55=BISA3|60=20110916-17:06:03|9304=N|9305=13|9306=189|9307=18|9308=Y|10=043|
8=FIX.4.2|9=149|35=8|34=8|49=NESTI|52=20110916-20:06:04.005|56=JMSTRAT|6=0|11=IAA0014|14=700|17=001|20=0|31=66.6|32=700|37=001|38=700|39=1|54=2|55=BISA3|150=1|151=0|10=166|
8=FIX.4.2|9=157|35=D|34=9|49=JMSTRAT|52=20110916-20:06:04.020|56=NESTI|11=IAA0016|21=1|38=600|40=1|54=2|55=BISA3|60=20110916-17:06:04|9304=N|9305=13|9306=189|9307=18|9308=Y|10=023|
8=FIX.4.2|9=149|35=8|34=9|49=NESTI|52=20110916-20:06:04.020|56=JMSTRAT|6=0|11=IAA0016|14=600|17=001|20=0|31=66.6|32=600|37=001|38=600|39=1|54=2|55=BISA3|150=1|151=0|10=163|
8=FIX.4.2|9=158|35=D|34=10|49=JMSTRAT|52=20110916-20:06:04.052|56=NESTI|11=IAA0018|21=1|38=700|40=1|54=2|55=BISA3|60=20110916-17:06:04|9304=N|9305=13|9306=189|9307=18|9308=Y|10=072|
8=FIX.4.2|9=150|35=8|34=10|49=NESTI|52=20110916-20:06:04.052|56=JMSTRAT|6=0|11=IAA0018|14=700|17=001|20=0|31=66.6|32=700|37=001|38=700|39=1|54=2|55=BISA3|150=1|151=0|10=205|
8=FIX.4.2|9=158|35=D|34=11|49=JMSTRAT|52=20110916-20:06:04.130|56=NESTI|11=IAA0020|21=1|38=100|40=1|54=1|55=CYRE3|60=20110916-17:06:04|9304=N|9305=13|9306=189|9307=18|9308=Y|10=076|
8=FIX.4.2|9=150|35=8|34=11|49=NESTI|52=20110916-20:06:04.130|56=JMSTRAT|6=0|11=IAA0020|14=100|17=001|20=0|31=66.6|32=100|37=001|38=100|39=1|54=1|55=CYRE3|150=1|151=0|10=197|
8=FIX.4.2|9=158|35=D|34=12|49=JMSTRAT|52=20110916-20:06:04.177|56=NESTI|11=IAA0022|21=1|38=400|40=1|54=1|55=EZTC3|60=20110916-17:06:04|9304=N|9305=13|9306=189|9307=18|9308=Y|10=096|
8=FIX.4.2|9=150|35=8|34=12|49=NESTI|52=20110916-20:06:04.177|56=JMSTRAT|6=0|11=IAA0022|14=400|17=001|20=0|31=66.6|32=400|37=001|38=400|39=1|54=1|55=EZTC3|150=1|151=0|10=223|
8=FIX.4.2|9=158|35=D|34=13|49=JMSTRAT|52=20110916-20:06:04.224|56=NESTI|11=IAA0024|21=1|38=300|40=1|54=1|55=EZTC3|60=20110916-17:06:04|9304=N|9305=13|9306=189|9307=18|9308=Y|10=091|
8=FIX.4.2|9=150|35=8|34=13|49=NESTI|52=20110916-20:06:04.224|56=JMSTRAT|6=0|11=IAA0024|14=300|17=001|20=0|31=66.6|32=300|37=001|38=300|39=1|54=1|55=EZTC3|150=1|151=0|10=216|
8=FIX.4.2|9=158|35=D|34=14|49=JMSTRAT|52=20110916-20:06:04.286|56=NESTI|11=IAA0026|21=1|38=300|40=1|54=1|55=EZTC3|60=20110916-17:06:04|9304=N|9305=13|9306=189|9307=18|9308=Y|10=102|
8=FIX.4.2|9=150|35=8|34=14|49=NESTI|52=20110916-20:06:04.286|56=JMSTRAT|6=0|11=IAA0026|14=300|17=001|20=0|31=66.6|32=300|37=001|38=300|39=1|54=1|55=EZTC3|150=1|151=0|10=227|
8=FIX.4.2|9=158|35=D|34=15|49=JMSTRAT|52=20110916-20:06:04.317|56=NESTI|11=IAA0028|21=1|38=300|40=1|54=1|55=EZTC3|60=20110916-17:06:04|9304=N|9305=13|9306=189|9307=18|9308=Y|10=100|
8=FIX.4.2|9=150|35=8|34=15|49=NESTI|52=20110916-20:06:04.333|56=JMSTRAT|6=0|11=IAA0028|14=300|17=001|20=0|31=66.6|32=300|37=001|38=300|39=1|54=1|55=EZTC3|150=1|151=0|10=223|
8=FIX.4.2|9=158|35=D|34=16|49=JMSTRAT|52=20110916-20:06:04.348|56=NESTI|11=IAA0030|21=1|38=300|40=1|54=1|55=EZTC3|60=20110916-17:06:04|9304=N|9305=13|9306=189|9307=18|9308=Y|10=098|
8=FIX.4.2|9=150|35=8|34=16|49=NESTI|52=20110916-20:06:04.348|56=JMSTRAT|6=0|11=IAA0030|14=300|17=001|20=0|31=66.6|32=300|37=001|38=300|39=1|54=1|55=EZTC3|150=1|151=0|10=223|
8=FIX.4.2|9=158|35=D|34=17|49=JMSTRAT|52=20110916-20:06:04.395|56=NESTI|11=IAA0032|21=1|38=700|40=1|54=1|55=GFSA3|60=20110916-17:06:04|9304=N|9305=13|9306=189|9307=18|9308=Y|10=086|
8=FIX.4.2|9=150|35=8|34=17|49=NESTI|52=20110916-20:06:04.411|56=JMSTRAT|6=0|11=IAA0032|14=700|17=001|20=0|31=66.6|32=700|37=001|38=700|39=1|54=1|55=GFSA3|150=1|151=0|10=208|
8=FIX.4.2|9=158|35=D|34=18|49=JMSTRAT|52=20110916-20:06:04.505|56=NESTI|11=IAA0034|21=1|38=100|40=1|54=1|55=MRVE3|60=20110916-17:06:04|9304=N|9305=13|9306=189|9307=18|9308=Y|10=101|
8=FIX.4.2|9=150|35=8|34=18|49=NESTI|52=20110916-20:06:04.505|56=JMSTRAT|6=0|11=IAA0034|14=100|17=001|20=0|31=66.6|32=100|37=001|38=100|39=1|54=1|55=MRVE3|150=1|151=0|10=222|
8=FIX.4.2|9=158|35=D|34=19|49=JMSTRAT|52=20110916-20:06:04.536|56=NESTI|11=IAA0036|21=1|38=600|40=1|54=1|55=PDGR3|60=20110916-17:06:04|9304=N|9305=13|9306=189|9307=18|9308=Y|10=100|
8=FIX.4.2|9=150|35=8|34=19|49=NESTI|52=20110916-20:06:04.536|56=JMSTRAT|6=0|11=IAA0036|14=600|17=001|20=0|31=66.6|32=600|37=001|38=600|39=1|54=1|55=PDGR3|150=1|151=0|10=231|
8=FIX.4.2|9=158|35=D|34=20|49=JMSTRAT|52=20110916-20:06:04.614|56=NESTI|11=IAA0038|21=1|38=200|40=1|54=1|55=RSID3|60=20110916-17:06:04|9304=N|9305=13|9306=189|9307=18|9308=Y|10=092|
8=FIX.4.2|9=150|35=8|34=20|49=NESTI|52=20110916-20:06:04.614|56=JMSTRAT|6=0|11=IAA0038|14=200|17=001|20=0|31=66.6|32=200|37=001|38=200|39=1|54=1|55=RSID3|150=1|151=0|10=215|
8=FIX.4.2|9=158|35=D|34=21|49=JMSTRAT|52=20110916-20:06:04.645|56=NESTI|11=IAA0040|21=1|38=500|40=1|54=1|55=TCSA3|60=20110916-17:06:04|9304=N|9305=13|9306=189|9307=18|9308=Y|10=086|
8=FIX.4.2|9=150|35=8|34=21|49=NESTI|52=20110916-20:06:04.661|56=JMSTRAT|6=0|11=IAA0040|14=500|17=001|20=0|31=66.6|32=500|37=001|38=500|39=1|54=1|55=TCSA3|150=1|151=0|10=213|
8=FIX.4.2|9=158|35=D|34=22|49=JMSTRAT|52=20110916-20:06:04.692|56=NESTI|11=IAA0042|21=1|38=500|40=1|54=2|55=EVEN3|60=20110916-17:06:04|9304=N|9305=13|9306=189|9307=18|9308=Y|10=095|
8=FIX.4.2|9=150|35=8|34=22|49=NESTI|52=20110916-20:06:04.692|56=JMSTRAT|6=0|11=IAA0042|14=500|17=001|20=0|31=66.6|32=500|37=001|38=500|39=1|54=2|55=EVEN3|150=1|151=0|10=224|
8=FIX.4.2|9=159|35=D|34=23|49=JMSTRAT|52=20110916-20:06:04.739|56=NESTI|11=IAA0044|21=1|38=2000|40=1|54=2|55=SUZB5|60=20110916-17:06:04|9304=N|9305=13|9306=190|9307=18|9308=Y|10=162|
8=FIX.4.2|9=153|35=8|34=23|49=NESTI|52=20110916-20:06:04.739|56=JMSTRAT|6=0|11=IAA0044|14=2000|17=001|20=0|31=66.6|32=2000|37=001|38=2000|39=1|54=2|55=SUZB5|150=1|151=0|10=135|
8=FIX.4.2|9=159|35=D|34=24|49=JMSTRAT|52=20110916-20:06:04.770|56=NESTI|11=IAA0046|21=1|38=4100|40=1|54=1|55=KLBN4|60=20110916-17:06:04|9304=N|9305=13|9306=190|9307=18|9308=Y|10=132|
8=FIX.4.2|9=153|35=8|34=24|49=NESTI|52=20110916-20:06:04.770|56=JMSTRAT|6=0|11=IAA0046|14=4100|17=001|20=0|31=66.6|32=4100|37=001|38=4100|39=1|54=1|55=KLBN4|150=1|151=0|10=111|
8=FIX.4.2|9=159|35=D|34=25|49=JMSTRAT|52=20110916-20:06:04.817|56=NESTI|11=IAA0048|21=1|38=2300|40=1|54=1|55=ALSC3|60=20110916-17:06:04|9304=N|9305=13|9306=188|9307=18|9308=Y|10=139|
8=FIX.4.2|9=153|35=8|34=25|49=NESTI|52=20110916-20:06:04.817|56=JMSTRAT|6=0|11=IAA0048|14=2300|17=001|20=0|31=66.6|32=2300|37=001|38=2300|39=1|54=1|55=ALSC3|150=1|151=0|10=111|
8=FIX.4.2|9=159|35=D|34=26|49=JMSTRAT|52=20110916-20:06:04.848|56=NESTI|11=IAA0050|21=1|38=2500|40=1|54=1|55=ALSC3|60=20110916-17:06:04|9304=N|9305=13|9306=188|9307=18|9308=Y|10=139|
8=FIX.4.2|9=153|35=8|34=26|49=NESTI|52=20110916-20:06:04.864|56=JMSTRAT|6=0|11=IAA0050|14=2500|17=001|20=0|31=66.6|32=2500|37=001|38=2500|39=1|54=1|55=ALSC3|150=1|151=0|10=113|
8=FIX.4.2|9=159|35=D|34=27|49=JMSTRAT|52=20110916-20:06:04.880|56=NESTI|11=IAA0052|21=1|38=1200|40=1|54=2|55=BRPR3|60=20110916-17:06:04|9304=N|9305=13|9306=188|9307=18|9308=Y|10=154|
8=FIX.4.2|9=153|35=8|34=27|49=NESTI|52=20110916-20:06:04.895|56=JMSTRAT|6=0|11=IAA0052|14=1200|17=001|20=0|31=66.6|32=1200|37=001|38=1200|39=1|54=2|55=BRPR3|150=1|151=0|10=128|
8=FIX.4.2|9=159|35=D|34=28|49=JMSTRAT|52=20110916-20:06:04.911|56=NESTI|11=IAA0054|21=1|38=1700|40=1|54=2|55=BRPR3|60=20110916-17:06:04|9304=N|9305=13|9306=188|9307=18|9308=Y|10=157|
8=FIX.4.2|9=153|35=8|34=28|49=NESTI|52=20110916-20:06:04.911|56=JMSTRAT|6=0|11=IAA0054|14=1700|17=001|20=0|31=66.6|32=1700|37=001|38=1700|39=1|54=2|55=BRPR3|150=1|151=0|10=135|
8=FIX.4.2|9=158|35=D|34=29|49=JMSTRAT|52=20110916-20:06:04.958|56=NESTI|11=IAA0056|21=1|38=800|40=1|54=2|55=MULT3|60=20110916-17:06:04|9304=N|9305=13|9306=188|9307=18|9308=Y|10=134|
8=FIX.4.2|9=150|35=8|34=29|49=NESTI|52=20110916-20:06:04.958|56=JMSTRAT|6=0|11=IAA0056|14=800|17=001|20=0|31=66.6|32=800|37=001|38=800|39=1|54=2|55=MULT3|150=1|151=0|10=014|
8=FIX.4.2|9=158|35=D|34=30|49=JMSTRAT|52=20110916-20:06:04.989|56=NESTI|11=IAA0058|21=1|38=500|40=1|54=2|55=MULT3|60=20110916-17:06:04|9304=N|9305=13|9306=188|9307=18|9308=Y|10=129|
8=FIX.4.2|9=150|35=8|34=30|49=NESTI|52=20110916-20:06:04.989|56=JMSTRAT|6=0|11=IAA0058|14=500|17=001|20=0|31=66.6|32=500|37=001|38=500|39=1|54=2|55=MULT3|150=1|151=0|10=003|
8=FIX.4.2|9=159|35=D|34=31|49=JMSTRAT|52=20110916-20:06:05.051|56=NESTI|11=IAA0060|21=1|38=1400|40=1|54=1|55=BRML3|60=20110916-17:06:05|9304=N|9305=13|9306=188|9307=18|9308=Y|10=132|
8=FIX.4.2|9=153|35=8|34=31|49=NESTI|52=20110916-20:06:05.051|56=JMSTRAT|6=0|11=IAA0060|14=1400|17=001|20=0|31=66.6|32=1400|37=001|38=1400|39=1|54=1|55=BRML3|150=1|151=0|10=103|
8=FIX.4.2|9=158|35=D|34=32|49=JMSTRAT|52=20110916-20:06:05.098|56=NESTI|11=IAA0062|21=1|38=800|40=1|54=1|55=BRML3|60=20110916-17:06:05|9304=N|9305=13|9306=188|9307=18|9308=Y|10=100|
8=FIX.4.2|9=150|35=8|34=32|49=NESTI|52=20110916-20:06:05.098|56=JMSTRAT|6=0|11=IAA0062|14=800|17=001|20=0|31=66.6|32=800|37=001|38=800|39=1|54=1|55=BRML3|150=1|151=0|10=235|
8=FIX.4.2|9=158|35=D|34=33|49=JMSTRAT|52=20110916-20:06:05.161|56=NESTI|11=IAA0064|21=1|38=400|40=1|54=1|55=CCRO3|60=20110916-17:06:05|9304=N|9305=13|9306=193|9307=18|9308=Y|10=080|
8=FIX.4.2|9=150|35=8|34=33|49=NESTI|52=20110916-20:06:05.176|56=JMSTRAT|6=0|11=IAA0064|14=400|17=001|20=0|31=66.6|32=400|37=001|38=400|39=1|54=1|55=CCRO3|150=1|151=0|10=217|
8=FIX.4.2|9=159|35=D|34=34|49=JMSTRAT|52=20110916-20:06:05.223|56=NESTI|11=IAA0066|21=1|38=1200|40=1|54=2|55=GOLL4|60=20110916-17:06:05|9304=N|9305=13|9306=193|9307=18|9308=Y|10=139|
8=FIX.4.2|9=153|35=8|34=34|49=NESTI|52=20110916-20:06:05.254|56=JMSTRAT|6=0|11=IAA0066|14=1200|17=001|20=0|31=66.6|32=1200|37=001|38=1200|39=1|54=2|55=GOLL4|150=1|151=0|10=114|
8=FIX.4.2|9=56|35=0|34=35|49=JMSTRAT|52=20110916-20:07:05.127|56=NESTI|10=176|
8=FIX.4.2|9=56|35=0|34=35|49=NESTI|52=20110916-20:07:05.158|56=JMSTRAT|10=180|
8=FIX.4.2|9=56|35=0|34=36|49=JMSTRAT|52=20110916-20:08:05.562|56=NESTI|10=181|
8=FIX.4.2|9=56|35=0|34=36|49=NESTI|52=20110916-20:08:05.562|56=JMSTRAT|10=181|
8=FIX.4.2|9=56|35=0|34=37|49=JMSTRAT|52=20110916-20:09:05.013|56=NESTI|10=174|
8=FIX.4.2|9=56|35=0|34=37|49=NESTI|52=20110916-20:09:05.013|56=JMSTRAT|10=174|
8=FIX.4.2|9=56|35=0|34=38|49=JMSTRAT|52=20110916-20:10:05.432|56=NESTI|10=172|
8=FIX.4.2|9=56|35=0|34=38|49=NESTI|52=20110916-20:10:05.432|56=JMSTRAT|10=172|
8=FIX.4.2|9=56|35=0|34=39|49=NESTI|52=20110916-20:11:05.164|56=JMSTRAT|10=176|
8=FIX.4.2|9=56|35=0|34=39|49=JMSTRAT|52=20110916-20:11:05.164|56=NESTI|10=176|
8=FIX.4.2|9=56|35=0|34=40|49=JMSTRAT|52=20110916-20:12:05.006|56=NESTI|10=164|
8=FIX.4.2|9=56|35=0|34=40|49=NESTI|52=20110916-20:12:05.006|56=JMSTRAT|10=164|
8=FIX.4.2|9=56|35=0|34=41|49=NESTI|52=20110916-20:13:05.050|56=JMSTRAT|10=165|
8=FIX.4.2|9=56|35=0|34=41|49=JMSTRAT|52=20110916-20:13:05.050|56=NESTI|10=165|
8=FIX.4.2|9=56|35=0|34=42|49=NESTI|52=20110916-20:14:05.485|56=JMSTRAT|10=179|
8=FIX.4.2|9=56|35=0|34=42|49=JMSTRAT|52=20110916-20:14:05.485|56=NESTI|10=179|
8=FIX.4.2|9=56|35=0|34=43|49=JMSTRAT|52=20110916-20:15:05.295|56=NESTI|10=180|
8=FIX.4.2|9=56|35=0|34=43|49=NESTI|52=20110916-20:15:05.295|56=JMSTRAT|10=180|
8=FIX.4.2|9=56|35=0|34=44|49=NESTI|52=20110916-20:16:05.386|56=JMSTRAT|10=183|
8=FIX.4.2|9=56|35=0|34=44|49=JMSTRAT|52=20110916-20:16:05.386|56=NESTI|10=183|
8=FIX.4.2|9=56|35=0|34=45|49=JMSTRAT|52=20110916-20:17:05.197|56=NESTI|10=185|
8=FIX.4.2|9=56|35=0|34=45|49=NESTI|52=20110916-20:17:05.197|56=JMSTRAT|10=185|
8=FIX.4.2|9=67|35=A|34=1|49=JMSTRAT|52=20111017-18:57:10.774|56=NESTI|98=0|108=60|10=177|
8=FIX.4.2|9=67|35=A|34=1|49=NESTI|52=20111017-18:57:10.915|56=JMSTRAT|98=0|108=60|10=174|
8=FIX.4.2|9=157|35=D|34=2|49=JMSTRAT|52=20111017-18:57:44.493|56=NESTI|11=IAA0002|21=1|38=100|40=1|54=2|55=BBAS3|60=20111017-16:57:44|9304=N|9305=13|9306=186|9307=18|9308=Y|10=022|
8=FIX.4.2|9=149|35=8|34=2|49=NESTI|52=20111017-18:57:44.509|56=JMSTRAT|6=0|11=IAA0002|14=100|17=001|20=0|31=66.6|32=100|37=001|38=100|39=1|54=2|55=BBAS3|150=1|151=0|10=151|
8=FIX.4.2|9=157|35=D|34=3|49=JMSTRAT|52=20111017-18:58:41.682|56=NESTI|11=IAA0004|21=1|38=100|40=1|54=1|55=BBAS3|60=20111017-16:58:41|9304=N|9305=13|9306=186|9307=18|9308=Y|10=020|
8=FIX.4.2|9=149|35=8|34=3|49=NESTI|52=20111017-18:58:41.682|56=JMSTRAT|6=0|11=IAA0004|14=100|17=001|20=0|31=66.6|32=100|37=001|38=100|39=1|54=1|55=BBAS3|150=1|151=0|10=153|
8=FIX.4.2|9=67|35=A|34=8|49=JMSTRAT|52=20111017-19:45:28.077|56=NESTI|98=0|108=60|10=187|
8=FIX.4.2|9=67|35=A|34=4|49=NESTI|52=20111017-19:45:28.171|56=JMSTRAT|98=0|108=60|10=178|
8=FIX.4.2|9=64|35=2|34=5|49=NESTI|52=20111017-19:45:28.186|56=JMSTRAT|7=4|16=0|10=009|
8=FIX.4.2|9=97|35=4|34=4|43=Y|49=JMSTRAT|52=20111017-19:45:28.202|56=NESTI|122=20111017-19:45:28.202|36=9|123=Y|10=146|
8=FIX.4.2|9=55|35=0|34=9|49=JMSTRAT|52=20111017-19:46:28.062|56=NESTI|10=135|
8=FIX.4.2|9=55|35=0|34=6|49=NESTI|52=20111017-19:46:28.078|56=JMSTRAT|10=139|
8=FIX.4.2|9=56|35=0|34=10|49=JMSTRAT|52=20111017-19:47:28.063|56=NESTI|10=178|
8=FIX.4.2|9=55|35=0|34=7|49=NESTI|52=20111017-19:47:28.063|56=JMSTRAT|10=135|
8=FIX.4.2|9=56|35=0|34=11|49=JMSTRAT|52=20111017-19:48:28.064|56=NESTI|10=181|
8=FIX.4.2|9=55|35=0|34=8|49=NESTI|52=20111017-19:48:28.064|56=JMSTRAT|10=138|
8=FIX.4.2|9=56|35=0|34=12|49=JMSTRAT|52=20111017-19:49:28.080|56=NESTI|10=181|
8=FIX.4.2|9=55|35=0|34=9|49=NESTI|52=20111017-19:49:28.080|56=JMSTRAT|10=138|
8=FIX.4.2|9=56|35=0|34=13|49=JMSTRAT|52=20111017-19:50:28.081|56=NESTI|10=175|
8=FIX.4.2|9=56|35=0|34=10|49=NESTI|52=20111017-19:50:28.081|56=JMSTRAT|10=172|
8=FIX.4.2|9=158|35=D|34=14|49=JMSTRAT|52=20111017-19:50:53.206|56=NESTI|11=IAA0010|21=1|38=800|40=1|54=1|55=PDGR3|60=20111017-17:50:53|9304=N|9305=13|9306=189|9307=18|9308=Y|10=083|
8=FIX.4.2|9=150|35=8|34=11|49=NESTI|52=20111017-19:51:18.816|56=JMSTRAT|6=0|11=IAA0010|14=800|17=001|20=0|31=66.6|32=800|37=001|38=800|39=1|54=1|55=PDGR3|150=1|151=0|10=228|
8=FIX.4.2|9=158|35=D|34=15|49=JMSTRAT|52=20111017-19:50:53.237|56=NESTI|11=IAA0012|21=1|38=600|40=1|54=1|55=PDGR3|60=20111017-17:50:53|9304=N|9305=13|9306=189|9307=18|9308=Y|10=088|
8=FIX.4.2|9=150|35=8|34=12|49=NESTI|52=20111017-19:51:36.394|56=JMSTRAT|6=0|11=IAA0012|14=600|17=001|20=0|31=66.6|32=600|37=001|38=600|39=1|54=1|55=PDGR3|150=1|151=0|10=226|
8=FIX.4.2|9=158|35=D|34=16|49=JMSTRAT|52=20111017-19:50:53.284|56=NESTI|11=IAA0014|21=1|38=900|40=1|54=1|55=PDGR3|60=20111017-17:50:53|9304=N|9305=13|9306=189|9307=18|9308=Y|10=096|
8=FIX.4.2|9=150|35=8|34=13|49=NESTI|52=20111017-19:51:44.488|56=JMSTRAT|6=0|11=IAA0014|14=900|17=001|20=0|31=66.6|32=900|37=001|38=900|39=1|54=1|55=PDGR3|150=1|151=0|10=241|
8=FIX.4.2|9=158|35=D|34=17|49=JMSTRAT|52=20111017-19:50:53.315|56=NESTI|11=IAA0016|21=1|38=900|40=1|54=1|55=PDGR3|60=20111017-17:50:53|9304=N|9305=13|9306=189|9307=18|9308=Y|10=094|
8=FIX.4.2|9=150|35=8|34=14|49=NESTI|52=20111017-19:52:03.269|56=JMSTRAT|6=0|11=IAA0016|14=900|17=001|20=0|31=66.6|32=900|37=001|38=900|39=1|54=1|55=PDGR3|150=1|151=0|10=237|
8=FIX.4.2|9=158|35=D|34=18|49=JMSTRAT|52=20111017-19:50:54.722|56=NESTI|11=IAA0018|21=1|38=600|40=1|54=2|55=TCSA3|60=20111017-17:50:54|9304=N|9305=13|9306=189|9307=18|9308=Y|10=097|
8=FIX.4.2|9=150|35=8|34=15|49=NESTI|52=20111017-19:52:32.707|56=JMSTRAT|6=0|11=IAA0018|14=600|17=001|20=0|31=66.6|32=600|37=001|38=600|39=1|54=2|55=TCSA3|150=1|151=0|10=229|
8=FIX.4.2|9=158|35=D|34=19|49=JMSTRAT|52=20111017-19:50:54.753|56=NESTI|11=IAA0020|21=1|38=400|40=1|54=2|55=EZTC3|60=20111017-17:50:54|9304=N|9305=13|9306=189|9307=18|9308=Y|10=104|
8=FIX.4.2|9=150|35=8|34=16|49=NESTI|52=20111017-19:52:55.473|56=JMSTRAT|6=0|11=IAA0020|14=400|17=001|20=0|31=66.6|32=400|37=001|38=400|39=1|54=2|55=EZTC3|150=1|151=0|10=233|
8=FIX.4.2|9=158|35=D|34=20|49=JMSTRAT|52=20111017-19:50:54.784|56=NESTI|11=IAA0022|21=1|38=600|40=1|54=2|55=MRVE3|60=20111017-17:50:54|9304=N|9305=13|9306=189|9307=18|9308=Y|10=108|
8=FIX.4.2|9=150|35=8|34=17|49=NESTI|52=20111017-19:52:55.489|56=JMSTRAT|6=0|11=IAA0022|14=600|17=001|20=0|31=66.6|32=600|37=001|38=600|39=1|54=2|55=MRVE3|150=1|151=0|10=253|
8=FIX.4.2|9=158|35=D|34=21|49=JMSTRAT|52=20111017-19:50:54.831|56=NESTI|11=IAA0024|21=1|38=600|40=1|54=2|55=RSID3|60=20111017-17:50:54|9304=N|9305=13|9306=189|9307=18|9308=Y|10=096|
8=FIX.4.2|9=150|35=8|34=18|49=NESTI|52=20111017-19:52:55.489|56=JMSTRAT|6=0|11=IAA0024|14=600|17=001|20=0|31=66.6|32=600|37=001|38=600|39=1|54=2|55=RSID3|150=1|151=0|10=248|
8=FIX.4.2|9=158|35=D|34=22|49=JMSTRAT|52=20111017-19:50:54.862|56=NESTI|11=IAA0026|21=1|38=800|40=1|54=1|55=FIBR3|60=20111017-17:50:54|9304=N|9305=13|9306=190|9307=18|9308=Y|10=081|
8=FIX.4.2|9=150|35=8|34=19|49=NESTI|52=20111017-19:52:55.489|56=JMSTRAT|6=0|11=IAA0026|14=800|17=001|20=0|31=66.6|32=800|37=001|38=800|39=1|54=1|55=FIBR3|150=1|151=0|10=241|
8=FIX.4.2|9=159|35=D|34=23|49=JMSTRAT|52=20111017-19:50:54.909|56=NESTI|11=IAA0028|21=1|38=1800|40=1|54=2|55=SUZB5|60=20111017-17:50:54|9304=N|9305=13|9306=190|9307=18|9308=Y|10=172|
8=FIX.4.2|9=153|35=8|34=20|49=NESTI|52=20111017-19:52:55.489|56=JMSTRAT|6=0|11=IAA0028|14=1800|17=001|20=0|31=66.6|32=1800|37=001|38=1800|39=1|54=2|55=SUZB5|150=1|151=0|10=165|
8=FIX.4.2|9=159|35=D|34=24|49=JMSTRAT|52=20111017-19:50:54.940|56=NESTI|11=IAA0030|21=1|38=3300|40=1|54=1|55=ALSC3|60=20111017-17:50:54|9304=N|9305=13|9306=188|9307=18|9308=Y|10=129|
8=FIX.4.2|9=153|35=8|34=21|49=NESTI|52=20111017-19:52:55.489|56=JMSTRAT|6=0|11=IAA0030|14=3300|17=001|20=0|31=66.6|32=3300|37=001|38=3300|39=1|54=1|55=ALSC3|150=1|151=0|10=114|
8=FIX.4.2|9=159|35=D|34=25|49=JMSTRAT|52=20111017-19:50:54.987|56=NESTI|11=IAA0032|21=1|38=1700|40=1|54=2|55=BRPR3|60=20111017-17:50:54|9304=N|9305=13|9306=188|9307=18|9308=Y|10=165|
8=FIX.4.2|9=153|35=8|34=22|49=NESTI|52=20111017-19:52:55.489|56=JMSTRAT|6=0|11=IAA0032|14=1700|17=001|20=0|31=66.6|32=1700|37=001|38=1700|39=1|54=2|55=BRPR3|150=1|151=0|10=143|
8=FIX.4.2|9=159|35=D|34=26|49=JMSTRAT|52=20111017-19:50:55.003|56=NESTI|11=IAA0034|21=1|38=1000|40=1|54=2|55=BRPR3|60=20111017-17:50:55|9304=N|9305=13|9306=188|9307=18|9308=Y|10=142|
8=FIX.4.2|9=153|35=8|34=23|49=NESTI|52=20111017-19:52:55.505|56=JMSTRAT|6=0|11=IAA0034|14=1000|17=001|20=0|31=66.6|32=1000|37=001|38=1000|39=1|54=2|55=BRPR3|150=1|151=0|10=114|
8=FIX.4.2|9=158|35=D|34=27|49=JMSTRAT|52=20111017-19:50:55.034|56=NESTI|11=IAA0036|21=1|38=800|40=1|54=1|55=BRML3|60=20111017-17:50:55|9304=N|9305=13|9306=188|9307=18|9308=Y|10=097|
8=FIX.4.2|9=150|35=8|34=24|49=NESTI|52=20111017-19:52:55.505|56=JMSTRAT|6=0|11=IAA0036|14=800|17=001|20=0|31=66.6|32=800|37=001|38=800|39=1|54=1|55=BRML3|150=1|151=0|10=237|
8=FIX.4.2|9=158|35=D|34=28|49=JMSTRAT|52=20111017-19:50:55.081|56=NESTI|11=IAA0038|21=1|38=500|40=1|54=2|55=IGTA3|60=20111017-17:50:55|9304=N|9305=13|9306=188|9307=18|9308=Y|10=092|
8=FIX.4.2|9=150|35=8|34=25|49=NESTI|52=20111017-19:52:55.505|56=JMSTRAT|6=0|11=IAA0038|14=500|17=001|20=0|31=66.6|32=500|37=001|38=500|39=1|54=2|55=IGTA3|150=1|151=0|10=224|
8=FIX.4.2|9=158|35=D|34=29|49=JMSTRAT|52=20111017-19:50:55.128|56=NESTI|11=IAA0040|21=1|38=600|40=1|54=1|55=MULT3|60=20111017-17:50:55|9304=N|9305=13|9306=188|9307=18|9308=Y|10=117|
8=FIX.4.2|9=150|35=8|34=26|49=NESTI|52=20111017-19:52:55.505|56=JMSTRAT|6=0|11=IAA0040|14=600|17=001|20=0|31=66.6|32=600|37=001|38=600|39=1|54=1|55=MULT3|150=1|151=0|10=249|
8=FIX.4.2|9=159|35=D|34=30|49=JMSTRAT|52=20111017-19:50:55.159|56=NESTI|11=IAA0042|21=1|38=3400|40=1|54=1|55=ECOR3|60=20111017-17:50:55|9304=N|9305=13|9306=193|9307=18|9308=Y|10=136|
8=FIX.4.2|9=153|35=8|34=27|49=NESTI|52=20111017-19:52:55.505|56=JMSTRAT|6=0|11=IAA0042|14=3400|17=001|20=0|31=66.6|32=3400|37=001|38=3400|39=1|54=1|55=ECOR3|150=1|151=0|10=121|
8=FIX.4.2|9=159|35=D|34=31|49=JMSTRAT|52=20111017-19:50:55.190|56=NESTI|11=IAA0044|21=1|38=1700|40=1|54=2|55=GOLL4|60=20111017-17:50:55|9304=N|9305=13|9306=193|9307=18|9308=Y|10=142|
8=FIX.4.2|9=153|35=8|34=28|49=NESTI|52=20111017-19:52:55.505|56=JMSTRAT|6=0|11=IAA0044|14=1700|17=001|20=0|31=66.6|32=1700|37=001|38=1700|39=1|54=2|55=GOLL4|150=1|151=0|10=134|
8=FIX.4.2|9=56|35=0|34=32|49=JMSTRAT|52=20111017-19:51:55.723|56=NESTI|10=180|
8=FIX.4.2|9=56|35=0|34=33|49=JMSTRAT|52=20111017-19:52:55.505|56=NESTI|10=180|
8=FIX.4.2|9=56|35=0|34=29|49=NESTI|52=20111017-19:53:55.474|56=JMSTRAT|10=191|
8=FIX.4.2|9=56|35=0|34=34|49=JMSTRAT|52=20111017-19:53:55.474|56=NESTI|10=187|
8=FIX.4.2|9=68|35=A|34=35|49=JMSTRAT|52=20111017-19:56:09.695|56=NESTI|98=0|108=60|10=243|
8=FIX.4.2|9=68|35=A|34=30|49=NESTI|52=20111017-19:56:09.804|56=JMSTRAT|98=0|108=60|10=230|
8=FIX.4.2|9=68|35=A|34=36|49=JMSTRAT|52=20111017-19:57:16.492|56=NESTI|98=0|108=60|10=238|
8=FIX.4.2|9=68|35=A|34=31|49=NESTI|52=20111017-19:57:16.555|56=JMSTRAT|98=0|108=60|10=233|
8=FIX.4.2|9=56|35=0|34=32|49=NESTI|52=20111017-19:58:16.056|56=JMSTRAT|10=183|
8=FIX.4.2|9=56|35=0|34=37|49=JMSTRAT|52=20111017-19:58:16.056|56=NESTI|10=188|
8=FIX.4.2|9=56|35=0|34=33|49=NESTI|52=20111017-19:59:16.072|56=JMSTRAT|10=183|
8=FIX.4.2|9=56|35=0|34=38|49=JMSTRAT|52=20111017-19:59:16.072|56=NESTI|10=188|
8=FIX.4.2|9=68|35=A|34=39|49=JMSTRAT|52=20111017-19:59:47.525|56=NESTI|98=0|108=60|10=244|
8=FIX.4.2|9=68|35=A|34=34|49=NESTI|52=20111017-19:59:47.572|56=JMSTRAT|98=0|108=60|10=241|
8=FIX.4.2|9=56|35=0|34=40|49=JMSTRAT|52=20111017-20:00:47.542|56=NESTI|10=165|
8=FIX.4.2|9=56|35=0|34=35|49=NESTI|52=20111017-20:00:47.542|56=JMSTRAT|10=169|
8=FIX.4.2|9=56|35=0|34=41|49=JMSTRAT|52=20111017-20:01:47.543|56=NESTI|10=168|
8=FIX.4.2|9=56|35=0|34=36|49=NESTI|52=20111017-20:01:47.543|56=JMSTRAT|10=172|
8=FIX.4.2|9=56|35=0|34=42|49=JMSTRAT|52=20111017-20:02:47.543|56=NESTI|10=170|
8=FIX.4.2|9=56|35=0|34=37|49=NESTI|52=20111017-20:02:47.543|56=JMSTRAT|10=174|
8=FIX.4.2|9=56|35=0|34=43|49=JMSTRAT|52=20111017-20:03:47.544|56=NESTI|10=173|
8=FIX.4.2|9=56|35=0|34=38|49=NESTI|52=20111017-20:03:47.544|56=JMSTRAT|10=177|
8=FIX.4.2|9=56|35=0|34=44|49=JMSTRAT|52=20111017-20:04:47.545|56=NESTI|10=176|
8=FIX.4.2|9=56|35=0|34=39|49=NESTI|52=20111017-20:04:47.545|56=JMSTRAT|10=180|
8=FIX.4.2|9=158|35=D|34=45|49=JMSTRAT|52=20111017-20:05:33.170|56=NESTI|11=IAA0046|21=1|38=800|40=1|54=1|55=PDGR3|60=20111017-18:05:33|9304=N|9305=13|9306=189|9307=18|9308=Y|10=085|
8=FIX.4.2|9=150|35=8|34=40|49=NESTI|52=20111017-20:05:33.186|56=JMSTRAT|6=0|11=IAA0046|14=800|17=001|20=0|31=66.6|32=800|37=001|38=800|39=1|54=1|55=PDGR3|150=1|151=0|10=227|
8=FIX.4.2|9=158|35=D|34=46|49=JMSTRAT|52=20111017-20:05:33.202|56=NESTI|11=IAA0048|21=1|38=600|40=1|54=1|55=PDGR3|60=20111017-18:05:33|9304=N|9305=13|9306=189|9307=18|9308=Y|10=082|
8=FIX.4.2|9=150|35=8|34=41|49=NESTI|52=20111017-20:05:33.202|56=JMSTRAT|6=0|11=IAA0048|14=600|17=001|20=0|31=66.6|32=600|37=001|38=600|39=1|54=1|55=PDGR3|150=1|151=0|10=213|
8=FIX.4.2|9=158|35=D|34=47|49=JMSTRAT|52=20111017-20:05:33.233|56=NESTI|11=IAA0050|21=1|38=900|40=1|54=1|55=PDGR3|60=20111017-18:05:33|9304=N|9305=13|9306=189|9307=18|9308=Y|10=083|
8=FIX.4.2|9=150|35=8|34=42|49=NESTI|52=20111017-20:05:33.233|56=JMSTRAT|6=0|11=IAA0050|14=900|17=001|20=0|31=66.6|32=900|37=001|38=900|39=1|54=1|55=PDGR3|150=1|151=0|10=220|
8=FIX.4.2|9=158|35=D|34=48|49=JMSTRAT|52=20111017-20:05:33.280|56=NESTI|11=IAA0052|21=1|38=900|40=1|54=1|55=PDGR3|60=20111017-18:05:33|9304=N|9305=13|9306=189|9307=18|9308=Y|10=088|
8=FIX.4.2|9=150|35=8|34=43|49=NESTI|52=20111017-20:05:33.280|56=JMSTRAT|6=0|11=IAA0052|14=900|17=001|20=0|31=66.6|32=900|37=001|38=900|39=1|54=1|55=PDGR3|150=1|151=0|10=225|
8=FIX.4.2|9=158|35=D|34=49|49=JMSTRAT|52=20111017-20:05:33.311|56=NESTI|11=IAA0054|21=1|38=600|40=1|54=2|55=TCSA3|60=20111017-18:05:33|9304=N|9305=13|9306=189|9307=18|9308=Y|10=082|
8=FIX.4.2|9=150|35=8|34=44|49=NESTI|52=20111017-20:05:33.311|56=JMSTRAT|6=0|11=IAA0054|14=600|17=001|20=0|31=66.6|32=600|37=001|38=600|39=1|54=2|55=TCSA3|150=1|151=0|10=213|
8=FIX.4.2|9=158|35=D|34=50|49=JMSTRAT|52=20111017-20:05:33.358|56=NESTI|11=IAA0056|21=1|38=400|40=1|54=2|55=EZTC3|60=20111017-18:05:33|9304=N|9305=13|9306=189|9307=18|9308=Y|10=096|
8=FIX.4.2|9=150|35=8|34=45|49=NESTI|52=20111017-20:05:33.358|56=JMSTRAT|6=0|11=IAA0056|14=400|17=001|20=0|31=66.6|32=400|37=001|38=400|39=1|54=2|55=EZTC3|150=1|151=0|10=232|
8=FIX.4.2|9=158|35=D|34=51|49=JMSTRAT|52=20111017-20:05:33.389|56=NESTI|11=IAA0058|21=1|38=600|40=1|54=2|55=MRVE3|60=20111017-18:05:33|9304=N|9305=13|9306=189|9307=18|9308=Y|10=109|
8=FIX.4.2|9=150|35=8|34=46|49=NESTI|52=20111017-20:05:33.405|56=JMSTRAT|6=0|11=IAA0058|14=600|17=001|20=0|31=66.6|32=600|37=001|38=600|39=1|54=2|55=MRVE3|150=1|151=0|10=238|
8=FIX.4.2|9=158|35=D|34=52|49=JMSTRAT|52=20111017-20:05:33.436|56=NESTI|11=IAA0060|21=1|38=600|40=1|54=2|55=RSID3|60=20111017-18:05:33|9304=N|9305=13|9306=189|9307=18|9308=Y|10=088|
8=FIX.4.2|9=150|35=8|34=47|49=NESTI|52=20111017-20:05:33.436|56=JMSTRAT|6=0|11=IAA0060|14=600|17=001|20=0|31=66.6|32=600|37=001|38=600|39=1|54=2|55=RSID3|150=1|151=0|10=228|
8=FIX.4.2|9=158|35=D|34=53|49=JMSTRAT|52=20111017-20:05:33.499|56=NESTI|11=IAA0062|21=1|38=800|40=1|54=1|55=FIBR3|60=20111017-18:05:33|9304=N|9305=13|9306=190|9307=18|9308=Y|10=078|
8=FIX.4.2|9=150|35=8|34=48|49=NESTI|52=20111017-20:05:33.499|56=JMSTRAT|6=0|11=IAA0062|14=800|17=001|20=0|31=66.6|32=800|37=001|38=800|39=1|54=1|55=FIBR3|150=1|151=0|10=230|
8=FIX.4.2|9=159|35=D|34=54|49=JMSTRAT|52=20111017-20:05:33.530|56=NESTI|11=IAA0064|21=1|38=1800|40=1|54=2|55=SUZB5|60=20111017-18:05:33|9304=N|9305=13|9306=190|9307=18|9308=Y|10=153|
8=FIX.4.2|9=153|35=8|34=49|49=NESTI|52=20111017-20:05:33.530|56=JMSTRAT|6=0|11=IAA0064|14=1800|17=001|20=0|31=66.6|32=1800|37=001|38=1800|39=1|54=2|55=SUZB5|150=1|151=0|10=149|
8=FIX.4.2|9=159|35=D|34=55|49=JMSTRAT|52=20111017-20:05:33.561|56=NESTI|11=IAA0066|21=1|38=1600|40=1|54=2|55=ALSC3|60=20111017-18:05:33|9304=N|9305=13|9306=188|9307=18|9308=Y|10=130|
8=FIX.4.2|9=153|35=8|34=50|49=NESTI|52=20111017-20:05:33.577|56=JMSTRAT|6=0|11=IAA0066|14=1600|17=001|20=0|31=66.6|32=1600|37=001|38=1600|39=1|54=2|55=ALSC3|150=1|151=0|10=113|
8=FIX.4.2|9=159|35=D|34=56|49=JMSTRAT|52=20111017-20:05:33.608|56=NESTI|11=IAA0068|21=1|38=1400|40=1|54=2|55=ALSC3|60=20111017-18:05:33|9304=N|9305=13|9306=188|9307=18|9308=Y|10=133|
8=FIX.4.2|9=153|35=8|34=51|49=NESTI|52=20111017-20:05:33.608|56=JMSTRAT|6=0|11=IAA0068|14=1400|17=001|20=0|31=66.6|32=1400|37=001|38=1400|39=1|54=2|55=ALSC3|150=1|151=0|10=105|
8=FIX.4.2|9=158|35=D|34=57|49=JMSTRAT|52=20111017-20:05:33.639|56=NESTI|11=IAA0070|21=1|38=600|40=1|54=1|55=BRML3|60=20111017-18:05:33|9304=N|9305=13|9306=188|9307=18|9308=Y|10=092|
8=FIX.4.2|9=150|35=8|34=52|49=NESTI|52=20111017-20:05:33.639|56=JMSTRAT|6=0|11=IAA0070|14=600|17=001|20=0|31=66.6|32=600|37=001|38=600|39=1|54=1|55=BRML3|150=1|151=0|10=224|
8=FIX.4.2|9=158|35=D|34=58|49=JMSTRAT|52=20111017-20:05:33.686|56=NESTI|11=IAA0072|21=1|38=800|40=1|54=1|55=BRML3|60=20111017-18:05:33|9304=N|9305=13|9306=188|9307=18|9308=Y|10=099|
8=FIX.4.2|9=150|35=8|34=53|49=NESTI|52=20111017-20:05:33.686|56=JMSTRAT|6=0|11=IAA0072|14=800|17=001|20=0|31=66.6|32=800|37=001|38=800|39=1|54=1|55=BRML3|150=1|151=0|10=235|
8=FIX.4.2|9=158|35=D|34=59|49=JMSTRAT|52=20111017-20:05:33.749|56=NESTI|11=IAA0074|21=1|38=400|40=1|54=1|55=MULT3|60=20111017-18:05:33|9304=N|9305=13|9306=188|9307=18|9308=Y|10=119|
8=FIX.4.2|9=150|35=8|34=54|49=NESTI|52=20111017-20:05:33.749|56=JMSTRAT|6=0|11=IAA0074|14=400|17=001|20=0|31=66.6|32=400|37=001|38=400|39=1|54=1|55=MULT3|150=1|151=0|10=247|
8=FIX.4.2|9=158|35=D|34=60|49=JMSTRAT|52=20111017-20:05:33.795|56=NESTI|11=IAA0076|21=1|38=600|40=1|54=1|55=MULT3|60=20111017-18:05:33|9304=N|9305=13|9306=188|9307=18|9308=Y|10=116|
8=FIX.4.2|9=150|35=8|34=55|49=NESTI|52=20111017-20:05:33.795|56=JMSTRAT|6=0|11=IAA0076|14=600|17=001|20=0|31=66.6|32=600|37=001|38=600|39=1|54=1|55=MULT3|150=1|151=0|10=001|
8=FIX.4.2|9=159|35=D|34=61|49=JMSTRAT|52=20111017-20:05:33.842|56=NESTI|11=IAA0078|21=1|38=1000|40=1|54=2|55=BRPR3|60=20111017-18:05:33|9304=N|9305=13|9306=188|9307=18|9308=Y|10=145|
8=FIX.4.2|9=153|35=8|34=56|49=NESTI|52=20111017-20:05:33.842|56=JMSTRAT|6=0|11=IAA0078|14=1000|17=001|20=0|31=66.6|32=1000|37=001|38=1000|39=1|54=2|55=BRPR3|150=1|151=0|10=118|
8=FIX.4.2|9=158|35=D|34=62|49=JMSTRAT|52=20111017-20:05:33.905|56=NESTI|11=IAA0080|21=1|38=500|40=1|54=2|55=IGTA3|60=20111017-18:05:33|9304=N|9305=13|9306=188|9307=18|9308=Y|10=077|
8=FIX.4.2|9=150|35=8|34=57|49=NESTI|52=20111017-20:05:33.905|56=JMSTRAT|6=0|11=IAA0080|14=500|17=001|20=0|31=66.6|32=500|37=001|38=500|39=1|54=2|55=IGTA3|150=1|151=0|10=216|
8=FIX.4.2|9=159|35=D|34=63|49=JMSTRAT|52=20111017-20:05:33.952|56=NESTI|11=IAA0082|21=1|38=3400|40=1|54=1|55=ECOR3|60=20111017-18:05:33|9304=N|9305=13|9306=193|9307=18|9308=Y|10=132|
8=FIX.4.2|9=153|35=8|34=58|49=NESTI|52=20111017-20:05:33.952|56=JMSTRAT|6=0|11=IAA0082|14=3400|17=001|20=0|31=66.6|32=3400|37=001|38=3400|39=1|54=1|55=ECOR3|150=1|151=0|10=121|
8=FIX.4.2|9=159|35=D|34=64|49=JMSTRAT|52=20111017-20:05:33.983|56=NESTI|11=IAA0084|21=1|38=1700|40=1|54=2|55=GOLL4|60=20111017-18:05:33|9304=N|9305=13|9306=193|9307=18|9308=Y|10=147|
8=FIX.4.2|9=153|35=8|34=59|49=NESTI|52=20111017-20:05:33.999|56=JMSTRAT|6=0|11=IAA0084|14=1700|17=001|20=0|31=66.6|32=1700|37=001|38=1700|39=1|54=2|55=GOLL4|150=1|151=0|10=145|
8=FIX.4.2|9=158|35=D|34=65|49=JMSTRAT|52=20111017-20:06:06.702|56=NESTI|11=IAA0086|21=1|38=900|40=1|54=1|55=BISA3|60=20111017-18:06:06|9304=N|9305=13|9306=189|9307=18|9308=Y|10=081|
8=FIX.4.2|9=150|35=8|34=60|49=NESTI|52=20111017-20:06:06.702|56=JMSTRAT|6=0|11=IAA0086|14=900|17=001|20=0|31=66.6|32=900|37=001|38=900|39=1|54=1|55=BISA3|150=1|151=0|10=217|
8=FIX.4.2|9=159|35=D|34=66|49=JMSTRAT|52=20111017-20:06:06.749|56=NESTI|11=IAA0088|21=1|38=1000|40=1|54=2|55=GFSA3|60=20111017-18:06:06|9304=N|9305=13|9306=189|9307=18|9308=Y|10=139|
8=FIX.4.2|9=153|35=8|34=61|49=NESTI|52=20111017-20:06:06.749|56=JMSTRAT|6=0|11=IAA0088|14=1000|17=001|20=0|31=66.6|32=1000|37=001|38=1000|39=1|54=2|55=GFSA3|150=1|151=0|10=101|
8=FIX.4.2|9=159|35=D|34=67|49=JMSTRAT|52=20111017-20:06:06.780|56=NESTI|11=IAA0090|21=1|38=1600|40=1|54=1|55=ALSC3|60=20111017-18:06:06|9304=N|9305=13|9306=188|9307=18|9308=Y|10=134|
8=FIX.4.2|9=153|35=8|34=62|49=NESTI|52=20111017-20:06:06.780|56=JMSTRAT|6=0|11=IAA0090|14=1600|17=001|20=0|31=66.6|32=1600|37=001|38=1600|39=1|54=1|55=ALSC3|150=1|151=0|10=109|
8=FIX.4.2|9=159|35=D|34=68|49=JMSTRAT|52=20111017-20:06:06.827|56=NESTI|11=IAA0092|21=1|38=1600|40=1|54=1|55=ALSC3|60=20111017-18:06:06|9304=N|9305=13|9306=188|9307=18|9308=Y|10=139|
8=FIX.4.2|9=153|35=8|34=63|49=NESTI|52=20111017-20:06:06.827|56=JMSTRAT|6=0|11=IAA0092|14=1600|17=001|20=0|31=66.6|32=1600|37=001|38=1600|39=1|54=1|55=ALSC3|150=1|151=0|10=114|
8=FIX.4.2|9=159|35=D|34=69|49=JMSTRAT|52=20111017-20:06:06.843|56=NESTI|11=IAA0094|21=1|38=1400|40=1|54=1|55=ALSC3|60=20111017-18:06:06|9304=N|9305=13|9306=188|9307=18|9308=Y|10=138|
8=FIX.4.2|9=153|35=8|34=64|49=NESTI|52=20111017-20:06:06.843|56=JMSTRAT|6=0|11=IAA0094|14=1400|17=001|20=0|31=66.6|32=1400|37=001|38=1400|39=1|54=1|55=ALSC3|150=1|151=0|10=109|
8=FIX.4.2|9=158|35=D|34=70|49=JMSTRAT|52=20111017-20:06:06.890|56=NESTI|11=IAA0096|21=1|38=600|40=1|54=2|55=BRML3|60=20111017-18:06:06|9304=N|9305=13|9306=188|9307=18|9308=Y|10=097|
8=FIX.4.2|9=150|35=8|34=65|49=NESTI|52=20111017-20:06:06.890|56=JMSTRAT|6=0|11=IAA0096|14=600|17=001|20=0|31=66.6|32=600|37=001|38=600|39=1|54=2|55=BRML3|150=1|151=0|10=237|
8=FIX.4.2|9=158|35=D|34=71|49=JMSTRAT|52=20111017-20:06:06.905|56=NESTI|11=IAA0098|21=1|38=800|40=1|54=2|55=BRPR3|60=20111017-18:06:06|9304=N|9305=13|9306=188|9307=18|9308=Y|10=108|
8=FIX.4.2|9=150|35=8|34=66|49=NESTI|52=20111017-20:06:06.921|56=JMSTRAT|6=0|11=IAA0098|14=800|17=001|20=0|31=66.6|32=800|37=001|38=800|39=1|54=2|55=BRPR3|150=1|151=0|10=250|
8=FIX.4.2|9=158|35=D|34=72|49=JMSTRAT|52=20111017-20:06:06.937|56=NESTI|11=IAA0100|21=1|38=400|40=1|54=2|55=MULT3|60=20111017-18:06:06|9304=N|9305=13|9306=188|9307=18|9308=Y|10=106|
8=FIX.4.2|9=150|35=8|34=67|49=NESTI|52=20111017-20:06:06.952|56=JMSTRAT|6=0|11=IAA0100|14=400|17=001|20=0|31=66.6|32=400|37=001|38=400|39=1|54=2|55=MULT3|150=1|151=0|10=239|
8=FIX.4.2|9=159|35=D|34=73|49=JMSTRAT|52=20111017-20:06:06.968|56=NESTI|11=IAA0102|21=1|38=3400|40=1|54=2|55=ECOR3|60=20111017-18:06:06|9304=N|9305=13|9306=193|9307=18|9308=Y|10=136|
8=FIX.4.2|9=153|35=8|34=68|49=NESTI|52=20111017-20:06:06.968|56=JMSTRAT|6=0|11=IAA0102|14=3400|17=001|20=0|31=66.6|32=3400|37=001|38=3400|39=1|54=2|55=ECOR3|150=1|151=0|10=124|
8=FIX.4.2|9=159|35=D|34=74|49=JMSTRAT|52=20111017-20:06:06.999|56=NESTI|11=IAA0104|21=1|38=1700|40=1|54=1|55=GOLL4|60=20111017-18:06:06|9304=N|9305=13|9306=193|9307=18|9308=Y|10=149|
8=FIX.4.2|9=153|35=8|34=69|49=NESTI|52=20111017-20:06:06.999|56=JMSTRAT|6=0|11=IAA0104|14=1700|17=001|20=0|31=66.6|32=1700|37=001|38=1700|39=1|54=1|55=GOLL4|150=1|151=0|10=139|
8=FIX.4.2|9=56|35=0|34=75|49=JMSTRAT|52=20111017-20:07:06.578|56=NESTI|10=184|
8=FIX.4.2|9=56|35=0|34=70|49=NESTI|52=20111017-20:07:06.578|56=JMSTRAT|10=179|
8=FIX.4.2|9=56|35=0|34=76|49=JMSTRAT|52=20111017-20:08:06.579|56=NESTI|10=187|
8=FIX.4.2|9=56|35=0|34=71|49=NESTI|52=20111017-20:08:06.579|56=JMSTRAT|10=182|
8=FIX.4.2|9=56|35=0|34=77|49=JMSTRAT|52=20111017-20:09:06.579|56=NESTI|10=189|
8=FIX.4.2|9=56|35=0|34=72|49=NESTI|52=20111017-20:09:06.579|56=JMSTRAT|10=184|
8=FIX.4.2|9=56|35=0|34=78|49=JMSTRAT|52=20111017-20:10:06.580|56=NESTI|10=174|
8=FIX.4.2|9=56|35=0|34=73|49=NESTI|52=20111017-20:10:06.580|56=JMSTRAT|10=169|
8=FIX.4.2|9=159|35=D|34=79|49=JMSTRAT|52=20111017-20:10:38.784|56=NESTI|11=IAA0106|21=1|38=1500|40=1|54=2|55=ALSC3|60=20111017-18:10:38|9304=N|9305=13|9306=188|9307=18|9308=Y|10=139|
8=FIX.4.2|9=153|35=8|34=74|49=NESTI|52=20111017-20:10:38.784|56=JMSTRAT|6=0|11=IAA0106|14=1500|17=001|20=0|31=66.6|32=1500|37=001|38=1500|39=1|54=2|55=ALSC3|150=1|151=0|10=112|
8=FIX.4.2|9=158|35=D|34=80|49=JMSTRAT|52=20111017-20:10:38.815|56=NESTI|11=IAA0108|21=1|38=600|40=1|54=1|55=BRML3|60=20111017-18:10:38|9304=N|9305=13|9306=188|9307=18|9308=Y|10=088|
8=FIX.4.2|9=150|35=8|34=75|49=NESTI|52=20111017-20:10:38.815|56=JMSTRAT|6=0|11=IAA0108|14=600|17=001|20=0|31=66.6|32=600|37=001|38=600|39=1|54=1|55=BRML3|150=1|151=0|10=228|
8=FIX.4.2|9=56|35=0|34=81|49=JMSTRAT|52=20111017-20:11:38.597|56=NESTI|10=182|
8=FIX.4.2|9=56|35=0|34=76|49=NESTI|52=20111017-20:11:38.597|56=JMSTRAT|10=186|
8=FIX.4.2|9=56|35=0|34=82|49=JMSTRAT|52=20111017-20:12:38.598|56=NESTI|10=185|
8=FIX.4.2|9=56|35=0|34=77|49=NESTI|52=20111017-20:12:38.598|56=JMSTRAT|10=189|
8=FIX.4.2|9=56|35=0|34=78|49=NESTI|52=20111017-20:13:38.005|56=JMSTRAT|10=174|
8=FIX.4.2|9=56|35=0|34=83|49=JMSTRAT|52=20111017-20:13:38.005|56=NESTI|10=170|
8=FIX.4.2|9=56|35=0|34=79|49=NESTI|52=20111017-20:14:38.006|56=JMSTRAT|10=177|
8=FIX.4.2|9=56|35=0|34=84|49=JMSTRAT|52=20111017-20:14:38.006|56=NESTI|10=173|
8=FIX.4.2|9=56|35=0|34=80|49=NESTI|52=20111017-20:15:38.006|56=JMSTRAT|10=170|
8=FIX.4.2|9=56|35=0|34=85|49=JMSTRAT|52=20111017-20:15:38.006|56=NESTI|10=175|
8=FIX.4.2|9=56|35=0|34=81|49=NESTI|52=20111017-20:16:38.023|56=JMSTRAT|10=171|
8=FIX.4.2|9=56|35=0|34=86|49=JMSTRAT|52=20111017-20:16:38.023|56=NESTI|10=176|
8=FIX.4.2|9=56|35=0|34=82|49=NESTI|52=20111017-20:17:38.024|56=JMSTRAT|10=174|
8=FIX.4.2|9=56|35=0|34=87|49=JMSTRAT|52=20111017-20:17:38.024|56=NESTI|10=179|
8=FIX.4.2|9=56|35=0|34=83|49=NESTI|52=20111017-20:18:38.024|56=JMSTRAT|10=176|
8=FIX.4.2|9=56|35=0|34=88|49=JMSTRAT|52=20111017-20:18:38.024|56=NESTI|10=181|
8=FIX.4.2|9=56|35=0|34=84|49=NESTI|52=20111017-20:19:38.041|56=JMSTRAT|10=177|
8=FIX.4.2|9=56|35=0|34=89|49=JMSTRAT|52=20111017-20:19:38.041|56=NESTI|10=182|
8=FIX.4.2|9=68|35=A|34=90|49=JMSTRAT|52=20111017-20:20:07.010|56=NESTI|98=0|108=60|10=206|
8=FIX.4.2|9=68|35=A|34=85|49=NESTI|52=20111017-20:20:07.057|56=JMSTRAT|98=0|108=60|10=221|
8=FIX.4.2|9=56|35=0|34=91|49=JMSTRAT|52=20111017-20:21:07.011|56=NESTI|10=161|
8=FIX.4.2|9=56|35=0|34=86|49=NESTI|52=20111017-20:21:07.011|56=JMSTRAT|10=165|
8=FIX.4.2|9=56|35=0|34=92|49=JMSTRAT|52=20111017-20:22:07.011|56=NESTI|10=163|
8=FIX.4.2|9=56|35=0|34=87|49=NESTI|52=20111017-20:22:07.011|56=JMSTRAT|10=167|
8=FIX.4.2|9=56|35=0|34=93|49=JMSTRAT|52=20111017-20:23:07.012|56=NESTI|10=166|
8=FIX.4.2|9=56|35=0|34=88|49=NESTI|52=20111017-20:23:07.012|56=JMSTRAT|10=170|
8=FIX.4.2|9=56|35=0|34=94|49=JMSTRAT|52=20111017-20:24:07.013|56=NESTI|10=169|
8=FIX.4.2|9=56|35=0|34=89|49=NESTI|52=20111017-20:24:07.013|56=JMSTRAT|10=173|
8=FIX.4.2|9=56|35=0|34=95|49=JMSTRAT|52=20111017-20:25:07.014|56=NESTI|10=172|
8=FIX.4.2|9=56|35=0|34=90|49=NESTI|52=20111017-20:25:07.014|56=JMSTRAT|10=167|
8=FIX.4.2|9=56|35=0|34=96|49=JMSTRAT|52=20111017-20:26:07.014|56=NESTI|10=174|
8=FIX.4.2|9=56|35=0|34=91|49=NESTI|52=20111017-20:26:07.014|56=JMSTRAT|10=169|
8=FIX.4.2|9=56|35=0|34=97|49=JMSTRAT|52=20111017-20:27:07.015|56=NESTI|10=177|
8=FIX.4.2|9=56|35=0|34=92|49=NESTI|52=20111017-20:27:07.015|56=JMSTRAT|10=172|
8=FIX.4.2|9=56|35=0|34=98|49=JMSTRAT|52=20111017-20:28:07.016|56=NESTI|10=180|
8=FIX.4.2|9=56|35=0|34=93|49=NESTI|52=20111017-20:28:07.016|56=JMSTRAT|10=175|
8=FIX.4.2|9=56|35=0|34=99|49=JMSTRAT|52=20111017-20:29:07.017|56=NESTI|10=183|
8=FIX.4.2|9=56|35=0|34=94|49=NESTI|52=20111017-20:29:07.017|56=JMSTRAT|10=178|
8=FIX.4.2|9=57|35=0|34=100|49=JMSTRAT|52=20111017-20:30:07.017|56=NESTI|10=207|
8=FIX.4.2|9=56|35=0|34=95|49=NESTI|52=20111017-20:30:07.017|56=JMSTRAT|10=171|
8=FIX.4.2|9=57|35=0|34=101|49=JMSTRAT|52=20111017-20:31:07.018|56=NESTI|10=210|
8=FIX.4.2|9=56|35=0|34=96|49=NESTI|52=20111017-20:31:07.018|56=JMSTRAT|10=174|
8=FIX.4.2|9=57|35=0|34=102|49=JMSTRAT|52=20111017-20:32:07.019|56=NESTI|10=213|
8=FIX.4.2|9=56|35=0|34=97|49=NESTI|52=20111017-20:32:07.019|56=JMSTRAT|10=177|
8=FIX.4.2|9=57|35=0|34=103|49=JMSTRAT|52=20111017-20:33:07.020|56=NESTI|10=207|
8=FIX.4.2|9=56|35=0|34=98|49=NESTI|52=20111017-20:33:07.020|56=JMSTRAT|10=171|
8=FIX.4.2|9=57|35=0|34=104|49=JMSTRAT|52=20111017-20:34:07.021|56=NESTI|10=210|
8=FIX.4.2|9=56|35=0|34=99|49=NESTI|52=20111017-20:34:07.021|56=JMSTRAT|10=174|
8=FIX.4.2|9=57|35=0|34=105|49=JMSTRAT|52=20111017-20:35:07.021|56=NESTI|10=212|
8=FIX.4.2|9=57|35=0|34=100|49=NESTI|52=20111017-20:35:07.021|56=JMSTRAT|10=207|
8=FIX.4.2|9=57|35=0|34=106|49=JMSTRAT|52=20111017-20:36:07.053|56=NESTI|10=219|
8=FIX.4.2|9=57|35=0|34=101|49=NESTI|52=20111017-20:36:07.053|56=JMSTRAT|10=214|
8=FIX.4.2|9=57|35=0|34=107|49=JMSTRAT|52=20111017-20:37:07.054|56=NESTI|10=222|
8=FIX.4.2|9=57|35=0|34=102|49=NESTI|52=20111017-20:37:07.054|56=JMSTRAT|10=217|
8=FIX.4.2|9=57|35=0|34=108|49=JMSTRAT|52=20111017-20:38:07.055|56=NESTI|10=225|
8=FIX.4.2|9=57|35=0|34=103|49=NESTI|52=20111017-20:38:07.055|56=JMSTRAT|10=220|
8=FIX.4.2|9=57|35=0|34=109|49=JMSTRAT|52=20111017-20:39:07.056|56=NESTI|10=228|
8=FIX.4.2|9=57|35=0|34=104|49=NESTI|52=20111017-20:39:07.056|56=JMSTRAT|10=223|
8=FIX.4.2|9=57|35=0|34=110|49=JMSTRAT|52=20111017-20:40:07.056|56=NESTI|10=212|
8=FIX.4.2|9=57|35=0|34=105|49=NESTI|52=20111017-20:40:07.056|56=JMSTRAT|10=216|
8=FIX.4.2|9=57|35=0|34=111|49=JMSTRAT|52=20111017-20:41:07.073|56=NESTI|10=213|
8=FIX.4.2|9=57|35=0|34=106|49=NESTI|52=20111017-20:41:07.073|56=JMSTRAT|10=217|
8=FIX.4.2|9=57|35=0|34=112|49=JMSTRAT|52=20111017-20:42:07.074|56=NESTI|10=216|
8=FIX.4.2|9=57|35=0|34=107|49=NESTI|52=20111017-20:42:07.074|56=JMSTRAT|10=220|
8=FIX.4.2|9=57|35=0|34=113|49=JMSTRAT|52=20111017-20:43:07.074|56=NESTI|10=218|
8=FIX.4.2|9=57|35=0|34=108|49=NESTI|52=20111017-20:43:07.074|56=JMSTRAT|10=222|
8=FIX.4.2|9=57|35=0|34=114|49=JMSTRAT|52=20111017-20:44:07.075|56=NESTI|10=221|
8=FIX.4.2|9=57|35=0|34=109|49=NESTI|52=20111017-20:44:07.075|56=JMSTRAT|10=225|
8=FIX.4.2|9=57|35=0|34=115|49=JMSTRAT|52=20111017-20:45:07.076|56=NESTI|10=224|
8=FIX.4.2|9=57|35=0|34=110|49=NESTI|52=20111017-20:45:07.076|56=JMSTRAT|10=219|
8=FIX.4.2|9=57|35=0|34=116|49=JMSTRAT|52=20111017-20:46:07.077|56=NESTI|10=227|
8=FIX.4.2|9=57|35=0|34=111|49=NESTI|52=20111017-20:46:07.077|56=JMSTRAT|10=222|
8=FIX.4.2|9=57|35=0|34=117|49=JMSTRAT|52=20111017-20:47:07.077|56=NESTI|10=229|
8=FIX.4.2|9=57|35=0|34=112|49=NESTI|52=20111017-20:47:07.077|56=JMSTRAT|10=224|
8=FIX.4.2|9=57|35=0|34=118|49=JMSTRAT|52=20111017-20:48:07.078|56=NESTI|10=232|
8=FIX.4.2|9=57|35=0|34=113|49=NESTI|52=20111017-20:48:07.078|56=JMSTRAT|10=227|
8=FIX.4.2|9=57|35=0|34=119|49=JMSTRAT|52=20111017-20:49:07.079|56=NESTI|10=235|
8=FIX.4.2|9=57|35=0|34=114|49=NESTI|52=20111017-20:49:07.079|56=JMSTRAT|10=230|
8=FIX.4.2|9=57|35=0|34=120|49=JMSTRAT|52=20111017-20:50:07.080|56=NESTI|10=211|
8=FIX.4.2|9=57|35=0|34=115|49=NESTI|52=20111017-20:50:07.080|56=JMSTRAT|10=215|
8=FIX.4.2|9=57|35=0|34=121|49=JMSTRAT|52=20111017-20:51:07.080|56=NESTI|10=213|
8=FIX.4.2|9=57|35=0|34=116|49=NESTI|52=20111017-20:51:07.080|56=JMSTRAT|10=217|
8=FIX.4.2|9=57|35=0|34=122|49=JMSTRAT|52=20111017-20:52:07.097|56=NESTI|10=223|
8=FIX.4.2|9=57|35=0|34=117|49=NESTI|52=20111017-20:52:07.097|56=JMSTRAT|10=227|
8=FIX.4.2|9=57|35=0|34=123|49=JMSTRAT|52=20111017-20:53:07.098|56=NESTI|10=226|
8=FIX.4.2|9=57|35=0|34=118|49=NESTI|52=20111017-20:53:07.098|56=JMSTRAT|10=230|
8=FIX.4.2|9=57|35=0|34=124|49=JMSTRAT|52=20111017-20:54:07.098|56=NESTI|10=228|
8=FIX.4.2|9=57|35=0|34=119|49=NESTI|52=20111017-20:54:07.098|56=JMSTRAT|10=232|
8=FIX.4.2|9=57|35=0|34=125|49=JMSTRAT|52=20111017-20:55:07.099|56=NESTI|10=231|
8=FIX.4.2|9=57|35=0|34=120|49=NESTI|52=20111017-20:55:07.099|56=JMSTRAT|10=226|
8=FIX.4.2|9=57|35=0|34=126|49=JMSTRAT|52=20111017-20:56:07.100|56=NESTI|10=216|
8=FIX.4.2|9=57|35=0|34=121|49=NESTI|52=20111017-20:56:07.100|56=JMSTRAT|10=211|
8=FIX.4.2|9=57|35=0|34=127|49=JMSTRAT|52=20111017-20:57:07.101|56=NESTI|10=219|
8=FIX.4.2|9=57|35=0|34=122|49=NESTI|52=20111017-20:57:07.101|56=JMSTRAT|10=214|
8=FIX.4.2|9=57|35=0|34=128|49=JMSTRAT|52=20111017-20:58:07.101|56=NESTI|10=221|
8=FIX.4.2|9=57|35=0|34=123|49=NESTI|52=20111017-20:58:07.101|56=JMSTRAT|10=216|
8=FIX.4.2|9=57|35=0|34=129|49=JMSTRAT|52=20111017-20:59:07.102|56=NESTI|10=224|
8=FIX.4.2|9=57|35=0|34=124|49=NESTI|52=20111017-20:59:07.102|56=JMSTRAT|10=219|
8=FIX.4.2|9=57|35=0|34=130|49=JMSTRAT|52=20111017-21:00:07.103|56=NESTI|10=204|
8=FIX.4.2|9=57|35=0|34=125|49=NESTI|52=20111017-21:00:07.103|56=JMSTRAT|10=208|
8=FIX.4.2|9=57|35=0|34=131|49=JMSTRAT|52=20111017-21:01:07.104|56=NESTI|10=207|
8=FIX.4.2|9=57|35=0|34=126|49=NESTI|52=20111017-21:01:07.104|56=JMSTRAT|10=211|
8=FIX.4.2|9=57|35=0|34=132|49=JMSTRAT|52=20111017-21:02:07.105|56=NESTI|10=210|
8=FIX.4.2|9=57|35=0|34=127|49=NESTI|52=20111017-21:02:07.120|56=JMSTRAT|10=211|
8=FIX.4.2|9=57|35=0|34=133|49=JMSTRAT|52=20111017-21:03:07.121|56=NESTI|10=210|
8=FIX.4.2|9=57|35=0|34=128|49=NESTI|52=20111017-21:03:07.121|56=JMSTRAT|10=214|
8=FIX.4.2|9=57|35=0|34=134|49=JMSTRAT|52=20111017-21:04:07.122|56=NESTI|10=213|
8=FIX.4.2|9=57|35=0|34=129|49=NESTI|52=20111017-21:04:07.122|56=JMSTRAT|10=217|
8=FIX.4.2|9=57|35=0|34=135|49=JMSTRAT|52=20111017-21:05:07.138|56=NESTI|10=222|
8=FIX.4.2|9=57|35=0|34=130|49=NESTI|52=20111017-21:05:07.138|56=JMSTRAT|10=217|
8=FIX.4.2|9=57|35=0|34=136|49=JMSTRAT|52=20111017-21:06:07.139|56=NESTI|10=225|
8=FIX.4.2|9=57|35=0|34=131|49=NESTI|52=20111017-21:06:07.139|56=JMSTRAT|10=220|
8=FIX.4.2|9=57|35=0|34=137|49=JMSTRAT|52=20111017-21:07:07.140|56=NESTI|10=219|
8=FIX.4.2|9=57|35=0|34=132|49=NESTI|52=20111017-21:07:07.140|56=JMSTRAT|10=214|
8=FIX.4.2|9=57|35=0|34=138|49=JMSTRAT|52=20111017-21:08:07.140|56=NESTI|10=221|
8=FIX.4.2|9=57|35=0|34=133|49=NESTI|52=20111017-21:08:07.140|56=JMSTRAT|10=216|
8=FIX.4.2|9=57|35=0|34=139|49=JMSTRAT|52=20111017-21:09:07.141|56=NESTI|10=224|
8=FIX.4.2|9=57|35=0|34=134|49=NESTI|52=20111017-21:09:07.141|56=JMSTRAT|10=219|
8=FIX.4.2|9=57|35=0|34=140|49=JMSTRAT|52=20111017-21:10:07.142|56=NESTI|10=209|
8=FIX.4.2|9=57|35=0|34=135|49=NESTI|52=20111017-21:10:07.142|56=JMSTRAT|10=213|
8=FIX.4.2|9=57|35=0|34=141|49=JMSTRAT|52=20111017-21:11:07.143|56=NESTI|10=212|
8=FIX.4.2|9=57|35=0|34=136|49=NESTI|52=20111017-21:11:07.143|56=JMSTRAT|10=216|
8=FIX.4.2|9=57|35=0|34=142|49=JMSTRAT|52=20111017-21:12:07.159|56=NESTI|10=221|
8=FIX.4.2|9=57|35=0|34=137|49=NESTI|52=20111017-21:12:07.159|56=JMSTRAT|10=225|
8=FIX.4.2|9=57|35=0|34=143|49=JMSTRAT|52=20111017-21:13:07.160|56=NESTI|10=215|
8=FIX.4.2|9=57|35=0|34=138|49=NESTI|52=20111017-21:13:07.160|56=JMSTRAT|10=219|
8=FIX.4.2|9=57|35=0|34=144|49=JMSTRAT|52=20111017-21:14:07.176|56=NESTI|10=224|
8=FIX.4.2|9=57|35=0|34=139|49=NESTI|52=20111017-21:14:07.176|56=JMSTRAT|10=228|
8=FIX.4.2|9=57|35=0|34=145|49=JMSTRAT|52=20111017-21:15:07.177|56=NESTI|10=227|
8=FIX.4.2|9=57|35=0|34=140|49=NESTI|52=20111017-21:15:07.177|56=JMSTRAT|10=222|
8=FIX.4.2|9=57|35=0|34=146|49=JMSTRAT|52=20111017-21:16:07.178|56=NESTI|10=230|
8=FIX.4.2|9=57|35=0|34=141|49=NESTI|52=20111017-21:16:07.178|56=JMSTRAT|10=225|
8=FIX.4.2|9=67|35=A|34=1|49=JMSTRAT|52=20111019-20:28:22.162|56=NESTI|98=0|108=60|10=164|
8=FIX.4.2|9=67|35=A|34=1|49=NESTI|52=20111019-20:28:22.209|56=JMSTRAT|98=0|108=60|10=166|
8=FIX.4.2|9=55|35=0|34=2|49=NESTI|52=20111019-20:29:22.032|56=JMSTRAT|10=114|
8=FIX.4.2|9=55|35=0|34=2|49=JMSTRAT|52=20111019-20:29:22.032|56=NESTI|10=114|
8=FIX.4.2|9=55|35=0|34=3|49=NESTI|52=20111019-20:30:22.152|56=JMSTRAT|10=110|
8=FIX.4.2|9=55|35=0|34=3|49=JMSTRAT|52=20111019-20:30:22.152|56=NESTI|10=110|
8=FIX.4.2|9=158|35=D|34=4|49=JMSTRAT|52=20111019-20:30:45.509|56=NESTI|11=IAA0004|21=1|38=1000|40=1|54=2|55=BISA3|60=20111019-18:30:45|9304=Y|9305=13|9306=189|9307=18|9308=Y|10=077|
8=FIX.4.2|9=152|35=8|34=4|49=NESTI|52=20111019-20:30:45.541|56=JMSTRAT|6=0|11=IAA0004|14=1000|17=001|20=0|31=66.6|32=1000|37=001|38=1000|39=1|54=2|55=BISA3|150=1|151=0|10=027|
8=FIX.4.2|9=157|35=D|34=5|49=JMSTRAT|52=20111019-20:30:45.541|56=NESTI|11=IAA0006|21=1|38=600|40=1|54=1|55=TCSA3|60=20111019-18:30:45|9304=Y|9305=13|9306=189|9307=18|9308=Y|10=043|
8=FIX.4.2|9=149|35=8|34=5|49=NESTI|52=20111019-20:30:45.556|56=JMSTRAT|6=0|11=IAA0006|14=600|17=001|20=0|31=66.6|32=600|37=001|38=600|39=1|54=1|55=TCSA3|150=1|151=0|10=180|
8=FIX.4.2|9=157|35=D|34=6|49=JMSTRAT|52=20111019-20:30:45.587|56=NESTI|11=IAA0008|21=1|38=500|40=1|54=1|55=TCSA3|60=20111019-18:30:45|9304=Y|9305=13|9306=189|9307=18|9308=Y|10=055|
8=FIX.4.2|9=149|35=8|34=6|49=NESTI|52=20111019-20:30:45.587|56=JMSTRAT|6=0|11=IAA0008|14=500|17=001|20=0|31=66.6|32=500|37=001|38=500|39=1|54=1|55=TCSA3|150=1|151=0|10=184|
8=FIX.4.2|9=158|35=D|34=7|49=JMSTRAT|52=20111019-20:30:45.634|56=NESTI|11=IAA0010|21=1|38=1000|40=1|54=2|55=EVEN3|60=20111019-18:30:45|9304=Y|9305=13|9306=189|9307=18|9308=Y|10=091|
8=FIX.4.2|9=152|35=8|34=7|49=NESTI|52=20111019-20:30:45.650|56=JMSTRAT|6=0|11=IAA0010|14=1000|17=001|20=0|31=66.6|32=1000|37=001|38=1000|39=1|54=2|55=EVEN3|150=1|151=0|10=043|
8=FIX.4.2|9=158|35=D|34=8|49=JMSTRAT|52=20111019-20:30:45.666|56=NESTI|11=IAA0012|21=1|38=1000|40=1|54=2|55=EVEN3|60=20111019-18:30:45|9304=Y|9305=13|9306=189|9307=18|9308=Y|10=099|
8=FIX.4.2|9=152|35=8|34=8|49=NESTI|52=20111019-20:30:45.697|56=JMSTRAT|6=0|11=IAA0012|14=1000|17=001|20=0|31=66.6|32=1000|37=001|38=1000|39=1|54=2|55=EVEN3|150=1|151=0|10=057|
8=FIX.4.2|9=157|35=D|34=9|49=JMSTRAT|52=20111019-20:30:45.712|56=NESTI|11=IAA0014|21=1|38=700|40=1|54=1|55=PDGR3|60=20111019-18:30:45|9304=Y|9305=13|9306=189|9307=18|9308=Y|10=049|
8=FIX.4.2|9=149|35=8|34=9|49=NESTI|52=20111019-20:30:45.712|56=JMSTRAT|6=0|11=IAA0014|14=700|17=001|20=0|31=66.6|32=700|37=001|38=700|39=1|54=1|55=PDGR3|150=1|151=0|10=182|
8=FIX.4.2|9=158|35=D|34=10|49=JMSTRAT|52=20111019-20:30:45.744|56=NESTI|11=IAA0016|21=1|38=700|40=1|54=1|55=PDGR3|60=20111019-18:30:45|9304=Y|9305=13|9306=189|9307=18|9308=Y|10=097|
8=FIX.4.2|9=150|35=8|34=10|49=NESTI|52=20111019-20:30:45.744|56=JMSTRAT|6=0|11=IAA0016|14=700|17=001|20=0|31=66.6|32=700|37=001|38=700|39=1|54=1|55=PDGR3|150=1|151=0|10=221|
8=FIX.4.2|9=159|35=D|34=11|49=JMSTRAT|52=20111019-20:30:45.791|56=NESTI|11=IAA0018|21=1|38=1000|40=1|54=2|55=GFSA3|60=20111019-18:30:45|9304=Y|9305=13|9306=189|9307=18|9308=Y|10=134|
8=FIX.4.2|9=153|35=8|34=11|49=NESTI|52=20111019-20:30:45.791|56=JMSTRAT|6=0|11=IAA0018|14=1000|17=001|20=0|31=66.6|32=1000|37=001|38=1000|39=1|54=2|55=GFSA3|150=1|151=0|10=088|
8=FIX.4.2|9=159|35=D|34=12|49=JMSTRAT|52=20111019-20:30:45.822|56=NESTI|11=IAA0020|21=1|38=2600|40=1|54=2|55=ALSC3|60=20111019-18:30:45|9304=Y|9305=13|9306=188|9307=18|9308=Y|10=131|
8=FIX.4.2|9=153|35=8|34=12|49=NESTI|52=20111019-20:30:45.822|56=JMSTRAT|6=0|11=IAA0020|14=2600|17=001|20=0|31=66.6|32=2600|37=001|38=2600|39=1|54=2|55=ALSC3|150=1|151=0|10=100|
8=FIX.4.2|9=159|35=D|34=13|49=JMSTRAT|52=20111019-20:30:45.853|56=NESTI|11=IAA0022|21=1|38=3200|40=1|54=2|55=ALSC3|60=20111019-18:30:45|9304=Y|9305=13|9306=188|9307=18|9308=Y|10=135|
8=FIX.4.2|9=153|35=8|34=13|49=NESTI|52=20111019-20:30:45.869|56=JMSTRAT|6=0|11=IAA0022|14=3200|17=001|20=0|31=66.6|32=3200|37=001|38=3200|39=1|54=2|55=ALSC3|150=1|151=0|10=105|
8=FIX.4.2|9=158|35=D|34=14|49=JMSTRAT|52=20111019-20:30:45.900|56=NESTI|11=IAA0024|21=1|38=700|40=1|54=1|55=IGTA3|60=20111019-18:30:45|9304=Y|9305=13|9306=188|9307=18|9308=Y|10=085|
8=FIX.4.2|9=150|35=8|34=14|49=NESTI|52=20111019-20:30:45.900|56=JMSTRAT|6=0|11=IAA0024|14=700|17=001|20=0|31=66.6|32=700|37=001|38=700|39=1|54=1|55=IGTA3|150=1|151=0|10=210|
8=FIX.4.2|9=159|35=D|34=15|49=JMSTRAT|52=20111019-20:30:45.916|56=NESTI|11=IAA0026|21=1|38=1400|40=1|54=1|55=IGTA3|60=20111019-18:30:45|9304=Y|9305=13|9306=188|9307=18|9308=Y|10=142|
8=FIX.4.2|9=153|35=8|34=15|49=NESTI|52=20111019-20:30:45.916|56=JMSTRAT|6=0|11=IAA0026|14=1400|17=001|20=0|31=66.6|32=1400|37=001|38=1400|39=1|54=1|55=IGTA3|150=1|151=0|10=105|
8=FIX.4.2|9=158|35=D|34=16|49=JMSTRAT|52=20111019-20:30:45.947|56=NESTI|11=IAA0028|21=1|38=900|40=1|54=1|55=MULT3|60=20111019-18:30:45|9304=Y|9305=13|9306=188|9307=18|9308=Y|10=133|
8=FIX.4.2|9=150|35=8|34=16|49=NESTI|52=20111019-20:30:45.947|56=JMSTRAT|6=0|11=IAA0028|14=900|17=001|20=0|31=66.6|32=900|37=001|38=900|39=1|54=1|55=MULT3|150=1|151=0|10=006|
8=FIX.4.2|9=159|35=D|34=17|49=JMSTRAT|52=20111019-20:30:45.978|56=NESTI|11=IAA0030|21=1|38=1300|40=1|54=1|55=MULT3|60=20111019-18:30:45|9304=Y|9305=13|9306=188|9307=18|9308=Y|10=175|
8=FIX.4.2|9=153|35=8|34=17|49=NESTI|52=20111019-20:30:45.978|56=JMSTRAT|6=0|11=IAA0030|14=1300|17=001|20=0|31=66.6|32=1300|37=001|38=1300|39=1|54=1|55=MULT3|150=1|151=0|10=136|
8=FIX.4.2|9=159|35=D|34=18|49=JMSTRAT|52=20111019-20:30:46.009|56=NESTI|11=IAA0032|21=1|38=2700|40=1|54=2|55=BRPR3|60=20111019-18:30:46|9304=Y|9305=13|9306=188|9307=18|9308=Y|10=159|
8=FIX.4.2|9=153|35=8|34=18|49=NESTI|52=20111019-20:30:46.009|56=JMSTRAT|6=0|11=IAA0032|14=2700|17=001|20=0|31=66.6|32=2700|37=001|38=2700|39=1|54=2|55=BRPR3|150=1|151=0|10=129|
8=FIX.4.2|9=159|35=D|34=19|49=JMSTRAT|52=20111019-20:30:46.041|56=NESTI|11=IAA0034|21=1|38=2500|40=1|54=2|55=BRPR3|60=20111019-18:30:46|9304=Y|9305=13|9306=188|9307=18|9308=Y|10=156|
8=FIX.4.2|9=153|35=8|34=19|49=NESTI|52=20111019-20:30:46.056|56=JMSTRAT|6=0|11=IAA0034|14=2500|17=001|20=0|31=66.6|32=2500|37=001|38=2500|39=1|54=2|55=BRPR3|150=1|151=0|10=128|
8=FIX.4.2|9=68|35=A|34=20|49=JMSTRAT|52=20111019-20:31:52.910|56=NESTI|98=0|108=60|10=212|
8=FIX.4.2|9=68|35=A|34=20|49=NESTI|52=20111019-20:31:52.957|56=JMSTRAT|98=0|108=60|10=223|
8=FIX.4.2|9=67|35=A|34=1|49=JMSTRAT|52=20111020-17:59:16.074|56=NESTI|98=0|108=60|10=171|
8=FIX.4.2|9=67|35=A|34=1|49=NESTI|52=20111020-17:59:16.262|56=JMSTRAT|98=0|108=60|10=170|
8=FIX.4.2|9=55|35=0|34=2|49=JMSTRAT|52=20111020-18:00:16.195|56=NESTI|10=115|
8=FIX.4.2|9=55|35=0|34=2|49=NESTI|52=20111020-18:00:16.210|56=JMSTRAT|10=103|
8=FIX.4.2|9=55|35=0|34=3|49=JMSTRAT|52=20111020-18:01:16.299|56=NESTI|10=122|
8=FIX.4.2|9=55|35=0|34=3|49=NESTI|52=20111020-18:01:16.299|56=JMSTRAT|10=122|
8=FIX.4.2|9=55|35=0|34=4|49=JMSTRAT|52=20111020-18:02:16.404|56=NESTI|10=112|
8=FIX.4.2|9=55|35=0|34=4|49=NESTI|52=20111020-18:02:16.404|56=JMSTRAT|10=112|
8=FIX.4.2|9=55|35=0|34=5|49=JMSTRAT|52=20111020-18:03:16.525|56=NESTI|10=118|
8=FIX.4.2|9=55|35=0|34=5|49=NESTI|52=20111020-18:03:16.525|56=JMSTRAT|10=118|
8=FIX.4.2|9=55|35=0|34=6|49=NESTI|52=20111020-18:04:16.723|56=JMSTRAT|10=120|
8=FIX.4.2|9=55|35=0|34=6|49=JMSTRAT|52=20111020-18:04:16.723|56=NESTI|10=120|
8=FIX.4.2|9=55|35=0|34=7|49=NESTI|52=20111020-18:05:16.828|56=JMSTRAT|10=128|
8=FIX.4.2|9=55|35=0|34=7|49=JMSTRAT|52=20111020-18:05:16.828|56=NESTI|10=128|
8=FIX.4.2|9=55|35=0|34=8|49=JMSTRAT|52=20111020-18:06:16.011|56=NESTI|10=114|
8=FIX.4.2|9=55|35=0|34=8|49=NESTI|52=20111020-18:06:16.011|56=JMSTRAT|10=114|
8=FIX.4.2|9=55|35=0|34=9|49=NESTI|52=20111020-18:07:16.037|56=JMSTRAT|10=124|
8=FIX.4.2|9=55|35=0|34=9|49=JMSTRAT|52=20111020-18:07:16.037|56=NESTI|10=124|
8=FIX.4.2|9=56|35=0|34=10|49=NESTI|52=20111020-18:08:16.158|56=JMSTRAT|10=170|
8=FIX.4.2|9=56|35=0|34=10|49=JMSTRAT|52=20111020-18:08:16.173|56=NESTI|10=167|
8=FIX.4.2|9=56|35=0|34=11|49=NESTI|52=20111020-18:09:16.263|56=JMSTRAT|10=169|
8=FIX.4.2|9=56|35=0|34=11|49=JMSTRAT|52=20111020-18:09:16.263|56=NESTI|10=169|
8=FIX.4.2|9=56|35=0|34=12|49=NESTI|52=20111020-18:10:16.383|56=JMSTRAT|10=165|
8=FIX.4.2|9=56|35=0|34=12|49=JMSTRAT|52=20111020-18:10:16.383|56=NESTI|10=165|
8=FIX.4.2|9=56|35=0|34=13|49=NESTI|52=20111020-18:11:16.488|56=JMSTRAT|10=173|
8=FIX.4.2|9=56|35=0|34=13|49=JMSTRAT|52=20111020-18:11:16.488|56=NESTI|10=173|
8=FIX.4.2|9=56|35=0|34=14|49=NESTI|52=20111020-18:12:16.592|56=JMSTRAT|10=171|
8=FIX.4.2|9=56|35=0|34=14|49=JMSTRAT|52=20111020-18:12:16.592|56=NESTI|10=171|
8=FIX.4.2|9=56|35=0|34=15|49=NESTI|52=20111020-18:13:16.713|56=JMSTRAT|10=168|
8=FIX.4.2|9=56|35=0|34=15|49=JMSTRAT|52=20111020-18:13:16.713|56=NESTI|10=168|
8=FIX.4.2|9=56|35=0|34=16|49=NESTI|52=20111020-18:14:16.818|56=JMSTRAT|10=176|
8=FIX.4.2|9=56|35=0|34=16|49=JMSTRAT|52=20111020-18:14:16.818|56=NESTI|10=176|
8=FIX.4.2|9=56|35=0|34=17|49=JMSTRAT|52=20111020-18:15:16.001|56=NESTI|10=162|
8=FIX.4.2|9=56|35=0|34=17|49=NESTI|52=20111020-18:15:16.001|56=JMSTRAT|10=162|
8=FIX.4.2|9=56|35=0|34=18|49=NESTI|52=20111020-18:16:16.043|56=JMSTRAT|10=170|
8=FIX.4.2|9=56|35=0|34=18|49=JMSTRAT|52=20111020-18:16:16.043|56=NESTI|10=170|
8=FIX.4.2|9=56|35=0|34=19|49=NESTI|52=20111020-18:17:16.148|56=JMSTRAT|10=178|
8=FIX.4.2|9=56|35=0|34=19|49=JMSTRAT|52=20111020-18:17:16.148|56=NESTI|10=178|
8=FIX.4.2|9=56|35=0|34=20|49=NESTI|52=20111020-18:18:16.268|56=JMSTRAT|10=174|
8=FIX.4.2|9=56|35=0|34=20|49=JMSTRAT|52=20111020-18:18:16.268|56=NESTI|10=174|
8=FIX.4.2|9=56|35=0|34=21|49=NESTI|52=20111020-18:19:16.373|56=JMSTRAT|10=173|
8=FIX.4.2|9=56|35=0|34=21|49=JMSTRAT|52=20111020-18:19:16.373|56=NESTI|10=173|
8=FIX.4.2|9=56|35=0|34=22|49=NESTI|52=20111020-18:20:16.477|56=JMSTRAT|10=171|
8=FIX.4.2|9=56|35=0|34=22|49=JMSTRAT|52=20111020-18:20:16.477|56=NESTI|10=171|
8=FIX.4.2|9=56|35=0|34=23|49=NESTI|52=20111020-18:21:16.598|56=JMSTRAT|10=177|
8=FIX.4.2|9=56|35=0|34=23|49=JMSTRAT|52=20111020-18:21:16.598|56=NESTI|10=177|
8=FIX.4.2|9=56|35=0|34=24|49=NESTI|52=20111020-18:22:16.703|56=JMSTRAT|10=167|
8=FIX.4.2|9=56|35=0|34=24|49=JMSTRAT|52=20111020-18:22:16.718|56=NESTI|10=173|
8=FIX.4.2|9=56|35=0|34=25|49=NESTI|52=20111020-18:23:16.807|56=JMSTRAT|10=174|
8=FIX.4.2|9=56|35=0|34=25|49=JMSTRAT|52=20111020-18:23:16.807|56=NESTI|10=174|
8=FIX.4.2|9=56|35=0|34=26|49=JMSTRAT|52=20111020-18:24:16.022|56=NESTI|10=165|
8=FIX.4.2|9=56|35=0|34=26|49=NESTI|52=20111020-18:24:16.022|56=JMSTRAT|10=165|
8=FIX.4.2|9=56|35=0|34=27|49=NESTI|52=20111020-18:25:16.033|56=JMSTRAT|10=169|
8=FIX.4.2|9=56|35=0|34=27|49=JMSTRAT|52=20111020-18:25:16.033|56=NESTI|10=169|
8=FIX.4.2|9=56|35=0|34=28|49=NESTI|52=20111020-18:26:16.153|56=JMSTRAT|10=174|
8=FIX.4.2|9=56|35=0|34=28|49=JMSTRAT|52=20111020-18:26:16.153|56=NESTI|10=174|
8=FIX.4.2|9=56|35=0|34=29|49=NESTI|52=20111020-18:27:16.258|56=JMSTRAT|10=182|
8=FIX.4.2|9=56|35=0|34=29|49=JMSTRAT|52=20111020-18:27:16.258|56=NESTI|10=182|
8=FIX.4.2|9=56|35=0|34=30|49=NESTI|52=20111020-18:28:16.378|56=JMSTRAT|10=178|
8=FIX.4.2|9=56|35=0|34=30|49=JMSTRAT|52=20111020-18:28:16.378|56=NESTI|10=178|
8=FIX.4.2|9=56|35=0|34=31|49=NESTI|52=20111020-18:29:16.483|56=JMSTRAT|10=177|
8=FIX.4.2|9=56|35=0|34=31|49=JMSTRAT|52=20111020-18:29:16.483|56=NESTI|10=177|
8=FIX.4.2|9=56|35=0|34=32|49=NESTI|52=20111020-18:30:16.588|56=JMSTRAT|10=176|
8=FIX.4.2|9=56|35=0|34=32|49=JMSTRAT|52=20111020-18:30:16.588|56=NESTI|10=176|
8=FIX.4.2|9=68|35=A|34=33|49=JMSTRAT|52=20111020-18:31:44.143|56=NESTI|98=0|108=60|10=214|
8=FIX.4.2|9=68|35=A|34=33|49=NESTI|52=20111020-18:31:44.190|56=JMSTRAT|98=0|108=60|10=216|
8=FIX.4.2|9=56|35=0|34=34|49=JMSTRAT|52=20111020-18:32:44.045|56=NESTI|10=169|
8=FIX.4.2|9=56|35=0|34=34|49=NESTI|52=20111020-18:32:44.045|56=JMSTRAT|10=169|
8=FIX.4.2|9=68|35=A|34=35|49=JMSTRAT|52=20111020-18:33:20.324|56=NESTI|98=0|108=60|10=213|
8=FIX.4.2|9=68|35=A|34=35|49=NESTI|52=20111020-18:33:20.449|56=JMSTRAT|98=0|108=60|10=221|
8=FIX.4.2|9=159|35=D|34=36|49=JMSTRAT|52=20111020-18:34:15.351|56=NESTI|11=IAA0002|21=1|38=1400|40=1|54=2|55=BBDC4|60=20111020-16:34:15|9304=Y|9305=13|9306=186|9307=18|9308=Y|10=097|
8=FIX.4.2|9=153|35=8|34=36|49=NESTI|52=20111020-18:34:15.382|56=JMSTRAT|6=0|11=IAA0002|14=1400|17=001|20=0|31=66.6|32=1400|37=001|38=1400|39=1|54=2|55=BBDC4|150=1|151=0|10=075|
8=FIX.4.2|9=159|35=D|34=37|49=JMSTRAT|52=20111020-18:34:21.241|56=NESTI|11=IAA0004|21=1|38=1400|40=1|54=1|55=ITUB4|60=20111020-16:34:21|9304=Y|9305=13|9306=186|9307=18|9308=Y|10=132|
8=FIX.4.2|9=153|35=8|34=37|49=NESTI|52=20111020-18:34:21.241|56=JMSTRAT|6=0|11=IAA0004|14=1400|17=001|20=0|31=66.6|32=1400|37=001|38=1400|39=1|54=1|55=ITUB4|150=1|151=0|10=109|
8=FIX.4.2|9=158|35=D|34=38|49=JMSTRAT|52=20111020-18:34:24.475|56=NESTI|11=IAA0006|21=1|38=400|40=1|54=1|55=CYRE3|60=20111020-16:34:24|9304=Y|9305=13|9306=189|9307=18|9308=Y|10=101|
8=FIX.4.2|9=150|35=8|34=38|49=NESTI|52=20111020-18:34:24.475|56=JMSTRAT|6=0|11=IAA0006|14=400|17=001|20=0|31=66.6|32=400|37=001|38=400|39=1|54=1|55=CYRE3|150=1|151=0|10=228|
8=FIX.4.2|9=158|35=D|34=39|49=JMSTRAT|52=20111020-18:34:24.975|56=NESTI|11=IAA0008|21=1|38=800|40=1|54=2|55=GFSA3|60=20111020-16:34:24|9304=Y|9305=13|9306=189|9307=18|9308=Y|10=096|
8=FIX.4.2|9=150|35=8|34=39|49=NESTI|52=20111020-18:34:24.975|56=JMSTRAT|6=0|11=IAA0008|14=800|17=001|20=0|31=66.6|32=800|37=001|38=800|39=1|54=2|55=GFSA3|150=1|151=0|10=231|
8=FIX.4.2|9=158|35=D|34=40|49=JMSTRAT|52=20111020-18:34:25.428|56=NESTI|11=IAA0010|21=1|38=700|40=1|54=2|55=GFSA3|60=20111020-16:34:25|9304=Y|9305=13|9306=189|9307=18|9308=Y|10=075|
8=FIX.4.2|9=150|35=8|34=40|49=NESTI|52=20111020-18:34:25.428|56=JMSTRAT|6=0|11=IAA0010|14=700|17=001|20=0|31=66.6|32=700|37=001|38=700|39=1|54=2|55=GFSA3|150=1|151=0|10=207|
8=FIX.4.2|9=159|35=D|34=41|49=JMSTRAT|52=20111020-18:34:25.881|56=NESTI|11=IAA0012|21=1|38=1200|40=1|54=2|55=GFSA3|60=20111020-16:34:25|9304=Y|9305=13|9306=189|9307=18|9308=Y|10=126|
8=FIX.4.2|9=153|35=8|34=41|49=NESTI|52=20111020-18:34:25.881|56=JMSTRAT|6=0|11=IAA0012|14=1200|17=001|20=0|31=66.6|32=1200|37=001|38=1200|39=1|54=2|55=GFSA3|150=1|151=0|10=092|
8=FIX.4.2|9=158|35=D|34=42|49=JMSTRAT|52=20111020-18:34:26.303|56=NESTI|11=IAA0014|21=1|38=400|40=1|54=1|55=RSID3|60=20111020-16:34:26|9304=Y|9305=13|9306=189|9307=18|9308=Y|10=088|
8=FIX.4.2|9=150|35=8|34=42|49=NESTI|52=20111020-18:34:26.318|56=JMSTRAT|6=0|11=IAA0014|14=400|17=001|20=0|31=66.6|32=400|37=001|38=400|39=1|54=1|55=RSID3|150=1|151=0|10=219|
8=FIX.4.2|9=158|35=D|34=43|49=JMSTRAT|52=20111020-18:34:26.959|56=NESTI|11=IAA0016|21=1|38=700|40=1|54=1|55=TCSA3|60=20111020-16:34:26|9304=Y|9305=13|9306=189|9307=18|9308=Y|10=104|
8=FIX.4.2|9=150|35=8|34=43|49=NESTI|52=20111020-18:34:26.959|56=JMSTRAT|6=0|11=IAA0016|14=700|17=001|20=0|31=66.6|32=700|37=001|38=700|39=1|54=1|55=TCSA3|150=1|151=0|10=235|
8=FIX.4.2|9=159|35=D|34=44|49=JMSTRAT|52=20111020-18:34:27.428|56=NESTI|11=IAA0018|21=1|38=3000|40=1|54=1|55=ALSC3|60=20111020-16:34:27|9304=Y|9305=13|9306=188|9307=18|9308=Y|10=136|
8=FIX.4.2|9=153|35=8|34=44|49=NESTI|52=20111020-18:34:27.428|56=JMSTRAT|6=0|11=IAA0018|14=3000|17=001|20=0|31=66.6|32=3000|37=001|38=3000|39=1|54=1|55=ALSC3|150=1|151=0|10=101|
8=FIX.4.2|9=158|35=D|34=45|49=JMSTRAT|52=20111020-18:34:28.428|56=NESTI|11=IAA0020|21=1|38=800|40=1|54=2|55=IGTA3|60=20111020-16:34:28|9304=Y|9305=13|9306=188|9307=18|9308=Y|10=091|
8=FIX.4.2|9=150|35=8|34=45|49=NESTI|52=20111020-18:34:28.443|56=JMSTRAT|6=0|11=IAA0020|14=800|17=001|20=0|31=66.6|32=800|37=001|38=800|39=1|54=2|55=IGTA3|150=1|151=0|10=220|
8=FIX.4.2|9=159|35=D|34=46|49=JMSTRAT|52=20111020-18:34:28.459|56=NESTI|11=IAA0022|21=1|38=1300|40=1|54=2|55=IGTA3|60=20111020-16:34:28|9304=Y|9305=13|9306=188|9307=18|9308=Y|10=143|
8=FIX.4.2|9=153|35=8|34=46|49=NESTI|52=20111020-18:34:28.459|56=JMSTRAT|6=0|11=IAA0022|14=1300|17=001|20=0|31=66.6|32=1300|37=001|38=1300|39=1|54=2|55=IGTA3|150=1|151=0|10=109|
8=FIX.4.2|9=158|35=D|34=47|49=JMSTRAT|52=20111020-18:34:28.490|56=NESTI|11=IAA0024|21=1|38=700|40=1|54=2|55=IGTA3|60=20111020-16:34:28|9304=Y|9305=13|9306=188|9307=18|9308=Y|10=095|
8=FIX.4.2|9=150|35=8|34=47|49=NESTI|52=20111020-18:34:28.490|56=JMSTRAT|6=0|11=IAA0024|14=700|17=001|20=0|31=66.6|32=700|37=001|38=700|39=1|54=2|55=IGTA3|150=1|151=0|10=225|
8=FIX.4.2|9=159|35=D|34=48|49=JMSTRAT|52=20111020-18:34:28.537|56=NESTI|11=IAA0026|21=1|38=2700|40=1|54=1|55=BRPR3|60=20111020-16:34:28|9304=Y|9305=13|9306=188|9307=18|9308=Y|10=167|
8=FIX.4.2|9=153|35=8|34=48|49=NESTI|52=20111020-18:34:28.537|56=JMSTRAT|6=0|11=IAA0026|14=2700|17=001|20=0|31=66.6|32=2700|37=001|38=2700|39=1|54=1|55=BRPR3|150=1|151=0|10=143|
8=FIX.4.2|9=158|35=D|34=49|49=JMSTRAT|52=20111020-18:34:28.568|56=NESTI|11=IAA0028|21=1|38=800|40=1|54=1|55=MULT3|60=20111020-16:34:28|9304=Y|9305=13|9306=188|9307=18|9308=Y|10=136|
8=FIX.4.2|9=150|35=8|34=49|49=NESTI|52=20111020-18:34:28.568|56=JMSTRAT|6=0|11=IAA0028|14=800|17=001|20=0|31=66.6|32=800|37=001|38=800|39=1|54=1|55=MULT3|150=1|151=0|10=012|
8=FIX.4.2|9=159|35=D|34=50|49=JMSTRAT|52=20111020-18:34:28.600|56=NESTI|11=IAA0030|21=1|38=1100|40=1|54=1|55=CCRO3|60=20111020-16:34:28|9304=Y|9305=13|9306=193|9307=18|9308=Y|10=120|
8=FIX.4.2|9=153|35=8|34=50|49=NESTI|52=20111020-18:34:28.600|56=JMSTRAT|6=0|11=IAA0030|14=1100|17=001|20=0|31=66.6|32=1100|37=001|38=1100|39=1|54=1|55=CCRO3|150=1|151=0|10=086|
8=FIX.4.2|9=159|35=D|34=51|49=JMSTRAT|52=20111020-18:34:28.631|56=NESTI|11=IAA0032|21=1|38=1300|40=1|54=1|55=CCRO3|60=20111020-16:34:28|9304=Y|9305=13|9306=193|9307=18|9308=Y|10=129|
8=FIX.4.2|9=153|35=8|34=51|49=NESTI|52=20111020-18:34:28.631|56=JMSTRAT|6=0|11=IAA0032|14=1300|17=001|20=0|31=66.6|32=1300|37=001|38=1300|39=1|54=1|55=CCRO3|150=1|151=0|10=099|
8=FIX.4.2|9=159|35=D|34=52|49=JMSTRAT|52=20111020-18:34:28.678|56=NESTI|11=IAA0034|21=1|38=1900|40=1|54=2|55=GOLL4|60=20111020-16:34:28|9304=Y|9305=13|9306=193|9307=18|9308=Y|10=158|
8=FIX.4.2|9=153|35=8|34=52|49=NESTI|52=20111020-18:34:28.678|56=JMSTRAT|6=0|11=IAA0034|14=1900|17=001|20=0|31=66.6|32=1900|37=001|38=1900|39=1|54=2|55=GOLL4|150=1|151=0|10=140|
8=FIX.4.2|9=159|35=D|34=53|49=JMSTRAT|52=20111020-18:34:28.693|56=NESTI|11=IAA0036|21=1|38=1900|40=1|54=2|55=GOLL4|60=20111020-16:34:28|9304=Y|9305=13|9306=193|9307=18|9308=Y|10=158|
8=FIX.4.2|9=153|35=8|34=53|49=NESTI|52=20111020-18:34:28.709|56=JMSTRAT|6=0|11=IAA0036|14=1900|17=001|20=0|31=66.6|32=1900|37=001|38=1900|39=1|54=2|55=GOLL4|150=1|151=0|10=138|
8=FIX.4.2|9=159|35=D|34=54|49=JMSTRAT|52=20111020-18:34:28.803|56=NESTI|11=IAA0038|21=1|38=1000|40=1|54=2|55=TAMM4|60=20111020-16:34:28|9304=Y|9305=13|9306=193|9307=18|9308=Y|10=146|
8=FIX.4.2|9=153|35=8|34=54|49=NESTI|52=20111020-18:34:28.803|56=JMSTRAT|6=0|11=IAA0038|14=1000|17=001|20=0|31=66.6|32=1000|37=001|38=1000|39=1|54=2|55=TAMM4|150=1|151=0|10=110|
8=FIX.4.2|9=159|35=D|34=55|49=JMSTRAT|52=20111020-18:34:28.912|56=NESTI|11=IAA0040|21=1|38=1200|40=1|54=2|55=TAMM4|60=20111020-16:34:28|9304=Y|9305=13|9306=193|9307=18|9308=Y|10=143|
8=FIX.4.2|9=153|35=8|34=55|49=NESTI|52=20111020-18:34:28.928|56=JMSTRAT|6=0|11=IAA0040|14=1200|17=001|20=0|31=66.6|32=1200|37=001|38=1200|39=1|54=2|55=TAMM4|150=1|151=0|10=118|
8=FIX.4.2|9=159|35=D|34=56|49=JMSTRAT|52=20111020-18:34:28.959|56=NESTI|11=IAA0042|21=1|38=3800|40=1|54=1|55=ECOR3|60=20111020-16:34:28|9304=Y|9305=13|9306=193|9307=18|9308=Y|10=157|
8=FIX.4.2|9=153|35=8|34=56|49=NESTI|52=20111020-18:34:28.959|56=JMSTRAT|6=0|11=IAA0042|14=3800|17=001|20=0|31=66.6|32=3800|37=001|38=3800|39=1|54=1|55=ECOR3|150=1|151=0|10=141|
8=FIX.4.2|9=159|35=D|34=57|49=JMSTRAT|52=20111020-18:34:28.990|56=NESTI|11=IAA0044|21=1|38=4900|40=1|54=1|55=ECOR3|60=20111020-16:34:28|9304=Y|9305=13|9306=193|9307=18|9308=Y|10=157|
8=FIX.4.2|9=153|35=8|34=57|49=NESTI|52=20111020-18:34:29.037|56=JMSTRAT|6=0|11=IAA0044|14=4900|17=001|20=0|31=66.6|32=4900|37=001|38=4900|39=1|54=1|55=ECOR3|150=1|151=0|10=138|
8=FIX.4.2|9=56|35=0|34=58|49=JMSTRAT|52=20111020-18:35:28.532|56=NESTI|10=181|
8=FIX.4.2|9=56|35=0|34=58|49=NESTI|52=20111020-18:35:29.236|56=JMSTRAT|10=183|
8=FIX.4.2|9=56|35=0|34=59|49=JMSTRAT|52=20111020-18:36:28.637|56=NESTI|10=189|
8=FIX.4.2|9=56|35=0|34=59|49=NESTI|52=20111020-18:36:29.372|56=JMSTRAT|10=186|
8=FIX.4.2|9=56|35=0|34=60|49=JMSTRAT|52=20111020-18:37:28.773|56=NESTI|10=183|
8=FIX.4.2|9=56|35=0|34=60|49=NESTI|52=20111020-18:37:29.508|56=JMSTRAT|10=180|
8=FIX.4.2|9=56|35=0|34=61|49=JMSTRAT|52=20111020-18:38:28.894|56=NESTI|10=189|
8=FIX.4.2|9=56|35=0|34=61|49=NESTI|52=20111020-18:38:29.628|56=JMSTRAT|10=185|
8=FIX.4.2|9=56|35=0|34=62|49=JMSTRAT|52=20111020-18:39:28.998|56=NESTI|10=196|
8=FIX.4.2|9=56|35=0|34=62|49=NESTI|52=20111020-18:39:29.795|56=JMSTRAT|10=192|
8=FIX.4.2|9=68|35=A|34=63|49=JMSTRAT|52=20111020-18:45:23.565|56=NESTI|98=0|108=60|10=227|
8=FIX.4.2|9=68|35=A|34=63|49=NESTI|52=20111020-18:45:23.596|56=JMSTRAT|98=0|108=60|10=231|
8=FIX.4.2|9=56|35=0|34=64|49=NESTI|52=20111020-18:46:23.545|56=JMSTRAT|10=179|
8=FIX.4.2|9=56|35=0|34=64|49=JMSTRAT|52=20111020-18:46:23.591|56=NESTI|10=180|
8=FIX.4.2|9=56|35=0|34=65|49=NESTI|52=20111020-18:47:23.712|56=JMSTRAT|10=177|
8=FIX.4.2|9=56|35=0|34=65|49=JMSTRAT|52=20111020-18:47:23.712|56=NESTI|10=177|
8=FIX.4.2|9=56|35=0|34=66|49=NESTI|52=20111020-18:48:23.817|56=JMSTRAT|10=185|
8=FIX.4.2|9=56|35=0|34=66|49=JMSTRAT|52=20111020-18:48:23.817|56=NESTI|10=185|
8=FIX.4.2|9=68|35=A|34=67|49=JMSTRAT|52=20111020-18:49:17.625|56=NESTI|98=0|108=60|10=235|
8=FIX.4.2|9=68|35=A|34=67|49=NESTI|52=20111020-18:49:17.672|56=JMSTRAT|98=0|108=60|10=237|
8=FIX.4.2|9=68|35=A|34=68|49=JMSTRAT|52=20111020-18:49:41.092|56=NESTI|98=0|108=60|10=231|
8=FIX.4.2|9=68|35=A|34=68|49=NESTI|52=20111020-18:49:41.139|56=JMSTRAT|98=0|108=60|10=233|
8=FIX.4.2|9=56|35=0|34=69|49=NESTI|52=20111020-18:50:41.103|56=JMSTRAT|10=169|
8=FIX.4.2|9=56|35=0|34=69|49=JMSTRAT|52=20111020-18:50:41.103|56=NESTI|10=169|
8=FIX.4.2|9=68|35=A|34=70|49=JMSTRAT|52=20111020-19:49:45.284|56=NESTI|98=0|108=60|10=232|
8=FIX.4.2|9=68|35=A|34=70|49=NESTI|52=20111020-19:49:45.409|56=JMSTRAT|98=0|108=60|10=231|
