8=FIX.4.2|9=69|35=A|34=1|49=TESTACC|52=20100218-18:56:17.676|56=TESTINI|98=0|108=60|10=058|
8=FIX.4.2|9=69|35=A|34=2|49=TESTACC|52=20100218-18:56:21.098|56=TESTINI|98=0|108=60|10=052|
8=FIX.4.2|9=69|35=A|34=3|49=TESTACC|52=20100218-18:56:51.113|56=TESTINI|98=0|108=60|10=044|
8=FIX.4.2|9=69|35=A|34=4|49=TESTACC|52=20100218-18:57:21.128|56=TESTINI|98=0|108=60|10=049|
8=FIX.4.2|9=69|35=A|34=5|49=TESTACC|52=20100218-18:57:51.143|56=TESTINI|98=0|108=60|10=050|
8=FIX.4.2|9=69|35=A|34=6|49=TESTACC|52=20100218-18:58:21.158|56=TESTINI|98=0|108=60|10=055|
8=FIX.4.2|9=69|35=A|34=7|49=TESTACC|52=20100218-18:58:51.173|56=TESTINI|98=0|108=60|10=056|
8=FIX.4.2|9=69|35=A|34=8|49=TESTACC|52=20100218-19:01:00.124|56=TESTINI|98=0|108=60|10=036|
8=FIX.4.2|9=69|35=A|34=9|49=TESTACC|52=20100218-19:01:30.249|56=TESTINI|98=0|108=60|10=048|
8=FIX.4.2|9=70|35=A|34=10|49=TESTACC|52=20100218-19:02:00.732|56=TESTINI|98=0|108=60|10=075|
8=FIX.4.2|9=69|35=A|34=3|49=RATESBZ|52=20100312-19:13:01.814|56=NESTFIX|98=0|108=60|10=057|
8=FIX.4.2|9=69|35=A|34=4|49=RATESBZ|52=20100312-19:13:02.813|56=NESTFIX|98=0|108=60|10=058|
8=FIX.4.2|9=69|35=A|34=5|49=RATESBZ|52=20100312-19:13:57.943|56=NESTFIX|98=0|108=60|10=073|
8=FIX.4.2|9=69|35=A|34=6|49=RATESBZ|52=20100312-19:13:58.942|56=NESTFIX|98=0|108=60|10=074|
8=FIX.4.2|9=69|35=A|34=7|49=RATESBZ|52=20100312-19:14:28.336|56=NESTFIX|98=0|108=60|10=070|
8=FIX.4.2|9=69|35=A|34=8|49=RATESBZ|52=20100312-19:14:58.756|56=NESTFIX|98=0|108=60|10=080|
8=FIX.4.2|9=68|35=A|34=1|49=QUANT2|52=20100317-13:48:58.644|56=NESTFIX|98=0|108=60|10=234|
8=FIX.4.2|9=68|35=A|34=2|49=QUANT2|52=20100317-13:48:59.658|56=NESTFIX|98=0|108=60|10=241|
8=FIX.4.2|9=74|35=A|34=82|49=QUANTTEST|52=20100506-21:37:42.131|56=NESTITEST|98=0|108=60|10=189|
8=FIX.4.2|9=75|35=A|34=226|49=QUANTTEST|52=20100506-23:07:58.408|56=NESTITEST|98=0|108=60|10=251|
8=FIX.4.2|9=69|35=A|34=1|49=JMSTRAT|52=20110914-19:16:02.944|56=NESTFIX|98=0|108=60|10=082|
8=FIX.4.2|9=69|35=A|34=2|49=JMSTRAT|52=20110914-19:16:07.194|56=NESTFIX|98=0|108=60|10=085|
8=FIX.4.2|9=69|35=A|34=3|49=JMSTRAT|52=20110914-19:16:33.269|56=NESTFIX|98=0|108=60|10=088|
8=FIX.4.2|9=69|35=A|34=4|49=JMSTRAT|52=20110914-19:17:45.792|56=NESTFIX|98=0|108=60|10=094|
8=FIX.4.2|9=69|35=A|34=5|49=JMSTRAT|52=20110914-19:17:46.776|56=NESTFIX|98=0|108=60|10=098|
8=FIX.4.2|9=69|35=A|34=6|49=JMSTRAT|52=20110914-19:18:16.850|56=NESTFIX|98=0|108=60|10=090|
8=FIX.4.2|9=69|35=A|34=7|49=JMSTRAT|52=20110914-19:18:46.925|56=NESTFIX|98=0|108=60|10=097|
8=FIX.4.2|9=69|35=A|34=8|49=JMSTRAT|52=20110914-19:19:16.016|56=NESTFIX|98=0|108=60|10=087|
8=FIX.4.2|9=69|35=A|34=9|49=JMSTRAT|52=20110914-19:19:46.090|56=NESTFIX|98=0|108=60|10=093|
8=FIX.4.2|9=70|35=A|34=10|49=JMSTRAT|52=20110914-19:20:16.180|56=NESTFIX|98=0|108=60|10=114|
8=FIX.4.2|9=70|35=A|34=11|49=JMSTRAT|52=20110914-19:20:46.255|56=NESTFIX|98=0|108=60|10=121|
8=FIX.4.2|9=70|35=A|34=12|49=JMSTRAT|52=20110914-19:21:16.345|56=NESTFIX|98=0|108=60|10=120|
8=FIX.4.2|9=70|35=A|34=13|49=JMSTRAT|52=20110914-19:22:42.398|56=NESTFIX|98=0|108=60|10=129|
8=FIX.4.2|9=70|35=A|34=14|49=JMSTRAT|52=20110914-19:22:43.414|56=NESTFIX|98=0|108=60|10=120|
8=FIX.4.2|9=70|35=A|34=15|49=JMSTRAT|52=20110914-19:23:13.488|56=NESTFIX|98=0|108=60|10=130|
8=FIX.4.2|9=70|35=A|34=16|49=JMSTRAT|52=20110914-19:23:43.594|56=NESTFIX|98=0|108=60|10=132|
8=FIX.4.2|9=70|35=A|34=17|49=JMSTRAT|52=20110914-19:24:23.230|56=NESTFIX|98=0|108=60|10=119|
8=FIX.4.2|9=67|35=A|34=1|49=JMSTRAT|52=20110914-19:26:12.468|56=NESTI|98=0|108=60|10=181|
8=FIX.4.2|9=67|35=A|34=2|49=JMSTRAT|52=20110914-19:26:13.467|56=NESTI|98=0|108=60|10=182|
8=FIX.4.2|9=67|35=A|34=3|49=JMSTRAT|52=20110914-19:26:43.542|56=NESTI|98=0|108=60|10=180|
8=FIX.4.2|9=67|35=A|34=4|49=JMSTRAT|52=20110914-19:27:13.617|56=NESTI|98=0|108=60|10=182|
8=FIX.4.2|9=67|35=A|34=5|49=JMSTRAT|52=20110914-19:27:47.769|56=NESTI|98=0|108=60|10=198|
8=FIX.4.2|9=67|35=A|34=6|49=JMSTRAT|52=20110914-19:28:13.844|56=NESTI|98=0|108=60|10=187|
8=FIX.4.2|9=67|35=A|34=7|49=JMSTRAT|52=20110914-19:28:43.919|56=NESTI|98=0|108=60|10=194|
8=FIX.4.2|9=67|35=A|34=8|49=JMSTRAT|52=20110914-19:29:13.009|56=NESTI|98=0|108=60|10=183|
8=FIX.4.2|9=67|35=A|34=4|49=JMSTRAT|52=20111017-19:44:07.779|56=NESTi|98=0|108=60|10=220|
8=FIX.4.2|9=67|35=A|34=5|49=JMSTRAT|52=20111017-19:44:08.779|56=NESTi|98=0|108=60|10=222|
8=FIX.4.2|9=67|35=A|34=6|49=JMSTRAT|52=20111017-19:44:40.076|56=NESTi|98=0|108=60|10=209|
8=FIX.4.2|9=67|35=A|34=7|49=JMSTRAT|52=20111017-19:44:41.061|56=NESTi|98=0|108=60|10=205|
