8=FIX.4.4|9=79|35=A|34=1|49=nestumdfteste|52=20120706-13:48:59.515|56=XPBSP|98=0|108=30|141=Y|10=086|8=FIX.4.4|9=151|35=V|34=2|49=nestumdfteste|52=20120706-13:49:23.576|56=XPBSP|262=MDREQ-32012-07-06 10:49:23.575-0300-0|263=1|264=0|146=1|55=VALE5|207=BVMF|267=1|269=0|10=014|8=FIX.4.4|9=151|35=V|34=3|49=nestumdfteste|52=20120706-13:49:23.577|56=XPBSP|262=MDREQ-42012-07-06 10:49:23.576-0300-1|263=1|264=0|146=1|55=VALE5|207=BVMF|267=1|269=1|10=020|8=FIX.4.4|9=151|35=V|34=4|49=nestumdfteste|52=20120706-13:49:43.558|56=XPBSP|262=MDREQ-52012-07-06 10:49:43.557-0300-0|263=1|264=0|146=1|55=VALE3|207=BVMF|267=1|269=0|10=020|8=FIX.4.4|9=151|35=V|34=5|49=nestumdfteste|52=20120706-13:49:43.559|56=XPBSP|262=MDREQ-62012-07-06 10:49:43.558-0300-1|263=1|264=0|146=1|55=VALE3|207=BVMF|267=1|269=1|10=026|8=FIX.4.4|9=61|35=0|34=6|49=nestumdfteste|52=20120706-13:50:13.605|56=XPBSP|10=234|8=FIX.4.4|9=151|35=V|34=7|49=nestumdfteste|52=20120706-13:50:22.888|56=XPBSP|262=MDREQ-72012-07-06 10:50:22.888-0300-0|263=1|264=0|146=1|55=PETR3|207=BVMF|267=1|269=0|10=035|8=FIX.4.4|9=151|35=V|34=8|49=nestumdfteste|52=20120706-13:50:22.889|56=XPBSP|262=MDREQ-82012-07-06 10:50:22.889-0300-1|263=1|264=0|146=1|55=PETR3|207=BVMF|267=1|269=1|10=041|8=FIX.4.4|9=61|35=5|34=9|49=nestumdfteste|52=20120706-13:50:32.504|56=XPBSP|10=241|