8=FIX.4.4|9=79|35=A|34=1|49=nest_umdf_bmf|52=20120813-14:54:49.522|56=XPBMF|98=0|108=30|141=Y|10=014|8=FIX.4.4|9=61|35=5|34=2|49=nest_umdf_bmf|52=20120813-14:55:18.507|56=XPBMF|10=180|