8=FIX.4.2|9=70|35=A|34=1|49=RAFATEST|52=20100325-14:42:59.763|56=NESTFIX|98=0|108=60|10=127|
8=FIX.4.2|9=109|35=5|34=43|49=NESTFIX|52=20100325-14:43:00.114|56=RAFATEST|58=MsgSeqNum too low, expecting 43 but received 1|10=117|
8=FIX.4.2|9=58|35=5|34=2|49=RAFATEST|52=20100325-14:42:59.872|56=NESTFIX|10=095|
8=FIX.4.2|9=70|35=A|34=3|49=RAFATEST|52=20100325-14:43:00.747|56=NESTFIX|98=0|108=60|10=118|
8=FIX.4.2|9=109|35=5|34=44|49=NESTFIX|52=20100325-14:43:00.989|56=RAFATEST|58=MsgSeqNum too low, expecting 43 but received 3|10=140|
8=FIX.4.2|9=58|35=5|34=4|49=RAFATEST|52=20100325-14:43:00.747|56=NESTFIX|10=085|
8=FIX.4.2|9=70|35=A|34=5|49=RAFATEST|52=20100325-14:45:37.900|56=NESTFIX|98=0|108=60|10=123|
8=FIX.4.2|9=109|35=5|34=45|49=NESTFIX|52=20100325-14:45:38.150|56=RAFATEST|58=MsgSeqNum too low, expecting 43 but received 5|10=136|
8=FIX.4.2|9=58|35=5|34=6|49=RAFATEST|52=20100325-14:45:37.916|56=NESTFIX|10=097|
8=FIX.4.2|9=70|35=A|34=7|49=RAFATEST|52=20100325-14:45:38.885|56=NESTFIX|98=0|108=60|10=138|
8=FIX.4.2|9=109|35=5|34=46|49=NESTFIX|52=20100325-14:45:39.119|56=RAFATEST|58=MsgSeqNum too low, expecting 43 but received 7|10=145|
8=FIX.4.2|9=58|35=5|34=8|49=RAFATEST|52=20100325-14:45:38.885|56=NESTFIX|10=105|
8=FIX.4.2|9=71|35=A|34=43|49=RAFATEST|52=20100325-14:46:26.321|56=NESTFIX|98=0|108=60|10=170|
8=FIX.4.2|9=71|35=A|34=47|49=NESTFIX|52=20100325-14:46:26.527|56=RAFATEST|98=0|108=60|10=182|
8=FIX.4.2|9=69|35=2|34=44|49=RAFATEST|52=20100325-14:46:26.353|56=NESTFIX|7=43|16=0|10=061|
8=FIX.4.2|9=102|35=4|34=43|43=Y|49=NESTFIX|52=20100325-14:46:26.527|56=RAFATEST|122=20100325-14:46:26.527|36=48|123=Y|10=246|
8=FIX.4.2|9=59|35=0|34=45|49=RAFATEST|52=20100325-14:47:26.367|56=NESTFIX|10=144|
8=FIX.4.2|9=59|35=0|34=48|49=NESTFIX|52=20100325-14:47:26.482|56=RAFATEST|10=145|
8=FIX.4.2|9=123|35=D|34=46|49=RAFATEST|52=20100325-14:48:04.757|56=NESTFIX|11=IAA0001|21=1|38=5|40=1|54=1|55=PETR4.SA|60=20100325-11:48:04|10=049|
8=FIX.4.2|9=203|35=8|34=49|49=NESTFIX|50=RAI|52=20100325-14:48:04.873|56=RAFATEST|6=0.00000000|11=IAA0001|14=0|17=1100000001|20=0|31=0.00000000|32=0|37=BNF00000QUANT|38=5|39=0|44=0.00000000|54=1|55=PETR4.SA|150=0|151=5|10=048|
8=FIX.4.2|9=197|35=8|34=50|49=NESTFIX|52=20100325-14:48:06.983|56=RAFATEST|6=36.10000000|11=IAA0001|14=5|17=183000216|20=0|31=36.10000000|32=5|37=BNF00000QUANT|38=5|39=2|44=0.00000000|54=1|55=PETR4.SA|150=2|151=0|10=024|
8=FIX.4.2|9=59|35=0|34=47|49=RAFATEST|52=20100325-14:49:04.428|56=NESTFIX|10=142|
8=FIX.4.2|9=59|35=0|34=51|49=NESTFIX|52=20100325-14:49:06.813|56=RAFATEST|10=137|
8=FIX.4.2|9=123|35=D|34=48|49=RAFATEST|52=20100325-14:49:24.490|56=NESTFIX|11=IAA0002|21=1|38=5|40=1|54=1|55=PETR4.SA|60=20100325-11:49:24|10=052|
8=FIX.4.2|9=203|35=8|34=52|49=NESTFIX|50=RAI|52=20100325-14:49:24.579|56=RAFATEST|6=0.00000000|11=IAA0002|14=0|17=1100000004|20=0|31=0.00000000|32=0|37=BNF00001QUANT|38=5|39=0|44=0.00000000|54=1|55=PETR4.SA|150=0|151=5|10=053|
8=FIX.4.2|9=197|35=8|34=53|49=NESTFIX|52=20100325-14:49:24.767|56=RAFATEST|6=36.12000000|11=IAA0002|14=5|17=183000218|20=0|31=36.12000000|32=5|37=BNF00001QUANT|38=5|39=2|44=0.00000000|54=1|55=PETR4.SA|150=2|151=0|10=036|
8=FIX.4.2|9=59|35=0|34=49|49=RAFATEST|52=20100325-14:50:24.473|56=NESTFIX|10=138|
8=FIX.4.2|9=59|35=0|34=54|49=NESTFIX|52=20100325-14:50:24.472|56=RAFATEST|10=133|
8=FIX.4.2|9=121|35=D|34=50|49=RAFATEST|52=20100325-14:51:02.254|56=NESTFIX|11=IAA0003|21=1|38=5|40=1|54=1|55=2DIJF1|60=20100325-11:51:02|10=099|
8=FIX.4.2|9=201|35=8|34=55|49=NESTFIX|50=RAI|52=20100325-14:51:02.285|56=RAFATEST|6=0.00000000|11=IAA0003|14=0|17=1100000007|20=0|31=0.00000000|32=0|37=BNF00002QUANT|38=5|39=0|44=0.00000000|54=1|55=2DIJF1|150=0|151=5|10=121|
8=FIX.4.2|9=59|35=0|34=51|49=RAFATEST|52=20100325-14:52:02.518|56=NESTFIX|10=129|
8=FIX.4.2|9=59|35=0|34=56|49=NESTFIX|52=20100325-14:52:02.475|56=RAFATEST|10=136|
8=FIX.4.2|9=59|35=0|34=52|49=RAFATEST|52=20100325-14:53:02.564|56=NESTFIX|10=132|
8=FIX.4.2|9=59|35=0|34=57|49=NESTFIX|52=20100325-14:53:02.492|56=RAFATEST|10=137|
8=FIX.4.2|9=59|35=0|34=53|49=RAFATEST|52=20100325-14:54:02.594|56=NESTFIX|10=137|
8=FIX.4.2|9=59|35=0|34=58|49=NESTFIX|52=20100325-14:54:02.525|56=RAFATEST|10=136|
8=FIX.4.2|9=59|35=0|34=54|49=RAFATEST|52=20100325-14:55:02.624|56=NESTFIX|10=133|
8=FIX.4.2|9=59|35=0|34=59|49=NESTFIX|52=20100325-14:55:02.559|56=RAFATEST|10=145|
8=FIX.4.2|9=59|35=0|34=55|49=RAFATEST|52=20100325-14:56:02.654|56=NESTFIX|10=138|
8=FIX.4.2|9=59|35=0|34=60|49=NESTFIX|52=20100325-14:56:02.592|56=RAFATEST|10=135|
8=FIX.4.2|9=59|35=0|34=56|49=RAFATEST|52=20100325-14:57:02.684|56=NESTFIX|10=143|
8=FIX.4.2|9=59|35=0|34=61|49=NESTFIX|52=20100325-14:57:02.625|56=RAFATEST|10=134|
8=FIX.4.2|9=59|35=0|34=57|49=RAFATEST|52=20100325-14:58:02.699|56=NESTFIX|10=151|
8=FIX.4.2|9=59|35=0|34=62|49=NESTFIX|52=20100325-14:58:02.643|56=RAFATEST|10=136|
8=FIX.4.2|9=59|35=0|34=58|49=RAFATEST|52=20100325-14:59:02.729|56=NESTFIX|10=147|
8=FIX.4.2|9=59|35=0|34=63|49=NESTFIX|52=20100325-14:59:02.676|56=RAFATEST|10=144|
8=FIX.4.2|9=59|35=0|34=59|49=RAFATEST|52=20100325-15:00:02.759|56=NESTFIX|10=138|
8=FIX.4.2|9=59|35=0|34=64|49=NESTFIX|52=20100325-15:00:02.709|56=RAFATEST|10=129|
8=FIX.4.2|9=59|35=0|34=60|49=RAFATEST|52=20100325-15:01:02.789|56=NESTFIX|10=134|
8=FIX.4.2|9=59|35=0|34=65|49=NESTFIX|52=20100325-15:01:02.742|56=RAFATEST|10=128|
8=FIX.4.2|9=59|35=0|34=61|49=RAFATEST|52=20100325-15:02:02.819|56=NESTFIX|10=130|
8=FIX.4.2|9=59|35=0|34=66|49=NESTFIX|52=20100325-15:02:02.775|56=RAFATEST|10=136|
8=FIX.4.2|9=59|35=0|34=62|49=RAFATEST|52=20100325-15:03:02.849|56=NESTFIX|10=135|
8=FIX.4.2|9=59|35=0|34=67|49=NESTFIX|52=20100325-15:03:02.808|56=RAFATEST|10=135|
8=FIX.4.2|9=59|35=0|34=63|49=RAFATEST|52=20100325-15:04:02.864|56=NESTFIX|10=134|
8=FIX.4.2|9=59|35=0|34=68|49=NESTFIX|52=20100325-15:04:02.826|56=RAFATEST|10=137|
8=FIX.4.2|9=59|35=0|34=64|49=RAFATEST|52=20100325-15:05:02.894|56=NESTFIX|10=139|
8=FIX.4.2|9=59|35=0|34=69|49=NESTFIX|52=20100325-15:05:02.859|56=RAFATEST|10=145|
8=FIX.4.2|9=59|35=0|34=65|49=RAFATEST|52=20100325-15:06:02.924|56=NESTFIX|10=135|
8=FIX.4.2|9=59|35=0|34=70|49=NESTFIX|52=20100325-15:06:02.892|56=RAFATEST|10=135|
8=FIX.4.2|9=59|35=0|34=66|49=RAFATEST|52=20100325-15:07:02.954|56=NESTFIX|10=140|
8=FIX.4.2|9=59|35=0|34=71|49=NESTFIX|52=20100325-15:07:02.925|56=RAFATEST|10=134|
8=FIX.4.2|9=59|35=0|34=72|49=NESTFIX|52=20100325-15:08:02.943|56=RAFATEST|10=136|
8=FIX.4.2|9=59|35=0|34=67|49=RAFATEST|52=20100325-15:08:02.968|56=NESTFIX|10=147|
8=FIX.4.2|9=59|35=0|34=68|49=RAFATEST|52=20100325-15:09:02.030|56=NESTFIX|10=129|
8=FIX.4.2|9=59|35=0|34=73|49=NESTFIX|52=20100325-15:09:02.007|56=RAFATEST|10=129|
8=FIX.4.2|9=59|35=0|34=69|49=RAFATEST|52=20100325-15:10:02.060|56=NESTFIX|10=125|
8=FIX.4.2|9=59|35=0|34=74|49=NESTFIX|52=20100325-15:10:02.025|56=RAFATEST|10=122|
8=FIX.4.2|9=59|35=0|34=70|49=RAFATEST|52=20100325-15:11:02.090|56=NESTFIX|10=121|
8=FIX.4.2|9=59|35=0|34=75|49=NESTFIX|52=20100325-15:11:02.058|56=RAFATEST|10=130|
8=FIX.4.2|9=59|35=0|34=71|49=RAFATEST|52=20100325-15:12:02.120|56=NESTFIX|10=117|
8=FIX.4.2|9=59|35=0|34=76|49=NESTFIX|52=20100325-15:12:02.091|56=RAFATEST|10=129|
8=FIX.4.2|9=59|35=0|34=72|49=RAFATEST|52=20100325-15:13:02.150|56=NESTFIX|10=122|
8=FIX.4.2|9=59|35=0|34=77|49=NESTFIX|52=20100325-15:13:02.124|56=RAFATEST|10=128|
8=FIX.4.2|9=59|35=0|34=73|49=RAFATEST|52=20100325-15:14:02.165|56=NESTFIX|10=130|
8=FIX.4.2|9=59|35=0|34=78|49=NESTFIX|52=20100325-15:14:02.142|56=RAFATEST|10=130|
8=FIX.4.2|9=59|35=0|34=74|49=RAFATEST|52=20100325-15:15:02.195|56=NESTFIX|10=135|
8=FIX.4.2|9=59|35=0|34=79|49=NESTFIX|52=20100325-15:15:02.175|56=RAFATEST|10=138|
8=FIX.4.2|9=59|35=0|34=75|49=RAFATEST|52=20100325-15:16:02.225|56=NESTFIX|10=131|
8=FIX.4.2|9=59|35=0|34=80|49=NESTFIX|52=20100325-15:16:02.208|56=RAFATEST|10=128|
8=FIX.4.2|9=59|35=0|34=76|49=RAFATEST|52=20100325-15:17:02.255|56=NESTFIX|10=136|
8=FIX.4.2|9=59|35=0|34=81|49=NESTFIX|52=20100325-15:17:02.242|56=RAFATEST|10=128|
8=FIX.4.2|9=59|35=0|34=77|49=RAFATEST|52=20100325-15:18:02.285|56=NESTFIX|10=141|
8=FIX.4.2|9=59|35=0|34=82|49=NESTFIX|52=20100325-15:18:02.243|56=RAFATEST|10=131|
8=FIX.4.2|9=59|35=0|34=78|49=RAFATEST|52=20100325-15:19:02.315|56=NESTFIX|10=137|
8=FIX.4.2|9=59|35=0|34=83|49=NESTFIX|52=20100325-15:19:02.277|56=RAFATEST|10=140|
8=FIX.4.2|9=59|35=0|34=84|49=NESTFIX|52=20100325-15:20:02.013|56=RAFATEST|10=121|
8=FIX.4.2|9=59|35=0|34=79|49=RAFATEST|52=20100325-15:20:02.033|56=NESTFIX|10=127|
8=FIX.4.2|9=59|35=0|34=85|49=NESTFIX|52=20100325-15:21:02.015|56=RAFATEST|10=125|
8=FIX.4.2|9=59|35=0|34=80|49=RAFATEST|52=20100325-15:21:02.031|56=NESTFIX|10=118|
8=FIX.4.2|9=59|35=0|34=86|49=NESTFIX|52=20100325-15:22:02.017|56=RAFATEST|10=129|
8=FIX.4.2|9=59|35=0|34=81|49=RAFATEST|52=20100325-15:22:02.030|56=NESTFIX|10=119|
8=FIX.4.2|9=59|35=0|34=87|49=NESTFIX|52=20100325-15:23:02.019|56=RAFATEST|10=133|
8=FIX.4.2|9=59|35=0|34=82|49=RAFATEST|52=20100325-15:23:02.029|56=NESTFIX|10=129|
8=FIX.4.2|9=59|35=0|34=88|49=NESTFIX|52=20100325-15:24:02.021|56=RAFATEST|10=128|
8=FIX.4.2|9=59|35=0|34=83|49=RAFATEST|52=20100325-15:24:02.028|56=NESTFIX|10=130|
8=FIX.4.2|9=59|35=0|34=89|49=NESTFIX|52=20100325-15:25:02.022|56=RAFATEST|10=131|
8=FIX.4.2|9=59|35=0|34=84|49=RAFATEST|52=20100325-15:25:02.027|56=NESTFIX|10=131|
8=FIX.4.2|9=59|35=0|34=90|49=NESTFIX|52=20100325-15:26:02.024|56=RAFATEST|10=126|
8=FIX.4.2|9=59|35=0|34=85|49=RAFATEST|52=20100325-15:26:02.026|56=NESTFIX|10=132|
8=FIX.4.2|9=59|35=0|34=91|49=NESTFIX|52=20100325-15:27:02.026|56=RAFATEST|10=130|
8=FIX.4.2|9=59|35=0|34=86|49=RAFATEST|52=20100325-15:27:02.025|56=NESTFIX|10=133|
8=FIX.4.2|9=59|35=0|34=92|49=NESTFIX|52=20100325-15:28:02.028|56=RAFATEST|10=134|
8=FIX.4.2|9=59|35=0|34=87|49=RAFATEST|52=20100325-15:28:02.023|56=NESTFIX|10=133|
8=FIX.4.2|9=59|35=0|34=93|49=NESTFIX|52=20100325-15:29:02.030|56=RAFATEST|10=129|
8=FIX.4.2|9=59|35=0|34=88|49=RAFATEST|52=20100325-15:29:02.022|56=NESTFIX|10=134|
8=FIX.4.2|9=59|35=0|34=94|49=NESTFIX|52=20100325-15:30:02.032|56=RAFATEST|10=124|
8=FIX.4.2|9=59|35=0|34=89|49=RAFATEST|52=20100325-15:30:02.021|56=NESTFIX|10=126|
8=FIX.4.2|9=59|35=0|34=95|49=NESTFIX|52=20100325-15:31:02.034|56=RAFATEST|10=128|
8=FIX.4.2|9=59|35=0|34=90|49=RAFATEST|52=20100325-15:31:02.020|56=NESTFIX|10=118|
8=FIX.4.2|9=59|35=0|34=96|49=NESTFIX|52=20100325-15:32:02.036|56=RAFATEST|10=132|
8=FIX.4.2|9=59|35=0|34=91|49=RAFATEST|52=20100325-15:32:02.034|56=NESTFIX|10=125|
8=FIX.4.2|9=59|35=0|34=97|49=NESTFIX|52=20100325-15:33:02.038|56=RAFATEST|10=136|
8=FIX.4.2|9=59|35=0|34=92|49=RAFATEST|52=20100325-15:33:02.033|56=NESTFIX|10=126|
8=FIX.4.2|9=59|35=0|34=98|49=NESTFIX|52=20100325-15:34:02.040|56=RAFATEST|10=131|
8=FIX.4.2|9=59|35=0|34=93|49=RAFATEST|52=20100325-15:34:02.032|56=NESTFIX|10=127|
8=FIX.4.2|9=59|35=0|34=99|49=NESTFIX|52=20100325-15:35:02.042|56=RAFATEST|10=135|
8=FIX.4.2|9=59|35=0|34=94|49=RAFATEST|52=20100325-15:35:02.031|56=NESTFIX|10=128|
8=FIX.4.2|9=60|35=0|34=100|49=NESTFIX|52=20100325-15:36:02.044|56=RAFATEST|10=161|
8=FIX.4.2|9=59|35=0|34=95|49=RAFATEST|52=20100325-15:36:02.014|56=NESTFIX|10=131|
8=FIX.4.2|9=60|35=0|34=101|49=NESTFIX|52=20100325-15:37:02.046|56=RAFATEST|10=165|
8=FIX.4.2|9=59|35=0|34=96|49=RAFATEST|52=20100325-15:37:02.076|56=NESTFIX|10=141|
8=FIX.4.2|9=60|35=0|34=102|49=NESTFIX|52=20100325-15:38:02.047|56=RAFATEST|10=168|
8=FIX.4.2|9=59|35=0|34=97|49=RAFATEST|52=20100325-15:38:02.074|56=NESTFIX|10=141|
8=FIX.4.2|9=60|35=0|34=103|49=NESTFIX|52=20100325-15:39:02.049|56=RAFATEST|10=172|
8=FIX.4.2|9=59|35=0|34=98|49=RAFATEST|52=20100325-15:39:02.073|56=NESTFIX|10=142|
8=FIX.4.2|9=60|35=0|34=104|49=NESTFIX|52=20100325-15:40:02.051|56=RAFATEST|10=158|
8=FIX.4.2|9=59|35=0|34=99|49=RAFATEST|52=20100325-15:40:02.088|56=NESTFIX|10=141|
8=FIX.4.2|9=60|35=0|34=105|49=NESTFIX|52=20100325-15:41:02.053|56=RAFATEST|10=162|
8=FIX.4.2|9=60|35=0|34=100|49=RAFATEST|52=20100325-15:41:02.087|56=NESTFIX|10=164|
8=FIX.4.2|9=60|35=0|34=101|49=RAFATEST|52=20100325-15:42:02.023|56=NESTFIX|10=156|
8=FIX.4.2|9=60|35=0|34=106|49=NESTFIX|52=20100325-15:42:02.055|56=RAFATEST|10=166|
8=FIX.4.2|9=60|35=0|34=102|49=RAFATEST|52=20100325-15:43:02.053|56=NESTFIX|10=161|
8=FIX.4.2|9=60|35=0|34=107|49=NESTFIX|52=20100325-15:43:02.010|56=RAFATEST|10=159|
8=FIX.4.2|9=60|35=0|34=103|49=RAFATEST|52=20100325-15:44:02.083|56=NESTFIX|10=166|
8=FIX.4.2|9=60|35=0|34=108|49=NESTFIX|52=20100325-15:44:02.043|56=RAFATEST|10=167|
8=FIX.4.2|9=60|35=0|34=104|49=RAFATEST|52=20100325-15:45:02.098|56=NESTFIX|10=174|
8=FIX.4.2|9=60|35=0|34=109|49=NESTFIX|52=20100325-15:45:02.061|56=RAFATEST|10=169|
8=FIX.4.2|9=60|35=0|34=110|49=NESTFIX|52=20100325-15:46:02.094|56=RAFATEST|10=168|
8=FIX.4.2|9=60|35=0|34=105|49=RAFATEST|52=20100325-15:46:02.112|56=NESTFIX|10=163|
8=FIX.4.2|9=60|35=0|34=111|49=NESTFIX|52=20100325-15:47:02.096|56=RAFATEST|10=172|
8=FIX.4.2|9=60|35=0|34=106|49=RAFATEST|52=20100325-15:47:02.111|56=NESTFIX|10=164|
8=FIX.4.2|9=60|35=0|34=112|49=NESTFIX|52=20100325-15:48:02.098|56=RAFATEST|10=176|
8=FIX.4.2|9=60|35=0|34=107|49=RAFATEST|52=20100325-15:48:02.125|56=NESTFIX|10=171|
8=FIX.4.2|9=60|35=0|34=113|49=NESTFIX|52=20100325-15:49:02.100|56=RAFATEST|10=162|
8=FIX.4.2|9=60|35=0|34=108|49=RAFATEST|52=20100325-15:49:02.124|56=NESTFIX|10=172|
8=FIX.4.2|9=60|35=0|34=114|49=NESTFIX|52=20100325-15:50:02.102|56=RAFATEST|10=157|
8=FIX.4.2|9=60|35=0|34=109|49=RAFATEST|52=20100325-15:50:02.123|56=NESTFIX|10=164|
8=FIX.4.2|9=60|35=0|34=115|49=NESTFIX|52=20100325-15:51:02.104|56=RAFATEST|10=161|
8=FIX.4.2|9=60|35=0|34=110|49=RAFATEST|52=20100325-15:51:02.122|56=NESTFIX|10=156|
8=FIX.4.2|9=60|35=0|34=116|49=NESTFIX|52=20100325-15:52:02.106|56=RAFATEST|10=165|
8=FIX.4.2|9=60|35=0|34=111|49=RAFATEST|52=20100325-15:52:02.105|56=NESTFIX|10=159|
8=FIX.4.2|9=60|35=0|34=117|49=NESTFIX|52=20100325-15:53:02.107|56=RAFATEST|10=168|
8=FIX.4.2|9=60|35=0|34=112|49=RAFATEST|52=20100325-15:53:02.166|56=NESTFIX|10=168|
8=FIX.4.2|9=60|35=0|34=118|49=NESTFIX|52=20100325-15:54:02.109|56=RAFATEST|10=172|
8=FIX.4.2|9=60|35=0|34=113|49=RAFATEST|52=20100325-15:54:02.165|56=NESTFIX|10=169|
8=FIX.4.2|9=60|35=0|34=119|49=NESTFIX|52=20100325-15:55:02.111|56=RAFATEST|10=167|
8=FIX.4.2|9=60|35=0|34=114|49=RAFATEST|52=20100325-15:55:02.164|56=NESTFIX|10=170|
8=FIX.4.2|9=60|35=0|34=120|49=NESTFIX|52=20100325-15:56:02.113|56=RAFATEST|10=162|
8=FIX.4.2|9=60|35=0|34=115|49=RAFATEST|52=20100325-15:56:02.163|56=NESTFIX|10=171|
8=FIX.4.2|9=60|35=0|34=121|49=NESTFIX|52=20100325-15:57:02.115|56=RAFATEST|10=166|
8=FIX.4.2|9=60|35=0|34=116|49=RAFATEST|52=20100325-15:57:02.162|56=NESTFIX|10=172|
8=FIX.4.2|9=60|35=0|34=122|49=NESTFIX|52=20100325-15:58:02.117|56=RAFATEST|10=170|
8=FIX.4.2|9=60|35=0|34=117|49=RAFATEST|52=20100325-15:58:02.161|56=NESTFIX|10=173|
8=FIX.4.2|9=60|35=0|34=123|49=NESTFIX|52=20100325-15:59:02.119|56=RAFATEST|10=174|
8=FIX.4.2|9=60|35=0|34=118|49=RAFATEST|52=20100325-15:59:02.160|56=NESTFIX|10=174|
8=FIX.4.2|9=60|35=0|34=124|49=NESTFIX|52=20100325-16:00:02.121|56=RAFATEST|10=155|
8=FIX.4.2|9=60|35=0|34=119|49=RAFATEST|52=20100325-16:00:02.158|56=NESTFIX|10=169|
8=FIX.4.2|9=60|35=0|34=125|49=NESTFIX|52=20100325-16:01:02.123|56=RAFATEST|10=159|
8=FIX.4.2|9=60|35=0|34=120|49=RAFATEST|52=20100325-16:01:02.157|56=NESTFIX|10=161|
8=FIX.4.2|9=60|35=0|34=126|49=NESTFIX|52=20100325-16:02:02.125|56=RAFATEST|10=163|
8=FIX.4.2|9=60|35=0|34=121|49=RAFATEST|52=20100325-16:02:02.187|56=NESTFIX|10=166|
8=FIX.4.2|9=60|35=0|34=127|49=NESTFIX|52=20100325-16:03:02.127|56=RAFATEST|10=167|
8=FIX.4.2|9=60|35=0|34=122|49=RAFATEST|52=20100325-16:03:02.186|56=NESTFIX|10=167|
8=FIX.4.2|9=60|35=0|34=128|49=NESTFIX|52=20100325-16:04:02.129|56=RAFATEST|10=171|
8=FIX.4.2|9=60|35=0|34=123|49=RAFATEST|52=20100325-16:04:02.185|56=NESTFIX|10=168|
8=FIX.4.2|9=60|35=0|34=129|49=NESTFIX|52=20100325-16:05:02.131|56=RAFATEST|10=166|
8=FIX.4.2|9=60|35=0|34=124|49=RAFATEST|52=20100325-16:05:02.231|56=NESTFIX|10=162|
8=FIX.4.2|9=60|35=0|34=130|49=NESTFIX|52=20100325-16:06:02.132|56=RAFATEST|10=160|
8=FIX.4.2|9=60|35=0|34=125|49=RAFATEST|52=20100325-16:06:02.245|56=NESTFIX|10=169|
8=FIX.4.2|9=60|35=0|34=131|49=NESTFIX|52=20100325-16:07:02.134|56=RAFATEST|10=164|
8=FIX.4.2|9=60|35=0|34=126|49=RAFATEST|52=20100325-16:07:02.244|56=NESTFIX|10=170|
8=FIX.4.2|9=60|35=0|34=132|49=NESTFIX|52=20100325-16:08:02.136|56=RAFATEST|10=168|
8=FIX.4.2|9=60|35=0|34=127|49=RAFATEST|52=20100325-16:08:02.243|56=NESTFIX|10=171|
8=FIX.4.2|9=60|35=0|34=133|49=NESTFIX|52=20100325-16:09:02.138|56=RAFATEST|10=172|
8=FIX.4.2|9=60|35=0|34=128|49=RAFATEST|52=20100325-16:09:02.242|56=NESTFIX|10=172|
8=FIX.4.2|9=60|35=0|34=134|49=NESTFIX|52=20100325-16:10:02.140|56=RAFATEST|10=158|
8=FIX.4.2|9=60|35=0|34=129|49=RAFATEST|52=20100325-16:10:02.256|56=NESTFIX|10=170|
8=FIX.4.2|9=60|35=0|34=135|49=NESTFIX|52=20100325-16:11:02.142|56=RAFATEST|10=162|
8=FIX.4.2|9=60|35=0|34=130|49=RAFATEST|52=20100325-16:11:02.255|56=NESTFIX|10=162|
8=FIX.4.2|9=60|35=0|34=136|49=NESTFIX|52=20100325-16:12:02.144|56=RAFATEST|10=166|
8=FIX.4.2|9=60|35=0|34=131|49=RAFATEST|52=20100325-16:12:02.254|56=NESTFIX|10=163|
8=FIX.4.2|9=60|35=0|34=137|49=NESTFIX|52=20100325-16:13:02.146|56=RAFATEST|10=170|
8=FIX.4.2|9=60|35=0|34=132|49=RAFATEST|52=20100325-16:13:02.253|56=NESTFIX|10=164|
8=FIX.4.2|9=60|35=0|34=138|49=NESTFIX|52=20100325-16:14:02.148|56=RAFATEST|10=174|
8=FIX.4.2|9=60|35=0|34=133|49=RAFATEST|52=20100325-16:14:02.252|56=NESTFIX|10=165|
8=FIX.4.2|9=60|35=0|34=134|49=RAFATEST|52=20100325-16:15:02.016|56=NESTFIX|10=165|
8=FIX.4.2|9=60|35=0|34=139|49=NESTFIX|52=20100325-16:15:02.150|56=RAFATEST|10=169|
8=FIX.4.2|9=60|35=0|34=135|49=RAFATEST|52=20100325-16:16:02.062|56=NESTFIX|10=168|
8=FIX.4.2|9=60|35=0|34=140|49=NESTFIX|52=20100325-16:16:02.152|56=RAFATEST|10=164|
8=FIX.4.2|9=124|35=D|34=136|49=RAFATEST|52=20100325-16:16:42.545|56=NESTFIX|11=IAA0004|21=1|38=5|40=1|54=1|55=VALE5.SA|60=20100325-13:16:42|10=076|
8=FIX.4.2|9=204|35=8|34=141|49=NESTFIX|50=RAI|52=20100325-16:16:42.465|56=RAFATEST|6=0.00000000|11=IAA0004|14=0|17=1100000009|20=0|31=0.00000000|32=0|37=BNF00003QUANT|38=5|39=0|44=0.00000000|54=1|55=VALE5.SA|150=0|151=5|10=082|
8=FIX.4.2|9=198|35=8|34=142|49=NESTFIX|52=20100325-16:16:42.669|56=RAFATEST|6=48.86000000|11=IAA0004|14=5|17=183000365|20=0|31=48.86000000|32=5|37=BNF00003QUANT|38=5|39=2|44=0.00000000|54=1|55=VALE5.SA|150=2|151=0|10=098|
8=FIX.4.2|9=60|35=0|34=137|49=RAFATEST|52=20100325-16:17:42.107|56=NESTFIX|10=175|
8=FIX.4.2|9=60|35=0|34=143|49=NESTFIX|52=20100325-16:17:42.155|56=RAFATEST|10=175|
8=FIX.4.2|9=124|35=D|34=138|49=RAFATEST|52=20100325-16:18:23.919|56=NESTFIX|11=IAA0005|21=1|38=5|40=1|54=1|55=VALE5.SA|60=20100325-13:18:23|10=086|
8=FIX.4.2|9=204|35=8|34=144|49=NESTFIX|50=RAI|52=20100325-16:18:23.797|56=RAFATEST|6=0.00000000|11=IAA0005|14=0|17=1100000012|20=0|31=0.00000000|32=0|37=BNF00004QUANT|38=5|39=0|44=0.00000000|54=1|55=VALE5.SA|150=0|151=5|10=090|
8=FIX.4.2|9=198|35=8|34=145|49=NESTFIX|52=20100325-16:18:23.844|56=RAFATEST|6=48.89000000|11=IAA0005|14=5|17=183000367|20=0|31=48.89000000|32=5|37=BNF00004QUANT|38=5|39=2|44=0.00000000|54=1|55=VALE5.SA|150=2|151=0|10=107|
8=FIX.4.2|9=60|35=0|34=139|49=RAFATEST|52=20100325-16:19:23.152|56=NESTFIX|10=178|
8=FIX.4.2|9=60|35=0|34=146|49=NESTFIX|52=20100325-16:19:23.158|56=RAFATEST|10=182|
8=FIX.4.2|9=60|35=0|34=140|49=RAFATEST|52=20100325-16:20:23.182|56=NESTFIX|10=165|
8=FIX.4.2|9=60|35=0|34=147|49=NESTFIX|52=20100325-16:20:23.176|56=RAFATEST|10=175|
8=FIX.4.2|9=124|35=D|34=141|49=RAFATEST|52=20100325-16:20:39.775|56=NESTFIX|11=IAA0006|21=1|38=5|40=1|54=1|55=VALE5.SA|60=20100325-13:20:39|10=081|
8=FIX.4.2|9=204|35=8|34=148|49=NESTFIX|50=RAI|52=20100325-16:20:39.614|56=RAFATEST|6=0.00000000|11=IAA0006|14=0|17=1100000015|20=0|31=0.00000000|32=0|37=BNF00005QUANT|38=5|39=0|44=0.00000000|54=1|55=VALE5.SA|150=0|151=5|10=087|
8=FIX.4.2|9=198|35=8|34=149|49=NESTFIX|52=20100325-16:20:39.817|56=RAFATEST|6=48.93000000|11=IAA0006|14=5|17=183000370|20=0|31=48.93000000|32=5|37=BNF00005QUANT|38=5|39=2|44=0.00000000|54=1|55=VALE5.SA|150=2|151=0|10=097|
8=FIX.4.2|9=122|35=D|34=142|49=RAFATEST|52=20100325-16:20:53.197|56=NESTFIX|11=IAA0007|21=1|38=5|40=1|54=1|55=2DIJF1|60=20100325-13:20:53|10=168|
8=FIX.4.2|9=202|35=8|34=150|49=NESTFIX|50=RAI|52=20100325-16:20:53.020|56=RAFATEST|6=0.00000000|11=IAA0007|14=0|17=1100000018|20=0|31=0.00000000|32=0|37=BNF00006QUANT|38=5|39=0|44=0.00000000|54=1|55=2DIJF1|150=0|151=5|10=167|
8=FIX.4.2|9=60|35=0|34=143|49=RAFATEST|52=20100325-16:21:53.227|56=NESTFIX|10=172|
8=FIX.4.2|9=60|35=0|34=151|49=NESTFIX|52=20100325-16:21:53.022|56=RAFATEST|10=164|
8=FIX.4.2|9=60|35=0|34=144|49=RAFATEST|52=20100325-16:22:53.257|56=NESTFIX|10=177|
8=FIX.4.2|9=60|35=0|34=152|49=NESTFIX|52=20100325-16:22:53.055|56=RAFATEST|10=172|
8=FIX.4.2|9=131|35=D|34=145|49=RAFATEST|52=20100325-16:22:56.788|56=NESTFIX|11=IAA0008|21=1|38=5|40=2|44=10.36|54=1|55=2DIJF1|60=20100325-13:22:56|10=091|
8=FIX.4.2|9=203|35=8|34=153|49=NESTFIX|50=RAI|52=20100325-16:22:56.618|56=RAFATEST|6=0.00000000|11=IAA0008|14=0|17=1100000020|20=0|31=0.00000000|32=0|37=BNF00007QUANT|38=5|39=0|44=10.36000000|54=1|55=2DIJF1|150=0|151=5|10=242|
8=FIX.4.2|9=60|35=0|34=154|49=NESTFIX|52=20100325-16:23:56.214|56=RAFATEST|10=175|
8=FIX.4.2|9=60|35=0|34=146|49=RAFATEST|52=20100325-16:23:56.409|56=NESTFIX|10=182|
8=FIX.4.2|9=60|35=0|34=155|49=NESTFIX|52=20100325-16:24:56.216|56=RAFATEST|10=179|
8=FIX.4.2|9=60|35=0|34=147|49=RAFATEST|52=20100325-16:24:56.343|56=NESTFIX|10=181|
8=FIX.4.2|9=60|35=0|34=156|49=NESTFIX|52=20100325-16:25:56.218|56=RAFATEST|10=183|
8=FIX.4.2|9=60|35=0|34=148|49=RAFATEST|52=20100325-16:25:56.278|56=NESTFIX|10=190|
8=FIX.4.2|9=60|35=0|34=157|49=NESTFIX|52=20100325-16:26:56.219|56=RAFATEST|10=186|
8=FIX.4.2|9=60|35=0|34=149|49=RAFATEST|52=20100325-16:26:56.212|56=NESTFIX|10=180|
8=FIX.4.2|9=60|35=0|34=158|49=NESTFIX|52=20100325-16:27:56.221|56=RAFATEST|10=181|
8=FIX.4.2|9=60|35=0|34=150|49=RAFATEST|52=20100325-16:27:56.146|56=NESTFIX|10=179|
8=FIX.4.2|9=124|35=D|34=151|49=RAFATEST|52=20100325-16:28:38.735|56=NESTFIX|11=IAA0009|21=1|38=1|40=1|54=1|55=PETR4.SA|60=20100325-13:28:38|10=109|
8=FIX.4.2|9=204|35=8|34=159|49=NESTFIX|50=RAI|52=20100325-16:28:38.848|56=RAFATEST|6=0.00000000|11=IAA0009|14=0|17=1100000022|20=0|31=0.00000000|32=0|37=BNF00008QUANT|38=1|39=0|44=0.00000000|54=1|55=PETR4.SA|150=0|151=1|10=119|
8=FIX.4.2|9=198|35=8|34=160|49=NESTFIX|52=20100325-16:28:38.988|56=RAFATEST|6=35.94000000|11=IAA0009|14=1|17=183000377|20=0|31=35.94000000|32=1|37=BNF00008QUANT|38=1|39=2|44=0.00000000|54=1|55=PETR4.SA|150=2|151=0|10=119|
8=FIX.4.2|9=60|35=0|34=161|49=NESTFIX|52=20100325-16:29:38.240|56=RAFATEST|10=178|
8=FIX.4.2|9=60|35=0|34=152|49=RAFATEST|52=20100325-16:29:38.148|56=NESTFIX|10=185|
8=FIX.4.2|9=60|35=0|34=162|49=NESTFIX|52=20100325-16:30:38.242|56=RAFATEST|10=173|
8=FIX.4.2|9=60|35=0|34=153|49=RAFATEST|52=20100325-16:30:38.123|56=NESTFIX|10=171|
8=FIX.4.2|9=60|35=0|34=163|49=NESTFIX|52=20100325-16:31:38.244|56=RAFATEST|10=177|
8=FIX.4.2|9=60|35=0|34=154|49=RAFATEST|52=20100325-16:31:38.099|56=NESTFIX|10=185|
8=FIX.4.2|9=60|35=0|34=155|49=RAFATEST|52=20100325-16:32:38.059|56=NESTFIX|10=183|
8=FIX.4.2|9=60|35=0|34=164|49=NESTFIX|52=20100325-16:32:38.230|56=RAFATEST|10=174|
8=FIX.4.2|9=60|35=0|34=165|49=NESTFIX|52=20100325-16:33:38.248|56=RAFATEST|10=185|
8=FIX.4.2|9=60|35=0|34=156|49=RAFATEST|52=20100325-16:33:38.053|56=NESTFIX|10=179|
8=FIX.4.2|9=60|35=0|34=166|49=NESTFIX|52=20100325-16:34:38.250|56=RAFATEST|10=180|
8=FIX.4.2|9=60|35=0|34=157|49=RAFATEST|52=20100325-16:34:38.043|56=NESTFIX|10=180|
8=FIX.4.2|9=72|35=A|34=158|49=RAFATEST|52=20100325-16:35:27.286|56=NESTFIX|98=0|108=60|10=237|
8=FIX.4.2|9=72|35=A|34=167|49=NESTFIX|52=20100325-16:35:27.517|56=RAFATEST|98=0|108=60|10=234|
8=FIX.4.2|9=72|35=A|34=159|49=RAFATEST|52=20100325-19:55:04.914|56=NESTFIX|98=0|108=60|10=236|
8=FIX.4.2|9=72|35=A|34=171|49=NESTFIX|52=20100325-19:55:05.385|56=RAFATEST|98=0|108=60|10=233|
8=FIX.4.2|9=71|35=2|34=160|49=RAFATEST|52=20100325-19:55:04.945|56=NESTFIX|7=168|16=0|10=165|
8=FIX.4.2|9=227|35=8|34=168|43=Y|49=NESTFIX|52=20100325-19:55:05.385|56=RAFATEST|122=20100325-19:50:36.689|6=10.37000000|11=IAA0003|14=5|17=183000770|20=0|31=10.37000000|32=5|37=BNF00002QUANT|38=5|39=2|44=0.00000000|54=1|55=2DIJF1|150=2|151=0|10=176|
8=FIX.4.2|9=227|35=8|34=169|43=Y|49=NESTFIX|52=20100325-19:55:05.385|56=RAFATEST|122=20100325-19:50:36.829|6=10.37000000|11=IAA0007|14=5|17=183000769|20=0|31=10.37000000|32=5|37=BNF00006QUANT|38=5|39=2|44=0.00000000|54=1|55=2DIJF1|150=2|151=0|10=189|
8=FIX.4.2|9=228|35=8|34=170|43=Y|49=NESTFIX|52=20100325-19:55:05.400|56=RAFATEST|122=20100325-19:53:02.131|6=10.37000000|11=IAA0008|14=5|17=183000773|20=0|31=10.37000000|32=5|37=BNF00007QUANT|38=5|39=2|44=10.36000000|54=1|55=2DIJF1|150=2|151=0|10=207|
8=FIX.4.2|9=104|35=4|34=171|43=Y|49=NESTFIX|52=20100325-19:55:05.400|56=RAFATEST|122=20100325-19:55:05.400|36=172|123=Y|10=072|
8=FIX.4.2|9=122|35=D|34=161|49=RAFATEST|52=20100325-19:55:28.367|56=NESTFIX|11=IAA0010|21=1|38=1|40=1|54=1|55=2DIJF1|60=20100325-16:55:28|10=184|
8=FIX.4.2|9=202|35=8|34=172|49=NESTFIX|50=RAI|52=20100325-19:55:28.839|56=RAFATEST|6=0.00000000|11=IAA0010|14=0|17=1100000028|20=0|31=0.00000000|32=0|37=BNF00009QUANT|38=1|39=0|44=0.00000000|54=1|55=2DIJF1|150=0|151=1|10=192|
8=FIX.4.2|9=196|35=8|34=173|49=NESTFIX|52=20100325-19:55:28.854|56=RAFATEST|6=10.38000000|11=IAA0010|14=1|17=183000780|20=0|31=10.38000000|32=1|37=BNF00009QUANT|38=1|39=2|44=0.00000000|54=1|55=2DIJF1|150=2|151=0|10=167|
8=FIX.4.2|9=122|35=D|34=162|49=RAFATEST|52=20100325-19:55:37.382|56=NESTFIX|11=IAA0011|21=1|38=1|40=1|54=2|55=2DIJF1|60=20100325-16:55:37|10=184|
8=FIX.4.2|9=202|35=8|34=174|49=NESTFIX|50=RAI|52=20100325-19:55:37.855|56=RAFATEST|6=0.00000000|11=IAA0011|14=0|17=1100000031|20=0|31=0.00000000|32=0|37=BNF00010QUANT|38=1|39=0|44=0.00000000|54=2|55=2DIJF1|150=0|151=1|10=180|
8=FIX.4.2|9=196|35=8|34=175|49=NESTFIX|52=20100325-19:55:38.042|56=RAFATEST|6=10.37000000|11=IAA0011|14=1|17=183000783|20=0|31=10.37000000|32=1|37=BNF00010QUANT|38=1|39=2|44=0.00000000|54=2|55=2DIJF1|150=2|151=0|10=154|
8=FIX.4.2|9=131|35=D|34=163|49=RAFATEST|52=20100325-19:56:08.960|56=NESTFIX|11=IAA0012|21=1|38=1|40=2|44=10.38|54=2|55=2DIJF1|60=20100325-16:56:08|10=091|
8=FIX.4.2|9=203|35=8|34=176|49=NESTFIX|50=RAI|52=20100325-19:56:09.418|56=RAFATEST|6=0.00000000|11=IAA0012|14=0|17=1100000034|20=0|31=0.00000000|32=0|37=BNF00011QUANT|38=1|39=0|44=10.38000000|54=2|55=2DIJF1|150=0|151=1|10=243|
8=FIX.4.2|9=131|35=D|34=164|49=RAFATEST|52=20100325-19:56:18.756|56=NESTFIX|11=IAA0013|21=1|38=1|40=2|44=10.36|54=2|55=2DIJF1|60=20100325-16:56:18|10=096|
8=FIX.4.2|9=203|35=8|34=177|49=NESTFIX|50=RAI|52=20100325-19:56:19.215|56=RAFATEST|6=0.00000000|11=IAA0013|14=0|17=1100000036|20=0|31=0.00000000|32=0|37=BNF00012QUANT|38=1|39=0|44=10.36000000|54=2|55=2DIJF1|150=0|151=1|10=242|
8=FIX.4.2|9=197|35=8|34=178|49=NESTFIX|52=20100325-19:56:19.403|56=RAFATEST|6=10.37000000|11=IAA0013|14=1|17=183000788|20=0|31=10.37000000|32=1|37=BNF00012QUANT|38=1|39=2|44=10.36000000|54=2|55=2DIJF1|150=2|151=0|10=226|
8=FIX.4.2|9=197|35=8|34=179|49=NESTFIX|52=20100325-19:56:37.638|56=RAFATEST|6=10.37000000|11=IAA0012|14=1|17=183000792|20=0|31=10.37000000|32=1|37=BNF00011QUANT|38=1|39=2|44=10.38000000|54=2|55=2DIJF1|150=2|151=0|10=232|
8=FIX.4.2|9=72|35=A|34=165|49=RAFATEST|52=20100325-21:33:11.785|56=NESTFIX|98=0|108=60|10=226|
8=FIX.4.2|9=72|35=A|34=180|49=NESTFIX|52=20100325-21:33:11.887|56=RAFATEST|98=0|108=60|10=226|
8=FIX.4.2|9=124|35=D|34=166|49=RAFATEST|52=20100325-21:33:14.645|56=NESTFIX|11=IAA0014|21=1|38=1|40=1|54=1|55=PETR4.SA|60=20100325-18:33:14|10=092|
8=FIX.4.2|9=204|35=8|34=181|49=NESTFIX|50=RAI|52=20100325-21:33:14.871|56=RAFATEST|6=0.00000000|11=IAA0014|14=0|17=1100000040|20=0|31=0.00000000|32=0|37=BNF00013QUANT|38=1|39=0|44=0.00000000|54=1|55=PETR4.SA|150=0|151=1|10=088|
8=FIX.4.2|9=198|35=8|34=182|49=NESTFIX|52=20100325-21:33:14.965|56=RAFATEST|6=35.25000000|11=IAA0014|14=1|17=183000841|20=0|31=35.25000000|32=1|37=BNF00013QUANT|38=1|39=2|44=0.00000000|54=1|55=PETR4.SA|150=2|151=0|10=080|
8=FIX.4.2|9=60|35=0|34=183|49=NESTFIX|52=20100325-21:34:14.745|56=RAFATEST|10=178|
8=FIX.4.2|9=60|35=0|34=167|49=RAFATEST|52=20100325-21:34:14.659|56=NESTFIX|10=184|
8=FIX.4.2|9=60|35=0|34=184|49=NESTFIX|52=20100325-21:35:14.775|56=RAFATEST|10=183|
8=FIX.4.2|9=60|35=0|34=168|49=RAFATEST|52=20100325-21:35:14.689|56=NESTFIX|10=189|
8=FIX.4.2|9=60|35=0|34=185|49=NESTFIX|52=20100325-21:36:14.789|56=RAFATEST|10=190|
8=FIX.4.2|9=60|35=0|34=169|49=RAFATEST|52=20100325-21:36:14.704|56=NESTFIX|10=179|
8=FIX.4.2|9=124|35=D|34=170|49=RAFATEST|52=20100325-21:36:38.047|56=NESTFIX|11=IAA0015|21=1|38=1|40=1|54=1|55=PETR4.SA|60=20100325-18:36:38|10=102|
8=FIX.4.2|9=204|35=8|34=186|49=NESTFIX|50=RAI|52=20100325-21:36:38.148|56=RAFATEST|6=0.00000000|11=IAA0015|14=0|17=1100000043|20=0|31=0.00000000|32=0|37=BNF00014QUANT|38=1|39=0|44=0.00000000|54=1|55=PETR4.SA|150=0|151=1|10=104|
8=FIX.4.2|9=198|35=8|34=187|49=NESTFIX|52=20100325-21:36:38.289|56=RAFATEST|6=35.25000000|11=IAA0015|14=1|17=183000844|20=0|31=35.25000000|32=1|37=BNF00014QUANT|38=1|39=2|44=0.00000000|54=1|55=PETR4.SA|150=2|151=0|10=098|
8=FIX.4.2|9=60|35=0|34=188|49=NESTFIX|52=20100325-21:37:38.835|56=RAFATEST|10=192|
8=FIX.4.2|9=60|35=0|34=171|49=RAFATEST|52=20100325-21:37:38.749|56=NESTFIX|10=188|
8=FIX.4.2|9=124|35=D|34=172|49=RAFATEST|52=20100325-21:38:08.311|56=NESTFIX|11=IAA0016|21=1|38=1|40=1|54=1|55=PETR4.SA|60=20100325-18:38:08|10=097|
8=FIX.4.2|9=204|35=8|34=189|49=NESTFIX|50=RAI|52=20100325-21:38:08.412|56=RAFATEST|6=0.00000000|11=IAA0016|14=0|17=1100000046|20=0|31=0.00000000|32=0|37=BNF00015QUANT|38=1|39=0|44=0.00000000|54=1|55=PETR4.SA|150=0|151=1|10=105|
8=FIX.4.2|9=198|35=8|34=190|49=NESTFIX|52=20100325-21:38:08.521|56=RAFATEST|6=35.25000000|11=IAA0016|14=1|17=183000847|20=0|31=35.25000000|32=1|37=BNF00015QUANT|38=1|39=2|44=0.00000000|54=1|55=PETR4.SA|150=2|151=0|10=085|
8=FIX.4.2|9=60|35=0|34=191|49=NESTFIX|52=20100325-21:39:08.850|56=RAFATEST|10=182|
8=FIX.4.2|9=60|35=0|34=173|49=RAFATEST|52=20100325-21:39:08.763|56=NESTFIX|10=185|
8=FIX.4.2|9=60|35=0|34=192|49=NESTFIX|52=20100325-21:40:08.851|56=RAFATEST|10=176|
8=FIX.4.2|9=60|35=0|34=174|49=RAFATEST|52=20100325-21:40:08.762|56=NESTFIX|10=177|
8=FIX.4.2|9=60|35=0|34=193|49=NESTFIX|52=20100325-21:41:08.852|56=RAFATEST|10=179|
8=FIX.4.2|9=60|35=0|34=175|49=RAFATEST|52=20100325-21:41:08.760|56=NESTFIX|10=177|
8=FIX.4.2|9=60|35=0|34=176|49=RAFATEST|52=20100325-21:42:08.009|56=NESTFIX|10=175|
8=FIX.4.2|9=60|35=0|34=194|49=NESTFIX|52=20100325-21:42:08.087|56=RAFATEST|10=181|
8=FIX.4.2|9=124|35=D|34=177|49=RAFATEST|52=20100325-21:42:51.915|56=NESTFIX|11=IAA0017|21=1|38=1|40=1|54=1|55=PETR4.SA|60=20100325-18:42:51|10=099|
8=FIX.4.2|9=204|35=8|34=195|49=NESTFIX|50=RAI|52=20100325-21:42:52.009|56=RAFATEST|6=0.00000000|11=IAA0017|14=0|17=1100000049|20=0|31=0.00000000|32=0|37=BNF00016QUANT|38=1|39=0|44=0.00000000|54=1|55=PETR4.SA|150=0|151=1|10=103|
8=FIX.4.2|9=198|35=8|34=196|49=NESTFIX|52=20100325-21:42:52.025|56=RAFATEST|6=35.25000000|11=IAA0017|14=1|17=183000850|20=0|31=35.25000000|32=1|37=BNF00016QUANT|38=1|39=2|44=0.00000000|54=1|55=PETR4.SA|150=2|151=0|10=080|
8=FIX.4.2|9=60|35=0|34=178|49=RAFATEST|52=20100325-21:43:51.070|56=NESTFIX|10=174|
8=FIX.4.2|9=60|35=0|34=197|49=NESTFIX|52=20100325-21:43:52.870|56=RAFATEST|10=184|
8=FIX.4.2|9=60|35=0|34=179|49=RAFATEST|52=20100325-21:44:51.116|56=NESTFIX|10=177|
8=FIX.4.2|9=60|35=0|34=198|49=NESTFIX|52=20100325-21:44:52.887|56=RAFATEST|10=194|
8=FIX.4.2|9=60|35=0|34=180|49=RAFATEST|52=20100325-21:45:51.146|56=NESTFIX|10=173|
8=FIX.4.2|9=60|35=0|34=199|49=NESTFIX|52=20100325-21:45:52.889|56=RAFATEST|10=198|
8=FIX.4.2|9=60|35=0|34=181|49=RAFATEST|52=20100325-21:46:51.176|56=NESTFIX|10=178|
8=FIX.4.2|9=60|35=0|34=200|49=NESTFIX|52=20100325-21:46:52.890|56=RAFATEST|10=174|
8=FIX.4.2|9=60|35=0|34=182|49=RAFATEST|52=20100325-21:47:51.206|56=NESTFIX|10=174|
8=FIX.4.2|9=60|35=0|34=201|49=NESTFIX|52=20100325-21:47:52.892|56=RAFATEST|10=178|
8=FIX.4.2|9=60|35=0|34=183|49=RAFATEST|52=20100325-21:48:51.220|56=NESTFIX|10=172|
8=FIX.4.2|9=60|35=0|34=202|49=NESTFIX|52=20100325-21:48:52.909|56=RAFATEST|10=179|
8=FIX.4.2|9=60|35=0|34=184|49=RAFATEST|52=20100325-21:49:51.250|56=NESTFIX|10=177|
8=FIX.4.2|9=60|35=0|34=203|49=NESTFIX|52=20100325-21:49:52.911|56=RAFATEST|10=174|
8=FIX.4.2|9=60|35=0|34=185|49=RAFATEST|52=20100325-21:50:51.281|56=NESTFIX|10=174|
8=FIX.4.2|9=60|35=0|34=204|49=NESTFIX|52=20100325-21:50:52.928|56=RAFATEST|10=175|
8=FIX.4.2|9=60|35=0|34=186|49=RAFATEST|52=20100325-21:51:51.311|56=NESTFIX|10=170|
8=FIX.4.2|9=60|35=0|34=205|49=NESTFIX|52=20100325-21:51:52.929|56=RAFATEST|10=178|
8=FIX.4.2|9=60|35=0|34=187|49=RAFATEST|52=20100325-21:52:51.341|56=NESTFIX|10=175|
8=FIX.4.2|9=60|35=0|34=206|49=NESTFIX|52=20100325-21:52:52.931|56=RAFATEST|10=173|
8=FIX.4.2|9=60|35=0|34=188|49=RAFATEST|52=20100325-21:53:51.371|56=NESTFIX|10=180|
8=FIX.4.2|9=60|35=0|34=207|49=NESTFIX|52=20100325-21:53:52.948|56=RAFATEST|10=183|
8=FIX.4.2|9=60|35=0|34=189|49=RAFATEST|52=20100325-21:54:51.385|56=NESTFIX|10=187|
8=FIX.4.2|9=60|35=0|34=208|49=NESTFIX|52=20100325-21:54:52.950|56=RAFATEST|10=178|
8=FIX.4.2|9=60|35=0|34=190|49=RAFATEST|52=20100325-21:55:51.415|56=NESTFIX|10=174|
8=FIX.4.2|9=60|35=0|34=209|49=NESTFIX|52=20100325-21:55:52.952|56=RAFATEST|10=182|
8=FIX.4.2|9=60|35=0|34=191|49=RAFATEST|52=20100325-21:56:51.446|56=NESTFIX|10=180|
8=FIX.4.2|9=60|35=0|34=210|49=NESTFIX|52=20100325-21:56:52.954|56=RAFATEST|10=177|
8=FIX.4.2|9=60|35=0|34=192|49=RAFATEST|52=20100325-21:57:51.476|56=NESTFIX|10=185|
8=FIX.4.2|9=60|35=0|34=211|49=NESTFIX|52=20100325-21:57:52.956|56=RAFATEST|10=181|
8=FIX.4.2|9=60|35=0|34=193|49=RAFATEST|52=20100325-21:58:51.506|56=NESTFIX|10=181|
8=FIX.4.2|9=60|35=0|34=212|49=NESTFIX|52=20100325-21:58:52.974|56=RAFATEST|10=183|
8=FIX.4.2|9=60|35=0|34=194|49=RAFATEST|52=20100325-21:59:51.536|56=NESTFIX|10=186|
8=FIX.4.2|9=60|35=0|34=213|49=NESTFIX|52=20100325-21:59:52.991|56=RAFATEST|10=184|
8=FIX.4.2|9=60|35=0|34=195|49=RAFATEST|52=20100325-22:00:51.566|56=NESTFIX|10=177|
8=FIX.4.2|9=60|35=0|34=214|49=NESTFIX|52=20100325-22:00:52.993|56=RAFATEST|10=174|
8=FIX.4.2|9=60|35=0|34=196|49=RAFATEST|52=20100325-22:01:51.580|56=NESTFIX|10=175|
8=FIX.4.2|9=60|35=0|34=215|49=NESTFIX|52=20100325-22:01:52.026|56=RAFATEST|10=163|
8=FIX.4.2|9=60|35=0|34=197|49=RAFATEST|52=20100325-22:02:51.610|56=NESTFIX|10=171|
8=FIX.4.2|9=60|35=0|34=216|49=NESTFIX|52=20100325-22:02:52.044|56=RAFATEST|10=165|
8=FIX.4.2|9=60|35=0|34=198|49=RAFATEST|52=20100325-22:03:51.641|56=NESTFIX|10=177|
8=FIX.4.2|9=60|35=0|34=217|49=NESTFIX|52=20100325-22:03:52.046|56=RAFATEST|10=169|
8=FIX.4.2|9=60|35=0|34=199|49=RAFATEST|52=20100325-22:04:51.671|56=NESTFIX|10=182|
8=FIX.4.2|9=60|35=0|34=218|49=NESTFIX|52=20100325-22:04:52.048|56=RAFATEST|10=173|
8=FIX.4.2|9=60|35=0|34=200|49=RAFATEST|52=20100325-22:05:51.701|56=NESTFIX|10=160|
8=FIX.4.2|9=60|35=0|34=219|49=NESTFIX|52=20100325-22:05:52.065|56=RAFATEST|10=174|
8=FIX.4.2|9=60|35=0|34=201|49=RAFATEST|52=20100325-22:06:51.731|56=NESTFIX|10=165|
8=FIX.4.2|9=60|35=0|34=220|49=NESTFIX|52=20100325-22:06:52.067|56=RAFATEST|10=169|
8=FIX.4.2|9=60|35=0|34=202|49=RAFATEST|52=20100325-22:07:51.745|56=NESTFIX|10=172|
8=FIX.4.2|9=60|35=0|34=221|49=NESTFIX|52=20100325-22:07:52.069|56=RAFATEST|10=173|
8=FIX.4.2|9=60|35=0|34=203|49=RAFATEST|52=20100325-22:08:51.775|56=NESTFIX|10=177|
8=FIX.4.2|9=60|35=0|34=222|49=NESTFIX|52=20100325-22:08:52.086|56=RAFATEST|10=174|
8=FIX.4.2|9=60|35=0|34=204|49=RAFATEST|52=20100325-22:09:51.806|56=NESTFIX|10=174|
8=FIX.4.2|9=60|35=0|34=223|49=NESTFIX|52=20100325-22:09:52.104|56=RAFATEST|10=167|
8=FIX.4.2|9=60|35=0|34=205|49=RAFATEST|52=20100325-22:10:51.836|56=NESTFIX|10=170|
8=FIX.4.2|9=60|35=0|34=224|49=NESTFIX|52=20100325-22:10:52.106|56=RAFATEST|10=162|
8=FIX.4.2|9=60|35=0|34=206|49=RAFATEST|52=20100325-22:11:51.866|56=NESTFIX|10=175|
8=FIX.4.2|9=60|35=0|34=225|49=NESTFIX|52=20100325-22:11:52.108|56=RAFATEST|10=166|
8=FIX.4.2|9=60|35=0|34=207|49=RAFATEST|52=20100325-22:12:51.896|56=NESTFIX|10=180|
8=FIX.4.2|9=60|35=0|34=226|49=NESTFIX|52=20100325-22:12:52.032|56=RAFATEST|10=164|
8=FIX.4.2|9=60|35=0|34=208|49=RAFATEST|52=20100325-22:13:51.926|56=NESTFIX|10=176|
8=FIX.4.2|9=60|35=0|34=227|49=NESTFIX|52=20100325-22:13:52.065|56=RAFATEST|10=172|
8=FIX.4.2|9=60|35=0|34=209|49=RAFATEST|52=20100325-22:14:51.940|56=NESTFIX|10=174|
8=FIX.4.2|9=60|35=0|34=228|49=NESTFIX|52=20100325-22:14:52.082|56=RAFATEST|10=173|
8=FIX.4.2|9=60|35=0|34=210|49=RAFATEST|52=20100325-22:15:51.970|56=NESTFIX|10=170|
8=FIX.4.2|9=60|35=0|34=229|49=NESTFIX|52=20100325-22:15:52.116|56=RAFATEST|10=173|
8=FIX.4.2|9=60|35=0|34=211|49=RAFATEST|52=20100325-22:16:51.001|56=NESTFIX|10=157|
8=FIX.4.2|9=60|35=0|34=230|49=NESTFIX|52=20100325-22:16:52.133|56=RAFATEST|10=165|
8=FIX.4.2|9=60|35=0|34=212|49=RAFATEST|52=20100325-22:17:51.031|56=NESTFIX|10=162|
8=FIX.4.2|9=60|35=0|34=231|49=NESTFIX|52=20100325-22:17:52.135|56=RAFATEST|10=169|
8=FIX.4.2|9=60|35=0|34=213|49=RAFATEST|52=20100325-22:18:51.061|56=NESTFIX|10=167|
8=FIX.4.2|9=60|35=0|34=232|49=NESTFIX|52=20100325-22:18:52.199|56=RAFATEST|10=181|
8=FIX.4.2|9=60|35=0|34=214|49=RAFATEST|52=20100325-22:19:51.091|56=NESTFIX|10=172|
8=FIX.4.2|9=60|35=0|34=233|49=NESTFIX|52=20100325-22:19:52.201|56=RAFATEST|10=167|
8=FIX.4.2|9=60|35=0|34=215|49=RAFATEST|52=20100325-22:20:51.105|56=NESTFIX|10=161|
8=FIX.4.2|9=60|35=0|34=234|49=NESTFIX|52=20100325-22:20:52.203|56=RAFATEST|10=162|
8=FIX.4.2|9=60|35=0|34=216|49=RAFATEST|52=20100325-22:21:51.135|56=NESTFIX|10=166|
8=FIX.4.2|9=60|35=0|34=235|49=NESTFIX|52=20100325-22:21:52.205|56=RAFATEST|10=166|
8=FIX.4.2|9=60|35=0|34=217|49=RAFATEST|52=20100325-22:22:51.166|56=NESTFIX|10=172|
8=FIX.4.2|9=60|35=0|34=236|49=NESTFIX|52=20100325-22:22:52.207|56=RAFATEST|10=170|
8=FIX.4.2|9=60|35=0|34=218|49=RAFATEST|52=20100325-22:23:51.196|56=NESTFIX|10=177|
8=FIX.4.2|9=60|35=0|34=237|49=NESTFIX|52=20100325-22:23:52.225|56=RAFATEST|10=172|
8=FIX.4.2|9=60|35=0|34=219|49=RAFATEST|52=20100325-22:24:51.226|56=NESTFIX|10=173|
8=FIX.4.2|9=60|35=0|34=238|49=NESTFIX|52=20100325-22:24:52.227|56=RAFATEST|10=176|
8=FIX.4.2|9=60|35=0|34=220|49=RAFATEST|52=20100325-22:25:51.256|56=NESTFIX|10=169|
8=FIX.4.2|9=60|35=0|34=239|49=NESTFIX|52=20100325-22:25:52.244|56=RAFATEST|10=177|
8=FIX.4.2|9=60|35=0|34=221|49=RAFATEST|52=20100325-22:26:51.270|56=NESTFIX|10=167|
8=FIX.4.2|9=60|35=0|34=240|49=NESTFIX|52=20100325-22:26:52.246|56=RAFATEST|10=172|
8=FIX.4.2|9=60|35=0|34=222|49=RAFATEST|52=20100325-22:27:51.300|56=NESTFIX|10=163|
8=FIX.4.2|9=60|35=0|34=241|49=NESTFIX|52=20100325-22:27:52.248|56=RAFATEST|10=176|
8=FIX.4.2|9=60|35=0|34=223|49=RAFATEST|52=20100325-22:28:51.331|56=NESTFIX|10=169|
8=FIX.4.2|9=60|35=0|34=242|49=NESTFIX|52=20100325-22:28:52.250|56=RAFATEST|10=171|
8=FIX.4.2|9=60|35=0|34=224|49=RAFATEST|52=20100325-22:29:51.361|56=NESTFIX|10=174|
8=FIX.4.2|9=60|35=0|34=243|49=NESTFIX|52=20100325-22:29:52.267|56=RAFATEST|10=181|
8=FIX.4.2|9=60|35=0|34=225|49=RAFATEST|52=20100325-22:30:51.391|56=NESTFIX|10=170|
8=FIX.4.2|9=60|35=0|34=244|49=NESTFIX|52=20100325-22:30:52.269|56=RAFATEST|10=176|
8=FIX.4.2|9=60|35=0|34=226|49=RAFATEST|52=20100325-22:31:51.421|56=NESTFIX|10=166|
8=FIX.4.2|9=60|35=0|34=245|49=NESTFIX|52=20100325-22:31:52.271|56=RAFATEST|10=171|
8=FIX.4.2|9=60|35=0|34=227|49=RAFATEST|52=20100325-22:32:51.467|56=NESTFIX|10=178|
8=FIX.4.2|9=60|35=0|34=246|49=NESTFIX|52=20100325-22:32:52.273|56=RAFATEST|10=175|
8=FIX.4.2|9=60|35=0|34=228|49=RAFATEST|52=20100325-22:33:51.497|56=NESTFIX|10=183|
8=FIX.4.2|9=60|35=0|34=247|49=NESTFIX|52=20100325-22:33:52.275|56=RAFATEST|10=179|
8=FIX.4.2|9=60|35=0|34=229|49=RAFATEST|52=20100325-22:34:51.542|56=NESTFIX|10=176|
8=FIX.4.2|9=60|35=0|34=248|49=NESTFIX|52=20100325-22:34:52.293|56=RAFATEST|10=181|
8=FIX.4.2|9=60|35=0|34=230|49=RAFATEST|52=20100325-22:35:51.572|56=NESTFIX|10=172|
8=FIX.4.2|9=60|35=0|34=249|49=NESTFIX|52=20100325-22:35:52.295|56=RAFATEST|10=185|
8=FIX.4.2|9=60|35=0|34=231|49=RAFATEST|52=20100325-22:36:51.603|56=NESTFIX|10=169|
8=FIX.4.2|9=60|35=0|34=250|49=NESTFIX|52=20100325-22:36:52.312|56=RAFATEST|10=168|
8=FIX.4.2|9=60|35=0|34=232|49=RAFATEST|52=20100325-22:37:51.633|56=NESTFIX|10=174|
8=FIX.4.2|9=60|35=0|34=251|49=NESTFIX|52=20100325-22:37:52.314|56=RAFATEST|10=172|
8=FIX.4.2|9=60|35=0|34=233|49=RAFATEST|52=20100325-22:38:51.663|56=NESTFIX|10=179|
8=FIX.4.2|9=60|35=0|34=252|49=NESTFIX|52=20100325-22:38:52.332|56=RAFATEST|10=174|
8=FIX.4.2|9=60|35=0|34=234|49=RAFATEST|52=20100325-22:39:51.693|56=NESTFIX|10=184|
8=FIX.4.2|9=60|35=0|34=253|49=NESTFIX|52=20100325-22:39:52.333|56=RAFATEST|10=177|
8=FIX.4.2|9=60|35=0|34=235|49=RAFATEST|52=20100325-22:40:51.739|56=NESTFIX|10=178|
8=FIX.4.2|9=60|35=0|34=254|49=NESTFIX|52=20100325-22:40:52.351|56=RAFATEST|10=170|
8=FIX.4.2|9=60|35=0|34=236|49=RAFATEST|52=20100325-22:41:51.769|56=NESTFIX|10=183|
8=FIX.4.2|9=60|35=0|34=255|49=NESTFIX|52=20100325-22:41:52.353|56=RAFATEST|10=174|
8=FIX.4.2|9=60|35=0|34=237|49=RAFATEST|52=20100325-22:42:51.799|56=NESTFIX|10=188|
8=FIX.4.2|9=60|35=0|34=256|49=NESTFIX|52=20100325-22:42:52.355|56=RAFATEST|10=178|
8=FIX.4.2|9=60|35=0|34=238|49=RAFATEST|52=20100325-22:43:51.829|56=NESTFIX|10=184|
8=FIX.4.2|9=60|35=0|34=257|49=NESTFIX|52=20100325-22:43:52.372|56=RAFATEST|10=179|
8=FIX.4.2|9=60|35=0|34=239|49=RAFATEST|52=20100325-22:44:51.843|56=NESTFIX|10=182|
8=FIX.4.2|9=60|35=0|34=258|49=NESTFIX|52=20100325-22:44:52.374|56=RAFATEST|10=183|
8=FIX.4.2|9=60|35=0|34=240|49=RAFATEST|52=20100325-22:45:51.873|56=NESTFIX|10=178|
8=FIX.4.2|9=60|35=0|34=259|49=NESTFIX|52=20100325-22:45:52.376|56=RAFATEST|10=187|
8=FIX.4.2|9=60|35=0|34=241|49=RAFATEST|52=20100325-22:46:51.904|56=NESTFIX|10=175|
8=FIX.4.2|9=60|35=0|34=260|49=NESTFIX|52=20100325-22:46:52.378|56=RAFATEST|10=182|
8=FIX.4.2|9=60|35=0|34=242|49=RAFATEST|52=20100325-22:47:51.934|56=NESTFIX|10=180|
8=FIX.4.2|9=60|35=0|34=261|49=NESTFIX|52=20100325-22:47:52.396|56=RAFATEST|10=184|
8=FIX.4.2|9=60|35=0|34=243|49=RAFATEST|52=20100325-22:48:51.964|56=NESTFIX|10=185|
8=FIX.4.2|9=60|35=0|34=262|49=NESTFIX|52=20100325-22:48:52.398|56=RAFATEST|10=188|
8=FIX.4.2|9=60|35=0|34=244|49=RAFATEST|52=20100325-22:49:51.994|56=NESTFIX|10=190|
8=FIX.4.2|9=60|35=0|34=263|49=NESTFIX|52=20100325-22:49:52.415|56=RAFATEST|10=180|
8=FIX.4.2|9=60|35=0|34=245|49=RAFATEST|52=20100325-22:50:51.008|56=NESTFIX|10=169|
8=FIX.4.2|9=60|35=0|34=264|49=NESTFIX|52=20100325-22:50:52.433|56=RAFATEST|10=173|
8=FIX.4.2|9=60|35=0|34=246|49=RAFATEST|52=20100325-22:51:51.070|56=NESTFIX|10=170|
8=FIX.4.2|9=60|35=0|34=265|49=NESTFIX|52=20100325-22:51:52.435|56=RAFATEST|10=177|
8=FIX.4.2|9=60|35=0|34=247|49=RAFATEST|52=20100325-22:52:51.100|56=NESTFIX|10=166|
8=FIX.4.2|9=60|35=0|34=266|49=NESTFIX|52=20100325-22:52:52.452|56=RAFATEST|10=178|
8=FIX.4.2|9=60|35=0|34=248|49=RAFATEST|52=20100325-22:53:51.130|56=NESTFIX|10=171|
8=FIX.4.2|9=60|35=0|34=267|49=NESTFIX|52=20100325-22:53:52.454|56=RAFATEST|10=182|
8=FIX.4.2|9=60|35=0|34=249|49=RAFATEST|52=20100325-22:54:51.144|56=NESTFIX|10=178|
8=FIX.4.2|9=60|35=0|34=268|49=NESTFIX|52=20100325-22:54:52.456|56=RAFATEST|10=186|
8=FIX.4.2|9=60|35=0|34=250|49=RAFATEST|52=20100325-22:55:51.174|56=NESTFIX|10=174|
8=FIX.4.2|9=60|35=0|34=269|49=NESTFIX|52=20100325-22:55:52.458|56=RAFATEST|10=190|
8=FIX.4.2|9=60|35=0|34=251|49=RAFATEST|52=20100325-22:56:51.205|56=NESTFIX|10=171|
8=FIX.4.2|9=60|35=0|34=270|49=NESTFIX|52=20100325-22:56:52.460|56=RAFATEST|10=176|
8=FIX.4.2|9=60|35=0|34=252|49=RAFATEST|52=20100325-22:57:51.235|56=NESTFIX|10=176|
8=FIX.4.2|9=60|35=0|34=271|49=NESTFIX|52=20100325-22:57:52.462|56=RAFATEST|10=180|
8=FIX.4.2|9=60|35=0|34=253|49=RAFATEST|52=20100325-22:58:51.265|56=NESTFIX|10=181|
8=FIX.4.2|9=60|35=0|34=272|49=NESTFIX|52=20100325-22:58:52.464|56=RAFATEST|10=184|
8=FIX.4.2|9=60|35=0|34=254|49=RAFATEST|52=20100325-22:59:51.310|56=NESTFIX|10=174|
8=FIX.4.2|9=60|35=0|34=273|49=NESTFIX|52=20100325-22:59:52.481|56=RAFATEST|10=185|
8=FIX.4.2|9=60|35=0|34=255|49=RAFATEST|52=20100325-23:00:51.341|56=NESTFIX|10=166|
8=FIX.4.2|9=60|35=0|34=274|49=NESTFIX|52=20100325-23:00:52.483|56=RAFATEST|10=175|
8=FIX.4.2|9=60|35=0|34=256|49=RAFATEST|52=20100325-23:01:51.371|56=NESTFIX|10=171|
8=FIX.4.2|9=60|35=0|34=275|49=NESTFIX|52=20100325-23:01:52.485|56=RAFATEST|10=179|
8=FIX.4.2|9=60|35=0|34=257|49=RAFATEST|52=20100325-23:02:51.401|56=NESTFIX|10=167|
8=FIX.4.2|9=60|35=0|34=276|49=NESTFIX|52=20100325-23:02:52.503|56=RAFATEST|10=172|
8=FIX.4.2|9=60|35=0|34=258|49=RAFATEST|52=20100325-23:03:51.431|56=NESTFIX|10=172|
8=FIX.4.2|9=60|35=0|34=277|49=NESTFIX|52=20100325-23:03:52.505|56=RAFATEST|10=176|
8=FIX.4.2|9=60|35=0|34=259|49=RAFATEST|52=20100325-23:04:51.477|56=NESTFIX|10=184|
8=FIX.4.2|9=60|35=0|34=278|49=NESTFIX|52=20100325-23:04:52.522|56=RAFATEST|10=177|
8=FIX.4.2|9=124|35=D|34=260|49=RAFATEST|52=20100325-23:05:11.789|56=NESTFIX|11=IAA0018|21=1|38=1|40=1|54=1|55=PETR4.SA|60=20100325-20:05:11|10=087|
8=FIX.4.2|9=204|35=8|34=279|49=NESTFIX|50=RAI|52=20100325-23:05:11.804|56=RAFATEST|6=0.00000000|11=IAA0018|14=0|17=1100000052|20=0|31=0.00000000|32=0|37=BNF00017QUANT|38=1|39=0|44=0.00000000|54=1|55=PETR4.SA|150=0|151=1|10=101|
8=FIX.4.2|9=124|35=D|34=261|49=RAFATEST|52=20100325-23:06:05.522|56=NESTFIX|11=IAA0019|21=1|38=1|40=1|54=1|55=PETR4.SA|60=20100325-20:06:05|10=082|
8=FIX.4.2|9=204|35=8|34=280|49=NESTFIX|50=RAI|52=20100325-23:06:05.493|56=RAFATEST|6=0.00000000|11=IAA0019|14=0|17=1100000054|20=0|31=0.00000000|32=0|37=BNF00018QUANT|38=1|39=0|44=0.00000000|54=1|55=PETR4.SA|150=0|151=1|10=105|
8=FIX.4.2|9=122|35=D|34=262|49=RAFATEST|52=20100325-23:06:33.084|56=NESTFIX|11=IAA0020|21=1|38=1|40=1|54=1|55=2DIJF1|60=20100325-20:06:33|10=157|
8=FIX.4.2|9=202|35=8|34=281|49=NESTFIX|50=RAI|52=20100325-23:06:33.025|56=RAFATEST|6=0.00000000|11=IAA0020|14=0|17=1100000056|20=0|31=0.00000000|32=0|37=BNF00019QUANT|38=1|39=0|44=0.00000000|54=1|55=2DIJF1|150=0|151=1|10=170|
8=FIX.4.2|9=196|35=8|34=282|49=NESTFIX|52=20100325-23:06:33.150|56=RAFATEST|6=10.39000000|11=IAA0020|14=1|17=183000853|20=0|31=10.39000000|32=1|37=BNF00019QUANT|38=1|39=2|44=0.00000000|54=1|55=2DIJF1|150=2|151=0|10=149|
8=FIX.4.2|9=60|35=0|34=263|49=RAFATEST|52=20100325-23:07:33.552|56=NESTFIX|10=176|
8=FIX.4.2|9=60|35=0|34=283|49=NESTFIX|52=20100325-23:07:33.480|56=RAFATEST|10=178|
8=FIX.4.2|9=120|35=D|34=264|49=RAFATEST|52=20100325-23:08:17.598|56=NESTFIX|11=IAA0021|21=1|38=1|40=1|54=1|55=USM0|60=20100325-20:08:17|10=085|
8=FIX.4.2|9=200|35=8|34=284|49=NESTFIX|50=RAI|52=20100325-23:08:17.560|56=RAFATEST|6=0.00000000|11=IAA0021|14=0|17=1100000059|20=0|31=0.00000000|32=0|37=BNF00020QUANT|38=1|39=0|44=0.00000000|54=1|55=USM0|150=0|151=1|10=084|
8=FIX.4.2|9=70|35=A|34=1|49=RAFATEST|52=20100326-17:16:44.419|56=NESTFIX|98=0|108=60|10=124|
8=FIX.4.2|9=70|35=A|34=1|49=NESTFIX|52=20100326-17:16:45.266|56=RAFATEST|98=0|108=60|10=125|
8=FIX.4.2|9=122|35=D|34=2|49=RAFATEST|52=20100326-17:16:50.278|56=NESTFIX|11=IAA0001|21=1|38=1|40=1|54=1|55=PETR4.SA|60=20100326-14:16:50|10=242|
8=FIX.4.2|9=58|35=0|34=2|49=NESTFIX|52=20100326-17:17:45.268|56=RAFATEST|10=090|
8=FIX.4.2|9=58|35=0|34=3|49=RAFATEST|52=20100326-17:17:50.449|56=NESTFIX|10=088|
8=FIX.4.2|9=58|35=0|34=3|49=NESTFIX|52=20100326-17:18:45.270|56=RAFATEST|10=085|
8=FIX.4.2|9=58|35=0|34=4|49=RAFATEST|52=20100326-17:18:50.479|56=NESTFIX|10=093|
8=FIX.4.2|9=58|35=0|34=4|49=NESTFIX|52=20100326-17:19:45.272|56=RAFATEST|10=089|
8=FIX.4.2|9=58|35=0|34=5|49=RAFATEST|52=20100326-17:19:50.493|56=NESTFIX|10=091|
8=FIX.4.2|9=58|35=0|34=5|49=NESTFIX|52=20100326-17:20:45.274|56=RAFATEST|10=084|
8=FIX.4.2|9=58|35=0|34=6|49=RAFATEST|52=20100326-17:20:50.523|56=NESTFIX|10=078|
8=FIX.4.2|9=58|35=0|34=6|49=NESTFIX|52=20100326-17:21:45.276|56=RAFATEST|10=088|
8=FIX.4.2|9=58|35=0|34=7|49=RAFATEST|52=20100326-17:21:50.554|56=NESTFIX|10=084|
8=FIX.4.2|9=58|35=0|34=7|49=NESTFIX|52=20100326-17:22:45.278|56=RAFATEST|10=092|
8=FIX.4.2|9=58|35=0|34=8|49=RAFATEST|52=20100326-17:22:50.584|56=NESTFIX|10=089|
8=FIX.4.2|9=58|35=0|34=8|49=NESTFIX|52=20100326-17:23:45.295|56=RAFATEST|10=093|
8=FIX.4.2|9=58|35=0|34=9|49=RAFATEST|52=20100326-17:23:50.614|56=NESTFIX|10=085|
8=FIX.4.2|9=58|35=0|34=9|49=NESTFIX|52=20100326-17:24:45.297|56=RAFATEST|10=097|
8=FIX.4.2|9=59|35=0|34=10|49=RAFATEST|52=20100326-17:24:50.644|56=NESTFIX|10=130|
8=FIX.4.2|9=59|35=0|34=10|49=NESTFIX|52=20100326-17:25:45.315|56=RAFATEST|10=130|
8=FIX.4.2|9=59|35=0|34=11|49=RAFATEST|52=20100326-17:25:50.658|56=NESTFIX|10=137|
8=FIX.4.2|9=59|35=0|34=11|49=NESTFIX|52=20100326-17:26:45.332|56=RAFATEST|10=131|
8=FIX.4.2|9=59|35=0|34=12|49=RAFATEST|52=20100326-17:26:50.704|56=NESTFIX|10=131|
8=FIX.4.2|9=59|35=0|34=12|49=NESTFIX|52=20100326-17:27:45.334|56=RAFATEST|10=135|
8=FIX.4.2|9=59|35=0|34=13|49=RAFATEST|52=20100326-17:27:50.750|56=NESTFIX|10=134|
8=FIX.4.2|9=59|35=0|34=13|49=NESTFIX|52=20100326-17:28:45.336|56=RAFATEST|10=139|
8=FIX.4.2|9=59|35=0|34=14|49=RAFATEST|52=20100326-17:28:50.780|56=NESTFIX|10=139|
8=FIX.4.2|9=59|35=0|34=14|49=NESTFIX|52=20100326-17:29:45.338|56=RAFATEST|10=143|
8=FIX.4.2|9=59|35=0|34=15|49=RAFATEST|52=20100326-17:29:50.794|56=NESTFIX|10=146|
8=FIX.4.2|9=59|35=0|34=15|49=NESTFIX|52=20100326-17:30:45.340|56=RAFATEST|10=129|
8=FIX.4.2|9=59|35=0|34=16|49=RAFATEST|52=20100326-17:30:50.824|56=NESTFIX|10=133|
8=FIX.4.2|9=123|35=D|34=17|49=RAFATEST|52=20100326-17:31:16.918|56=NESTFIX|11=IAA0002|21=1|38=1|40=1|54=1|55=VALE5.SA|60=20100326-14:31:16|10=023|
8=FIX.4.2|9=59|35=0|34=16|49=NESTFIX|52=20100326-17:31:45.357|56=RAFATEST|10=139|
8=FIX.4.2|9=59|35=0|34=18|49=RAFATEST|52=20100326-17:32:16.854|56=NESTFIX|10=142|
8=FIX.4.2|9=68|35=1|34=17|49=NESTFIX|52=20100326-17:32:36.703|56=RAFATEST|112=TEST|10=155|
8=FIX.4.2|9=68|35=0|34=19|49=RAFATEST|52=20100326-17:32:35.979|56=NESTFIX|112=TEST|10=170|
8=FIX.4.2|9=71|35=A|34=20|49=RAFATEST|52=20100326-17:32:45.885|56=NESTFIX|98=0|108=60|10=180|
8=FIX.4.2|9=71|35=A|34=18|49=NESTFIX|52=20100326-17:32:46.625|56=RAFATEST|98=0|108=60|10=180|
8=FIX.4.2|9=123|35=D|34=21|49=RAFATEST|52=20100326-17:32:59.775|56=NESTFIX|11=IAA0003|21=1|38=1|40=1|54=1|55=VALE5.SA|60=20100326-14:32:59|10=036|
8=FIX.4.2|9=59|35=0|34=19|49=NESTFIX|52=20100326-17:33:46.267|56=RAFATEST|10=145|
8=FIX.4.2|9=59|35=0|34=22|49=RAFATEST|52=20100326-17:33:59.915|56=NESTFIX|10=143|
8=FIX.4.2|9=59|35=0|34=20|49=NESTFIX|52=20100326-17:34:46.285|56=RAFATEST|10=138|
8=FIX.4.2|9=59|35=0|34=23|49=RAFATEST|52=20100326-17:34:59.945|56=NESTFIX|10=148|
8=FIX.4.2|9=71|35=A|34=24|49=RAFATEST|52=20100326-17:35:53.147|56=NESTFIX|98=0|108=60|10=177|
8=FIX.4.2|9=71|35=A|34=21|49=NESTFIX|52=20100326-17:35:53.678|56=RAFATEST|98=0|108=60|10=183|
8=FIX.4.2|9=123|35=D|34=25|49=RAFATEST|52=20100326-17:36:31.802|56=NESTFIX|11=IAA0004|21=1|38=1|40=1|54=1|55=PETR4.SA|60=20100326-14:36:31|10=038|
8=FIX.4.2|9=203|35=8|34=22|49=NESTFIX|50=RAI|52=20100326-17:36:32.320|56=RAFATEST|6=0.00000000|11=IAA0004|14=0|17=1100000003|20=0|31=0.00000000|32=0|37=BNF00002QUANT|38=1|39=0|44=0.00000000|54=1|55=PETR4.SA|150=0|151=1|10=027|
8=FIX.4.2|9=121|35=D|34=26|49=RAFATEST|52=20100326-17:36:47.974|56=NESTFIX|11=IAA0005|21=1|38=1|40=1|54=1|55=2DIJF1|60=20100326-14:36:47|10=141|
8=FIX.4.2|9=201|35=8|34=23|49=NESTFIX|50=RAI|52=20100326-17:36:48.414|56=RAFATEST|6=0.00000000|11=IAA0005|14=0|17=1100000005|20=0|31=0.00000000|32=0|37=BNF00003QUANT|38=1|39=0|44=0.00000000|54=1|55=2DIJF1|150=0|151=1|10=120|
8=FIX.4.2|9=59|35=0|34=27|49=RAFATEST|52=20100326-17:37:47.379|56=NESTFIX|10=153|
8=FIX.4.2|9=59|35=0|34=24|49=NESTFIX|52=20100326-17:37:48.338|56=RAFATEST|10=146|
8=FIX.4.2|9=118|35=D|34=28|49=RAFATEST|52=20100326-17:38:43.175|56=NESTFIX|11=IAA0006|21=1|38=1|40=1|54=1|55=XLK|60=20100326-14:38:43|10=250|
8=FIX.4.2|9=198|35=8|34=25|49=NESTFIX|50=RAI|52=20100326-17:38:43.621|56=RAFATEST|6=0.00000000|11=IAA0006|14=0|17=1100000007|20=0|31=0.00000000|32=0|37=BNF00004QUANT|38=1|39=0|44=0.00000000|54=1|55=XLK|150=0|151=1|10=249|
