8=FIX.4.2|9=65|35=A|34=1|49=QUANT|52=20100305-14:45:33.419|56=NESTI|98=0|108=60|10=011|
8=FIX.4.2|9=70|35=A|34=1|49=NESTI|52=20100305-14:45:33|56=QUANT|57=ADMIN|98=0|108=60|10=078|
8=FIX.4.2|9=80|35=1|34=2|49=NESTI|52=20100305-14:45:33|56=QUANT|57=ADMIN|112=1267800333.477793|10=106|
8=FIX.4.2|9=75|35=0|34=2|49=QUANT|52=20100305-14:45:33.575|56=NESTI|112=1267800333.477793|10=041|
8=FIX.4.2|9=121|35=D|34=3|49=QUANT|52=20100305-14:45:52.934|56=NESTI|11=IAA0001|21=1|38=10|40=1|50=UA|54=1|55=PETR4|60=20100305-11:45:52|10=037|
8=FIX.4.2|9=198|35=8|34=3|49=NESTI|50=RAI|52=20100305-14:46:01|56=QUANT|57=UA|38=10|6=0.00000000|11=IAA0001|14=0|17=1100000001|20=0|31=0.00000000|32=0|37=BIAA0001QUANT|39=0|44=0.00000000|54=1|55=PETR4|150=0|151=10|10=155|
8=FIX.4.2|9=122|35=F|34=4|49=QUANT|52=20100305-14:46:10.637|56=NESTI|11=IAA0002|38=10|41=IAA0001|50=UA|54=1|55=PETR4|60=20100305-11:46:10|10=170|
8=FIX.4.2|9=202|35=8|34=4|49=NESTI|52=20100305-14:46:10|56=QUANT|57=UA|38=10|6=0.00000000|11=IAA0002|14=0|17=1200000003|20=0|31=0.00000000|32=0|37=BIAA0002QUANT|39=6|44=0.00000000|54=1|55=PETR4|150=6|41=IAA0001|151=10|10=079|
8=FIX.4.2|9=190|35=8|34=5|49=NESTI|52=20100305-14:46:10|56=QUANT|57=UA|38=10|6=0.00000000|11=IAA0001|14=0|17=1100000003|20=0|31=0.00000000|32=0|37=BIAA0001QUANT|39=4|44=0.00000000|54=1|55=PETR4|150=4|151=0|10=239|
8=FIX.4.2|9=120|35=D|34=5|49=QUANT|52=20100305-14:46:23.934|56=NESTI|11=IAA0003|21=1|38=5|40=1|50=UA|54=1|55=PETR4|60=20100305-11:46:23|10=250|
8=FIX.4.2|9=196|35=8|34=6|49=NESTI|50=RAI|52=20100305-14:46:30|56=QUANT|57=UA|38=5|6=0.00000000|11=IAA0003|14=0|17=1100000006|20=0|31=0.00000000|32=0|37=BIAA0003QUANT|39=0|44=0.00000000|54=1|55=PETR4|150=0|151=5|10=079|
8=FIX.4.2|9=122|35=F|34=6|49=QUANT|52=20100305-14:46:35.840|56=NESTI|11=IAA0004|38=10|41=IAA0001|50=UA|54=1|55=PETR4|60=20100305-11:46:35|10=184|
8=FIX.4.2|9=121|35=F|34=7|49=QUANT|52=20100305-14:46:35.840|56=NESTI|11=IAA0005|38=5|41=IAA0003|50=UA|54=1|55=PETR4|60=20100305-11:46:35|10=143|
8=FIX.4.2|9=134|35=9|34=7|49=NESTI|52=20100305-14:46:35|56=QUANT|57=UA|11=IAA0004|37=BIAA0004QUANT|58=REFERENCE-CANCELLED|102=0|41=IAA0001|39=8|434=1|10=192|
8=FIX.4.2|9=200|35=8|34=8|49=NESTI|52=20100305-14:46:35|56=QUANT|57=UA|38=5|6=0.00000000|11=IAA0005|14=0|17=1200000009|20=0|31=0.00000000|32=0|37=BIAA0005QUANT|39=6|44=0.00000000|54=1|55=PETR4|150=6|41=IAA0003|151=5|10=014|
8=FIX.4.2|9=189|35=8|34=9|49=NESTI|52=20100305-14:46:35|56=QUANT|57=UA|38=5|6=0.00000000|11=IAA0003|14=0|17=1100000009|20=0|31=0.00000000|32=0|37=BIAA0003QUANT|39=4|44=0.00000000|54=1|55=PETR4|150=4|151=0|10=224|
8=FIX.4.2|9=121|35=D|34=8|49=QUANT|52=20100305-14:46:53.605|56=NESTI|11=IAA0006|21=1|38=15|40=1|50=UA|54=1|55=PETR4|60=20100305-11:46:53|10=051|
8=FIX.4.2|9=199|35=8|34=10|49=NESTI|50=RAI|52=20100305-14:46:57|56=QUANT|57=UA|38=15|6=0.00000000|11=IAA0006|14=0|17=1100000013|20=0|31=0.00000000|32=0|37=BIAA0006QUANT|39=0|44=0.00000000|54=1|55=PETR4|150=0|151=15|10=236|
8=FIX.4.2|9=53|35=0|34=9|49=QUANT|52=20100305-14:47:53.542|56=NESTI|10=228|
8=FIX.4.2|9=59|35=0|34=11|49=NESTI|52=20100305-14:47:58|56=QUANT|57=ADMIN|10=098|
8=FIX.4.2|9=191|35=8|34=12|49=NESTI|52=20100305-14:48:40|56=QUANT|57=UA|38=15|6=1.00000000|11=IAA0006|14=3|17=163000101|20=0|31=1.00000000|32=3|37=BIAA0006QUANT|39=1|44=0.00000000|54=1|55=PETR4|150=1|151=12|10=062|
8=FIX.4.2|9=54|35=0|34=10|49=QUANT|52=20100305-14:48:53.604|56=NESTI|10=013|
8=FIX.4.2|9=190|35=8|34=13|49=NESTI|52=20100305-14:49:06|56=QUANT|57=UA|38=15|6=1.00000000|11=IAA0006|14=8|17=163000102|20=0|31=1.00000000|32=5|37=BIAA0006QUANT|39=1|44=0.00000000|54=1|55=PETR4|150=1|151=7|10=029|
8=FIX.4.2|9=123|35=F|34=11|49=QUANT|52=20100305-14:49:23.322|56=NESTI|11=IAA0007|38=10|41=IAA0001|50=UA|54=1|55=PETR4|60=20100305-11:49:23|10=227|
8=FIX.4.2|9=122|35=F|34=12|49=QUANT|52=20100305-14:49:23.322|56=NESTI|11=IAA0008|38=5|41=IAA0003|50=UA|54=1|55=PETR4|60=20100305-11:49:23|10=186|
8=FIX.4.2|9=123|35=F|34=13|49=QUANT|52=20100305-14:49:23.322|56=NESTI|11=IAA0009|38=15|41=IAA0006|50=UA|54=1|55=PETR4|60=20100305-11:49:23|10=241|
8=FIX.4.2|9=135|35=9|34=14|49=NESTI|52=20100305-14:49:23|56=QUANT|57=UA|11=IAA0007|37=BIAA0007QUANT|58=REFERENCE-CANCELLED|102=0|41=IAA0001|39=8|434=1|10=245|
8=FIX.4.2|9=135|35=9|34=15|49=NESTI|52=20100305-14:49:23|56=QUANT|57=UA|11=IAA0008|37=BIAA0008QUANT|58=REFERENCE-CANCELLED|102=0|41=IAA0003|39=8|434=1|10=250|
8=FIX.4.2|9=202|35=8|34=16|49=NESTI|52=20100305-14:49:23|56=QUANT|57=UA|38=15|6=1.00000000|11=IAA0009|14=8|17=1200000019|20=0|31=0.00000000|32=0|37=BIAA0009QUANT|39=6|44=0.00000000|54=1|55=PETR4|150=6|41=IAA0006|151=7|10=135|
8=FIX.4.2|9=54|35=0|34=14|49=QUANT|52=20100305-14:50:23.649|56=NESTI|10=016|
8=FIX.4.2|9=59|35=0|34=17|49=NESTI|52=20100305-14:50:24|56=QUANT|57=ADMIN|10=091|
8=FIX.4.2|9=54|35=0|34=15|49=QUANT|52=20100305-14:51:23.664|56=NESTI|10=015|
8=FIX.4.2|9=59|35=0|34=18|49=NESTI|52=20100305-14:51:25|56=QUANT|57=ADMIN|10=094|
8=FIX.4.2|9=54|35=0|34=16|49=QUANT|52=20100305-14:52:23.679|56=NESTI|10=023|
8=FIX.4.2|9=59|35=0|34=19|49=NESTI|52=20100305-14:52:26|56=QUANT|57=ADMIN|10=097|
8=FIX.4.2|9=54|35=0|34=17|49=QUANT|52=20100305-14:53:23.694|56=NESTI|10=022|
8=FIX.4.2|9=59|35=0|34=20|49=NESTI|52=20100305-14:53:27|56=QUANT|57=ADMIN|10=091|
8=FIX.4.2|9=54|35=0|34=18|49=QUANT|52=20100305-14:54:23.725|56=NESTI|10=019|
8=FIX.4.2|9=59|35=0|34=21|49=NESTI|52=20100305-14:54:28|56=QUANT|57=ADMIN|10=094|
8=FIX.4.2|9=54|35=0|34=19|49=QUANT|52=20100305-14:55:23.739|56=NESTI|10=026|
8=FIX.4.2|9=59|35=0|34=22|49=NESTI|52=20100305-14:55:29|56=QUANT|57=ADMIN|10=097|
8=FIX.4.2|9=54|35=0|34=20|49=QUANT|52=20100305-14:56:23.754|56=NESTI|10=016|
8=FIX.4.2|9=59|35=0|34=23|49=NESTI|52=20100305-14:56:30|56=QUANT|57=ADMIN|10=091|
8=FIX.4.2|9=54|35=0|34=21|49=QUANT|52=20100305-14:57:23.769|56=NESTI|10=024|
8=FIX.4.2|9=59|35=0|34=24|49=NESTI|52=20100305-14:57:31|56=QUANT|57=ADMIN|10=094|
8=FIX.4.2|9=54|35=0|34=22|49=QUANT|52=20100305-14:58:23.815|56=NESTI|10=018|
8=FIX.4.2|9=59|35=0|34=25|49=NESTI|52=20100305-14:58:32|56=QUANT|57=ADMIN|10=097|
8=FIX.4.2|9=54|35=0|34=23|49=QUANT|52=20100305-14:59:23.830|56=NESTI|10=017|
8=FIX.4.2|9=59|35=0|34=26|49=NESTI|52=20100305-14:59:33|56=QUANT|57=ADMIN|10=100|
8=FIX.4.2|9=54|35=0|34=24|49=QUANT|52=20100305-15:00:23.876|56=NESTI|10=015|
8=FIX.4.2|9=59|35=0|34=27|49=NESTI|52=20100305-15:00:34|56=QUANT|57=ADMIN|10=089|
8=FIX.4.2|9=54|35=0|34=25|49=QUANT|52=20100305-15:01:23.891|56=NESTI|10=014|
8=FIX.4.2|9=59|35=0|34=28|49=NESTI|52=20100305-15:01:35|56=QUANT|57=ADMIN|10=092|
8=FIX.4.2|9=54|35=0|34=26|49=QUANT|52=20100305-15:02:23.953|56=NESTI|10=015|
8=FIX.4.2|9=59|35=0|34=29|49=NESTI|52=20100305-15:02:36|56=QUANT|57=ADMIN|10=095|
8=FIX.4.2|9=54|35=0|34=27|49=QUANT|52=20100305-15:03:23.968|56=NESTI|10=023|
8=FIX.4.2|9=59|35=0|34=30|49=NESTI|52=20100305-15:03:37|56=QUANT|57=ADMIN|10=089|
8=FIX.4.2|9=54|35=0|34=28|49=QUANT|52=20100305-15:04:23.982|56=NESTI|10=021|
8=FIX.4.2|9=59|35=0|34=31|49=NESTI|52=20100305-15:04:38|56=QUANT|57=ADMIN|10=092|
8=FIX.4.2|9=54|35=0|34=29|49=QUANT|52=20100305-15:05:23.997|56=NESTI|10=029|
8=FIX.4.2|9=59|35=0|34=32|49=NESTI|52=20100305-15:05:39|56=QUANT|57=ADMIN|10=095|
8=FIX.4.2|9=54|35=0|34=30|49=QUANT|52=20100305-15:06:23.012|56=NESTI|10=000|
8=FIX.4.2|9=59|35=0|34=33|49=NESTI|52=20100305-15:06:40|56=QUANT|57=ADMIN|10=089|
8=FIX.4.2|9=54|35=0|34=31|49=QUANT|52=20100305-15:07:23.027|56=NESTI|10=008|
8=FIX.4.2|9=59|35=0|34=34|49=NESTI|52=20100305-15:07:41|56=QUANT|57=ADMIN|10=092|
8=FIX.4.2|9=54|35=0|34=32|49=QUANT|52=20100305-15:08:23.058|56=NESTI|10=014|
8=FIX.4.2|9=59|35=0|34=35|49=NESTI|52=20100305-15:08:42|56=QUANT|57=ADMIN|10=095|
8=FIX.4.2|9=54|35=0|34=33|49=QUANT|52=20100305-15:09:23.072|56=NESTI|10=012|
8=FIX.4.2|9=59|35=0|34=36|49=NESTI|52=20100305-15:09:43|56=QUANT|57=ADMIN|10=098|
8=FIX.4.2|9=54|35=0|34=34|49=QUANT|52=20100305-15:10:23.087|56=NESTI|10=011|
8=FIX.4.2|9=59|35=0|34=37|49=NESTI|52=20100305-15:10:44|56=QUANT|57=ADMIN|10=092|
8=FIX.4.2|9=54|35=0|34=35|49=QUANT|52=20100305-15:11:23.102|56=NESTI|10=001|
8=FIX.4.2|9=59|35=0|34=38|49=NESTI|52=20100305-15:11:45|56=QUANT|57=ADMIN|10=095|
8=FIX.4.2|9=54|35=0|34=36|49=QUANT|52=20100305-15:12:23.133|56=NESTI|10=007|
8=FIX.4.2|9=59|35=0|34=39|49=NESTI|52=20100305-15:12:46|56=QUANT|57=ADMIN|10=098|
8=FIX.4.2|9=54|35=0|34=37|49=QUANT|52=20100305-15:13:23.147|56=NESTI|10=014|
8=FIX.4.2|9=59|35=0|34=40|49=NESTI|52=20100305-15:13:47|56=QUANT|57=ADMIN|10=092|
8=FIX.4.2|9=54|35=0|34=38|49=QUANT|52=20100305-15:14:23.162|56=NESTI|10=013|
8=FIX.4.2|9=59|35=0|34=41|49=NESTI|52=20100305-15:14:48|56=QUANT|57=ADMIN|10=095|
8=FIX.4.2|9=54|35=0|34=39|49=QUANT|52=20100305-15:15:23.177|56=NESTI|10=021|
8=FIX.4.2|9=59|35=0|34=42|49=NESTI|52=20100305-15:15:49|56=QUANT|57=ADMIN|10=098|
8=FIX.4.2|9=54|35=0|34=40|49=QUANT|52=20100305-15:16:23.192|56=NESTI|10=011|
8=FIX.4.2|9=59|35=0|34=43|49=NESTI|52=20100305-15:16:50|56=QUANT|57=ADMIN|10=092|
8=FIX.4.2|9=54|35=0|34=41|49=QUANT|52=20100305-15:17:23.222|56=NESTI|10=007|
8=FIX.4.2|9=59|35=0|34=44|49=NESTI|52=20100305-15:17:51|56=QUANT|57=ADMIN|10=095|
8=FIX.4.2|9=54|35=0|34=42|49=QUANT|52=20100305-15:18:23.237|56=NESTI|10=015|
8=FIX.4.2|9=59|35=0|34=45|49=NESTI|52=20100305-15:18:52|56=QUANT|57=ADMIN|10=098|
8=FIX.4.2|9=54|35=0|34=43|49=QUANT|52=20100305-15:19:23.252|56=NESTI|10=014|
8=FIX.4.2|9=59|35=0|34=46|49=NESTI|52=20100305-15:19:53|56=QUANT|57=ADMIN|10=101|
8=FIX.4.2|9=54|35=0|34=44|49=QUANT|52=20100305-15:20:23.267|56=NESTI|10=013|
8=FIX.4.2|9=59|35=0|34=47|49=NESTI|52=20100305-15:20:54|56=QUANT|57=ADMIN|10=095|
8=FIX.4.2|9=54|35=0|34=45|49=QUANT|52=20100305-15:21:23.298|56=NESTI|10=019|
8=FIX.4.2|9=59|35=0|34=48|49=NESTI|52=20100305-15:21:55|56=QUANT|57=ADMIN|10=098|
8=FIX.4.2|9=54|35=0|34=46|49=QUANT|52=20100305-15:22:23.312|56=NESTI|10=008|
8=FIX.4.2|9=59|35=0|34=49|49=NESTI|52=20100305-15:22:56|56=QUANT|57=ADMIN|10=101|
8=FIX.4.2|9=54|35=0|34=47|49=QUANT|52=20100305-15:23:23.327|56=NESTI|10=016|
8=FIX.4.2|9=59|35=0|34=50|49=NESTI|52=20100305-15:23:57|56=QUANT|57=ADMIN|10=095|
8=FIX.4.2|9=54|35=0|34=48|49=QUANT|52=20100305-15:24:23.342|56=NESTI|10=015|
8=FIX.4.2|9=59|35=0|34=51|49=NESTI|52=20100305-15:24:58|56=QUANT|57=ADMIN|10=098|
8=FIX.4.2|9=54|35=0|34=49|49=QUANT|52=20100305-15:25:23.373|56=NESTI|10=021|
8=FIX.4.2|9=59|35=0|34=52|49=NESTI|52=20100305-15:25:59|56=QUANT|57=ADMIN|10=101|
8=FIX.4.2|9=54|35=0|34=50|49=QUANT|52=20100305-15:26:23.387|56=NESTI|10=019|
8=FIX.4.2|9=59|35=0|34=53|49=NESTI|52=20100305-15:27:00|56=QUANT|57=ADMIN|10=090|
8=FIX.4.2|9=54|35=0|34=51|49=QUANT|52=20100305-15:27:23.402|56=NESTI|10=009|
8=FIX.4.2|9=59|35=0|34=54|49=NESTI|52=20100305-15:28:01|56=QUANT|57=ADMIN|10=093|
8=FIX.4.2|9=54|35=0|34=52|49=QUANT|52=20100305-15:28:23.417|56=NESTI|10=017|
8=FIX.4.2|9=59|35=0|34=55|49=NESTI|52=20100305-15:29:02|56=QUANT|57=ADMIN|10=096|
8=FIX.4.2|9=54|35=0|34=53|49=QUANT|52=20100305-15:29:23.432|56=NESTI|10=016|
8=FIX.4.2|9=59|35=0|34=56|49=NESTI|52=20100305-15:30:03|56=QUANT|57=ADMIN|10=090|
8=FIX.4.2|9=54|35=0|34=54|49=QUANT|52=20100305-15:30:23.462|56=NESTI|10=012|
8=FIX.4.2|9=59|35=0|34=57|49=NESTI|52=20100305-15:31:04|56=QUANT|57=ADMIN|10=093|
8=FIX.4.2|9=54|35=5|34=55|49=QUANT|52=20100305-15:31:22.477|56=NESTI|10=024|
8=FIX.4.2|9=100|35=5|34=58|49=NESTI|52=20100305-15:31:22|56=QUANT|57=ADMIN|58=Accepting request to close connection|10=113|
8=FIX.4.2|9=66|35=A|34=56|49=QUANT|52=20100305-16:25:48.967|56=NESTI|98=0|108=60|10=084|
8=FIX.4.2|9=71|35=A|34=59|49=NESTI|52=20100305-16:25:48|56=QUANT|57=ADMIN|98=0|108=60|10=146|
8=FIX.4.2|9=81|35=1|34=60|49=NESTI|52=20100305-16:25:48|56=QUANT|57=ADMIN|112=1267806348.662641|10=165|
8=FIX.4.2|9=76|35=0|34=57|49=QUANT|52=20100305-16:25:49.201|56=NESTI|112=1267806348.662641|10=093|
8=FIX.4.2|9=121|35=D|34=58|49=QUANT|52=20100305-16:26:25.779|56=NESTI|11=IAA0010|21=1|38=5|40=1|50=UA|54=1|55=PETR4|60=20100305-13:26:25|10=060|
8=FIX.4.2|9=197|35=8|34=61|49=NESTI|50=RAI|52=20100305-16:26:39|56=QUANT|57=UA|38=5|6=0.00000000|11=IAA0010|14=0|17=1100000023|20=0|31=0.00000000|32=0|37=BIAA0010QUANT|39=0|44=0.00000000|54=1|55=PETR4|150=0|151=5|10=133|
8=FIX.4.2|9=122|35=F|34=59|49=QUANT|52=20100305-16:26:49.294|56=NESTI|11=IAA0011|38=5|41=IAA0010|50=UA|54=1|55=PETR4|60=20100305-13:26:49|10=207|
8=FIX.4.2|9=201|35=8|34=62|49=NESTI|52=20100305-16:26:48|56=QUANT|57=UA|38=5|6=0.00000000|11=IAA0011|14=0|17=1200000025|20=0|31=0.00000000|32=0|37=BIAA0011QUANT|39=6|44=0.00000000|54=1|55=PETR4|150=6|41=IAA0010|151=5|10=057|
8=FIX.4.2|9=190|35=8|34=63|49=NESTI|52=20100305-16:26:48|56=QUANT|57=UA|38=5|6=0.00000000|11=IAA0010|14=0|17=1100000025|20=0|31=0.00000000|32=0|37=BIAA0010QUANT|39=4|44=0.00000000|54=1|55=PETR4|150=4|151=0|10=006|
8=FIX.4.2|9=122|35=D|34=60|49=QUANT|52=20100305-16:26:52.622|56=NESTI|11=IAA0012|21=1|38=10|40=1|50=UA|54=1|55=PETR4|60=20100305-13:26:52|10=087|
8=FIX.4.2|9=199|35=8|34=64|49=NESTI|50=RAI|52=20100305-16:27:01|56=QUANT|57=UA|38=10|6=0.00000000|11=IAA0012|14=0|17=1100000028|20=0|31=0.00000000|32=0|37=BIAA0012QUANT|39=0|44=0.00000000|54=1|55=PETR4|150=0|151=10|10=225|
8=FIX.4.2|9=122|35=F|34=61|49=QUANT|52=20100305-16:27:15.950|56=NESTI|11=IAA0013|38=5|41=IAA0010|50=UA|54=1|55=PETR4|60=20100305-13:27:15|10=189|
8=FIX.4.2|9=123|35=F|34=62|49=QUANT|52=20100305-16:27:15.950|56=NESTI|11=IAA0014|38=10|41=IAA0012|50=UA|54=1|55=PETR4|60=20100305-13:27:15|10=238|
8=FIX.4.2|9=135|35=9|34=65|49=NESTI|52=20100305-16:27:15|56=QUANT|57=UA|11=IAA0013|37=BIAA0013QUANT|58=REFERENCE-CANCELLED|102=0|41=IAA0010|39=8|434=1|10=244|
8=FIX.4.2|9=203|35=8|34=66|49=NESTI|52=20100305-16:27:15|56=QUANT|57=UA|38=10|6=0.00000000|11=IAA0014|14=0|17=1200000031|20=0|31=0.00000000|32=0|37=BIAA0014QUANT|39=6|44=0.00000000|54=1|55=PETR4|150=6|41=IAA0012|151=10|10=151|
8=FIX.4.2|9=191|35=8|34=67|49=NESTI|52=20100305-16:27:15|56=QUANT|57=UA|38=10|6=0.00000000|11=IAA0012|14=0|17=1100000031|20=0|31=0.00000000|32=0|37=BIAA0012QUANT|39=4|44=0.00000000|54=1|55=PETR4|150=4|151=0|10=051|
8=FIX.4.2|9=54|35=0|34=63|49=QUANT|52=20100305-16:28:15.012|56=NESTI|10=012|
8=FIX.4.2|9=59|35=0|34=68|49=NESTI|52=20100305-16:28:16|56=QUANT|57=ADMIN|10=105|
8=FIX.4.2|9=54|35=0|34=64|49=QUANT|52=20100305-16:29:15.058|56=NESTI|10=024|
8=FIX.4.2|9=59|35=0|34=69|49=NESTI|52=20100305-16:29:17|56=QUANT|57=ADMIN|10=108|
8=FIX.4.2|9=54|35=0|34=65|49=QUANT|52=20100305-16:30:15.088|56=NESTI|10=020|
8=FIX.4.2|9=59|35=0|34=70|49=NESTI|52=20100305-16:30:18|56=QUANT|57=ADMIN|10=093|
8=FIX.4.2|9=54|35=0|34=66|49=QUANT|52=20100305-16:31:15.103|56=NESTI|10=010|
8=FIX.4.2|9=59|35=0|34=71|49=NESTI|52=20100305-16:31:19|56=QUANT|57=ADMIN|10=096|
8=FIX.4.2|9=66|35=A|34=67|49=QUANT|52=20100305-17:14:42.601|56=NESTI|98=0|108=60|10=064|
8=FIX.4.2|9=71|35=A|34=72|49=NESTI|52=20100305-17:14:42|56=QUANT|57=ADMIN|98=0|108=60|10=134|
8=FIX.4.2|9=81|35=1|34=73|49=NESTI|52=20100305-17:14:42|56=QUANT|57=ADMIN|112=1267809282.191169|10=164|
8=FIX.4.2|9=76|35=0|34=68|49=QUANT|52=20100305-17:14:42.757|56=NESTI|112=1267809282.191169|10=105|
8=FIX.4.2|9=121|35=D|34=69|49=QUANT|52=20100305-17:14:51.007|56=NESTI|11=IAA0015|21=1|38=5|40=1|50=UA|54=1|55=PETR4|60=20100305-14:14:50|10=044|
8=FIX.4.2|9=197|35=8|34=74|49=NESTI|50=RAI|52=20100305-17:14:54|56=QUANT|57=UA|38=5|6=0.00000000|11=IAA0015|14=0|17=1100000035|20=0|31=0.00000000|32=0|37=BIAA0015QUANT|39=0|44=0.00000000|54=1|55=PETR4|150=0|151=5|10=145|
8=FIX.4.2|9=63|35=1|34=70|49=QUANT|52=20100305-17:17:02.646|56=NESTI|112=TEST|10=037|
8=FIX.4.2|9=59|35=0|34=75|49=NESTI|52=20100305-17:15:55|56=QUANT|57=ADMIN|10=103|
8=FIX.4.2|9=81|35=1|34=76|49=NESTI|52=20100305-17:16:56|56=QUANT|57=ADMIN|112=1267809416.474680|10=175|
8=FIX.4.2|9=76|35=0|34=71|49=QUANT|52=20100305-17:17:02.646|56=NESTI|112=1267809416.474680|10=096|
8=FIX.4.2|9=68|35=0|34=77|49=NESTI|52=20100305-17:17:02|56=QUANT|57=ADMIN|112=TEST|10=117|
8=FIX.4.2|9=122|35=F|34=72|49=QUANT|52=20100305-17:17:16.459|56=NESTI|11=IAA0016|38=5|41=IAA0015|50=UA|54=1|55=PETR4|60=20100305-14:17:16|10=205|
8=FIX.4.2|9=201|35=8|34=78|49=NESTI|52=20100305-17:17:15|56=QUANT|57=UA|38=5|6=0.00000000|11=IAA0016|14=0|17=1200000037|20=0|31=0.00000000|32=0|37=BIAA0016QUANT|39=6|44=0.00000000|54=1|55=PETR4|150=6|41=IAA0015|151=5|10=077|
8=FIX.4.2|9=190|35=8|34=79|49=NESTI|52=20100305-17:17:15|56=QUANT|57=UA|38=5|6=0.00000000|11=IAA0015|14=0|17=1100000037|20=0|31=0.00000000|32=0|37=BIAA0015QUANT|39=4|44=0.00000000|54=1|55=PETR4|150=4|151=0|10=021|
8=FIX.4.2|9=54|35=0|34=73|49=QUANT|52=20100305-17:19:18.348|56=NESTI|10=029|
8=FIX.4.2|9=59|35=0|34=80|49=NESTI|52=20100305-17:18:16|56=QUANT|57=ADMIN|10=099|
8=FIX.4.2|9=81|35=1|34=81|49=NESTI|52=20100305-17:19:17|56=QUANT|57=ADMIN|112=1267809557.999160|10=182|
8=FIX.4.2|9=76|35=0|34=74|49=QUANT|52=20100305-17:19:26.301|56=NESTI|112=1267809557.999160|10=106|
8=FIX.4.2|9=66|35=A|34=75|49=QUANT|52=20100305-18:04:27.204|56=NESTI|98=0|108=60|10=065|
8=FIX.4.2|9=71|35=A|34=83|49=NESTI|52=20100305-18:04:26|56=QUANT|57=ADMIN|98=0|108=60|10=138|
8=FIX.4.2|9=64|35=2|34=76|49=QUANT|52=20100305-18:04:27.235|56=NESTI|7=82|16=0|10=205|
8=FIX.4.2|9=81|35=1|34=84|49=NESTI|52=20100305-18:04:26|56=QUANT|57=ADMIN|112=1267812266.767331|10=164|
8=FIX.4.2|9=218|35=8|34=82|43=Y|49=NESTI|52=20100305-18:04:26|56=QUANT|57=UA|122=20100305-18:03:48|38=15|6=1.00000000|11=IAA0006|14=8|17=1363000098|20=0|31=0.00000000|32=0|37=BIAA0006QUANT|39=4|44=0.00000000|54=1|55=PETR4|150=4|151=0|10=144|
8=FIX.4.2|9=81|35=1|34=84|49=NESTI|52=20100305-18:04:26|56=QUANT|57=ADMIN|112=1267812266.767331|10=164|
8=FIX.4.2|9=76|35=0|34=77|49=QUANT|52=20100305-18:04:42.875|56=NESTI|112=1267812266.767331|10=102|
8=FIX.4.2|9=89|35=4|34=83|43=Y|49=NESTI|52=20100305-18:04:26|56=QUANT|122=20100305-18:04:26|36=85|123=Y|10=202|
8=FIX.4.2|9=54|35=5|34=78|49=QUANT|52=20100305-18:04:57.734|56=NESTI|10=036|
8=FIX.4.2|9=66|35=A|34=79|49=QUANT|52=20100305-18:13:10.166|56=NESTI|98=0|108=60|10=068|
8=FIX.4.2|9=71|35=A|34=86|49=NESTI|52=20100305-18:13:09|56=QUANT|57=ADMIN|98=0|108=60|10=142|
8=FIX.4.2|9=64|35=2|34=80|49=QUANT|52=20100305-18:13:10.181|56=NESTI|7=85|16=0|10=195|
8=FIX.4.2|9=81|35=1|34=87|49=NESTI|52=20100305-18:13:09|56=QUANT|57=ADMIN|112=1267812789.692760|10=181|
8=FIX.4.2|9=89|35=4|34=85|43=Y|49=NESTI|52=20100305-18:13:09|56=QUANT|122=20100305-18:13:09|36=88|123=Y|10=209|
8=FIX.4.2|9=121|35=D|34=81|49=QUANT|52=20100305-18:13:29.400|56=NESTI|11=IAA0017|21=1|38=5|40=1|50=UA|54=1|55=PETR4|60=20100305-15:13:29|10=048|
8=FIX.4.2|9=197|35=8|34=88|49=NESTI|50=RAI|52=20100305-18:13:32|56=QUANT|57=UA|38=5|6=0.00000000|11=IAA0017|14=0|17=1100000041|20=0|31=0.00000000|32=0|37=BIAA0017QUANT|39=0|44=0.00000000|54=1|55=PETR4|150=0|151=5|10=147|
8=FIX.4.2|9=63|35=1|34=82|49=QUANT|52=20100305-18:15:13.086|56=NESTI|112=TEST|10=039|
8=FIX.4.2|9=59|35=0|34=89|49=NESTI|52=20100305-18:14:33|56=QUANT|57=ADMIN|10=104|
8=FIX.4.2|9=68|35=0|34=90|49=NESTI|52=20100305-18:15:12|56=QUANT|57=ADMIN|112=TEST|10=112|
8=FIX.4.2|9=66|35=A|34=83|49=QUANT|52=20100305-18:18:04.068|56=NESTI|98=0|108=60|10=072|
8=FIX.4.2|9=71|35=A|34=91|49=NESTI|52=20100305-18:18:03|56=QUANT|57=ADMIN|98=0|108=60|10=137|
8=FIX.4.2|9=81|35=1|34=92|49=NESTI|52=20100305-18:18:03|56=QUANT|57=ADMIN|112=1267813083.523525|10=156|
8=FIX.4.2|9=76|35=0|34=84|49=QUANT|52=20100305-18:18:04.209|56=NESTI|112=1267813083.523525|10=087|
8=FIX.4.2|9=121|35=D|34=85|49=QUANT|52=20100305-18:18:11.021|56=NESTI|11=IAA0018|21=1|38=1|40=1|50=UA|54=1|55=PETR4|60=20100305-15:18:11|10=040|
8=FIX.4.2|9=197|35=8|34=93|49=NESTI|50=RAI|52=20100305-18:18:13|56=QUANT|57=UA|38=1|6=0.00000000|11=IAA0018|14=0|17=1100000043|20=0|31=0.00000000|32=0|37=BIAA0018QUANT|39=0|44=0.00000000|54=1|55=PETR4|150=0|151=1|10=143|
8=FIX.4.2|9=122|35=F|34=86|49=QUANT|52=20100305-18:18:26.755|56=NESTI|11=IAA0019|38=1|41=IAA0018|50=UA|54=1|55=PETR4|60=20100305-15:18:26|10=217|
8=FIX.4.2|9=201|35=8|34=94|49=NESTI|52=20100305-18:18:26|56=QUANT|57=UA|38=1|6=0.00000000|11=IAA0019|14=0|17=1200000045|20=0|31=0.00000000|32=0|37=BIAA0019QUANT|39=6|44=0.00000000|54=1|55=PETR4|150=6|41=IAA0018|151=1|10=079|
8=FIX.4.2|9=190|35=8|34=95|49=NESTI|52=20100305-18:18:26|56=QUANT|57=UA|38=1|6=0.00000000|11=IAA0018|14=0|17=1100000045|20=0|31=0.00000000|32=0|37=BIAA0018QUANT|39=4|44=0.00000000|54=1|55=PETR4|150=4|151=0|10=024|
8=FIX.4.2|9=54|35=5|34=87|49=QUANT|52=20100305-18:19:06.224|56=NESTI|10=030|
8=FIX.4.2|9=100|35=5|34=96|49=NESTI|52=20100305-18:19:05|56=QUANT|57=ADMIN|58=Accepting request to close connection|10=125|
8=FIX.4.2|9=66|35=A|34=88|49=QUANT|52=20100305-18:19:55.301|56=NESTI|98=0|108=60|10=074|
8=FIX.4.2|9=71|35=A|34=97|49=NESTI|52=20100305-18:19:54|56=QUANT|57=ADMIN|98=0|108=60|10=150|
8=FIX.4.2|9=81|35=1|34=98|49=NESTI|52=20100305-18:19:54|56=QUANT|57=ADMIN|112=1267813194.757584|10=186|
8=FIX.4.2|9=76|35=0|34=89|49=QUANT|52=20100305-18:19:55.457|56=NESTI|112=1267813194.757584|10=121|
8=FIX.4.2|9=121|35=D|34=90|49=QUANT|52=20100305-18:20:03.817|56=NESTI|11=IAA0020|21=1|38=1|40=1|50=UA|54=1|55=PETR4|60=20100305-15:20:03|10=030|
8=FIX.4.2|9=197|35=8|34=99|49=NESTI|50=RAI|52=20100305-18:20:11|56=QUANT|57=UA|38=1|6=0.00000000|11=IAA0020|14=0|17=1100000048|20=0|31=0.00000000|32=0|37=BIAA0020QUANT|39=0|44=0.00000000|54=1|55=PETR4|150=0|151=1|10=131|
8=FIX.4.2|9=122|35=F|34=91|49=QUANT|52=20100305-18:20:20.316|56=NESTI|11=IAA0021|38=1|41=IAA0020|50=UA|54=1|55=PETR4|60=20100305-15:20:20|10=166|
8=FIX.4.2|9=202|35=8|34=100|49=NESTI|52=20100305-18:20:19|56=QUANT|57=UA|38=1|6=0.00000000|11=IAA0021|14=0|17=1200000050|20=0|31=0.00000000|32=0|37=BIAA0021QUANT|39=6|44=0.00000000|54=1|55=PETR4|150=6|41=IAA0020|151=1|10=086|
8=FIX.4.2|9=191|35=8|34=101|49=NESTI|52=20100305-18:20:19|56=QUANT|57=UA|38=1|6=0.00000000|11=IAA0020|14=0|17=1100000050|20=0|31=0.00000000|32=0|37=BIAA0020QUANT|39=4|44=0.00000000|54=1|55=PETR4|150=4|151=0|10=038|
8=FIX.4.2|9=54|35=0|34=92|49=QUANT|52=20100305-18:21:20.050|56=NESTI|10=007|
8=FIX.4.2|9=60|35=0|34=102|49=NESTI|52=20100305-18:21:20|56=QUANT|57=ADMIN|10=124|
8=FIX.4.2|9=54|35=0|34=93|49=QUANT|52=20100305-18:22:20.080|56=NESTI|10=012|
8=FIX.4.2|9=60|35=0|34=103|49=NESTI|52=20100305-18:22:21|56=QUANT|57=ADMIN|10=127|
8=FIX.4.2|9=121|35=D|34=94|49=QUANT|52=20100305-18:23:03.314|56=NESTI|11=IAA0022|21=1|38=1|40=1|50=UA|54=1|55=PETR4|60=20100305-15:23:03|10=034|
8=FIX.4.2|9=198|35=8|34=104|49=NESTI|50=RAI|52=20100305-18:23:05|56=QUANT|57=UA|38=1|6=0.00000000|11=IAA0022|14=0|17=1100000053|20=0|31=0.00000000|32=0|37=BIAA0022QUANT|39=0|44=0.00000000|54=1|55=PETR4|150=0|151=1|10=173|
8=FIX.4.2|9=54|35=0|34=95|49=QUANT|52=20100305-18:24:03.985|56=NESTI|10=031|
8=FIX.4.2|9=60|35=0|34=105|49=NESTI|52=20100305-18:24:06|56=QUANT|57=ADMIN|10=134|
8=FIX.4.2|9=122|35=F|34=96|49=QUANT|52=20100305-18:24:15.985|56=NESTI|11=IAA0023|38=1|41=IAA0022|50=UA|54=1|55=PETR4|60=20100305-15:24:15|10=203|
8=FIX.4.2|9=202|35=8|34=106|49=NESTI|52=20100305-18:24:15|56=QUANT|57=UA|38=1|6=0.00000000|11=IAA0023|14=0|17=1200000055|20=0|31=0.00000000|32=0|37=BIAA0023QUANT|39=6|44=0.00000000|54=1|55=PETR4|150=6|41=IAA0022|151=1|10=103|
8=FIX.4.2|9=191|35=8|34=107|49=NESTI|52=20100305-18:24:15|56=QUANT|57=UA|38=1|6=0.00000000|11=IAA0022|14=0|17=1100000055|20=0|31=0.00000000|32=0|37=BIAA0022QUANT|39=4|44=0.00000000|54=1|55=PETR4|150=4|151=0|10=053|
8=FIX.4.2|9=122|35=D|34=97|49=QUANT|52=20100305-18:25:05.094|56=NESTI|11=IAA0024|21=1|38=10|40=1|50=UA|54=1|55=PETR4|60=20100305-15:25:05|10=101|
8=FIX.4.2|9=200|35=8|34=108|49=NESTI|50=RAI|52=20100305-18:25:08|56=QUANT|57=UA|38=10|6=0.00000000|11=IAA0024|14=0|17=1100000058|20=0|31=0.00000000|32=0|37=BIAA0024QUANT|39=0|44=0.00000000|54=1|55=PETR4|150=0|151=10|10=015|
8=FIX.4.2|9=54|35=0|34=98|49=QUANT|52=20100305-18:26:05.812|56=NESTI|10=027|
8=FIX.4.2|9=60|35=0|34=109|49=NESTI|52=20100305-18:26:09|56=QUANT|57=ADMIN|10=143|
8=FIX.4.2|9=123|35=F|34=99|49=QUANT|52=20100305-18:26:33.296|56=NESTI|11=IAA0025|38=10|41=IAA0024|50=UA|54=1|55=PETR4|60=20100305-15:26:33|10=002|
8=FIX.4.2|9=204|35=8|34=110|49=NESTI|52=20100305-18:26:32|56=QUANT|57=UA|38=10|6=0.00000000|11=IAA0025|14=0|17=1200000060|20=0|31=0.00000000|32=0|37=BIAA0025QUANT|39=6|44=0.00000000|54=1|55=PETR4|150=6|41=IAA0024|151=10|10=199|
8=FIX.4.2|9=55|35=0|34=100|49=QUANT|52=20100305-18:27:33.389|56=NESTI|10=071|
8=FIX.4.2|9=60|35=0|34=111|49=NESTI|52=20100305-18:27:33|56=QUANT|57=ADMIN|10=134|
8=FIX.4.2|9=192|35=8|34=112|49=NESTI|52=20100305-18:27:46|56=QUANT|57=UA|38=10|6=0.00000000|11=IAA0024|14=0|17=1363000646|20=0|31=0.00000000|32=0|37=BIAA0024QUANT|39=4|44=0.00000000|54=1|55=PETR4|150=4|151=0|10=126|
8=FIX.4.2|9=55|35=0|34=101|49=QUANT|52=20100305-18:28:33.263|56=NESTI|10=064|
8=FIX.4.2|9=55|35=5|34=102|49=QUANT|52=20100305-18:28:41.263|56=NESTI|10=069|
8=FIX.4.2|9=101|35=5|34=113|49=NESTI|52=20100305-18:28:40|56=QUANT|57=ADMIN|58=Accepting request to close connection|10=163|
8=FIX.4.2|9=67|35=A|34=103|49=QUANT|52=20100305-19:16:43.523|56=NESTI|98=0|108=60|10=112|
8=FIX.4.2|9=72|35=A|34=114|49=NESTI|52=20100305-19:16:43|56=QUANT|57=ADMIN|98=0|108=60|10=185|
8=FIX.4.2|9=82|35=1|34=115|49=NESTI|52=20100305-19:16:43|56=QUANT|57=ADMIN|112=1267816603.044336|10=203|
8=FIX.4.2|9=77|35=0|34=104|49=QUANT|52=20100305-19:16:43.757|56=NESTI|112=1267816603.044336|10=138|
8=FIX.4.2|9=122|35=D|34=105|49=QUANT|52=20100305-19:16:52.914|56=NESTI|11=IAA0001|21=1|38=1|40=1|50=UA|54=1|55=PETR4|60=20100305-16:16:52|10=093|
8=FIX.4.2|9=222|35=8|34=116|49=NESTI|52=20100305-19:16:52|56=QUANT|57=UA|38=1|6=0.00000000|11=IAA0001|14=0|17=888893|20=0|31=0.00000000|32=0|37=BIAA0001QUANT|39=8|44=0.00000000|54=1|55=PETR4|58=Invalid Order Id (Tag 11)|103=0|150=8|151=0|10=001|
8=FIX.4.2|9=122|35=D|34=106|49=QUANT|52=20100305-19:17:07.616|56=NESTI|11=IAA0002|21=1|38=1|40=1|50=UA|54=1|55=PETR4|60=20100305-16:17:07|10=096|
8=FIX.4.2|9=222|35=8|34=117|49=NESTI|52=20100305-19:17:07|56=QUANT|57=UA|38=1|6=0.00000000|11=IAA0002|14=0|17=888894|20=0|31=0.00000000|32=0|37=BIAA0002QUANT|39=8|44=0.00000000|54=1|55=PETR4|58=Invalid Order Id (Tag 11)|103=0|150=8|151=0|10=006|
8=FIX.4.2|9=122|35=D|34=107|49=QUANT|52=20100305-19:17:46.132|56=NESTI|11=IAA0026|21=1|38=1|40=1|50=UA|54=1|55=PETR4|60=20100305-16:17:46|10=102|
8=FIX.4.2|9=60|35=0|34=118|49=NESTI|52=20100305-19:18:08|56=QUANT|57=ADMIN|10=144|
8=FIX.4.2|9=55|35=0|34=108|49=QUANT|52=20100305-19:18:46.568|56=NESTI|10=083|
8=FIX.4.2|9=60|35=0|34=119|49=NESTI|52=20100305-19:19:09|56=QUANT|57=ADMIN|10=147|
8=FIX.4.2|9=55|35=0|34=109|49=QUANT|52=20100305-19:19:46.583|56=NESTI|10=082|
8=FIX.4.2|9=60|35=0|34=120|49=NESTI|52=20100305-19:20:10|56=QUANT|57=ADMIN|10=123|
8=FIX.4.2|9=55|35=0|34=110|49=QUANT|52=20100305-19:20:46.629|56=NESTI|10=067|
8=FIX.4.2|9=60|35=0|34=121|49=NESTI|52=20100305-19:21:11|56=QUANT|57=ADMIN|10=126|
8=FIX.4.2|9=55|35=0|34=111|49=QUANT|52=20100305-19:21:46.644|56=NESTI|10=066|
8=FIX.4.2|9=60|35=0|34=122|49=NESTI|52=20100305-19:22:12|56=QUANT|57=ADMIN|10=129|
8=FIX.4.2|9=55|35=0|34=112|49=QUANT|52=20100305-19:22:46.690|56=NESTI|10=069|
8=FIX.4.2|9=60|35=0|34=123|49=NESTI|52=20100305-19:23:13|56=QUANT|57=ADMIN|10=132|
8=FIX.4.2|9=55|35=0|34=113|49=QUANT|52=20100305-19:23:46.736|56=NESTI|10=072|
8=FIX.4.2|9=60|35=0|34=124|49=NESTI|52=20100305-19:24:14|56=QUANT|57=ADMIN|10=135|
8=FIX.4.2|9=55|35=0|34=114|49=QUANT|52=20100305-19:24:46.751|56=NESTI|10=071|
8=FIX.4.2|9=60|35=0|34=125|49=NESTI|52=20100305-19:25:15|56=QUANT|57=ADMIN|10=138|
8=FIX.4.2|9=55|35=0|34=115|49=QUANT|52=20100305-19:25:46.797|56=NESTI|10=083|
8=FIX.4.2|9=60|35=0|34=126|49=NESTI|52=20100305-19:26:16|56=QUANT|57=ADMIN|10=141|
8=FIX.4.2|9=55|35=0|34=116|49=QUANT|52=20100305-19:26:46.843|56=NESTI|10=077|
8=FIX.4.2|9=60|35=0|34=127|49=NESTI|52=20100305-19:27:17|56=QUANT|57=ADMIN|10=144|
8=FIX.4.2|9=55|35=0|34=117|49=QUANT|52=20100305-19:27:46.858|56=NESTI|10=085|
8=FIX.4.2|9=60|35=0|34=128|49=NESTI|52=20100305-19:28:18|56=QUANT|57=ADMIN|10=147|
8=FIX.4.2|9=55|35=0|34=118|49=QUANT|52=20100305-19:28:46.904|56=NESTI|10=079|
8=FIX.4.2|9=122|35=D|34=119|49=QUANT|52=20100305-19:29:15.685|56=NESTI|11=IAA0027|21=1|38=1|40=1|50=UA|54=1|55=PETR4|60=20100305-16:29:15|10=117|
8=FIX.4.2|9=60|35=0|34=129|49=NESTI|52=20100305-19:29:19|56=QUANT|57=ADMIN|10=150|
8=FIX.4.2|9=55|35=0|34=120|49=QUANT|52=20100305-19:30:15.935|56=NESTI|10=065|
8=FIX.4.2|9=60|35=0|34=130|49=NESTI|52=20100305-19:30:20|56=QUANT|57=ADMIN|10=126|
8=FIX.4.2|9=55|35=0|34=121|49=QUANT|52=20100305-19:31:15.949|56=NESTI|10=072|
8=FIX.4.2|9=60|35=0|34=131|49=NESTI|52=20100305-19:31:21|56=QUANT|57=ADMIN|10=129|
8=FIX.4.2|9=55|35=0|34=122|49=QUANT|52=20100305-19:32:15.964|56=NESTI|10=071|
8=FIX.4.2|9=60|35=0|34=132|49=NESTI|52=20100305-19:32:22|56=QUANT|57=ADMIN|10=132|
8=FIX.4.2|9=55|35=0|34=123|49=QUANT|52=20100305-19:33:15.979|56=NESTI|10=079|
8=FIX.4.2|9=60|35=0|34=133|49=NESTI|52=20100305-19:33:23|56=QUANT|57=ADMIN|10=135|
8=FIX.4.2|9=55|35=0|34=124|49=QUANT|52=20100305-19:34:15.010|56=NESTI|10=057|
8=FIX.4.2|9=60|35=0|34=134|49=NESTI|52=20100305-19:34:24|56=QUANT|57=ADMIN|10=138|
8=FIX.4.2|9=198|35=8|34=135|49=NESTI|50=RAI|52=20100305-19:34:40|56=QUANT|57=UA|38=1|6=0.00000000|11=IAA0027|14=0|17=1100000068|20=0|31=0.00000000|32=0|37=BIAA0027QUANT|39=0|44=0.00000000|54=1|55=PETR4|150=0|151=1|10=195|
8=FIX.4.2|9=55|35=0|34=125|49=QUANT|52=20100305-19:35:15.024|56=NESTI|10=064|
8=FIX.4.2|9=60|35=0|34=136|49=NESTI|52=20100305-19:35:41|56=QUANT|57=ADMIN|10=140|
8=FIX.4.2|9=55|35=0|34=126|49=QUANT|52=20100305-19:36:15.039|56=NESTI|10=072|
8=FIX.4.2|9=60|35=0|34=137|49=NESTI|52=20100305-19:36:42|56=QUANT|57=ADMIN|10=143|
8=FIX.4.2|9=55|35=0|34=127|49=QUANT|52=20100305-19:37:15.054|56=NESTI|10=071|
8=FIX.4.2|9=60|35=0|34=138|49=NESTI|52=20100305-19:37:43|56=QUANT|57=ADMIN|10=146|
8=FIX.4.2|9=55|35=0|34=128|49=QUANT|52=20100305-19:38:15.069|56=NESTI|10=079|
8=FIX.4.2|9=60|35=0|34=139|49=NESTI|52=20100305-19:38:44|56=QUANT|57=ADMIN|10=149|
8=FIX.4.2|9=55|35=0|34=129|49=QUANT|52=20100305-19:39:15.099|56=NESTI|10=084|
8=FIX.4.2|9=60|35=0|34=140|49=NESTI|52=20100305-19:39:45|56=QUANT|57=ADMIN|10=143|
8=FIX.4.2|9=55|35=0|34=130|49=QUANT|52=20100305-19:40:15.114|56=NESTI|10=056|
8=FIX.4.2|9=60|35=0|34=141|49=NESTI|52=20100305-19:40:46|56=QUANT|57=ADMIN|10=137|
8=FIX.4.2|9=55|35=0|34=131|49=QUANT|52=20100305-19:41:15.129|56=NESTI|10=064|
8=FIX.4.2|9=60|35=0|34=142|49=NESTI|52=20100305-19:41:47|56=QUANT|57=ADMIN|10=140|
8=FIX.4.2|9=55|35=0|34=132|49=QUANT|52=20100305-19:42:15.144|56=NESTI|10=063|
8=FIX.4.2|9=60|35=0|34=143|49=NESTI|52=20100305-19:42:48|56=QUANT|57=ADMIN|10=143|
8=FIX.4.2|9=55|35=0|34=133|49=QUANT|52=20100305-19:43:15.175|56=NESTI|10=069|
8=FIX.4.2|9=60|35=0|34=144|49=NESTI|52=20100305-19:43:49|56=QUANT|57=ADMIN|10=146|
8=FIX.4.2|9=55|35=0|34=134|49=QUANT|52=20100305-19:44:15.189|56=NESTI|10=076|
8=FIX.4.2|9=60|35=0|34=145|49=NESTI|52=20100305-19:44:50|56=QUANT|57=ADMIN|10=140|
8=FIX.4.2|9=55|35=0|34=135|49=QUANT|52=20100305-19:45:15.204|56=NESTI|10=066|
8=FIX.4.2|9=60|35=0|34=146|49=NESTI|52=20100305-19:45:51|56=QUANT|57=ADMIN|10=143|
8=FIX.4.2|9=55|35=0|34=136|49=QUANT|52=20100305-19:46:15.219|56=NESTI|10=074|
8=FIX.4.2|9=60|35=0|34=147|49=NESTI|52=20100305-19:46:52|56=QUANT|57=ADMIN|10=146|
8=FIX.4.2|9=55|35=0|34=137|49=QUANT|52=20100305-19:47:15.250|56=NESTI|10=071|
8=FIX.4.2|9=55|35=5|34=138|49=QUANT|52=20100305-19:47:46.249|56=NESTI|10=089|
8=FIX.4.2|9=101|35=5|34=148|49=NESTI|52=20100305-19:47:45|56=QUANT|57=ADMIN|58=Accepting request to close connection|10=178|
8=FIX.4.2|9=67|35=A|34=139|49=QUANT|52=20100305-20:23:17.316|56=NESTI|98=0|108=60|10=112|
8=FIX.4.2|9=72|35=A|34=149|49=NESTI|52=20100305-20:23:16|56=QUANT|57=ADMIN|98=0|108=60|10=183|
8=FIX.4.2|9=82|35=1|34=150|49=NESTI|52=20100305-20:23:16|56=QUANT|57=ADMIN|112=1267820596.726846|10=211|
8=FIX.4.2|9=77|35=0|34=140|49=QUANT|52=20100305-20:23:17.488|56=NESTI|112=1267820596.726846|10=149|
8=FIX.4.2|9=125|35=D|34=141|49=QUANT|52=20100305-20:23:28.097|56=NESTI|11=IAA0028|21=1|38=1|40=1|50=UA|54=1|55=PETR4.sa|60=20100305-17:23:28|10=104|
8=FIX.4.2|9=55|35=5|34=142|49=QUANT|52=20100305-20:23:44.315|56=NESTI|10=062|
8=FIX.4.2|9=101|35=5|34=151|49=NESTI|52=20100305-20:23:43|56=QUANT|57=ADMIN|58=Accepting request to close connection|10=156|
8=FIX.4.2|9=67|35=A|34=144|49=QUANT|52=20100305-20:24:35.893|56=NESTI|98=0|108=60|10=119|
8=FIX.4.2|9=72|35=A|34=152|49=NESTI|52=20100305-20:24:35|56=QUANT|57=ADMIN|98=0|108=60|10=179|
8=FIX.4.2|9=71|35=2|34=153|49=NESTI|52=20100305-20:24:35|56=QUANT|57=ADMIN|7=143|16=0|10=106|
8=FIX.4.2|9=162|35=D|34=143|43=Y|49=QUANT|50=UA|52=20100305-20:24:36.049|56=NESTI|122=20100305-20:24:11.268|11=IAA0029|21=1|38=1|40=1|50=UA|54=1|55=PETR4.SA|60=20100305-17:24:11|10=080|
8=FIX.4.2|9=99|35=4|34=144|43=Y|49=QUANT|52=20100305-20:24:36.049|56=NESTI|122=20100305-20:24:36.049|36=145|123=Y|10=180|
8=FIX.4.2|9=55|35=0|34=145|49=QUANT|52=20100305-20:25:36.908|56=NESTI|10=071|
8=FIX.4.2|9=60|35=0|34=154|49=NESTI|52=20100305-20:25:36|56=QUANT|57=ADMIN|10=135|
8=FIX.4.2|9=125|35=D|34=146|49=QUANT|52=20100305-20:26:28.923|56=NESTI|11=IAA0030|21=1|38=1|40=1|50=UA|54=1|55=PETR4.SA|60=20100305-17:26:28|10=042|
8=FIX.4.2|9=60|35=0|34=155|49=NESTI|52=20100305-20:26:37|56=QUANT|57=ADMIN|10=138|
8=FIX.4.2|9=201|35=8|34=156|49=NESTI|50=RAI|52=20100305-20:27:11|56=QUANT|57=UA|38=1|6=0.00000000|11=IAA0029|14=0|17=1100000071|20=0|31=0.00000000|32=0|37=BIAA0029QUANT|39=0|44=0.00000000|54=1|55=PETR4.SA|150=0|151=1|10=111|
8=FIX.4.2|9=55|35=0|34=147|49=QUANT|52=20100305-20:27:28.953|56=NESTI|10=076|
8=FIX.4.2|9=195|35=8|34=157|49=NESTI|52=20100305-20:27:43|56=QUANT|57=UA|38=1|6=35.80000000|11=IAA0029|14=1|17=163000955|20=0|31=35.80000000|32=1|37=BIAA0029QUANT|39=2|44=0.00000000|54=1|55=PETR4.SA|150=2|151=0|10=106|
8=FIX.4.2|9=55|35=0|34=148|49=QUANT|52=20100305-20:28:28.968|56=NESTI|10=084|
8=FIX.4.2|9=60|35=0|34=158|49=NESTI|52=20100305-20:28:44|56=QUANT|57=ADMIN|10=141|
8=FIX.4.2|9=201|35=8|34=159|49=NESTI|50=RAI|52=20100305-20:28:57|56=QUANT|57=UA|38=1|6=0.00000000|11=IAA0030|14=0|17=1100000072|20=0|31=0.00000000|32=0|37=BIAA0030QUANT|39=0|44=0.00000000|54=1|55=PETR4.SA|150=0|151=1|10=110|
8=FIX.4.2|9=55|35=0|34=149|49=QUANT|52=20100305-20:29:28.983|56=NESTI|10=083|
8=FIX.4.2|9=60|35=0|34=160|49=NESTI|52=20100305-20:29:58|56=QUANT|57=ADMIN|10=140|
8=FIX.4.2|9=195|35=8|34=161|49=NESTI|52=20100305-20:30:02|56=QUANT|57=UA|38=1|6=35.81000000|11=IAA0030|14=1|17=163000958|20=0|31=35.81000000|32=1|37=BIAA0030QUANT|39=2|44=0.00000000|54=1|55=PETR4.SA|150=2|151=0|10=079|
8=FIX.4.2|9=55|35=0|34=150|49=QUANT|52=20100305-20:30:28.998|56=NESTI|10=073|
8=FIX.4.2|9=60|35=0|34=162|49=NESTI|52=20100305-20:31:03|56=QUANT|57=ADMIN|10=125|
8=FIX.4.2|9=55|35=0|34=151|49=QUANT|52=20100305-20:31:28.028|56=NESTI|10=059|
8=FIX.4.2|9=126|35=D|34=152|49=QUANT|52=20100305-20:31:39.356|56=NESTI|11=IAA0031|21=1|38=10|40=1|50=UA|54=1|55=VALE5.SA|60=20100305-17:31:39|10=067|
8=FIX.4.2|9=203|35=8|34=163|49=NESTI|50=RAI|52=20100305-20:31:50|56=QUANT|57=UA|38=10|6=0.00000000|11=IAA0031|14=0|17=1100000077|20=0|31=0.00000000|32=0|37=BIAA0031QUANT|39=0|44=0.00000000|54=1|55=VALE5.SA|150=0|151=10|10=179|
8=FIX.4.2|9=55|35=0|34=153|49=QUANT|52=20100305-20:32:39.043|56=NESTI|10=061|
8=FIX.4.2|9=60|35=0|34=164|49=NESTI|52=20100305-20:32:51|56=QUANT|57=ADMIN|10=131|
8=FIX.4.2|9=127|35=F|34=154|49=QUANT|52=20100305-20:33:40.433|56=NESTI|11=IAA0032|38=10|41=IAA0031|50=UA|54=1|55=VALE5.SA|60=20100305-17:33:40|10=198|
8=FIX.4.2|9=207|35=8|34=165|49=NESTI|52=20100305-20:33:39|56=QUANT|57=UA|38=10|6=0.00000000|11=IAA0032|14=0|17=1200000079|20=0|31=0.00000000|32=0|37=BIAA0032QUANT|39=6|44=0.00000000|54=1|55=VALE5.SA|150=6|41=IAA0031|151=10|10=134|
8=FIX.4.2|9=195|35=8|34=166|49=NESTI|52=20100305-20:34:11|56=QUANT|57=UA|38=10|6=0.00000000|11=IAA0031|14=0|17=1363000960|20=0|31=0.00000000|32=0|37=BIAA0031QUANT|39=4|44=0.00000000|54=1|55=VALE5.SA|150=4|151=0|10=036|
8=FIX.4.2|9=55|35=0|34=155|49=QUANT|52=20100305-20:34:40.448|56=NESTI|10=066|
8=FIX.4.2|9=60|35=0|34=167|49=NESTI|52=20100305-20:35:12|56=QUANT|57=ADMIN|10=134|
8=FIX.4.2|9=55|35=0|34=156|49=QUANT|52=20100305-20:35:40.080|56=NESTI|10=060|
8=FIX.4.2|9=60|35=0|34=168|49=NESTI|52=20100305-20:36:13|56=QUANT|57=ADMIN|10=137|
8=FIX.4.2|9=55|35=0|34=157|49=QUANT|52=20100305-20:36:40.942|56=NESTI|10=069|
8=FIX.4.2|9=60|35=0|34=169|49=NESTI|52=20100305-20:37:14|56=QUANT|57=ADMIN|10=140|
8=FIX.4.2|9=55|35=0|34=158|49=QUANT|52=20100305-20:37:40.789|56=NESTI|10=080|
8=FIX.4.2|9=60|35=0|34=170|49=NESTI|52=20100305-20:38:15|56=QUANT|57=ADMIN|10=134|
8=FIX.4.2|9=55|35=0|34=159|49=QUANT|52=20100305-20:38:40.637|56=NESTI|10=074|
8=FIX.4.2|9=60|35=0|34=171|49=NESTI|52=20100305-20:39:16|56=QUANT|57=ADMIN|10=137|
8=FIX.4.2|9=55|35=0|34=160|49=QUANT|52=20100305-20:39:40.484|56=NESTI|10=067|
8=FIX.4.2|9=60|35=0|34=172|49=NESTI|52=20100305-20:40:17|56=QUANT|57=ADMIN|10=131|
8=FIX.4.2|9=55|35=0|34=161|49=QUANT|52=20100305-20:40:40.180|56=NESTI|10=053|
8=FIX.4.2|9=60|35=0|34=173|49=NESTI|52=20100305-20:41:18|56=QUANT|57=ADMIN|10=134|
8=FIX.4.2|9=55|35=0|34=162|49=QUANT|52=20100305-20:41:40.839|56=NESTI|10=066|
8=FIX.4.2|9=60|35=0|34=174|49=NESTI|52=20100305-20:42:19|56=QUANT|57=ADMIN|10=137|
8=FIX.4.2|9=55|35=0|34=163|49=QUANT|52=20100305-20:42:40.484|56=NESTI|10=064|
8=FIX.4.2|9=60|35=0|34=175|49=NESTI|52=20100305-20:43:20|56=QUANT|57=ADMIN|10=131|
8=FIX.4.2|9=55|35=0|34=164|49=QUANT|52=20100305-20:43:40.145|56=NESTI|10=060|
8=FIX.4.2|9=60|35=0|34=176|49=NESTI|52=20100305-20:44:21|56=QUANT|57=ADMIN|10=134|
8=FIX.4.2|9=55|35=0|34=165|49=QUANT|52=20100305-20:44:40.805|56=NESTI|10=065|
8=FIX.4.2|9=60|35=0|34=177|49=NESTI|52=20100305-20:45:22|56=QUANT|57=ADMIN|10=137|
8=FIX.4.2|9=55|35=0|34=166|49=QUANT|52=20100305-20:45:40.150|56=NESTI|10=060|
8=FIX.4.2|9=60|35=0|34=178|49=NESTI|52=20100305-20:46:23|56=QUANT|57=ADMIN|10=140|
8=FIX.4.2|9=55|35=0|34=167|49=QUANT|52=20100305-20:46:40.405|56=NESTI|10=065|
8=FIX.4.2|9=60|35=0|34=179|49=NESTI|52=20100305-20:47:24|56=QUANT|57=ADMIN|10=143|
8=FIX.4.2|9=55|35=0|34=168|49=QUANT|52=20100305-20:47:40.644|56=NESTI|10=072|
8=FIX.4.2|9=60|35=0|34=180|49=NESTI|52=20100305-20:48:25|56=QUANT|57=ADMIN|10=137|
8=FIX.4.2|9=55|35=0|34=169|49=QUANT|52=20100305-20:48:40.900|56=NESTI|10=069|
8=FIX.4.2|9=60|35=0|34=181|49=NESTI|52=20100305-20:49:26|56=QUANT|57=ADMIN|10=140|
8=FIX.4.2|9=55|35=0|34=170|49=QUANT|52=20100305-20:49:40.155|56=NESTI|10=064|
8=FIX.4.2|9=60|35=0|34=182|49=NESTI|52=20100305-20:50:27|56=QUANT|57=ADMIN|10=134|
8=FIX.4.2|9=55|35=0|34=171|49=QUANT|52=20100305-20:50:40.290|56=NESTI|10=057|
8=FIX.4.2|9=60|35=0|34=183|49=NESTI|52=20100305-20:51:28|56=QUANT|57=ADMIN|10=137|
8=FIX.4.2|9=55|35=0|34=172|49=QUANT|52=20100305-20:51:40.395|56=NESTI|10=065|
8=FIX.4.2|9=126|35=D|34=173|49=QUANT|52=20100305-20:52:22.626|56=NESTI|11=IAA0033|21=1|38=10|40=1|50=UA|54=1|55=VALE5.SA|60=20100305-17:52:22|10=062|
8=FIX.4.2|9=60|35=0|34=184|49=NESTI|52=20100305-20:52:29|56=QUANT|57=ADMIN|10=140|
8=FIX.4.2|9=203|35=8|34=185|49=NESTI|50=RAI|52=20100305-20:52:33|56=QUANT|57=UA|38=10|6=0.00000000|11=IAA0033|14=0|17=1100000082|20=0|31=0.00000000|32=0|37=BIAA0033QUANT|39=0|44=0.00000000|54=1|55=VALE5.SA|150=0|151=10|10=187|
8=FIX.4.2|9=55|35=0|34=174|49=QUANT|52=20100305-20:53:22.560|56=NESTI|10=063|
8=FIX.4.2|9=127|35=F|34=175|49=QUANT|52=20100305-20:53:33.824|56=NESTI|11=IAA0034|38=10|41=IAA0033|50=UA|54=1|55=VALE5.SA|60=20100305-17:53:33|10=217|
8=FIX.4.2|9=207|35=8|34=186|49=NESTI|52=20100305-20:53:33|56=QUANT|57=UA|38=10|6=0.00000000|11=IAA0034|14=0|17=1200000084|20=0|31=0.00000000|32=0|37=BIAA0034QUANT|39=6|44=0.00000000|54=1|55=VALE5.SA|150=6|41=IAA0033|151=10|10=135|
8=FIX.4.2|9=195|35=8|34=187|49=NESTI|52=20100305-20:54:16|56=QUANT|57=UA|38=10|6=0.00000000|11=IAA0033|14=0|17=1363000978|20=0|31=0.00000000|32=0|37=BIAA0033QUANT|39=4|44=0.00000000|54=1|55=VALE5.SA|150=4|151=0|10=059|
8=FIX.4.2|9=55|35=0|34=176|49=QUANT|52=20100305-20:54:33.680|56=NESTI|10=071|
8=FIX.4.2|9=60|35=0|34=188|49=NESTI|52=20100305-20:55:17|56=QUANT|57=ADMIN|10=144|
8=FIX.4.2|9=55|35=0|34=177|49=QUANT|52=20100305-20:55:33.755|56=NESTI|10=076|
8=FIX.4.2|9=60|35=0|34=189|49=NESTI|52=20100305-20:56:18|56=QUANT|57=ADMIN|10=147|
8=FIX.4.2|9=55|35=0|34=178|49=QUANT|52=20100305-20:56:33.800|56=NESTI|10=069|
8=FIX.4.2|9=60|35=0|34=190|49=NESTI|52=20100305-20:57:19|56=QUANT|57=ADMIN|10=141|
8=FIX.4.2|9=55|35=0|34=179|49=QUANT|52=20100305-20:57:33.845|56=NESTI|10=080|
8=FIX.4.2|9=60|35=0|34=191|49=NESTI|52=20100305-20:58:20|56=QUANT|57=ADMIN|10=135|
8=FIX.4.2|9=55|35=0|34=180|49=QUANT|52=20100305-20:58:33.890|56=NESTI|10=073|
8=FIX.4.2|9=60|35=0|34=192|49=NESTI|52=20100305-20:59:21|56=QUANT|57=ADMIN|10=138|
8=FIX.4.2|9=55|35=0|34=181|49=QUANT|52=20100305-20:59:33.935|56=NESTI|10=075|
8=FIX.4.2|9=60|35=0|34=193|49=NESTI|52=20100305-21:00:22|56=QUANT|57=ADMIN|10=127|
8=FIX.4.2|9=55|35=0|34=182|49=QUANT|52=20100305-21:00:33.965|56=NESTI|10=066|
8=FIX.4.2|9=60|35=0|34=194|49=NESTI|52=20100305-21:01:23|56=QUANT|57=ADMIN|10=130|
8=FIX.4.2|9=55|35=0|34=183|49=QUANT|52=20100305-21:01:33.995|56=NESTI|10=071|
8=FIX.4.2|9=60|35=0|34=195|49=NESTI|52=20100305-21:02:24|56=QUANT|57=ADMIN|10=133|
8=FIX.4.2|9=55|35=0|34=184|49=QUANT|52=20100305-21:02:33.025|56=NESTI|10=057|
8=FIX.4.2|9=60|35=0|34=196|49=NESTI|52=20100305-21:03:25|56=QUANT|57=ADMIN|10=136|
8=FIX.4.2|9=55|35=0|34=185|49=QUANT|52=20100305-21:03:33.055|56=NESTI|10=062|
8=FIX.4.2|9=60|35=0|34=197|49=NESTI|52=20100305-21:04:26|56=QUANT|57=ADMIN|10=139|
8=FIX.4.2|9=55|35=0|34=186|49=QUANT|52=20100305-21:04:33.085|56=NESTI|10=067|
8=FIX.4.2|9=60|35=0|34=198|49=NESTI|52=20100305-21:05:27|56=QUANT|57=ADMIN|10=142|
8=FIX.4.2|9=55|35=0|34=187|49=QUANT|52=20100305-21:05:33.100|56=NESTI|10=057|
8=FIX.4.2|9=60|35=0|34=199|49=NESTI|52=20100305-21:06:28|56=QUANT|57=ADMIN|10=145|
8=FIX.4.2|9=55|35=0|34=188|49=QUANT|52=20100305-21:06:33.130|56=NESTI|10=062|
8=FIX.4.2|9=60|35=0|34=200|49=NESTI|52=20100305-21:07:29|56=QUANT|57=ADMIN|10=130|
8=FIX.4.2|9=55|35=0|34=189|49=QUANT|52=20100305-21:07:33.160|56=NESTI|10=067|
8=FIX.4.2|9=60|35=0|34=201|49=NESTI|52=20100305-21:08:30|56=QUANT|57=ADMIN|10=124|
8=FIX.4.2|9=55|35=0|34=190|49=QUANT|52=20100305-21:08:33.190|56=NESTI|10=063|
8=FIX.4.2|9=60|35=0|34=202|49=NESTI|52=20100305-21:09:31|56=QUANT|57=ADMIN|10=127|
8=FIX.4.2|9=55|35=0|34=191|49=QUANT|52=20100305-21:09:33.220|56=NESTI|10=059|
8=FIX.4.2|9=60|35=0|34=203|49=NESTI|52=20100305-21:10:32|56=QUANT|57=ADMIN|10=121|
8=FIX.4.2|9=55|35=0|34=192|49=QUANT|52=20100305-21:10:33.235|56=NESTI|10=058|
8=FIX.4.2|9=60|35=0|34=204|49=NESTI|52=20100305-21:11:33|56=QUANT|57=ADMIN|10=124|
8=FIX.4.2|9=55|35=0|34=193|49=QUANT|52=20100305-21:11:33.234|56=NESTI|10=059|
8=FIX.4.2|9=55|35=0|34=194|49=QUANT|52=20100305-21:12:33.280|56=NESTI|10=062|
8=FIX.4.2|9=60|35=0|34=205|49=NESTI|52=20100305-21:12:34|56=QUANT|57=ADMIN|10=127|
8=FIX.4.2|9=55|35=0|34=195|49=QUANT|52=20100305-21:13:33.295|56=NESTI|10=070|
8=FIX.4.2|9=60|35=0|34=206|49=NESTI|52=20100305-21:13:35|56=QUANT|57=ADMIN|10=130|
8=FIX.4.2|9=55|35=0|34=196|49=QUANT|52=20100305-21:14:33.310|56=NESTI|10=060|
8=FIX.4.2|9=60|35=0|34=207|49=NESTI|52=20100305-21:14:36|56=QUANT|57=ADMIN|10=133|
8=FIX.4.2|9=55|35=0|34=197|49=QUANT|52=20100305-21:15:33.325|56=NESTI|10=068|
8=FIX.4.2|9=60|35=0|34=208|49=NESTI|52=20100305-21:15:37|56=QUANT|57=ADMIN|10=136|
8=FIX.4.2|9=55|35=0|34=198|49=QUANT|52=20100305-21:16:33.355|56=NESTI|10=073|
8=FIX.4.2|9=60|35=0|34=209|49=NESTI|52=20100305-21:16:38|56=QUANT|57=ADMIN|10=139|
8=FIX.4.2|9=55|35=0|34=199|49=QUANT|52=20100305-21:17:33.370|56=NESTI|10=072|
8=FIX.4.2|9=60|35=0|34=210|49=NESTI|52=20100305-21:17:39|56=QUANT|57=ADMIN|10=133|
8=FIX.4.2|9=55|35=0|34=200|49=QUANT|52=20100305-21:18:33.385|56=NESTI|10=062|
8=FIX.4.2|9=60|35=0|34=211|49=NESTI|52=20100305-21:18:40|56=QUANT|57=ADMIN|10=127|
8=FIX.4.2|9=55|35=0|34=201|49=QUANT|52=20100305-21:19:33.400|56=NESTI|10=052|
8=FIX.4.2|9=60|35=0|34=212|49=NESTI|52=20100305-21:19:41|56=QUANT|57=ADMIN|10=130|
8=FIX.4.2|9=55|35=0|34=202|49=QUANT|52=20100305-21:20:33.430|56=NESTI|10=048|
8=FIX.4.2|9=60|35=0|34=213|49=NESTI|52=20100305-21:20:42|56=QUANT|57=ADMIN|10=124|
8=FIX.4.2|9=55|35=0|34=203|49=QUANT|52=20100305-21:21:33.445|56=NESTI|10=056|
8=FIX.4.2|9=60|35=0|34=214|49=NESTI|52=20100305-21:21:43|56=QUANT|57=ADMIN|10=127|
8=FIX.4.2|9=55|35=0|34=204|49=QUANT|52=20100305-21:22:33.460|56=NESTI|10=055|
8=FIX.4.2|9=60|35=0|34=215|49=NESTI|52=20100305-21:22:44|56=QUANT|57=ADMIN|10=130|
8=FIX.4.2|9=55|35=0|34=205|49=QUANT|52=20100305-21:23:33.475|56=NESTI|10=063|
8=FIX.4.2|9=60|35=0|34=216|49=NESTI|52=20100305-21:23:45|56=QUANT|57=ADMIN|10=133|
8=FIX.4.2|9=55|35=0|34=206|49=QUANT|52=20100305-21:24:33.505|56=NESTI|10=059|
8=FIX.4.2|9=60|35=0|34=217|49=NESTI|52=20100305-21:24:46|56=QUANT|57=ADMIN|10=136|
8=FIX.4.2|9=55|35=0|34=207|49=QUANT|52=20100305-21:25:33.520|56=NESTI|10=058|
8=FIX.4.2|9=60|35=0|34=218|49=NESTI|52=20100305-21:25:47|56=QUANT|57=ADMIN|10=139|
8=FIX.4.2|9=55|35=0|34=208|49=QUANT|52=20100305-21:26:33.535|56=NESTI|10=066|
8=FIX.4.2|9=60|35=0|34=219|49=NESTI|52=20100305-21:26:48|56=QUANT|57=ADMIN|10=142|
8=FIX.4.2|9=55|35=0|34=209|49=QUANT|52=20100305-21:27:33.550|56=NESTI|10=065|
8=FIX.4.2|9=60|35=0|34=220|49=NESTI|52=20100305-21:27:49|56=QUANT|57=ADMIN|10=136|
8=FIX.4.2|9=55|35=0|34=210|49=QUANT|52=20100305-21:28:33.565|56=NESTI|10=064|
8=FIX.4.2|9=60|35=0|34=221|49=NESTI|52=20100305-21:28:50|56=QUANT|57=ADMIN|10=130|
8=FIX.4.2|9=55|35=0|34=211|49=QUANT|52=20100305-21:29:33.595|56=NESTI|10=069|
8=FIX.4.2|9=60|35=0|34=222|49=NESTI|52=20100305-21:29:51|56=QUANT|57=ADMIN|10=133|
8=FIX.4.2|9=55|35=0|34=212|49=QUANT|52=20100305-21:30:33.610|56=NESTI|10=050|
8=FIX.4.2|9=60|35=0|34=223|49=NESTI|52=20100305-21:30:52|56=QUANT|57=ADMIN|10=127|
8=FIX.4.2|9=55|35=0|34=213|49=QUANT|52=20100305-21:31:33.625|56=NESTI|10=058|
8=FIX.4.2|9=60|35=0|34=224|49=NESTI|52=20100305-21:31:53|56=QUANT|57=ADMIN|10=130|
8=FIX.4.2|9=55|35=0|34=214|49=QUANT|52=20100305-21:32:33.640|56=NESTI|10=057|
8=FIX.4.2|9=60|35=0|34=225|49=NESTI|52=20100305-21:32:54|56=QUANT|57=ADMIN|10=133|
8=FIX.4.2|9=55|35=0|34=215|49=QUANT|52=20100305-21:33:33.670|56=NESTI|10=062|
8=FIX.4.2|9=60|35=0|34=226|49=NESTI|52=20100305-21:33:55|56=QUANT|57=ADMIN|10=136|
8=FIX.4.2|9=55|35=0|34=216|49=QUANT|52=20100305-21:34:33.685|56=NESTI|10=070|
8=FIX.4.2|9=60|35=0|34=227|49=NESTI|52=20100305-21:34:56|56=QUANT|57=ADMIN|10=139|
8=FIX.4.2|9=55|35=0|34=217|49=QUANT|52=20100305-21:35:33.700|56=NESTI|10=060|
8=FIX.4.2|9=60|35=0|34=228|49=NESTI|52=20100305-21:35:57|56=QUANT|57=ADMIN|10=142|
8=FIX.4.2|9=55|35=0|34=218|49=QUANT|52=20100305-21:36:33.715|56=NESTI|10=068|
8=FIX.4.2|9=60|35=0|34=229|49=NESTI|52=20100305-21:36:58|56=QUANT|57=ADMIN|10=145|
8=FIX.4.2|9=55|35=0|34=219|49=QUANT|52=20100305-21:37:33.745|56=NESTI|10=073|
8=FIX.4.2|9=60|35=0|34=230|49=NESTI|52=20100305-21:37:59|56=QUANT|57=ADMIN|10=139|
8=FIX.4.2|9=55|35=0|34=220|49=QUANT|52=20100305-21:38:33.760|56=NESTI|10=063|
8=FIX.4.2|9=60|35=0|34=231|49=NESTI|52=20100305-21:39:00|56=QUANT|57=ADMIN|10=128|
8=FIX.4.2|9=55|35=0|34=221|49=QUANT|52=20100305-21:39:33.775|56=NESTI|10=071|
8=FIX.4.2|9=60|35=0|34=232|49=NESTI|52=20100305-21:40:01|56=QUANT|57=ADMIN|10=122|
8=FIX.4.2|9=55|35=0|34=222|49=QUANT|52=20100305-21:40:33.790|56=NESTI|10=061|
8=FIX.4.2|9=60|35=0|34=233|49=NESTI|52=20100305-21:41:02|56=QUANT|57=ADMIN|10=125|
8=FIX.4.2|9=55|35=0|34=223|49=QUANT|52=20100305-21:41:33.805|56=NESTI|10=060|
8=FIX.4.2|9=60|35=0|34=234|49=NESTI|52=20100305-21:42:03|56=QUANT|57=ADMIN|10=128|
8=FIX.4.2|9=55|35=0|34=224|49=QUANT|52=20100305-21:42:33.835|56=NESTI|10=065|
8=FIX.4.2|9=60|35=0|34=235|49=NESTI|52=20100305-21:43:04|56=QUANT|57=ADMIN|10=131|
8=FIX.4.2|9=55|35=0|34=225|49=QUANT|52=20100305-21:43:33.850|56=NESTI|10=064|
8=FIX.4.2|9=60|35=0|34=236|49=NESTI|52=20100305-21:44:05|56=QUANT|57=ADMIN|10=134|
8=FIX.4.2|9=55|35=0|34=226|49=QUANT|52=20100305-21:44:33.865|56=NESTI|10=072|
8=FIX.4.2|9=60|35=0|34=237|49=NESTI|52=20100305-21:45:06|56=QUANT|57=ADMIN|10=137|
8=FIX.4.2|9=55|35=0|34=227|49=QUANT|52=20100305-21:45:33.880|56=NESTI|10=071|
8=FIX.4.2|9=60|35=0|34=238|49=NESTI|52=20100305-21:46:07|56=QUANT|57=ADMIN|10=140|
8=FIX.4.2|9=55|35=0|34=228|49=QUANT|52=20100305-21:46:33.910|56=NESTI|10=067|
8=FIX.4.2|9=60|35=0|34=239|49=NESTI|52=20100305-21:47:08|56=QUANT|57=ADMIN|10=143|
8=FIX.4.2|9=55|35=0|34=229|49=QUANT|52=20100305-21:47:33.925|56=NESTI|10=075|
8=FIX.4.2|9=60|35=0|34=240|49=NESTI|52=20100305-21:48:09|56=QUANT|57=ADMIN|10=137|
8=FIX.4.2|9=55|35=0|34=230|49=QUANT|52=20100305-21:48:33.940|56=NESTI|10=065|
8=FIX.4.2|9=60|35=0|34=241|49=NESTI|52=20100305-21:49:10|56=QUANT|57=ADMIN|10=131|
8=FIX.4.2|9=55|35=0|34=231|49=QUANT|52=20100305-21:49:33.955|56=NESTI|10=073|
8=FIX.4.2|9=60|35=0|34=242|49=NESTI|52=20100305-21:50:11|56=QUANT|57=ADMIN|10=125|
8=FIX.4.2|9=55|35=0|34=232|49=QUANT|52=20100305-21:50:33.970|56=NESTI|10=063|
8=FIX.4.2|9=60|35=0|34=243|49=NESTI|52=20100305-21:51:12|56=QUANT|57=ADMIN|10=128|
8=FIX.4.2|9=55|35=0|34=233|49=QUANT|52=20100305-21:51:33.000|56=NESTI|10=049|
8=FIX.4.2|9=60|35=0|34=244|49=NESTI|52=20100305-21:52:13|56=QUANT|57=ADMIN|10=131|
8=FIX.4.2|9=55|35=0|34=234|49=QUANT|52=20100305-21:52:33.015|56=NESTI|10=057|
8=FIX.4.2|9=60|35=0|34=245|49=NESTI|52=20100305-21:53:14|56=QUANT|57=ADMIN|10=134|
8=FIX.4.2|9=55|35=0|34=235|49=QUANT|52=20100305-21:53:33.030|56=NESTI|10=056|
8=FIX.4.2|9=60|35=0|34=246|49=NESTI|52=20100305-21:54:15|56=QUANT|57=ADMIN|10=137|
8=FIX.4.2|9=55|35=0|34=236|49=QUANT|52=20100305-21:54:33.045|56=NESTI|10=064|
8=FIX.4.2|9=60|35=0|34=247|49=NESTI|52=20100305-21:55:16|56=QUANT|57=ADMIN|10=140|
8=FIX.4.2|9=55|35=0|34=237|49=QUANT|52=20100305-21:55:33.075|56=NESTI|10=069|
8=FIX.4.2|9=60|35=0|34=248|49=NESTI|52=20100305-21:56:17|56=QUANT|57=ADMIN|10=143|
8=FIX.4.2|9=55|35=0|34=238|49=QUANT|52=20100305-21:56:33.090|56=NESTI|10=068|
8=FIX.4.2|9=60|35=0|34=249|49=NESTI|52=20100305-21:57:18|56=QUANT|57=ADMIN|10=146|
8=FIX.4.2|9=55|35=0|34=239|49=QUANT|52=20100305-21:57:33.105|56=NESTI|10=067|
8=FIX.4.2|9=60|35=0|34=250|49=NESTI|52=20100305-21:58:19|56=QUANT|57=ADMIN|10=140|
8=FIX.4.2|9=55|35=0|34=240|49=QUANT|52=20100305-21:58:33.120|56=NESTI|10=057|
8=FIX.4.2|9=60|35=0|34=251|49=NESTI|52=20100305-21:59:20|56=QUANT|57=ADMIN|10=134|
8=FIX.4.2|9=55|35=0|34=241|49=QUANT|52=20100305-21:59:33.150|56=NESTI|10=062|
8=FIX.4.2|9=60|35=0|34=252|49=NESTI|52=20100305-22:00:21|56=QUANT|57=ADMIN|10=123|
8=FIX.4.2|9=55|35=0|34=242|49=QUANT|52=20100305-22:00:33.165|56=NESTI|10=056|
8=FIX.4.2|9=60|35=0|34=253|49=NESTI|52=20100305-22:01:22|56=QUANT|57=ADMIN|10=126|
8=FIX.4.2|9=55|35=0|34=243|49=QUANT|52=20100305-22:01:33.180|56=NESTI|10=055|
8=FIX.4.2|9=60|35=0|34=254|49=NESTI|52=20100305-22:02:23|56=QUANT|57=ADMIN|10=129|
8=FIX.4.2|9=55|35=0|34=244|49=QUANT|52=20100305-22:02:33.195|56=NESTI|10=063|
8=FIX.4.2|9=60|35=0|34=255|49=NESTI|52=20100305-22:03:24|56=QUANT|57=ADMIN|10=132|
8=FIX.4.2|9=55|35=0|34=245|49=QUANT|52=20100305-22:03:33.210|56=NESTI|10=053|
8=FIX.4.2|9=60|35=0|34=256|49=NESTI|52=20100305-22:04:25|56=QUANT|57=ADMIN|10=135|
8=FIX.4.2|9=55|35=0|34=246|49=QUANT|52=20100305-22:04:33.240|56=NESTI|10=058|
8=FIX.4.2|9=60|35=0|34=257|49=NESTI|52=20100305-22:05:26|56=QUANT|57=ADMIN|10=138|
8=FIX.4.2|9=55|35=0|34=247|49=QUANT|52=20100305-22:05:33.255|56=NESTI|10=066|
8=FIX.4.2|9=60|35=0|34=258|49=NESTI|52=20100305-22:06:27|56=QUANT|57=ADMIN|10=141|
8=FIX.4.2|9=55|35=0|34=248|49=QUANT|52=20100305-22:06:33.270|56=NESTI|10=065|
8=FIX.4.2|9=60|35=0|34=259|49=NESTI|52=20100305-22:07:28|56=QUANT|57=ADMIN|10=144|
8=FIX.4.2|9=55|35=0|34=249|49=QUANT|52=20100305-22:07:33.285|56=NESTI|10=073|
8=FIX.4.2|9=60|35=0|34=260|49=NESTI|52=20100305-22:08:29|56=QUANT|57=ADMIN|10=138|
8=FIX.4.2|9=55|35=0|34=250|49=QUANT|52=20100305-22:08:33.315|56=NESTI|10=060|
8=FIX.4.2|9=60|35=0|34=261|49=NESTI|52=20100305-22:09:30|56=QUANT|57=ADMIN|10=132|
8=FIX.4.2|9=55|35=0|34=251|49=QUANT|52=20100305-22:09:33.330|56=NESTI|10=059|
8=FIX.4.2|9=60|35=0|34=262|49=NESTI|52=20100305-22:10:31|56=QUANT|57=ADMIN|10=126|
8=FIX.4.2|9=55|35=0|34=252|49=QUANT|52=20100305-22:10:33.345|56=NESTI|10=058|
8=FIX.4.2|9=60|35=0|34=263|49=NESTI|52=20100305-22:11:32|56=QUANT|57=ADMIN|10=129|
8=FIX.4.2|9=55|35=0|34=253|49=QUANT|52=20100305-22:11:33.360|56=NESTI|10=057|
8=FIX.4.2|9=60|35=0|34=264|49=NESTI|52=20100305-22:12:33|56=QUANT|57=ADMIN|10=132|
8=FIX.4.2|9=55|35=0|34=254|49=QUANT|52=20100305-22:12:33.359|56=NESTI|10=067|
8=FIX.4.2|9=55|35=0|34=255|49=QUANT|52=20100305-22:13:33.405|56=NESTI|10=061|
8=FIX.4.2|9=60|35=0|34=265|49=NESTI|52=20100305-22:13:34|56=QUANT|57=ADMIN|10=135|
8=FIX.4.2|9=55|35=0|34=256|49=QUANT|52=20100305-22:14:33.420|56=NESTI|10=060|
8=FIX.4.2|9=60|35=0|34=266|49=NESTI|52=20100305-22:14:35|56=QUANT|57=ADMIN|10=138|
8=FIX.4.2|9=55|35=0|34=257|49=QUANT|52=20100305-22:15:33.435|56=NESTI|10=068|
8=FIX.4.2|9=60|35=0|34=267|49=NESTI|52=20100305-22:15:36|56=QUANT|57=ADMIN|10=141|
8=FIX.4.2|9=55|35=0|34=258|49=QUANT|52=20100305-22:16:33.450|56=NESTI|10=067|
8=FIX.4.2|9=60|35=0|34=268|49=NESTI|52=20100305-22:16:37|56=QUANT|57=ADMIN|10=144|
8=FIX.4.2|9=55|35=0|34=259|49=QUANT|52=20100305-22:17:33.480|56=NESTI|10=072|
8=FIX.4.2|9=60|35=0|34=269|49=NESTI|52=20100305-22:17:38|56=QUANT|57=ADMIN|10=147|
8=FIX.4.2|9=55|35=0|34=260|49=QUANT|52=20100305-22:18:33.495|56=NESTI|10=071|
8=FIX.4.2|9=60|35=0|34=270|49=NESTI|52=20100305-22:18:39|56=QUANT|57=ADMIN|10=141|
8=FIX.4.2|9=55|35=0|34=261|49=QUANT|52=20100305-22:19:33.510|56=NESTI|10=061|
8=FIX.4.2|9=60|35=0|34=271|49=NESTI|52=20100305-22:19:40|56=QUANT|57=ADMIN|10=135|
8=FIX.4.2|9=55|35=0|34=262|49=QUANT|52=20100305-22:20:33.525|56=NESTI|10=060|
8=FIX.4.2|9=60|35=0|34=272|49=NESTI|52=20100305-22:20:41|56=QUANT|57=ADMIN|10=129|
8=FIX.4.2|9=55|35=0|34=263|49=QUANT|52=20100305-22:21:33.555|56=NESTI|10=065|
8=FIX.4.2|9=60|35=0|34=273|49=NESTI|52=20100305-22:21:42|56=QUANT|57=ADMIN|10=132|
8=FIX.4.2|9=55|35=0|34=264|49=QUANT|52=20100305-22:22:33.570|56=NESTI|10=064|
8=FIX.4.2|9=60|35=0|34=274|49=NESTI|52=20100305-22:22:43|56=QUANT|57=ADMIN|10=135|
8=FIX.4.2|9=55|35=0|34=265|49=QUANT|52=20100305-22:23:33.585|56=NESTI|10=072|
8=FIX.4.2|9=60|35=0|34=275|49=NESTI|52=20100305-22:23:44|56=QUANT|57=ADMIN|10=138|
8=FIX.4.2|9=55|35=0|34=266|49=QUANT|52=20100305-22:24:33.600|56=NESTI|10=062|
8=FIX.4.2|9=60|35=0|34=276|49=NESTI|52=20100305-22:24:45|56=QUANT|57=ADMIN|10=141|
8=FIX.4.2|9=55|35=0|34=267|49=QUANT|52=20100305-22:25:33.615|56=NESTI|10=070|
8=FIX.4.2|9=60|35=0|34=277|49=NESTI|52=20100305-22:25:46|56=QUANT|57=ADMIN|10=144|
8=FIX.4.2|9=55|35=0|34=268|49=QUANT|52=20100305-22:26:33.645|56=NESTI|10=075|
8=FIX.4.2|9=60|35=0|34=278|49=NESTI|52=20100305-22:26:47|56=QUANT|57=ADMIN|10=147|
8=FIX.4.2|9=55|35=0|34=269|49=QUANT|52=20100305-22:27:33.660|56=NESTI|10=074|
8=FIX.4.2|9=60|35=0|34=279|49=NESTI|52=20100305-22:27:48|56=QUANT|57=ADMIN|10=150|
8=FIX.4.2|9=55|35=0|34=270|49=QUANT|52=20100305-22:28:33.675|56=NESTI|10=073|
8=FIX.4.2|9=60|35=0|34=280|49=NESTI|52=20100305-22:28:49|56=QUANT|57=ADMIN|10=144|
8=FIX.4.2|9=55|35=0|34=271|49=QUANT|52=20100305-22:29:33.690|56=NESTI|10=072|
8=FIX.4.2|9=60|35=0|34=281|49=NESTI|52=20100305-22:29:50|56=QUANT|57=ADMIN|10=138|
8=FIX.4.2|9=55|35=0|34=272|49=QUANT|52=20100305-22:30:33.720|56=NESTI|10=059|
8=FIX.4.2|9=60|35=0|34=282|49=NESTI|52=20100305-22:30:51|56=QUANT|57=ADMIN|10=132|
8=FIX.4.2|9=55|35=0|34=273|49=QUANT|52=20100305-22:31:33.735|56=NESTI|10=067|
8=FIX.4.2|9=60|35=0|34=283|49=NESTI|52=20100305-22:31:52|56=QUANT|57=ADMIN|10=135|
8=FIX.4.2|9=55|35=0|34=274|49=QUANT|52=20100305-22:32:33.750|56=NESTI|10=066|
8=FIX.4.2|9=60|35=0|34=284|49=NESTI|52=20100305-22:32:53|56=QUANT|57=ADMIN|10=138|
8=FIX.4.2|9=55|35=0|34=275|49=QUANT|52=20100305-22:33:33.765|56=NESTI|10=074|
8=FIX.4.2|9=60|35=0|34=285|49=NESTI|52=20100305-22:33:54|56=QUANT|57=ADMIN|10=141|
8=FIX.4.2|9=55|35=0|34=276|49=QUANT|52=20100305-22:34:33.795|56=NESTI|10=079|
8=FIX.4.2|9=60|35=0|34=286|49=NESTI|52=20100305-22:34:55|56=QUANT|57=ADMIN|10=144|
8=FIX.4.2|9=55|35=0|34=277|49=QUANT|52=20100305-22:35:33.810|56=NESTI|10=069|
8=FIX.4.2|9=60|35=0|34=287|49=NESTI|52=20100305-22:35:56|56=QUANT|57=ADMIN|10=147|
8=FIX.4.2|9=55|35=0|34=278|49=QUANT|52=20100305-22:36:33.825|56=NESTI|10=077|
8=FIX.4.2|9=60|35=0|34=288|49=NESTI|52=20100305-22:36:57|56=QUANT|57=ADMIN|10=150|
8=FIX.4.2|9=55|35=0|34=279|49=QUANT|52=20100305-22:37:33.840|56=NESTI|10=076|
8=FIX.4.2|9=60|35=0|34=289|49=NESTI|52=20100305-22:37:58|56=QUANT|57=ADMIN|10=153|
8=FIX.4.2|9=55|35=0|34=280|49=QUANT|52=20100305-22:38:33.855|56=NESTI|10=075|
8=FIX.4.2|9=60|35=0|34=290|49=NESTI|52=20100305-22:38:59|56=QUANT|57=ADMIN|10=147|
8=FIX.4.2|9=55|35=0|34=281|49=QUANT|52=20100305-22:39:33.885|56=NESTI|10=080|
8=FIX.4.2|9=125|35=D|34=282|49=QUANT|52=20100305-22:39:57.182|56=NESTI|11=IAA0035|21=1|38=5|40=1|50=UA|54=1|55=VALE5.SA|60=20100305-19:39:57|10=047|
8=FIX.4.2|9=60|35=0|34=291|49=NESTI|52=20100305-22:40:00|56=QUANT|57=ADMIN|10=127|
8=FIX.4.2|9=201|35=8|34=292|49=NESTI|50=RAI|52=20100305-22:40:15|56=QUANT|57=UA|38=5|6=0.00000000|11=IAA0035|14=0|17=1100000087|20=0|31=0.00000000|32=0|37=BIAA0035QUANT|39=0|44=0.00000000|54=1|55=VALE5.SA|150=0|151=5|10=104|
8=FIX.4.2|9=55|35=0|34=283|49=QUANT|52=20100305-22:40:57.900|56=NESTI|10=068|
8=FIX.4.2|9=60|35=0|34=293|49=NESTI|52=20100305-22:41:16|56=QUANT|57=ADMIN|10=137|
8=FIX.4.2|9=55|35=0|34=284|49=QUANT|52=20100305-22:41:57.930|56=NESTI|10=073|
8=FIX.4.2|9=60|35=0|34=294|49=NESTI|52=20100305-22:42:17|56=QUANT|57=ADMIN|10=140|
8=FIX.4.2|9=55|35=0|34=285|49=QUANT|52=20100305-22:42:57.945|56=NESTI|10=081|
8=FIX.4.2|9=60|35=0|34=295|49=NESTI|52=20100305-22:43:18|56=QUANT|57=ADMIN|10=143|
8=FIX.4.2|9=55|35=0|34=286|49=QUANT|52=20100305-22:43:57.960|56=NESTI|10=080|
8=FIX.4.2|9=60|35=0|34=296|49=NESTI|52=20100305-22:44:19|56=QUANT|57=ADMIN|10=146|
8=FIX.4.2|9=55|35=0|34=287|49=QUANT|52=20100305-22:44:57.975|56=NESTI|10=088|
8=FIX.4.2|9=60|35=0|34=297|49=NESTI|52=20100305-22:45:20|56=QUANT|57=ADMIN|10=140|
8=FIX.4.2|9=55|35=0|34=288|49=QUANT|52=20100305-22:45:57.005|56=NESTI|10=074|
8=FIX.4.2|9=60|35=0|34=298|49=NESTI|52=20100305-22:46:21|56=QUANT|57=ADMIN|10=143|
8=FIX.4.2|9=55|35=0|34=289|49=QUANT|52=20100305-22:46:57.020|56=NESTI|10=073|
8=FIX.4.2|9=60|35=0|34=299|49=NESTI|52=20100305-22:47:22|56=QUANT|57=ADMIN|10=146|
8=FIX.4.2|9=55|35=0|34=290|49=QUANT|52=20100305-22:47:57.035|56=NESTI|10=072|
8=FIX.4.2|9=60|35=0|34=300|49=NESTI|52=20100305-22:48:23|56=QUANT|57=ADMIN|10=131|
8=FIX.4.2|9=55|35=0|34=291|49=QUANT|52=20100305-22:48:57.050|56=NESTI|10=071|
8=FIX.4.2|9=60|35=0|34=301|49=NESTI|52=20100305-22:49:24|56=QUANT|57=ADMIN|10=134|
8=FIX.4.2|9=55|35=0|34=292|49=QUANT|52=20100305-22:49:57.065|56=NESTI|10=079|
8=FIX.4.2|9=60|35=0|34=302|49=NESTI|52=20100305-22:50:25|56=QUANT|57=ADMIN|10=128|
8=FIX.4.2|9=55|35=0|34=293|49=QUANT|52=20100305-22:50:57.095|56=NESTI|10=075|
8=FIX.4.2|9=60|35=0|34=303|49=NESTI|52=20100305-22:51:26|56=QUANT|57=ADMIN|10=131|
8=FIX.4.2|9=55|35=0|34=294|49=QUANT|52=20100305-22:51:57.110|56=NESTI|10=065|
8=FIX.4.2|9=60|35=0|34=304|49=NESTI|52=20100305-22:52:27|56=QUANT|57=ADMIN|10=134|
8=FIX.4.2|9=55|35=0|34=295|49=QUANT|52=20100305-22:52:57.125|56=NESTI|10=073|
8=FIX.4.2|9=60|35=0|34=305|49=NESTI|52=20100305-22:53:28|56=QUANT|57=ADMIN|10=137|
8=FIX.4.2|9=55|35=0|34=296|49=QUANT|52=20100305-22:53:57.140|56=NESTI|10=072|
8=FIX.4.2|9=60|35=0|34=306|49=NESTI|52=20100305-22:54:29|56=QUANT|57=ADMIN|10=140|
8=FIX.4.2|9=55|35=0|34=297|49=QUANT|52=20100305-22:54:57.170|56=NESTI|10=077|
8=FIX.4.2|9=60|35=0|34=307|49=NESTI|52=20100305-22:55:30|56=QUANT|57=ADMIN|10=134|
8=FIX.4.2|9=55|35=0|34=298|49=QUANT|52=20100305-22:55:57.185|56=NESTI|10=085|
8=FIX.4.2|9=60|35=0|34=308|49=NESTI|52=20100305-22:56:31|56=QUANT|57=ADMIN|10=137|
8=FIX.4.2|9=55|35=0|34=299|49=QUANT|52=20100305-22:56:57.200|56=NESTI|10=075|
8=FIX.4.2|9=60|35=0|34=309|49=NESTI|52=20100305-22:57:32|56=QUANT|57=ADMIN|10=140|
8=FIX.4.2|9=55|35=0|34=300|49=QUANT|52=20100305-22:57:57.215|56=NESTI|10=065|
8=FIX.4.2|9=60|35=0|34=310|49=NESTI|52=20100305-22:58:33|56=QUANT|57=ADMIN|10=134|
8=FIX.4.2|9=55|35=0|34=301|49=QUANT|52=20100305-22:58:57.245|56=NESTI|10=070|
8=FIX.4.2|9=60|35=0|34=311|49=NESTI|52=20100305-22:59:34|56=QUANT|57=ADMIN|10=137|
8=FIX.4.2|9=55|35=0|34=302|49=QUANT|52=20100305-22:59:57.260|56=NESTI|10=069|
8=FIX.4.2|9=60|35=0|34=312|49=NESTI|52=20100305-23:00:35|56=QUANT|57=ADMIN|10=126|
8=FIX.4.2|9=55|35=0|34=303|49=QUANT|52=20100305-23:00:57.275|56=NESTI|10=063|
8=FIX.4.2|9=60|35=0|34=313|49=NESTI|52=20100305-23:01:36|56=QUANT|57=ADMIN|10=129|
8=FIX.4.2|9=55|35=0|34=304|49=QUANT|52=20100305-23:01:57.290|56=NESTI|10=062|
8=FIX.4.2|9=60|35=0|34=314|49=NESTI|52=20100305-23:02:37|56=QUANT|57=ADMIN|10=132|
8=FIX.4.2|9=55|35=0|34=305|49=QUANT|52=20100305-23:02:57.305|56=NESTI|10=061|
8=FIX.4.2|9=60|35=0|34=315|49=NESTI|52=20100305-23:03:38|56=QUANT|57=ADMIN|10=135|
8=FIX.4.2|9=55|35=0|34=306|49=QUANT|52=20100305-23:03:57.335|56=NESTI|10=066|
8=FIX.4.2|9=60|35=0|34=316|49=NESTI|52=20100305-23:04:39|56=QUANT|57=ADMIN|10=138|
8=FIX.4.2|9=55|35=0|34=307|49=QUANT|52=20100305-23:04:57.350|56=NESTI|10=065|
8=FIX.4.2|9=60|35=0|34=317|49=NESTI|52=20100305-23:05:40|56=QUANT|57=ADMIN|10=132|
8=FIX.4.2|9=55|35=0|34=308|49=QUANT|52=20100305-23:05:57.365|56=NESTI|10=073|
8=FIX.4.2|9=126|35=D|34=309|49=QUANT|52=20100305-23:06:12.068|56=NESTI|11=IAA0036|21=1|38=13|40=1|50=UA|54=1|55=VALE5.SA|60=20100305-20:06:12|10=062|
8=FIX.4.2|9=60|35=0|34=318|49=NESTI|52=20100305-23:06:41|56=QUANT|57=ADMIN|10=135|
8=FIX.4.2|9=55|35=0|34=310|49=QUANT|52=20100305-23:07:12.395|56=NESTI|10=062|
8=FIX.4.2|9=60|35=0|34=319|49=NESTI|52=20100305-23:07:42|56=QUANT|57=ADMIN|10=138|
8=FIX.4.2|9=55|35=0|34=311|49=QUANT|52=20100305-23:08:12.410|56=NESTI|10=052|
8=FIX.4.2|9=60|35=0|34=320|49=NESTI|52=20100305-23:08:43|56=QUANT|57=ADMIN|10=132|
8=FIX.4.2|9=55|35=0|34=312|49=QUANT|52=20100305-23:09:12.425|56=NESTI|10=060|
8=FIX.4.2|9=60|35=0|34=321|49=NESTI|52=20100305-23:09:44|56=QUANT|57=ADMIN|10=135|
8=FIX.4.2|9=65|35=A|34=1|49=QUANT|52=20100308-13:16:22.854|56=NESTI|98=0|108=60|10=012|
8=FIX.4.2|9=70|35=A|34=1|49=NESTI|52=20100308-13:16:17|56=QUANT|57=ADMIN|98=0|108=60|10=080|
8=FIX.4.2|9=80|35=1|34=2|49=NESTI|52=20100308-13:16:17|56=QUANT|57=ADMIN|112=1268054177.764082|10=106|
8=FIX.4.2|9=75|35=0|34=2|49=QUANT|52=20100308-13:16:22.995|56=NESTI|112=1268054177.764082|10=043|
8=FIX.4.2|9=123|35=D|34=3|49=QUANT|52=20100308-13:16:38.072|56=NESTI|11=IAA0001|21=1|38=5|40=1|50=UA|54=1|55=PETR4.SA|60=20100308-10:16:38|10=190|
8=FIX.4.2|9=58|35=0|34=3|49=NESTI|52=20100308-13:17:18|56=QUANT|57=ADMIN|10=045|
8=FIX.4.2|9=53|35=0|34=4|49=QUANT|52=20100308-13:17:38.065|56=NESTI|10=225|
8=FIX.4.2|9=58|35=0|34=4|49=NESTI|52=20100308-13:18:19|56=QUANT|57=ADMIN|10=048|
8=FIX.4.2|9=53|35=0|34=5|49=QUANT|52=20100308-13:18:38.215|56=NESTI|10=224|
8=FIX.4.2|9=58|35=0|34=5|49=NESTI|52=20100308-13:19:20|56=QUANT|57=ADMIN|10=042|
8=FIX.4.2|9=53|35=0|34=6|49=QUANT|52=20100308-13:19:38.364|56=NESTI|10=231|
8=FIX.4.2|9=58|35=0|34=6|49=NESTI|52=20100308-13:20:21|56=QUANT|57=ADMIN|10=036|
8=FIX.4.2|9=53|35=0|34=7|49=QUANT|52=20100308-13:20:38.530|56=NESTI|10=219|
8=FIX.4.2|9=58|35=0|34=7|49=NESTI|52=20100308-13:21:22|56=QUANT|57=ADMIN|10=039|
8=FIX.4.2|9=53|35=0|34=8|49=QUANT|52=20100308-13:21:38.605|56=NESTI|10=224|
8=FIX.4.2|9=58|35=0|34=8|49=NESTI|52=20100308-13:22:23|56=QUANT|57=ADMIN|10=042|
8=FIX.4.2|9=53|35=0|34=9|49=QUANT|52=20100308-13:22:38.681|56=NESTI|10=230|
8=FIX.4.2|9=58|35=0|34=9|49=NESTI|52=20100308-13:23:24|56=QUANT|57=ADMIN|10=045|
8=FIX.4.2|9=54|35=0|34=10|49=QUANT|52=20100308-13:23:38.727|56=NESTI|10=017|
8=FIX.4.2|9=59|35=0|34=10|49=NESTI|52=20100308-13:24:25|56=QUANT|57=ADMIN|10=088|
8=FIX.4.2|9=54|35=0|34=11|49=QUANT|52=20100308-13:24:38.766|56=NESTI|10=022|
8=FIX.4.2|9=59|35=0|34=11|49=NESTI|52=20100308-13:25:26|56=QUANT|57=ADMIN|10=091|
8=FIX.4.2|9=54|35=0|34=12|49=QUANT|52=20100308-13:25:38.805|56=NESTI|10=018|
8=FIX.4.2|9=59|35=0|34=12|49=NESTI|52=20100308-13:26:27|56=QUANT|57=ADMIN|10=094|
8=FIX.4.2|9=54|35=0|34=13|49=QUANT|52=20100308-13:26:38.844|56=NESTI|10=023|
8=FIX.4.2|9=59|35=0|34=13|49=NESTI|52=20100308-13:27:28|56=QUANT|57=ADMIN|10=097|
8=FIX.4.2|9=54|35=0|34=14|49=QUANT|52=20100308-13:27:38.898|56=NESTI|10=034|
8=FIX.4.2|9=200|35=8|34=14|49=NESTI|50=RAI|52=20100308-13:28:07|56=QUANT|57=UA|38=5|6=0.00000000|11=IAA0001|14=0|17=1100000001|20=0|31=0.00000000|32=0|37=BIAA0001QUANT|39=0|44=0.00000000|54=1|55=PETR4.SA|150=0|151=5|10=047|
8=FIX.4.2|9=54|35=0|34=15|49=QUANT|52=20100308-13:28:38.934|56=NESTI|10=027|
8=FIX.4.2|9=59|35=0|34=15|49=NESTI|52=20100308-13:29:08|56=QUANT|57=ADMIN|10=099|
8=FIX.4.2|9=54|35=0|34=16|49=QUANT|52=20100308-13:29:38.950|56=NESTI|10=027|
8=FIX.4.2|9=59|35=0|34=16|49=NESTI|52=20100308-13:30:09|56=QUANT|57=ADMIN|10=093|
8=FIX.4.2|9=54|35=0|34=17|49=QUANT|52=20100308-13:30:38.967|56=NESTI|10=028|
8=FIX.4.2|9=59|35=0|34=17|49=NESTI|52=20100308-13:31:10|56=QUANT|57=ADMIN|10=087|
8=FIX.4.2|9=54|35=0|34=18|49=QUANT|52=20100308-13:31:38.983|56=NESTI|10=028|
8=FIX.4.2|9=59|35=0|34=18|49=NESTI|52=20100308-13:32:11|56=QUANT|57=ADMIN|10=090|
8=FIX.4.2|9=54|35=0|34=19|49=QUANT|52=20100308-13:32:38.999|56=NESTI|10=037|
8=FIX.4.2|9=59|35=0|34=19|49=NESTI|52=20100308-13:33:12|56=QUANT|57=ADMIN|10=093|
8=FIX.4.2|9=54|35=0|34=20|49=QUANT|52=20100308-13:33:38.009|56=NESTI|10=012|
8=FIX.4.2|9=59|35=0|34=20|49=NESTI|52=20100308-13:34:13|56=QUANT|57=ADMIN|10=087|
8=FIX.4.2|9=54|35=0|34=21|49=QUANT|52=20100308-13:34:38.017|56=NESTI|10=013|
8=FIX.4.2|9=59|35=0|34=21|49=NESTI|52=20100308-13:35:14|56=QUANT|57=ADMIN|10=090|
8=FIX.4.2|9=54|35=0|34=22|49=QUANT|52=20100308-13:35:38.025|56=NESTI|10=014|
8=FIX.4.2|9=59|35=0|34=22|49=NESTI|52=20100308-13:36:15|56=QUANT|57=ADMIN|10=093|
8=FIX.4.2|9=54|35=0|34=23|49=QUANT|52=20100308-13:36:38.034|56=NESTI|10=016|
8=FIX.4.2|9=59|35=0|34=23|49=NESTI|52=20100308-13:37:16|56=QUANT|57=ADMIN|10=096|
8=FIX.4.2|9=54|35=0|34=24|49=QUANT|52=20100308-13:37:38.042|56=NESTI|10=017|
8=FIX.4.2|9=59|35=0|34=24|49=NESTI|52=20100308-13:38:17|56=QUANT|57=ADMIN|10=099|
8=FIX.4.2|9=54|35=0|34=25|49=QUANT|52=20100308-13:38:38.048|56=NESTI|10=025|
8=FIX.4.2|9=59|35=0|34=25|49=NESTI|52=20100308-13:39:18|56=QUANT|57=ADMIN|10=102|
8=FIX.4.2|9=54|35=0|34=26|49=QUANT|52=20100308-13:39:38.054|56=NESTI|10=024|
8=FIX.4.2|9=59|35=0|34=26|49=NESTI|52=20100308-13:40:19|56=QUANT|57=ADMIN|10=096|
8=FIX.4.2|9=54|35=0|34=27|49=QUANT|52=20100308-13:40:38.159|56=NESTI|10=023|
8=FIX.4.2|9=59|35=0|34=27|49=NESTI|52=20100308-13:41:20|56=QUANT|57=ADMIN|10=090|
8=FIX.4.2|9=54|35=0|34=28|49=QUANT|52=20100308-13:41:38.324|56=NESTI|10=019|
8=FIX.4.2|9=59|35=0|34=28|49=NESTI|52=20100308-13:42:21|56=QUANT|57=ADMIN|10=093|
8=FIX.4.2|9=54|35=0|34=29|49=QUANT|52=20100308-13:42:38.489|56=NESTI|10=033|
8=FIX.4.2|9=59|35=0|34=29|49=NESTI|52=20100308-13:43:22|56=QUANT|57=ADMIN|10=096|
8=FIX.4.2|9=54|35=0|34=30|49=QUANT|52=20100308-13:43:38.670|56=NESTI|10=018|
8=FIX.4.2|9=59|35=0|34=30|49=NESTI|52=20100308-13:44:23|56=QUANT|57=ADMIN|10=090|
8=FIX.4.2|9=54|35=0|34=31|49=QUANT|52=20100308-13:44:38.835|56=NESTI|10=023|
8=FIX.4.2|9=59|35=0|34=31|49=NESTI|52=20100308-13:45:24|56=QUANT|57=ADMIN|10=093|
8=FIX.4.2|9=54|35=0|34=32|49=QUANT|52=20100308-13:45:38.895|56=NESTI|10=031|
8=FIX.4.2|9=59|35=0|34=32|49=NESTI|52=20100308-13:46:25|56=QUANT|57=ADMIN|10=096|
8=FIX.4.2|9=54|35=0|34=33|49=QUANT|52=20100308-13:46:38.910|56=NESTI|10=021|
8=FIX.4.2|9=59|35=0|34=33|49=NESTI|52=20100308-13:47:26|56=QUANT|57=ADMIN|10=099|
8=FIX.4.2|9=54|35=0|34=34|49=QUANT|52=20100308-13:47:38.925|56=NESTI|10=029|
8=FIX.4.2|9=59|35=0|34=34|49=NESTI|52=20100308-13:48:27|56=QUANT|57=ADMIN|10=102|
8=FIX.4.2|9=54|35=0|34=35|49=QUANT|52=20100308-13:48:38.971|56=NESTI|10=032|
8=FIX.4.2|9=124|35=D|34=36|49=QUANT|52=20100308-13:48:46.221|56=NESTI|11=IAA0002|21=1|38=5|40=1|50=UA|54=1|55=VALE5.SA|60=20100308-10:48:46|10=232|
8=FIX.4.2|9=200|35=8|34=35|49=NESTI|50=RAI|52=20100308-13:48:45|56=QUANT|57=UA|38=5|6=0.00000000|11=IAA0002|14=0|17=1100000003|20=0|31=0.00000000|32=0|37=BIAA0002QUANT|39=0|44=0.00000000|54=1|55=VALE5.SA|150=0|151=5|10=040|
8=FIX.4.2|9=54|35=0|34=37|49=QUANT|52=20100308-13:49:46.986|56=NESTI|10=040|
8=FIX.4.2|9=59|35=0|34=36|49=NESTI|52=20100308-13:49:46|56=QUANT|57=ADMIN|10=106|
8=FIX.4.2|9=54|35=0|34=38|49=QUANT|52=20100308-13:50:46.002|56=NESTI|10=012|
8=FIX.4.2|9=59|35=0|34=37|49=NESTI|52=20100308-13:50:47|56=QUANT|57=ADMIN|10=100|
8=FIX.4.2|9=54|35=0|34=39|49=QUANT|52=20100308-13:51:46.019|56=NESTI|10=022|
8=FIX.4.2|9=59|35=0|34=38|49=NESTI|52=20100308-13:51:48|56=QUANT|57=ADMIN|10=103|
8=FIX.4.2|9=54|35=0|34=40|49=QUANT|52=20100308-13:52:46.020|56=NESTI|10=007|
8=FIX.4.2|9=59|35=0|34=39|49=NESTI|52=20100308-13:52:49|56=QUANT|57=ADMIN|10=106|
8=FIX.4.2|9=54|35=0|34=41|49=QUANT|52=20100308-13:53:46.021|56=NESTI|10=010|
8=FIX.4.2|9=59|35=0|34=40|49=NESTI|52=20100308-13:53:50|56=QUANT|57=ADMIN|10=091|
8=FIX.4.2|9=54|35=0|34=42|49=QUANT|52=20100308-13:54:46.022|56=NESTI|10=013|
8=FIX.4.2|9=59|35=0|34=41|49=NESTI|52=20100308-13:54:51|56=QUANT|57=ADMIN|10=094|
8=FIX.4.2|9=54|35=0|34=43|49=QUANT|52=20100308-13:55:46.025|56=NESTI|10=018|
8=FIX.4.2|9=59|35=0|34=42|49=NESTI|52=20100308-13:55:52|56=QUANT|57=ADMIN|10=097|
8=FIX.4.2|9=54|35=0|34=44|49=QUANT|52=20100308-13:56:46.027|56=NESTI|10=022|
8=FIX.4.2|9=59|35=0|34=43|49=NESTI|52=20100308-13:56:53|56=QUANT|57=ADMIN|10=100|
8=FIX.4.2|9=54|35=0|34=45|49=QUANT|52=20100308-13:57:46.237|56=NESTI|10=027|
8=FIX.4.2|9=59|35=0|34=44|49=NESTI|52=20100308-13:57:54|56=QUANT|57=ADMIN|10=103|
8=FIX.4.2|9=54|35=0|34=46|49=QUANT|52=20100308-13:58:46.521|56=NESTI|10=025|
8=FIX.4.2|9=59|35=0|34=45|49=NESTI|52=20100308-13:58:55|56=QUANT|57=ADMIN|10=106|
8=FIX.4.2|9=54|35=0|34=47|49=QUANT|52=20100308-13:59:46.806|56=NESTI|10=033|
8=FIX.4.2|9=59|35=0|34=46|49=NESTI|52=20100308-13:59:56|56=QUANT|57=ADMIN|10=109|
8=FIX.4.2|9=54|35=0|34=48|49=QUANT|52=20100308-14:00:46.091|56=NESTI|10=017|
8=FIX.4.2|9=59|35=0|34=47|49=NESTI|52=20100308-14:00:57|56=QUANT|57=ADMIN|10=098|
8=FIX.4.2|9=54|35=0|34=49|49=QUANT|52=20100308-14:01:46.376|56=NESTI|10=025|
8=FIX.4.2|9=59|35=0|34=48|49=NESTI|52=20100308-14:01:58|56=QUANT|57=ADMIN|10=101|
8=FIX.4.2|9=54|35=0|34=50|49=QUANT|52=20100308-14:02:46.512|56=NESTI|10=010|
8=FIX.4.2|9=59|35=0|34=49|49=NESTI|52=20100308-14:02:59|56=QUANT|57=ADMIN|10=104|
8=FIX.4.2|9=54|35=0|34=51|49=QUANT|52=20100308-14:03:46.587|56=NESTI|10=024|
8=FIX.4.2|9=59|35=0|34=50|49=NESTI|52=20100308-14:04:00|56=QUANT|57=ADMIN|10=084|
8=FIX.4.2|9=54|35=0|34=52|49=QUANT|52=20100308-14:04:46.677|56=NESTI|10=026|
8=FIX.4.2|9=59|35=0|34=51|49=NESTI|52=20100308-14:05:01|56=QUANT|57=ADMIN|10=087|
8=FIX.4.2|9=54|35=0|34=53|49=QUANT|52=20100308-14:05:46.751|56=NESTI|10=021|
8=FIX.4.2|9=59|35=0|34=52|49=NESTI|52=20100308-14:06:02|56=QUANT|57=ADMIN|10=090|
8=FIX.4.2|9=54|35=0|34=54|49=QUANT|52=20100308-14:06:46.842|56=NESTI|10=024|
8=FIX.4.2|9=59|35=0|34=53|49=NESTI|52=20100308-14:07:03|56=QUANT|57=ADMIN|10=093|
8=FIX.4.2|9=54|35=0|34=55|49=QUANT|52=20100308-14:07:46.872|56=NESTI|10=029|
8=FIX.4.2|9=59|35=0|34=54|49=NESTI|52=20100308-14:08:04|56=QUANT|57=ADMIN|10=096|
8=FIX.4.2|9=54|35=0|34=56|49=QUANT|52=20100308-14:08:46.872|56=NESTI|10=031|
8=FIX.4.2|9=59|35=0|34=55|49=NESTI|52=20100308-14:09:05|56=QUANT|57=ADMIN|10=099|
8=FIX.4.2|9=54|35=0|34=57|49=QUANT|52=20100308-14:09:46.872|56=NESTI|10=033|
8=FIX.4.2|9=59|35=0|34=56|49=NESTI|52=20100308-14:10:06|56=QUANT|57=ADMIN|10=093|
8=FIX.4.2|9=54|35=0|34=58|49=QUANT|52=20100308-14:10:46.872|56=NESTI|10=026|
8=FIX.4.2|9=59|35=0|34=57|49=NESTI|52=20100308-14:11:07|56=QUANT|57=ADMIN|10=096|
8=FIX.4.2|9=54|35=0|34=59|49=QUANT|52=20100308-14:11:46.872|56=NESTI|10=028|
8=FIX.4.2|9=59|35=0|34=58|49=NESTI|52=20100308-14:12:08|56=QUANT|57=ADMIN|10=099|
8=FIX.4.2|9=54|35=0|34=60|49=QUANT|52=20100308-14:12:46.873|56=NESTI|10=022|
8=FIX.4.2|9=59|35=0|34=59|49=NESTI|52=20100308-14:13:09|56=QUANT|57=ADMIN|10=102|
8=FIX.4.2|9=54|35=0|34=61|49=QUANT|52=20100308-14:13:46.874|56=NESTI|10=025|
8=FIX.4.2|9=59|35=0|34=60|49=NESTI|52=20100308-14:14:10|56=QUANT|57=ADMIN|10=087|
8=FIX.4.2|9=54|35=0|34=62|49=QUANT|52=20100308-14:14:46.009|56=NESTI|10=017|
8=FIX.4.2|9=59|35=0|34=61|49=NESTI|52=20100308-14:15:11|56=QUANT|57=ADMIN|10=090|
8=FIX.4.2|9=54|35=0|34=63|49=QUANT|52=20100308-14:15:46.129|56=NESTI|10=022|
8=FIX.4.2|9=59|35=0|34=62|49=NESTI|52=20100308-14:16:12|56=QUANT|57=ADMIN|10=093|
8=FIX.4.2|9=54|35=0|34=64|49=QUANT|52=20100308-14:16:46.249|56=NESTI|10=027|
8=FIX.4.2|9=59|35=0|34=63|49=NESTI|52=20100308-14:17:13|56=QUANT|57=ADMIN|10=096|
8=FIX.4.2|9=54|35=0|34=65|49=QUANT|52=20100308-14:17:46.369|56=NESTI|10=032|
8=FIX.4.2|9=59|35=0|34=64|49=NESTI|52=20100308-14:18:14|56=QUANT|57=ADMIN|10=099|
8=FIX.4.2|9=54|35=0|34=66|49=QUANT|52=20100308-14:18:46.489|56=NESTI|10=037|
8=FIX.4.2|9=59|35=0|34=65|49=NESTI|52=20100308-14:19:15|56=QUANT|57=ADMIN|10=102|
8=FIX.4.2|9=54|35=0|34=67|49=QUANT|52=20100308-14:19:46.520|56=NESTI|10=025|
8=FIX.4.2|9=59|35=0|34=66|49=NESTI|52=20100308-14:20:16|56=QUANT|57=ADMIN|10=096|
8=FIX.4.2|9=54|35=0|34=68|49=QUANT|52=20100308-14:20:46.550|56=NESTI|10=021|
8=FIX.4.2|9=59|35=0|34=67|49=NESTI|52=20100308-14:21:17|56=QUANT|57=ADMIN|10=099|
8=FIX.4.2|9=54|35=0|34=69|49=QUANT|52=20100308-14:21:46.580|56=NESTI|10=026|
8=FIX.4.2|9=59|35=0|34=68|49=NESTI|52=20100308-14:22:18|56=QUANT|57=ADMIN|10=102|
8=FIX.4.2|9=54|35=0|34=70|49=QUANT|52=20100308-14:22:46.610|56=NESTI|10=013|
8=FIX.4.2|9=59|35=0|34=69|49=NESTI|52=20100308-14:23:19|56=QUANT|57=ADMIN|10=105|
8=FIX.4.2|9=54|35=0|34=71|49=QUANT|52=20100308-14:23:46.640|56=NESTI|10=018|
8=FIX.4.2|9=59|35=0|34=70|49=NESTI|52=20100308-14:24:20|56=QUANT|57=ADMIN|10=090|
8=FIX.4.2|9=54|35=0|34=72|49=QUANT|52=20100308-14:24:46.640|56=NESTI|10=020|
8=FIX.4.2|9=59|35=0|34=71|49=NESTI|52=20100308-14:25:21|56=QUANT|57=ADMIN|10=093|
8=FIX.4.2|9=54|35=0|34=73|49=QUANT|52=20100308-14:25:46.641|56=NESTI|10=023|
8=FIX.4.2|9=59|35=0|34=72|49=NESTI|52=20100308-14:26:22|56=QUANT|57=ADMIN|10=096|
8=FIX.4.2|9=54|35=0|34=74|49=QUANT|52=20100308-14:26:46.641|56=NESTI|10=025|
8=FIX.4.2|9=59|35=0|34=73|49=NESTI|52=20100308-14:27:23|56=QUANT|57=ADMIN|10=099|
8=FIX.4.2|9=54|35=0|34=75|49=QUANT|52=20100308-14:27:46.641|56=NESTI|10=027|
8=FIX.4.2|9=59|35=0|34=74|49=NESTI|52=20100308-14:28:24|56=QUANT|57=ADMIN|10=102|
8=FIX.4.2|9=54|35=0|34=76|49=QUANT|52=20100308-14:28:46.642|56=NESTI|10=030|
8=FIX.4.2|9=59|35=0|34=75|49=NESTI|52=20100308-14:29:25|56=QUANT|57=ADMIN|10=105|
8=FIX.4.2|9=54|35=0|34=77|49=QUANT|52=20100308-14:29:46.643|56=NESTI|10=033|
8=FIX.4.2|9=59|35=0|34=76|49=NESTI|52=20100308-14:30:26|56=QUANT|57=ADMIN|10=099|
8=FIX.4.2|9=54|35=0|34=78|49=QUANT|52=20100308-14:30:46.643|56=NESTI|10=026|
8=FIX.4.2|9=59|35=0|34=77|49=NESTI|52=20100308-14:31:27|56=QUANT|57=ADMIN|10=102|
8=FIX.4.2|9=54|35=0|34=79|49=QUANT|52=20100308-14:31:46.674|56=NESTI|10=032|
8=FIX.4.2|9=59|35=0|34=78|49=NESTI|52=20100308-14:32:28|56=QUANT|57=ADMIN|10=105|
8=FIX.4.2|9=54|35=0|34=80|49=QUANT|52=20100308-14:32:46.704|56=NESTI|10=019|
8=FIX.4.2|9=59|35=0|34=79|49=NESTI|52=20100308-14:33:29|56=QUANT|57=ADMIN|10=108|
8=FIX.4.2|9=54|35=0|34=81|49=QUANT|52=20100308-14:33:46.750|56=NESTI|10=022|
8=FIX.4.2|9=59|35=0|34=80|49=NESTI|52=20100308-14:34:30|56=QUANT|57=ADMIN|10=093|
8=FIX.4.2|9=54|35=0|34=82|49=QUANT|52=20100308-14:34:46.780|56=NESTI|10=027|
8=FIX.4.2|9=59|35=0|34=81|49=NESTI|52=20100308-14:35:31|56=QUANT|57=ADMIN|10=096|
8=FIX.4.2|9=54|35=0|34=83|49=QUANT|52=20100308-14:35:46.810|56=NESTI|10=023|
8=FIX.4.2|9=59|35=0|34=82|49=NESTI|52=20100308-14:36:32|56=QUANT|57=ADMIN|10=099|
8=FIX.4.2|9=54|35=0|34=84|49=QUANT|52=20100308-14:36:46.810|56=NESTI|10=025|
8=FIX.4.2|9=59|35=0|34=83|49=NESTI|52=20100308-14:37:33|56=QUANT|57=ADMIN|10=102|
8=FIX.4.2|9=54|35=0|34=85|49=QUANT|52=20100308-14:37:46.810|56=NESTI|10=027|
8=FIX.4.2|9=59|35=0|34=84|49=NESTI|52=20100308-14:38:34|56=QUANT|57=ADMIN|10=105|
8=FIX.4.2|9=54|35=0|34=86|49=QUANT|52=20100308-14:38:46.811|56=NESTI|10=030|
8=FIX.4.2|9=59|35=0|34=85|49=NESTI|52=20100308-14:39:35|56=QUANT|57=ADMIN|10=108|
8=FIX.4.2|9=54|35=0|34=87|49=QUANT|52=20100308-14:39:46.811|56=NESTI|10=032|
8=FIX.4.2|9=59|35=0|34=86|49=NESTI|52=20100308-14:40:36|56=QUANT|57=ADMIN|10=102|
8=FIX.4.2|9=54|35=0|34=88|49=QUANT|52=20100308-14:40:46.812|56=NESTI|10=026|
8=FIX.4.2|9=59|35=0|34=87|49=NESTI|52=20100308-14:41:37|56=QUANT|57=ADMIN|10=105|
8=FIX.4.2|9=54|35=0|34=89|49=QUANT|52=20100308-14:41:46.812|56=NESTI|10=028|
8=FIX.4.2|9=59|35=0|34=88|49=NESTI|52=20100308-14:42:38|56=QUANT|57=ADMIN|10=108|
8=FIX.4.2|9=54|35=0|34=90|49=QUANT|52=20100308-14:42:46.814|56=NESTI|10=023|
8=FIX.4.2|9=59|35=0|34=89|49=NESTI|52=20100308-14:43:39|56=QUANT|57=ADMIN|10=111|
8=FIX.4.2|9=54|35=0|34=91|49=QUANT|52=20100308-14:43:46.815|56=NESTI|10=026|
8=FIX.4.2|9=59|35=0|34=90|49=NESTI|52=20100308-14:44:40|56=QUANT|57=ADMIN|10=096|
8=FIX.4.2|9=54|35=0|34=92|49=QUANT|52=20100308-14:44:46.816|56=NESTI|10=029|
8=FIX.4.2|9=54|35=0|34=93|49=QUANT|52=20100308-14:45:46.817|56=NESTI|10=032|
8=FIX.4.2|9=59|35=0|34=91|49=NESTI|52=20100308-14:45:41|56=QUANT|57=ADMIN|10=099|
8=FIX.4.2|9=125|35=D|34=94|49=QUANT|52=20100308-14:46:45.584|56=NESTI|11=IAA0003|21=1|38=10|40=1|50=UA|54=1|55=PETR4.SA|60=20100308-11:46:45|10=052|
8=FIX.4.2|9=59|35=0|34=92|49=NESTI|52=20100308-14:46:42|56=QUANT|57=ADMIN|10=102|
8=FIX.4.2|9=202|35=8|34=93|49=NESTI|50=RAI|52=20100308-14:47:12|56=QUANT|57=UA|38=10|6=0.00000000|11=IAA0003|14=0|17=1100000005|20=0|31=0.00000000|32=0|37=BIAA0003QUANT|39=0|44=0.00000000|54=1|55=PETR4.SA|150=0|151=10|10=150|
8=FIX.4.2|9=54|35=0|34=95|49=QUANT|52=20100308-14:47:45.851|56=NESTI|10=033|
8=FIX.4.2|9=59|35=0|34=94|49=NESTI|52=20100308-14:48:13|56=QUANT|57=ADMIN|10=104|
8=FIX.4.2|9=54|35=0|34=96|49=QUANT|52=20100308-14:48:45.031|56=NESTI|10=025|
8=FIX.4.2|9=59|35=0|34=95|49=NESTI|52=20100308-14:49:14|56=QUANT|57=ADMIN|10=107|
8=FIX.4.2|9=54|35=0|34=97|49=QUANT|52=20100308-14:49:45.256|56=NESTI|10=036|
8=FIX.4.2|9=59|35=0|34=96|49=NESTI|52=20100308-14:50:15|56=QUANT|57=ADMIN|10=101|
8=FIX.4.2|9=54|35=0|34=98|49=QUANT|52=20100308-14:50:45.481|56=NESTI|10=029|
8=FIX.4.2|9=59|35=0|34=97|49=NESTI|52=20100308-14:51:16|56=QUANT|57=ADMIN|10=104|
8=FIX.4.2|9=54|35=0|34=99|49=QUANT|52=20100308-14:51:45.690|56=NESTI|10=033|
8=FIX.4.2|9=59|35=0|34=98|49=NESTI|52=20100308-14:52:17|56=QUANT|57=ADMIN|10=107|
8=FIX.4.2|9=55|35=0|34=100|49=QUANT|52=20100308-14:52:45.915|56=NESTI|10=066|
8=FIX.4.2|9=59|35=0|34=99|49=NESTI|52=20100308-14:53:18|56=QUANT|57=ADMIN|10=110|
8=FIX.4.2|9=55|35=0|34=101|49=QUANT|52=20100308-14:53:45.021|56=NESTI|10=056|
8=FIX.4.2|9=60|35=0|34=100|49=NESTI|52=20100308-14:54:19|56=QUANT|57=ADMIN|10=135|
8=FIX.4.2|9=55|35=0|34=102|49=QUANT|52=20100308-14:54:45.096|56=NESTI|10=070|
8=FIX.4.2|9=60|35=0|34=101|49=NESTI|52=20100308-14:55:20|56=QUANT|57=ADMIN|10=129|
8=FIX.4.2|9=55|35=0|34=103|49=QUANT|52=20100308-14:55:45.171|56=NESTI|10=066|
8=FIX.4.2|9=60|35=0|34=102|49=NESTI|52=20100308-14:56:21|56=QUANT|57=ADMIN|10=132|
8=FIX.4.2|9=55|35=0|34=104|49=QUANT|52=20100308-14:56:45.246|56=NESTI|10=071|
8=FIX.4.2|9=60|35=0|34=103|49=NESTI|52=20100308-14:57:22|56=QUANT|57=ADMIN|10=135|
8=FIX.4.2|9=55|35=0|34=105|49=QUANT|52=20100308-14:57:45.305|56=NESTI|10=069|
8=FIX.4.2|9=60|35=0|34=104|49=NESTI|52=20100308-14:58:23|56=QUANT|57=ADMIN|10=138|
8=FIX.4.2|9=55|35=0|34=106|49=QUANT|52=20100308-14:58:45.336|56=NESTI|10=075|
8=FIX.4.2|9=60|35=0|34=105|49=NESTI|52=20100308-14:59:24|56=QUANT|57=ADMIN|10=141|
8=FIX.4.2|9=55|35=0|34=107|49=QUANT|52=20100308-14:59:45.366|56=NESTI|10=080|
8=FIX.4.2|9=60|35=0|34=106|49=NESTI|52=20100308-15:00:25|56=QUANT|57=ADMIN|10=130|
8=FIX.4.2|9=55|35=0|34=108|49=QUANT|52=20100308-15:00:45.381|56=NESTI|10=065|
8=FIX.4.2|9=60|35=0|34=107|49=NESTI|52=20100308-15:01:26|56=QUANT|57=ADMIN|10=133|
8=FIX.4.2|9=55|35=0|34=109|49=QUANT|52=20100308-15:01:45.396|56=NESTI|10=073|
8=FIX.4.2|9=60|35=0|34=108|49=NESTI|52=20100308-15:02:27|56=QUANT|57=ADMIN|10=136|
8=FIX.4.2|9=55|35=0|34=110|49=QUANT|52=20100308-15:02:45.411|56=NESTI|10=054|
8=FIX.4.2|9=60|35=0|34=109|49=NESTI|52=20100308-15:03:28|56=QUANT|57=ADMIN|10=139|
8=FIX.4.2|9=55|35=0|34=111|49=QUANT|52=20100308-15:03:45.426|56=NESTI|10=062|
8=FIX.4.2|9=60|35=0|34=110|49=NESTI|52=20100308-15:04:29|56=QUANT|57=ADMIN|10=133|
8=FIX.4.2|9=55|35=0|34=112|49=QUANT|52=20100308-15:04:45.426|56=NESTI|10=064|
8=FIX.4.2|9=60|35=0|34=111|49=NESTI|52=20100308-15:05:30|56=QUANT|57=ADMIN|10=127|
8=FIX.4.2|9=55|35=0|34=113|49=QUANT|52=20100308-15:05:45.605|56=NESTI|10=065|
8=FIX.4.2|9=60|35=0|34=112|49=NESTI|52=20100308-15:06:31|56=QUANT|57=ADMIN|10=130|
8=FIX.4.2|9=55|35=0|34=114|49=QUANT|52=20100308-15:06:45.996|56=NESTI|10=080|
8=FIX.4.2|9=60|35=0|34=113|49=NESTI|52=20100308-15:07:32|56=QUANT|57=ADMIN|10=133|
8=FIX.4.2|9=55|35=0|34=115|49=QUANT|52=20100308-15:07:45.371|56=NESTI|10=069|
8=FIX.4.2|9=60|35=0|34=114|49=NESTI|52=20100308-15:08:33|56=QUANT|57=ADMIN|10=136|
8=FIX.4.2|9=55|35=0|34=116|49=QUANT|52=20100308-15:08:45.746|56=NESTI|10=077|
8=FIX.4.2|9=60|35=0|34=115|49=NESTI|52=20100308-15:09:34|56=QUANT|57=ADMIN|10=139|
8=FIX.4.2|9=55|35=0|34=117|49=QUANT|52=20100308-15:09:45.121|56=NESTI|10=066|
8=FIX.4.2|9=60|35=0|34=116|49=NESTI|52=20100308-15:10:35|56=QUANT|57=ADMIN|10=133|
8=FIX.4.2|9=55|35=0|34=118|49=QUANT|52=20100308-15:10:45.391|56=NESTI|10=068|
8=FIX.4.2|9=60|35=0|34=117|49=NESTI|52=20100308-15:11:36|56=QUANT|57=ADMIN|10=136|
8=FIX.4.2|9=55|35=0|34=119|49=QUANT|52=20100308-15:11:45.541|56=NESTI|10=067|
8=FIX.4.2|9=60|35=0|34=118|49=NESTI|52=20100308-15:12:37|56=QUANT|57=ADMIN|10=139|
8=FIX.4.2|9=55|35=0|34=120|49=QUANT|52=20100308-15:12:45.706|56=NESTI|10=063|
8=FIX.4.2|9=60|35=0|34=119|49=NESTI|52=20100308-15:13:38|56=QUANT|57=ADMIN|10=142|
8=FIX.4.2|9=55|35=0|34=121|49=QUANT|52=20100308-15:13:45.871|56=NESTI|10=068|
8=FIX.4.2|9=60|35=0|34=120|49=NESTI|52=20100308-15:14:39|56=QUANT|57=ADMIN|10=136|
8=FIX.4.2|9=55|35=0|34=122|49=QUANT|52=20100308-15:14:45.021|56=NESTI|10=057|
8=FIX.4.2|9=55|35=0|34=123|49=QUANT|52=20100308-15:15:45.126|56=NESTI|10=065|
8=FIX.4.2|9=60|35=0|34=121|49=NESTI|52=20100308-15:15:40|56=QUANT|57=ADMIN|10=130|
8=FIX.4.2|9=55|35=0|34=124|49=QUANT|52=20100308-15:16:45.201|56=NESTI|10=061|
8=FIX.4.2|9=60|35=0|34=122|49=NESTI|52=20100308-15:16:41|56=QUANT|57=ADMIN|10=133|
8=FIX.4.2|9=55|35=0|34=125|49=QUANT|52=20100308-15:17:45.276|56=NESTI|10=075|
8=FIX.4.2|9=60|35=0|34=123|49=NESTI|52=20100308-15:17:42|56=QUANT|57=ADMIN|10=136|
8=FIX.4.2|9=55|35=0|34=126|49=QUANT|52=20100308-15:18:45.351|56=NESTI|10=071|
8=FIX.4.2|9=60|35=0|34=124|49=NESTI|52=20100308-15:18:43|56=QUANT|57=ADMIN|10=139|
8=FIX.4.2|9=55|35=0|34=127|49=QUANT|52=20100308-15:19:45.426|56=NESTI|10=076|
8=FIX.4.2|9=60|35=0|34=125|49=NESTI|52=20100308-15:19:44|56=QUANT|57=ADMIN|10=142|
8=FIX.4.2|9=55|35=0|34=128|49=QUANT|52=20100308-15:20:45.486|56=NESTI|10=075|
8=FIX.4.2|9=60|35=0|34=126|49=NESTI|52=20100308-15:20:45|56=QUANT|57=ADMIN|10=136|
8=FIX.4.2|9=55|35=0|34=129|49=QUANT|52=20100308-15:21:45.516|56=NESTI|10=071|
8=FIX.4.2|9=60|35=0|34=127|49=NESTI|52=20100308-15:21:46|56=QUANT|57=ADMIN|10=139|
8=FIX.4.2|9=55|35=0|34=130|49=QUANT|52=20100308-15:22:45.576|56=NESTI|10=070|
8=FIX.4.2|9=60|35=0|34=128|49=NESTI|52=20100308-15:22:47|56=QUANT|57=ADMIN|10=142|
8=FIX.4.2|9=55|35=0|34=131|49=QUANT|52=20100308-15:23:45.682|56=NESTI|10=070|
8=FIX.4.2|9=60|35=0|34=129|49=NESTI|52=20100308-15:23:48|56=QUANT|57=ADMIN|10=145|
8=FIX.4.2|9=55|35=0|34=132|49=QUANT|52=20100308-15:24:45.757|56=NESTI|10=075|
8=FIX.4.2|9=60|35=0|34=130|49=NESTI|52=20100308-15:24:49|56=QUANT|57=ADMIN|10=139|
8=FIX.4.2|9=55|35=0|34=133|49=QUANT|52=20100308-15:25:45.816|56=NESTI|10=073|
8=FIX.4.2|9=60|35=0|34=131|49=NESTI|52=20100308-15:25:50|56=QUANT|57=ADMIN|10=133|
8=FIX.4.2|9=55|35=0|34=134|49=QUANT|52=20100308-15:26:45.891|56=NESTI|10=078|
8=FIX.4.2|9=60|35=0|34=132|49=NESTI|52=20100308-15:26:51|56=QUANT|57=ADMIN|10=136|
8=FIX.4.2|9=55|35=0|34=135|49=QUANT|52=20100308-15:27:45.952|56=NESTI|10=078|
8=FIX.4.2|9=60|35=0|34=133|49=NESTI|52=20100308-15:27:52|56=QUANT|57=ADMIN|10=139|
8=FIX.4.2|9=55|35=0|34=136|49=QUANT|52=20100308-15:28:45.028|56=NESTI|10=074|
8=FIX.4.2|9=60|35=0|34=134|49=NESTI|52=20100308-15:28:53|56=QUANT|57=ADMIN|10=142|
8=FIX.4.2|9=55|35=0|34=137|49=QUANT|52=20100308-15:29:45.073|56=NESTI|10=076|
8=FIX.4.2|9=60|35=0|34=135|49=NESTI|52=20100308-15:29:54|56=QUANT|57=ADMIN|10=145|
8=FIX.4.2|9=55|35=0|34=138|49=QUANT|52=20100308-15:30:45.134|56=NESTI|10=067|
8=FIX.4.2|9=60|35=0|34=136|49=NESTI|52=20100308-15:30:55|56=QUANT|57=ADMIN|10=139|
8=FIX.4.2|9=55|35=0|34=139|49=QUANT|52=20100308-15:31:45.178|56=NESTI|10=077|
8=FIX.4.2|9=60|35=0|34=137|49=NESTI|52=20100308-15:31:56|56=QUANT|57=ADMIN|10=142|
8=FIX.4.2|9=55|35=0|34=140|49=QUANT|52=20100308-15:32:45.224|56=NESTI|10=062|
8=FIX.4.2|9=60|35=0|34=138|49=NESTI|52=20100308-15:32:57|56=QUANT|57=ADMIN|10=145|
8=FIX.4.2|9=55|35=0|34=141|49=QUANT|52=20100308-15:33:45.269|56=NESTI|10=073|
8=FIX.4.2|9=60|35=0|34=139|49=NESTI|52=20100308-15:33:58|56=QUANT|57=ADMIN|10=148|
8=FIX.4.2|9=55|35=0|34=142|49=QUANT|52=20100308-15:34:45.299|56=NESTI|10=078|
8=FIX.4.2|9=60|35=0|34=140|49=NESTI|52=20100308-15:34:59|56=QUANT|57=ADMIN|10=142|
8=FIX.4.2|9=55|35=0|34=143|49=QUANT|52=20100308-15:35:45.344|56=NESTI|10=071|
8=FIX.4.2|9=60|35=0|34=141|49=NESTI|52=20100308-15:36:00|56=QUANT|57=ADMIN|10=131|
8=FIX.4.2|9=55|35=0|34=144|49=QUANT|52=20100308-15:36:45.374|56=NESTI|10=076|
8=FIX.4.2|9=60|35=0|34=142|49=NESTI|52=20100308-15:37:01|56=QUANT|57=ADMIN|10=134|
8=FIX.4.2|9=55|35=0|34=145|49=QUANT|52=20100308-15:37:45.435|56=NESTI|10=076|
8=FIX.4.2|9=60|35=0|34=143|49=NESTI|52=20100308-15:38:02|56=QUANT|57=ADMIN|10=137|
8=FIX.4.2|9=55|35=0|34=146|49=QUANT|52=20100308-15:38:45.449|56=NESTI|10=083|
8=FIX.4.2|9=60|35=0|34=144|49=NESTI|52=20100308-15:39:03|56=QUANT|57=ADMIN|10=140|
8=FIX.4.2|9=55|35=0|34=147|49=QUANT|52=20100308-15:39:45.481|56=NESTI|10=081|
8=FIX.4.2|9=60|35=0|34=145|49=NESTI|52=20100308-15:40:04|56=QUANT|57=ADMIN|10=134|
8=FIX.4.2|9=55|35=0|34=148|49=QUANT|52=20100308-15:40:45.484|56=NESTI|10=077|
8=FIX.4.2|9=60|35=0|34=146|49=NESTI|52=20100308-15:41:05|56=QUANT|57=ADMIN|10=137|
8=FIX.4.2|9=55|35=0|34=149|49=QUANT|52=20100308-15:41:45.487|56=NESTI|10=082|
8=FIX.4.2|9=60|35=0|34=147|49=NESTI|52=20100308-15:42:06|56=QUANT|57=ADMIN|10=140|
8=FIX.4.2|9=55|35=0|34=150|49=QUANT|52=20100308-15:42:45.490|56=NESTI|10=069|
8=FIX.4.2|9=60|35=0|34=148|49=NESTI|52=20100308-15:43:07|56=QUANT|57=ADMIN|10=143|
8=FIX.4.2|9=55|35=0|34=151|49=QUANT|52=20100308-15:43:45.494|56=NESTI|10=075|
8=FIX.4.2|9=60|35=0|34=149|49=NESTI|52=20100308-15:44:08|56=QUANT|57=ADMIN|10=146|
8=FIX.4.2|9=55|35=0|34=152|49=QUANT|52=20100308-15:44:45.496|56=NESTI|10=079|
8=FIX.4.2|9=60|35=0|34=150|49=NESTI|52=20100308-15:45:09|56=QUANT|57=ADMIN|10=140|
8=FIX.4.2|9=55|35=0|34=153|49=QUANT|52=20100308-15:45:45.496|56=NESTI|10=081|
8=FIX.4.2|9=60|35=0|34=151|49=NESTI|52=20100308-15:46:10|56=QUANT|57=ADMIN|10=134|
8=FIX.4.2|9=55|35=0|34=154|49=QUANT|52=20100308-15:46:45.496|56=NESTI|10=083|
8=FIX.4.2|9=60|35=0|34=152|49=NESTI|52=20100308-15:47:11|56=QUANT|57=ADMIN|10=137|
8=FIX.4.2|9=55|35=0|34=155|49=QUANT|52=20100308-15:47:45.497|56=NESTI|10=086|
8=FIX.4.2|9=60|35=0|34=153|49=NESTI|52=20100308-15:48:12|56=QUANT|57=ADMIN|10=140|
8=FIX.4.2|9=55|35=0|34=156|49=QUANT|52=20100308-15:48:45.528|56=NESTI|10=083|
8=FIX.4.2|9=60|35=0|34=154|49=NESTI|52=20100308-15:49:13|56=QUANT|57=ADMIN|10=143|
8=FIX.4.2|9=55|35=0|34=157|49=QUANT|52=20100308-15:49:45.575|56=NESTI|10=087|
8=FIX.4.2|9=60|35=0|34=155|49=NESTI|52=20100308-15:50:14|56=QUANT|57=ADMIN|10=137|
8=FIX.4.2|9=55|35=0|34=158|49=QUANT|52=20100308-15:50:45.591|56=NESTI|10=078|
8=FIX.4.2|9=60|35=0|34=156|49=NESTI|52=20100308-15:51:15|56=QUANT|57=ADMIN|10=140|
8=FIX.4.2|9=55|35=0|34=159|49=QUANT|52=20100308-15:51:45.637|56=NESTI|10=081|
8=FIX.4.2|9=60|35=0|34=157|49=NESTI|52=20100308-15:52:16|56=QUANT|57=ADMIN|10=143|
8=FIX.4.2|9=55|35=0|34=160|49=QUANT|52=20100308-15:52:45.637|56=NESTI|10=074|
8=FIX.4.2|9=60|35=0|34=158|49=NESTI|52=20100308-15:53:17|56=QUANT|57=ADMIN|10=146|
8=FIX.4.2|9=55|35=0|34=161|49=QUANT|52=20100308-15:53:45.652|56=NESTI|10=073|
8=FIX.4.2|9=60|35=0|34=159|49=NESTI|52=20100308-15:54:18|56=QUANT|57=ADMIN|10=149|
8=FIX.4.2|9=55|35=0|34=162|49=QUANT|52=20100308-15:54:45.667|56=NESTI|10=081|
8=FIX.4.2|9=60|35=0|34=160|49=NESTI|52=20100308-15:55:19|56=QUANT|57=ADMIN|10=143|
8=FIX.4.2|9=55|35=0|34=163|49=QUANT|52=20100308-15:55:45.698|56=NESTI|10=087|
8=FIX.4.2|9=60|35=0|34=161|49=NESTI|52=20100308-15:56:20|56=QUANT|57=ADMIN|10=137|
8=FIX.4.2|9=55|35=0|34=164|49=QUANT|52=20100308-15:56:45.791|56=NESTI|10=083|
8=FIX.4.2|9=60|35=0|34=162|49=NESTI|52=20100308-15:57:21|56=QUANT|57=ADMIN|10=140|
8=FIX.4.2|9=55|35=0|34=165|49=QUANT|52=20100308-15:57:45.900|56=NESTI|10=077|
8=FIX.4.2|9=60|35=0|34=163|49=NESTI|52=20100308-15:58:22|56=QUANT|57=ADMIN|10=143|
8=FIX.4.2|9=55|35=0|34=166|49=QUANT|52=20100308-15:58:45.977|56=NESTI|10=093|
8=FIX.4.2|9=60|35=0|34=164|49=NESTI|52=20100308-15:59:23|56=QUANT|57=ADMIN|10=146|
8=FIX.4.2|9=55|35=0|34=167|49=QUANT|52=20100308-15:59:45.992|56=NESTI|10=092|
8=FIX.4.2|9=60|35=0|34=165|49=NESTI|52=20100308-16:00:24|56=QUANT|57=ADMIN|10=135|
8=FIX.4.2|9=55|35=0|34=168|49=QUANT|52=20100308-16:00:45.022|56=NESTI|10=064|
8=FIX.4.2|9=60|35=0|34=166|49=NESTI|52=20100308-16:01:25|56=QUANT|57=ADMIN|10=138|
8=FIX.4.2|9=55|35=0|34=169|49=QUANT|52=20100308-16:01:45.053|56=NESTI|10=070|
8=FIX.4.2|9=60|35=0|34=167|49=NESTI|52=20100308-16:02:26|56=QUANT|57=ADMIN|10=141|
8=FIX.4.2|9=55|35=0|34=170|49=QUANT|52=20100308-16:02:45.068|56=NESTI|10=069|
8=FIX.4.2|9=60|35=0|34=168|49=NESTI|52=20100308-16:03:27|56=QUANT|57=ADMIN|10=144|
8=FIX.4.2|9=55|35=0|34=171|49=QUANT|52=20100308-16:03:45.098|56=NESTI|10=074|
8=FIX.4.2|9=60|35=0|34=169|49=NESTI|52=20100308-16:04:28|56=QUANT|57=ADMIN|10=147|
8=FIX.4.2|9=55|35=0|34=172|49=QUANT|52=20100308-16:04:45.129|56=NESTI|10=071|
8=FIX.4.2|9=60|35=0|34=170|49=NESTI|52=20100308-16:05:29|56=QUANT|57=ADMIN|10=141|
8=FIX.4.2|9=55|35=0|34=173|49=QUANT|52=20100308-16:05:45.222|56=NESTI|10=067|
8=FIX.4.2|9=60|35=0|34=171|49=NESTI|52=20100308-16:06:30|56=QUANT|57=ADMIN|10=135|
8=FIX.4.2|9=55|35=0|34=174|49=QUANT|52=20100308-16:06:45.346|56=NESTI|10=076|
8=FIX.4.2|9=60|35=0|34=172|49=NESTI|52=20100308-16:07:31|56=QUANT|57=ADMIN|10=138|
8=FIX.4.2|9=55|35=0|34=175|49=QUANT|52=20100308-16:07:45.361|56=NESTI|10=075|
8=FIX.4.2|9=60|35=0|34=173|49=NESTI|52=20100308-16:08:32|56=QUANT|57=ADMIN|10=141|
8=FIX.4.2|9=55|35=0|34=176|49=QUANT|52=20100308-16:08:45.391|56=NESTI|10=080|
8=FIX.4.2|9=60|35=0|34=174|49=NESTI|52=20100308-16:09:33|56=QUANT|57=ADMIN|10=144|
8=FIX.4.2|9=55|35=0|34=177|49=QUANT|52=20100308-16:09:45.391|56=NESTI|10=082|
8=FIX.4.2|9=60|35=0|34=175|49=NESTI|52=20100308-16:10:34|56=QUANT|57=ADMIN|10=138|
8=FIX.4.2|9=55|35=0|34=178|49=QUANT|52=20100308-16:10:45.421|56=NESTI|10=069|
8=FIX.4.2|9=60|35=0|34=176|49=NESTI|52=20100308-16:11:35|56=QUANT|57=ADMIN|10=141|
8=FIX.4.2|9=55|35=0|34=179|49=QUANT|52=20100308-16:11:45.436|56=NESTI|10=077|
8=FIX.4.2|9=60|35=0|34=177|49=NESTI|52=20100308-16:12:36|56=QUANT|57=ADMIN|10=144|
8=FIX.4.2|9=55|35=0|34=180|49=QUANT|52=20100308-16:12:45.435|56=NESTI|10=069|
8=FIX.4.2|9=55|35=0|34=181|49=QUANT|52=20100308-16:13:45.466|56=NESTI|10=075|
8=FIX.4.2|9=60|35=0|34=178|49=NESTI|52=20100308-16:13:37|56=QUANT|57=ADMIN|10=147|
8=FIX.4.2|9=55|35=0|34=182|49=QUANT|52=20100308-16:14:45.496|56=NESTI|10=080|
8=FIX.4.2|9=60|35=0|34=179|49=NESTI|52=20100308-16:14:38|56=QUANT|57=ADMIN|10=150|
8=FIX.4.2|9=55|35=0|34=183|49=QUANT|52=20100308-16:15:45.511|56=NESTI|10=070|
8=FIX.4.2|9=60|35=0|34=180|49=NESTI|52=20100308-16:15:39|56=QUANT|57=ADMIN|10=144|
8=FIX.4.2|9=55|35=0|34=184|49=QUANT|52=20100308-16:16:45.526|56=NESTI|10=078|
8=FIX.4.2|9=60|35=0|34=181|49=NESTI|52=20100308-16:16:40|56=QUANT|57=ADMIN|10=138|
8=FIX.4.2|9=55|35=0|34=185|49=QUANT|52=20100308-16:17:45.541|56=NESTI|10=077|
8=FIX.4.2|9=60|35=0|34=182|49=NESTI|52=20100308-16:17:41|56=QUANT|57=ADMIN|10=141|
8=FIX.4.2|9=55|35=0|34=186|49=QUANT|52=20100308-16:18:45.555|56=NESTI|10=084|
8=FIX.4.2|9=60|35=0|34=183|49=NESTI|52=20100308-16:18:42|56=QUANT|57=ADMIN|10=144|
8=FIX.4.2|9=55|35=0|34=187|49=QUANT|52=20100308-16:19:45.586|56=NESTI|10=090|
8=FIX.4.2|9=60|35=0|34=184|49=NESTI|52=20100308-16:19:43|56=QUANT|57=ADMIN|10=147|
8=FIX.4.2|9=55|35=0|34=188|49=QUANT|52=20100308-16:20:45.601|56=NESTI|10=071|
8=FIX.4.2|9=60|35=0|34=185|49=NESTI|52=20100308-16:20:44|56=QUANT|57=ADMIN|10=141|
8=FIX.4.2|9=55|35=0|34=189|49=QUANT|52=20100308-16:21:45.616|56=NESTI|10=079|
8=FIX.4.2|9=60|35=0|34=186|49=NESTI|52=20100308-16:21:45|56=QUANT|57=ADMIN|10=144|
8=FIX.4.2|9=55|35=0|34=190|49=QUANT|52=20100308-16:22:45.631|56=NESTI|10=069|
8=FIX.4.2|9=60|35=0|34=187|49=NESTI|52=20100308-16:22:46|56=QUANT|57=ADMIN|10=147|
8=FIX.4.2|9=65|35=A|34=1|49=QUANT|52=20100309-18:10:51.940|56=NESTI|98=0|108=60|10=010|
8=FIX.4.2|9=65|35=A|34=2|49=QUANT|52=20100309-18:10:52.940|56=NESTI|98=0|108=60|10=012|
8=FIX.4.2|9=65|35=A|34=3|49=QUANT|52=20100309-18:11:47.345|56=NESTI|98=0|108=60|10=017|
8=FIX.4.2|9=65|35=A|34=4|49=QUANT|52=20100309-18:12:18.344|56=NESTI|98=0|108=60|10=016|
8=FIX.4.2|9=65|35=A|34=5|49=QUANT|52=20100309-18:12:48.359|56=NESTI|98=0|108=60|10=026|
8=FIX.4.2|9=65|35=A|34=6|49=QUANT|52=20100309-18:13:18.374|56=NESTI|98=0|108=60|10=022|
8=FIX.4.2|9=65|35=A|34=7|49=QUANT|52=20100309-18:13:48.389|56=NESTI|98=0|108=60|10=032|
8=FIX.4.2|9=65|35=A|34=8|49=QUANT|52=20100309-18:14:18.404|56=NESTI|98=0|108=60|10=019|
8=FIX.4.2|9=65|35=A|34=9|49=QUANT|52=20100309-18:14:48.420|56=NESTI|98=0|108=60|10=021|
8=FIX.4.2|9=66|35=A|34=10|49=QUANT|52=20100309-18:15:02.888|56=NESTI|98=0|108=60|10=071|
8=FIX.4.2|9=66|35=A|34=11|49=QUANT|52=20100309-18:15:33.887|56=NESTI|98=0|108=60|10=075|
8=FIX.4.2|9=66|35=A|34=12|49=QUANT|52=20100309-18:16:03.887|56=NESTI|98=0|108=60|10=074|
8=FIX.4.2|9=66|35=A|34=13|49=QUANT|52=20100309-18:16:33.902|56=NESTI|98=0|108=60|10=066|
8=FIX.4.2|9=66|35=A|34=14|49=QUANT|52=20100309-18:17:03.917|56=NESTI|98=0|108=60|10=071|
8=FIX.4.2|9=66|35=A|34=15|49=QUANT|52=20100309-18:17:33.932|56=NESTI|98=0|108=60|10=072|
8=FIX.4.2|9=66|35=A|34=16|49=QUANT|52=20100309-18:18:03.947|56=NESTI|98=0|108=60|10=077|
8=FIX.4.2|9=66|35=A|34=17|49=QUANT|52=20100309-18:18:33.962|56=NESTI|98=0|108=60|10=078|
8=FIX.4.2|9=66|35=A|34=18|49=QUANT|52=20100309-18:19:16.289|56=NESTI|98=0|108=60|10=083|
8=FIX.4.2|9=66|35=A|34=19|49=QUANT|52=20100309-18:19:47.289|56=NESTI|98=0|108=60|10=088|
8=FIX.4.2|9=66|35=A|34=20|49=QUANT|52=20100309-18:20:17.304|56=NESTI|98=0|108=60|10=057|
8=FIX.4.2|9=66|35=A|34=21|49=QUANT|52=20100309-18:20:47.319|56=NESTI|98=0|108=60|10=067|
8=FIX.4.2|9=66|35=A|34=22|49=QUANT|52=20100309-18:21:17.334|56=NESTI|98=0|108=60|10=063|
8=FIX.4.2|9=66|35=A|34=23|49=QUANT|52=20100309-18:21:47.349|56=NESTI|98=0|108=60|10=073|
8=FIX.4.2|9=66|35=A|34=24|49=QUANT|52=20100309-18:22:17.364|56=NESTI|98=0|108=60|10=069|
8=FIX.4.2|9=66|35=A|34=25|49=QUANT|52=20100309-18:24:04.846|56=NESTI|98=0|108=60|10=073|
8=FIX.4.2|9=66|35=A|34=26|49=QUANT|52=20100309-18:24:35.846|56=NESTI|98=0|108=60|10=078|
8=FIX.4.2|9=66|35=A|34=27|49=QUANT|52=20100309-18:25:05.861|56=NESTI|98=0|108=60|10=074|
8=FIX.4.2|9=66|35=A|34=28|49=QUANT|52=20100309-18:25:35.876|56=NESTI|98=0|108=60|10=084|
8=FIX.4.2|9=66|35=A|34=29|49=QUANT|52=20100309-18:26:05.891|56=NESTI|98=0|108=60|10=080|
8=FIX.4.2|9=66|35=A|34=30|49=QUANT|52=20100309-18:26:35.906|56=NESTI|98=0|108=60|10=072|
8=FIX.4.2|9=66|35=A|34=31|49=QUANT|52=20100309-18:27:05.921|56=NESTI|98=0|108=60|10=068|
8=FIX.4.2|9=66|35=A|34=19|49=QUANT|52=20100309-18:29:08.434|56=NESTI|98=0|108=60|10=078|
8=FIX.4.2|9=66|35=A|34=20|49=QUANT|52=20100309-18:29:39.449|56=NESTI|98=0|108=60|10=080|
8=FIX.4.2|9=66|35=A|34=21|49=QUANT|52=20100309-18:30:09.449|56=NESTI|98=0|108=60|10=070|
8=FIX.4.2|9=66|35=A|34=22|49=QUANT|52=20100309-18:30:39.464|56=NESTI|98=0|108=60|10=071|
8=FIX.4.2|9=66|35=A|34=23|49=QUANT|52=20100309-18:31:09.479|56=NESTI|98=0|108=60|10=076|
8=FIX.4.2|9=66|35=A|34=24|49=QUANT|52=20100309-18:31:39.494|56=NESTI|98=0|108=60|10=077|
8=FIX.4.2|9=66|35=A|34=25|49=QUANT|52=20100309-18:32:09.509|56=NESTI|98=0|108=60|10=073|
8=FIX.4.2|9=66|35=A|34=26|49=QUANT|52=20100309-18:32:39.524|56=NESTI|98=0|108=60|10=074|
8=FIX.4.2|9=66|35=A|34=19|49=QUANT|52=20100309-18:34:13.100|56=NESTI|98=0|108=60|10=060|
8=FIX.4.2|9=66|35=A|34=20|49=QUANT|52=20100309-18:34:44.115|56=NESTI|98=0|108=60|10=062|
8=FIX.4.2|9=66|35=A|34=21|49=QUANT|52=20100309-18:35:14.130|56=NESTI|98=0|108=60|10=058|
8=FIX.4.2|9=66|35=A|34=22|49=QUANT|52=20100309-18:35:44.145|56=NESTI|98=0|108=60|10=068|
8=FIX.4.2|9=66|35=A|34=23|49=QUANT|52=20100309-18:36:14.160|56=NESTI|98=0|108=60|10=064|
8=FIX.4.2|9=71|35=A|34=29|49=NESTI|52=20100309-18:36:05|56=QUANT|57=ADMIN|98=0|108=60|10=144|
8=FIX.4.2|9=63|35=2|34=24|49=QUANT|52=20100309-18:36:14.160|56=NESTI|7=4|16=0|10=145|
8=FIX.4.2|9=69|35=2|34=30|49=NESTI|52=20100309-18:36:05|56=QUANT|57=ADMIN|7=20|16=0|10=016|
8=FIX.4.2|9=97|35=4|34=20|43=Y|49=QUANT|52=20100309-18:36:14.176|56=NESTI|122=20100309-18:36:14.176|36=25|123=Y|10=094|
8=FIX.4.2|9=88|35=4|34=4|43=Y|49=NESTI|52=20100309-18:36:05|56=QUANT|122=20100309-18:36:05|36=31|123=Y|10=149|
8=FIX.4.2|9=54|35=0|34=25|49=QUANT|52=20100309-18:37:14.206|56=NESTI|10=020|
8=FIX.4.2|9=59|35=0|34=31|49=NESTI|52=20100309-18:37:06|56=QUANT|57=ADMIN|10=100|
8=FIX.4.2|9=54|35=0|34=26|49=QUANT|52=20100309-18:38:14.236|56=NESTI|10=025|
8=FIX.4.2|9=59|35=0|34=32|49=NESTI|52=20100309-18:38:07|56=QUANT|57=ADMIN|10=103|
8=FIX.4.2|9=54|35=0|34=27|49=QUANT|52=20100309-18:39:14.266|56=NESTI|10=030|
8=FIX.4.2|9=59|35=0|34=33|49=NESTI|52=20100309-18:39:08|56=QUANT|57=ADMIN|10=106|
8=FIX.4.2|9=54|35=0|34=28|49=QUANT|52=20100309-18:40:14.296|56=NESTI|10=026|
8=FIX.4.2|9=59|35=0|34=34|49=NESTI|52=20100309-18:40:09|56=QUANT|57=ADMIN|10=100|
8=FIX.4.2|9=54|35=0|34=29|49=QUANT|52=20100309-18:41:14.311|56=NESTI|10=016|
8=FIX.4.2|9=59|35=0|34=35|49=NESTI|52=20100309-18:41:10|56=QUANT|57=ADMIN|10=094|
8=FIX.4.2|9=54|35=0|34=30|49=QUANT|52=20100309-18:42:14.341|56=NESTI|10=012|
8=FIX.4.2|9=59|35=0|34=36|49=NESTI|52=20100309-18:42:11|56=QUANT|57=ADMIN|10=097|
8=FIX.4.2|9=54|35=0|34=31|49=QUANT|52=20100309-18:43:14.371|56=NESTI|10=017|
8=FIX.4.2|9=59|35=0|34=37|49=NESTI|52=20100309-18:43:12|56=QUANT|57=ADMIN|10=100|
8=FIX.4.2|9=54|35=0|34=32|49=QUANT|52=20100309-18:44:14.401|56=NESTI|10=013|
8=FIX.4.2|9=59|35=0|34=38|49=NESTI|52=20100309-18:44:13|56=QUANT|57=ADMIN|10=103|
8=FIX.4.2|9=54|35=0|34=33|49=QUANT|52=20100309-18:45:14.431|56=NESTI|10=018|
8=FIX.4.2|9=59|35=0|34=39|49=NESTI|52=20100309-18:45:14|56=QUANT|57=ADMIN|10=106|
8=FIX.4.2|9=66|35=A|34=34|49=QUANT|52=20100309-18:48:34.943|56=NESTI|98=0|108=60|10=080|
8=FIX.4.2|9=71|35=A|34=42|49=NESTI|52=20100309-18:48:26|56=QUANT|57=ADMIN|98=0|108=60|10=145|
8=FIX.4.2|9=64|35=2|34=35|49=QUANT|52=20100309-18:48:34.974|56=NESTI|7=40|16=0|10=214|
8=FIX.4.2|9=81|35=1|34=43|49=NESTI|52=20100309-18:48:26|56=QUANT|57=ADMIN|112=1268160506.344630|10=158|
8=FIX.4.2|9=89|35=4|34=40|43=Y|49=NESTI|52=20100309-18:48:26|56=QUANT|122=20100309-18:48:26|36=44|123=Y|10=214|
