8=FIX.4.2|9=68|35=A|34=1|49=QUANT1|52=20100315-13:42:01.836|56=NESTFIX|98=0|108=60|10=216|
8=FIX.4.2|9=68|35=A|34=1|49=NESTFIX|52=20100315-13:42:01.868|56=QUANT1|98=0|108=60|10=221|
8=FIX.4.2|9=126|35=D|34=2|49=QUANT1|52=20100315-13:42:45.008|56=NESTFIX|11=IAA0001|21=1|38=1|40=1|50=UA|54=1|55=PETR4.SA|60=20100315-10:42:45|10=128|
8=FIX.4.2|9=113|35=3|34=2|49=NESTFIX|52=20100315-13:42:45.054|56=QUANT1|45=2|58=Tag specified out of required order|371=50|372=D|10=200|
8=FIX.4.2|9=65|35=1|34=3|49=NESTFIX|52=20100315-13:43:13.320|56=QUANT1|112=TEST|10=181|
8=FIX.4.2|9=65|35=0|34=3|49=QUANT1|52=20100315-13:43:13.320|56=NESTFIX|112=TEST|10=180|
8=FIX.4.2|9=56|35=5|34=4|49=QUANT1|52=20100315-13:43:32.866|56=NESTFIX|10=184|
8=FIX.4.2|9=56|35=5|34=4|49=NESTFIX|52=20100315-13:43:32.866|56=QUANT1|10=184|
8=FIX.4.2|9=68|35=A|34=5|49=QUANT1|52=20100315-13:46:31.442|56=NESTFIX|98=0|108=60|10=220|
8=FIX.4.2|9=68|35=A|34=5|49=NESTFIX|52=20100315-13:46:31.489|56=QUANT1|98=0|108=60|10=231|
8=FIX.4.2|9=126|35=D|34=6|49=QUANT1|52=20100315-13:46:36.692|56=NESTFIX|11=IAA0001|21=1|38=1|40=1|50=UA|54=1|55=PETR4.SA|60=20100315-10:46:36|10=149|
8=FIX.4.2|9=113|35=3|34=6|49=NESTFIX|52=20100315-13:46:36.723|56=QUANT1|45=6|58=Tag specified out of required order|371=50|372=D|10=215|
8=FIX.4.2|9=56|35=5|34=7|49=QUANT1|52=20100315-13:47:00.442|56=NESTFIX|10=176|
8=FIX.4.2|9=56|35=5|34=7|49=NESTFIX|52=20100315-13:47:00.442|56=QUANT1|10=176|
8=FIX.4.2|9=68|35=A|34=8|49=QUANT1|52=20100315-13:47:26.551|56=NESTFIX|98=0|108=60|10=229|
8=FIX.4.2|9=68|35=A|34=8|49=NESTFIX|52=20100315-13:47:26.598|56=QUANT1|98=0|108=60|10=240|
8=FIX.4.2|9=120|35=D|34=9|49=QUANT1|52=20100315-13:47:28.895|56=NESTFIX|11=IAA0001|21=1|38=1|40=1|54=1|55=PETR4.SA|60=20100315-10:47:28|10=098|
8=FIX.4.2|9=69|35=A|34=10|49=QUANT1|52=20100315-13:50:17.502|56=NESTFIX|98=0|108=60|10=005|
8=FIX.4.2|9=68|35=A|34=9|49=NESTFIX|52=20100315-13:50:17.533|56=QUANT1|98=0|108=60|10=224|
8=FIX.4.2|9=121|35=D|34=11|49=QUANT1|52=20100315-13:50:19.783|56=NESTFIX|11=IAA0001|21=1|38=1|40=1|54=1|55=PETR4.SA|60=20100315-10:50:19|10=124|
8=FIX.4.2|9=69|35=A|34=12|49=QUANT1|52=20100315-14:18:45.277|56=NESTFIX|98=0|108=60|10=022|
8=FIX.4.2|9=69|35=A|34=10|49=NESTFIX|52=20100315-14:18:45.308|56=QUANT1|98=0|108=60|10=015|
8=FIX.4.2|9=126|35=D|34=13|49=QUANT1|52=20100315-14:19:01.308|56=NESTFIX|11=IAA0001|21=1|38=1|40=2|44=1|54=1|55=PETR4.SA|60=20100315-11:19:01|10=078|
8=FIX.4.2|9=66|35=1|34=14|49=QUANT1|52=20100315-14:19:57.276|56=NESTFIX|112=TEST|10=254|
8=FIX.4.2|9=57|35=0|34=11|49=NESTFIX|52=20100315-14:20:03.698|56=QUANT1|10=223|
8=FIX.4.2|9=66|35=0|34=12|49=NESTFIX|52=20100315-14:20:18.244|56=QUANT1|112=TEST|10=235|
8=FIX.4.2|9=57|35=0|34=15|49=QUANT1|52=20100315-14:20:57.291|56=NESTFIX|10=225|
8=FIX.4.2|9=66|35=1|34=16|49=QUANT1|52=20100315-14:21:31.306|56=NESTFIX|112=TEST|10=235|
8=FIX.4.2|9=69|35=A|34=17|49=QUANT1|52=20100315-14:22:46.321|56=NESTFIX|98=0|108=60|10=013|
8=FIX.4.2|9=69|35=A|34=18|49=QUANT1|52=20100315-14:23:16.336|56=NESTFIX|98=0|108=60|10=018|
8=FIX.4.2|9=69|35=A|34=19|49=QUANT1|52=20100315-14:23:46.335|56=NESTFIX|98=0|108=60|10=021|
8=FIX.4.2|9=69|35=A|34=20|49=QUANT1|52=20100315-14:24:16.351|56=NESTFIX|98=0|108=60|10=009|
8=FIX.4.2|9=69|35=A|34=21|49=QUANT1|52=20100315-14:24:46.366|56=NESTFIX|98=0|108=60|10=019|
8=FIX.4.2|9=69|35=A|34=22|49=QUANT1|52=20100315-14:25:16.366|56=NESTFIX|98=0|108=60|10=018|
8=FIX.4.2|9=69|35=A|34=20|49=NESTFIX|52=20100315-14:25:17.756|56=QUANT1|98=0|108=60|10=020|
8=FIX.4.2|9=67|35=2|34=23|49=QUANT1|52=20100315-14:25:17.756|56=NESTFIX|7=13|16=0|10=152|
8=FIX.4.2|9=67|35=2|34=21|49=NESTFIX|52=20100315-14:25:19.287|56=QUANT1|7=15|16=0|10=153|
8=FIX.4.2|9=100|35=4|34=15|43=Y|49=QUANT1|52=20100315-14:25:19.662|56=NESTFIX|122=20100315-14:25:19.662|36=24|123=Y|10=073|
8=FIX.4.2|9=100|35=4|34=13|43=Y|49=NESTFIX|52=20100315-14:25:20.662|56=QUANT1|122=20100315-14:25:20.662|36=18|123=Y|10=058|
8=FIX.4.2|9=232|35=8|34=18|43=Y|49=NESTFIX|50=RAI|52=20100315-14:25:20.662|56=QUANT1|122=20100315-14:25:12.803|6=0.00000000|11=IAA0001|14=0|17=1100000001|20=0|31=0.00000000|32=0|37=BNF00001QUANT|38=1|39=0|44=1.00000000|54=1|55=PETR4.SA|150=0|151=1|10=114|
8=FIX.4.2|9=100|35=4|34=19|43=Y|49=NESTFIX|52=20100315-14:25:20.709|56=QUANT1|122=20100315-14:25:20.709|36=22|123=Y|10=063|
8=FIX.4.2|9=69|35=A|34=24|49=QUANT1|52=20100315-14:28:06.160|56=NESTFIX|98=0|108=60|10=014|
8=FIX.4.2|9=69|35=A|34=24|49=NESTFIX|52=20100315-14:28:06.176|56=QUANT1|98=0|108=60|10=021|
8=FIX.4.2|9=67|35=2|34=25|49=QUANT1|52=20100315-14:28:06.192|56=NESTFIX|7=22|16=0|10=149|
8=FIX.4.2|9=100|35=4|34=22|43=Y|49=NESTFIX|52=20100315-14:28:06.192|56=QUANT1|122=20100315-14:28:06.192|36=25|123=Y|10=066|
8=FIX.4.2|9=121|35=D|34=26|49=QUANT1|52=20100315-14:28:30.394|56=NESTFIX|11=IAA0002|21=1|38=1|40=1|54=1|55=PETR4.SA|60=20100315-11:28:30|10=127|
8=FIX.4.2|9=201|35=8|34=25|49=NESTFIX|50=RAI|52=20100315-14:28:48.785|56=QUANT1|6=0.00000000|11=IAA0002|14=0|17=1100000003|20=0|31=0.00000000|32=0|37=BNF00002QUANT|38=1|39=0|44=0.00000000|54=1|55=PETR4.SA|150=0|151=1|10=140|
8=FIX.4.2|9=122|35=F|34=27|49=QUANT1|52=20100315-14:28:55.253|56=NESTFIX|11=IAA0003|38=1|41=IAA0002|54=1|55=PETR4.SA|60=20100315-11:28:55|10=023|
8=FIX.4.2|9=57|35=0|34=28|49=QUANT1|52=20100315-14:29:55.190|56=NESTFIX|10=234|
8=FIX.4.2|9=66|35=1|34=29|49=QUANT1|52=20100315-14:30:00.190|56=NESTFIX|112=TEST|10=236|
8=FIX.4.2|9=66|35=1|34=26|49=NESTFIX|52=20100315-14:30:31.330|56=QUANT1|112=TEST|10=233|
8=FIX.4.2|9=66|35=0|34=30|49=QUANT1|52=20100315-14:30:31.330|56=NESTFIX|112=TEST|10=227|
8=FIX.4.2|9=66|35=0|34=27|49=NESTFIX|52=20100315-14:30:45.939|56=QUANT1|112=TEST|10=253|
8=FIX.4.2|9=57|35=0|34=31|49=QUANT1|52=20100315-14:31:31.220|56=NESTFIX|10=209|
8=FIX.4.2|9=57|35=0|34=28|49=NESTFIX|52=20100315-14:31:45.767|56=QUANT1|10=236|
8=FIX.4.2|9=205|35=8|34=29|49=NESTFIX|52=20100315-14:31:52.548|56=QUANT1|6=0.00000000|11=IAA0003|14=0|17=1200000005|20=0|31=0.00000000|32=0|37=BNF00003QUANT|38=1|39=6|41=IAA0002|44=0.00000000|54=1|55=PETR4.SA|150=6|151=1|10=072|
8=FIX.4.2|9=57|35=0|34=32|49=QUANT1|52=20100315-14:32:31.266|56=NESTFIX|10=221|
8=FIX.4.2|9=57|35=0|34=30|49=NESTFIX|52=20100315-14:32:52.578|56=QUANT1|10=228|
8=FIX.4.2|9=121|35=D|34=33|49=QUANT1|52=20100315-14:33:15.750|56=NESTFIX|11=IAA0004|21=1|38=1|40=1|54=1|55=VALE5.SA|60=20100315-11:33:15|10=103|
8=FIX.4.2|9=201|35=8|34=31|49=NESTFIX|50=RAI|52=20100315-14:33:23.937|56=QUANT1|6=0.00000000|11=IAA0004|14=0|17=1100000007|20=0|31=0.00000000|32=0|37=BNF00004QUANT|38=1|39=0|44=0.00000000|54=1|55=VALE5.SA|150=0|151=1|10=115|
8=FIX.4.2|9=195|35=8|34=32|49=NESTFIX|52=20100315-14:33:24.078|56=QUANT1|6=46.61000000|11=IAA0004|14=1|17=173000198|20=0|31=46.61000000|32=1|37=BNF00004QUANT|38=1|39=2|44=0.00000000|54=1|55=VALE5.SA|150=2|151=0|10=105|
8=FIX.4.2|9=121|35=D|34=34|49=QUANT1|52=20100315-14:33:38.531|56=NESTFIX|11=IAA0005|21=1|38=5|40=1|54=1|55=VALE5.SA|60=20100315-11:33:38|10=116|
8=FIX.4.2|9=201|35=8|34=33|49=NESTFIX|50=RAI|52=20100315-14:33:38.594|56=QUANT1|6=0.00000000|11=IAA0005|14=0|17=1100000010|20=0|31=0.00000000|32=0|37=BNF00005QUANT|38=5|39=0|44=0.00000000|54=1|55=VALE5.SA|150=0|151=5|10=126|
8=FIX.4.2|9=195|35=8|34=34|49=NESTFIX|52=20100315-14:33:38.672|56=QUANT1|6=46.60000000|11=IAA0005|14=5|17=173000200|20=0|31=46.60000000|32=5|37=BNF00005QUANT|38=5|39=2|44=0.00000000|54=1|55=VALE5.SA|150=2|151=0|10=108|
8=FIX.4.2|9=126|35=D|34=35|49=QUANT1|52=20100315-14:34:01.093|56=NESTFIX|11=IAA0006|21=1|38=5|40=2|44=1|54=1|55=VALE5.SA|60=20100315-11:34:01|10=068|
8=FIX.4.2|9=201|35=8|34=35|49=NESTFIX|50=RAI|52=20100315-14:34:01.124|56=QUANT1|6=0.00000000|11=IAA0006|14=0|17=1100000013|20=0|31=0.00000000|32=0|37=BNF00006QUANT|38=5|39=0|44=1.00000000|54=1|55=VALE5.SA|150=0|151=5|10=114|
8=FIX.4.2|9=122|35=F|34=36|49=QUANT1|52=20100315-14:34:04.828|56=NESTFIX|11=IAA0007|38=5|41=IAA0006|54=1|55=VALE5.SA|60=20100315-11:34:04|10=007|
8=FIX.4.2|9=205|35=8|34=36|49=NESTFIX|52=20100315-14:34:04.843|56=QUANT1|6=0.00000000|11=IAA0007|14=0|17=1200000015|20=0|31=0.00000000|32=0|37=BNF00007QUANT|38=5|39=6|41=IAA0006|44=0.00000000|54=1|55=VALE5.SA|150=6|151=5|10=071|
8=FIX.4.2|9=194|35=8|34=37|49=NESTFIX|52=20100315-14:34:05.015|56=QUANT1|6=0.00000000|11=IAA0006|14=0|17=1373000202|20=0|31=0.00000000|32=0|37=BNF00006QUANT|38=5|39=4|44=1.00000000|54=1|55=VALE5.SA|150=4|151=0|10=018|
8=FIX.4.2|9=57|35=0|34=37|49=QUANT1|52=20100315-14:35:04.311|56=NESTFIX|10=220|
8=FIX.4.2|9=57|35=0|34=38|49=NESTFIX|52=20100315-14:35:05.030|56=QUANT1|10=220|
8=FIX.4.2|9=57|35=5|34=38|49=QUANT1|52=20100315-14:35:08.311|56=NESTFIX|10=230|
8=FIX.4.2|9=57|35=5|34=39|49=NESTFIX|52=20100315-14:35:08.311|56=QUANT1|10=231|
8=FIX.4.2|9=69|35=A|34=39|49=QUANT1|52=20100315-16:12:27.971|56=NESTFIX|98=0|108=60|10=028|
8=FIX.4.2|9=69|35=A|34=40|49=NESTFIX|52=20100315-16:12:28.002|56=QUANT1|98=0|108=60|10=006|
8=FIX.4.2|9=121|35=D|34=40|49=QUANT1|52=20100315-16:12:31.424|56=NESTFIX|11=IAA0001|21=1|38=1|40=1|54=1|55=PETR4.SA|60=20100315-13:12:31|10=108|
8=FIX.4.2|9=57|35=0|34=41|49=QUANT1|52=20100315-16:13:31.986|56=NESTFIX|10=231|
8=FIX.4.2|9=66|35=1|34=42|49=QUANT1|52=20100315-16:13:40.985|56=NESTFIX|112=TEST|10=250|
8=FIX.4.2|9=66|35=1|34=41|49=NESTFIX|52=20100315-16:13:45.407|56=QUANT1|112=TEST|10=243|
8=FIX.4.2|9=66|35=0|34=43|49=QUANT1|52=20100315-16:13:50.548|56=NESTFIX|112=TEST|10=246|
8=FIX.4.2|9=66|35=0|34=42|49=NESTFIX|52=20100315-16:13:50.548|56=QUANT1|112=TEST|10=245|
8=FIX.4.2|9=201|35=8|34=43|49=NESTFIX|50=RAI|52=20100315-16:14:20.907|56=QUANT1|6=0.00000000|11=IAA0001|14=0|17=1100000024|20=0|31=0.00000000|32=0|37=BNF00020QUANT|38=1|39=0|44=0.00000000|54=1|55=PETR4.SA|150=0|151=1|10=125|
8=FIX.4.2|9=195|35=8|34=44|49=NESTFIX|52=20100315-16:14:21.110|56=QUANT1|6=36.63000000|11=IAA0001|14=1|17=173000442|20=0|31=36.63000000|32=1|37=BNF00020QUANT|38=1|39=2|44=0.00000000|54=1|55=PETR4.SA|150=2|151=0|10=100|
8=FIX.4.2|9=57|35=5|34=44|49=QUANT1|52=20100315-16:14:46.016|56=NESTFIX|10=230|
8=FIX.4.2|9=57|35=5|34=45|49=NESTFIX|52=20100315-16:14:46.016|56=QUANT1|10=231|
8=FIX.4.2|9=69|35=A|34=45|49=QUANT1|52=20100315-16:16:02.515|56=NESTFIX|98=0|108=60|10=016|
8=FIX.4.2|9=69|35=A|34=46|49=NESTFIX|52=20100315-16:16:02.546|56=QUANT1|98=0|108=60|10=021|
8=FIX.4.2|9=121|35=D|34=46|49=QUANT1|52=20100315-16:16:11.609|56=NESTFIX|11=IAA0001|21=1|38=1|40=1|54=1|55=PETR4.SA|60=20100315-13:16:11|10=123|
8=FIX.4.2|9=201|35=8|34=47|49=NESTFIX|50=RAI|52=20100315-16:16:17.452|56=QUANT1|6=0.00000000|11=IAA0001|14=0|17=1100000027|20=0|31=0.00000000|32=0|37=BNF00021QUANT|38=1|39=0|44=0.00000000|54=1|55=PETR4.SA|150=0|151=1|10=136|
8=FIX.4.2|9=195|35=8|34=48|49=NESTFIX|52=20100315-16:16:17.577|56=QUANT1|6=36.63000000|11=IAA0001|14=1|17=173000447|20=0|31=36.63000000|32=1|37=BNF00021QUANT|38=1|39=2|44=0.00000000|54=1|55=PETR4.SA|150=2|151=0|10=134|
8=FIX.4.2|9=69|35=A|34=47|49=QUANT1|52=20100315-16:26:28.866|56=NESTFIX|98=0|108=60|10=036|
8=FIX.4.2|9=69|35=A|34=50|49=NESTFIX|52=20100315-16:26:28.897|56=QUANT1|98=0|108=60|10=034|
8=FIX.4.2|9=67|35=2|34=48|49=QUANT1|52=20100315-16:26:28.913|56=NESTFIX|7=49|16=0|10=168|
8=FIX.4.2|9=100|35=4|34=49|43=Y|49=NESTFIX|52=20100315-16:26:28.929|56=QUANT1|122=20100315-16:26:28.929|36=51|123=Y|10=098|
8=FIX.4.2|9=121|35=D|34=49|49=QUANT1|52=20100315-16:26:37.710|56=NESTFIX|11=IAA0001|21=1|38=1|40=1|54=1|55=ARCZ6.SA|60=20100315-13:26:37|10=128|
8=FIX.4.2|9=201|35=8|34=51|49=NESTFIX|50=RAI|52=20100315-16:26:37.772|56=QUANT1|6=0.00000000|11=IAA0001|14=0|17=1100000030|20=0|31=0.00000000|32=0|37=BNF00022QUANT|38=1|39=0|44=0.00000000|54=1|55=ARCZ6.SA|150=0|151=1|10=125|
8=FIX.4.2|9=121|35=D|34=50|49=QUANT1|52=20100315-16:27:22.569|56=NESTFIX|11=IAA0002|21=1|38=1|40=1|54=1|55=PETR4.SA|60=20100315-13:27:22|10=132|
8=FIX.4.2|9=201|35=8|34=52|49=NESTFIX|50=RAI|52=20100315-16:27:22.678|56=QUANT1|6=0.00000000|11=IAA0002|14=0|17=1100000032|20=0|31=0.00000000|32=0|37=BNF00023QUANT|38=1|39=0|44=0.00000000|54=1|55=PETR4.SA|150=0|151=1|10=139|
8=FIX.4.2|9=195|35=8|34=53|49=NESTFIX|52=20100315-16:27:22.850|56=QUANT1|6=36.64000000|11=IAA0002|14=1|17=173000500|20=0|31=36.64000000|32=1|37=BNF00023QUANT|38=1|39=2|44=0.00000000|54=1|55=PETR4.SA|150=2|151=0|10=117|
8=FIX.4.2|9=121|35=D|34=51|49=QUANT1|52=20100315-16:27:46.397|56=NESTFIX|11=IAA0003|21=1|38=1|40=1|54=1|55=LAME3.SA|60=20100315-13:27:46|10=116|
8=FIX.4.2|9=201|35=8|34=54|49=NESTFIX|50=RAI|52=20100315-16:27:46.553|56=QUANT1|6=0.00000000|11=IAA0003|14=0|17=1100000035|20=0|31=0.00000000|32=0|37=BNF00024QUANT|38=1|39=0|44=0.00000000|54=1|55=LAME3.SA|150=0|151=1|10=115|
8=FIX.4.2|9=195|35=8|34=55|49=NESTFIX|52=20100315-16:27:46.678|56=QUANT1|6=11.12000000|11=IAA0003|14=1|17=173000504|20=0|31=11.12000000|32=1|37=BNF00024QUANT|38=1|39=2|44=0.00000000|54=1|55=LAME3.SA|150=2|151=0|10=082|
8=FIX.4.2|9=57|35=0|34=56|49=NESTFIX|52=20100315-16:28:46.771|56=QUANT1|10=241|
8=FIX.4.2|9=57|35=0|34=52|49=QUANT1|52=20100315-16:28:46.771|56=NESTFIX|10=237|
8=FIX.4.2|9=57|35=5|34=53|49=QUANT1|52=20100315-16:28:51.911|56=NESTFIX|10=235|
8=FIX.4.2|9=57|35=5|34=57|49=NESTFIX|52=20100315-16:28:51.911|56=QUANT1|10=239|
8=FIX.4.2|9=69|35=A|34=54|49=QUANT1|52=20100315-16:29:58.770|56=NESTFIX|98=0|108=60|10=034|
8=FIX.4.2|9=69|35=A|34=58|49=NESTFIX|52=20100315-16:29:58.801|56=QUANT1|98=0|108=60|10=033|
8=FIX.4.2|9=121|35=D|34=55|49=QUANT1|52=20100315-16:30:13.035|56=NESTFIX|11=IAA0004|21=1|38=1|40=1|54=1|55=LAME3.SA|60=20100315-13:30:13|10=086|
8=FIX.4.2|9=66|35=1|34=56|49=QUANT1|52=20100315-16:31:10.769|56=NESTFIX|112=TEST|10=252|
8=FIX.4.2|9=57|35=0|34=59|49=NESTFIX|52=20100315-16:31:13.784|56=QUANT1|10=236|
8=FIX.4.2|9=66|35=0|34=60|49=NESTFIX|52=20100315-16:31:13.800|56=QUANT1|112=TEST|10=235|
8=FIX.4.2|9=57|35=0|34=57|49=QUANT1|52=20100315-16:32:10.784|56=NESTFIX|10=232|
8=FIX.4.2|9=57|35=0|34=61|49=NESTFIX|52=20100315-16:32:13.768|56=QUANT1|10=232|
8=FIX.4.2|9=201|35=8|34=62|49=NESTFIX|50=RAI|52=20100315-16:32:25.299|56=QUANT1|6=0.00000000|11=IAA0004|14=0|17=1100000038|20=0|31=0.00000000|32=0|37=BNF00025QUANT|38=1|39=0|44=0.00000000|54=1|55=LAME3.SA|150=0|151=1|10=119|
8=FIX.4.2|9=195|35=8|34=63|49=NESTFIX|52=20100315-16:32:29.971|56=QUANT1|6=11.12000000|11=IAA0004|14=1|17=173000514|20=0|31=11.12000000|32=1|37=BNF00025QUANT|38=1|39=2|44=0.00000000|54=1|55=LAME3.SA|150=2|151=0|10=077|
8=FIX.4.2|9=57|35=5|34=58|49=QUANT1|52=20100315-16:32:51.799|56=NESTFIX|10=249|
8=FIX.4.2|9=57|35=5|34=64|49=NESTFIX|52=20100315-16:32:51.799|56=QUANT1|10=246|
