8=FIX.4.1|9=69|35=A|34=1|49=QUANTIN|52=20100420-20:29:07|56=NESTFIXTEST|98=0|108=60|10=181|8=FIX.4.1|9=69|35=A|34=2|49=QUANTIN|52=20100420-20:29:08|56=NESTFIXTEST|98=0|108=60|10=183|8=FIX.4.1|9=69|35=A|34=3|49=QUANTIN|52=20100420-20:29:38|56=NESTFIXTEST|98=0|108=60|10=187|8=FIX.4.1|9=69|35=A|34=4|49=QUANTIN|52=20100420-20:30:08|56=NESTFIXTEST|98=0|108=60|10=177|8=FIX.4.1|9=69|35=A|34=5|49=QUANTIN|52=20100420-20:30:38|56=NESTFIXTEST|98=0|108=60|10=181|8=FIX.4.1|9=69|35=A|34=6|49=QUANTIN|52=20100420-20:31:08|56=NESTFIXTEST|98=0|108=60|10=180|8=FIX.4.1|9=69|35=A|34=7|49=QUANTIN|52=20100420-20:36:23|56=NESTFIXTEST|98=0|108=60|10=183|8=FIX.4.1|9=69|35=A|34=8|49=QUANTIN|52=20100420-20:36:24|56=NESTFIXTEST|98=0|108=60|10=185|8=FIX.4.1|9=69|35=A|34=9|49=QUANTIN|52=20100420-20:36:54|56=NESTFIXTEST|98=0|108=60|10=189|8=FIX.4.1|9=70|35=A|34=10|49=QUANTIN|52=20100420-20:37:24|56=NESTFIXTEST|98=0|108=60|10=219|8=FIX.4.1|9=70|35=A|34=11|49=QUANTIN|52=20100420-20:37:54|56=NESTFIXTEST|98=0|108=60|10=223|8=FIX.4.1|9=70|35=A|34=12|49=QUANTIN|52=20100420-20:38:24|56=NESTFIXTEST|98=0|108=60|10=222|8=FIX.4.1|9=70|35=A|34=13|49=QUANTIN|52=20100420-20:38:54|56=NESTFIXTEST|98=0|108=60|10=226|8=FIX.4.1|9=70|35=A|34=14|49=QUANTIN|52=20100420-20:39:24|56=NESTFIXTEST|98=0|108=60|10=225|8=FIX.4.1|9=70|35=A|34=15|49=QUANTIN|52=20100420-20:41:51|56=NESTFIXTEST|98=0|108=60|10=219|