8=FIX.4.2|9=73|35=A|34=1|49=QUANTIN|52=20100821-22:29:43.500|56=NESTFIXTEST|98=0|108=60|10=123|8=FIX.4.2|9=73|35=A|34=2|49=QUANTIN|52=20100821-22:29:44.500|56=NESTFIXTEST|98=0|108=60|10=125|8=FIX.4.2|9=73|35=A|34=3|49=QUANTIN|52=20100821-22:32:30.526|56=NESTFIXTEST|98=0|108=60|10=123|8=FIX.4.2|9=73|35=A|34=4|49=QUANTIN|52=20100821-22:32:47.713|56=NESTFIXTEST|98=0|108=60|10=130|