8=FIX.4.1|9=71|35=A|34=1|49=QUANTTEST|52=20100420-20:10:51|56=NESTFIXTEST|98=0|108=60|10=076|8=FIX.4.1|9=71|35=A|34=2|49=QUANTTEST|52=20100420-20:10:52|56=NESTFIXTEST|98=0|108=60|10=078|8=FIX.4.1|9=71|35=A|34=3|49=QUANTTEST|52=20100420-20:18:30|56=NESTFIXTEST|98=0|108=60|10=083|8=FIX.4.1|9=71|35=A|34=4|49=QUANTTEST|52=20100420-20:18:54|56=NESTFIXTEST|98=0|108=60|10=090|8=FIX.4.1|9=71|35=A|34=5|49=QUANTTEST|52=20100420-20:19:24|56=NESTFIXTEST|98=0|108=60|10=089|8=FIX.4.1|9=71|35=A|34=6|49=QUANTTEST|52=20100420-20:19:54|56=NESTFIXTEST|98=0|108=60|10=093|8=FIX.4.1|9=71|35=A|34=7|49=QUANTTEST|52=20100420-20:20:24|56=NESTFIXTEST|98=0|108=60|10=083|8=FIX.4.1|9=71|35=A|34=8|49=QUANTTEST|52=20100420-20:22:25|56=NESTFIXTEST|98=0|108=60|10=087|8=FIX.4.1|9=71|35=A|34=9|49=QUANTTEST|52=20100420-20:22:26|56=NESTFIXTEST|98=0|108=60|10=089|8=FIX.4.1|9=72|35=A|34=10|49=QUANTTEST|52=20100420-20:22:56|56=NESTFIXTEST|98=0|108=60|10=133|8=FIX.4.1|9=72|35=A|34=11|49=QUANTTEST|52=20100420-20:23:26|56=NESTFIXTEST|98=0|108=60|10=132|8=FIX.4.1|9=72|35=A|34=12|49=QUANTTEST|52=20100420-20:24:29|56=NESTFIXTEST|98=0|108=60|10=137|8=FIX.4.1|9=72|35=A|34=13|49=QUANTTEST|52=20100420-20:24:30|56=NESTFIXTEST|98=0|108=60|10=130|8=FIX.4.1|9=72|35=A|34=14|49=QUANTTEST|52=20100420-20:25:00|56=NESTFIXTEST|98=0|108=60|10=129|8=FIX.4.1|9=72|35=A|34=15|49=QUANTTEST|52=20100420-20:25:30|56=NESTFIXTEST|98=0|108=60|10=133|8=FIX.4.1|9=72|35=A|34=16|49=QUANTTEST|52=20100420-20:26:00|56=NESTFIXTEST|98=0|108=60|10=132|8=FIX.4.1|9=72|35=A|34=17|49=QUANTTEST|52=20100420-20:26:30|56=NESTFIXTEST|98=0|108=60|10=136|8=FIX.4.1|9=72|35=A|34=18|49=QUANTTEST|52=20100420-20:27:02|56=NESTFIXTEST|98=0|108=60|10=137|