8=FIX.4.2|9=71|35=A|34=1|49=QUANTTEST|52=20111111-16:40:03.127|56=NESTFIX|98=0|108=60|10=217|8=FIX.4.2|9=59|35=0|34=2|49=QUANTTEST|52=20111111-16:41:03.127|56=NESTFIX|10=180|8=FIX.4.2|9=167|35=D|34=3|49=QUANTTEST|52=20111111-16:41:58.470|56=NESTFIX|11=IAA0002|21=1|38=100|40=2|44=0.01|54=1|55=PETR4|60=20111111-14:41:58|9304=N|9305=3|9306=54|9307=43|9308=N|10=088|8=FIX.4.2|9=59|35=0|34=4|49=QUANTTEST|52=20111111-16:42:58.283|56=NESTFIX|10=196|8=FIX.4.2|9=59|35=0|34=5|49=QUANTTEST|52=20111111-16:43:58.314|56=NESTFIX|10=193|8=FIX.4.2|9=59|35=0|34=6|49=QUANTTEST|52=20111111-16:44:58.330|56=NESTFIX|10=193|8=FIX.4.2|9=59|35=0|34=7|49=QUANTTEST|52=20111111-16:45:58.345|56=NESTFIX|10=201|8=FIX.4.2|9=59|35=0|34=8|49=QUANTTEST|52=20111111-16:46:58.345|56=NESTFIX|10=203|8=FIX.4.2|9=59|35=0|34=9|49=QUANTTEST|52=20111111-16:47:58.361|56=NESTFIX|10=203|8=FIX.4.2|9=60|35=0|34=10|49=QUANTTEST|52=20111111-16:48:58.377|56=NESTFIX|10=243|8=FIX.4.2|9=60|35=0|34=11|49=QUANTTEST|52=20111111-16:49:58.377|56=NESTFIX|10=245|8=FIX.4.2|9=60|35=0|34=12|49=QUANTTEST|52=20111111-16:50:58.377|56=NESTFIX|10=238|8=FIX.4.2|9=60|35=0|34=13|49=QUANTTEST|52=20111111-16:51:58.377|56=NESTFIX|10=240|8=FIX.4.2|9=60|35=0|34=14|49=QUANTTEST|52=20111111-16:52:58.377|56=NESTFIX|10=242|8=FIX.4.2|9=60|35=0|34=15|49=QUANTTEST|52=20111111-16:53:58.377|56=NESTFIX|10=244|8=FIX.4.2|9=60|35=0|34=16|49=QUANTTEST|52=20111111-16:54:58.377|56=NESTFIX|10=246|8=FIX.4.2|9=60|35=0|34=17|49=QUANTTEST|52=20111111-16:55:58.377|56=NESTFIX|10=248|8=FIX.4.2|9=60|35=0|34=18|49=QUANTTEST|52=20111111-16:56:58.377|56=NESTFIX|10=250|8=FIX.4.2|9=60|35=0|34=19|49=QUANTTEST|52=20111111-16:57:58.377|56=NESTFIX|10=252|8=FIX.4.2|9=60|35=0|34=20|49=QUANTTEST|52=20111111-16:58:58.377|56=NESTFIX|10=245|8=FIX.4.2|9=60|35=0|34=21|49=QUANTTEST|52=20111111-16:59:58.377|56=NESTFIX|10=247|8=FIX.4.2|9=60|35=0|34=22|49=QUANTTEST|52=20111111-17:00:58.377|56=NESTFIX|10=235|8=FIX.4.2|9=60|35=0|34=23|49=QUANTTEST|52=20111111-17:01:58.050|56=NESTFIX|10=225|8=FIX.4.2|9=60|35=0|34=24|49=QUANTTEST|52=20111111-17:02:58.877|56=NESTFIX|10=244|8=FIX.4.2|9=60|35=0|34=25|49=QUANTTEST|52=20111111-17:03:58.691|56=NESTFIX|10=240|8=FIX.4.2|9=60|35=0|34=26|49=QUANTTEST|52=20111111-17:04:58.504|56=NESTFIX|10=235|8=FIX.4.2|9=60|35=0|34=27|49=QUANTTEST|52=20111111-17:05:58.317|56=NESTFIX|10=239|8=FIX.4.2|9=60|35=0|34=28|49=QUANTTEST|52=20111111-17:06:58.064|56=NESTFIX|10=240|8=FIX.4.2|9=60|35=0|34=29|49=QUANTTEST|52=20111111-17:07:58.804|56=NESTFIX|10=244|8=FIX.4.2|9=72|35=A|34=30|49=QUANTTEST|52=20111111-19:34:42.259|56=NESTFIX|98=0|108=60|10=027|8=FIX.4.2|9=70|35=2|34=31|49=QUANTTEST|52=20111111-19:34:42.338|56=NESTFIX|7=29|16=0|10=162|8=FIX.4.2|9=168|35=D|34=32|49=QUANTTEST|52=20111111-19:35:02.924|56=NESTFIX|11=IAA0004|21=1|38=100|40=2|44=0.01|54=1|55=PETR4|60=20111111-17:35:02|9304=N|9305=3|9306=54|9307=43|9308=N|10=135|8=FIX.4.2|9=72|35=A|34=33|49=QUANTTEST|52=20111111-19:38:07.751|56=NESTFIX|98=0|108=60|10=032|8=FIX.4.2|9=70|35=2|34=34|49=QUANTTEST|52=20111111-19:38:08.672|56=NESTFIX|7=31|16=0|10=165|8=FIX.4.2|9=60|35=0|34=35|49=QUANTTEST|52=20111111-19:39:17.244|56=NESTFIX|10=241|8=FIX.4.2|9=124|35=F|34=36|49=QUANTTEST|52=20111111-19:39:21.899|56=NESTFIX|11=IAA0005|38=100|41=IAA0004|54=1|55=PETR4|60=20111111-17:39:02|10=210|8=FIX.4.2|9=60|35=0|34=37|49=QUANTTEST|52=20111111-19:40:21.292|56=NESTFIX|10=233|8=FIX.4.2|9=60|35=0|34=38|49=QUANTTEST|52=20111111-19:41:21.623|56=NESTFIX|10=233|8=FIX.4.2|9=60|35=0|34=39|49=QUANTTEST|52=20111111-19:42:21.937|56=NESTFIX|10=243|8=FIX.4.2|9=69|35=1|34=40|49=QUANTTEST|52=20111111-19:42:52.102|56=NESTFIX|112=TEST|10=251|8=FIX.4.2|9=72|35=A|34=41|49=QUANTTEST|52=20111111-19:44:22.567|56=NESTFIX|98=0|108=60|10=030|